{
	"contracts/indrarouter.sol": {
		"PancakeRouter": {
			"abi": [
				{
					"inputs": [
						{
							"internalType": "address",
							"name": "_factory",
							"type": "address"
						},
						{
							"internalType": "address",
							"name": "_WETH",
							"type": "address"
						}
					],
					"stateMutability": "nonpayable",
					"type": "constructor"
				},
				{
					"inputs": [],
					"name": "WETH",
					"outputs": [
						{
							"internalType": "address",
							"name": "",
							"type": "address"
						}
					],
					"stateMutability": "view",
					"type": "function"
				},
				{
					"inputs": [
						{
							"internalType": "address",
							"name": "tokenA",
							"type": "address"
						},
						{
							"internalType": "address",
							"name": "tokenB",
							"type": "address"
						},
						{
							"internalType": "uint256",
							"name": "amountADesired",
							"type": "uint256"
						},
						{
							"internalType": "uint256",
							"name": "amountBDesired",
							"type": "uint256"
						},
						{
							"internalType": "uint256",
							"name": "amountAMin",
							"type": "uint256"
						},
						{
							"internalType": "uint256",
							"name": "amountBMin",
							"type": "uint256"
						},
						{
							"internalType": "address",
							"name": "to",
							"type": "address"
						},
						{
							"internalType": "uint256",
							"name": "deadline",
							"type": "uint256"
						}
					],
					"name": "addLiquidity",
					"outputs": [
						{
							"internalType": "uint256",
							"name": "amountA",
							"type": "uint256"
						},
						{
							"internalType": "uint256",
							"name": "amountB",
							"type": "uint256"
						},
						{
							"internalType": "uint256",
							"name": "liquidity",
							"type": "uint256"
						}
					],
					"stateMutability": "nonpayable",
					"type": "function"
				},
				{
					"inputs": [
						{
							"internalType": "address",
							"name": "token",
							"type": "address"
						},
						{
							"internalType": "uint256",
							"name": "amountTokenDesired",
							"type": "uint256"
						},
						{
							"internalType": "uint256",
							"name": "amountTokenMin",
							"type": "uint256"
						},
						{
							"internalType": "uint256",
							"name": "amountETHMin",
							"type": "uint256"
						},
						{
							"internalType": "address",
							"name": "to",
							"type": "address"
						},
						{
							"internalType": "uint256",
							"name": "deadline",
							"type": "uint256"
						}
					],
					"name": "addLiquidityETH",
					"outputs": [
						{
							"internalType": "uint256",
							"name": "amountToken",
							"type": "uint256"
						},
						{
							"internalType": "uint256",
							"name": "amountETH",
							"type": "uint256"
						},
						{
							"internalType": "uint256",
							"name": "liquidity",
							"type": "uint256"
						}
					],
					"stateMutability": "payable",
					"type": "function"
				},
				{
					"inputs": [],
					"name": "factory",
					"outputs": [
						{
							"internalType": "address",
							"name": "",
							"type": "address"
						}
					],
					"stateMutability": "view",
					"type": "function"
				},
				{
					"inputs": [
						{
							"internalType": "uint256",
							"name": "amountOut",
							"type": "uint256"
						},
						{
							"internalType": "uint256",
							"name": "reserveIn",
							"type": "uint256"
						},
						{
							"internalType": "uint256",
							"name": "reserveOut",
							"type": "uint256"
						}
					],
					"name": "getAmountIn",
					"outputs": [
						{
							"internalType": "uint256",
							"name": "amountIn",
							"type": "uint256"
						}
					],
					"stateMutability": "pure",
					"type": "function"
				},
				{
					"inputs": [
						{
							"internalType": "uint256",
							"name": "amountIn",
							"type": "uint256"
						},
						{
							"internalType": "uint256",
							"name": "reserveIn",
							"type": "uint256"
						},
						{
							"internalType": "uint256",
							"name": "reserveOut",
							"type": "uint256"
						}
					],
					"name": "getAmountOut",
					"outputs": [
						{
							"internalType": "uint256",
							"name": "amountOut",
							"type": "uint256"
						}
					],
					"stateMutability": "pure",
					"type": "function"
				},
				{
					"inputs": [
						{
							"internalType": "uint256",
							"name": "amountOut",
							"type": "uint256"
						},
						{
							"internalType": "address[]",
							"name": "path",
							"type": "address[]"
						}
					],
					"name": "getAmountsIn",
					"outputs": [
						{
							"internalType": "uint256[]",
							"name": "amounts",
							"type": "uint256[]"
						}
					],
					"stateMutability": "view",
					"type": "function"
				},
				{
					"inputs": [
						{
							"internalType": "uint256",
							"name": "amountIn",
							"type": "uint256"
						},
						{
							"internalType": "address[]",
							"name": "path",
							"type": "address[]"
						}
					],
					"name": "getAmountsOut",
					"outputs": [
						{
							"internalType": "uint256[]",
							"name": "amounts",
							"type": "uint256[]"
						}
					],
					"stateMutability": "view",
					"type": "function"
				},
				{
					"inputs": [
						{
							"internalType": "uint256",
							"name": "amountA",
							"type": "uint256"
						},
						{
							"internalType": "uint256",
							"name": "reserveA",
							"type": "uint256"
						},
						{
							"internalType": "uint256",
							"name": "reserveB",
							"type": "uint256"
						}
					],
					"name": "quote",
					"outputs": [
						{
							"internalType": "uint256",
							"name": "amountB",
							"type": "uint256"
						}
					],
					"stateMutability": "pure",
					"type": "function"
				},
				{
					"inputs": [
						{
							"internalType": "address",
							"name": "tokenA",
							"type": "address"
						},
						{
							"internalType": "address",
							"name": "tokenB",
							"type": "address"
						},
						{
							"internalType": "uint256",
							"name": "liquidity",
							"type": "uint256"
						},
						{
							"internalType": "uint256",
							"name": "amountAMin",
							"type": "uint256"
						},
						{
							"internalType": "uint256",
							"name": "amountBMin",
							"type": "uint256"
						},
						{
							"internalType": "address",
							"name": "to",
							"type": "address"
						},
						{
							"internalType": "uint256",
							"name": "deadline",
							"type": "uint256"
						}
					],
					"name": "removeLiquidity",
					"outputs": [
						{
							"internalType": "uint256",
							"name": "amountA",
							"type": "uint256"
						},
						{
							"internalType": "uint256",
							"name": "amountB",
							"type": "uint256"
						}
					],
					"stateMutability": "nonpayable",
					"type": "function"
				},
				{
					"inputs": [
						{
							"internalType": "address",
							"name": "token",
							"type": "address"
						},
						{
							"internalType": "uint256",
							"name": "liquidity",
							"type": "uint256"
						},
						{
							"internalType": "uint256",
							"name": "amountTokenMin",
							"type": "uint256"
						},
						{
							"internalType": "uint256",
							"name": "amountETHMin",
							"type": "uint256"
						},
						{
							"internalType": "address",
							"name": "to",
							"type": "address"
						},
						{
							"internalType": "uint256",
							"name": "deadline",
							"type": "uint256"
						}
					],
					"name": "removeLiquidityETH",
					"outputs": [
						{
							"internalType": "uint256",
							"name": "amountToken",
							"type": "uint256"
						},
						{
							"internalType": "uint256",
							"name": "amountETH",
							"type": "uint256"
						}
					],
					"stateMutability": "nonpayable",
					"type": "function"
				},
				{
					"inputs": [
						{
							"internalType": "address",
							"name": "token",
							"type": "address"
						},
						{
							"internalType": "uint256",
							"name": "liquidity",
							"type": "uint256"
						},
						{
							"internalType": "uint256",
							"name": "amountTokenMin",
							"type": "uint256"
						},
						{
							"internalType": "uint256",
							"name": "amountETHMin",
							"type": "uint256"
						},
						{
							"internalType": "address",
							"name": "to",
							"type": "address"
						},
						{
							"internalType": "uint256",
							"name": "deadline",
							"type": "uint256"
						}
					],
					"name": "removeLiquidityETHSupportingFeeOnTransferTokens",
					"outputs": [
						{
							"internalType": "uint256",
							"name": "amountETH",
							"type": "uint256"
						}
					],
					"stateMutability": "nonpayable",
					"type": "function"
				},
				{
					"inputs": [
						{
							"internalType": "address",
							"name": "token",
							"type": "address"
						},
						{
							"internalType": "uint256",
							"name": "liquidity",
							"type": "uint256"
						},
						{
							"internalType": "uint256",
							"name": "amountTokenMin",
							"type": "uint256"
						},
						{
							"internalType": "uint256",
							"name": "amountETHMin",
							"type": "uint256"
						},
						{
							"internalType": "address",
							"name": "to",
							"type": "address"
						},
						{
							"internalType": "uint256",
							"name": "deadline",
							"type": "uint256"
						},
						{
							"internalType": "bool",
							"name": "approveMax",
							"type": "bool"
						},
						{
							"internalType": "uint8",
							"name": "v",
							"type": "uint8"
						},
						{
							"internalType": "bytes32",
							"name": "r",
							"type": "bytes32"
						},
						{
							"internalType": "bytes32",
							"name": "s",
							"type": "bytes32"
						}
					],
					"name": "removeLiquidityETHWithPermit",
					"outputs": [
						{
							"internalType": "uint256",
							"name": "amountToken",
							"type": "uint256"
						},
						{
							"internalType": "uint256",
							"name": "amountETH",
							"type": "uint256"
						}
					],
					"stateMutability": "nonpayable",
					"type": "function"
				},
				{
					"inputs": [
						{
							"internalType": "address",
							"name": "token",
							"type": "address"
						},
						{
							"internalType": "uint256",
							"name": "liquidity",
							"type": "uint256"
						},
						{
							"internalType": "uint256",
							"name": "amountTokenMin",
							"type": "uint256"
						},
						{
							"internalType": "uint256",
							"name": "amountETHMin",
							"type": "uint256"
						},
						{
							"internalType": "address",
							"name": "to",
							"type": "address"
						},
						{
							"internalType": "uint256",
							"name": "deadline",
							"type": "uint256"
						},
						{
							"internalType": "bool",
							"name": "approveMax",
							"type": "bool"
						},
						{
							"internalType": "uint8",
							"name": "v",
							"type": "uint8"
						},
						{
							"internalType": "bytes32",
							"name": "r",
							"type": "bytes32"
						},
						{
							"internalType": "bytes32",
							"name": "s",
							"type": "bytes32"
						}
					],
					"name": "removeLiquidityETHWithPermitSupportingFeeOnTransferTokens",
					"outputs": [
						{
							"internalType": "uint256",
							"name": "amountETH",
							"type": "uint256"
						}
					],
					"stateMutability": "nonpayable",
					"type": "function"
				},
				{
					"inputs": [
						{
							"internalType": "address",
							"name": "tokenA",
							"type": "address"
						},
						{
							"internalType": "address",
							"name": "tokenB",
							"type": "address"
						},
						{
							"internalType": "uint256",
							"name": "liquidity",
							"type": "uint256"
						},
						{
							"internalType": "uint256",
							"name": "amountAMin",
							"type": "uint256"
						},
						{
							"internalType": "uint256",
							"name": "amountBMin",
							"type": "uint256"
						},
						{
							"internalType": "address",
							"name": "to",
							"type": "address"
						},
						{
							"internalType": "uint256",
							"name": "deadline",
							"type": "uint256"
						},
						{
							"internalType": "bool",
							"name": "approveMax",
							"type": "bool"
						},
						{
							"internalType": "uint8",
							"name": "v",
							"type": "uint8"
						},
						{
							"internalType": "bytes32",
							"name": "r",
							"type": "bytes32"
						},
						{
							"internalType": "bytes32",
							"name": "s",
							"type": "bytes32"
						}
					],
					"name": "removeLiquidityWithPermit",
					"outputs": [
						{
							"internalType": "uint256",
							"name": "amountA",
							"type": "uint256"
						},
						{
							"internalType": "uint256",
							"name": "amountB",
							"type": "uint256"
						}
					],
					"stateMutability": "nonpayable",
					"type": "function"
				},
				{
					"inputs": [
						{
							"internalType": "uint256",
							"name": "amountOut",
							"type": "uint256"
						},
						{
							"internalType": "address[]",
							"name": "path",
							"type": "address[]"
						},
						{
							"internalType": "address",
							"name": "to",
							"type": "address"
						},
						{
							"internalType": "uint256",
							"name": "deadline",
							"type": "uint256"
						}
					],
					"name": "swapETHForExactTokens",
					"outputs": [
						{
							"internalType": "uint256[]",
							"name": "amounts",
							"type": "uint256[]"
						}
					],
					"stateMutability": "payable",
					"type": "function"
				},
				{
					"inputs": [
						{
							"internalType": "uint256",
							"name": "amountOutMin",
							"type": "uint256"
						},
						{
							"internalType": "address[]",
							"name": "path",
							"type": "address[]"
						},
						{
							"internalType": "address",
							"name": "to",
							"type": "address"
						},
						{
							"internalType": "uint256",
							"name": "deadline",
							"type": "uint256"
						}
					],
					"name": "swapExactETHForTokens",
					"outputs": [
						{
							"internalType": "uint256[]",
							"name": "amounts",
							"type": "uint256[]"
						}
					],
					"stateMutability": "payable",
					"type": "function"
				},
				{
					"inputs": [
						{
							"internalType": "uint256",
							"name": "amountOutMin",
							"type": "uint256"
						},
						{
							"internalType": "address[]",
							"name": "path",
							"type": "address[]"
						},
						{
							"internalType": "address",
							"name": "to",
							"type": "address"
						},
						{
							"internalType": "uint256",
							"name": "deadline",
							"type": "uint256"
						}
					],
					"name": "swapExactETHForTokensSupportingFeeOnTransferTokens",
					"outputs": [],
					"stateMutability": "payable",
					"type": "function"
				},
				{
					"inputs": [
						{
							"internalType": "uint256",
							"name": "amountIn",
							"type": "uint256"
						},
						{
							"internalType": "uint256",
							"name": "amountOutMin",
							"type": "uint256"
						},
						{
							"internalType": "address[]",
							"name": "path",
							"type": "address[]"
						},
						{
							"internalType": "address",
							"name": "to",
							"type": "address"
						},
						{
							"internalType": "uint256",
							"name": "deadline",
							"type": "uint256"
						}
					],
					"name": "swapExactTokensForETH",
					"outputs": [
						{
							"internalType": "uint256[]",
							"name": "amounts",
							"type": "uint256[]"
						}
					],
					"stateMutability": "nonpayable",
					"type": "function"
				},
				{
					"inputs": [
						{
							"internalType": "uint256",
							"name": "amountIn",
							"type": "uint256"
						},
						{
							"internalType": "uint256",
							"name": "amountOutMin",
							"type": "uint256"
						},
						{
							"internalType": "address[]",
							"name": "path",
							"type": "address[]"
						},
						{
							"internalType": "address",
							"name": "to",
							"type": "address"
						},
						{
							"internalType": "uint256",
							"name": "deadline",
							"type": "uint256"
						}
					],
					"name": "swapExactTokensForETHSupportingFeeOnTransferTokens",
					"outputs": [],
					"stateMutability": "nonpayable",
					"type": "function"
				},
				{
					"inputs": [
						{
							"internalType": "uint256",
							"name": "amountIn",
							"type": "uint256"
						},
						{
							"internalType": "uint256",
							"name": "amountOutMin",
							"type": "uint256"
						},
						{
							"internalType": "address[]",
							"name": "path",
							"type": "address[]"
						},
						{
							"internalType": "address",
							"name": "to",
							"type": "address"
						},
						{
							"internalType": "uint256",
							"name": "deadline",
							"type": "uint256"
						}
					],
					"name": "swapExactTokensForTokens",
					"outputs": [
						{
							"internalType": "uint256[]",
							"name": "amounts",
							"type": "uint256[]"
						}
					],
					"stateMutability": "nonpayable",
					"type": "function"
				},
				{
					"inputs": [
						{
							"internalType": "uint256",
							"name": "amountIn",
							"type": "uint256"
						},
						{
							"internalType": "uint256",
							"name": "amountOutMin",
							"type": "uint256"
						},
						{
							"internalType": "address[]",
							"name": "path",
							"type": "address[]"
						},
						{
							"internalType": "address",
							"name": "to",
							"type": "address"
						},
						{
							"internalType": "uint256",
							"name": "deadline",
							"type": "uint256"
						}
					],
					"name": "swapExactTokensForTokensSupportingFeeOnTransferTokens",
					"outputs": [],
					"stateMutability": "nonpayable",
					"type": "function"
				},
				{
					"inputs": [
						{
							"internalType": "uint256",
							"name": "amountOut",
							"type": "uint256"
						},
						{
							"internalType": "uint256",
							"name": "amountInMax",
							"type": "uint256"
						},
						{
							"internalType": "address[]",
							"name": "path",
							"type": "address[]"
						},
						{
							"internalType": "address",
							"name": "to",
							"type": "address"
						},
						{
							"internalType": "uint256",
							"name": "deadline",
							"type": "uint256"
						}
					],
					"name": "swapTokensForExactETH",
					"outputs": [
						{
							"internalType": "uint256[]",
							"name": "amounts",
							"type": "uint256[]"
						}
					],
					"stateMutability": "nonpayable",
					"type": "function"
				},
				{
					"inputs": [
						{
							"internalType": "uint256",
							"name": "amountOut",
							"type": "uint256"
						},
						{
							"internalType": "uint256",
							"name": "amountInMax",
							"type": "uint256"
						},
						{
							"internalType": "address[]",
							"name": "path",
							"type": "address[]"
						},
						{
							"internalType": "address",
							"name": "to",
							"type": "address"
						},
						{
							"internalType": "uint256",
							"name": "deadline",
							"type": "uint256"
						}
					],
					"name": "swapTokensForExactTokens",
					"outputs": [
						{
							"internalType": "uint256[]",
							"name": "amounts",
							"type": "uint256[]"
						}
					],
					"stateMutability": "nonpayable",
					"type": "function"
				},
				{
					"stateMutability": "payable",
					"type": "receive"
				}
			],
			"devdoc": {
				"methods": {}
			},
			"evm": {
				"assembly": "    /* \"contracts/indrarouter.sol\":15929:33900  contract PancakeRouter is IPancakeRouter02 {... */\n  mstore(0x40, 0xc0)\n    /* \"contracts/indrarouter.sol\":16227:16336  constructor(address _factory, address _WETH) public {... */\n  callvalue\n    /* \"--CODEGEN--\":5:14   */\n  dup1\n    /* \"--CODEGEN--\":2:4   */\n  iszero\n  tag_1\n  jumpi\n    /* \"--CODEGEN--\":27:28   */\n  0x00\n    /* \"--CODEGEN--\":24:25   */\n  dup1\n    /* \"--CODEGEN--\":17:29   */\n  revert\n    /* \"--CODEGEN--\":2:4   */\ntag_1:\n    /* \"contracts/indrarouter.sol\":16227:16336  constructor(address _factory, address _WETH) public {... */\n  pop\n  mload(0x40)\n  sub(codesize, bytecodeSize)\n  dup1\n  bytecodeSize\n  dup4\n  codecopy\n  dup2\n  dup2\n  add\n  0x40\n  mstore\n    /* \"--CODEGEN--\":15:17   */\n  0x40\n    /* \"--CODEGEN--\":10:13   */\n  dup2\n    /* \"--CODEGEN--\":7:18   */\n  lt\n    /* \"--CODEGEN--\":4:6   */\n  iszero\n  tag_2\n  jumpi\n    /* \"--CODEGEN--\":31:32   */\n  0x00\n    /* \"--CODEGEN--\":28:29   */\n  dup1\n    /* \"--CODEGEN--\":21:33   */\n  revert\n    /* \"--CODEGEN--\":4:6   */\ntag_2:\n  pop\n    /* \"contracts/indrarouter.sol\":16227:16336  constructor(address _factory, address _WETH) public {... */\n  dup1\n  mload\n  0x20\n  swap1\n  swap2\n  add\n  mload\n  not(sub(shl(0x60, 0x01), 0x01))\n    /* \"contracts/indrarouter.sol\":16289:16307  factory = _factory */\n  0x60\n  swap3\n  dup4\n  shl\n  dup2\n  and\n  0x80\n  mstore\n    /* \"contracts/indrarouter.sol\":16317:16329  WETH = _WETH */\n  swap2\n  shl\n  and\n  0xa0\n  mstore\n    /* \"contracts/indrarouter.sol\":15929:33900  contract PancakeRouter is IPancakeRouter02 {... */\n  shr(0x60, mload(0x80))\n  shr(0x60, mload(0xa0))\n  codecopy(0x00, dataOffset(sub_0), dataSize(sub_0))\n  assignImmutable(\"0x229aeb8f3af31dca53a287d28e8ba0744a7f60e8208788a28095fa44a959baa9\")\n  assignImmutable(\"0xeba818bcee6eaba9d1a7c8e4d0732334c4e45617c48a8a0861c4ad844e6db671\")\n  return(0x00, dataSize(sub_0))\nstop\n\nsub_0: assembly {\n        /* \"contracts/indrarouter.sol\":15929:33900  contract PancakeRouter is IPancakeRouter02 {... */\n      mstore(0x40, 0x80)\n      jumpi(tag_1, lt(calldatasize, 0x04))\n      shr(0xe0, calldataload(0x00))\n      dup1\n      0x8803dbee\n      gt\n      tag_27\n      jumpi\n      dup1\n      0xc45a0155\n      gt\n      tag_28\n      jumpi\n      dup1\n      0xc45a0155\n      eq\n      tag_21\n      jumpi\n      dup1\n      0xd06ca61f\n      eq\n      tag_22\n      jumpi\n      dup1\n      0xded9382a\n      eq\n      tag_23\n      jumpi\n      dup1\n      0xe8e33700\n      eq\n      tag_24\n      jumpi\n      dup1\n      0xf305d719\n      eq\n      tag_25\n      jumpi\n      dup1\n      0xfb3bdb41\n      eq\n      tag_26\n      jumpi\n      jump(tag_2)\n    tag_28:\n      dup1\n      0x8803dbee\n      eq\n      tag_15\n      jumpi\n      dup1\n      0xad5c4648\n      eq\n      tag_16\n      jumpi\n      dup1\n      0xad615dec\n      eq\n      tag_17\n      jumpi\n      dup1\n      0xaf2979eb\n      eq\n      tag_18\n      jumpi\n      dup1\n      0xb6f9de95\n      eq\n      tag_19\n      jumpi\n      dup1\n      0xbaa2abde\n      eq\n      tag_20\n      jumpi\n      jump(tag_2)\n    tag_27:\n      dup1\n      0x4a25d94a\n      gt\n      tag_29\n      jumpi\n      dup1\n      0x4a25d94a\n      eq\n      tag_9\n      jumpi\n      dup1\n      0x5b0d5984\n      eq\n      tag_10\n      jumpi\n      dup1\n      0x5c11d795\n      eq\n      tag_11\n      jumpi\n      dup1\n      0x791ac947\n      eq\n      tag_12\n      jumpi\n      dup1\n      0x7ff36ab5\n      eq\n      tag_13\n      jumpi\n      dup1\n      0x85f8c259\n      eq\n      tag_14\n      jumpi\n      jump(tag_2)\n    tag_29:\n      dup1\n      0x02751cec\n      eq\n      tag_3\n      jumpi\n      dup1\n      0x054d50d4\n      eq\n      tag_4\n      jumpi\n      dup1\n      0x18cbafe5\n      eq\n      tag_5\n      jumpi\n      dup1\n      0x1f00ca74\n      eq\n      tag_6\n      jumpi\n      dup1\n      0x2195995c\n      eq\n      tag_7\n      jumpi\n      dup1\n      0x38ed1739\n      eq\n      tag_8\n      jumpi\n      jump(tag_2)\n    tag_1:\n      jumpi(tag_2, calldatasize)\n        /* \"contracts/indrarouter.sol\":16386:16396  msg.sender */\n      caller\n      sub(shl(0xa0, 0x01), 0x01)\n        /* \"contracts/indrarouter.sol\":16400:16404  WETH */\n      immutable(\"0x229aeb8f3af31dca53a287d28e8ba0744a7f60e8208788a28095fa44a959baa9\")\n        /* \"contracts/indrarouter.sol\":16386:16404  msg.sender == WETH */\n      and\n      eq\n        /* \"contracts/indrarouter.sol\":16379:16405  assert(msg.sender == WETH) */\n      tag_32\n      jumpi\n      invalid\n    tag_32:\n        /* \"contracts/indrarouter.sol\":15929:33900  contract PancakeRouter is IPancakeRouter02 {... */\n      stop\n    tag_2:\n        /* \"--CODEGEN--\":12:13   */\n      0x00\n        /* \"--CODEGEN--\":9:10   */\n      dup1\n        /* \"--CODEGEN--\":2:14   */\n      revert\n        /* \"contracts/indrarouter.sol\":20411:21064  function removeLiquidityETH(... */\n    tag_3:\n      callvalue\n        /* \"--CODEGEN--\":5:14   */\n      dup1\n        /* \"--CODEGEN--\":2:4   */\n      iszero\n      tag_33\n      jumpi\n        /* \"--CODEGEN--\":27:28   */\n      0x00\n        /* \"--CODEGEN--\":24:25   */\n      dup1\n        /* \"--CODEGEN--\":17:29   */\n      revert\n        /* \"--CODEGEN--\":2:4   */\n    tag_33:\n        /* \"contracts/indrarouter.sol\":20411:21064  function removeLiquidityETH(... */\n      pop\n      tag_34\n      0x04\n      dup1\n      calldatasize\n      sub\n        /* \"--CODEGEN--\":15:18   */\n      0xc0\n        /* \"--CODEGEN--\":10:13   */\n      dup2\n        /* \"--CODEGEN--\":7:19   */\n      lt\n        /* \"--CODEGEN--\":4:6   */\n      iszero\n      tag_35\n      jumpi\n        /* \"--CODEGEN--\":32:33   */\n      0x00\n        /* \"--CODEGEN--\":29:30   */\n      dup1\n        /* \"--CODEGEN--\":22:34   */\n      revert\n        /* \"--CODEGEN--\":4:6   */\n    tag_35:\n      pop\n      sub(shl(0xa0, 0x01), 0x01)\n        /* \"contracts/indrarouter.sol\":20411:21064  function removeLiquidityETH(... */\n      dup2\n      calldataload\n      dup2\n      and\n      swap2\n      0x20\n      dup2\n      add\n      calldataload\n      swap2\n      0x40\n      dup3\n      add\n      calldataload\n      swap2\n      0x60\n      dup2\n      add\n      calldataload\n      swap2\n      0x80\n      dup3\n      add\n      calldataload\n      and\n      swap1\n      0xa0\n      add\n      calldataload\n      tag_36\n      jump\t// in\n    tag_34:\n      0x40\n      dup1\n      mload\n      swap3\n      dup4\n      mstore\n      0x20\n      dup4\n      add\n      swap2\n      swap1\n      swap2\n      mstore\n      dup1\n      mload\n      swap2\n      dup3\n      swap1\n      sub\n      add\n      swap1\n      return\n        /* \"contracts/indrarouter.sol\":32891:33143  function getAmountOut(uint amountIn, uint reserveIn, uint reserveOut)... */\n    tag_4:\n      callvalue\n        /* \"--CODEGEN--\":5:14   */\n      dup1\n        /* \"--CODEGEN--\":2:4   */\n      iszero\n      tag_37\n      jumpi\n        /* \"--CODEGEN--\":27:28   */\n      0x00\n        /* \"--CODEGEN--\":24:25   */\n      dup1\n        /* \"--CODEGEN--\":17:29   */\n      revert\n        /* \"--CODEGEN--\":2:4   */\n    tag_37:\n        /* \"contracts/indrarouter.sol\":32891:33143  function getAmountOut(uint amountIn, uint reserveIn, uint reserveOut)... */\n      pop\n      tag_38\n      0x04\n      dup1\n      calldatasize\n      sub\n        /* \"--CODEGEN--\":15:17   */\n      0x60\n        /* \"--CODEGEN--\":10:13   */\n      dup2\n        /* \"--CODEGEN--\":7:18   */\n      lt\n        /* \"--CODEGEN--\":4:6   */\n      iszero\n      tag_39\n      jumpi\n        /* \"--CODEGEN--\":31:32   */\n      0x00\n        /* \"--CODEGEN--\":28:29   */\n      dup1\n        /* \"--CODEGEN--\":21:33   */\n      revert\n        /* \"--CODEGEN--\":4:6   */\n    tag_39:\n      pop\n        /* \"contracts/indrarouter.sol\":32891:33143  function getAmountOut(uint amountIn, uint reserveIn, uint reserveOut)... */\n      dup1\n      calldataload\n      swap1\n      0x20\n      dup2\n      add\n      calldataload\n      swap1\n      0x40\n      add\n      calldataload\n      tag_40\n      jump\t// in\n    tag_38:\n      0x40\n      dup1\n      mload\n      swap2\n      dup3\n      mstore\n      mload\n      swap1\n      dup2\n      swap1\n      sub\n      0x20\n      add\n      swap1\n      return\n        /* \"contracts/indrarouter.sol\":27368:28194  function swapExactTokensForETH(uint amountIn, uint amountOutMin, address[] calldata path, address to, uint deadline)... */\n    tag_5:\n      callvalue\n        /* \"--CODEGEN--\":5:14   */\n      dup1\n        /* \"--CODEGEN--\":2:4   */\n      iszero\n      tag_41\n      jumpi\n        /* \"--CODEGEN--\":27:28   */\n      0x00\n        /* \"--CODEGEN--\":24:25   */\n      dup1\n        /* \"--CODEGEN--\":17:29   */\n      revert\n        /* \"--CODEGEN--\":2:4   */\n    tag_41:\n        /* \"contracts/indrarouter.sol\":27368:28194  function swapExactTokensForETH(uint amountIn, uint amountOutMin, address[] calldata path, address to, uint deadline)... */\n      pop\n      tag_42\n      0x04\n      dup1\n      calldatasize\n      sub\n        /* \"--CODEGEN--\":15:18   */\n      0xa0\n        /* \"--CODEGEN--\":10:13   */\n      dup2\n        /* \"--CODEGEN--\":7:19   */\n      lt\n        /* \"--CODEGEN--\":4:6   */\n      iszero\n      tag_43\n      jumpi\n        /* \"--CODEGEN--\":32:33   */\n      0x00\n        /* \"--CODEGEN--\":29:30   */\n      dup1\n        /* \"--CODEGEN--\":22:34   */\n      revert\n        /* \"--CODEGEN--\":4:6   */\n    tag_43:\n        /* \"contracts/indrarouter.sol\":27368:28194  function swapExactTokensForETH(uint amountIn, uint amountOutMin, address[] calldata path, address to, uint deadline)... */\n      dup2\n      calldataload\n      swap2\n      0x20\n      dup2\n      add\n      calldataload\n      swap2\n      dup2\n      add\n      swap1\n      0x60\n      dup2\n      add\n      0x40\n      dup3\n      add\n      calldataload\n      shl(0x20, 0x01)\n        /* \"--CODEGEN--\":11:39   */\n      dup2\n      gt\n        /* \"--CODEGEN--\":8:10   */\n      iszero\n      tag_44\n      jumpi\n        /* \"--CODEGEN--\":52:53   */\n      0x00\n        /* \"--CODEGEN--\":49:50   */\n      dup1\n        /* \"--CODEGEN--\":42:54   */\n      revert\n        /* \"--CODEGEN--\":8:10   */\n    tag_44:\n        /* \"contracts/indrarouter.sol\":27368:28194  function swapExactTokensForETH(uint amountIn, uint amountOutMin, address[] calldata path, address to, uint deadline)... */\n      dup3\n      add\n        /* \"--CODEGEN--\":41:50   */\n      dup4\n        /* \"--CODEGEN--\":34:38   */\n      0x20\n        /* \"--CODEGEN--\":18:32   */\n      dup3\n        /* \"--CODEGEN--\":14:39   */\n      add\n        /* \"--CODEGEN--\":11:51   */\n      gt\n        /* \"--CODEGEN--\":8:10   */\n      iszero\n      tag_45\n      jumpi\n        /* \"--CODEGEN--\":64:65   */\n      0x00\n        /* \"--CODEGEN--\":61:62   */\n      dup1\n        /* \"--CODEGEN--\":54:66   */\n      revert\n        /* \"--CODEGEN--\":8:10   */\n    tag_45:\n        /* \"contracts/indrarouter.sol\":27368:28194  function swapExactTokensForETH(uint amountIn, uint amountOutMin, address[] calldata path, address to, uint deadline)... */\n      dup1\n      calldataload\n      swap1\n      0x20\n      add\n      swap2\n        /* \"--CODEGEN--\":101:110   */\n      dup5\n        /* \"--CODEGEN--\":95:97   */\n      0x20\n        /* \"--CODEGEN--\":81:93   */\n      dup4\n        /* \"--CODEGEN--\":77:98   */\n      mul\n        /* \"--CODEGEN--\":67:75   */\n      dup5\n        /* \"--CODEGEN--\":63:99   */\n      add\n        /* \"--CODEGEN--\":60:111   */\n      gt\n      shl(0x20, 0x01)\n        /* \"--CODEGEN--\":25:37   */\n      dup4\n        /* \"--CODEGEN--\":22:51   */\n      gt\n        /* \"--CODEGEN--\":11:119   */\n      or\n        /* \"--CODEGEN--\":8:10   */\n      iszero\n      tag_46\n      jumpi\n        /* \"--CODEGEN--\":132:133   */\n      0x00\n        /* \"--CODEGEN--\":129:130   */\n      dup1\n        /* \"--CODEGEN--\":122:134   */\n      revert\n        /* \"--CODEGEN--\":8:10   */\n    tag_46:\n        /* \"contracts/indrarouter.sol\":27368:28194  function swapExactTokensForETH(uint amountIn, uint amountOutMin, address[] calldata path, address to, uint deadline)... */\n      swap2\n      swap4\n      pop\n      swap2\n      pop\n      sub(shl(0xa0, 0x01), 0x01)\n      dup2\n      calldataload\n      and\n      swap1\n      0x20\n      add\n      calldataload\n      tag_47\n      jump\t// in\n    tag_42:\n      0x40\n      dup1\n      mload\n      0x20\n      dup1\n      dup3\n      mstore\n      dup4\n      mload\n      dup2\n      dup4\n      add\n      mstore\n      dup4\n      mload\n      swap2\n      swap3\n      dup4\n      swap3\n      swap1\n      dup4\n      add\n      swap2\n      dup6\n      dup2\n      add\n      swap2\n      mul\n      dup1\n      dup4\n      dup4\n      0x00\n        /* \"--CODEGEN--\":8:108   */\n    tag_48:\n        /* \"--CODEGEN--\":33:36   */\n      dup4\n        /* \"--CODEGEN--\":30:31   */\n      dup2\n        /* \"--CODEGEN--\":27:37   */\n      lt\n        /* \"--CODEGEN--\":8:108   */\n      iszero\n      tag_50\n      jumpi\n        /* \"--CODEGEN--\":90:101   */\n      dup2\n      dup2\n      add\n        /* \"--CODEGEN--\":84:102   */\n      mload\n        /* \"--CODEGEN--\":71:82   */\n      dup4\n      dup3\n      add\n        /* \"--CODEGEN--\":64:103   */\n      mstore\n        /* \"--CODEGEN--\":52:54   */\n      0x20\n        /* \"--CODEGEN--\":45:55   */\n      add\n        /* \"--CODEGEN--\":8:108   */\n      jump(tag_48)\n    tag_50:\n        /* \"--CODEGEN--\":12:26   */\n      pop\n        /* \"contracts/indrarouter.sol\":27368:28194  function swapExactTokensForETH(uint amountIn, uint amountOutMin, address[] calldata path, address to, uint deadline)... */\n      pop\n      pop\n      pop\n      swap1\n      pop\n      add\n      swap3\n      pop\n      pop\n      pop\n      mload(0x40)\n      dup1\n      swap2\n      sub\n      swap1\n      return\n        /* \"contracts/indrarouter.sol\":33655:33898  function getAmountsIn(uint amountOut, address[] memory path)... */\n    tag_6:\n      callvalue\n        /* \"--CODEGEN--\":5:14   */\n      dup1\n        /* \"--CODEGEN--\":2:4   */\n      iszero\n      tag_51\n      jumpi\n        /* \"--CODEGEN--\":27:28   */\n      0x00\n        /* \"--CODEGEN--\":24:25   */\n      dup1\n        /* \"--CODEGEN--\":17:29   */\n      revert\n        /* \"--CODEGEN--\":2:4   */\n    tag_51:\n        /* \"contracts/indrarouter.sol\":33655:33898  function getAmountsIn(uint amountOut, address[] memory path)... */\n      pop\n      tag_42\n      0x04\n      dup1\n      calldatasize\n      sub\n        /* \"--CODEGEN--\":15:17   */\n      0x40\n        /* \"--CODEGEN--\":10:13   */\n      dup2\n        /* \"--CODEGEN--\":7:18   */\n      lt\n        /* \"--CODEGEN--\":4:6   */\n      iszero\n      tag_53\n      jumpi\n        /* \"--CODEGEN--\":31:32   */\n      0x00\n        /* \"--CODEGEN--\":28:29   */\n      dup1\n        /* \"--CODEGEN--\":21:33   */\n      revert\n        /* \"--CODEGEN--\":4:6   */\n    tag_53:\n        /* \"contracts/indrarouter.sol\":33655:33898  function getAmountsIn(uint amountOut, address[] memory path)... */\n      dup2\n      calldataload\n      swap2\n      swap1\n      dup2\n      add\n      swap1\n      0x40\n      dup2\n      add\n      0x20\n      dup3\n      add\n      calldataload\n      shl(0x20, 0x01)\n        /* \"--CODEGEN--\":11:39   */\n      dup2\n      gt\n        /* \"--CODEGEN--\":8:10   */\n      iszero\n      tag_54\n      jumpi\n        /* \"--CODEGEN--\":52:53   */\n      0x00\n        /* \"--CODEGEN--\":49:50   */\n      dup1\n        /* \"--CODEGEN--\":42:54   */\n      revert\n        /* \"--CODEGEN--\":8:10   */\n    tag_54:\n        /* \"contracts/indrarouter.sol\":33655:33898  function getAmountsIn(uint amountOut, address[] memory path)... */\n      dup3\n      add\n        /* \"--CODEGEN--\":41:50   */\n      dup4\n        /* \"--CODEGEN--\":34:38   */\n      0x20\n        /* \"--CODEGEN--\":18:32   */\n      dup3\n        /* \"--CODEGEN--\":14:39   */\n      add\n        /* \"--CODEGEN--\":11:51   */\n      gt\n        /* \"--CODEGEN--\":8:10   */\n      iszero\n      tag_55\n      jumpi\n        /* \"--CODEGEN--\":64:65   */\n      0x00\n        /* \"--CODEGEN--\":61:62   */\n      dup1\n        /* \"--CODEGEN--\":54:66   */\n      revert\n        /* \"--CODEGEN--\":8:10   */\n    tag_55:\n        /* \"contracts/indrarouter.sol\":33655:33898  function getAmountsIn(uint amountOut, address[] memory path)... */\n      dup1\n      calldataload\n      swap1\n      0x20\n      add\n      swap2\n        /* \"--CODEGEN--\":101:110   */\n      dup5\n        /* \"--CODEGEN--\":95:97   */\n      0x20\n        /* \"--CODEGEN--\":81:93   */\n      dup4\n        /* \"--CODEGEN--\":77:98   */\n      mul\n        /* \"--CODEGEN--\":67:75   */\n      dup5\n        /* \"--CODEGEN--\":63:99   */\n      add\n        /* \"--CODEGEN--\":60:111   */\n      gt\n      shl(0x20, 0x01)\n        /* \"--CODEGEN--\":25:37   */\n      dup4\n        /* \"--CODEGEN--\":22:51   */\n      gt\n        /* \"--CODEGEN--\":11:119   */\n      or\n        /* \"--CODEGEN--\":8:10   */\n      iszero\n      tag_56\n      jumpi\n        /* \"--CODEGEN--\":132:133   */\n      0x00\n        /* \"--CODEGEN--\":129:130   */\n      dup1\n        /* \"--CODEGEN--\":122:134   */\n      revert\n        /* \"--CODEGEN--\":8:10   */\n    tag_56:\n        /* \"contracts/indrarouter.sol\":33655:33898  function getAmountsIn(uint amountOut, address[] memory path)... */\n      swap2\n      swap1\n      dup1\n      dup1\n      0x20\n      mul\n      0x20\n      add\n      mload(0x40)\n      swap1\n      dup2\n      add\n      0x40\n      mstore\n      dup1\n      swap4\n      swap3\n      swap2\n      swap1\n      dup2\n      dup2\n      mstore\n      0x20\n      add\n      dup4\n      dup4\n      0x20\n      mul\n        /* \"--CODEGEN--\":30:33   */\n      dup1\n        /* \"--CODEGEN--\":22:28   */\n      dup3\n        /* \"--CODEGEN--\":14:20   */\n      dup5\n        /* \"--CODEGEN--\":1:34   */\n      calldatacopy\n        /* \"--CODEGEN--\":99:100   */\n      0x00\n        /* \"--CODEGEN--\":81:97   */\n      swap3\n      add\n        /* \"--CODEGEN--\":74:101   */\n      swap2\n      swap1\n      swap2\n      mstore\n      pop\n        /* \"contracts/indrarouter.sol\":33655:33898  function getAmountsIn(uint amountOut, address[] memory path)... */\n      swap3\n      swap6\n      pop\n      tag_57\n      swap5\n      pop\n      pop\n      pop\n      pop\n      pop\n      jump\t// in\n        /* \"contracts/indrarouter.sol\":21069:21728  function removeLiquidityWithPermit(... */\n    tag_7:\n      callvalue\n        /* \"--CODEGEN--\":5:14   */\n      dup1\n        /* \"--CODEGEN--\":2:4   */\n      iszero\n      tag_61\n      jumpi\n        /* \"--CODEGEN--\":27:28   */\n      0x00\n        /* \"--CODEGEN--\":24:25   */\n      dup1\n        /* \"--CODEGEN--\":17:29   */\n      revert\n        /* \"--CODEGEN--\":2:4   */\n    tag_61:\n        /* \"contracts/indrarouter.sol\":21069:21728  function removeLiquidityWithPermit(... */\n      pop\n      tag_34\n      0x04\n      dup1\n      calldatasize\n      sub\n        /* \"--CODEGEN--\":15:18   */\n      0x0160\n        /* \"--CODEGEN--\":10:13   */\n      dup2\n        /* \"--CODEGEN--\":7:19   */\n      lt\n        /* \"--CODEGEN--\":4:6   */\n      iszero\n      tag_63\n      jumpi\n        /* \"--CODEGEN--\":32:33   */\n      0x00\n        /* \"--CODEGEN--\":29:30   */\n      dup1\n        /* \"--CODEGEN--\":22:34   */\n      revert\n        /* \"--CODEGEN--\":4:6   */\n    tag_63:\n      pop\n      sub(shl(0xa0, 0x01), 0x01)\n        /* \"contracts/indrarouter.sol\":21069:21728  function removeLiquidityWithPermit(... */\n      dup2\n      calldataload\n      dup2\n      and\n      swap2\n      0x20\n      dup2\n      add\n      calldataload\n      dup3\n      and\n      swap2\n      0x40\n      dup3\n      add\n      calldataload\n      swap2\n      0x60\n      dup2\n      add\n      calldataload\n      swap2\n      0x80\n      dup3\n      add\n      calldataload\n      swap2\n      0xa0\n      dup2\n      add\n      calldataload\n      swap1\n      swap2\n      and\n      swap1\n      0xc0\n      dup2\n      add\n      calldataload\n      swap1\n      0xe0\n      dup2\n      add\n      calldataload\n      iszero\n      iszero\n      swap1\n      0xff\n      0x0100\n      dup3\n      add\n      calldataload\n      and\n      swap1\n      0x0120\n      dup2\n      add\n      calldataload\n      swap1\n      0x0140\n      add\n      calldataload\n      tag_64\n      jump\t// in\n        /* \"contracts/indrarouter.sol\":24673:25282  function swapExactTokensForTokens(... */\n    tag_8:\n      callvalue\n        /* \"--CODEGEN--\":5:14   */\n      dup1\n        /* \"--CODEGEN--\":2:4   */\n      iszero\n      tag_65\n      jumpi\n        /* \"--CODEGEN--\":27:28   */\n      0x00\n        /* \"--CODEGEN--\":24:25   */\n      dup1\n        /* \"--CODEGEN--\":17:29   */\n      revert\n        /* \"--CODEGEN--\":2:4   */\n    tag_65:\n        /* \"contracts/indrarouter.sol\":24673:25282  function swapExactTokensForTokens(... */\n      pop\n      tag_42\n      0x04\n      dup1\n      calldatasize\n      sub\n        /* \"--CODEGEN--\":15:18   */\n      0xa0\n        /* \"--CODEGEN--\":10:13   */\n      dup2\n        /* \"--CODEGEN--\":7:19   */\n      lt\n        /* \"--CODEGEN--\":4:6   */\n      iszero\n      tag_67\n      jumpi\n        /* \"--CODEGEN--\":32:33   */\n      0x00\n        /* \"--CODEGEN--\":29:30   */\n      dup1\n        /* \"--CODEGEN--\":22:34   */\n      revert\n        /* \"--CODEGEN--\":4:6   */\n    tag_67:\n        /* \"contracts/indrarouter.sol\":24673:25282  function swapExactTokensForTokens(... */\n      dup2\n      calldataload\n      swap2\n      0x20\n      dup2\n      add\n      calldataload\n      swap2\n      dup2\n      add\n      swap1\n      0x60\n      dup2\n      add\n      0x40\n      dup3\n      add\n      calldataload\n      shl(0x20, 0x01)\n        /* \"--CODEGEN--\":11:39   */\n      dup2\n      gt\n        /* \"--CODEGEN--\":8:10   */\n      iszero\n      tag_68\n      jumpi\n        /* \"--CODEGEN--\":52:53   */\n      0x00\n        /* \"--CODEGEN--\":49:50   */\n      dup1\n        /* \"--CODEGEN--\":42:54   */\n      revert\n        /* \"--CODEGEN--\":8:10   */\n    tag_68:\n        /* \"contracts/indrarouter.sol\":24673:25282  function swapExactTokensForTokens(... */\n      dup3\n      add\n        /* \"--CODEGEN--\":41:50   */\n      dup4\n        /* \"--CODEGEN--\":34:38   */\n      0x20\n        /* \"--CODEGEN--\":18:32   */\n      dup3\n        /* \"--CODEGEN--\":14:39   */\n      add\n        /* \"--CODEGEN--\":11:51   */\n      gt\n        /* \"--CODEGEN--\":8:10   */\n      iszero\n      tag_69\n      jumpi\n        /* \"--CODEGEN--\":64:65   */\n      0x00\n        /* \"--CODEGEN--\":61:62   */\n      dup1\n        /* \"--CODEGEN--\":54:66   */\n      revert\n        /* \"--CODEGEN--\":8:10   */\n    tag_69:\n        /* \"contracts/indrarouter.sol\":24673:25282  function swapExactTokensForTokens(... */\n      dup1\n      calldataload\n      swap1\n      0x20\n      add\n      swap2\n        /* \"--CODEGEN--\":101:110   */\n      dup5\n        /* \"--CODEGEN--\":95:97   */\n      0x20\n        /* \"--CODEGEN--\":81:93   */\n      dup4\n        /* \"--CODEGEN--\":77:98   */\n      mul\n        /* \"--CODEGEN--\":67:75   */\n      dup5\n        /* \"--CODEGEN--\":63:99   */\n      add\n        /* \"--CODEGEN--\":60:111   */\n      gt\n      shl(0x20, 0x01)\n        /* \"--CODEGEN--\":25:37   */\n      dup4\n        /* \"--CODEGEN--\":22:51   */\n      gt\n        /* \"--CODEGEN--\":11:119   */\n      or\n        /* \"--CODEGEN--\":8:10   */\n      iszero\n      tag_70\n      jumpi\n        /* \"--CODEGEN--\":132:133   */\n      0x00\n        /* \"--CODEGEN--\":129:130   */\n      dup1\n        /* \"--CODEGEN--\":122:134   */\n      revert\n        /* \"--CODEGEN--\":8:10   */\n    tag_70:\n        /* \"contracts/indrarouter.sol\":24673:25282  function swapExactTokensForTokens(... */\n      swap2\n      swap4\n      pop\n      swap2\n      pop\n      sub(shl(0xa0, 0x01), 0x01)\n      dup2\n      calldataload\n      and\n      swap1\n      0x20\n      add\n      calldataload\n      tag_71\n      jump\t// in\n        /* \"contracts/indrarouter.sol\":26559:27363  function swapTokensForExactETH(uint amountOut, uint amountInMax, address[] calldata path, address to, uint deadline)... */\n    tag_9:\n      callvalue\n        /* \"--CODEGEN--\":5:14   */\n      dup1\n        /* \"--CODEGEN--\":2:4   */\n      iszero\n      tag_75\n      jumpi\n        /* \"--CODEGEN--\":27:28   */\n      0x00\n        /* \"--CODEGEN--\":24:25   */\n      dup1\n        /* \"--CODEGEN--\":17:29   */\n      revert\n        /* \"--CODEGEN--\":2:4   */\n    tag_75:\n        /* \"contracts/indrarouter.sol\":26559:27363  function swapTokensForExactETH(uint amountOut, uint amountInMax, address[] calldata path, address to, uint deadline)... */\n      pop\n      tag_42\n      0x04\n      dup1\n      calldatasize\n      sub\n        /* \"--CODEGEN--\":15:18   */\n      0xa0\n        /* \"--CODEGEN--\":10:13   */\n      dup2\n        /* \"--CODEGEN--\":7:19   */\n      lt\n        /* \"--CODEGEN--\":4:6   */\n      iszero\n      tag_77\n      jumpi\n        /* \"--CODEGEN--\":32:33   */\n      0x00\n        /* \"--CODEGEN--\":29:30   */\n      dup1\n        /* \"--CODEGEN--\":22:34   */\n      revert\n        /* \"--CODEGEN--\":4:6   */\n    tag_77:\n        /* \"contracts/indrarouter.sol\":26559:27363  function swapTokensForExactETH(uint amountOut, uint amountInMax, address[] calldata path, address to, uint deadline)... */\n      dup2\n      calldataload\n      swap2\n      0x20\n      dup2\n      add\n      calldataload\n      swap2\n      dup2\n      add\n      swap1\n      0x60\n      dup2\n      add\n      0x40\n      dup3\n      add\n      calldataload\n      shl(0x20, 0x01)\n        /* \"--CODEGEN--\":11:39   */\n      dup2\n      gt\n        /* \"--CODEGEN--\":8:10   */\n      iszero\n      tag_78\n      jumpi\n        /* \"--CODEGEN--\":52:53   */\n      0x00\n        /* \"--CODEGEN--\":49:50   */\n      dup1\n        /* \"--CODEGEN--\":42:54   */\n      revert\n        /* \"--CODEGEN--\":8:10   */\n    tag_78:\n        /* \"contracts/indrarouter.sol\":26559:27363  function swapTokensForExactETH(uint amountOut, uint amountInMax, address[] calldata path, address to, uint deadline)... */\n      dup3\n      add\n        /* \"--CODEGEN--\":41:50   */\n      dup4\n        /* \"--CODEGEN--\":34:38   */\n      0x20\n        /* \"--CODEGEN--\":18:32   */\n      dup3\n        /* \"--CODEGEN--\":14:39   */\n      add\n        /* \"--CODEGEN--\":11:51   */\n      gt\n        /* \"--CODEGEN--\":8:10   */\n      iszero\n      tag_79\n      jumpi\n        /* \"--CODEGEN--\":64:65   */\n      0x00\n        /* \"--CODEGEN--\":61:62   */\n      dup1\n        /* \"--CODEGEN--\":54:66   */\n      revert\n        /* \"--CODEGEN--\":8:10   */\n    tag_79:\n        /* \"contracts/indrarouter.sol\":26559:27363  function swapTokensForExactETH(uint amountOut, uint amountInMax, address[] calldata path, address to, uint deadline)... */\n      dup1\n      calldataload\n      swap1\n      0x20\n      add\n      swap2\n        /* \"--CODEGEN--\":101:110   */\n      dup5\n        /* \"--CODEGEN--\":95:97   */\n      0x20\n        /* \"--CODEGEN--\":81:93   */\n      dup4\n        /* \"--CODEGEN--\":77:98   */\n      mul\n        /* \"--CODEGEN--\":67:75   */\n      dup5\n        /* \"--CODEGEN--\":63:99   */\n      add\n        /* \"--CODEGEN--\":60:111   */\n      gt\n      shl(0x20, 0x01)\n        /* \"--CODEGEN--\":25:37   */\n      dup4\n        /* \"--CODEGEN--\":22:51   */\n      gt\n        /* \"--CODEGEN--\":11:119   */\n      or\n        /* \"--CODEGEN--\":8:10   */\n      iszero\n      tag_80\n      jumpi\n        /* \"--CODEGEN--\":132:133   */\n      0x00\n        /* \"--CODEGEN--\":129:130   */\n      dup1\n        /* \"--CODEGEN--\":122:134   */\n      revert\n        /* \"--CODEGEN--\":8:10   */\n    tag_80:\n        /* \"contracts/indrarouter.sol\":26559:27363  function swapTokensForExactETH(uint amountOut, uint amountInMax, address[] calldata path, address to, uint deadline)... */\n      swap2\n      swap4\n      pop\n      swap2\n      pop\n      sub(shl(0xa0, 0x01), 0x01)\n      dup2\n      calldataload\n      and\n      swap1\n      0x20\n      add\n      calldataload\n      tag_81\n      jump\t// in\n        /* \"contracts/indrarouter.sol\":23146:23845  function removeLiquidityETHWithPermitSupportingFeeOnTransferTokens(... */\n    tag_10:\n      callvalue\n        /* \"--CODEGEN--\":5:14   */\n      dup1\n        /* \"--CODEGEN--\":2:4   */\n      iszero\n      tag_85\n      jumpi\n        /* \"--CODEGEN--\":27:28   */\n      0x00\n        /* \"--CODEGEN--\":24:25   */\n      dup1\n        /* \"--CODEGEN--\":17:29   */\n      revert\n        /* \"--CODEGEN--\":2:4   */\n    tag_85:\n        /* \"contracts/indrarouter.sol\":23146:23845  function removeLiquidityETHWithPermitSupportingFeeOnTransferTokens(... */\n      pop\n      tag_38\n      0x04\n      dup1\n      calldatasize\n      sub\n        /* \"--CODEGEN--\":15:18   */\n      0x0140\n        /* \"--CODEGEN--\":10:13   */\n      dup2\n        /* \"--CODEGEN--\":7:19   */\n      lt\n        /* \"--CODEGEN--\":4:6   */\n      iszero\n      tag_87\n      jumpi\n        /* \"--CODEGEN--\":32:33   */\n      0x00\n        /* \"--CODEGEN--\":29:30   */\n      dup1\n        /* \"--CODEGEN--\":22:34   */\n      revert\n        /* \"--CODEGEN--\":4:6   */\n    tag_87:\n      pop\n      sub(shl(0xa0, 0x01), 0x01)\n        /* \"contracts/indrarouter.sol\":23146:23845  function removeLiquidityETHWithPermitSupportingFeeOnTransferTokens(... */\n      dup2\n      calldataload\n      dup2\n      and\n      swap2\n      0x20\n      dup2\n      add\n      calldataload\n      swap2\n      0x40\n      dup3\n      add\n      calldataload\n      swap2\n      0x60\n      dup2\n      add\n      calldataload\n      swap2\n      0x80\n      dup3\n      add\n      calldataload\n      and\n      swap1\n      0xa0\n      dup2\n      add\n      calldataload\n      swap1\n      0xc0\n      dup2\n      add\n      calldataload\n      iszero\n      iszero\n      swap1\n      0xff\n      0xe0\n      dup3\n      add\n      calldataload\n      and\n      swap1\n      0x0100\n      dup2\n      add\n      calldataload\n      swap1\n      0x0120\n      add\n      calldataload\n      tag_88\n      jump\t// in\n        /* \"contracts/indrarouter.sol\":30318:31012  function swapExactTokensForTokensSupportingFeeOnTransferTokens(... */\n    tag_11:\n      callvalue\n        /* \"--CODEGEN--\":5:14   */\n      dup1\n        /* \"--CODEGEN--\":2:4   */\n      iszero\n      tag_89\n      jumpi\n        /* \"--CODEGEN--\":27:28   */\n      0x00\n        /* \"--CODEGEN--\":24:25   */\n      dup1\n        /* \"--CODEGEN--\":17:29   */\n      revert\n        /* \"--CODEGEN--\":2:4   */\n    tag_89:\n        /* \"contracts/indrarouter.sol\":30318:31012  function swapExactTokensForTokensSupportingFeeOnTransferTokens(... */\n      pop\n      tag_32\n      0x04\n      dup1\n      calldatasize\n      sub\n        /* \"--CODEGEN--\":15:18   */\n      0xa0\n        /* \"--CODEGEN--\":10:13   */\n      dup2\n        /* \"--CODEGEN--\":7:19   */\n      lt\n        /* \"--CODEGEN--\":4:6   */\n      iszero\n      tag_91\n      jumpi\n        /* \"--CODEGEN--\":32:33   */\n      0x00\n        /* \"--CODEGEN--\":29:30   */\n      dup1\n        /* \"--CODEGEN--\":22:34   */\n      revert\n        /* \"--CODEGEN--\":4:6   */\n    tag_91:\n        /* \"contracts/indrarouter.sol\":30318:31012  function swapExactTokensForTokensSupportingFeeOnTransferTokens(... */\n      dup2\n      calldataload\n      swap2\n      0x20\n      dup2\n      add\n      calldataload\n      swap2\n      dup2\n      add\n      swap1\n      0x60\n      dup2\n      add\n      0x40\n      dup3\n      add\n      calldataload\n      shl(0x20, 0x01)\n        /* \"--CODEGEN--\":11:39   */\n      dup2\n      gt\n        /* \"--CODEGEN--\":8:10   */\n      iszero\n      tag_92\n      jumpi\n        /* \"--CODEGEN--\":52:53   */\n      0x00\n        /* \"--CODEGEN--\":49:50   */\n      dup1\n        /* \"--CODEGEN--\":42:54   */\n      revert\n        /* \"--CODEGEN--\":8:10   */\n    tag_92:\n        /* \"contracts/indrarouter.sol\":30318:31012  function swapExactTokensForTokensSupportingFeeOnTransferTokens(... */\n      dup3\n      add\n        /* \"--CODEGEN--\":41:50   */\n      dup4\n        /* \"--CODEGEN--\":34:38   */\n      0x20\n        /* \"--CODEGEN--\":18:32   */\n      dup3\n        /* \"--CODEGEN--\":14:39   */\n      add\n        /* \"--CODEGEN--\":11:51   */\n      gt\n        /* \"--CODEGEN--\":8:10   */\n      iszero\n      tag_93\n      jumpi\n        /* \"--CODEGEN--\":64:65   */\n      0x00\n        /* \"--CODEGEN--\":61:62   */\n      dup1\n        /* \"--CODEGEN--\":54:66   */\n      revert\n        /* \"--CODEGEN--\":8:10   */\n    tag_93:\n        /* \"contracts/indrarouter.sol\":30318:31012  function swapExactTokensForTokensSupportingFeeOnTransferTokens(... */\n      dup1\n      calldataload\n      swap1\n      0x20\n      add\n      swap2\n        /* \"--CODEGEN--\":101:110   */\n      dup5\n        /* \"--CODEGEN--\":95:97   */\n      0x20\n        /* \"--CODEGEN--\":81:93   */\n      dup4\n        /* \"--CODEGEN--\":77:98   */\n      mul\n        /* \"--CODEGEN--\":67:75   */\n      dup5\n        /* \"--CODEGEN--\":63:99   */\n      add\n        /* \"--CODEGEN--\":60:111   */\n      gt\n      shl(0x20, 0x01)\n        /* \"--CODEGEN--\":25:37   */\n      dup4\n        /* \"--CODEGEN--\":22:51   */\n      gt\n        /* \"--CODEGEN--\":11:119   */\n      or\n        /* \"--CODEGEN--\":8:10   */\n      iszero\n      tag_94\n      jumpi\n        /* \"--CODEGEN--\":132:133   */\n      0x00\n        /* \"--CODEGEN--\":129:130   */\n      dup1\n        /* \"--CODEGEN--\":122:134   */\n      revert\n        /* \"--CODEGEN--\":8:10   */\n    tag_94:\n        /* \"contracts/indrarouter.sol\":30318:31012  function swapExactTokensForTokensSupportingFeeOnTransferTokens(... */\n      swap2\n      swap4\n      pop\n      swap2\n      pop\n      sub(shl(0xa0, 0x01), 0x01)\n      dup2\n      calldataload\n      and\n      swap1\n      0x20\n      add\n      calldataload\n      tag_95\n      jump\t// in\n        /* \"contracts/indrarouter.sol\":31844:32660  function swapExactTokensForETHSupportingFeeOnTransferTokens(... */\n    tag_12:\n      callvalue\n        /* \"--CODEGEN--\":5:14   */\n      dup1\n        /* \"--CODEGEN--\":2:4   */\n      iszero\n      tag_96\n      jumpi\n        /* \"--CODEGEN--\":27:28   */\n      0x00\n        /* \"--CODEGEN--\":24:25   */\n      dup1\n        /* \"--CODEGEN--\":17:29   */\n      revert\n        /* \"--CODEGEN--\":2:4   */\n    tag_96:\n        /* \"contracts/indrarouter.sol\":31844:32660  function swapExactTokensForETHSupportingFeeOnTransferTokens(... */\n      pop\n      tag_32\n      0x04\n      dup1\n      calldatasize\n      sub\n        /* \"--CODEGEN--\":15:18   */\n      0xa0\n        /* \"--CODEGEN--\":10:13   */\n      dup2\n        /* \"--CODEGEN--\":7:19   */\n      lt\n        /* \"--CODEGEN--\":4:6   */\n      iszero\n      tag_98\n      jumpi\n        /* \"--CODEGEN--\":32:33   */\n      0x00\n        /* \"--CODEGEN--\":29:30   */\n      dup1\n        /* \"--CODEGEN--\":22:34   */\n      revert\n        /* \"--CODEGEN--\":4:6   */\n    tag_98:\n        /* \"contracts/indrarouter.sol\":31844:32660  function swapExactTokensForETHSupportingFeeOnTransferTokens(... */\n      dup2\n      calldataload\n      swap2\n      0x20\n      dup2\n      add\n      calldataload\n      swap2\n      dup2\n      add\n      swap1\n      0x60\n      dup2\n      add\n      0x40\n      dup3\n      add\n      calldataload\n      shl(0x20, 0x01)\n        /* \"--CODEGEN--\":11:39   */\n      dup2\n      gt\n        /* \"--CODEGEN--\":8:10   */\n      iszero\n      tag_99\n      jumpi\n        /* \"--CODEGEN--\":52:53   */\n      0x00\n        /* \"--CODEGEN--\":49:50   */\n      dup1\n        /* \"--CODEGEN--\":42:54   */\n      revert\n        /* \"--CODEGEN--\":8:10   */\n    tag_99:\n        /* \"contracts/indrarouter.sol\":31844:32660  function swapExactTokensForETHSupportingFeeOnTransferTokens(... */\n      dup3\n      add\n        /* \"--CODEGEN--\":41:50   */\n      dup4\n        /* \"--CODEGEN--\":34:38   */\n      0x20\n        /* \"--CODEGEN--\":18:32   */\n      dup3\n        /* \"--CODEGEN--\":14:39   */\n      add\n        /* \"--CODEGEN--\":11:51   */\n      gt\n        /* \"--CODEGEN--\":8:10   */\n      iszero\n      tag_100\n      jumpi\n        /* \"--CODEGEN--\":64:65   */\n      0x00\n        /* \"--CODEGEN--\":61:62   */\n      dup1\n        /* \"--CODEGEN--\":54:66   */\n      revert\n        /* \"--CODEGEN--\":8:10   */\n    tag_100:\n        /* \"contracts/indrarouter.sol\":31844:32660  function swapExactTokensForETHSupportingFeeOnTransferTokens(... */\n      dup1\n      calldataload\n      swap1\n      0x20\n      add\n      swap2\n        /* \"--CODEGEN--\":101:110   */\n      dup5\n        /* \"--CODEGEN--\":95:97   */\n      0x20\n        /* \"--CODEGEN--\":81:93   */\n      dup4\n        /* \"--CODEGEN--\":77:98   */\n      mul\n        /* \"--CODEGEN--\":67:75   */\n      dup5\n        /* \"--CODEGEN--\":63:99   */\n      add\n        /* \"--CODEGEN--\":60:111   */\n      gt\n      shl(0x20, 0x01)\n        /* \"--CODEGEN--\":25:37   */\n      dup4\n        /* \"--CODEGEN--\":22:51   */\n      gt\n        /* \"--CODEGEN--\":11:119   */\n      or\n        /* \"--CODEGEN--\":8:10   */\n      iszero\n      tag_101\n      jumpi\n        /* \"--CODEGEN--\":132:133   */\n      0x00\n        /* \"--CODEGEN--\":129:130   */\n      dup1\n        /* \"--CODEGEN--\":122:134   */\n      revert\n        /* \"--CODEGEN--\":8:10   */\n    tag_101:\n        /* \"contracts/indrarouter.sol\":31844:32660  function swapExactTokensForETHSupportingFeeOnTransferTokens(... */\n      swap2\n      swap4\n      pop\n      swap2\n      pop\n      sub(shl(0xa0, 0x01), 0x01)\n      dup2\n      calldataload\n      and\n      swap1\n      0x20\n      add\n      calldataload\n      tag_102\n      jump\t// in\n        /* \"contracts/indrarouter.sol\":25879:26554  function swapExactETHForTokens(uint amountOutMin, address[] calldata path, address to, uint deadline)... */\n    tag_13:\n      tag_42\n      0x04\n      dup1\n      calldatasize\n      sub\n        /* \"--CODEGEN--\":15:18   */\n      0x80\n        /* \"--CODEGEN--\":10:13   */\n      dup2\n        /* \"--CODEGEN--\":7:19   */\n      lt\n        /* \"--CODEGEN--\":4:6   */\n      iszero\n      tag_104\n      jumpi\n        /* \"--CODEGEN--\":32:33   */\n      0x00\n        /* \"--CODEGEN--\":29:30   */\n      dup1\n        /* \"--CODEGEN--\":22:34   */\n      revert\n        /* \"--CODEGEN--\":4:6   */\n    tag_104:\n        /* \"contracts/indrarouter.sol\":25879:26554  function swapExactETHForTokens(uint amountOutMin, address[] calldata path, address to, uint deadline)... */\n      dup2\n      calldataload\n      swap2\n      swap1\n      dup2\n      add\n      swap1\n      0x40\n      dup2\n      add\n      0x20\n      dup3\n      add\n      calldataload\n      shl(0x20, 0x01)\n        /* \"--CODEGEN--\":11:39   */\n      dup2\n      gt\n        /* \"--CODEGEN--\":8:10   */\n      iszero\n      tag_105\n      jumpi\n        /* \"--CODEGEN--\":52:53   */\n      0x00\n        /* \"--CODEGEN--\":49:50   */\n      dup1\n        /* \"--CODEGEN--\":42:54   */\n      revert\n        /* \"--CODEGEN--\":8:10   */\n    tag_105:\n        /* \"contracts/indrarouter.sol\":25879:26554  function swapExactETHForTokens(uint amountOutMin, address[] calldata path, address to, uint deadline)... */\n      dup3\n      add\n        /* \"--CODEGEN--\":41:50   */\n      dup4\n        /* \"--CODEGEN--\":34:38   */\n      0x20\n        /* \"--CODEGEN--\":18:32   */\n      dup3\n        /* \"--CODEGEN--\":14:39   */\n      add\n        /* \"--CODEGEN--\":11:51   */\n      gt\n        /* \"--CODEGEN--\":8:10   */\n      iszero\n      tag_106\n      jumpi\n        /* \"--CODEGEN--\":64:65   */\n      0x00\n        /* \"--CODEGEN--\":61:62   */\n      dup1\n        /* \"--CODEGEN--\":54:66   */\n      revert\n        /* \"--CODEGEN--\":8:10   */\n    tag_106:\n        /* \"contracts/indrarouter.sol\":25879:26554  function swapExactETHForTokens(uint amountOutMin, address[] calldata path, address to, uint deadline)... */\n      dup1\n      calldataload\n      swap1\n      0x20\n      add\n      swap2\n        /* \"--CODEGEN--\":101:110   */\n      dup5\n        /* \"--CODEGEN--\":95:97   */\n      0x20\n        /* \"--CODEGEN--\":81:93   */\n      dup4\n        /* \"--CODEGEN--\":77:98   */\n      mul\n        /* \"--CODEGEN--\":67:75   */\n      dup5\n        /* \"--CODEGEN--\":63:99   */\n      add\n        /* \"--CODEGEN--\":60:111   */\n      gt\n      shl(0x20, 0x01)\n        /* \"--CODEGEN--\":25:37   */\n      dup4\n        /* \"--CODEGEN--\":22:51   */\n      gt\n        /* \"--CODEGEN--\":11:119   */\n      or\n        /* \"--CODEGEN--\":8:10   */\n      iszero\n      tag_107\n      jumpi\n        /* \"--CODEGEN--\":132:133   */\n      0x00\n        /* \"--CODEGEN--\":129:130   */\n      dup1\n        /* \"--CODEGEN--\":122:134   */\n      revert\n        /* \"--CODEGEN--\":8:10   */\n    tag_107:\n        /* \"contracts/indrarouter.sol\":25879:26554  function swapExactETHForTokens(uint amountOutMin, address[] calldata path, address to, uint deadline)... */\n      swap2\n      swap4\n      pop\n      swap2\n      pop\n      sub(shl(0xa0, 0x01), 0x01)\n      dup2\n      calldataload\n      and\n      swap1\n      0x20\n      add\n      calldataload\n      tag_108\n      jump\t// in\n        /* \"contracts/indrarouter.sol\":33149:33400  function getAmountIn(uint amountOut, uint reserveIn, uint reserveOut)... */\n    tag_14:\n      callvalue\n        /* \"--CODEGEN--\":5:14   */\n      dup1\n        /* \"--CODEGEN--\":2:4   */\n      iszero\n      tag_112\n      jumpi\n        /* \"--CODEGEN--\":27:28   */\n      0x00\n        /* \"--CODEGEN--\":24:25   */\n      dup1\n        /* \"--CODEGEN--\":17:29   */\n      revert\n        /* \"--CODEGEN--\":2:4   */\n    tag_112:\n        /* \"contracts/indrarouter.sol\":33149:33400  function getAmountIn(uint amountOut, uint reserveIn, uint reserveOut)... */\n      pop\n      tag_38\n      0x04\n      dup1\n      calldatasize\n      sub\n        /* \"--CODEGEN--\":15:17   */\n      0x60\n        /* \"--CODEGEN--\":10:13   */\n      dup2\n        /* \"--CODEGEN--\":7:18   */\n      lt\n        /* \"--CODEGEN--\":4:6   */\n      iszero\n      tag_114\n      jumpi\n        /* \"--CODEGEN--\":31:32   */\n      0x00\n        /* \"--CODEGEN--\":28:29   */\n      dup1\n        /* \"--CODEGEN--\":21:33   */\n      revert\n        /* \"--CODEGEN--\":4:6   */\n    tag_114:\n      pop\n        /* \"contracts/indrarouter.sol\":33149:33400  function getAmountIn(uint amountOut, uint reserveIn, uint reserveOut)... */\n      dup1\n      calldataload\n      swap1\n      0x20\n      dup2\n      add\n      calldataload\n      swap1\n      0x40\n      add\n      calldataload\n      tag_115\n      jump\t// in\n        /* \"contracts/indrarouter.sol\":25287:25874  function swapTokensForExactTokens(... */\n    tag_15:\n      callvalue\n        /* \"--CODEGEN--\":5:14   */\n      dup1\n        /* \"--CODEGEN--\":2:4   */\n      iszero\n      tag_116\n      jumpi\n        /* \"--CODEGEN--\":27:28   */\n      0x00\n        /* \"--CODEGEN--\":24:25   */\n      dup1\n        /* \"--CODEGEN--\":17:29   */\n      revert\n        /* \"--CODEGEN--\":2:4   */\n    tag_116:\n        /* \"contracts/indrarouter.sol\":25287:25874  function swapTokensForExactTokens(... */\n      pop\n      tag_42\n      0x04\n      dup1\n      calldatasize\n      sub\n        /* \"--CODEGEN--\":15:18   */\n      0xa0\n        /* \"--CODEGEN--\":10:13   */\n      dup2\n        /* \"--CODEGEN--\":7:19   */\n      lt\n        /* \"--CODEGEN--\":4:6   */\n      iszero\n      tag_118\n      jumpi\n        /* \"--CODEGEN--\":32:33   */\n      0x00\n        /* \"--CODEGEN--\":29:30   */\n      dup1\n        /* \"--CODEGEN--\":22:34   */\n      revert\n        /* \"--CODEGEN--\":4:6   */\n    tag_118:\n        /* \"contracts/indrarouter.sol\":25287:25874  function swapTokensForExactTokens(... */\n      dup2\n      calldataload\n      swap2\n      0x20\n      dup2\n      add\n      calldataload\n      swap2\n      dup2\n      add\n      swap1\n      0x60\n      dup2\n      add\n      0x40\n      dup3\n      add\n      calldataload\n      shl(0x20, 0x01)\n        /* \"--CODEGEN--\":11:39   */\n      dup2\n      gt\n        /* \"--CODEGEN--\":8:10   */\n      iszero\n      tag_119\n      jumpi\n        /* \"--CODEGEN--\":52:53   */\n      0x00\n        /* \"--CODEGEN--\":49:50   */\n      dup1\n        /* \"--CODEGEN--\":42:54   */\n      revert\n        /* \"--CODEGEN--\":8:10   */\n    tag_119:\n        /* \"contracts/indrarouter.sol\":25287:25874  function swapTokensForExactTokens(... */\n      dup3\n      add\n        /* \"--CODEGEN--\":41:50   */\n      dup4\n        /* \"--CODEGEN--\":34:38   */\n      0x20\n        /* \"--CODEGEN--\":18:32   */\n      dup3\n        /* \"--CODEGEN--\":14:39   */\n      add\n        /* \"--CODEGEN--\":11:51   */\n      gt\n        /* \"--CODEGEN--\":8:10   */\n      iszero\n      tag_120\n      jumpi\n        /* \"--CODEGEN--\":64:65   */\n      0x00\n        /* \"--CODEGEN--\":61:62   */\n      dup1\n        /* \"--CODEGEN--\":54:66   */\n      revert\n        /* \"--CODEGEN--\":8:10   */\n    tag_120:\n        /* \"contracts/indrarouter.sol\":25287:25874  function swapTokensForExactTokens(... */\n      dup1\n      calldataload\n      swap1\n      0x20\n      add\n      swap2\n        /* \"--CODEGEN--\":101:110   */\n      dup5\n        /* \"--CODEGEN--\":95:97   */\n      0x20\n        /* \"--CODEGEN--\":81:93   */\n      dup4\n        /* \"--CODEGEN--\":77:98   */\n      mul\n        /* \"--CODEGEN--\":67:75   */\n      dup5\n        /* \"--CODEGEN--\":63:99   */\n      add\n        /* \"--CODEGEN--\":60:111   */\n      gt\n      shl(0x20, 0x01)\n        /* \"--CODEGEN--\":25:37   */\n      dup4\n        /* \"--CODEGEN--\":22:51   */\n      gt\n        /* \"--CODEGEN--\":11:119   */\n      or\n        /* \"--CODEGEN--\":8:10   */\n      iszero\n      tag_121\n      jumpi\n        /* \"--CODEGEN--\":132:133   */\n      0x00\n        /* \"--CODEGEN--\":129:130   */\n      dup1\n        /* \"--CODEGEN--\":122:134   */\n      revert\n        /* \"--CODEGEN--\":8:10   */\n    tag_121:\n        /* \"contracts/indrarouter.sol\":25287:25874  function swapTokensForExactTokens(... */\n      swap2\n      swap4\n      pop\n      swap2\n      pop\n      sub(shl(0xa0, 0x01), 0x01)\n      dup2\n      calldataload\n      and\n      swap1\n      0x20\n      add\n      calldataload\n      tag_122\n      jump\t// in\n        /* \"contracts/indrarouter.sol\":16055:16093  address public immutable override WETH */\n    tag_16:\n      callvalue\n        /* \"--CODEGEN--\":5:14   */\n      dup1\n        /* \"--CODEGEN--\":2:4   */\n      iszero\n      tag_126\n      jumpi\n        /* \"--CODEGEN--\":27:28   */\n      0x00\n        /* \"--CODEGEN--\":24:25   */\n      dup1\n        /* \"--CODEGEN--\":17:29   */\n      revert\n        /* \"--CODEGEN--\":2:4   */\n    tag_126:\n        /* \"contracts/indrarouter.sol\":16055:16093  address public immutable override WETH */\n      pop\n      tag_127\n      tag_128\n      jump\t// in\n    tag_127:\n      0x40\n      dup1\n      mload\n      sub(shl(0xa0, 0x01), 0x01)\n      swap1\n      swap3\n      and\n      dup3\n      mstore\n      mload\n      swap1\n      dup2\n      swap1\n      sub\n      0x20\n      add\n      swap1\n      return\n        /* \"contracts/indrarouter.sol\":32701:32885  function quote(uint amountA, uint reserveA, uint reserveB) public pure virtual override returns (uint amountB) {... */\n    tag_17:\n      callvalue\n        /* \"--CODEGEN--\":5:14   */\n      dup1\n        /* \"--CODEGEN--\":2:4   */\n      iszero\n      tag_129\n      jumpi\n        /* \"--CODEGEN--\":27:28   */\n      0x00\n        /* \"--CODEGEN--\":24:25   */\n      dup1\n        /* \"--CODEGEN--\":17:29   */\n      revert\n        /* \"--CODEGEN--\":2:4   */\n    tag_129:\n        /* \"contracts/indrarouter.sol\":32701:32885  function quote(uint amountA, uint reserveA, uint reserveB) public pure virtual override returns (uint amountB) {... */\n      pop\n      tag_38\n      0x04\n      dup1\n      calldatasize\n      sub\n        /* \"--CODEGEN--\":15:17   */\n      0x60\n        /* \"--CODEGEN--\":10:13   */\n      dup2\n        /* \"--CODEGEN--\":7:18   */\n      lt\n        /* \"--CODEGEN--\":4:6   */\n      iszero\n      tag_131\n      jumpi\n        /* \"--CODEGEN--\":31:32   */\n      0x00\n        /* \"--CODEGEN--\":28:29   */\n      dup1\n        /* \"--CODEGEN--\":21:33   */\n      revert\n        /* \"--CODEGEN--\":4:6   */\n    tag_131:\n      pop\n        /* \"contracts/indrarouter.sol\":32701:32885  function quote(uint amountA, uint reserveA, uint reserveB) public pure virtual override returns (uint amountB) {... */\n      dup1\n      calldataload\n      swap1\n      0x20\n      dup2\n      add\n      calldataload\n      swap1\n      0x40\n      add\n      calldataload\n      tag_132\n      jump\t// in\n        /* \"contracts/indrarouter.sol\":22461:23141  function removeLiquidityETHSupportingFeeOnTransferTokens(... */\n    tag_18:\n      callvalue\n        /* \"--CODEGEN--\":5:14   */\n      dup1\n        /* \"--CODEGEN--\":2:4   */\n      iszero\n      tag_133\n      jumpi\n        /* \"--CODEGEN--\":27:28   */\n      0x00\n        /* \"--CODEGEN--\":24:25   */\n      dup1\n        /* \"--CODEGEN--\":17:29   */\n      revert\n        /* \"--CODEGEN--\":2:4   */\n    tag_133:\n        /* \"contracts/indrarouter.sol\":22461:23141  function removeLiquidityETHSupportingFeeOnTransferTokens(... */\n      pop\n      tag_38\n      0x04\n      dup1\n      calldatasize\n      sub\n        /* \"--CODEGEN--\":15:18   */\n      0xc0\n        /* \"--CODEGEN--\":10:13   */\n      dup2\n        /* \"--CODEGEN--\":7:19   */\n      lt\n        /* \"--CODEGEN--\":4:6   */\n      iszero\n      tag_135\n      jumpi\n        /* \"--CODEGEN--\":32:33   */\n      0x00\n        /* \"--CODEGEN--\":29:30   */\n      dup1\n        /* \"--CODEGEN--\":22:34   */\n      revert\n        /* \"--CODEGEN--\":4:6   */\n    tag_135:\n      pop\n      sub(shl(0xa0, 0x01), 0x01)\n        /* \"contracts/indrarouter.sol\":22461:23141  function removeLiquidityETHSupportingFeeOnTransferTokens(... */\n      dup2\n      calldataload\n      dup2\n      and\n      swap2\n      0x20\n      dup2\n      add\n      calldataload\n      swap2\n      0x40\n      dup3\n      add\n      calldataload\n      swap2\n      0x60\n      dup2\n      add\n      calldataload\n      swap2\n      0x80\n      dup3\n      add\n      calldataload\n      and\n      swap1\n      0xa0\n      add\n      calldataload\n      tag_136\n      jump\t// in\n        /* \"contracts/indrarouter.sol\":31017:31839  function swapExactETHForTokensSupportingFeeOnTransferTokens(... */\n    tag_19:\n      tag_32\n      0x04\n      dup1\n      calldatasize\n      sub\n        /* \"--CODEGEN--\":15:18   */\n      0x80\n        /* \"--CODEGEN--\":10:13   */\n      dup2\n        /* \"--CODEGEN--\":7:19   */\n      lt\n        /* \"--CODEGEN--\":4:6   */\n      iszero\n      tag_138\n      jumpi\n        /* \"--CODEGEN--\":32:33   */\n      0x00\n        /* \"--CODEGEN--\":29:30   */\n      dup1\n        /* \"--CODEGEN--\":22:34   */\n      revert\n        /* \"--CODEGEN--\":4:6   */\n    tag_138:\n        /* \"contracts/indrarouter.sol\":31017:31839  function swapExactETHForTokensSupportingFeeOnTransferTokens(... */\n      dup2\n      calldataload\n      swap2\n      swap1\n      dup2\n      add\n      swap1\n      0x40\n      dup2\n      add\n      0x20\n      dup3\n      add\n      calldataload\n      shl(0x20, 0x01)\n        /* \"--CODEGEN--\":11:39   */\n      dup2\n      gt\n        /* \"--CODEGEN--\":8:10   */\n      iszero\n      tag_139\n      jumpi\n        /* \"--CODEGEN--\":52:53   */\n      0x00\n        /* \"--CODEGEN--\":49:50   */\n      dup1\n        /* \"--CODEGEN--\":42:54   */\n      revert\n        /* \"--CODEGEN--\":8:10   */\n    tag_139:\n        /* \"contracts/indrarouter.sol\":31017:31839  function swapExactETHForTokensSupportingFeeOnTransferTokens(... */\n      dup3\n      add\n        /* \"--CODEGEN--\":41:50   */\n      dup4\n        /* \"--CODEGEN--\":34:38   */\n      0x20\n        /* \"--CODEGEN--\":18:32   */\n      dup3\n        /* \"--CODEGEN--\":14:39   */\n      add\n        /* \"--CODEGEN--\":11:51   */\n      gt\n        /* \"--CODEGEN--\":8:10   */\n      iszero\n      tag_140\n      jumpi\n        /* \"--CODEGEN--\":64:65   */\n      0x00\n        /* \"--CODEGEN--\":61:62   */\n      dup1\n        /* \"--CODEGEN--\":54:66   */\n      revert\n        /* \"--CODEGEN--\":8:10   */\n    tag_140:\n        /* \"contracts/indrarouter.sol\":31017:31839  function swapExactETHForTokensSupportingFeeOnTransferTokens(... */\n      dup1\n      calldataload\n      swap1\n      0x20\n      add\n      swap2\n        /* \"--CODEGEN--\":101:110   */\n      dup5\n        /* \"--CODEGEN--\":95:97   */\n      0x20\n        /* \"--CODEGEN--\":81:93   */\n      dup4\n        /* \"--CODEGEN--\":77:98   */\n      mul\n        /* \"--CODEGEN--\":67:75   */\n      dup5\n        /* \"--CODEGEN--\":63:99   */\n      add\n        /* \"--CODEGEN--\":60:111   */\n      gt\n      shl(0x20, 0x01)\n        /* \"--CODEGEN--\":25:37   */\n      dup4\n        /* \"--CODEGEN--\":22:51   */\n      gt\n        /* \"--CODEGEN--\":11:119   */\n      or\n        /* \"--CODEGEN--\":8:10   */\n      iszero\n      tag_141\n      jumpi\n        /* \"--CODEGEN--\":132:133   */\n      0x00\n        /* \"--CODEGEN--\":129:130   */\n      dup1\n        /* \"--CODEGEN--\":122:134   */\n      revert\n        /* \"--CODEGEN--\":8:10   */\n    tag_141:\n        /* \"contracts/indrarouter.sol\":31017:31839  function swapExactETHForTokensSupportingFeeOnTransferTokens(... */\n      swap2\n      swap4\n      pop\n      swap2\n      pop\n      sub(shl(0xa0, 0x01), 0x01)\n      dup2\n      calldataload\n      and\n      swap1\n      0x20\n      add\n      calldataload\n      tag_142\n      jump\t// in\n        /* \"contracts/indrarouter.sol\":19569:20406  function removeLiquidity(... */\n    tag_20:\n      callvalue\n        /* \"--CODEGEN--\":5:14   */\n      dup1\n        /* \"--CODEGEN--\":2:4   */\n      iszero\n      tag_143\n      jumpi\n        /* \"--CODEGEN--\":27:28   */\n      0x00\n        /* \"--CODEGEN--\":24:25   */\n      dup1\n        /* \"--CODEGEN--\":17:29   */\n      revert\n        /* \"--CODEGEN--\":2:4   */\n    tag_143:\n        /* \"contracts/indrarouter.sol\":19569:20406  function removeLiquidity(... */\n      pop\n      tag_34\n      0x04\n      dup1\n      calldatasize\n      sub\n        /* \"--CODEGEN--\":15:18   */\n      0xe0\n        /* \"--CODEGEN--\":10:13   */\n      dup2\n        /* \"--CODEGEN--\":7:19   */\n      lt\n        /* \"--CODEGEN--\":4:6   */\n      iszero\n      tag_145\n      jumpi\n        /* \"--CODEGEN--\":32:33   */\n      0x00\n        /* \"--CODEGEN--\":29:30   */\n      dup1\n        /* \"--CODEGEN--\":22:34   */\n      revert\n        /* \"--CODEGEN--\":4:6   */\n    tag_145:\n      pop\n      sub(shl(0xa0, 0x01), 0x01)\n        /* \"contracts/indrarouter.sol\":19569:20406  function removeLiquidity(... */\n      dup2\n      calldataload\n      dup2\n      and\n      swap2\n      0x20\n      dup2\n      add\n      calldataload\n      dup3\n      and\n      swap2\n      0x40\n      dup3\n      add\n      calldataload\n      swap2\n      0x60\n      dup2\n      add\n      calldataload\n      swap2\n      0x80\n      dup3\n      add\n      calldataload\n      swap2\n      0xa0\n      dup2\n      add\n      calldataload\n      swap1\n      swap2\n      and\n      swap1\n      0xc0\n      add\n      calldataload\n      tag_146\n      jump\t// in\n        /* \"contracts/indrarouter.sol\":16008:16049  address public immutable override factory */\n    tag_21:\n      callvalue\n        /* \"--CODEGEN--\":5:14   */\n      dup1\n        /* \"--CODEGEN--\":2:4   */\n      iszero\n      tag_147\n      jumpi\n        /* \"--CODEGEN--\":27:28   */\n      0x00\n        /* \"--CODEGEN--\":24:25   */\n      dup1\n        /* \"--CODEGEN--\":17:29   */\n      revert\n        /* \"--CODEGEN--\":2:4   */\n    tag_147:\n        /* \"contracts/indrarouter.sol\":16008:16049  address public immutable override factory */\n      pop\n      tag_127\n      tag_149\n      jump\t// in\n        /* \"contracts/indrarouter.sol\":33406:33649  function getAmountsOut(uint amountIn, address[] memory path)... */\n    tag_22:\n      callvalue\n        /* \"--CODEGEN--\":5:14   */\n      dup1\n        /* \"--CODEGEN--\":2:4   */\n      iszero\n      tag_150\n      jumpi\n        /* \"--CODEGEN--\":27:28   */\n      0x00\n        /* \"--CODEGEN--\":24:25   */\n      dup1\n        /* \"--CODEGEN--\":17:29   */\n      revert\n        /* \"--CODEGEN--\":2:4   */\n    tag_150:\n        /* \"contracts/indrarouter.sol\":33406:33649  function getAmountsOut(uint amountIn, address[] memory path)... */\n      pop\n      tag_42\n      0x04\n      dup1\n      calldatasize\n      sub\n        /* \"--CODEGEN--\":15:17   */\n      0x40\n        /* \"--CODEGEN--\":10:13   */\n      dup2\n        /* \"--CODEGEN--\":7:18   */\n      lt\n        /* \"--CODEGEN--\":4:6   */\n      iszero\n      tag_152\n      jumpi\n        /* \"--CODEGEN--\":31:32   */\n      0x00\n        /* \"--CODEGEN--\":28:29   */\n      dup1\n        /* \"--CODEGEN--\":21:33   */\n      revert\n        /* \"--CODEGEN--\":4:6   */\n    tag_152:\n        /* \"contracts/indrarouter.sol\":33406:33649  function getAmountsOut(uint amountIn, address[] memory path)... */\n      dup2\n      calldataload\n      swap2\n      swap1\n      dup2\n      add\n      swap1\n      0x40\n      dup2\n      add\n      0x20\n      dup3\n      add\n      calldataload\n      shl(0x20, 0x01)\n        /* \"--CODEGEN--\":11:39   */\n      dup2\n      gt\n        /* \"--CODEGEN--\":8:10   */\n      iszero\n      tag_153\n      jumpi\n        /* \"--CODEGEN--\":52:53   */\n      0x00\n        /* \"--CODEGEN--\":49:50   */\n      dup1\n        /* \"--CODEGEN--\":42:54   */\n      revert\n        /* \"--CODEGEN--\":8:10   */\n    tag_153:\n        /* \"contracts/indrarouter.sol\":33406:33649  function getAmountsOut(uint amountIn, address[] memory path)... */\n      dup3\n      add\n        /* \"--CODEGEN--\":41:50   */\n      dup4\n        /* \"--CODEGEN--\":34:38   */\n      0x20\n        /* \"--CODEGEN--\":18:32   */\n      dup3\n        /* \"--CODEGEN--\":14:39   */\n      add\n        /* \"--CODEGEN--\":11:51   */\n      gt\n        /* \"--CODEGEN--\":8:10   */\n      iszero\n      tag_154\n      jumpi\n        /* \"--CODEGEN--\":64:65   */\n      0x00\n        /* \"--CODEGEN--\":61:62   */\n      dup1\n        /* \"--CODEGEN--\":54:66   */\n      revert\n        /* \"--CODEGEN--\":8:10   */\n    tag_154:\n        /* \"contracts/indrarouter.sol\":33406:33649  function getAmountsOut(uint amountIn, address[] memory path)... */\n      dup1\n      calldataload\n      swap1\n      0x20\n      add\n      swap2\n        /* \"--CODEGEN--\":101:110   */\n      dup5\n        /* \"--CODEGEN--\":95:97   */\n      0x20\n        /* \"--CODEGEN--\":81:93   */\n      dup4\n        /* \"--CODEGEN--\":77:98   */\n      mul\n        /* \"--CODEGEN--\":67:75   */\n      dup5\n        /* \"--CODEGEN--\":63:99   */\n      add\n        /* \"--CODEGEN--\":60:111   */\n      gt\n      shl(0x20, 0x01)\n        /* \"--CODEGEN--\":25:37   */\n      dup4\n        /* \"--CODEGEN--\":22:51   */\n      gt\n        /* \"--CODEGEN--\":11:119   */\n      or\n        /* \"--CODEGEN--\":8:10   */\n      iszero\n      tag_155\n      jumpi\n        /* \"--CODEGEN--\":132:133   */\n      0x00\n        /* \"--CODEGEN--\":129:130   */\n      dup1\n        /* \"--CODEGEN--\":122:134   */\n      revert\n        /* \"--CODEGEN--\":8:10   */\n    tag_155:\n        /* \"contracts/indrarouter.sol\":33406:33649  function getAmountsOut(uint amountIn, address[] memory path)... */\n      swap2\n      swap1\n      dup1\n      dup1\n      0x20\n      mul\n      0x20\n      add\n      mload(0x40)\n      swap1\n      dup2\n      add\n      0x40\n      mstore\n      dup1\n      swap4\n      swap3\n      swap2\n      swap1\n      dup2\n      dup2\n      mstore\n      0x20\n      add\n      dup4\n      dup4\n      0x20\n      mul\n        /* \"--CODEGEN--\":30:33   */\n      dup1\n        /* \"--CODEGEN--\":22:28   */\n      dup3\n        /* \"--CODEGEN--\":14:20   */\n      dup5\n        /* \"--CODEGEN--\":1:34   */\n      calldatacopy\n        /* \"--CODEGEN--\":99:100   */\n      0x00\n        /* \"--CODEGEN--\":81:97   */\n      swap3\n      add\n        /* \"--CODEGEN--\":74:101   */\n      swap2\n      swap1\n      swap2\n      mstore\n      pop\n        /* \"contracts/indrarouter.sol\":33406:33649  function getAmountsOut(uint amountIn, address[] memory path)... */\n      swap3\n      swap6\n      pop\n      tag_156\n      swap5\n      pop\n      pop\n      pop\n      pop\n      pop\n      jump\t// in\n        /* \"contracts/indrarouter.sol\":21733:22385  function removeLiquidityETHWithPermit(... */\n    tag_23:\n      callvalue\n        /* \"--CODEGEN--\":5:14   */\n      dup1\n        /* \"--CODEGEN--\":2:4   */\n      iszero\n      tag_160\n      jumpi\n        /* \"--CODEGEN--\":27:28   */\n      0x00\n        /* \"--CODEGEN--\":24:25   */\n      dup1\n        /* \"--CODEGEN--\":17:29   */\n      revert\n        /* \"--CODEGEN--\":2:4   */\n    tag_160:\n        /* \"contracts/indrarouter.sol\":21733:22385  function removeLiquidityETHWithPermit(... */\n      pop\n      tag_34\n      0x04\n      dup1\n      calldatasize\n      sub\n        /* \"--CODEGEN--\":15:18   */\n      0x0140\n        /* \"--CODEGEN--\":10:13   */\n      dup2\n        /* \"--CODEGEN--\":7:19   */\n      lt\n        /* \"--CODEGEN--\":4:6   */\n      iszero\n      tag_162\n      jumpi\n        /* \"--CODEGEN--\":32:33   */\n      0x00\n        /* \"--CODEGEN--\":29:30   */\n      dup1\n        /* \"--CODEGEN--\":22:34   */\n      revert\n        /* \"--CODEGEN--\":4:6   */\n    tag_162:\n      pop\n      sub(shl(0xa0, 0x01), 0x01)\n        /* \"contracts/indrarouter.sol\":21733:22385  function removeLiquidityETHWithPermit(... */\n      dup2\n      calldataload\n      dup2\n      and\n      swap2\n      0x20\n      dup2\n      add\n      calldataload\n      swap2\n      0x40\n      dup3\n      add\n      calldataload\n      swap2\n      0x60\n      dup2\n      add\n      calldataload\n      swap2\n      0x80\n      dup3\n      add\n      calldataload\n      and\n      swap1\n      0xa0\n      dup2\n      add\n      calldataload\n      swap1\n      0xc0\n      dup2\n      add\n      calldataload\n      iszero\n      iszero\n      swap1\n      0xff\n      0xe0\n      dup3\n      add\n      calldataload\n      and\n      swap1\n      0x0100\n      dup2\n      add\n      calldataload\n      swap1\n      0x0120\n      add\n      calldataload\n      tag_163\n      jump\t// in\n        /* \"contracts/indrarouter.sol\":17858:18577  function addLiquidity(... */\n    tag_24:\n      callvalue\n        /* \"--CODEGEN--\":5:14   */\n      dup1\n        /* \"--CODEGEN--\":2:4   */\n      iszero\n      tag_164\n      jumpi\n        /* \"--CODEGEN--\":27:28   */\n      0x00\n        /* \"--CODEGEN--\":24:25   */\n      dup1\n        /* \"--CODEGEN--\":17:29   */\n      revert\n        /* \"--CODEGEN--\":2:4   */\n    tag_164:\n        /* \"contracts/indrarouter.sol\":17858:18577  function addLiquidity(... */\n      pop\n      tag_165\n      0x04\n      dup1\n      calldatasize\n      sub\n        /* \"--CODEGEN--\":15:18   */\n      0x0100\n        /* \"--CODEGEN--\":10:13   */\n      dup2\n        /* \"--CODEGEN--\":7:19   */\n      lt\n        /* \"--CODEGEN--\":4:6   */\n      iszero\n      tag_166\n      jumpi\n        /* \"--CODEGEN--\":32:33   */\n      0x00\n        /* \"--CODEGEN--\":29:30   */\n      dup1\n        /* \"--CODEGEN--\":22:34   */\n      revert\n        /* \"--CODEGEN--\":4:6   */\n    tag_166:\n      pop\n      sub(shl(0xa0, 0x01), 0x01)\n        /* \"contracts/indrarouter.sol\":17858:18577  function addLiquidity(... */\n      dup2\n      calldataload\n      dup2\n      and\n      swap2\n      0x20\n      dup2\n      add\n      calldataload\n      dup3\n      and\n      swap2\n      0x40\n      dup3\n      add\n      calldataload\n      swap2\n      0x60\n      dup2\n      add\n      calldataload\n      swap2\n      0x80\n      dup3\n      add\n      calldataload\n      swap2\n      0xa0\n      dup2\n      add\n      calldataload\n      swap2\n      0xc0\n      dup3\n      add\n      calldataload\n      and\n      swap1\n      0xe0\n      add\n      calldataload\n      tag_167\n      jump\t// in\n    tag_165:\n      0x40\n      dup1\n      mload\n      swap4\n      dup5\n      mstore\n      0x20\n      dup5\n      add\n      swap3\n      swap1\n      swap3\n      mstore\n      dup3\n      dup3\n      add\n      mstore\n      mload\n      swap1\n      dup2\n      swap1\n      sub\n      0x60\n      add\n      swap1\n      return\n        /* \"contracts/indrarouter.sol\":18582:19529  function addLiquidityETH(... */\n    tag_25:\n      tag_165\n      0x04\n      dup1\n      calldatasize\n      sub\n        /* \"--CODEGEN--\":15:18   */\n      0xc0\n        /* \"--CODEGEN--\":10:13   */\n      dup2\n        /* \"--CODEGEN--\":7:19   */\n      lt\n        /* \"--CODEGEN--\":4:6   */\n      iszero\n      tag_169\n      jumpi\n        /* \"--CODEGEN--\":32:33   */\n      0x00\n        /* \"--CODEGEN--\":29:30   */\n      dup1\n        /* \"--CODEGEN--\":22:34   */\n      revert\n        /* \"--CODEGEN--\":4:6   */\n    tag_169:\n      pop\n      sub(shl(0xa0, 0x01), 0x01)\n        /* \"contracts/indrarouter.sol\":18582:19529  function addLiquidityETH(... */\n      dup2\n      calldataload\n      dup2\n      and\n      swap2\n      0x20\n      dup2\n      add\n      calldataload\n      swap2\n      0x40\n      dup3\n      add\n      calldataload\n      swap2\n      0x60\n      dup2\n      add\n      calldataload\n      swap2\n      0x80\n      dup3\n      add\n      calldataload\n      and\n      swap1\n      0xa0\n      add\n      calldataload\n      tag_170\n      jump\t// in\n        /* \"contracts/indrarouter.sol\":28199:28985  function swapETHForExactTokens(uint amountOut, address[] calldata path, address to, uint deadline)... */\n    tag_26:\n      tag_42\n      0x04\n      dup1\n      calldatasize\n      sub\n        /* \"--CODEGEN--\":15:18   */\n      0x80\n        /* \"--CODEGEN--\":10:13   */\n      dup2\n        /* \"--CODEGEN--\":7:19   */\n      lt\n        /* \"--CODEGEN--\":4:6   */\n      iszero\n      tag_172\n      jumpi\n        /* \"--CODEGEN--\":32:33   */\n      0x00\n        /* \"--CODEGEN--\":29:30   */\n      dup1\n        /* \"--CODEGEN--\":22:34   */\n      revert\n        /* \"--CODEGEN--\":4:6   */\n    tag_172:\n        /* \"contracts/indrarouter.sol\":28199:28985  function swapETHForExactTokens(uint amountOut, address[] calldata path, address to, uint deadline)... */\n      dup2\n      calldataload\n      swap2\n      swap1\n      dup2\n      add\n      swap1\n      0x40\n      dup2\n      add\n      0x20\n      dup3\n      add\n      calldataload\n      shl(0x20, 0x01)\n        /* \"--CODEGEN--\":11:39   */\n      dup2\n      gt\n        /* \"--CODEGEN--\":8:10   */\n      iszero\n      tag_173\n      jumpi\n        /* \"--CODEGEN--\":52:53   */\n      0x00\n        /* \"--CODEGEN--\":49:50   */\n      dup1\n        /* \"--CODEGEN--\":42:54   */\n      revert\n        /* \"--CODEGEN--\":8:10   */\n    tag_173:\n        /* \"contracts/indrarouter.sol\":28199:28985  function swapETHForExactTokens(uint amountOut, address[] calldata path, address to, uint deadline)... */\n      dup3\n      add\n        /* \"--CODEGEN--\":41:50   */\n      dup4\n        /* \"--CODEGEN--\":34:38   */\n      0x20\n        /* \"--CODEGEN--\":18:32   */\n      dup3\n        /* \"--CODEGEN--\":14:39   */\n      add\n        /* \"--CODEGEN--\":11:51   */\n      gt\n        /* \"--CODEGEN--\":8:10   */\n      iszero\n      tag_174\n      jumpi\n        /* \"--CODEGEN--\":64:65   */\n      0x00\n        /* \"--CODEGEN--\":61:62   */\n      dup1\n        /* \"--CODEGEN--\":54:66   */\n      revert\n        /* \"--CODEGEN--\":8:10   */\n    tag_174:\n        /* \"contracts/indrarouter.sol\":28199:28985  function swapETHForExactTokens(uint amountOut, address[] calldata path, address to, uint deadline)... */\n      dup1\n      calldataload\n      swap1\n      0x20\n      add\n      swap2\n        /* \"--CODEGEN--\":101:110   */\n      dup5\n        /* \"--CODEGEN--\":95:97   */\n      0x20\n        /* \"--CODEGEN--\":81:93   */\n      dup4\n        /* \"--CODEGEN--\":77:98   */\n      mul\n        /* \"--CODEGEN--\":67:75   */\n      dup5\n        /* \"--CODEGEN--\":63:99   */\n      add\n        /* \"--CODEGEN--\":60:111   */\n      gt\n      shl(0x20, 0x01)\n        /* \"--CODEGEN--\":25:37   */\n      dup4\n        /* \"--CODEGEN--\":22:51   */\n      gt\n        /* \"--CODEGEN--\":11:119   */\n      or\n        /* \"--CODEGEN--\":8:10   */\n      iszero\n      tag_175\n      jumpi\n        /* \"--CODEGEN--\":132:133   */\n      0x00\n        /* \"--CODEGEN--\":129:130   */\n      dup1\n        /* \"--CODEGEN--\":122:134   */\n      revert\n        /* \"--CODEGEN--\":8:10   */\n    tag_175:\n        /* \"contracts/indrarouter.sol\":28199:28985  function swapETHForExactTokens(uint amountOut, address[] calldata path, address to, uint deadline)... */\n      swap2\n      swap4\n      pop\n      swap2\n      pop\n      sub(shl(0xa0, 0x01), 0x01)\n      dup2\n      calldataload\n      and\n      swap1\n      0x20\n      add\n      calldataload\n      tag_176\n      jump\t// in\n        /* \"contracts/indrarouter.sol\":20411:21064  function removeLiquidityETH(... */\n    tag_36:\n        /* \"contracts/indrarouter.sol\":20641:20657  uint amountToken */\n      0x00\n        /* \"contracts/indrarouter.sol\":20659:20673  uint amountETH */\n      dup1\n        /* \"contracts/indrarouter.sol\":20622:20630  deadline */\n      dup3\n        /* \"contracts/indrarouter.sol\":16161:16176  block.timestamp */\n      timestamp\n        /* \"contracts/indrarouter.sol\":16149:16157  deadline */\n      dup2\n        /* \"contracts/indrarouter.sol\":16149:16176  deadline >= block.timestamp */\n      lt\n      iszero\n        /* \"contracts/indrarouter.sol\":16141:16203  require(deadline >= block.timestamp, 'PancakeRouter: EXPIRED') */\n      tag_181\n      jumpi\n      0x40\n      dup1\n      mload\n      shl(0xe5, 0x461bcd)\n      dup2\n      mstore\n      0x20\n      0x04\n      dup3\n      add\n      mstore\n      0x16\n      0x24\n      dup3\n      add\n      mstore\n      0x00\n      dup1\n      mload\n      0x20\n      data_48da24abbb1fac1ad424fc0d0ddda728b5e193f1888a852641dc2d17535faffb\n      dup4\n      codecopy\n      dup2\n      mload\n      swap2\n      mstore\n      0x44\n      dup3\n      add\n      mstore\n      swap1\n      mload\n      swap1\n      dup2\n      swap1\n      sub\n      0x64\n      add\n      swap1\n      revert\n    tag_181:\n        /* \"contracts/indrarouter.sol\":20712:20900  removeLiquidity(... */\n      tag_183\n        /* \"contracts/indrarouter.sol\":20741:20746  token */\n      dup10\n        /* \"contracts/indrarouter.sol\":20760:20764  WETH */\n      immutable(\"0x229aeb8f3af31dca53a287d28e8ba0744a7f60e8208788a28095fa44a959baa9\")\n        /* \"contracts/indrarouter.sol\":20778:20787  liquidity */\n      dup11\n        /* \"contracts/indrarouter.sol\":20801:20815  amountTokenMin */\n      dup11\n        /* \"contracts/indrarouter.sol\":20829:20841  amountETHMin */\n      dup11\n        /* \"contracts/indrarouter.sol\":20863:20867  this */\n      address\n        /* \"contracts/indrarouter.sol\":20882:20890  deadline */\n      dup11\n        /* \"contracts/indrarouter.sol\":20712:20727  removeLiquidity */\n      tag_146\n        /* \"contracts/indrarouter.sol\":20712:20900  removeLiquidity(... */\n      jump\t// in\n    tag_183:\n        /* \"contracts/indrarouter.sol\":20685:20900  (amountToken, amountETH) = removeLiquidity(... */\n      swap1\n      swap4\n      pop\n      swap2\n      pop\n        /* \"contracts/indrarouter.sol\":20910:20961  TransferHelper.safeTransfer(token, to, amountToken) */\n      tag_184\n        /* \"contracts/indrarouter.sol\":20938:20943  token */\n      dup10\n        /* \"contracts/indrarouter.sol\":20945:20947  to */\n      dup7\n        /* \"contracts/indrarouter.sol\":20685:20900  (amountToken, amountETH) = removeLiquidity(... */\n      dup6\n        /* \"contracts/indrarouter.sol\":20910:20937  TransferHelper.safeTransfer */\n      tag_185\n        /* \"contracts/indrarouter.sol\":20910:20961  TransferHelper.safeTransfer(token, to, amountToken) */\n      jump\t// in\n    tag_184:\n        /* \"contracts/indrarouter.sol\":20977:20981  WETH */\n      immutable(\"0x229aeb8f3af31dca53a287d28e8ba0744a7f60e8208788a28095fa44a959baa9\")\n      sub(shl(0xa0, 0x01), 0x01)\n        /* \"contracts/indrarouter.sol\":20971:20991  IWETH(WETH).withdraw */\n      and\n      0x2e1a7d4d\n        /* \"contracts/indrarouter.sol\":20992:21001  amountETH */\n      dup4\n        /* \"contracts/indrarouter.sol\":20971:21002  IWETH(WETH).withdraw(amountETH) */\n      mload(0x40)\n      dup3\n      0xffffffff\n      and\n      0xe0\n      shl\n      dup2\n      mstore\n      0x04\n      add\n      dup1\n      dup3\n      dup2\n      mstore\n      0x20\n      add\n      swap2\n      pop\n      pop\n      0x00\n      mload(0x40)\n      dup1\n      dup4\n      sub\n      dup2\n      0x00\n      dup8\n      dup1\n      extcodesize\n      iszero\n        /* \"--CODEGEN--\":5:14   */\n      dup1\n        /* \"--CODEGEN--\":2:4   */\n      iszero\n      tag_186\n      jumpi\n        /* \"--CODEGEN--\":27:28   */\n      0x00\n        /* \"--CODEGEN--\":24:25   */\n      dup1\n        /* \"--CODEGEN--\":17:29   */\n      revert\n        /* \"--CODEGEN--\":2:4   */\n    tag_186:\n        /* \"contracts/indrarouter.sol\":20971:21002  IWETH(WETH).withdraw(amountETH) */\n      pop\n      gas\n      call\n      iszero\n        /* \"--CODEGEN--\":8:17   */\n      dup1\n        /* \"--CODEGEN--\":5:7   */\n      iszero\n      tag_188\n      jumpi\n        /* \"--CODEGEN--\":45:61   */\n      returndatasize\n        /* \"--CODEGEN--\":42:43   */\n      0x00\n        /* \"--CODEGEN--\":39:40   */\n      dup1\n        /* \"--CODEGEN--\":24:62   */\n      returndatacopy\n        /* \"--CODEGEN--\":77:93   */\n      returndatasize\n        /* \"--CODEGEN--\":74:75   */\n      0x00\n        /* \"--CODEGEN--\":67:94   */\n      revert\n        /* \"--CODEGEN--\":5:7   */\n    tag_188:\n        /* \"contracts/indrarouter.sol\":20971:21002  IWETH(WETH).withdraw(amountETH) */\n      pop\n      pop\n      pop\n      pop\n        /* \"contracts/indrarouter.sol\":21012:21057  TransferHelper.safeTransferETH(to, amountETH) */\n      tag_189\n        /* \"contracts/indrarouter.sol\":21043:21045  to */\n      dup6\n        /* \"contracts/indrarouter.sol\":21047:21056  amountETH */\n      dup4\n        /* \"contracts/indrarouter.sol\":21012:21042  TransferHelper.safeTransferETH */\n      tag_190\n        /* \"contracts/indrarouter.sol\":21012:21057  TransferHelper.safeTransferETH(to, amountETH) */\n      jump\t// in\n    tag_189:\n        /* \"contracts/indrarouter.sol\":20411:21064  function removeLiquidityETH(... */\n      pop\n      swap7\n      pop\n      swap7\n      swap5\n      pop\n      pop\n      pop\n      pop\n      pop\n      jump\t// out\n        /* \"contracts/indrarouter.sol\":32891:33143  function getAmountOut(uint amountIn, uint reserveIn, uint reserveOut)... */\n    tag_40:\n        /* \"contracts/indrarouter.sol\":33039:33053  uint amountOut */\n      0x00\n        /* \"contracts/indrarouter.sol\":33076:33136  PancakeLibrary.getAmountOut(amountIn, reserveIn, reserveOut) */\n      tag_192\n        /* \"contracts/indrarouter.sol\":33104:33112  amountIn */\n      dup5\n        /* \"contracts/indrarouter.sol\":33114:33123  reserveIn */\n      dup5\n        /* \"contracts/indrarouter.sol\":33125:33135  reserveOut */\n      dup5\n        /* \"contracts/indrarouter.sol\":33076:33103  PancakeLibrary.getAmountOut */\n      tag_193\n        /* \"contracts/indrarouter.sol\":33076:33136  PancakeLibrary.getAmountOut(amountIn, reserveIn, reserveOut) */\n      jump\t// in\n    tag_192:\n        /* \"contracts/indrarouter.sol\":33069:33136  return PancakeLibrary.getAmountOut(amountIn, reserveIn, reserveOut) */\n      swap5\n        /* \"contracts/indrarouter.sol\":32891:33143  function getAmountOut(uint amountIn, uint reserveIn, uint reserveOut)... */\n      swap4\n      pop\n      pop\n      pop\n      pop\n      jump\t// out\n        /* \"contracts/indrarouter.sol\":27368:28194  function swapExactTokensForETH(uint amountIn, uint amountOutMin, address[] calldata path, address to, uint deadline)... */\n    tag_47:\n        /* \"contracts/indrarouter.sol\":27577:27598  uint[] memory amounts */\n      0x60\n        /* \"contracts/indrarouter.sol\":27550:27558  deadline */\n      dup2\n        /* \"contracts/indrarouter.sol\":16161:16176  block.timestamp */\n      timestamp\n        /* \"contracts/indrarouter.sol\":16149:16157  deadline */\n      dup2\n        /* \"contracts/indrarouter.sol\":16149:16176  deadline >= block.timestamp */\n      lt\n      iszero\n        /* \"contracts/indrarouter.sol\":16141:16203  require(deadline >= block.timestamp, 'PancakeRouter: EXPIRED') */\n      tag_195\n      jumpi\n      0x40\n      dup1\n      mload\n      shl(0xe5, 0x461bcd)\n      dup2\n      mstore\n      0x20\n      0x04\n      dup3\n      add\n      mstore\n      0x16\n      0x24\n      dup3\n      add\n      mstore\n      0x00\n      dup1\n      mload\n      0x20\n      data_48da24abbb1fac1ad424fc0d0ddda728b5e193f1888a852641dc2d17535faffb\n      dup4\n      codecopy\n      dup2\n      mload\n      swap2\n      mstore\n      0x44\n      dup3\n      add\n      mstore\n      swap1\n      mload\n      swap1\n      dup2\n      swap1\n      sub\n      0x64\n      add\n      swap1\n      revert\n    tag_195:\n      sub(shl(0xa0, 0x01), 0x01)\n        /* \"contracts/indrarouter.sol\":27647:27651  WETH */\n      immutable(\"0x229aeb8f3af31dca53a287d28e8ba0744a7f60e8208788a28095fa44a959baa9\")\n        /* \"contracts/indrarouter.sol\":27622:27651  path[path.length - 1] == WETH */\n      and\n        /* \"contracts/indrarouter.sol\":27622:27626  path */\n      dup7\n      dup7\n      not(0x00)\n        /* \"contracts/indrarouter.sol\":27627:27642  path.length - 1 */\n      dup2\n      add\n        /* \"contracts/indrarouter.sol\":27622:27643  path[path.length - 1] */\n      dup2\n      dup2\n      lt\n      tag_197\n      jumpi\n      invalid\n    tag_197:\n      swap1\n      pop\n      0x20\n      mul\n      add\n      calldataload\n      sub(shl(0xa0, 0x01), 0x01)\n      and\n      sub(shl(0xa0, 0x01), 0x01)\n        /* \"contracts/indrarouter.sol\":27622:27651  path[path.length - 1] == WETH */\n      and\n      eq\n        /* \"contracts/indrarouter.sol\":27614:27683  require(path[path.length - 1] == WETH, 'PancakeRouter: INVALID_PATH') */\n      tag_198\n      jumpi\n      0x40\n      dup1\n      mload\n      shl(0xe5, 0x461bcd)\n      dup2\n      mstore\n      0x20\n      0x04\n      dup3\n      add\n      mstore\n      0x1b\n      0x24\n      dup3\n      add\n      mstore\n      0x00\n      dup1\n      mload\n      0x20\n      data_82928200364a85809bf4a0b91c6d2eba6bdb5bd92df2e22eb8eef03222c3f531\n      dup4\n      codecopy\n      dup2\n      mload\n      swap2\n      mstore\n      0x44\n      dup3\n      add\n      mstore\n      swap1\n      mload\n      swap1\n      dup2\n      swap1\n      sub\n      0x64\n      add\n      swap1\n      revert\n    tag_198:\n        /* \"contracts/indrarouter.sol\":27703:27756  PancakeLibrary.getAmountsOut(factory, amountIn, path) */\n      tag_199\n        /* \"contracts/indrarouter.sol\":27732:27739  factory */\n      immutable(\"0xeba818bcee6eaba9d1a7c8e4d0732334c4e45617c48a8a0861c4ad844e6db671\")\n        /* \"contracts/indrarouter.sol\":27741:27749  amountIn */\n      dup10\n        /* \"contracts/indrarouter.sol\":27751:27755  path */\n      dup9\n      dup9\n        /* \"contracts/indrarouter.sol\":27703:27756  PancakeLibrary.getAmountsOut(factory, amountIn, path) */\n      dup1\n      dup1\n      0x20\n      mul\n      0x20\n      add\n      mload(0x40)\n      swap1\n      dup2\n      add\n      0x40\n      mstore\n      dup1\n      swap4\n      swap3\n      swap2\n      swap1\n      dup2\n      dup2\n      mstore\n      0x20\n      add\n      dup4\n      dup4\n      0x20\n      mul\n        /* \"--CODEGEN--\":30:33   */\n      dup1\n        /* \"--CODEGEN--\":22:28   */\n      dup3\n        /* \"--CODEGEN--\":14:20   */\n      dup5\n        /* \"--CODEGEN--\":1:34   */\n      calldatacopy\n        /* \"--CODEGEN--\":99:100   */\n      0x00\n        /* \"--CODEGEN--\":81:97   */\n      swap3\n      add\n        /* \"--CODEGEN--\":74:101   */\n      swap2\n      swap1\n      swap2\n      mstore\n      pop\n        /* \"contracts/indrarouter.sol\":27703:27731  PancakeLibrary.getAmountsOut */\n      tag_200\n      swap3\n      pop\n      pop\n      pop\n        /* \"contracts/indrarouter.sol\":27703:27756  PancakeLibrary.getAmountsOut(factory, amountIn, path) */\n      jump\t// in\n    tag_199:\n        /* \"contracts/indrarouter.sol\":27693:27756  amounts = PancakeLibrary.getAmountsOut(factory, amountIn, path) */\n      swap2\n      pop\n        /* \"contracts/indrarouter.sol\":27805:27817  amountOutMin */\n      dup7\n        /* \"contracts/indrarouter.sol\":27774:27781  amounts */\n      dup3\n        /* \"contracts/indrarouter.sol\":27799:27800  1 */\n      0x01\n        /* \"contracts/indrarouter.sol\":27782:27789  amounts */\n      dup5\n        /* \"contracts/indrarouter.sol\":27782:27796  amounts.length */\n      mload\n        /* \"contracts/indrarouter.sol\":27782:27800  amounts.length - 1 */\n      sub\n        /* \"contracts/indrarouter.sol\":27774:27801  amounts[amounts.length - 1] */\n      dup2\n      mload\n      dup2\n      lt\n      tag_201\n      jumpi\n      invalid\n    tag_201:\n      0x20\n      mul\n      0x20\n      add\n      add\n      mload\n        /* \"contracts/indrarouter.sol\":27774:27817  amounts[amounts.length - 1] >= amountOutMin */\n      lt\n      iszero\n        /* \"contracts/indrarouter.sol\":27766:27863  require(amounts[amounts.length - 1] >= amountOutMin, 'PancakeRouter: INSUFFICIENT_OUTPUT_AMOUNT') */\n      tag_202\n      jumpi\n      mload(0x40)\n      shl(0xe5, 0x461bcd)\n      dup2\n      mstore\n      0x04\n      add\n      dup1\n      dup1\n      0x20\n      add\n      dup3\n      dup2\n      sub\n      dup3\n      mstore\n      0x29\n      dup2\n      mstore\n      0x20\n      add\n      dup1\n      data_67a78505585fe709b19736b06d36a1ecdc512f90bed7fd0663a91a07a227deb4\n      0x29\n      swap2\n      codecopy\n      0x40\n      add\n      swap2\n      pop\n      pop\n      mload(0x40)\n      dup1\n      swap2\n      sub\n      swap1\n      revert\n    tag_202:\n        /* \"contracts/indrarouter.sol\":27873:28010  TransferHelper.safeTransferFrom(... */\n      tag_203\n        /* \"contracts/indrarouter.sol\":27918:27922  path */\n      dup7\n      dup7\n        /* \"contracts/indrarouter.sol\":27923:27924  0 */\n      0x00\n        /* \"contracts/indrarouter.sol\":27918:27925  path[0] */\n      dup2\n      dup2\n      lt\n      tag_204\n      jumpi\n      invalid\n    tag_204:\n      swap1\n      pop\n      0x20\n      mul\n      add\n      calldataload\n      sub(shl(0xa0, 0x01), 0x01)\n      and\n        /* \"contracts/indrarouter.sol\":27927:27937  msg.sender */\n      caller\n        /* \"contracts/indrarouter.sol\":27939:27988  PancakeLibrary.pairFor(factory, path[0], path[1]) */\n      tag_205\n        /* \"contracts/indrarouter.sol\":27962:27969  factory */\n      immutable(\"0xeba818bcee6eaba9d1a7c8e4d0732334c4e45617c48a8a0861c4ad844e6db671\")\n        /* \"contracts/indrarouter.sol\":27971:27975  path */\n      dup11\n      dup11\n        /* \"contracts/indrarouter.sol\":27976:27977  0 */\n      0x00\n        /* \"contracts/indrarouter.sol\":27971:27978  path[0] */\n      dup2\n      dup2\n      lt\n      tag_206\n      jumpi\n      invalid\n    tag_206:\n      swap1\n      pop\n      0x20\n      mul\n      add\n      calldataload\n      sub(shl(0xa0, 0x01), 0x01)\n      and\n        /* \"contracts/indrarouter.sol\":27980:27984  path */\n      dup12\n      dup12\n        /* \"contracts/indrarouter.sol\":27985:27986  1 */\n      0x01\n        /* \"contracts/indrarouter.sol\":27980:27987  path[1] */\n      dup2\n      dup2\n      lt\n      tag_207\n      jumpi\n      invalid\n    tag_207:\n      swap1\n      pop\n      0x20\n      mul\n      add\n      calldataload\n      sub(shl(0xa0, 0x01), 0x01)\n      and\n        /* \"contracts/indrarouter.sol\":27939:27961  PancakeLibrary.pairFor */\n      tag_208\n        /* \"contracts/indrarouter.sol\":27939:27988  PancakeLibrary.pairFor(factory, path[0], path[1]) */\n      jump\t// in\n    tag_205:\n        /* \"contracts/indrarouter.sol\":27990:27997  amounts */\n      dup6\n        /* \"contracts/indrarouter.sol\":27998:27999  0 */\n      0x00\n        /* \"contracts/indrarouter.sol\":27990:28000  amounts[0] */\n      dup2\n      mload\n      dup2\n      lt\n      tag_209\n      jumpi\n      invalid\n    tag_209:\n      0x20\n      mul\n      0x20\n      add\n      add\n      mload\n        /* \"contracts/indrarouter.sol\":27873:27904  TransferHelper.safeTransferFrom */\n      tag_210\n        /* \"contracts/indrarouter.sol\":27873:28010  TransferHelper.safeTransferFrom(... */\n      jump\t// in\n    tag_203:\n        /* \"contracts/indrarouter.sol\":28020:28055  _swap(amounts, path, address(this)) */\n      tag_211\n        /* \"contracts/indrarouter.sol\":28026:28033  amounts */\n      dup3\n        /* \"contracts/indrarouter.sol\":28035:28039  path */\n      dup8\n      dup8\n        /* \"contracts/indrarouter.sol\":28020:28055  _swap(amounts, path, address(this)) */\n      dup1\n      dup1\n      0x20\n      mul\n      0x20\n      add\n      mload(0x40)\n      swap1\n      dup2\n      add\n      0x40\n      mstore\n      dup1\n      swap4\n      swap3\n      swap2\n      swap1\n      dup2\n      dup2\n      mstore\n      0x20\n      add\n      dup4\n      dup4\n      0x20\n      mul\n        /* \"--CODEGEN--\":30:33   */\n      dup1\n        /* \"--CODEGEN--\":22:28   */\n      dup3\n        /* \"--CODEGEN--\":14:20   */\n      dup5\n        /* \"--CODEGEN--\":1:34   */\n      calldatacopy\n        /* \"--CODEGEN--\":99:100   */\n      0x00\n        /* \"--CODEGEN--\":81:97   */\n      swap3\n      add\n        /* \"--CODEGEN--\":74:101   */\n      swap2\n      swap1\n      swap2\n      mstore\n      pop\n        /* \"contracts/indrarouter.sol\":28049:28053  this */\n      address\n      swap3\n      pop\n        /* \"contracts/indrarouter.sol\":28020:28025  _swap */\n      tag_212\n      swap2\n      pop\n      pop\n        /* \"contracts/indrarouter.sol\":28020:28055  _swap(amounts, path, address(this)) */\n      jump\t// in\n    tag_211:\n        /* \"contracts/indrarouter.sol\":28071:28075  WETH */\n      immutable(\"0x229aeb8f3af31dca53a287d28e8ba0744a7f60e8208788a28095fa44a959baa9\")\n      sub(shl(0xa0, 0x01), 0x01)\n        /* \"contracts/indrarouter.sol\":28065:28085  IWETH(WETH).withdraw */\n      and\n      0x2e1a7d4d\n        /* \"contracts/indrarouter.sol\":28086:28093  amounts */\n      dup4\n        /* \"contracts/indrarouter.sol\":28111:28112  1 */\n      0x01\n        /* \"contracts/indrarouter.sol\":28094:28101  amounts */\n      dup6\n        /* \"contracts/indrarouter.sol\":28094:28108  amounts.length */\n      mload\n        /* \"contracts/indrarouter.sol\":28094:28112  amounts.length - 1 */\n      sub\n        /* \"contracts/indrarouter.sol\":28086:28113  amounts[amounts.length - 1] */\n      dup2\n      mload\n      dup2\n      lt\n      tag_213\n      jumpi\n      invalid\n    tag_213:\n      0x20\n      mul\n      0x20\n      add\n      add\n      mload\n        /* \"contracts/indrarouter.sol\":28065:28114  IWETH(WETH).withdraw(amounts[amounts.length - 1]) */\n      mload(0x40)\n      dup3\n      0xffffffff\n      and\n      0xe0\n      shl\n      dup2\n      mstore\n      0x04\n      add\n      dup1\n      dup3\n      dup2\n      mstore\n      0x20\n      add\n      swap2\n      pop\n      pop\n      0x00\n      mload(0x40)\n      dup1\n      dup4\n      sub\n      dup2\n      0x00\n      dup8\n      dup1\n      extcodesize\n      iszero\n        /* \"--CODEGEN--\":5:14   */\n      dup1\n        /* \"--CODEGEN--\":2:4   */\n      iszero\n      tag_214\n      jumpi\n        /* \"--CODEGEN--\":27:28   */\n      0x00\n        /* \"--CODEGEN--\":24:25   */\n      dup1\n        /* \"--CODEGEN--\":17:29   */\n      revert\n        /* \"--CODEGEN--\":2:4   */\n    tag_214:\n        /* \"contracts/indrarouter.sol\":28065:28114  IWETH(WETH).withdraw(amounts[amounts.length - 1]) */\n      pop\n      gas\n      call\n      iszero\n        /* \"--CODEGEN--\":8:17   */\n      dup1\n        /* \"--CODEGEN--\":5:7   */\n      iszero\n      tag_216\n      jumpi\n        /* \"--CODEGEN--\":45:61   */\n      returndatasize\n        /* \"--CODEGEN--\":42:43   */\n      0x00\n        /* \"--CODEGEN--\":39:40   */\n      dup1\n        /* \"--CODEGEN--\":24:62   */\n      returndatacopy\n        /* \"--CODEGEN--\":77:93   */\n      returndatasize\n        /* \"--CODEGEN--\":74:75   */\n      0x00\n        /* \"--CODEGEN--\":67:94   */\n      revert\n        /* \"--CODEGEN--\":5:7   */\n    tag_216:\n        /* \"contracts/indrarouter.sol\":28065:28114  IWETH(WETH).withdraw(amounts[amounts.length - 1]) */\n      pop\n      pop\n      pop\n      pop\n        /* \"contracts/indrarouter.sol\":28124:28187  TransferHelper.safeTransferETH(to, amounts[amounts.length - 1]) */\n      tag_217\n        /* \"contracts/indrarouter.sol\":28155:28157  to */\n      dup5\n        /* \"contracts/indrarouter.sol\":28159:28166  amounts */\n      dup4\n        /* \"contracts/indrarouter.sol\":28184:28185  1 */\n      0x01\n        /* \"contracts/indrarouter.sol\":28167:28174  amounts */\n      dup6\n        /* \"contracts/indrarouter.sol\":28167:28181  amounts.length */\n      mload\n        /* \"contracts/indrarouter.sol\":28167:28185  amounts.length - 1 */\n      sub\n        /* \"contracts/indrarouter.sol\":28159:28186  amounts[amounts.length - 1] */\n      dup2\n      mload\n      dup2\n      lt\n      tag_218\n      jumpi\n      invalid\n    tag_218:\n      0x20\n      mul\n      0x20\n      add\n      add\n      mload\n        /* \"contracts/indrarouter.sol\":28124:28154  TransferHelper.safeTransferETH */\n      tag_190\n        /* \"contracts/indrarouter.sol\":28124:28187  TransferHelper.safeTransferETH(to, amounts[amounts.length - 1]) */\n      jump\t// in\n    tag_217:\n        /* \"contracts/indrarouter.sol\":27368:28194  function swapExactTokensForETH(uint amountIn, uint amountOutMin, address[] calldata path, address to, uint deadline)... */\n      pop\n      swap7\n      swap6\n      pop\n      pop\n      pop\n      pop\n      pop\n      pop\n      jump\t// out\n        /* \"contracts/indrarouter.sol\":33655:33898  function getAmountsIn(uint amountOut, address[] memory path)... */\n    tag_57:\n        /* \"contracts/indrarouter.sol\":33794:33815  uint[] memory amounts */\n      0x60\n        /* \"contracts/indrarouter.sol\":33838:33891  PancakeLibrary.getAmountsIn(factory, amountOut, path) */\n      tag_220\n        /* \"contracts/indrarouter.sol\":33866:33873  factory */\n      immutable(\"0xeba818bcee6eaba9d1a7c8e4d0732334c4e45617c48a8a0861c4ad844e6db671\")\n        /* \"contracts/indrarouter.sol\":33875:33884  amountOut */\n      dup5\n        /* \"contracts/indrarouter.sol\":33886:33890  path */\n      dup5\n        /* \"contracts/indrarouter.sol\":33838:33865  PancakeLibrary.getAmountsIn */\n      tag_221\n        /* \"contracts/indrarouter.sol\":33838:33891  PancakeLibrary.getAmountsIn(factory, amountOut, path) */\n      jump\t// in\n    tag_220:\n        /* \"contracts/indrarouter.sol\":33831:33891  return PancakeLibrary.getAmountsIn(factory, amountOut, path) */\n      swap1\n      pop\n        /* \"contracts/indrarouter.sol\":33655:33898  function getAmountsIn(uint amountOut, address[] memory path)... */\n    tag_219:\n      swap3\n      swap2\n      pop\n      pop\n      jump\t// out\n        /* \"contracts/indrarouter.sol\":21069:21728  function removeLiquidityWithPermit(... */\n    tag_64:\n        /* \"contracts/indrarouter.sol\":21366:21378  uint amountA */\n      0x00\n        /* \"contracts/indrarouter.sol\":21380:21392  uint amountB */\n      dup1\n        /* \"contracts/indrarouter.sol\":21404:21416  address pair */\n      0x00\n        /* \"contracts/indrarouter.sol\":21419:21466  PancakeLibrary.pairFor(factory, tokenA, tokenB) */\n      tag_223\n        /* \"contracts/indrarouter.sol\":21442:21449  factory */\n      immutable(\"0xeba818bcee6eaba9d1a7c8e4d0732334c4e45617c48a8a0861c4ad844e6db671\")\n        /* \"contracts/indrarouter.sol\":21451:21457  tokenA */\n      dup16\n        /* \"contracts/indrarouter.sol\":21459:21465  tokenB */\n      dup16\n        /* \"contracts/indrarouter.sol\":21419:21441  PancakeLibrary.pairFor */\n      tag_208\n        /* \"contracts/indrarouter.sol\":21419:21466  PancakeLibrary.pairFor(factory, tokenA, tokenB) */\n      jump\t// in\n    tag_223:\n        /* \"contracts/indrarouter.sol\":21404:21466  address pair = PancakeLibrary.pairFor(factory, tokenA, tokenB) */\n      swap1\n      pop\n        /* \"contracts/indrarouter.sol\":21476:21486  uint value */\n      0x00\n        /* \"contracts/indrarouter.sol\":21489:21499  approveMax */\n      dup8\n        /* \"contracts/indrarouter.sol\":21489:21522  approveMax ? uint(-1) : liquidity */\n      tag_224\n      jumpi\n        /* \"contracts/indrarouter.sol\":21513:21522  liquidity */\n      dup13\n        /* \"contracts/indrarouter.sol\":21489:21522  approveMax ? uint(-1) : liquidity */\n      jump(tag_225)\n    tag_224:\n      not(0x00)\n    tag_225:\n        /* \"contracts/indrarouter.sol\":21532:21610  IPancakePair(pair).permit(msg.sender, address(this), value, deadline, v, r, s) */\n      0x40\n      dup1\n      mload\n      shl(0xe0, 0xd505accf)\n      dup2\n      mstore\n        /* \"contracts/indrarouter.sol\":21558:21568  msg.sender */\n      caller\n        /* \"contracts/indrarouter.sol\":21532:21610  IPancakePair(pair).permit(msg.sender, address(this), value, deadline, v, r, s) */\n      0x04\n      dup3\n      add\n      mstore\n        /* \"contracts/indrarouter.sol\":21578:21582  this */\n      address\n        /* \"contracts/indrarouter.sol\":21532:21610  IPancakePair(pair).permit(msg.sender, address(this), value, deadline, v, r, s) */\n      0x24\n      dup3\n      add\n      mstore\n      0x44\n      dup2\n      add\n      dup4\n      swap1\n      mstore\n      0x64\n      dup2\n      add\n      dup13\n      swap1\n      mstore\n      0xff\n      dup11\n      and\n      0x84\n      dup3\n      add\n      mstore\n      0xa4\n      dup2\n      add\n      dup10\n      swap1\n      mstore\n      0xc4\n      dup2\n      add\n      dup9\n      swap1\n      mstore\n      swap1\n      mload\n        /* \"contracts/indrarouter.sol\":21476:21522  uint value = approveMax ? uint(-1) : liquidity */\n      swap2\n      swap3\n      pop\n      sub(shl(0xa0, 0x01), 0x01)\n        /* \"contracts/indrarouter.sol\":21532:21557  IPancakePair(pair).permit */\n      dup5\n      and\n      swap2\n      0xd505accf\n      swap2\n        /* \"contracts/indrarouter.sol\":21532:21610  IPancakePair(pair).permit(msg.sender, address(this), value, deadline, v, r, s) */\n      0xe4\n      dup1\n      dup3\n      add\n      swap3\n      0x00\n      swap3\n      swap1\n      swap2\n      swap1\n      dup3\n      swap1\n      sub\n      add\n      dup2\n      dup4\n        /* \"contracts/indrarouter.sol\":21532:21557  IPancakePair(pair).permit */\n      dup8\n        /* \"contracts/indrarouter.sol\":21532:21610  IPancakePair(pair).permit(msg.sender, address(this), value, deadline, v, r, s) */\n      dup1\n      extcodesize\n      iszero\n        /* \"--CODEGEN--\":2:4   */\n      dup1\n      iszero\n      tag_226\n      jumpi\n        /* \"--CODEGEN--\":27:28   */\n      0x00\n        /* \"--CODEGEN--\":24:25   */\n      dup1\n        /* \"--CODEGEN--\":17:29   */\n      revert\n        /* \"--CODEGEN--\":2:4   */\n    tag_226:\n        /* \"contracts/indrarouter.sol\":21532:21610  IPancakePair(pair).permit(msg.sender, address(this), value, deadline, v, r, s) */\n      pop\n      gas\n      call\n      iszero\n        /* \"--CODEGEN--\":8:17   */\n      dup1\n        /* \"--CODEGEN--\":5:7   */\n      iszero\n      tag_228\n      jumpi\n        /* \"--CODEGEN--\":45:61   */\n      returndatasize\n        /* \"--CODEGEN--\":42:43   */\n      0x00\n        /* \"--CODEGEN--\":39:40   */\n      dup1\n        /* \"--CODEGEN--\":24:62   */\n      returndatacopy\n        /* \"--CODEGEN--\":77:93   */\n      returndatasize\n        /* \"--CODEGEN--\":74:75   */\n      0x00\n        /* \"--CODEGEN--\":67:94   */\n      revert\n        /* \"--CODEGEN--\":5:7   */\n    tag_228:\n        /* \"contracts/indrarouter.sol\":21532:21610  IPancakePair(pair).permit(msg.sender, address(this), value, deadline, v, r, s) */\n      pop\n      pop\n      pop\n      pop\n        /* \"contracts/indrarouter.sol\":21641:21721  removeLiquidity(tokenA, tokenB, liquidity, amountAMin, amountBMin, to, deadline) */\n      tag_229\n        /* \"contracts/indrarouter.sol\":21657:21663  tokenA */\n      dup16\n        /* \"contracts/indrarouter.sol\":21665:21671  tokenB */\n      dup16\n        /* \"contracts/indrarouter.sol\":21673:21682  liquidity */\n      dup16\n        /* \"contracts/indrarouter.sol\":21684:21694  amountAMin */\n      dup16\n        /* \"contracts/indrarouter.sol\":21696:21706  amountBMin */\n      dup16\n        /* \"contracts/indrarouter.sol\":21708:21710  to */\n      dup16\n        /* \"contracts/indrarouter.sol\":21712:21720  deadline */\n      dup16\n        /* \"contracts/indrarouter.sol\":21641:21656  removeLiquidity */\n      tag_146\n        /* \"contracts/indrarouter.sol\":21641:21721  removeLiquidity(tokenA, tokenB, liquidity, amountAMin, amountBMin, to, deadline) */\n      jump\t// in\n    tag_229:\n        /* \"contracts/indrarouter.sol\":21620:21721  (amountA, amountB) = removeLiquidity(tokenA, tokenB, liquidity, amountAMin, amountBMin, to, deadline) */\n      dup1\n      swap5\n      pop\n      dup2\n      swap6\n      pop\n      pop\n      pop\n        /* \"contracts/indrarouter.sol\":21069:21728  function removeLiquidityWithPermit(... */\n      pop\n      pop\n      swap12\n      pop\n      swap12\n      swap10\n      pop\n      pop\n      pop\n      pop\n      pop\n      pop\n      pop\n      pop\n      pop\n      pop\n      jump\t// out\n        /* \"contracts/indrarouter.sol\":24673:25282  function swapExactTokensForTokens(... */\n    tag_71:\n        /* \"contracts/indrarouter.sol\":24891:24912  uint[] memory amounts */\n      0x60\n        /* \"contracts/indrarouter.sol\":24872:24880  deadline */\n      dup2\n        /* \"contracts/indrarouter.sol\":16161:16176  block.timestamp */\n      timestamp\n        /* \"contracts/indrarouter.sol\":16149:16157  deadline */\n      dup2\n        /* \"contracts/indrarouter.sol\":16149:16176  deadline >= block.timestamp */\n      lt\n      iszero\n        /* \"contracts/indrarouter.sol\":16141:16203  require(deadline >= block.timestamp, 'PancakeRouter: EXPIRED') */\n      tag_231\n      jumpi\n      0x40\n      dup1\n      mload\n      shl(0xe5, 0x461bcd)\n      dup2\n      mstore\n      0x20\n      0x04\n      dup3\n      add\n      mstore\n      0x16\n      0x24\n      dup3\n      add\n      mstore\n      0x00\n      dup1\n      mload\n      0x20\n      data_48da24abbb1fac1ad424fc0d0ddda728b5e193f1888a852641dc2d17535faffb\n      dup4\n      codecopy\n      dup2\n      mload\n      swap2\n      mstore\n      0x44\n      dup3\n      add\n      mstore\n      swap1\n      mload\n      swap1\n      dup2\n      swap1\n      sub\n      0x64\n      add\n      swap1\n      revert\n    tag_231:\n        /* \"contracts/indrarouter.sol\":24934:24987  PancakeLibrary.getAmountsOut(factory, amountIn, path) */\n      tag_233\n        /* \"contracts/indrarouter.sol\":24963:24970  factory */\n      immutable(\"0xeba818bcee6eaba9d1a7c8e4d0732334c4e45617c48a8a0861c4ad844e6db671\")\n        /* \"contracts/indrarouter.sol\":24972:24980  amountIn */\n      dup10\n        /* \"contracts/indrarouter.sol\":24982:24986  path */\n      dup9\n      dup9\n        /* \"contracts/indrarouter.sol\":24934:24987  PancakeLibrary.getAmountsOut(factory, amountIn, path) */\n      dup1\n      dup1\n      0x20\n      mul\n      0x20\n      add\n      mload(0x40)\n      swap1\n      dup2\n      add\n      0x40\n      mstore\n      dup1\n      swap4\n      swap3\n      swap2\n      swap1\n      dup2\n      dup2\n      mstore\n      0x20\n      add\n      dup4\n      dup4\n      0x20\n      mul\n        /* \"--CODEGEN--\":30:33   */\n      dup1\n        /* \"--CODEGEN--\":22:28   */\n      dup3\n        /* \"--CODEGEN--\":14:20   */\n      dup5\n        /* \"--CODEGEN--\":1:34   */\n      calldatacopy\n        /* \"--CODEGEN--\":99:100   */\n      0x00\n        /* \"--CODEGEN--\":81:97   */\n      swap3\n      add\n        /* \"--CODEGEN--\":74:101   */\n      swap2\n      swap1\n      swap2\n      mstore\n      pop\n        /* \"contracts/indrarouter.sol\":24934:24962  PancakeLibrary.getAmountsOut */\n      tag_200\n      swap3\n      pop\n      pop\n      pop\n        /* \"contracts/indrarouter.sol\":24934:24987  PancakeLibrary.getAmountsOut(factory, amountIn, path) */\n      jump\t// in\n    tag_233:\n        /* \"contracts/indrarouter.sol\":24924:24987  amounts = PancakeLibrary.getAmountsOut(factory, amountIn, path) */\n      swap2\n      pop\n        /* \"contracts/indrarouter.sol\":25036:25048  amountOutMin */\n      dup7\n        /* \"contracts/indrarouter.sol\":25005:25012  amounts */\n      dup3\n        /* \"contracts/indrarouter.sol\":25030:25031  1 */\n      0x01\n        /* \"contracts/indrarouter.sol\":25013:25020  amounts */\n      dup5\n        /* \"contracts/indrarouter.sol\":25013:25027  amounts.length */\n      mload\n        /* \"contracts/indrarouter.sol\":25013:25031  amounts.length - 1 */\n      sub\n        /* \"contracts/indrarouter.sol\":25005:25032  amounts[amounts.length - 1] */\n      dup2\n      mload\n      dup2\n      lt\n      tag_234\n      jumpi\n      invalid\n    tag_234:\n      0x20\n      mul\n      0x20\n      add\n      add\n      mload\n        /* \"contracts/indrarouter.sol\":25005:25048  amounts[amounts.length - 1] >= amountOutMin */\n      lt\n      iszero\n        /* \"contracts/indrarouter.sol\":24997:25094  require(amounts[amounts.length - 1] >= amountOutMin, 'PancakeRouter: INSUFFICIENT_OUTPUT_AMOUNT') */\n      tag_235\n      jumpi\n      mload(0x40)\n      shl(0xe5, 0x461bcd)\n      dup2\n      mstore\n      0x04\n      add\n      dup1\n      dup1\n      0x20\n      add\n      dup3\n      dup2\n      sub\n      dup3\n      mstore\n      0x29\n      dup2\n      mstore\n      0x20\n      add\n      dup1\n      data_67a78505585fe709b19736b06d36a1ecdc512f90bed7fd0663a91a07a227deb4\n      0x29\n      swap2\n      codecopy\n      0x40\n      add\n      swap2\n      pop\n      pop\n      mload(0x40)\n      dup1\n      swap2\n      sub\n      swap1\n      revert\n    tag_235:\n        /* \"contracts/indrarouter.sol\":25104:25241  TransferHelper.safeTransferFrom(... */\n      tag_236\n        /* \"contracts/indrarouter.sol\":25149:25153  path */\n      dup7\n      dup7\n        /* \"contracts/indrarouter.sol\":25154:25155  0 */\n      0x00\n        /* \"contracts/indrarouter.sol\":25149:25156  path[0] */\n      dup2\n      dup2\n      lt\n      tag_204\n      jumpi\n      invalid\n        /* \"contracts/indrarouter.sol\":25104:25241  TransferHelper.safeTransferFrom(... */\n    tag_236:\n        /* \"contracts/indrarouter.sol\":25251:25275  _swap(amounts, path, to) */\n      tag_217\n        /* \"contracts/indrarouter.sol\":25257:25264  amounts */\n      dup3\n        /* \"contracts/indrarouter.sol\":25266:25270  path */\n      dup8\n      dup8\n        /* \"contracts/indrarouter.sol\":25251:25275  _swap(amounts, path, to) */\n      dup1\n      dup1\n      0x20\n      mul\n      0x20\n      add\n      mload(0x40)\n      swap1\n      dup2\n      add\n      0x40\n      mstore\n      dup1\n      swap4\n      swap3\n      swap2\n      swap1\n      dup2\n      dup2\n      mstore\n      0x20\n      add\n      dup4\n      dup4\n      0x20\n      mul\n        /* \"--CODEGEN--\":30:33   */\n      dup1\n        /* \"--CODEGEN--\":22:28   */\n      dup3\n        /* \"--CODEGEN--\":14:20   */\n      dup5\n        /* \"--CODEGEN--\":1:34   */\n      calldatacopy\n        /* \"--CODEGEN--\":99:100   */\n      0x00\n        /* \"--CODEGEN--\":81:97   */\n      swap3\n      add\n        /* \"--CODEGEN--\":74:101   */\n      swap2\n      swap1\n      swap2\n      mstore\n      pop\n        /* \"contracts/indrarouter.sol\":25272:25274  to */\n      dup10\n      swap3\n      pop\n        /* \"contracts/indrarouter.sol\":25251:25256  _swap */\n      tag_212\n      swap2\n      pop\n      pop\n        /* \"contracts/indrarouter.sol\":25251:25275  _swap(amounts, path, to) */\n      jump\t// in\n        /* \"contracts/indrarouter.sol\":26559:27363  function swapTokensForExactETH(uint amountOut, uint amountInMax, address[] calldata path, address to, uint deadline)... */\n    tag_81:\n        /* \"contracts/indrarouter.sol\":26768:26789  uint[] memory amounts */\n      0x60\n        /* \"contracts/indrarouter.sol\":26741:26749  deadline */\n      dup2\n        /* \"contracts/indrarouter.sol\":16161:16176  block.timestamp */\n      timestamp\n        /* \"contracts/indrarouter.sol\":16149:16157  deadline */\n      dup2\n        /* \"contracts/indrarouter.sol\":16149:16176  deadline >= block.timestamp */\n      lt\n      iszero\n        /* \"contracts/indrarouter.sol\":16141:16203  require(deadline >= block.timestamp, 'PancakeRouter: EXPIRED') */\n      tag_244\n      jumpi\n      0x40\n      dup1\n      mload\n      shl(0xe5, 0x461bcd)\n      dup2\n      mstore\n      0x20\n      0x04\n      dup3\n      add\n      mstore\n      0x16\n      0x24\n      dup3\n      add\n      mstore\n      0x00\n      dup1\n      mload\n      0x20\n      data_48da24abbb1fac1ad424fc0d0ddda728b5e193f1888a852641dc2d17535faffb\n      dup4\n      codecopy\n      dup2\n      mload\n      swap2\n      mstore\n      0x44\n      dup3\n      add\n      mstore\n      swap1\n      mload\n      swap1\n      dup2\n      swap1\n      sub\n      0x64\n      add\n      swap1\n      revert\n    tag_244:\n      sub(shl(0xa0, 0x01), 0x01)\n        /* \"contracts/indrarouter.sol\":26838:26842  WETH */\n      immutable(\"0x229aeb8f3af31dca53a287d28e8ba0744a7f60e8208788a28095fa44a959baa9\")\n        /* \"contracts/indrarouter.sol\":26813:26842  path[path.length - 1] == WETH */\n      and\n        /* \"contracts/indrarouter.sol\":26813:26817  path */\n      dup7\n      dup7\n      not(0x00)\n        /* \"contracts/indrarouter.sol\":26818:26833  path.length - 1 */\n      dup2\n      add\n        /* \"contracts/indrarouter.sol\":26813:26834  path[path.length - 1] */\n      dup2\n      dup2\n      lt\n      tag_246\n      jumpi\n      invalid\n    tag_246:\n      swap1\n      pop\n      0x20\n      mul\n      add\n      calldataload\n      sub(shl(0xa0, 0x01), 0x01)\n      and\n      sub(shl(0xa0, 0x01), 0x01)\n        /* \"contracts/indrarouter.sol\":26813:26842  path[path.length - 1] == WETH */\n      and\n      eq\n        /* \"contracts/indrarouter.sol\":26805:26874  require(path[path.length - 1] == WETH, 'PancakeRouter: INVALID_PATH') */\n      tag_247\n      jumpi\n      0x40\n      dup1\n      mload\n      shl(0xe5, 0x461bcd)\n      dup2\n      mstore\n      0x20\n      0x04\n      dup3\n      add\n      mstore\n      0x1b\n      0x24\n      dup3\n      add\n      mstore\n      0x00\n      dup1\n      mload\n      0x20\n      data_82928200364a85809bf4a0b91c6d2eba6bdb5bd92df2e22eb8eef03222c3f531\n      dup4\n      codecopy\n      dup2\n      mload\n      swap2\n      mstore\n      0x44\n      dup3\n      add\n      mstore\n      swap1\n      mload\n      swap1\n      dup2\n      swap1\n      sub\n      0x64\n      add\n      swap1\n      revert\n    tag_247:\n        /* \"contracts/indrarouter.sol\":26894:26947  PancakeLibrary.getAmountsIn(factory, amountOut, path) */\n      tag_248\n        /* \"contracts/indrarouter.sol\":26922:26929  factory */\n      immutable(\"0xeba818bcee6eaba9d1a7c8e4d0732334c4e45617c48a8a0861c4ad844e6db671\")\n        /* \"contracts/indrarouter.sol\":26931:26940  amountOut */\n      dup10\n        /* \"contracts/indrarouter.sol\":26942:26946  path */\n      dup9\n      dup9\n        /* \"contracts/indrarouter.sol\":26894:26947  PancakeLibrary.getAmountsIn(factory, amountOut, path) */\n      dup1\n      dup1\n      0x20\n      mul\n      0x20\n      add\n      mload(0x40)\n      swap1\n      dup2\n      add\n      0x40\n      mstore\n      dup1\n      swap4\n      swap3\n      swap2\n      swap1\n      dup2\n      dup2\n      mstore\n      0x20\n      add\n      dup4\n      dup4\n      0x20\n      mul\n        /* \"--CODEGEN--\":30:33   */\n      dup1\n        /* \"--CODEGEN--\":22:28   */\n      dup3\n        /* \"--CODEGEN--\":14:20   */\n      dup5\n        /* \"--CODEGEN--\":1:34   */\n      calldatacopy\n        /* \"--CODEGEN--\":99:100   */\n      0x00\n        /* \"--CODEGEN--\":81:97   */\n      swap3\n      add\n        /* \"--CODEGEN--\":74:101   */\n      swap2\n      swap1\n      swap2\n      mstore\n      pop\n        /* \"contracts/indrarouter.sol\":26894:26921  PancakeLibrary.getAmountsIn */\n      tag_221\n      swap3\n      pop\n      pop\n      pop\n        /* \"contracts/indrarouter.sol\":26894:26947  PancakeLibrary.getAmountsIn(factory, amountOut, path) */\n      jump\t// in\n    tag_248:\n        /* \"contracts/indrarouter.sol\":26884:26947  amounts = PancakeLibrary.getAmountsIn(factory, amountOut, path) */\n      swap2\n      pop\n        /* \"contracts/indrarouter.sol\":26979:26990  amountInMax */\n      dup7\n        /* \"contracts/indrarouter.sol\":26965:26972  amounts */\n      dup3\n        /* \"contracts/indrarouter.sol\":26973:26974  0 */\n      0x00\n        /* \"contracts/indrarouter.sol\":26965:26975  amounts[0] */\n      dup2\n      mload\n      dup2\n      lt\n      tag_249\n      jumpi\n      invalid\n    tag_249:\n      0x20\n      mul\n      0x20\n      add\n      add\n      mload\n        /* \"contracts/indrarouter.sol\":26965:26990  amounts[0] <= amountInMax */\n      gt\n      iszero\n        /* \"contracts/indrarouter.sol\":26957:27032  require(amounts[0] <= amountInMax, 'PancakeRouter: EXCESSIVE_INPUT_AMOUNT') */\n      tag_202\n      jumpi\n      mload(0x40)\n      shl(0xe5, 0x461bcd)\n      dup2\n      mstore\n      0x04\n      add\n      dup1\n      dup1\n      0x20\n      add\n      dup3\n      dup2\n      sub\n      dup3\n      mstore\n      0x25\n      dup2\n      mstore\n      0x20\n      add\n      dup1\n      data_e6ebac85a9dcf9d43d23a00e3f0314a74ac256fe09f8252fc03ff2284a4761ee\n      0x25\n      swap2\n      codecopy\n      0x40\n      add\n      swap2\n      pop\n      pop\n      mload(0x40)\n      dup1\n      swap2\n      sub\n      swap1\n      revert\n        /* \"contracts/indrarouter.sol\":23146:23845  function removeLiquidityETHWithPermitSupportingFeeOnTransferTokens(... */\n    tag_88:\n        /* \"contracts/indrarouter.sol\":23456:23470  uint amountETH */\n      0x00\n        /* \"contracts/indrarouter.sol\":23482:23494  address pair */\n      dup1\n        /* \"contracts/indrarouter.sol\":23497:23541  PancakeLibrary.pairFor(factory, token, WETH) */\n      tag_265\n        /* \"contracts/indrarouter.sol\":23520:23527  factory */\n      immutable(\"0xeba818bcee6eaba9d1a7c8e4d0732334c4e45617c48a8a0861c4ad844e6db671\")\n        /* \"contracts/indrarouter.sol\":23529:23534  token */\n      dup14\n        /* \"contracts/indrarouter.sol\":23536:23540  WETH */\n      immutable(\"0x229aeb8f3af31dca53a287d28e8ba0744a7f60e8208788a28095fa44a959baa9\")\n        /* \"contracts/indrarouter.sol\":23497:23519  PancakeLibrary.pairFor */\n      tag_208\n        /* \"contracts/indrarouter.sol\":23497:23541  PancakeLibrary.pairFor(factory, token, WETH) */\n      jump\t// in\n    tag_265:\n        /* \"contracts/indrarouter.sol\":23482:23541  address pair = PancakeLibrary.pairFor(factory, token, WETH) */\n      swap1\n      pop\n        /* \"contracts/indrarouter.sol\":23551:23561  uint value */\n      0x00\n        /* \"contracts/indrarouter.sol\":23564:23574  approveMax */\n      dup7\n        /* \"contracts/indrarouter.sol\":23564:23597  approveMax ? uint(-1) : liquidity */\n      tag_266\n      jumpi\n        /* \"contracts/indrarouter.sol\":23588:23597  liquidity */\n      dup12\n        /* \"contracts/indrarouter.sol\":23564:23597  approveMax ? uint(-1) : liquidity */\n      jump(tag_267)\n    tag_266:\n      not(0x00)\n    tag_267:\n        /* \"contracts/indrarouter.sol\":23607:23685  IPancakePair(pair).permit(msg.sender, address(this), value, deadline, v, r, s) */\n      0x40\n      dup1\n      mload\n      shl(0xe0, 0xd505accf)\n      dup2\n      mstore\n        /* \"contracts/indrarouter.sol\":23633:23643  msg.sender */\n      caller\n        /* \"contracts/indrarouter.sol\":23607:23685  IPancakePair(pair).permit(msg.sender, address(this), value, deadline, v, r, s) */\n      0x04\n      dup3\n      add\n      mstore\n        /* \"contracts/indrarouter.sol\":23653:23657  this */\n      address\n        /* \"contracts/indrarouter.sol\":23607:23685  IPancakePair(pair).permit(msg.sender, address(this), value, deadline, v, r, s) */\n      0x24\n      dup3\n      add\n      mstore\n      0x44\n      dup2\n      add\n      dup4\n      swap1\n      mstore\n      0x64\n      dup2\n      add\n      dup12\n      swap1\n      mstore\n      0xff\n      dup10\n      and\n      0x84\n      dup3\n      add\n      mstore\n      0xa4\n      dup2\n      add\n      dup9\n      swap1\n      mstore\n      0xc4\n      dup2\n      add\n      dup8\n      swap1\n      mstore\n      swap1\n      mload\n        /* \"contracts/indrarouter.sol\":23551:23597  uint value = approveMax ? uint(-1) : liquidity */\n      swap2\n      swap3\n      pop\n      sub(shl(0xa0, 0x01), 0x01)\n        /* \"contracts/indrarouter.sol\":23607:23632  IPancakePair(pair).permit */\n      dup5\n      and\n      swap2\n      0xd505accf\n      swap2\n        /* \"contracts/indrarouter.sol\":23607:23685  IPancakePair(pair).permit(msg.sender, address(this), value, deadline, v, r, s) */\n      0xe4\n      dup1\n      dup3\n      add\n      swap3\n      0x00\n      swap3\n      swap1\n      swap2\n      swap1\n      dup3\n      swap1\n      sub\n      add\n      dup2\n      dup4\n        /* \"contracts/indrarouter.sol\":23607:23632  IPancakePair(pair).permit */\n      dup8\n        /* \"contracts/indrarouter.sol\":23607:23685  IPancakePair(pair).permit(msg.sender, address(this), value, deadline, v, r, s) */\n      dup1\n      extcodesize\n      iszero\n        /* \"--CODEGEN--\":2:4   */\n      dup1\n      iszero\n      tag_268\n      jumpi\n        /* \"--CODEGEN--\":27:28   */\n      0x00\n        /* \"--CODEGEN--\":24:25   */\n      dup1\n        /* \"--CODEGEN--\":17:29   */\n      revert\n        /* \"--CODEGEN--\":2:4   */\n    tag_268:\n        /* \"contracts/indrarouter.sol\":23607:23685  IPancakePair(pair).permit(msg.sender, address(this), value, deadline, v, r, s) */\n      pop\n      gas\n      call\n      iszero\n        /* \"--CODEGEN--\":8:17   */\n      dup1\n        /* \"--CODEGEN--\":5:7   */\n      iszero\n      tag_270\n      jumpi\n        /* \"--CODEGEN--\":45:61   */\n      returndatasize\n        /* \"--CODEGEN--\":42:43   */\n      0x00\n        /* \"--CODEGEN--\":39:40   */\n      dup1\n        /* \"--CODEGEN--\":24:62   */\n      returndatacopy\n        /* \"--CODEGEN--\":77:93   */\n      returndatasize\n        /* \"--CODEGEN--\":74:75   */\n      0x00\n        /* \"--CODEGEN--\":67:94   */\n      revert\n        /* \"--CODEGEN--\":5:7   */\n    tag_270:\n        /* \"contracts/indrarouter.sol\":23607:23685  IPancakePair(pair).permit(msg.sender, address(this), value, deadline, v, r, s) */\n      pop\n      pop\n      pop\n      pop\n        /* \"contracts/indrarouter.sol\":23707:23838  removeLiquidityETHSupportingFeeOnTransferTokens(... */\n      tag_271\n        /* \"contracts/indrarouter.sol\":23768:23773  token */\n      dup14\n        /* \"contracts/indrarouter.sol\":23775:23784  liquidity */\n      dup14\n        /* \"contracts/indrarouter.sol\":23786:23800  amountTokenMin */\n      dup14\n        /* \"contracts/indrarouter.sol\":23802:23814  amountETHMin */\n      dup14\n        /* \"contracts/indrarouter.sol\":23816:23818  to */\n      dup14\n        /* \"contracts/indrarouter.sol\":23820:23828  deadline */\n      dup14\n        /* \"contracts/indrarouter.sol\":23707:23754  removeLiquidityETHSupportingFeeOnTransferTokens */\n      tag_136\n        /* \"contracts/indrarouter.sol\":23707:23838  removeLiquidityETHSupportingFeeOnTransferTokens(... */\n      jump\t// in\n    tag_271:\n        /* \"contracts/indrarouter.sol\":23695:23838  amountETH = removeLiquidityETHSupportingFeeOnTransferTokens(... */\n      swap14\n        /* \"contracts/indrarouter.sol\":23146:23845  function removeLiquidityETHWithPermitSupportingFeeOnTransferTokens(... */\n      swap13\n      pop\n      pop\n      pop\n      pop\n      pop\n      pop\n      pop\n      pop\n      pop\n      pop\n      pop\n      pop\n      pop\n      jump\t// out\n        /* \"contracts/indrarouter.sol\":30318:31012  function swapExactTokensForTokensSupportingFeeOnTransferTokens(... */\n    tag_95:\n        /* \"contracts/indrarouter.sol\":30546:30554  deadline */\n      dup1\n        /* \"contracts/indrarouter.sol\":16161:16176  block.timestamp */\n      timestamp\n        /* \"contracts/indrarouter.sol\":16149:16157  deadline */\n      dup2\n        /* \"contracts/indrarouter.sol\":16149:16176  deadline >= block.timestamp */\n      lt\n      iszero\n        /* \"contracts/indrarouter.sol\":16141:16203  require(deadline >= block.timestamp, 'PancakeRouter: EXPIRED') */\n      tag_273\n      jumpi\n      0x40\n      dup1\n      mload\n      shl(0xe5, 0x461bcd)\n      dup2\n      mstore\n      0x20\n      0x04\n      dup3\n      add\n      mstore\n      0x16\n      0x24\n      dup3\n      add\n      mstore\n      0x00\n      dup1\n      mload\n      0x20\n      data_48da24abbb1fac1ad424fc0d0ddda728b5e193f1888a852641dc2d17535faffb\n      dup4\n      codecopy\n      dup2\n      mload\n      swap2\n      mstore\n      0x44\n      dup3\n      add\n      mstore\n      swap1\n      mload\n      swap1\n      dup2\n      swap1\n      sub\n      0x64\n      add\n      swap1\n      revert\n    tag_273:\n        /* \"contracts/indrarouter.sol\":30566:30701  TransferHelper.safeTransferFrom(... */\n      tag_275\n        /* \"contracts/indrarouter.sol\":30611:30615  path */\n      dup6\n      dup6\n        /* \"contracts/indrarouter.sol\":30616:30617  0 */\n      0x00\n        /* \"contracts/indrarouter.sol\":30611:30618  path[0] */\n      dup2\n      dup2\n      lt\n      tag_276\n      jumpi\n      invalid\n    tag_276:\n      swap1\n      pop\n      0x20\n      mul\n      add\n      calldataload\n      sub(shl(0xa0, 0x01), 0x01)\n      and\n        /* \"contracts/indrarouter.sol\":30620:30630  msg.sender */\n      caller\n        /* \"contracts/indrarouter.sol\":30632:30681  PancakeLibrary.pairFor(factory, path[0], path[1]) */\n      tag_277\n        /* \"contracts/indrarouter.sol\":30655:30662  factory */\n      immutable(\"0xeba818bcee6eaba9d1a7c8e4d0732334c4e45617c48a8a0861c4ad844e6db671\")\n        /* \"contracts/indrarouter.sol\":30664:30668  path */\n      dup10\n      dup10\n        /* \"contracts/indrarouter.sol\":30669:30670  0 */\n      0x00\n        /* \"contracts/indrarouter.sol\":30664:30671  path[0] */\n      dup2\n      dup2\n      lt\n      tag_278\n      jumpi\n      invalid\n    tag_278:\n      swap1\n      pop\n      0x20\n      mul\n      add\n      calldataload\n      sub(shl(0xa0, 0x01), 0x01)\n      and\n        /* \"contracts/indrarouter.sol\":30673:30677  path */\n      dup11\n      dup11\n        /* \"contracts/indrarouter.sol\":30678:30679  1 */\n      0x01\n        /* \"contracts/indrarouter.sol\":30673:30680  path[1] */\n      dup2\n      dup2\n      lt\n      tag_207\n      jumpi\n      invalid\n        /* \"contracts/indrarouter.sol\":30632:30681  PancakeLibrary.pairFor(factory, path[0], path[1]) */\n    tag_277:\n        /* \"contracts/indrarouter.sol\":30683:30691  amountIn */\n      dup11\n        /* \"contracts/indrarouter.sol\":30566:30597  TransferHelper.safeTransferFrom */\n      tag_210\n        /* \"contracts/indrarouter.sol\":30566:30701  TransferHelper.safeTransferFrom(... */\n      jump\t// in\n    tag_275:\n        /* \"contracts/indrarouter.sol\":30711:30729  uint balanceBefore */\n      0x00\n        /* \"contracts/indrarouter.sol\":30739:30743  path */\n      dup6\n      dup6\n      not(0x00)\n        /* \"contracts/indrarouter.sol\":30744:30759  path.length - 1 */\n      dup2\n      add\n        /* \"contracts/indrarouter.sol\":30739:30760  path[path.length - 1] */\n      dup2\n      dup2\n      lt\n      tag_280\n      jumpi\n      invalid\n    tag_280:\n      swap1\n      pop\n      0x20\n      mul\n      add\n      calldataload\n      sub(shl(0xa0, 0x01), 0x01)\n      and\n      sub(shl(0xa0, 0x01), 0x01)\n        /* \"contracts/indrarouter.sol\":30732:30771  IERC20(path[path.length - 1]).balanceOf */\n      and\n      0x70a08231\n        /* \"contracts/indrarouter.sol\":30772:30774  to */\n      dup6\n        /* \"contracts/indrarouter.sol\":30732:30775  IERC20(path[path.length - 1]).balanceOf(to) */\n      mload(0x40)\n      dup3\n      0xffffffff\n      and\n      0xe0\n      shl\n      dup2\n      mstore\n      0x04\n      add\n      dup1\n      dup3\n      sub(shl(0xa0, 0x01), 0x01)\n      and\n      sub(shl(0xa0, 0x01), 0x01)\n      and\n      dup2\n      mstore\n      0x20\n      add\n      swap2\n      pop\n      pop\n      0x20\n      mload(0x40)\n      dup1\n      dup4\n      sub\n      dup2\n      dup7\n      dup1\n      extcodesize\n      iszero\n        /* \"--CODEGEN--\":5:14   */\n      dup1\n        /* \"--CODEGEN--\":2:4   */\n      iszero\n      tag_281\n      jumpi\n        /* \"--CODEGEN--\":27:28   */\n      0x00\n        /* \"--CODEGEN--\":24:25   */\n      dup1\n        /* \"--CODEGEN--\":17:29   */\n      revert\n        /* \"--CODEGEN--\":2:4   */\n    tag_281:\n        /* \"contracts/indrarouter.sol\":30732:30775  IERC20(path[path.length - 1]).balanceOf(to) */\n      pop\n      gas\n      staticcall\n      iszero\n        /* \"--CODEGEN--\":8:17   */\n      dup1\n        /* \"--CODEGEN--\":5:7   */\n      iszero\n      tag_283\n      jumpi\n        /* \"--CODEGEN--\":45:61   */\n      returndatasize\n        /* \"--CODEGEN--\":42:43   */\n      0x00\n        /* \"--CODEGEN--\":39:40   */\n      dup1\n        /* \"--CODEGEN--\":24:62   */\n      returndatacopy\n        /* \"--CODEGEN--\":77:93   */\n      returndatasize\n        /* \"--CODEGEN--\":74:75   */\n      0x00\n        /* \"--CODEGEN--\":67:94   */\n      revert\n        /* \"--CODEGEN--\":5:7   */\n    tag_283:\n        /* \"contracts/indrarouter.sol\":30732:30775  IERC20(path[path.length - 1]).balanceOf(to) */\n      pop\n      pop\n      pop\n      pop\n      mload(0x40)\n      returndatasize\n        /* \"--CODEGEN--\":15:17   */\n      0x20\n        /* \"--CODEGEN--\":10:13   */\n      dup2\n        /* \"--CODEGEN--\":7:18   */\n      lt\n        /* \"--CODEGEN--\":4:6   */\n      iszero\n      tag_284\n      jumpi\n        /* \"--CODEGEN--\":31:32   */\n      0x00\n        /* \"--CODEGEN--\":28:29   */\n      dup1\n        /* \"--CODEGEN--\":21:33   */\n      revert\n        /* \"--CODEGEN--\":4:6   */\n    tag_284:\n      pop\n        /* \"contracts/indrarouter.sol\":30732:30775  IERC20(path[path.length - 1]).balanceOf(to) */\n      mload\n        /* \"contracts/indrarouter.sol\":30785:30829  _swapSupportingFeeOnTransferTokens(path, to) */\n      0x40\n      dup1\n      mload\n        /* \"contracts/indrarouter.sol\":30732:30775  IERC20(path[path.length - 1]).balanceOf(to) */\n      0x20\n        /* \"contracts/indrarouter.sol\":30785:30829  _swapSupportingFeeOnTransferTokens(path, to) */\n      dup9\n      dup2\n      mul\n      dup3\n      dup2\n      add\n      dup3\n      add\n      swap1\n      swap4\n      mstore\n      dup9\n      dup3\n      mstore\n        /* \"contracts/indrarouter.sol\":30732:30775  IERC20(path[path.length - 1]).balanceOf(to) */\n      swap3\n      swap4\n      pop\n        /* \"contracts/indrarouter.sol\":30785:30829  _swapSupportingFeeOnTransferTokens(path, to) */\n      tag_285\n      swap3\n      swap1\n      swap2\n        /* \"contracts/indrarouter.sol\":30820:30824  path */\n      dup10\n      swap2\n      dup10\n      swap2\n      dup3\n      swap2\n        /* \"contracts/indrarouter.sol\":30785:30829  _swapSupportingFeeOnTransferTokens(path, to) */\n      dup6\n      add\n      swap1\n        /* \"contracts/indrarouter.sol\":30820:30824  path */\n      dup5\n      swap1\n        /* \"contracts/indrarouter.sol\":30785:30829  _swapSupportingFeeOnTransferTokens(path, to) */\n      dup1\n        /* \"contracts/indrarouter.sol\":30820:30824  path */\n      dup3\n        /* \"contracts/indrarouter.sol\":30785:30829  _swapSupportingFeeOnTransferTokens(path, to) */\n      dup5\n        /* \"--CODEGEN--\":1:34   */\n      calldatacopy\n        /* \"--CODEGEN--\":99:100   */\n      0x00\n        /* \"--CODEGEN--\":81:97   */\n      swap3\n      add\n        /* \"--CODEGEN--\":74:101   */\n      swap2\n      swap1\n      swap2\n      mstore\n      pop\n        /* \"contracts/indrarouter.sol\":30826:30828  to */\n      dup9\n      swap3\n      pop\n        /* \"contracts/indrarouter.sol\":30785:30819  _swapSupportingFeeOnTransferTokens */\n      tag_286\n      swap2\n      pop\n      pop\n        /* \"contracts/indrarouter.sol\":30785:30829  _swapSupportingFeeOnTransferTokens(path, to) */\n      jump\t// in\n    tag_285:\n        /* \"contracts/indrarouter.sol\":30926:30938  amountOutMin */\n      dup7\n        /* \"contracts/indrarouter.sol\":30860:30922  IERC20(path[path.length - 1]).balanceOf(to).sub(balanceBefore) */\n      tag_287\n        /* \"contracts/indrarouter.sol\":30908:30921  balanceBefore */\n      dup3\n        /* \"contracts/indrarouter.sol\":30867:30871  path */\n      dup9\n      dup9\n      not(0x00)\n        /* \"contracts/indrarouter.sol\":30872:30887  path.length - 1 */\n      dup2\n      add\n        /* \"contracts/indrarouter.sol\":30867:30888  path[path.length - 1] */\n      dup2\n      dup2\n      lt\n      tag_288\n      jumpi\n      invalid\n    tag_288:\n      swap1\n      pop\n      0x20\n      mul\n      add\n      calldataload\n      sub(shl(0xa0, 0x01), 0x01)\n      and\n      sub(shl(0xa0, 0x01), 0x01)\n        /* \"contracts/indrarouter.sol\":30860:30899  IERC20(path[path.length - 1]).balanceOf */\n      and\n      0x70a08231\n        /* \"contracts/indrarouter.sol\":30900:30902  to */\n      dup9\n        /* \"contracts/indrarouter.sol\":30860:30903  IERC20(path[path.length - 1]).balanceOf(to) */\n      mload(0x40)\n      dup3\n      0xffffffff\n      and\n      0xe0\n      shl\n      dup2\n      mstore\n      0x04\n      add\n      dup1\n      dup3\n      sub(shl(0xa0, 0x01), 0x01)\n      and\n      sub(shl(0xa0, 0x01), 0x01)\n      and\n      dup2\n      mstore\n      0x20\n      add\n      swap2\n      pop\n      pop\n      0x20\n      mload(0x40)\n      dup1\n      dup4\n      sub\n      dup2\n      dup7\n      dup1\n      extcodesize\n      iszero\n        /* \"--CODEGEN--\":5:14   */\n      dup1\n        /* \"--CODEGEN--\":2:4   */\n      iszero\n      tag_289\n      jumpi\n        /* \"--CODEGEN--\":27:28   */\n      0x00\n        /* \"--CODEGEN--\":24:25   */\n      dup1\n        /* \"--CODEGEN--\":17:29   */\n      revert\n        /* \"--CODEGEN--\":2:4   */\n    tag_289:\n        /* \"contracts/indrarouter.sol\":30860:30903  IERC20(path[path.length - 1]).balanceOf(to) */\n      pop\n      gas\n      staticcall\n      iszero\n        /* \"--CODEGEN--\":8:17   */\n      dup1\n        /* \"--CODEGEN--\":5:7   */\n      iszero\n      tag_291\n      jumpi\n        /* \"--CODEGEN--\":45:61   */\n      returndatasize\n        /* \"--CODEGEN--\":42:43   */\n      0x00\n        /* \"--CODEGEN--\":39:40   */\n      dup1\n        /* \"--CODEGEN--\":24:62   */\n      returndatacopy\n        /* \"--CODEGEN--\":77:93   */\n      returndatasize\n        /* \"--CODEGEN--\":74:75   */\n      0x00\n        /* \"--CODEGEN--\":67:94   */\n      revert\n        /* \"--CODEGEN--\":5:7   */\n    tag_291:\n        /* \"contracts/indrarouter.sol\":30860:30903  IERC20(path[path.length - 1]).balanceOf(to) */\n      pop\n      pop\n      pop\n      pop\n      mload(0x40)\n      returndatasize\n        /* \"--CODEGEN--\":15:17   */\n      0x20\n        /* \"--CODEGEN--\":10:13   */\n      dup2\n        /* \"--CODEGEN--\":7:18   */\n      lt\n        /* \"--CODEGEN--\":4:6   */\n      iszero\n      tag_292\n      jumpi\n        /* \"--CODEGEN--\":31:32   */\n      0x00\n        /* \"--CODEGEN--\":28:29   */\n      dup1\n        /* \"--CODEGEN--\":21:33   */\n      revert\n        /* \"--CODEGEN--\":4:6   */\n    tag_292:\n      pop\n        /* \"contracts/indrarouter.sol\":30860:30903  IERC20(path[path.length - 1]).balanceOf(to) */\n      mload\n      swap1\n        /* \"contracts/indrarouter.sol\":30860:30922  IERC20(path[path.length - 1]).balanceOf(to).sub(balanceBefore) */\n      0xffffffff\n        /* \"contracts/indrarouter.sol\":30860:30907  IERC20(path[path.length - 1]).balanceOf(to).sub */\n      tag_293\n        /* \"contracts/indrarouter.sol\":30860:30922  IERC20(path[path.length - 1]).balanceOf(to).sub(balanceBefore) */\n      and\n      jump\t// in\n    tag_287:\n        /* \"contracts/indrarouter.sol\":30860:30938  IERC20(path[path.length - 1]).balanceOf(to).sub(balanceBefore) >= amountOutMin */\n      lt\n      iszero\n        /* \"contracts/indrarouter.sol\":30839:31005  require(... */\n      tag_294\n      jumpi\n      mload(0x40)\n      shl(0xe5, 0x461bcd)\n      dup2\n      mstore\n      0x04\n      add\n      dup1\n      dup1\n      0x20\n      add\n      dup3\n      dup2\n      sub\n      dup3\n      mstore\n      0x29\n      dup2\n      mstore\n      0x20\n      add\n      dup1\n      data_67a78505585fe709b19736b06d36a1ecdc512f90bed7fd0663a91a07a227deb4\n      0x29\n      swap2\n      codecopy\n      0x40\n      add\n      swap2\n      pop\n      pop\n      mload(0x40)\n      dup1\n      swap2\n      sub\n      swap1\n      revert\n    tag_294:\n        /* \"contracts/indrarouter.sol\":16213:16214  _ */\n      pop\n        /* \"contracts/indrarouter.sol\":30318:31012  function swapExactTokensForTokensSupportingFeeOnTransferTokens(... */\n      pop\n      pop\n      pop\n      pop\n      pop\n      pop\n      pop\n      jump\t// out\n        /* \"contracts/indrarouter.sol\":31844:32660  function swapExactTokensForETHSupportingFeeOnTransferTokens(... */\n    tag_102:\n        /* \"contracts/indrarouter.sol\":32101:32109  deadline */\n      dup1\n        /* \"contracts/indrarouter.sol\":16161:16176  block.timestamp */\n      timestamp\n        /* \"contracts/indrarouter.sol\":16149:16157  deadline */\n      dup2\n        /* \"contracts/indrarouter.sol\":16149:16176  deadline >= block.timestamp */\n      lt\n      iszero\n        /* \"contracts/indrarouter.sol\":16141:16203  require(deadline >= block.timestamp, 'PancakeRouter: EXPIRED') */\n      tag_296\n      jumpi\n      0x40\n      dup1\n      mload\n      shl(0xe5, 0x461bcd)\n      dup2\n      mstore\n      0x20\n      0x04\n      dup3\n      add\n      mstore\n      0x16\n      0x24\n      dup3\n      add\n      mstore\n      0x00\n      dup1\n      mload\n      0x20\n      data_48da24abbb1fac1ad424fc0d0ddda728b5e193f1888a852641dc2d17535faffb\n      dup4\n      codecopy\n      dup2\n      mload\n      swap2\n      mstore\n      0x44\n      dup3\n      add\n      mstore\n      swap1\n      mload\n      swap1\n      dup2\n      swap1\n      sub\n      0x64\n      add\n      swap1\n      revert\n    tag_296:\n      sub(shl(0xa0, 0x01), 0x01)\n        /* \"contracts/indrarouter.sol\":32158:32162  WETH */\n      immutable(\"0x229aeb8f3af31dca53a287d28e8ba0744a7f60e8208788a28095fa44a959baa9\")\n        /* \"contracts/indrarouter.sol\":32133:32162  path[path.length - 1] == WETH */\n      and\n        /* \"contracts/indrarouter.sol\":32133:32137  path */\n      dup6\n      dup6\n      not(0x00)\n        /* \"contracts/indrarouter.sol\":32138:32153  path.length - 1 */\n      dup2\n      add\n        /* \"contracts/indrarouter.sol\":32133:32154  path[path.length - 1] */\n      dup2\n      dup2\n      lt\n      tag_298\n      jumpi\n      invalid\n    tag_298:\n      swap1\n      pop\n      0x20\n      mul\n      add\n      calldataload\n      sub(shl(0xa0, 0x01), 0x01)\n      and\n      sub(shl(0xa0, 0x01), 0x01)\n        /* \"contracts/indrarouter.sol\":32133:32162  path[path.length - 1] == WETH */\n      and\n      eq\n        /* \"contracts/indrarouter.sol\":32125:32194  require(path[path.length - 1] == WETH, 'PancakeRouter: INVALID_PATH') */\n      tag_299\n      jumpi\n      0x40\n      dup1\n      mload\n      shl(0xe5, 0x461bcd)\n      dup2\n      mstore\n      0x20\n      0x04\n      dup3\n      add\n      mstore\n      0x1b\n      0x24\n      dup3\n      add\n      mstore\n      0x00\n      dup1\n      mload\n      0x20\n      data_82928200364a85809bf4a0b91c6d2eba6bdb5bd92df2e22eb8eef03222c3f531\n      dup4\n      codecopy\n      dup2\n      mload\n      swap2\n      mstore\n      0x44\n      dup3\n      add\n      mstore\n      swap1\n      mload\n      swap1\n      dup2\n      swap1\n      sub\n      0x64\n      add\n      swap1\n      revert\n    tag_299:\n        /* \"contracts/indrarouter.sol\":32204:32339  TransferHelper.safeTransferFrom(... */\n      tag_300\n        /* \"contracts/indrarouter.sol\":32249:32253  path */\n      dup6\n      dup6\n        /* \"contracts/indrarouter.sol\":32254:32255  0 */\n      0x00\n        /* \"contracts/indrarouter.sol\":32249:32256  path[0] */\n      dup2\n      dup2\n      lt\n      tag_276\n      jumpi\n      invalid\n        /* \"contracts/indrarouter.sol\":32204:32339  TransferHelper.safeTransferFrom(... */\n    tag_300:\n        /* \"contracts/indrarouter.sol\":32349:32404  _swapSupportingFeeOnTransferTokens(path, address(this)) */\n      tag_305\n        /* \"contracts/indrarouter.sol\":32384:32388  path */\n      dup6\n      dup6\n        /* \"contracts/indrarouter.sol\":32349:32404  _swapSupportingFeeOnTransferTokens(path, address(this)) */\n      dup1\n      dup1\n      0x20\n      mul\n      0x20\n      add\n      mload(0x40)\n      swap1\n      dup2\n      add\n      0x40\n      mstore\n      dup1\n      swap4\n      swap3\n      swap2\n      swap1\n      dup2\n      dup2\n      mstore\n      0x20\n      add\n      dup4\n      dup4\n      0x20\n      mul\n        /* \"--CODEGEN--\":30:33   */\n      dup1\n        /* \"--CODEGEN--\":22:28   */\n      dup3\n        /* \"--CODEGEN--\":14:20   */\n      dup5\n        /* \"--CODEGEN--\":1:34   */\n      calldatacopy\n        /* \"--CODEGEN--\":99:100   */\n      0x00\n        /* \"--CODEGEN--\":81:97   */\n      swap3\n      add\n        /* \"--CODEGEN--\":74:101   */\n      swap2\n      swap1\n      swap2\n      mstore\n      pop\n        /* \"contracts/indrarouter.sol\":32398:32402  this */\n      address\n      swap3\n      pop\n        /* \"contracts/indrarouter.sol\":32349:32383  _swapSupportingFeeOnTransferTokens */\n      tag_286\n      swap2\n      pop\n      pop\n        /* \"contracts/indrarouter.sol\":32349:32404  _swapSupportingFeeOnTransferTokens(path, address(this)) */\n      jump\t// in\n    tag_305:\n        /* \"contracts/indrarouter.sol\":32431:32468  IERC20(WETH).balanceOf(address(this)) */\n      0x40\n      dup1\n      mload\n      shl(0xe0, 0x70a08231)\n      dup2\n      mstore\n        /* \"contracts/indrarouter.sol\":32462:32466  this */\n      address\n        /* \"contracts/indrarouter.sol\":32431:32468  IERC20(WETH).balanceOf(address(this)) */\n      0x04\n      dup3\n      add\n      mstore\n      swap1\n      mload\n        /* \"contracts/indrarouter.sol\":32414:32428  uint amountOut */\n      0x00\n      swap2\n      sub(shl(0xa0, 0x01), 0x01)\n        /* \"contracts/indrarouter.sol\":32438:32442  WETH */\n      immutable(\"0x229aeb8f3af31dca53a287d28e8ba0744a7f60e8208788a28095fa44a959baa9\")\n        /* \"contracts/indrarouter.sol\":32431:32453  IERC20(WETH).balanceOf */\n      and\n      swap2\n      0x70a08231\n      swap2\n        /* \"contracts/indrarouter.sol\":32431:32468  IERC20(WETH).balanceOf(address(this)) */\n      0x24\n      dup1\n      dup3\n      add\n      swap3\n      0x20\n      swap3\n      swap1\n      swap2\n      swap1\n      dup3\n      swap1\n      sub\n      add\n      dup2\n        /* \"contracts/indrarouter.sol\":32431:32453  IERC20(WETH).balanceOf */\n      dup7\n        /* \"contracts/indrarouter.sol\":32431:32468  IERC20(WETH).balanceOf(address(this)) */\n      dup1\n      extcodesize\n      iszero\n        /* \"--CODEGEN--\":2:4   */\n      dup1\n      iszero\n      tag_306\n      jumpi\n        /* \"--CODEGEN--\":27:28   */\n      0x00\n        /* \"--CODEGEN--\":24:25   */\n      dup1\n        /* \"--CODEGEN--\":17:29   */\n      revert\n        /* \"--CODEGEN--\":2:4   */\n    tag_306:\n        /* \"contracts/indrarouter.sol\":32431:32468  IERC20(WETH).balanceOf(address(this)) */\n      pop\n      gas\n      staticcall\n      iszero\n        /* \"--CODEGEN--\":8:17   */\n      dup1\n        /* \"--CODEGEN--\":5:7   */\n      iszero\n      tag_308\n      jumpi\n        /* \"--CODEGEN--\":45:61   */\n      returndatasize\n        /* \"--CODEGEN--\":42:43   */\n      0x00\n        /* \"--CODEGEN--\":39:40   */\n      dup1\n        /* \"--CODEGEN--\":24:62   */\n      returndatacopy\n        /* \"--CODEGEN--\":77:93   */\n      returndatasize\n        /* \"--CODEGEN--\":74:75   */\n      0x00\n        /* \"--CODEGEN--\":67:94   */\n      revert\n        /* \"--CODEGEN--\":5:7   */\n    tag_308:\n        /* \"contracts/indrarouter.sol\":32431:32468  IERC20(WETH).balanceOf(address(this)) */\n      pop\n      pop\n      pop\n      pop\n      mload(0x40)\n      returndatasize\n        /* \"--CODEGEN--\":15:17   */\n      0x20\n        /* \"--CODEGEN--\":10:13   */\n      dup2\n        /* \"--CODEGEN--\":7:18   */\n      lt\n        /* \"--CODEGEN--\":4:6   */\n      iszero\n      tag_309\n      jumpi\n        /* \"--CODEGEN--\":31:32   */\n      0x00\n        /* \"--CODEGEN--\":28:29   */\n      dup1\n        /* \"--CODEGEN--\":21:33   */\n      revert\n        /* \"--CODEGEN--\":4:6   */\n    tag_309:\n      pop\n        /* \"contracts/indrarouter.sol\":32431:32468  IERC20(WETH).balanceOf(address(this)) */\n      mload\n      swap1\n      pop\n        /* \"contracts/indrarouter.sol\":32486:32511  amountOut >= amountOutMin */\n      dup7\n      dup2\n      lt\n      iszero\n        /* \"contracts/indrarouter.sol\":32478:32557  require(amountOut >= amountOutMin, 'PancakeRouter: INSUFFICIENT_OUTPUT_AMOUNT') */\n      tag_310\n      jumpi\n      mload(0x40)\n      shl(0xe5, 0x461bcd)\n      dup2\n      mstore\n      0x04\n      add\n      dup1\n      dup1\n      0x20\n      add\n      dup3\n      dup2\n      sub\n      dup3\n      mstore\n      0x29\n      dup2\n      mstore\n      0x20\n      add\n      dup1\n      data_67a78505585fe709b19736b06d36a1ecdc512f90bed7fd0663a91a07a227deb4\n      0x29\n      swap2\n      codecopy\n      0x40\n      add\n      swap2\n      pop\n      pop\n      mload(0x40)\n      dup1\n      swap2\n      sub\n      swap1\n      revert\n    tag_310:\n        /* \"contracts/indrarouter.sol\":32573:32577  WETH */\n      immutable(\"0x229aeb8f3af31dca53a287d28e8ba0744a7f60e8208788a28095fa44a959baa9\")\n      sub(shl(0xa0, 0x01), 0x01)\n        /* \"contracts/indrarouter.sol\":32567:32587  IWETH(WETH).withdraw */\n      and\n      0x2e1a7d4d\n        /* \"contracts/indrarouter.sol\":32588:32597  amountOut */\n      dup3\n        /* \"contracts/indrarouter.sol\":32567:32598  IWETH(WETH).withdraw(amountOut) */\n      mload(0x40)\n      dup3\n      0xffffffff\n      and\n      0xe0\n      shl\n      dup2\n      mstore\n      0x04\n      add\n      dup1\n      dup3\n      dup2\n      mstore\n      0x20\n      add\n      swap2\n      pop\n      pop\n      0x00\n      mload(0x40)\n      dup1\n      dup4\n      sub\n      dup2\n      0x00\n      dup8\n      dup1\n      extcodesize\n      iszero\n        /* \"--CODEGEN--\":5:14   */\n      dup1\n        /* \"--CODEGEN--\":2:4   */\n      iszero\n      tag_311\n      jumpi\n        /* \"--CODEGEN--\":27:28   */\n      0x00\n        /* \"--CODEGEN--\":24:25   */\n      dup1\n        /* \"--CODEGEN--\":17:29   */\n      revert\n        /* \"--CODEGEN--\":2:4   */\n    tag_311:\n        /* \"contracts/indrarouter.sol\":32567:32598  IWETH(WETH).withdraw(amountOut) */\n      pop\n      gas\n      call\n      iszero\n        /* \"--CODEGEN--\":8:17   */\n      dup1\n        /* \"--CODEGEN--\":5:7   */\n      iszero\n      tag_313\n      jumpi\n        /* \"--CODEGEN--\":45:61   */\n      returndatasize\n        /* \"--CODEGEN--\":42:43   */\n      0x00\n        /* \"--CODEGEN--\":39:40   */\n      dup1\n        /* \"--CODEGEN--\":24:62   */\n      returndatacopy\n        /* \"--CODEGEN--\":77:93   */\n      returndatasize\n        /* \"--CODEGEN--\":74:75   */\n      0x00\n        /* \"--CODEGEN--\":67:94   */\n      revert\n        /* \"--CODEGEN--\":5:7   */\n    tag_313:\n        /* \"contracts/indrarouter.sol\":32567:32598  IWETH(WETH).withdraw(amountOut) */\n      pop\n      pop\n      pop\n      pop\n        /* \"contracts/indrarouter.sol\":32608:32653  TransferHelper.safeTransferETH(to, amountOut) */\n      tag_294\n        /* \"contracts/indrarouter.sol\":32639:32641  to */\n      dup5\n        /* \"contracts/indrarouter.sol\":32643:32652  amountOut */\n      dup3\n        /* \"contracts/indrarouter.sol\":32608:32638  TransferHelper.safeTransferETH */\n      tag_190\n        /* \"contracts/indrarouter.sol\":32608:32653  TransferHelper.safeTransferETH(to, amountOut) */\n      jump\t// in\n        /* \"contracts/indrarouter.sol\":25879:26554  function swapExactETHForTokens(uint amountOutMin, address[] calldata path, address to, uint deadline)... */\n    tag_108:\n        /* \"contracts/indrarouter.sol\":26089:26110  uint[] memory amounts */\n      0x60\n        /* \"contracts/indrarouter.sol\":26062:26070  deadline */\n      dup2\n        /* \"contracts/indrarouter.sol\":16161:16176  block.timestamp */\n      timestamp\n        /* \"contracts/indrarouter.sol\":16149:16157  deadline */\n      dup2\n        /* \"contracts/indrarouter.sol\":16149:16176  deadline >= block.timestamp */\n      lt\n      iszero\n        /* \"contracts/indrarouter.sol\":16141:16203  require(deadline >= block.timestamp, 'PancakeRouter: EXPIRED') */\n      tag_316\n      jumpi\n      0x40\n      dup1\n      mload\n      shl(0xe5, 0x461bcd)\n      dup2\n      mstore\n      0x20\n      0x04\n      dup3\n      add\n      mstore\n      0x16\n      0x24\n      dup3\n      add\n      mstore\n      0x00\n      dup1\n      mload\n      0x20\n      data_48da24abbb1fac1ad424fc0d0ddda728b5e193f1888a852641dc2d17535faffb\n      dup4\n      codecopy\n      dup2\n      mload\n      swap2\n      mstore\n      0x44\n      dup3\n      add\n      mstore\n      swap1\n      mload\n      swap1\n      dup2\n      swap1\n      sub\n      0x64\n      add\n      swap1\n      revert\n    tag_316:\n        /* \"contracts/indrarouter.sol\":26145:26149  WETH */\n      immutable(\"0x229aeb8f3af31dca53a287d28e8ba0744a7f60e8208788a28095fa44a959baa9\")\n      sub(shl(0xa0, 0x01), 0x01)\n        /* \"contracts/indrarouter.sol\":26134:26149  path[0] == WETH */\n      and\n        /* \"contracts/indrarouter.sol\":26134:26138  path */\n      dup7\n      dup7\n        /* \"contracts/indrarouter.sol\":26139:26140  0 */\n      0x00\n        /* \"contracts/indrarouter.sol\":26134:26141  path[0] */\n      dup2\n      dup2\n      lt\n      tag_318\n      jumpi\n      invalid\n    tag_318:\n      swap1\n      pop\n      0x20\n      mul\n      add\n      calldataload\n      sub(shl(0xa0, 0x01), 0x01)\n      and\n      sub(shl(0xa0, 0x01), 0x01)\n        /* \"contracts/indrarouter.sol\":26134:26149  path[0] == WETH */\n      and\n      eq\n        /* \"contracts/indrarouter.sol\":26126:26181  require(path[0] == WETH, 'PancakeRouter: INVALID_PATH') */\n      tag_319\n      jumpi\n      0x40\n      dup1\n      mload\n      shl(0xe5, 0x461bcd)\n      dup2\n      mstore\n      0x20\n      0x04\n      dup3\n      add\n      mstore\n      0x1b\n      0x24\n      dup3\n      add\n      mstore\n      0x00\n      dup1\n      mload\n      0x20\n      data_82928200364a85809bf4a0b91c6d2eba6bdb5bd92df2e22eb8eef03222c3f531\n      dup4\n      codecopy\n      dup2\n      mload\n      swap2\n      mstore\n      0x44\n      dup3\n      add\n      mstore\n      swap1\n      mload\n      swap1\n      dup2\n      swap1\n      sub\n      0x64\n      add\n      swap1\n      revert\n    tag_319:\n        /* \"contracts/indrarouter.sol\":26201:26255  PancakeLibrary.getAmountsOut(factory, msg.value, path) */\n      tag_320\n        /* \"contracts/indrarouter.sol\":26230:26237  factory */\n      immutable(\"0xeba818bcee6eaba9d1a7c8e4d0732334c4e45617c48a8a0861c4ad844e6db671\")\n        /* \"contracts/indrarouter.sol\":26239:26248  msg.value */\n      callvalue\n        /* \"contracts/indrarouter.sol\":26250:26254  path */\n      dup9\n      dup9\n        /* \"contracts/indrarouter.sol\":26201:26255  PancakeLibrary.getAmountsOut(factory, msg.value, path) */\n      dup1\n      dup1\n      0x20\n      mul\n      0x20\n      add\n      mload(0x40)\n      swap1\n      dup2\n      add\n      0x40\n      mstore\n      dup1\n      swap4\n      swap3\n      swap2\n      swap1\n      dup2\n      dup2\n      mstore\n      0x20\n      add\n      dup4\n      dup4\n      0x20\n      mul\n        /* \"--CODEGEN--\":30:33   */\n      dup1\n        /* \"--CODEGEN--\":22:28   */\n      dup3\n        /* \"--CODEGEN--\":14:20   */\n      dup5\n        /* \"--CODEGEN--\":1:34   */\n      calldatacopy\n        /* \"--CODEGEN--\":99:100   */\n      0x00\n        /* \"--CODEGEN--\":81:97   */\n      swap3\n      add\n        /* \"--CODEGEN--\":74:101   */\n      swap2\n      swap1\n      swap2\n      mstore\n      pop\n        /* \"contracts/indrarouter.sol\":26201:26229  PancakeLibrary.getAmountsOut */\n      tag_200\n      swap3\n      pop\n      pop\n      pop\n        /* \"contracts/indrarouter.sol\":26201:26255  PancakeLibrary.getAmountsOut(factory, msg.value, path) */\n      jump\t// in\n    tag_320:\n        /* \"contracts/indrarouter.sol\":26191:26255  amounts = PancakeLibrary.getAmountsOut(factory, msg.value, path) */\n      swap2\n      pop\n        /* \"contracts/indrarouter.sol\":26304:26316  amountOutMin */\n      dup7\n        /* \"contracts/indrarouter.sol\":26273:26280  amounts */\n      dup3\n        /* \"contracts/indrarouter.sol\":26298:26299  1 */\n      0x01\n        /* \"contracts/indrarouter.sol\":26281:26288  amounts */\n      dup5\n        /* \"contracts/indrarouter.sol\":26281:26295  amounts.length */\n      mload\n        /* \"contracts/indrarouter.sol\":26281:26299  amounts.length - 1 */\n      sub\n        /* \"contracts/indrarouter.sol\":26273:26300  amounts[amounts.length - 1] */\n      dup2\n      mload\n      dup2\n      lt\n      tag_321\n      jumpi\n      invalid\n    tag_321:\n      0x20\n      mul\n      0x20\n      add\n      add\n      mload\n        /* \"contracts/indrarouter.sol\":26273:26316  amounts[amounts.length - 1] >= amountOutMin */\n      lt\n      iszero\n        /* \"contracts/indrarouter.sol\":26265:26362  require(amounts[amounts.length - 1] >= amountOutMin, 'PancakeRouter: INSUFFICIENT_OUTPUT_AMOUNT') */\n      tag_322\n      jumpi\n      mload(0x40)\n      shl(0xe5, 0x461bcd)\n      dup2\n      mstore\n      0x04\n      add\n      dup1\n      dup1\n      0x20\n      add\n      dup3\n      dup2\n      sub\n      dup3\n      mstore\n      0x29\n      dup2\n      mstore\n      0x20\n      add\n      dup1\n      data_67a78505585fe709b19736b06d36a1ecdc512f90bed7fd0663a91a07a227deb4\n      0x29\n      swap2\n      codecopy\n      0x40\n      add\n      swap2\n      pop\n      pop\n      mload(0x40)\n      dup1\n      swap2\n      sub\n      swap1\n      revert\n    tag_322:\n        /* \"contracts/indrarouter.sol\":26378:26382  WETH */\n      immutable(\"0x229aeb8f3af31dca53a287d28e8ba0744a7f60e8208788a28095fa44a959baa9\")\n      sub(shl(0xa0, 0x01), 0x01)\n        /* \"contracts/indrarouter.sol\":26372:26391  IWETH(WETH).deposit */\n      and\n      0xd0e30db0\n        /* \"contracts/indrarouter.sol\":26399:26406  amounts */\n      dup4\n        /* \"contracts/indrarouter.sol\":26407:26408  0 */\n      0x00\n        /* \"contracts/indrarouter.sol\":26399:26409  amounts[0] */\n      dup2\n      mload\n      dup2\n      lt\n      tag_323\n      jumpi\n      invalid\n    tag_323:\n      0x20\n      mul\n      0x20\n      add\n      add\n      mload\n        /* \"contracts/indrarouter.sol\":26372:26412  IWETH(WETH).deposit{value: amounts[0]}() */\n      mload(0x40)\n      dup3\n      0xffffffff\n      and\n      0xe0\n      shl\n      dup2\n      mstore\n      0x04\n      add\n      0x00\n      mload(0x40)\n      dup1\n      dup4\n      sub\n      dup2\n      dup6\n      dup9\n      dup1\n      extcodesize\n      iszero\n        /* \"--CODEGEN--\":5:14   */\n      dup1\n        /* \"--CODEGEN--\":2:4   */\n      iszero\n      tag_324\n      jumpi\n        /* \"--CODEGEN--\":27:28   */\n      0x00\n        /* \"--CODEGEN--\":24:25   */\n      dup1\n        /* \"--CODEGEN--\":17:29   */\n      revert\n        /* \"--CODEGEN--\":2:4   */\n    tag_324:\n        /* \"contracts/indrarouter.sol\":26372:26412  IWETH(WETH).deposit{value: amounts[0]}() */\n      pop\n      gas\n      call\n      iszero\n        /* \"--CODEGEN--\":8:17   */\n      dup1\n        /* \"--CODEGEN--\":5:7   */\n      iszero\n      tag_326\n      jumpi\n        /* \"--CODEGEN--\":45:61   */\n      returndatasize\n        /* \"--CODEGEN--\":42:43   */\n      0x00\n        /* \"--CODEGEN--\":39:40   */\n      dup1\n        /* \"--CODEGEN--\":24:62   */\n      returndatacopy\n        /* \"--CODEGEN--\":77:93   */\n      returndatasize\n        /* \"--CODEGEN--\":74:75   */\n      0x00\n        /* \"--CODEGEN--\":67:94   */\n      revert\n        /* \"--CODEGEN--\":5:7   */\n    tag_326:\n        /* \"contracts/indrarouter.sol\":26372:26412  IWETH(WETH).deposit{value: amounts[0]}() */\n      pop\n      pop\n      pop\n      pop\n      pop\n        /* \"contracts/indrarouter.sol\":26435:26439  WETH */\n      immutable(\"0x229aeb8f3af31dca53a287d28e8ba0744a7f60e8208788a28095fa44a959baa9\")\n      sub(shl(0xa0, 0x01), 0x01)\n        /* \"contracts/indrarouter.sol\":26429:26449  IWETH(WETH).transfer */\n      and\n      0xa9059cbb\n        /* \"contracts/indrarouter.sol\":26450:26499  PancakeLibrary.pairFor(factory, path[0], path[1]) */\n      tag_327\n        /* \"contracts/indrarouter.sol\":26473:26480  factory */\n      immutable(\"0xeba818bcee6eaba9d1a7c8e4d0732334c4e45617c48a8a0861c4ad844e6db671\")\n        /* \"contracts/indrarouter.sol\":26482:26486  path */\n      dup10\n      dup10\n        /* \"contracts/indrarouter.sol\":26487:26488  0 */\n      0x00\n        /* \"contracts/indrarouter.sol\":26482:26489  path[0] */\n      dup2\n      dup2\n      lt\n      tag_278\n      jumpi\n      invalid\n        /* \"contracts/indrarouter.sol\":26450:26499  PancakeLibrary.pairFor(factory, path[0], path[1]) */\n    tag_327:\n        /* \"contracts/indrarouter.sol\":26501:26508  amounts */\n      dup5\n        /* \"contracts/indrarouter.sol\":26509:26510  0 */\n      0x00\n        /* \"contracts/indrarouter.sol\":26501:26511  amounts[0] */\n      dup2\n      mload\n      dup2\n      lt\n      tag_330\n      jumpi\n      invalid\n    tag_330:\n      0x20\n      mul\n      0x20\n      add\n      add\n      mload\n        /* \"contracts/indrarouter.sol\":26429:26512  IWETH(WETH).transfer(PancakeLibrary.pairFor(factory, path[0], path[1]), amounts[0]) */\n      mload(0x40)\n      dup4\n      0xffffffff\n      and\n      0xe0\n      shl\n      dup2\n      mstore\n      0x04\n      add\n      dup1\n      dup4\n      sub(shl(0xa0, 0x01), 0x01)\n      and\n      sub(shl(0xa0, 0x01), 0x01)\n      and\n      dup2\n      mstore\n      0x20\n      add\n      dup3\n      dup2\n      mstore\n      0x20\n      add\n      swap3\n      pop\n      pop\n      pop\n      0x20\n      mload(0x40)\n      dup1\n      dup4\n      sub\n      dup2\n      0x00\n      dup8\n      dup1\n      extcodesize\n      iszero\n        /* \"--CODEGEN--\":5:14   */\n      dup1\n        /* \"--CODEGEN--\":2:4   */\n      iszero\n      tag_331\n      jumpi\n        /* \"--CODEGEN--\":27:28   */\n      0x00\n        /* \"--CODEGEN--\":24:25   */\n      dup1\n        /* \"--CODEGEN--\":17:29   */\n      revert\n        /* \"--CODEGEN--\":2:4   */\n    tag_331:\n        /* \"contracts/indrarouter.sol\":26429:26512  IWETH(WETH).transfer(PancakeLibrary.pairFor(factory, path[0], path[1]), amounts[0]) */\n      pop\n      gas\n      call\n      iszero\n        /* \"--CODEGEN--\":8:17   */\n      dup1\n        /* \"--CODEGEN--\":5:7   */\n      iszero\n      tag_333\n      jumpi\n        /* \"--CODEGEN--\":45:61   */\n      returndatasize\n        /* \"--CODEGEN--\":42:43   */\n      0x00\n        /* \"--CODEGEN--\":39:40   */\n      dup1\n        /* \"--CODEGEN--\":24:62   */\n      returndatacopy\n        /* \"--CODEGEN--\":77:93   */\n      returndatasize\n        /* \"--CODEGEN--\":74:75   */\n      0x00\n        /* \"--CODEGEN--\":67:94   */\n      revert\n        /* \"--CODEGEN--\":5:7   */\n    tag_333:\n        /* \"contracts/indrarouter.sol\":26429:26512  IWETH(WETH).transfer(PancakeLibrary.pairFor(factory, path[0], path[1]), amounts[0]) */\n      pop\n      pop\n      pop\n      pop\n      mload(0x40)\n      returndatasize\n        /* \"--CODEGEN--\":15:17   */\n      0x20\n        /* \"--CODEGEN--\":10:13   */\n      dup2\n        /* \"--CODEGEN--\":7:18   */\n      lt\n        /* \"--CODEGEN--\":4:6   */\n      iszero\n      tag_334\n      jumpi\n        /* \"--CODEGEN--\":31:32   */\n      0x00\n        /* \"--CODEGEN--\":28:29   */\n      dup1\n        /* \"--CODEGEN--\":21:33   */\n      revert\n        /* \"--CODEGEN--\":4:6   */\n    tag_334:\n      pop\n        /* \"contracts/indrarouter.sol\":26429:26512  IWETH(WETH).transfer(PancakeLibrary.pairFor(factory, path[0], path[1]), amounts[0]) */\n      mload\n        /* \"contracts/indrarouter.sol\":26422:26513  assert(IWETH(WETH).transfer(PancakeLibrary.pairFor(factory, path[0], path[1]), amounts[0])) */\n      tag_335\n      jumpi\n      invalid\n    tag_335:\n        /* \"contracts/indrarouter.sol\":26523:26547  _swap(amounts, path, to) */\n      tag_336\n        /* \"contracts/indrarouter.sol\":26529:26536  amounts */\n      dup3\n        /* \"contracts/indrarouter.sol\":26538:26542  path */\n      dup8\n      dup8\n        /* \"contracts/indrarouter.sol\":26523:26547  _swap(amounts, path, to) */\n      dup1\n      dup1\n      0x20\n      mul\n      0x20\n      add\n      mload(0x40)\n      swap1\n      dup2\n      add\n      0x40\n      mstore\n      dup1\n      swap4\n      swap3\n      swap2\n      swap1\n      dup2\n      dup2\n      mstore\n      0x20\n      add\n      dup4\n      dup4\n      0x20\n      mul\n        /* \"--CODEGEN--\":30:33   */\n      dup1\n        /* \"--CODEGEN--\":22:28   */\n      dup3\n        /* \"--CODEGEN--\":14:20   */\n      dup5\n        /* \"--CODEGEN--\":1:34   */\n      calldatacopy\n        /* \"--CODEGEN--\":99:100   */\n      0x00\n        /* \"--CODEGEN--\":81:97   */\n      swap3\n      add\n        /* \"--CODEGEN--\":74:101   */\n      swap2\n      swap1\n      swap2\n      mstore\n      pop\n        /* \"contracts/indrarouter.sol\":26544:26546  to */\n      dup10\n      swap3\n      pop\n        /* \"contracts/indrarouter.sol\":26523:26528  _swap */\n      tag_212\n      swap2\n      pop\n      pop\n        /* \"contracts/indrarouter.sol\":26523:26547  _swap(amounts, path, to) */\n      jump\t// in\n    tag_336:\n        /* \"contracts/indrarouter.sol\":25879:26554  function swapExactETHForTokens(uint amountOutMin, address[] calldata path, address to, uint deadline)... */\n      pop\n      swap6\n      swap5\n      pop\n      pop\n      pop\n      pop\n      pop\n      jump\t// out\n        /* \"contracts/indrarouter.sol\":33149:33400  function getAmountIn(uint amountOut, uint reserveIn, uint reserveOut)... */\n    tag_115:\n        /* \"contracts/indrarouter.sol\":33297:33310  uint amountIn */\n      0x00\n        /* \"contracts/indrarouter.sol\":33333:33393  PancakeLibrary.getAmountIn(amountOut, reserveIn, reserveOut) */\n      tag_192\n        /* \"contracts/indrarouter.sol\":33360:33369  amountOut */\n      dup5\n        /* \"contracts/indrarouter.sol\":33371:33380  reserveIn */\n      dup5\n        /* \"contracts/indrarouter.sol\":33382:33392  reserveOut */\n      dup5\n        /* \"contracts/indrarouter.sol\":33333:33359  PancakeLibrary.getAmountIn */\n      tag_339\n        /* \"contracts/indrarouter.sol\":33333:33393  PancakeLibrary.getAmountIn(amountOut, reserveIn, reserveOut) */\n      jump\t// in\n        /* \"contracts/indrarouter.sol\":25287:25874  function swapTokensForExactTokens(... */\n    tag_122:\n        /* \"contracts/indrarouter.sol\":25505:25526  uint[] memory amounts */\n      0x60\n        /* \"contracts/indrarouter.sol\":25486:25494  deadline */\n      dup2\n        /* \"contracts/indrarouter.sol\":16161:16176  block.timestamp */\n      timestamp\n        /* \"contracts/indrarouter.sol\":16149:16157  deadline */\n      dup2\n        /* \"contracts/indrarouter.sol\":16149:16176  deadline >= block.timestamp */\n      lt\n      iszero\n        /* \"contracts/indrarouter.sol\":16141:16203  require(deadline >= block.timestamp, 'PancakeRouter: EXPIRED') */\n      tag_341\n      jumpi\n      0x40\n      dup1\n      mload\n      shl(0xe5, 0x461bcd)\n      dup2\n      mstore\n      0x20\n      0x04\n      dup3\n      add\n      mstore\n      0x16\n      0x24\n      dup3\n      add\n      mstore\n      0x00\n      dup1\n      mload\n      0x20\n      data_48da24abbb1fac1ad424fc0d0ddda728b5e193f1888a852641dc2d17535faffb\n      dup4\n      codecopy\n      dup2\n      mload\n      swap2\n      mstore\n      0x44\n      dup3\n      add\n      mstore\n      swap1\n      mload\n      swap1\n      dup2\n      swap1\n      sub\n      0x64\n      add\n      swap1\n      revert\n    tag_341:\n        /* \"contracts/indrarouter.sol\":25548:25601  PancakeLibrary.getAmountsIn(factory, amountOut, path) */\n      tag_343\n        /* \"contracts/indrarouter.sol\":25576:25583  factory */\n      immutable(\"0xeba818bcee6eaba9d1a7c8e4d0732334c4e45617c48a8a0861c4ad844e6db671\")\n        /* \"contracts/indrarouter.sol\":25585:25594  amountOut */\n      dup10\n        /* \"contracts/indrarouter.sol\":25596:25600  path */\n      dup9\n      dup9\n        /* \"contracts/indrarouter.sol\":25548:25601  PancakeLibrary.getAmountsIn(factory, amountOut, path) */\n      dup1\n      dup1\n      0x20\n      mul\n      0x20\n      add\n      mload(0x40)\n      swap1\n      dup2\n      add\n      0x40\n      mstore\n      dup1\n      swap4\n      swap3\n      swap2\n      swap1\n      dup2\n      dup2\n      mstore\n      0x20\n      add\n      dup4\n      dup4\n      0x20\n      mul\n        /* \"--CODEGEN--\":30:33   */\n      dup1\n        /* \"--CODEGEN--\":22:28   */\n      dup3\n        /* \"--CODEGEN--\":14:20   */\n      dup5\n        /* \"--CODEGEN--\":1:34   */\n      calldatacopy\n        /* \"--CODEGEN--\":99:100   */\n      0x00\n        /* \"--CODEGEN--\":81:97   */\n      swap3\n      add\n        /* \"--CODEGEN--\":74:101   */\n      swap2\n      swap1\n      swap2\n      mstore\n      pop\n        /* \"contracts/indrarouter.sol\":25548:25575  PancakeLibrary.getAmountsIn */\n      tag_221\n      swap3\n      pop\n      pop\n      pop\n        /* \"contracts/indrarouter.sol\":25548:25601  PancakeLibrary.getAmountsIn(factory, amountOut, path) */\n      jump\t// in\n    tag_343:\n        /* \"contracts/indrarouter.sol\":25538:25601  amounts = PancakeLibrary.getAmountsIn(factory, amountOut, path) */\n      swap2\n      pop\n        /* \"contracts/indrarouter.sol\":25633:25644  amountInMax */\n      dup7\n        /* \"contracts/indrarouter.sol\":25619:25626  amounts */\n      dup3\n        /* \"contracts/indrarouter.sol\":25627:25628  0 */\n      0x00\n        /* \"contracts/indrarouter.sol\":25619:25629  amounts[0] */\n      dup2\n      mload\n      dup2\n      lt\n      tag_344\n      jumpi\n      invalid\n    tag_344:\n      0x20\n      mul\n      0x20\n      add\n      add\n      mload\n        /* \"contracts/indrarouter.sol\":25619:25644  amounts[0] <= amountInMax */\n      gt\n      iszero\n        /* \"contracts/indrarouter.sol\":25611:25686  require(amounts[0] <= amountInMax, 'PancakeRouter: EXCESSIVE_INPUT_AMOUNT') */\n      tag_235\n      jumpi\n      mload(0x40)\n      shl(0xe5, 0x461bcd)\n      dup2\n      mstore\n      0x04\n      add\n      dup1\n      dup1\n      0x20\n      add\n      dup3\n      dup2\n      sub\n      dup3\n      mstore\n      0x25\n      dup2\n      mstore\n      0x20\n      add\n      dup1\n      data_e6ebac85a9dcf9d43d23a00e3f0314a74ac256fe09f8252fc03ff2284a4761ee\n      0x25\n      swap2\n      codecopy\n      0x40\n      add\n      swap2\n      pop\n      pop\n      mload(0x40)\n      dup1\n      swap2\n      sub\n      swap1\n      revert\n        /* \"contracts/indrarouter.sol\":16055:16093  address public immutable override WETH */\n    tag_128:\n      immutable(\"0x229aeb8f3af31dca53a287d28e8ba0744a7f60e8208788a28095fa44a959baa9\")\n      dup2\n      jump\t// out\n        /* \"contracts/indrarouter.sol\":32701:32885  function quote(uint amountA, uint reserveA, uint reserveB) public pure virtual override returns (uint amountB) {... */\n    tag_132:\n        /* \"contracts/indrarouter.sol\":32798:32810  uint amountB */\n      0x00\n        /* \"contracts/indrarouter.sol\":32829:32878  PancakeLibrary.quote(amountA, reserveA, reserveB) */\n      tag_192\n        /* \"contracts/indrarouter.sol\":32850:32857  amountA */\n      dup5\n        /* \"contracts/indrarouter.sol\":32859:32867  reserveA */\n      dup5\n        /* \"contracts/indrarouter.sol\":32869:32877  reserveB */\n      dup5\n        /* \"contracts/indrarouter.sol\":32829:32849  PancakeLibrary.quote */\n      tag_355\n        /* \"contracts/indrarouter.sol\":32829:32878  PancakeLibrary.quote(amountA, reserveA, reserveB) */\n      jump\t// in\n        /* \"contracts/indrarouter.sol\":22461:23141  function removeLiquidityETHSupportingFeeOnTransferTokens(... */\n    tag_136:\n        /* \"contracts/indrarouter.sol\":22720:22734  uint amountETH */\n      0x00\n        /* \"contracts/indrarouter.sol\":22701:22709  deadline */\n      dup2\n        /* \"contracts/indrarouter.sol\":16161:16176  block.timestamp */\n      timestamp\n        /* \"contracts/indrarouter.sol\":16149:16157  deadline */\n      dup2\n        /* \"contracts/indrarouter.sol\":16149:16176  deadline >= block.timestamp */\n      lt\n      iszero\n        /* \"contracts/indrarouter.sol\":16141:16203  require(deadline >= block.timestamp, 'PancakeRouter: EXPIRED') */\n      tag_357\n      jumpi\n      0x40\n      dup1\n      mload\n      shl(0xe5, 0x461bcd)\n      dup2\n      mstore\n      0x20\n      0x04\n      dup3\n      add\n      mstore\n      0x16\n      0x24\n      dup3\n      add\n      mstore\n      0x00\n      dup1\n      mload\n      0x20\n      data_48da24abbb1fac1ad424fc0d0ddda728b5e193f1888a852641dc2d17535faffb\n      dup4\n      codecopy\n      dup2\n      mload\n      swap2\n      mstore\n      0x44\n      dup3\n      add\n      mstore\n      swap1\n      mload\n      swap1\n      dup2\n      swap1\n      sub\n      0x64\n      add\n      swap1\n      revert\n    tag_357:\n        /* \"contracts/indrarouter.sol\":22762:22950  removeLiquidity(... */\n      tag_359\n        /* \"contracts/indrarouter.sol\":22791:22796  token */\n      dup9\n        /* \"contracts/indrarouter.sol\":22810:22814  WETH */\n      immutable(\"0x229aeb8f3af31dca53a287d28e8ba0744a7f60e8208788a28095fa44a959baa9\")\n        /* \"contracts/indrarouter.sol\":22828:22837  liquidity */\n      dup10\n        /* \"contracts/indrarouter.sol\":22851:22865  amountTokenMin */\n      dup10\n        /* \"contracts/indrarouter.sol\":22879:22891  amountETHMin */\n      dup10\n        /* \"contracts/indrarouter.sol\":22913:22917  this */\n      address\n        /* \"contracts/indrarouter.sol\":22932:22940  deadline */\n      dup10\n        /* \"contracts/indrarouter.sol\":22762:22777  removeLiquidity */\n      tag_146\n        /* \"contracts/indrarouter.sol\":22762:22950  removeLiquidity(... */\n      jump\t// in\n    tag_359:\n        /* \"contracts/indrarouter.sol\":22999:23037  IERC20(token).balanceOf(address(this)) */\n      0x40\n      dup1\n      mload\n      shl(0xe0, 0x70a08231)\n      dup2\n      mstore\n        /* \"contracts/indrarouter.sol\":23031:23035  this */\n      address\n        /* \"contracts/indrarouter.sol\":22999:23037  IERC20(token).balanceOf(address(this)) */\n      0x04\n      dup3\n      add\n      mstore\n      swap1\n      mload\n        /* \"contracts/indrarouter.sol\":22746:22950  (, amountETH) = removeLiquidity(... */\n      swap2\n      swap5\n      pop\n        /* \"contracts/indrarouter.sol\":22960:23038  TransferHelper.safeTransfer(token, to, IERC20(token).balanceOf(address(this))) */\n      tag_360\n      swap3\n      pop\n        /* \"contracts/indrarouter.sol\":22988:22993  token */\n      dup11\n      swap2\n        /* \"contracts/indrarouter.sol\":22995:22997  to */\n      dup8\n      swap2\n      sub(shl(0xa0, 0x01), 0x01)\n        /* \"contracts/indrarouter.sol\":22999:23022  IERC20(token).balanceOf */\n      dup5\n      and\n      swap2\n      0x70a08231\n      swap2\n        /* \"contracts/indrarouter.sol\":22999:23037  IERC20(token).balanceOf(address(this)) */\n      0x24\n      dup1\n      dup3\n      add\n      swap3\n      0x20\n      swap3\n      swap1\n      swap2\n      swap1\n      dup3\n      swap1\n      sub\n      add\n      dup2\n        /* \"contracts/indrarouter.sol\":22999:23022  IERC20(token).balanceOf */\n      dup7\n        /* \"contracts/indrarouter.sol\":22999:23037  IERC20(token).balanceOf(address(this)) */\n      dup1\n      extcodesize\n      iszero\n        /* \"--CODEGEN--\":2:4   */\n      dup1\n      iszero\n      tag_361\n      jumpi\n        /* \"--CODEGEN--\":27:28   */\n      0x00\n        /* \"--CODEGEN--\":24:25   */\n      dup1\n        /* \"--CODEGEN--\":17:29   */\n      revert\n        /* \"--CODEGEN--\":2:4   */\n    tag_361:\n        /* \"contracts/indrarouter.sol\":22999:23037  IERC20(token).balanceOf(address(this)) */\n      pop\n      gas\n      staticcall\n      iszero\n        /* \"--CODEGEN--\":8:17   */\n      dup1\n        /* \"--CODEGEN--\":5:7   */\n      iszero\n      tag_363\n      jumpi\n        /* \"--CODEGEN--\":45:61   */\n      returndatasize\n        /* \"--CODEGEN--\":42:43   */\n      0x00\n        /* \"--CODEGEN--\":39:40   */\n      dup1\n        /* \"--CODEGEN--\":24:62   */\n      returndatacopy\n        /* \"--CODEGEN--\":77:93   */\n      returndatasize\n        /* \"--CODEGEN--\":74:75   */\n      0x00\n        /* \"--CODEGEN--\":67:94   */\n      revert\n        /* \"--CODEGEN--\":5:7   */\n    tag_363:\n        /* \"contracts/indrarouter.sol\":22999:23037  IERC20(token).balanceOf(address(this)) */\n      pop\n      pop\n      pop\n      pop\n      mload(0x40)\n      returndatasize\n        /* \"--CODEGEN--\":15:17   */\n      0x20\n        /* \"--CODEGEN--\":10:13   */\n      dup2\n        /* \"--CODEGEN--\":7:18   */\n      lt\n        /* \"--CODEGEN--\":4:6   */\n      iszero\n      tag_364\n      jumpi\n        /* \"--CODEGEN--\":31:32   */\n      0x00\n        /* \"--CODEGEN--\":28:29   */\n      dup1\n        /* \"--CODEGEN--\":21:33   */\n      revert\n        /* \"--CODEGEN--\":4:6   */\n    tag_364:\n      pop\n        /* \"contracts/indrarouter.sol\":22999:23037  IERC20(token).balanceOf(address(this)) */\n      mload\n        /* \"contracts/indrarouter.sol\":22960:22987  TransferHelper.safeTransfer */\n      tag_185\n        /* \"contracts/indrarouter.sol\":22960:23038  TransferHelper.safeTransfer(token, to, IERC20(token).balanceOf(address(this))) */\n      jump\t// in\n    tag_360:\n        /* \"contracts/indrarouter.sol\":23054:23058  WETH */\n      immutable(\"0x229aeb8f3af31dca53a287d28e8ba0744a7f60e8208788a28095fa44a959baa9\")\n      sub(shl(0xa0, 0x01), 0x01)\n        /* \"contracts/indrarouter.sol\":23048:23068  IWETH(WETH).withdraw */\n      and\n      0x2e1a7d4d\n        /* \"contracts/indrarouter.sol\":23069:23078  amountETH */\n      dup4\n        /* \"contracts/indrarouter.sol\":23048:23079  IWETH(WETH).withdraw(amountETH) */\n      mload(0x40)\n      dup3\n      0xffffffff\n      and\n      0xe0\n      shl\n      dup2\n      mstore\n      0x04\n      add\n      dup1\n      dup3\n      dup2\n      mstore\n      0x20\n      add\n      swap2\n      pop\n      pop\n      0x00\n      mload(0x40)\n      dup1\n      dup4\n      sub\n      dup2\n      0x00\n      dup8\n      dup1\n      extcodesize\n      iszero\n        /* \"--CODEGEN--\":5:14   */\n      dup1\n        /* \"--CODEGEN--\":2:4   */\n      iszero\n      tag_365\n      jumpi\n        /* \"--CODEGEN--\":27:28   */\n      0x00\n        /* \"--CODEGEN--\":24:25   */\n      dup1\n        /* \"--CODEGEN--\":17:29   */\n      revert\n        /* \"--CODEGEN--\":2:4   */\n    tag_365:\n        /* \"contracts/indrarouter.sol\":23048:23079  IWETH(WETH).withdraw(amountETH) */\n      pop\n      gas\n      call\n      iszero\n        /* \"--CODEGEN--\":8:17   */\n      dup1\n        /* \"--CODEGEN--\":5:7   */\n      iszero\n      tag_367\n      jumpi\n        /* \"--CODEGEN--\":45:61   */\n      returndatasize\n        /* \"--CODEGEN--\":42:43   */\n      0x00\n        /* \"--CODEGEN--\":39:40   */\n      dup1\n        /* \"--CODEGEN--\":24:62   */\n      returndatacopy\n        /* \"--CODEGEN--\":77:93   */\n      returndatasize\n        /* \"--CODEGEN--\":74:75   */\n      0x00\n        /* \"--CODEGEN--\":67:94   */\n      revert\n        /* \"--CODEGEN--\":5:7   */\n    tag_367:\n        /* \"contracts/indrarouter.sol\":23048:23079  IWETH(WETH).withdraw(amountETH) */\n      pop\n      pop\n      pop\n      pop\n        /* \"contracts/indrarouter.sol\":23089:23134  TransferHelper.safeTransferETH(to, amountETH) */\n      tag_217\n        /* \"contracts/indrarouter.sol\":23120:23122  to */\n      dup5\n        /* \"contracts/indrarouter.sol\":23124:23133  amountETH */\n      dup4\n        /* \"contracts/indrarouter.sol\":23089:23119  TransferHelper.safeTransferETH */\n      tag_190\n        /* \"contracts/indrarouter.sol\":23089:23134  TransferHelper.safeTransferETH(to, amountETH) */\n      jump\t// in\n        /* \"contracts/indrarouter.sol\":31017:31839  function swapExactETHForTokensSupportingFeeOnTransferTokens(... */\n    tag_142:\n        /* \"contracts/indrarouter.sol\":31267:31275  deadline */\n      dup1\n        /* \"contracts/indrarouter.sol\":16161:16176  block.timestamp */\n      timestamp\n        /* \"contracts/indrarouter.sol\":16149:16157  deadline */\n      dup2\n        /* \"contracts/indrarouter.sol\":16149:16176  deadline >= block.timestamp */\n      lt\n      iszero\n        /* \"contracts/indrarouter.sol\":16141:16203  require(deadline >= block.timestamp, 'PancakeRouter: EXPIRED') */\n      tag_370\n      jumpi\n      0x40\n      dup1\n      mload\n      shl(0xe5, 0x461bcd)\n      dup2\n      mstore\n      0x20\n      0x04\n      dup3\n      add\n      mstore\n      0x16\n      0x24\n      dup3\n      add\n      mstore\n      0x00\n      dup1\n      mload\n      0x20\n      data_48da24abbb1fac1ad424fc0d0ddda728b5e193f1888a852641dc2d17535faffb\n      dup4\n      codecopy\n      dup2\n      mload\n      swap2\n      mstore\n      0x44\n      dup3\n      add\n      mstore\n      swap1\n      mload\n      swap1\n      dup2\n      swap1\n      sub\n      0x64\n      add\n      swap1\n      revert\n    tag_370:\n        /* \"contracts/indrarouter.sol\":31310:31314  WETH */\n      immutable(\"0x229aeb8f3af31dca53a287d28e8ba0744a7f60e8208788a28095fa44a959baa9\")\n      sub(shl(0xa0, 0x01), 0x01)\n        /* \"contracts/indrarouter.sol\":31299:31314  path[0] == WETH */\n      and\n        /* \"contracts/indrarouter.sol\":31299:31303  path */\n      dup6\n      dup6\n        /* \"contracts/indrarouter.sol\":31304:31305  0 */\n      0x00\n        /* \"contracts/indrarouter.sol\":31299:31306  path[0] */\n      dup2\n      dup2\n      lt\n      tag_372\n      jumpi\n      invalid\n    tag_372:\n      swap1\n      pop\n      0x20\n      mul\n      add\n      calldataload\n      sub(shl(0xa0, 0x01), 0x01)\n      and\n      sub(shl(0xa0, 0x01), 0x01)\n        /* \"contracts/indrarouter.sol\":31299:31314  path[0] == WETH */\n      and\n      eq\n        /* \"contracts/indrarouter.sol\":31291:31346  require(path[0] == WETH, 'PancakeRouter: INVALID_PATH') */\n      tag_373\n      jumpi\n      0x40\n      dup1\n      mload\n      shl(0xe5, 0x461bcd)\n      dup2\n      mstore\n      0x20\n      0x04\n      dup3\n      add\n      mstore\n      0x1b\n      0x24\n      dup3\n      add\n      mstore\n      0x00\n      dup1\n      mload\n      0x20\n      data_82928200364a85809bf4a0b91c6d2eba6bdb5bd92df2e22eb8eef03222c3f531\n      dup4\n      codecopy\n      dup2\n      mload\n      swap2\n      mstore\n      0x44\n      dup3\n      add\n      mstore\n      swap1\n      mload\n      swap1\n      dup2\n      swap1\n      sub\n      0x64\n      add\n      swap1\n      revert\n    tag_373:\n        /* \"contracts/indrarouter.sol\":31356:31369  uint amountIn */\n      0x00\n        /* \"contracts/indrarouter.sol\":31372:31381  msg.value */\n      callvalue\n        /* \"contracts/indrarouter.sol\":31356:31381  uint amountIn = msg.value */\n      swap1\n      pop\n        /* \"contracts/indrarouter.sol\":31397:31401  WETH */\n      immutable(\"0x229aeb8f3af31dca53a287d28e8ba0744a7f60e8208788a28095fa44a959baa9\")\n      sub(shl(0xa0, 0x01), 0x01)\n        /* \"contracts/indrarouter.sol\":31391:31410  IWETH(WETH).deposit */\n      and\n      0xd0e30db0\n        /* \"contracts/indrarouter.sol\":31418:31426  amountIn */\n      dup3\n        /* \"contracts/indrarouter.sol\":31391:31429  IWETH(WETH).deposit{value: amountIn}() */\n      mload(0x40)\n      dup3\n      0xffffffff\n      and\n      0xe0\n      shl\n      dup2\n      mstore\n      0x04\n      add\n      0x00\n      mload(0x40)\n      dup1\n      dup4\n      sub\n      dup2\n      dup6\n      dup9\n      dup1\n      extcodesize\n      iszero\n        /* \"--CODEGEN--\":5:14   */\n      dup1\n        /* \"--CODEGEN--\":2:4   */\n      iszero\n      tag_374\n      jumpi\n        /* \"--CODEGEN--\":27:28   */\n      0x00\n        /* \"--CODEGEN--\":24:25   */\n      dup1\n        /* \"--CODEGEN--\":17:29   */\n      revert\n        /* \"--CODEGEN--\":2:4   */\n    tag_374:\n        /* \"contracts/indrarouter.sol\":31391:31429  IWETH(WETH).deposit{value: amountIn}() */\n      pop\n      gas\n      call\n      iszero\n        /* \"--CODEGEN--\":8:17   */\n      dup1\n        /* \"--CODEGEN--\":5:7   */\n      iszero\n      tag_376\n      jumpi\n        /* \"--CODEGEN--\":45:61   */\n      returndatasize\n        /* \"--CODEGEN--\":42:43   */\n      0x00\n        /* \"--CODEGEN--\":39:40   */\n      dup1\n        /* \"--CODEGEN--\":24:62   */\n      returndatacopy\n        /* \"--CODEGEN--\":77:93   */\n      returndatasize\n        /* \"--CODEGEN--\":74:75   */\n      0x00\n        /* \"--CODEGEN--\":67:94   */\n      revert\n        /* \"--CODEGEN--\":5:7   */\n    tag_376:\n        /* \"contracts/indrarouter.sol\":31391:31429  IWETH(WETH).deposit{value: amountIn}() */\n      pop\n      pop\n      pop\n      pop\n      pop\n        /* \"contracts/indrarouter.sol\":31452:31456  WETH */\n      immutable(\"0x229aeb8f3af31dca53a287d28e8ba0744a7f60e8208788a28095fa44a959baa9\")\n      sub(shl(0xa0, 0x01), 0x01)\n        /* \"contracts/indrarouter.sol\":31446:31466  IWETH(WETH).transfer */\n      and\n      0xa9059cbb\n        /* \"contracts/indrarouter.sol\":31467:31516  PancakeLibrary.pairFor(factory, path[0], path[1]) */\n      tag_377\n        /* \"contracts/indrarouter.sol\":31490:31497  factory */\n      immutable(\"0xeba818bcee6eaba9d1a7c8e4d0732334c4e45617c48a8a0861c4ad844e6db671\")\n        /* \"contracts/indrarouter.sol\":31499:31503  path */\n      dup10\n      dup10\n        /* \"contracts/indrarouter.sol\":31504:31505  0 */\n      0x00\n        /* \"contracts/indrarouter.sol\":31499:31506  path[0] */\n      dup2\n      dup2\n      lt\n      tag_278\n      jumpi\n      invalid\n        /* \"contracts/indrarouter.sol\":31467:31516  PancakeLibrary.pairFor(factory, path[0], path[1]) */\n    tag_377:\n        /* \"contracts/indrarouter.sol\":31518:31526  amountIn */\n      dup4\n        /* \"contracts/indrarouter.sol\":31446:31527  IWETH(WETH).transfer(PancakeLibrary.pairFor(factory, path[0], path[1]), amountIn) */\n      mload(0x40)\n      dup4\n      0xffffffff\n      and\n      0xe0\n      shl\n      dup2\n      mstore\n      0x04\n      add\n      dup1\n      dup4\n      sub(shl(0xa0, 0x01), 0x01)\n      and\n      sub(shl(0xa0, 0x01), 0x01)\n      and\n      dup2\n      mstore\n      0x20\n      add\n      dup3\n      dup2\n      mstore\n      0x20\n      add\n      swap3\n      pop\n      pop\n      pop\n      0x20\n      mload(0x40)\n      dup1\n      dup4\n      sub\n      dup2\n      0x00\n      dup8\n      dup1\n      extcodesize\n      iszero\n        /* \"--CODEGEN--\":5:14   */\n      dup1\n        /* \"--CODEGEN--\":2:4   */\n      iszero\n      tag_380\n      jumpi\n        /* \"--CODEGEN--\":27:28   */\n      0x00\n        /* \"--CODEGEN--\":24:25   */\n      dup1\n        /* \"--CODEGEN--\":17:29   */\n      revert\n        /* \"--CODEGEN--\":2:4   */\n    tag_380:\n        /* \"contracts/indrarouter.sol\":31446:31527  IWETH(WETH).transfer(PancakeLibrary.pairFor(factory, path[0], path[1]), amountIn) */\n      pop\n      gas\n      call\n      iszero\n        /* \"--CODEGEN--\":8:17   */\n      dup1\n        /* \"--CODEGEN--\":5:7   */\n      iszero\n      tag_382\n      jumpi\n        /* \"--CODEGEN--\":45:61   */\n      returndatasize\n        /* \"--CODEGEN--\":42:43   */\n      0x00\n        /* \"--CODEGEN--\":39:40   */\n      dup1\n        /* \"--CODEGEN--\":24:62   */\n      returndatacopy\n        /* \"--CODEGEN--\":77:93   */\n      returndatasize\n        /* \"--CODEGEN--\":74:75   */\n      0x00\n        /* \"--CODEGEN--\":67:94   */\n      revert\n        /* \"--CODEGEN--\":5:7   */\n    tag_382:\n        /* \"contracts/indrarouter.sol\":31446:31527  IWETH(WETH).transfer(PancakeLibrary.pairFor(factory, path[0], path[1]), amountIn) */\n      pop\n      pop\n      pop\n      pop\n      mload(0x40)\n      returndatasize\n        /* \"--CODEGEN--\":15:17   */\n      0x20\n        /* \"--CODEGEN--\":10:13   */\n      dup2\n        /* \"--CODEGEN--\":7:18   */\n      lt\n        /* \"--CODEGEN--\":4:6   */\n      iszero\n      tag_383\n      jumpi\n        /* \"--CODEGEN--\":31:32   */\n      0x00\n        /* \"--CODEGEN--\":28:29   */\n      dup1\n        /* \"--CODEGEN--\":21:33   */\n      revert\n        /* \"--CODEGEN--\":4:6   */\n    tag_383:\n      pop\n        /* \"contracts/indrarouter.sol\":31446:31527  IWETH(WETH).transfer(PancakeLibrary.pairFor(factory, path[0], path[1]), amountIn) */\n      mload\n        /* \"contracts/indrarouter.sol\":31439:31528  assert(IWETH(WETH).transfer(PancakeLibrary.pairFor(factory, path[0], path[1]), amountIn)) */\n      tag_384\n      jumpi\n      invalid\n    tag_384:\n        /* \"contracts/indrarouter.sol\":31538:31556  uint balanceBefore */\n      0x00\n        /* \"contracts/indrarouter.sol\":31566:31570  path */\n      dup7\n      dup7\n      not(0x00)\n        /* \"contracts/indrarouter.sol\":31571:31586  path.length - 1 */\n      dup2\n      add\n        /* \"contracts/indrarouter.sol\":31566:31587  path[path.length - 1] */\n      dup2\n      dup2\n      lt\n      tag_385\n      jumpi\n      invalid\n    tag_385:\n      swap1\n      pop\n      0x20\n      mul\n      add\n      calldataload\n      sub(shl(0xa0, 0x01), 0x01)\n      and\n      sub(shl(0xa0, 0x01), 0x01)\n        /* \"contracts/indrarouter.sol\":31559:31598  IERC20(path[path.length - 1]).balanceOf */\n      and\n      0x70a08231\n        /* \"contracts/indrarouter.sol\":31599:31601  to */\n      dup7\n        /* \"contracts/indrarouter.sol\":31559:31602  IERC20(path[path.length - 1]).balanceOf(to) */\n      mload(0x40)\n      dup3\n      0xffffffff\n      and\n      0xe0\n      shl\n      dup2\n      mstore\n      0x04\n      add\n      dup1\n      dup3\n      sub(shl(0xa0, 0x01), 0x01)\n      and\n      sub(shl(0xa0, 0x01), 0x01)\n      and\n      dup2\n      mstore\n      0x20\n      add\n      swap2\n      pop\n      pop\n      0x20\n      mload(0x40)\n      dup1\n      dup4\n      sub\n      dup2\n      dup7\n      dup1\n      extcodesize\n      iszero\n        /* \"--CODEGEN--\":5:14   */\n      dup1\n        /* \"--CODEGEN--\":2:4   */\n      iszero\n      tag_386\n      jumpi\n        /* \"--CODEGEN--\":27:28   */\n      0x00\n        /* \"--CODEGEN--\":24:25   */\n      dup1\n        /* \"--CODEGEN--\":17:29   */\n      revert\n        /* \"--CODEGEN--\":2:4   */\n    tag_386:\n        /* \"contracts/indrarouter.sol\":31559:31602  IERC20(path[path.length - 1]).balanceOf(to) */\n      pop\n      gas\n      staticcall\n      iszero\n        /* \"--CODEGEN--\":8:17   */\n      dup1\n        /* \"--CODEGEN--\":5:7   */\n      iszero\n      tag_388\n      jumpi\n        /* \"--CODEGEN--\":45:61   */\n      returndatasize\n        /* \"--CODEGEN--\":42:43   */\n      0x00\n        /* \"--CODEGEN--\":39:40   */\n      dup1\n        /* \"--CODEGEN--\":24:62   */\n      returndatacopy\n        /* \"--CODEGEN--\":77:93   */\n      returndatasize\n        /* \"--CODEGEN--\":74:75   */\n      0x00\n        /* \"--CODEGEN--\":67:94   */\n      revert\n        /* \"--CODEGEN--\":5:7   */\n    tag_388:\n        /* \"contracts/indrarouter.sol\":31559:31602  IERC20(path[path.length - 1]).balanceOf(to) */\n      pop\n      pop\n      pop\n      pop\n      mload(0x40)\n      returndatasize\n        /* \"--CODEGEN--\":15:17   */\n      0x20\n        /* \"--CODEGEN--\":10:13   */\n      dup2\n        /* \"--CODEGEN--\":7:18   */\n      lt\n        /* \"--CODEGEN--\":4:6   */\n      iszero\n      tag_389\n      jumpi\n        /* \"--CODEGEN--\":31:32   */\n      0x00\n        /* \"--CODEGEN--\":28:29   */\n      dup1\n        /* \"--CODEGEN--\":21:33   */\n      revert\n        /* \"--CODEGEN--\":4:6   */\n    tag_389:\n      pop\n        /* \"contracts/indrarouter.sol\":31559:31602  IERC20(path[path.length - 1]).balanceOf(to) */\n      mload\n        /* \"contracts/indrarouter.sol\":31612:31656  _swapSupportingFeeOnTransferTokens(path, to) */\n      0x40\n      dup1\n      mload\n        /* \"contracts/indrarouter.sol\":31559:31602  IERC20(path[path.length - 1]).balanceOf(to) */\n      0x20\n        /* \"contracts/indrarouter.sol\":31612:31656  _swapSupportingFeeOnTransferTokens(path, to) */\n      dup10\n      dup2\n      mul\n      dup3\n      dup2\n      add\n      dup3\n      add\n      swap1\n      swap4\n      mstore\n      dup10\n      dup3\n      mstore\n        /* \"contracts/indrarouter.sol\":31559:31602  IERC20(path[path.length - 1]).balanceOf(to) */\n      swap3\n      swap4\n      pop\n        /* \"contracts/indrarouter.sol\":31612:31656  _swapSupportingFeeOnTransferTokens(path, to) */\n      tag_390\n      swap3\n      swap1\n      swap2\n        /* \"contracts/indrarouter.sol\":31647:31651  path */\n      dup11\n      swap2\n      dup11\n      swap2\n      dup3\n      swap2\n        /* \"contracts/indrarouter.sol\":31612:31656  _swapSupportingFeeOnTransferTokens(path, to) */\n      dup6\n      add\n      swap1\n        /* \"contracts/indrarouter.sol\":31647:31651  path */\n      dup5\n      swap1\n        /* \"contracts/indrarouter.sol\":31612:31656  _swapSupportingFeeOnTransferTokens(path, to) */\n      dup1\n        /* \"contracts/indrarouter.sol\":31647:31651  path */\n      dup3\n        /* \"contracts/indrarouter.sol\":31612:31656  _swapSupportingFeeOnTransferTokens(path, to) */\n      dup5\n        /* \"--CODEGEN--\":1:34   */\n      calldatacopy\n        /* \"--CODEGEN--\":99:100   */\n      0x00\n        /* \"--CODEGEN--\":81:97   */\n      swap3\n      add\n        /* \"--CODEGEN--\":74:101   */\n      swap2\n      swap1\n      swap2\n      mstore\n      pop\n        /* \"contracts/indrarouter.sol\":31653:31655  to */\n      dup10\n      swap3\n      pop\n        /* \"contracts/indrarouter.sol\":31612:31646  _swapSupportingFeeOnTransferTokens */\n      tag_286\n      swap2\n      pop\n      pop\n        /* \"contracts/indrarouter.sol\":31612:31656  _swapSupportingFeeOnTransferTokens(path, to) */\n      jump\t// in\n    tag_390:\n        /* \"contracts/indrarouter.sol\":31753:31765  amountOutMin */\n      dup8\n        /* \"contracts/indrarouter.sol\":31687:31749  IERC20(path[path.length - 1]).balanceOf(to).sub(balanceBefore) */\n      tag_287\n        /* \"contracts/indrarouter.sol\":31735:31748  balanceBefore */\n      dup3\n        /* \"contracts/indrarouter.sol\":31694:31698  path */\n      dup10\n      dup10\n      not(0x00)\n        /* \"contracts/indrarouter.sol\":31699:31714  path.length - 1 */\n      dup2\n      add\n        /* \"contracts/indrarouter.sol\":31694:31715  path[path.length - 1] */\n      dup2\n      dup2\n      lt\n      tag_392\n      jumpi\n      invalid\n    tag_392:\n      swap1\n      pop\n      0x20\n      mul\n      add\n      calldataload\n      sub(shl(0xa0, 0x01), 0x01)\n      and\n      sub(shl(0xa0, 0x01), 0x01)\n        /* \"contracts/indrarouter.sol\":31687:31726  IERC20(path[path.length - 1]).balanceOf */\n      and\n      0x70a08231\n        /* \"contracts/indrarouter.sol\":31727:31729  to */\n      dup10\n        /* \"contracts/indrarouter.sol\":31687:31730  IERC20(path[path.length - 1]).balanceOf(to) */\n      mload(0x40)\n      dup3\n      0xffffffff\n      and\n      0xe0\n      shl\n      dup2\n      mstore\n      0x04\n      add\n      dup1\n      dup3\n      sub(shl(0xa0, 0x01), 0x01)\n      and\n      sub(shl(0xa0, 0x01), 0x01)\n      and\n      dup2\n      mstore\n      0x20\n      add\n      swap2\n      pop\n      pop\n      0x20\n      mload(0x40)\n      dup1\n      dup4\n      sub\n      dup2\n      dup7\n      dup1\n      extcodesize\n      iszero\n        /* \"--CODEGEN--\":5:14   */\n      dup1\n        /* \"--CODEGEN--\":2:4   */\n      iszero\n      tag_289\n      jumpi\n        /* \"--CODEGEN--\":27:28   */\n      0x00\n        /* \"--CODEGEN--\":24:25   */\n      dup1\n        /* \"--CODEGEN--\":17:29   */\n      revert\n        /* \"contracts/indrarouter.sol\":19569:20406  function removeLiquidity(... */\n    tag_146:\n        /* \"contracts/indrarouter.sol\":19815:19827  uint amountA */\n      0x00\n        /* \"contracts/indrarouter.sol\":19829:19841  uint amountB */\n      dup1\n        /* \"contracts/indrarouter.sol\":19796:19804  deadline */\n      dup3\n        /* \"contracts/indrarouter.sol\":16161:16176  block.timestamp */\n      timestamp\n        /* \"contracts/indrarouter.sol\":16149:16157  deadline */\n      dup2\n        /* \"contracts/indrarouter.sol\":16149:16176  deadline >= block.timestamp */\n      lt\n      iszero\n        /* \"contracts/indrarouter.sol\":16141:16203  require(deadline >= block.timestamp, 'PancakeRouter: EXPIRED') */\n      tag_399\n      jumpi\n      0x40\n      dup1\n      mload\n      shl(0xe5, 0x461bcd)\n      dup2\n      mstore\n      0x20\n      0x04\n      dup3\n      add\n      mstore\n      0x16\n      0x24\n      dup3\n      add\n      mstore\n      0x00\n      dup1\n      mload\n      0x20\n      data_48da24abbb1fac1ad424fc0d0ddda728b5e193f1888a852641dc2d17535faffb\n      dup4\n      codecopy\n      dup2\n      mload\n      swap2\n      mstore\n      0x44\n      dup3\n      add\n      mstore\n      swap1\n      mload\n      swap1\n      dup2\n      swap1\n      sub\n      0x64\n      add\n      swap1\n      revert\n    tag_399:\n        /* \"contracts/indrarouter.sol\":19853:19865  address pair */\n      0x00\n        /* \"contracts/indrarouter.sol\":19868:19915  PancakeLibrary.pairFor(factory, tokenA, tokenB) */\n      tag_401\n        /* \"contracts/indrarouter.sol\":19891:19898  factory */\n      immutable(\"0xeba818bcee6eaba9d1a7c8e4d0732334c4e45617c48a8a0861c4ad844e6db671\")\n        /* \"contracts/indrarouter.sol\":19900:19906  tokenA */\n      dup13\n        /* \"contracts/indrarouter.sol\":19908:19914  tokenB */\n      dup13\n        /* \"contracts/indrarouter.sol\":19868:19890  PancakeLibrary.pairFor */\n      tag_208\n        /* \"contracts/indrarouter.sol\":19868:19915  PancakeLibrary.pairFor(factory, tokenA, tokenB) */\n      jump\t// in\n    tag_401:\n        /* \"contracts/indrarouter.sol\":19925:19985  IPancakePair(pair).transferFrom(msg.sender, pair, liquidity) */\n      0x40\n      dup1\n      mload\n      shl(0xe0, 0x23b872dd)\n      dup2\n      mstore\n        /* \"contracts/indrarouter.sol\":19957:19967  msg.sender */\n      caller\n        /* \"contracts/indrarouter.sol\":19925:19985  IPancakePair(pair).transferFrom(msg.sender, pair, liquidity) */\n      0x04\n      dup3\n      add\n      mstore\n      sub(shl(0xa0, 0x01), 0x01)\n        /* \"contracts/indrarouter.sol\":19925:19956  IPancakePair(pair).transferFrom */\n      dup4\n      and\n        /* \"contracts/indrarouter.sol\":19925:19985  IPancakePair(pair).transferFrom(msg.sender, pair, liquidity) */\n      0x24\n      dup3\n      add\n      dup2\n      swap1\n      mstore\n      0x44\n      dup3\n      add\n      dup14\n      swap1\n      mstore\n      swap2\n      mload\n        /* \"contracts/indrarouter.sol\":19853:19915  address pair = PancakeLibrary.pairFor(factory, tokenA, tokenB) */\n      swap3\n      swap4\n      pop\n        /* \"contracts/indrarouter.sol\":19925:19956  IPancakePair(pair).transferFrom */\n      swap1\n      swap2\n      0x23b872dd\n      swap2\n        /* \"contracts/indrarouter.sol\":19925:19985  IPancakePair(pair).transferFrom(msg.sender, pair, liquidity) */\n      0x64\n      dup1\n      dup3\n      add\n      swap3\n      0x20\n      swap3\n      swap1\n      swap2\n      swap1\n      dup3\n      swap1\n      sub\n      add\n      dup2\n      0x00\n        /* \"contracts/indrarouter.sol\":19925:19956  IPancakePair(pair).transferFrom */\n      dup8\n        /* \"contracts/indrarouter.sol\":19925:19985  IPancakePair(pair).transferFrom(msg.sender, pair, liquidity) */\n      dup1\n      extcodesize\n      iszero\n        /* \"--CODEGEN--\":2:4   */\n      dup1\n      iszero\n      tag_402\n      jumpi\n        /* \"--CODEGEN--\":27:28   */\n      0x00\n        /* \"--CODEGEN--\":24:25   */\n      dup1\n        /* \"--CODEGEN--\":17:29   */\n      revert\n        /* \"--CODEGEN--\":2:4   */\n    tag_402:\n        /* \"contracts/indrarouter.sol\":19925:19985  IPancakePair(pair).transferFrom(msg.sender, pair, liquidity) */\n      pop\n      gas\n      call\n      iszero\n        /* \"--CODEGEN--\":8:17   */\n      dup1\n        /* \"--CODEGEN--\":5:7   */\n      iszero\n      tag_404\n      jumpi\n        /* \"--CODEGEN--\":45:61   */\n      returndatasize\n        /* \"--CODEGEN--\":42:43   */\n      0x00\n        /* \"--CODEGEN--\":39:40   */\n      dup1\n        /* \"--CODEGEN--\":24:62   */\n      returndatacopy\n        /* \"--CODEGEN--\":77:93   */\n      returndatasize\n        /* \"--CODEGEN--\":74:75   */\n      0x00\n        /* \"--CODEGEN--\":67:94   */\n      revert\n        /* \"--CODEGEN--\":5:7   */\n    tag_404:\n        /* \"contracts/indrarouter.sol\":19925:19985  IPancakePair(pair).transferFrom(msg.sender, pair, liquidity) */\n      pop\n      pop\n      pop\n      pop\n      mload(0x40)\n      returndatasize\n        /* \"--CODEGEN--\":15:17   */\n      0x20\n        /* \"--CODEGEN--\":10:13   */\n      dup2\n        /* \"--CODEGEN--\":7:18   */\n      lt\n        /* \"--CODEGEN--\":4:6   */\n      iszero\n      tag_405\n      jumpi\n        /* \"--CODEGEN--\":31:32   */\n      0x00\n        /* \"--CODEGEN--\":28:29   */\n      dup1\n        /* \"--CODEGEN--\":21:33   */\n      revert\n        /* \"--CODEGEN--\":4:6   */\n    tag_405:\n      pop\n      pop\n        /* \"contracts/indrarouter.sol\":20052:20079  IPancakePair(pair).burn(to) */\n      0x40\n      dup1\n      mload\n      shl(0xe2, 0x226bf2d1)\n      dup2\n      mstore\n      sub(shl(0xa0, 0x01), 0x01)\n      dup9\n      dup2\n      and\n      0x04\n      dup4\n      add\n      mstore\n      dup3\n      mload\n        /* \"contracts/indrarouter.sol\":20022:20034  uint amount0 */\n      0x00\n      swap4\n      dup5\n      swap4\n        /* \"contracts/indrarouter.sol\":20052:20075  IPancakePair(pair).burn */\n      swap3\n      dup7\n      and\n      swap3\n      0x89afcb44\n      swap3\n        /* \"contracts/indrarouter.sol\":20052:20079  IPancakePair(pair).burn(to) */\n      0x24\n      dup1\n      dup4\n      add\n      swap4\n      swap3\n      dup3\n      swap1\n      sub\n      add\n      dup2\n        /* \"contracts/indrarouter.sol\":20022:20034  uint amount0 */\n      dup8\n        /* \"contracts/indrarouter.sol\":20052:20075  IPancakePair(pair).burn */\n      dup8\n        /* \"contracts/indrarouter.sol\":20052:20079  IPancakePair(pair).burn(to) */\n      dup1\n      extcodesize\n      iszero\n        /* \"--CODEGEN--\":2:4   */\n      dup1\n      iszero\n      tag_406\n      jumpi\n        /* \"--CODEGEN--\":27:28   */\n      0x00\n        /* \"--CODEGEN--\":24:25   */\n      dup1\n        /* \"--CODEGEN--\":17:29   */\n      revert\n        /* \"--CODEGEN--\":2:4   */\n    tag_406:\n        /* \"contracts/indrarouter.sol\":20052:20079  IPancakePair(pair).burn(to) */\n      pop\n      gas\n      call\n      iszero\n        /* \"--CODEGEN--\":8:17   */\n      dup1\n        /* \"--CODEGEN--\":5:7   */\n      iszero\n      tag_408\n      jumpi\n        /* \"--CODEGEN--\":45:61   */\n      returndatasize\n        /* \"--CODEGEN--\":42:43   */\n      0x00\n        /* \"--CODEGEN--\":39:40   */\n      dup1\n        /* \"--CODEGEN--\":24:62   */\n      returndatacopy\n        /* \"--CODEGEN--\":77:93   */\n      returndatasize\n        /* \"--CODEGEN--\":74:75   */\n      0x00\n        /* \"--CODEGEN--\":67:94   */\n      revert\n        /* \"--CODEGEN--\":5:7   */\n    tag_408:\n        /* \"contracts/indrarouter.sol\":20052:20079  IPancakePair(pair).burn(to) */\n      pop\n      pop\n      pop\n      pop\n      mload(0x40)\n      returndatasize\n        /* \"--CODEGEN--\":15:17   */\n      0x40\n        /* \"--CODEGEN--\":10:13   */\n      dup2\n        /* \"--CODEGEN--\":7:18   */\n      lt\n        /* \"--CODEGEN--\":4:6   */\n      iszero\n      tag_409\n      jumpi\n        /* \"--CODEGEN--\":31:32   */\n      0x00\n        /* \"--CODEGEN--\":28:29   */\n      dup1\n        /* \"--CODEGEN--\":21:33   */\n      revert\n        /* \"--CODEGEN--\":4:6   */\n    tag_409:\n      pop\n        /* \"contracts/indrarouter.sol\":20052:20079  IPancakePair(pair).burn(to) */\n      dup1\n      mload\n      0x20\n      swap1\n      swap2\n      add\n      mload\n      swap1\n      swap3\n      pop\n      swap1\n      pop\n        /* \"contracts/indrarouter.sol\":20090:20104  address token0 */\n      0x00\n        /* \"contracts/indrarouter.sol\":20109:20150  PancakeLibrary.sortTokens(tokenA, tokenB) */\n      tag_410\n        /* \"contracts/indrarouter.sol\":20135:20141  tokenA */\n      dup15\n        /* \"contracts/indrarouter.sol\":20143:20149  tokenB */\n      dup15\n        /* \"contracts/indrarouter.sol\":20109:20134  PancakeLibrary.sortTokens */\n      tag_411\n        /* \"contracts/indrarouter.sol\":20109:20150  PancakeLibrary.sortTokens(tokenA, tokenB) */\n      jump\t// in\n    tag_410:\n        /* \"contracts/indrarouter.sol\":20089:20150  (address token0,) = PancakeLibrary.sortTokens(tokenA, tokenB) */\n      pop\n      swap1\n      pop\n        /* \"contracts/indrarouter.sol\":20191:20197  token0 */\n      dup1\n      sub(shl(0xa0, 0x01), 0x01)\n        /* \"contracts/indrarouter.sol\":20181:20197  tokenA == token0 */\n      and\n        /* \"contracts/indrarouter.sol\":20181:20187  tokenA */\n      dup15\n      sub(shl(0xa0, 0x01), 0x01)\n        /* \"contracts/indrarouter.sol\":20181:20197  tokenA == token0 */\n      and\n      eq\n        /* \"contracts/indrarouter.sol\":20181:20239  tokenA == token0 ? (amount0, amount1) : (amount1, amount0) */\n      tag_412\n      jumpi\n        /* \"contracts/indrarouter.sol\":20222:20229  amount1 */\n      dup2\n        /* \"contracts/indrarouter.sol\":20231:20238  amount0 */\n      dup4\n        /* \"contracts/indrarouter.sol\":20181:20239  tokenA == token0 ? (amount0, amount1) : (amount1, amount0) */\n      jump(tag_413)\n    tag_412:\n        /* \"contracts/indrarouter.sol\":20201:20208  amount0 */\n      dup3\n        /* \"contracts/indrarouter.sol\":20210:20217  amount1 */\n      dup3\n        /* \"contracts/indrarouter.sol\":20181:20239  tokenA == token0 ? (amount0, amount1) : (amount1, amount0) */\n    tag_413:\n        /* \"contracts/indrarouter.sol\":20160:20239  (amountA, amountB) = tokenA == token0 ? (amount0, amount1) : (amount1, amount0) */\n      swap1\n      swap8\n      pop\n      swap6\n      pop\n        /* \"contracts/indrarouter.sol\":20257:20278  amountA >= amountAMin */\n      dup11\n      dup8\n      lt\n      iszero\n        /* \"contracts/indrarouter.sol\":20249:20319  require(amountA >= amountAMin, 'PancakeRouter: INSUFFICIENT_A_AMOUNT') */\n      tag_414\n      jumpi\n      mload(0x40)\n      shl(0xe5, 0x461bcd)\n      dup2\n      mstore\n      0x04\n      add\n      dup1\n      dup1\n      0x20\n      add\n      dup3\n      dup2\n      sub\n      dup3\n      mstore\n      0x24\n      dup2\n      mstore\n      0x20\n      add\n      dup1\n      data_9a6260423fdc88a337a0f9f8760b69a29bc94052bb07dc1cf319f59a04b7572b\n      0x24\n      swap2\n      codecopy\n      0x40\n      add\n      swap2\n      pop\n      pop\n      mload(0x40)\n      dup1\n      swap2\n      sub\n      swap1\n      revert\n    tag_414:\n        /* \"contracts/indrarouter.sol\":20348:20358  amountBMin */\n      dup10\n        /* \"contracts/indrarouter.sol\":20337:20344  amountB */\n      dup7\n        /* \"contracts/indrarouter.sol\":20337:20358  amountB >= amountBMin */\n      lt\n      iszero\n        /* \"contracts/indrarouter.sol\":20329:20399  require(amountB >= amountBMin, 'PancakeRouter: INSUFFICIENT_B_AMOUNT') */\n      tag_415\n      jumpi\n      mload(0x40)\n      shl(0xe5, 0x461bcd)\n      dup2\n      mstore\n      0x04\n      add\n      dup1\n      dup1\n      0x20\n      add\n      dup3\n      dup2\n      sub\n      dup3\n      mstore\n      0x24\n      dup2\n      mstore\n      0x20\n      add\n      dup1\n      data_f52a741502b5da50a5ea2d120670dbc8a41268419821689a668eee625b765bdd\n      0x24\n      swap2\n      codecopy\n      0x40\n      add\n      swap2\n      pop\n      pop\n      mload(0x40)\n      dup1\n      swap2\n      sub\n      swap1\n      revert\n    tag_415:\n        /* \"contracts/indrarouter.sol\":16213:16214  _ */\n      pop\n      pop\n      pop\n      pop\n        /* \"contracts/indrarouter.sol\":19569:20406  function removeLiquidity(... */\n      pop\n      swap8\n      pop\n      swap8\n      swap6\n      pop\n      pop\n      pop\n      pop\n      pop\n      pop\n      jump\t// out\n        /* \"contracts/indrarouter.sol\":16008:16049  address public immutable override factory */\n    tag_149:\n      immutable(\"0xeba818bcee6eaba9d1a7c8e4d0732334c4e45617c48a8a0861c4ad844e6db671\")\n      dup2\n      jump\t// out\n        /* \"contracts/indrarouter.sol\":33406:33649  function getAmountsOut(uint amountIn, address[] memory path)... */\n    tag_156:\n        /* \"contracts/indrarouter.sol\":33545:33566  uint[] memory amounts */\n      0x60\n        /* \"contracts/indrarouter.sol\":33589:33642  PancakeLibrary.getAmountsOut(factory, amountIn, path) */\n      tag_220\n        /* \"contracts/indrarouter.sol\":33618:33625  factory */\n      immutable(\"0xeba818bcee6eaba9d1a7c8e4d0732334c4e45617c48a8a0861c4ad844e6db671\")\n        /* \"contracts/indrarouter.sol\":33627:33635  amountIn */\n      dup5\n        /* \"contracts/indrarouter.sol\":33637:33641  path */\n      dup5\n        /* \"contracts/indrarouter.sol\":33589:33617  PancakeLibrary.getAmountsOut */\n      tag_200\n        /* \"contracts/indrarouter.sol\":33589:33642  PancakeLibrary.getAmountsOut(factory, amountIn, path) */\n      jump\t// in\n        /* \"contracts/indrarouter.sol\":21733:22385  function removeLiquidityETHWithPermit(... */\n    tag_163:\n        /* \"contracts/indrarouter.sol\":22014:22030  uint amountToken */\n      0x00\n        /* \"contracts/indrarouter.sol\":22032:22046  uint amountETH */\n      dup1\n        /* \"contracts/indrarouter.sol\":22058:22070  address pair */\n      0x00\n        /* \"contracts/indrarouter.sol\":22073:22117  PancakeLibrary.pairFor(factory, token, WETH) */\n      tag_419\n        /* \"contracts/indrarouter.sol\":22096:22103  factory */\n      immutable(\"0xeba818bcee6eaba9d1a7c8e4d0732334c4e45617c48a8a0861c4ad844e6db671\")\n        /* \"contracts/indrarouter.sol\":22105:22110  token */\n      dup15\n        /* \"contracts/indrarouter.sol\":22112:22116  WETH */\n      immutable(\"0x229aeb8f3af31dca53a287d28e8ba0744a7f60e8208788a28095fa44a959baa9\")\n        /* \"contracts/indrarouter.sol\":22073:22095  PancakeLibrary.pairFor */\n      tag_208\n        /* \"contracts/indrarouter.sol\":22073:22117  PancakeLibrary.pairFor(factory, token, WETH) */\n      jump\t// in\n    tag_419:\n        /* \"contracts/indrarouter.sol\":22058:22117  address pair = PancakeLibrary.pairFor(factory, token, WETH) */\n      swap1\n      pop\n        /* \"contracts/indrarouter.sol\":22127:22137  uint value */\n      0x00\n        /* \"contracts/indrarouter.sol\":22140:22150  approveMax */\n      dup8\n        /* \"contracts/indrarouter.sol\":22140:22173  approveMax ? uint(-1) : liquidity */\n      tag_420\n      jumpi\n        /* \"contracts/indrarouter.sol\":22164:22173  liquidity */\n      dup13\n        /* \"contracts/indrarouter.sol\":22140:22173  approveMax ? uint(-1) : liquidity */\n      jump(tag_421)\n    tag_420:\n      not(0x00)\n    tag_421:\n        /* \"contracts/indrarouter.sol\":22183:22261  IPancakePair(pair).permit(msg.sender, address(this), value, deadline, v, r, s) */\n      0x40\n      dup1\n      mload\n      shl(0xe0, 0xd505accf)\n      dup2\n      mstore\n        /* \"contracts/indrarouter.sol\":22209:22219  msg.sender */\n      caller\n        /* \"contracts/indrarouter.sol\":22183:22261  IPancakePair(pair).permit(msg.sender, address(this), value, deadline, v, r, s) */\n      0x04\n      dup3\n      add\n      mstore\n        /* \"contracts/indrarouter.sol\":22229:22233  this */\n      address\n        /* \"contracts/indrarouter.sol\":22183:22261  IPancakePair(pair).permit(msg.sender, address(this), value, deadline, v, r, s) */\n      0x24\n      dup3\n      add\n      mstore\n      0x44\n      dup2\n      add\n      dup4\n      swap1\n      mstore\n      0x64\n      dup2\n      add\n      dup13\n      swap1\n      mstore\n      0xff\n      dup11\n      and\n      0x84\n      dup3\n      add\n      mstore\n      0xa4\n      dup2\n      add\n      dup10\n      swap1\n      mstore\n      0xc4\n      dup2\n      add\n      dup9\n      swap1\n      mstore\n      swap1\n      mload\n        /* \"contracts/indrarouter.sol\":22127:22173  uint value = approveMax ? uint(-1) : liquidity */\n      swap2\n      swap3\n      pop\n      sub(shl(0xa0, 0x01), 0x01)\n        /* \"contracts/indrarouter.sol\":22183:22208  IPancakePair(pair).permit */\n      dup5\n      and\n      swap2\n      0xd505accf\n      swap2\n        /* \"contracts/indrarouter.sol\":22183:22261  IPancakePair(pair).permit(msg.sender, address(this), value, deadline, v, r, s) */\n      0xe4\n      dup1\n      dup3\n      add\n      swap3\n      0x00\n      swap3\n      swap1\n      swap2\n      swap1\n      dup3\n      swap1\n      sub\n      add\n      dup2\n      dup4\n        /* \"contracts/indrarouter.sol\":22183:22208  IPancakePair(pair).permit */\n      dup8\n        /* \"contracts/indrarouter.sol\":22183:22261  IPancakePair(pair).permit(msg.sender, address(this), value, deadline, v, r, s) */\n      dup1\n      extcodesize\n      iszero\n        /* \"--CODEGEN--\":2:4   */\n      dup1\n      iszero\n      tag_422\n      jumpi\n        /* \"--CODEGEN--\":27:28   */\n      0x00\n        /* \"--CODEGEN--\":24:25   */\n      dup1\n        /* \"--CODEGEN--\":17:29   */\n      revert\n        /* \"--CODEGEN--\":2:4   */\n    tag_422:\n        /* \"contracts/indrarouter.sol\":22183:22261  IPancakePair(pair).permit(msg.sender, address(this), value, deadline, v, r, s) */\n      pop\n      gas\n      call\n      iszero\n        /* \"--CODEGEN--\":8:17   */\n      dup1\n        /* \"--CODEGEN--\":5:7   */\n      iszero\n      tag_424\n      jumpi\n        /* \"--CODEGEN--\":45:61   */\n      returndatasize\n        /* \"--CODEGEN--\":42:43   */\n      0x00\n        /* \"--CODEGEN--\":39:40   */\n      dup1\n        /* \"--CODEGEN--\":24:62   */\n      returndatacopy\n        /* \"--CODEGEN--\":77:93   */\n      returndatasize\n        /* \"--CODEGEN--\":74:75   */\n      0x00\n        /* \"--CODEGEN--\":67:94   */\n      revert\n        /* \"--CODEGEN--\":5:7   */\n    tag_424:\n        /* \"contracts/indrarouter.sol\":22183:22261  IPancakePair(pair).permit(msg.sender, address(this), value, deadline, v, r, s) */\n      pop\n      pop\n      pop\n      pop\n        /* \"contracts/indrarouter.sol\":22298:22378  removeLiquidityETH(token, liquidity, amountTokenMin, amountETHMin, to, deadline) */\n      tag_425\n        /* \"contracts/indrarouter.sol\":22317:22322  token */\n      dup15\n        /* \"contracts/indrarouter.sol\":22324:22333  liquidity */\n      dup15\n        /* \"contracts/indrarouter.sol\":22335:22349  amountTokenMin */\n      dup15\n        /* \"contracts/indrarouter.sol\":22351:22363  amountETHMin */\n      dup15\n        /* \"contracts/indrarouter.sol\":22365:22367  to */\n      dup15\n        /* \"contracts/indrarouter.sol\":22369:22377  deadline */\n      dup15\n        /* \"contracts/indrarouter.sol\":22298:22316  removeLiquidityETH */\n      tag_36\n        /* \"contracts/indrarouter.sol\":22298:22378  removeLiquidityETH(token, liquidity, amountTokenMin, amountETHMin, to, deadline) */\n      jump\t// in\n    tag_425:\n        /* \"contracts/indrarouter.sol\":22271:22378  (amountToken, amountETH) = removeLiquidityETH(token, liquidity, amountTokenMin, amountETHMin, to, deadline) */\n      swap1\n      swap16\n      swap1\n      swap15\n      pop\n        /* \"contracts/indrarouter.sol\":21733:22385  function removeLiquidityETHWithPermit(... */\n      swap13\n      pop\n      pop\n      pop\n      pop\n      pop\n      pop\n      pop\n      pop\n      pop\n      pop\n      pop\n      pop\n      pop\n      jump\t// out\n        /* \"contracts/indrarouter.sol\":17858:18577  function addLiquidity(... */\n    tag_167:\n        /* \"contracts/indrarouter.sol\":18137:18149  uint amountA */\n      0x00\n        /* \"contracts/indrarouter.sol\":18151:18163  uint amountB */\n      dup1\n        /* \"contracts/indrarouter.sol\":18165:18179  uint liquidity */\n      0x00\n        /* \"contracts/indrarouter.sol\":18118:18126  deadline */\n      dup4\n        /* \"contracts/indrarouter.sol\":16161:16176  block.timestamp */\n      timestamp\n        /* \"contracts/indrarouter.sol\":16149:16157  deadline */\n      dup2\n        /* \"contracts/indrarouter.sol\":16149:16176  deadline >= block.timestamp */\n      lt\n      iszero\n        /* \"contracts/indrarouter.sol\":16141:16203  require(deadline >= block.timestamp, 'PancakeRouter: EXPIRED') */\n      tag_427\n      jumpi\n      0x40\n      dup1\n      mload\n      shl(0xe5, 0x461bcd)\n      dup2\n      mstore\n      0x20\n      0x04\n      dup3\n      add\n      mstore\n      0x16\n      0x24\n      dup3\n      add\n      mstore\n      0x00\n      dup1\n      mload\n      0x20\n      data_48da24abbb1fac1ad424fc0d0ddda728b5e193f1888a852641dc2d17535faffb\n      dup4\n      codecopy\n      dup2\n      mload\n      swap2\n      mstore\n      0x44\n      dup3\n      add\n      mstore\n      swap1\n      mload\n      swap1\n      dup2\n      swap1\n      sub\n      0x64\n      add\n      swap1\n      revert\n    tag_427:\n        /* \"contracts/indrarouter.sol\":18212:18297  _addLiquidity(tokenA, tokenB, amountADesired, amountBDesired, amountAMin, amountBMin) */\n      tag_429\n        /* \"contracts/indrarouter.sol\":18226:18232  tokenA */\n      dup13\n        /* \"contracts/indrarouter.sol\":18234:18240  tokenB */\n      dup13\n        /* \"contracts/indrarouter.sol\":18242:18256  amountADesired */\n      dup13\n        /* \"contracts/indrarouter.sol\":18258:18272  amountBDesired */\n      dup13\n        /* \"contracts/indrarouter.sol\":18274:18284  amountAMin */\n      dup13\n        /* \"contracts/indrarouter.sol\":18286:18296  amountBMin */\n      dup13\n        /* \"contracts/indrarouter.sol\":18212:18225  _addLiquidity */\n      tag_430\n        /* \"contracts/indrarouter.sol\":18212:18297  _addLiquidity(tokenA, tokenB, amountADesired, amountBDesired, amountAMin, amountBMin) */\n      jump\t// in\n    tag_429:\n        /* \"contracts/indrarouter.sol\":18191:18297  (amountA, amountB) = _addLiquidity(tokenA, tokenB, amountADesired, amountBDesired, amountAMin, amountBMin) */\n      swap1\n      swap5\n      pop\n      swap3\n      pop\n        /* \"contracts/indrarouter.sol\":18307:18319  address pair */\n      0x00\n        /* \"contracts/indrarouter.sol\":18322:18369  PancakeLibrary.pairFor(factory, tokenA, tokenB) */\n      tag_431\n        /* \"contracts/indrarouter.sol\":18345:18352  factory */\n      immutable(\"0xeba818bcee6eaba9d1a7c8e4d0732334c4e45617c48a8a0861c4ad844e6db671\")\n        /* \"contracts/indrarouter.sol\":18354:18360  tokenA */\n      dup15\n        /* \"contracts/indrarouter.sol\":18362:18368  tokenB */\n      dup15\n        /* \"contracts/indrarouter.sol\":18322:18344  PancakeLibrary.pairFor */\n      tag_208\n        /* \"contracts/indrarouter.sol\":18322:18369  PancakeLibrary.pairFor(factory, tokenA, tokenB) */\n      jump\t// in\n    tag_431:\n        /* \"contracts/indrarouter.sol\":18307:18369  address pair = PancakeLibrary.pairFor(factory, tokenA, tokenB) */\n      swap1\n      pop\n        /* \"contracts/indrarouter.sol\":18379:18445  TransferHelper.safeTransferFrom(tokenA, msg.sender, pair, amountA) */\n      tag_432\n        /* \"contracts/indrarouter.sol\":18411:18417  tokenA */\n      dup14\n        /* \"contracts/indrarouter.sol\":18419:18429  msg.sender */\n      caller\n        /* \"contracts/indrarouter.sol\":18431:18435  pair */\n      dup4\n        /* \"contracts/indrarouter.sol\":18437:18444  amountA */\n      dup9\n        /* \"contracts/indrarouter.sol\":18379:18410  TransferHelper.safeTransferFrom */\n      tag_210\n        /* \"contracts/indrarouter.sol\":18379:18445  TransferHelper.safeTransferFrom(tokenA, msg.sender, pair, amountA) */\n      jump\t// in\n    tag_432:\n        /* \"contracts/indrarouter.sol\":18455:18521  TransferHelper.safeTransferFrom(tokenB, msg.sender, pair, amountB) */\n      tag_433\n        /* \"contracts/indrarouter.sol\":18487:18493  tokenB */\n      dup13\n        /* \"contracts/indrarouter.sol\":18495:18505  msg.sender */\n      caller\n        /* \"contracts/indrarouter.sol\":18507:18511  pair */\n      dup4\n        /* \"contracts/indrarouter.sol\":18513:18520  amountB */\n      dup8\n        /* \"contracts/indrarouter.sol\":18455:18486  TransferHelper.safeTransferFrom */\n      tag_210\n        /* \"contracts/indrarouter.sol\":18455:18521  TransferHelper.safeTransferFrom(tokenB, msg.sender, pair, amountB) */\n      jump\t// in\n    tag_433:\n        /* \"contracts/indrarouter.sol\":18556:18560  pair */\n      dup1\n      sub(shl(0xa0, 0x01), 0x01)\n        /* \"contracts/indrarouter.sol\":18543:18566  IPancakePair(pair).mint */\n      and\n      0x6a627842\n        /* \"contracts/indrarouter.sol\":18567:18569  to */\n      dup9\n        /* \"contracts/indrarouter.sol\":18543:18570  IPancakePair(pair).mint(to) */\n      mload(0x40)\n      dup3\n      0xffffffff\n      and\n      0xe0\n      shl\n      dup2\n      mstore\n      0x04\n      add\n      dup1\n      dup3\n      sub(shl(0xa0, 0x01), 0x01)\n      and\n      sub(shl(0xa0, 0x01), 0x01)\n      and\n      dup2\n      mstore\n      0x20\n      add\n      swap2\n      pop\n      pop\n      0x20\n      mload(0x40)\n      dup1\n      dup4\n      sub\n      dup2\n      0x00\n      dup8\n      dup1\n      extcodesize\n      iszero\n        /* \"--CODEGEN--\":5:14   */\n      dup1\n        /* \"--CODEGEN--\":2:4   */\n      iszero\n      tag_434\n      jumpi\n        /* \"--CODEGEN--\":27:28   */\n      0x00\n        /* \"--CODEGEN--\":24:25   */\n      dup1\n        /* \"--CODEGEN--\":17:29   */\n      revert\n        /* \"--CODEGEN--\":2:4   */\n    tag_434:\n        /* \"contracts/indrarouter.sol\":18543:18570  IPancakePair(pair).mint(to) */\n      pop\n      gas\n      call\n      iszero\n        /* \"--CODEGEN--\":8:17   */\n      dup1\n        /* \"--CODEGEN--\":5:7   */\n      iszero\n      tag_436\n      jumpi\n        /* \"--CODEGEN--\":45:61   */\n      returndatasize\n        /* \"--CODEGEN--\":42:43   */\n      0x00\n        /* \"--CODEGEN--\":39:40   */\n      dup1\n        /* \"--CODEGEN--\":24:62   */\n      returndatacopy\n        /* \"--CODEGEN--\":77:93   */\n      returndatasize\n        /* \"--CODEGEN--\":74:75   */\n      0x00\n        /* \"--CODEGEN--\":67:94   */\n      revert\n        /* \"--CODEGEN--\":5:7   */\n    tag_436:\n        /* \"contracts/indrarouter.sol\":18543:18570  IPancakePair(pair).mint(to) */\n      pop\n      pop\n      pop\n      pop\n      mload(0x40)\n      returndatasize\n        /* \"--CODEGEN--\":15:17   */\n      0x20\n        /* \"--CODEGEN--\":10:13   */\n      dup2\n        /* \"--CODEGEN--\":7:18   */\n      lt\n        /* \"--CODEGEN--\":4:6   */\n      iszero\n      tag_437\n      jumpi\n        /* \"--CODEGEN--\":31:32   */\n      0x00\n        /* \"--CODEGEN--\":28:29   */\n      dup1\n        /* \"--CODEGEN--\":21:33   */\n      revert\n        /* \"--CODEGEN--\":4:6   */\n    tag_437:\n      pop\n        /* \"contracts/indrarouter.sol\":18543:18570  IPancakePair(pair).mint(to) */\n      mload\n        /* \"contracts/indrarouter.sol\":17858:18577  function addLiquidity(... */\n      swap5\n      swap14\n      swap4\n      swap13\n      pop\n        /* \"contracts/indrarouter.sol\":18543:18570  IPancakePair(pair).mint(to) */\n      swap4\n      swap11\n      pop\n        /* \"contracts/indrarouter.sol\":17858:18577  function addLiquidity(... */\n      swap2\n      swap9\n      pop\n      pop\n      pop\n      pop\n      pop\n      pop\n      pop\n      pop\n      pop\n      jump\t// out\n        /* \"contracts/indrarouter.sol\":18582:19529  function addLiquidityETH(... */\n    tag_170:\n        /* \"contracts/indrarouter.sol\":18828:18844  uint amountToken */\n      0x00\n        /* \"contracts/indrarouter.sol\":18846:18860  uint amountETH */\n      dup1\n        /* \"contracts/indrarouter.sol\":18862:18876  uint liquidity */\n      0x00\n        /* \"contracts/indrarouter.sol\":18809:18817  deadline */\n      dup4\n        /* \"contracts/indrarouter.sol\":16161:16176  block.timestamp */\n      timestamp\n        /* \"contracts/indrarouter.sol\":16149:16157  deadline */\n      dup2\n        /* \"contracts/indrarouter.sol\":16149:16176  deadline >= block.timestamp */\n      lt\n      iszero\n        /* \"contracts/indrarouter.sol\":16141:16203  require(deadline >= block.timestamp, 'PancakeRouter: EXPIRED') */\n      tag_439\n      jumpi\n      0x40\n      dup1\n      mload\n      shl(0xe5, 0x461bcd)\n      dup2\n      mstore\n      0x20\n      0x04\n      dup3\n      add\n      mstore\n      0x16\n      0x24\n      dup3\n      add\n      mstore\n      0x00\n      dup1\n      mload\n      0x20\n      data_48da24abbb1fac1ad424fc0d0ddda728b5e193f1888a852641dc2d17535faffb\n      dup4\n      codecopy\n      dup2\n      mload\n      swap2\n      mstore\n      0x44\n      dup3\n      add\n      mstore\n      swap1\n      mload\n      swap1\n      dup2\n      swap1\n      sub\n      0x64\n      add\n      swap1\n      revert\n    tag_439:\n        /* \"contracts/indrarouter.sol\":18915:19084  _addLiquidity(... */\n      tag_441\n        /* \"contracts/indrarouter.sol\":18942:18947  token */\n      dup11\n        /* \"contracts/indrarouter.sol\":18961:18965  WETH */\n      immutable(\"0x229aeb8f3af31dca53a287d28e8ba0744a7f60e8208788a28095fa44a959baa9\")\n        /* \"contracts/indrarouter.sol\":18979:18997  amountTokenDesired */\n      dup12\n        /* \"contracts/indrarouter.sol\":19011:19020  msg.value */\n      callvalue\n        /* \"contracts/indrarouter.sol\":19034:19048  amountTokenMin */\n      dup13\n        /* \"contracts/indrarouter.sol\":19062:19074  amountETHMin */\n      dup13\n        /* \"contracts/indrarouter.sol\":18915:18928  _addLiquidity */\n      tag_430\n        /* \"contracts/indrarouter.sol\":18915:19084  _addLiquidity(... */\n      jump\t// in\n    tag_441:\n        /* \"contracts/indrarouter.sol\":18888:19084  (amountToken, amountETH) = _addLiquidity(... */\n      swap1\n      swap5\n      pop\n      swap3\n      pop\n        /* \"contracts/indrarouter.sol\":19094:19106  address pair */\n      0x00\n        /* \"contracts/indrarouter.sol\":19109:19153  PancakeLibrary.pairFor(factory, token, WETH) */\n      tag_442\n        /* \"contracts/indrarouter.sol\":19132:19139  factory */\n      immutable(\"0xeba818bcee6eaba9d1a7c8e4d0732334c4e45617c48a8a0861c4ad844e6db671\")\n        /* \"contracts/indrarouter.sol\":19141:19146  token */\n      dup13\n        /* \"contracts/indrarouter.sol\":19148:19152  WETH */\n      immutable(\"0x229aeb8f3af31dca53a287d28e8ba0744a7f60e8208788a28095fa44a959baa9\")\n        /* \"contracts/indrarouter.sol\":19109:19131  PancakeLibrary.pairFor */\n      tag_208\n        /* \"contracts/indrarouter.sol\":19109:19153  PancakeLibrary.pairFor(factory, token, WETH) */\n      jump\t// in\n    tag_442:\n        /* \"contracts/indrarouter.sol\":19094:19153  address pair = PancakeLibrary.pairFor(factory, token, WETH) */\n      swap1\n      pop\n        /* \"contracts/indrarouter.sol\":19163:19232  TransferHelper.safeTransferFrom(token, msg.sender, pair, amountToken) */\n      tag_443\n        /* \"contracts/indrarouter.sol\":19195:19200  token */\n      dup12\n        /* \"contracts/indrarouter.sol\":19202:19212  msg.sender */\n      caller\n        /* \"contracts/indrarouter.sol\":19214:19218  pair */\n      dup4\n        /* \"contracts/indrarouter.sol\":19220:19231  amountToken */\n      dup9\n        /* \"contracts/indrarouter.sol\":19163:19194  TransferHelper.safeTransferFrom */\n      tag_210\n        /* \"contracts/indrarouter.sol\":19163:19232  TransferHelper.safeTransferFrom(token, msg.sender, pair, amountToken) */\n      jump\t// in\n    tag_443:\n        /* \"contracts/indrarouter.sol\":19248:19252  WETH */\n      immutable(\"0x229aeb8f3af31dca53a287d28e8ba0744a7f60e8208788a28095fa44a959baa9\")\n      sub(shl(0xa0, 0x01), 0x01)\n        /* \"contracts/indrarouter.sol\":19242:19261  IWETH(WETH).deposit */\n      and\n      0xd0e30db0\n        /* \"contracts/indrarouter.sol\":19269:19278  amountETH */\n      dup6\n        /* \"contracts/indrarouter.sol\":19242:19281  IWETH(WETH).deposit{value: amountETH}() */\n      mload(0x40)\n      dup3\n      0xffffffff\n      and\n      0xe0\n      shl\n      dup2\n      mstore\n      0x04\n      add\n      0x00\n      mload(0x40)\n      dup1\n      dup4\n      sub\n      dup2\n      dup6\n      dup9\n      dup1\n      extcodesize\n      iszero\n        /* \"--CODEGEN--\":5:14   */\n      dup1\n        /* \"--CODEGEN--\":2:4   */\n      iszero\n      tag_444\n      jumpi\n        /* \"--CODEGEN--\":27:28   */\n      0x00\n        /* \"--CODEGEN--\":24:25   */\n      dup1\n        /* \"--CODEGEN--\":17:29   */\n      revert\n        /* \"--CODEGEN--\":2:4   */\n    tag_444:\n        /* \"contracts/indrarouter.sol\":19242:19281  IWETH(WETH).deposit{value: amountETH}() */\n      pop\n      gas\n      call\n      iszero\n        /* \"--CODEGEN--\":8:17   */\n      dup1\n        /* \"--CODEGEN--\":5:7   */\n      iszero\n      tag_446\n      jumpi\n        /* \"--CODEGEN--\":45:61   */\n      returndatasize\n        /* \"--CODEGEN--\":42:43   */\n      0x00\n        /* \"--CODEGEN--\":39:40   */\n      dup1\n        /* \"--CODEGEN--\":24:62   */\n      returndatacopy\n        /* \"--CODEGEN--\":77:93   */\n      returndatasize\n        /* \"--CODEGEN--\":74:75   */\n      0x00\n        /* \"--CODEGEN--\":67:94   */\n      revert\n        /* \"--CODEGEN--\":5:7   */\n    tag_446:\n        /* \"contracts/indrarouter.sol\":19242:19281  IWETH(WETH).deposit{value: amountETH}() */\n      pop\n      pop\n      pop\n      pop\n      pop\n        /* \"contracts/indrarouter.sol\":19304:19308  WETH */\n      immutable(\"0x229aeb8f3af31dca53a287d28e8ba0744a7f60e8208788a28095fa44a959baa9\")\n      sub(shl(0xa0, 0x01), 0x01)\n        /* \"contracts/indrarouter.sol\":19298:19318  IWETH(WETH).transfer */\n      and\n      0xa9059cbb\n        /* \"contracts/indrarouter.sol\":19319:19323  pair */\n      dup3\n        /* \"contracts/indrarouter.sol\":19325:19334  amountETH */\n      dup7\n        /* \"contracts/indrarouter.sol\":19298:19335  IWETH(WETH).transfer(pair, amountETH) */\n      mload(0x40)\n      dup4\n      0xffffffff\n      and\n      0xe0\n      shl\n      dup2\n      mstore\n      0x04\n      add\n      dup1\n      dup4\n      sub(shl(0xa0, 0x01), 0x01)\n      and\n      sub(shl(0xa0, 0x01), 0x01)\n      and\n      dup2\n      mstore\n      0x20\n      add\n      dup3\n      dup2\n      mstore\n      0x20\n      add\n      swap3\n      pop\n      pop\n      pop\n      0x20\n      mload(0x40)\n      dup1\n      dup4\n      sub\n      dup2\n      0x00\n      dup8\n      dup1\n      extcodesize\n      iszero\n        /* \"--CODEGEN--\":5:14   */\n      dup1\n        /* \"--CODEGEN--\":2:4   */\n      iszero\n      tag_447\n      jumpi\n        /* \"--CODEGEN--\":27:28   */\n      0x00\n        /* \"--CODEGEN--\":24:25   */\n      dup1\n        /* \"--CODEGEN--\":17:29   */\n      revert\n        /* \"--CODEGEN--\":2:4   */\n    tag_447:\n        /* \"contracts/indrarouter.sol\":19298:19335  IWETH(WETH).transfer(pair, amountETH) */\n      pop\n      gas\n      call\n      iszero\n        /* \"--CODEGEN--\":8:17   */\n      dup1\n        /* \"--CODEGEN--\":5:7   */\n      iszero\n      tag_449\n      jumpi\n        /* \"--CODEGEN--\":45:61   */\n      returndatasize\n        /* \"--CODEGEN--\":42:43   */\n      0x00\n        /* \"--CODEGEN--\":39:40   */\n      dup1\n        /* \"--CODEGEN--\":24:62   */\n      returndatacopy\n        /* \"--CODEGEN--\":77:93   */\n      returndatasize\n        /* \"--CODEGEN--\":74:75   */\n      0x00\n        /* \"--CODEGEN--\":67:94   */\n      revert\n        /* \"--CODEGEN--\":5:7   */\n    tag_449:\n        /* \"contracts/indrarouter.sol\":19298:19335  IWETH(WETH).transfer(pair, amountETH) */\n      pop\n      pop\n      pop\n      pop\n      mload(0x40)\n      returndatasize\n        /* \"--CODEGEN--\":15:17   */\n      0x20\n        /* \"--CODEGEN--\":10:13   */\n      dup2\n        /* \"--CODEGEN--\":7:18   */\n      lt\n        /* \"--CODEGEN--\":4:6   */\n      iszero\n      tag_450\n      jumpi\n        /* \"--CODEGEN--\":31:32   */\n      0x00\n        /* \"--CODEGEN--\":28:29   */\n      dup1\n        /* \"--CODEGEN--\":21:33   */\n      revert\n        /* \"--CODEGEN--\":4:6   */\n    tag_450:\n      pop\n        /* \"contracts/indrarouter.sol\":19298:19335  IWETH(WETH).transfer(pair, amountETH) */\n      mload\n        /* \"contracts/indrarouter.sol\":19291:19336  assert(IWETH(WETH).transfer(pair, amountETH)) */\n      tag_451\n      jumpi\n      invalid\n    tag_451:\n        /* \"contracts/indrarouter.sol\":19371:19375  pair */\n      dup1\n      sub(shl(0xa0, 0x01), 0x01)\n        /* \"contracts/indrarouter.sol\":19358:19381  IPancakePair(pair).mint */\n      and\n      0x6a627842\n        /* \"contracts/indrarouter.sol\":19382:19384  to */\n      dup9\n        /* \"contracts/indrarouter.sol\":19358:19385  IPancakePair(pair).mint(to) */\n      mload(0x40)\n      dup3\n      0xffffffff\n      and\n      0xe0\n      shl\n      dup2\n      mstore\n      0x04\n      add\n      dup1\n      dup3\n      sub(shl(0xa0, 0x01), 0x01)\n      and\n      sub(shl(0xa0, 0x01), 0x01)\n      and\n      dup2\n      mstore\n      0x20\n      add\n      swap2\n      pop\n      pop\n      0x20\n      mload(0x40)\n      dup1\n      dup4\n      sub\n      dup2\n      0x00\n      dup8\n      dup1\n      extcodesize\n      iszero\n        /* \"--CODEGEN--\":5:14   */\n      dup1\n        /* \"--CODEGEN--\":2:4   */\n      iszero\n      tag_452\n      jumpi\n        /* \"--CODEGEN--\":27:28   */\n      0x00\n        /* \"--CODEGEN--\":24:25   */\n      dup1\n        /* \"--CODEGEN--\":17:29   */\n      revert\n        /* \"--CODEGEN--\":2:4   */\n    tag_452:\n        /* \"contracts/indrarouter.sol\":19358:19385  IPancakePair(pair).mint(to) */\n      pop\n      gas\n      call\n      iszero\n        /* \"--CODEGEN--\":8:17   */\n      dup1\n        /* \"--CODEGEN--\":5:7   */\n      iszero\n      tag_454\n      jumpi\n        /* \"--CODEGEN--\":45:61   */\n      returndatasize\n        /* \"--CODEGEN--\":42:43   */\n      0x00\n        /* \"--CODEGEN--\":39:40   */\n      dup1\n        /* \"--CODEGEN--\":24:62   */\n      returndatacopy\n        /* \"--CODEGEN--\":77:93   */\n      returndatasize\n        /* \"--CODEGEN--\":74:75   */\n      0x00\n        /* \"--CODEGEN--\":67:94   */\n      revert\n        /* \"--CODEGEN--\":5:7   */\n    tag_454:\n        /* \"contracts/indrarouter.sol\":19358:19385  IPancakePair(pair).mint(to) */\n      pop\n      pop\n      pop\n      pop\n      mload(0x40)\n      returndatasize\n        /* \"--CODEGEN--\":15:17   */\n      0x20\n        /* \"--CODEGEN--\":10:13   */\n      dup2\n        /* \"--CODEGEN--\":7:18   */\n      lt\n        /* \"--CODEGEN--\":4:6   */\n      iszero\n      tag_455\n      jumpi\n        /* \"--CODEGEN--\":31:32   */\n      0x00\n        /* \"--CODEGEN--\":28:29   */\n      dup1\n        /* \"--CODEGEN--\":21:33   */\n      revert\n        /* \"--CODEGEN--\":4:6   */\n    tag_455:\n      pop\n        /* \"contracts/indrarouter.sol\":19358:19385  IPancakePair(pair).mint(to) */\n      mload\n      swap3\n      pop\n        /* \"contracts/indrarouter.sol\":19434:19443  msg.value */\n      callvalue\n        /* \"contracts/indrarouter.sol\":19434:19455  msg.value > amountETH */\n      dup5\n      lt\n        /* \"contracts/indrarouter.sol\":19430:19522  if (msg.value > amountETH) TransferHelper.safeTransferETH(msg.sender, msg.value - amountETH) */\n      iszero\n      tag_457\n      jumpi\n        /* \"contracts/indrarouter.sol\":19457:19522  TransferHelper.safeTransferETH(msg.sender, msg.value - amountETH) */\n      tag_457\n        /* \"contracts/indrarouter.sol\":19488:19498  msg.sender */\n      caller\n        /* \"contracts/indrarouter.sol\":19512:19521  amountETH */\n      dup6\n        /* \"contracts/indrarouter.sol\":19500:19509  msg.value */\n      callvalue\n        /* \"contracts/indrarouter.sol\":19500:19521  msg.value - amountETH */\n      sub\n        /* \"contracts/indrarouter.sol\":19457:19487  TransferHelper.safeTransferETH */\n      tag_190\n        /* \"contracts/indrarouter.sol\":19457:19522  TransferHelper.safeTransferETH(msg.sender, msg.value - amountETH) */\n      jump\t// in\n    tag_457:\n        /* \"contracts/indrarouter.sol\":16213:16214  _ */\n      pop\n        /* \"contracts/indrarouter.sol\":18582:19529  function addLiquidityETH(... */\n      pop\n      swap7\n      pop\n      swap7\n      pop\n      swap7\n      swap4\n      pop\n      pop\n      pop\n      pop\n      jump\t// out\n        /* \"contracts/indrarouter.sol\":28199:28985  function swapETHForExactTokens(uint amountOut, address[] calldata path, address to, uint deadline)... */\n    tag_176:\n        /* \"contracts/indrarouter.sol\":28406:28427  uint[] memory amounts */\n      0x60\n        /* \"contracts/indrarouter.sol\":28379:28387  deadline */\n      dup2\n        /* \"contracts/indrarouter.sol\":16161:16176  block.timestamp */\n      timestamp\n        /* \"contracts/indrarouter.sol\":16149:16157  deadline */\n      dup2\n        /* \"contracts/indrarouter.sol\":16149:16176  deadline >= block.timestamp */\n      lt\n      iszero\n        /* \"contracts/indrarouter.sol\":16141:16203  require(deadline >= block.timestamp, 'PancakeRouter: EXPIRED') */\n      tag_459\n      jumpi\n      0x40\n      dup1\n      mload\n      shl(0xe5, 0x461bcd)\n      dup2\n      mstore\n      0x20\n      0x04\n      dup3\n      add\n      mstore\n      0x16\n      0x24\n      dup3\n      add\n      mstore\n      0x00\n      dup1\n      mload\n      0x20\n      data_48da24abbb1fac1ad424fc0d0ddda728b5e193f1888a852641dc2d17535faffb\n      dup4\n      codecopy\n      dup2\n      mload\n      swap2\n      mstore\n      0x44\n      dup3\n      add\n      mstore\n      swap1\n      mload\n      swap1\n      dup2\n      swap1\n      sub\n      0x64\n      add\n      swap1\n      revert\n    tag_459:\n        /* \"contracts/indrarouter.sol\":28462:28466  WETH */\n      immutable(\"0x229aeb8f3af31dca53a287d28e8ba0744a7f60e8208788a28095fa44a959baa9\")\n      sub(shl(0xa0, 0x01), 0x01)\n        /* \"contracts/indrarouter.sol\":28451:28466  path[0] == WETH */\n      and\n        /* \"contracts/indrarouter.sol\":28451:28455  path */\n      dup7\n      dup7\n        /* \"contracts/indrarouter.sol\":28456:28457  0 */\n      0x00\n        /* \"contracts/indrarouter.sol\":28451:28458  path[0] */\n      dup2\n      dup2\n      lt\n      tag_461\n      jumpi\n      invalid\n    tag_461:\n      swap1\n      pop\n      0x20\n      mul\n      add\n      calldataload\n      sub(shl(0xa0, 0x01), 0x01)\n      and\n      sub(shl(0xa0, 0x01), 0x01)\n        /* \"contracts/indrarouter.sol\":28451:28466  path[0] == WETH */\n      and\n      eq\n        /* \"contracts/indrarouter.sol\":28443:28498  require(path[0] == WETH, 'PancakeRouter: INVALID_PATH') */\n      tag_462\n      jumpi\n      0x40\n      dup1\n      mload\n      shl(0xe5, 0x461bcd)\n      dup2\n      mstore\n      0x20\n      0x04\n      dup3\n      add\n      mstore\n      0x1b\n      0x24\n      dup3\n      add\n      mstore\n      0x00\n      dup1\n      mload\n      0x20\n      data_82928200364a85809bf4a0b91c6d2eba6bdb5bd92df2e22eb8eef03222c3f531\n      dup4\n      codecopy\n      dup2\n      mload\n      swap2\n      mstore\n      0x44\n      dup3\n      add\n      mstore\n      swap1\n      mload\n      swap1\n      dup2\n      swap1\n      sub\n      0x64\n      add\n      swap1\n      revert\n    tag_462:\n        /* \"contracts/indrarouter.sol\":28518:28571  PancakeLibrary.getAmountsIn(factory, amountOut, path) */\n      tag_463\n        /* \"contracts/indrarouter.sol\":28546:28553  factory */\n      immutable(\"0xeba818bcee6eaba9d1a7c8e4d0732334c4e45617c48a8a0861c4ad844e6db671\")\n        /* \"contracts/indrarouter.sol\":28555:28564  amountOut */\n      dup9\n        /* \"contracts/indrarouter.sol\":28566:28570  path */\n      dup9\n      dup9\n        /* \"contracts/indrarouter.sol\":28518:28571  PancakeLibrary.getAmountsIn(factory, amountOut, path) */\n      dup1\n      dup1\n      0x20\n      mul\n      0x20\n      add\n      mload(0x40)\n      swap1\n      dup2\n      add\n      0x40\n      mstore\n      dup1\n      swap4\n      swap3\n      swap2\n      swap1\n      dup2\n      dup2\n      mstore\n      0x20\n      add\n      dup4\n      dup4\n      0x20\n      mul\n        /* \"--CODEGEN--\":30:33   */\n      dup1\n        /* \"--CODEGEN--\":22:28   */\n      dup3\n        /* \"--CODEGEN--\":14:20   */\n      dup5\n        /* \"--CODEGEN--\":1:34   */\n      calldatacopy\n        /* \"--CODEGEN--\":99:100   */\n      0x00\n        /* \"--CODEGEN--\":81:97   */\n      swap3\n      add\n        /* \"--CODEGEN--\":74:101   */\n      swap2\n      swap1\n      swap2\n      mstore\n      pop\n        /* \"contracts/indrarouter.sol\":28518:28545  PancakeLibrary.getAmountsIn */\n      tag_221\n      swap3\n      pop\n      pop\n      pop\n        /* \"contracts/indrarouter.sol\":28518:28571  PancakeLibrary.getAmountsIn(factory, amountOut, path) */\n      jump\t// in\n    tag_463:\n        /* \"contracts/indrarouter.sol\":28508:28571  amounts = PancakeLibrary.getAmountsIn(factory, amountOut, path) */\n      swap2\n      pop\n        /* \"contracts/indrarouter.sol\":28603:28612  msg.value */\n      callvalue\n        /* \"contracts/indrarouter.sol\":28589:28596  amounts */\n      dup3\n        /* \"contracts/indrarouter.sol\":28597:28598  0 */\n      0x00\n        /* \"contracts/indrarouter.sol\":28589:28599  amounts[0] */\n      dup2\n      mload\n      dup2\n      lt\n      tag_464\n      jumpi\n      invalid\n    tag_464:\n      0x20\n      mul\n      0x20\n      add\n      add\n      mload\n        /* \"contracts/indrarouter.sol\":28589:28612  amounts[0] <= msg.value */\n      gt\n      iszero\n        /* \"contracts/indrarouter.sol\":28581:28654  require(amounts[0] <= msg.value, 'PancakeRouter: EXCESSIVE_INPUT_AMOUNT') */\n      tag_465\n      jumpi\n      mload(0x40)\n      shl(0xe5, 0x461bcd)\n      dup2\n      mstore\n      0x04\n      add\n      dup1\n      dup1\n      0x20\n      add\n      dup3\n      dup2\n      sub\n      dup3\n      mstore\n      0x25\n      dup2\n      mstore\n      0x20\n      add\n      dup1\n      data_e6ebac85a9dcf9d43d23a00e3f0314a74ac256fe09f8252fc03ff2284a4761ee\n      0x25\n      swap2\n      codecopy\n      0x40\n      add\n      swap2\n      pop\n      pop\n      mload(0x40)\n      dup1\n      swap2\n      sub\n      swap1\n      revert\n    tag_465:\n        /* \"contracts/indrarouter.sol\":28670:28674  WETH */\n      immutable(\"0x229aeb8f3af31dca53a287d28e8ba0744a7f60e8208788a28095fa44a959baa9\")\n      sub(shl(0xa0, 0x01), 0x01)\n        /* \"contracts/indrarouter.sol\":28664:28683  IWETH(WETH).deposit */\n      and\n      0xd0e30db0\n        /* \"contracts/indrarouter.sol\":28691:28698  amounts */\n      dup4\n        /* \"contracts/indrarouter.sol\":28699:28700  0 */\n      0x00\n        /* \"contracts/indrarouter.sol\":28691:28701  amounts[0] */\n      dup2\n      mload\n      dup2\n      lt\n      tag_466\n      jumpi\n      invalid\n    tag_466:\n      0x20\n      mul\n      0x20\n      add\n      add\n      mload\n        /* \"contracts/indrarouter.sol\":28664:28704  IWETH(WETH).deposit{value: amounts[0]}() */\n      mload(0x40)\n      dup3\n      0xffffffff\n      and\n      0xe0\n      shl\n      dup2\n      mstore\n      0x04\n      add\n      0x00\n      mload(0x40)\n      dup1\n      dup4\n      sub\n      dup2\n      dup6\n      dup9\n      dup1\n      extcodesize\n      iszero\n        /* \"--CODEGEN--\":5:14   */\n      dup1\n        /* \"--CODEGEN--\":2:4   */\n      iszero\n      tag_467\n      jumpi\n        /* \"--CODEGEN--\":27:28   */\n      0x00\n        /* \"--CODEGEN--\":24:25   */\n      dup1\n        /* \"--CODEGEN--\":17:29   */\n      revert\n        /* \"--CODEGEN--\":2:4   */\n    tag_467:\n        /* \"contracts/indrarouter.sol\":28664:28704  IWETH(WETH).deposit{value: amounts[0]}() */\n      pop\n      gas\n      call\n      iszero\n        /* \"--CODEGEN--\":8:17   */\n      dup1\n        /* \"--CODEGEN--\":5:7   */\n      iszero\n      tag_469\n      jumpi\n        /* \"--CODEGEN--\":45:61   */\n      returndatasize\n        /* \"--CODEGEN--\":42:43   */\n      0x00\n        /* \"--CODEGEN--\":39:40   */\n      dup1\n        /* \"--CODEGEN--\":24:62   */\n      returndatacopy\n        /* \"--CODEGEN--\":77:93   */\n      returndatasize\n        /* \"--CODEGEN--\":74:75   */\n      0x00\n        /* \"--CODEGEN--\":67:94   */\n      revert\n        /* \"--CODEGEN--\":5:7   */\n    tag_469:\n        /* \"contracts/indrarouter.sol\":28664:28704  IWETH(WETH).deposit{value: amounts[0]}() */\n      pop\n      pop\n      pop\n      pop\n      pop\n        /* \"contracts/indrarouter.sol\":28727:28731  WETH */\n      immutable(\"0x229aeb8f3af31dca53a287d28e8ba0744a7f60e8208788a28095fa44a959baa9\")\n      sub(shl(0xa0, 0x01), 0x01)\n        /* \"contracts/indrarouter.sol\":28721:28741  IWETH(WETH).transfer */\n      and\n      0xa9059cbb\n        /* \"contracts/indrarouter.sol\":28742:28791  PancakeLibrary.pairFor(factory, path[0], path[1]) */\n      tag_470\n        /* \"contracts/indrarouter.sol\":28765:28772  factory */\n      immutable(\"0xeba818bcee6eaba9d1a7c8e4d0732334c4e45617c48a8a0861c4ad844e6db671\")\n        /* \"contracts/indrarouter.sol\":28774:28778  path */\n      dup10\n      dup10\n        /* \"contracts/indrarouter.sol\":28779:28780  0 */\n      0x00\n        /* \"contracts/indrarouter.sol\":28774:28781  path[0] */\n      dup2\n      dup2\n      lt\n      tag_278\n      jumpi\n      invalid\n        /* \"contracts/indrarouter.sol\":28742:28791  PancakeLibrary.pairFor(factory, path[0], path[1]) */\n    tag_470:\n        /* \"contracts/indrarouter.sol\":28793:28800  amounts */\n      dup5\n        /* \"contracts/indrarouter.sol\":28801:28802  0 */\n      0x00\n        /* \"contracts/indrarouter.sol\":28793:28803  amounts[0] */\n      dup2\n      mload\n      dup2\n      lt\n      tag_473\n      jumpi\n      invalid\n    tag_473:\n      0x20\n      mul\n      0x20\n      add\n      add\n      mload\n        /* \"contracts/indrarouter.sol\":28721:28804  IWETH(WETH).transfer(PancakeLibrary.pairFor(factory, path[0], path[1]), amounts[0]) */\n      mload(0x40)\n      dup4\n      0xffffffff\n      and\n      0xe0\n      shl\n      dup2\n      mstore\n      0x04\n      add\n      dup1\n      dup4\n      sub(shl(0xa0, 0x01), 0x01)\n      and\n      sub(shl(0xa0, 0x01), 0x01)\n      and\n      dup2\n      mstore\n      0x20\n      add\n      dup3\n      dup2\n      mstore\n      0x20\n      add\n      swap3\n      pop\n      pop\n      pop\n      0x20\n      mload(0x40)\n      dup1\n      dup4\n      sub\n      dup2\n      0x00\n      dup8\n      dup1\n      extcodesize\n      iszero\n        /* \"--CODEGEN--\":5:14   */\n      dup1\n        /* \"--CODEGEN--\":2:4   */\n      iszero\n      tag_474\n      jumpi\n        /* \"--CODEGEN--\":27:28   */\n      0x00\n        /* \"--CODEGEN--\":24:25   */\n      dup1\n        /* \"--CODEGEN--\":17:29   */\n      revert\n        /* \"--CODEGEN--\":2:4   */\n    tag_474:\n        /* \"contracts/indrarouter.sol\":28721:28804  IWETH(WETH).transfer(PancakeLibrary.pairFor(factory, path[0], path[1]), amounts[0]) */\n      pop\n      gas\n      call\n      iszero\n        /* \"--CODEGEN--\":8:17   */\n      dup1\n        /* \"--CODEGEN--\":5:7   */\n      iszero\n      tag_476\n      jumpi\n        /* \"--CODEGEN--\":45:61   */\n      returndatasize\n        /* \"--CODEGEN--\":42:43   */\n      0x00\n        /* \"--CODEGEN--\":39:40   */\n      dup1\n        /* \"--CODEGEN--\":24:62   */\n      returndatacopy\n        /* \"--CODEGEN--\":77:93   */\n      returndatasize\n        /* \"--CODEGEN--\":74:75   */\n      0x00\n        /* \"--CODEGEN--\":67:94   */\n      revert\n        /* \"--CODEGEN--\":5:7   */\n    tag_476:\n        /* \"contracts/indrarouter.sol\":28721:28804  IWETH(WETH).transfer(PancakeLibrary.pairFor(factory, path[0], path[1]), amounts[0]) */\n      pop\n      pop\n      pop\n      pop\n      mload(0x40)\n      returndatasize\n        /* \"--CODEGEN--\":15:17   */\n      0x20\n        /* \"--CODEGEN--\":10:13   */\n      dup2\n        /* \"--CODEGEN--\":7:18   */\n      lt\n        /* \"--CODEGEN--\":4:6   */\n      iszero\n      tag_477\n      jumpi\n        /* \"--CODEGEN--\":31:32   */\n      0x00\n        /* \"--CODEGEN--\":28:29   */\n      dup1\n        /* \"--CODEGEN--\":21:33   */\n      revert\n        /* \"--CODEGEN--\":4:6   */\n    tag_477:\n      pop\n        /* \"contracts/indrarouter.sol\":28721:28804  IWETH(WETH).transfer(PancakeLibrary.pairFor(factory, path[0], path[1]), amounts[0]) */\n      mload\n        /* \"contracts/indrarouter.sol\":28714:28805  assert(IWETH(WETH).transfer(PancakeLibrary.pairFor(factory, path[0], path[1]), amounts[0])) */\n      tag_478\n      jumpi\n      invalid\n    tag_478:\n        /* \"contracts/indrarouter.sol\":28815:28839  _swap(amounts, path, to) */\n      tag_479\n        /* \"contracts/indrarouter.sol\":28821:28828  amounts */\n      dup3\n        /* \"contracts/indrarouter.sol\":28830:28834  path */\n      dup8\n      dup8\n        /* \"contracts/indrarouter.sol\":28815:28839  _swap(amounts, path, to) */\n      dup1\n      dup1\n      0x20\n      mul\n      0x20\n      add\n      mload(0x40)\n      swap1\n      dup2\n      add\n      0x40\n      mstore\n      dup1\n      swap4\n      swap3\n      swap2\n      swap1\n      dup2\n      dup2\n      mstore\n      0x20\n      add\n      dup4\n      dup4\n      0x20\n      mul\n        /* \"--CODEGEN--\":30:33   */\n      dup1\n        /* \"--CODEGEN--\":22:28   */\n      dup3\n        /* \"--CODEGEN--\":14:20   */\n      dup5\n        /* \"--CODEGEN--\":1:34   */\n      calldatacopy\n        /* \"--CODEGEN--\":99:100   */\n      0x00\n        /* \"--CODEGEN--\":81:97   */\n      swap3\n      add\n        /* \"--CODEGEN--\":74:101   */\n      swap2\n      swap1\n      swap2\n      mstore\n      pop\n        /* \"contracts/indrarouter.sol\":28836:28838  to */\n      dup10\n      swap3\n      pop\n        /* \"contracts/indrarouter.sol\":28815:28820  _swap */\n      tag_212\n      swap2\n      pop\n      pop\n        /* \"contracts/indrarouter.sol\":28815:28839  _swap(amounts, path, to) */\n      jump\t// in\n    tag_479:\n        /* \"contracts/indrarouter.sol\":28900:28907  amounts */\n      dup2\n        /* \"contracts/indrarouter.sol\":28908:28909  0 */\n      0x00\n        /* \"contracts/indrarouter.sol\":28900:28910  amounts[0] */\n      dup2\n      mload\n      dup2\n      lt\n      tag_480\n      jumpi\n      invalid\n    tag_480:\n      0x20\n      mul\n      0x20\n      add\n      add\n      mload\n        /* \"contracts/indrarouter.sol\":28888:28897  msg.value */\n      callvalue\n        /* \"contracts/indrarouter.sol\":28888:28910  msg.value > amounts[0] */\n      gt\n        /* \"contracts/indrarouter.sol\":28884:28978  if (msg.value > amounts[0]) TransferHelper.safeTransferETH(msg.sender, msg.value - amounts[0]) */\n      iszero\n      tag_336\n      jumpi\n        /* \"contracts/indrarouter.sol\":28912:28978  TransferHelper.safeTransferETH(msg.sender, msg.value - amounts[0]) */\n      tag_336\n        /* \"contracts/indrarouter.sol\":28943:28953  msg.sender */\n      caller\n        /* \"contracts/indrarouter.sol\":28967:28974  amounts */\n      dup4\n        /* \"contracts/indrarouter.sol\":28975:28976  0 */\n      0x00\n        /* \"contracts/indrarouter.sol\":28967:28977  amounts[0] */\n      dup2\n      mload\n      dup2\n      lt\n      tag_483\n      jumpi\n      invalid\n    tag_483:\n      0x20\n      mul\n      0x20\n      add\n      add\n      mload\n        /* \"contracts/indrarouter.sol\":28955:28964  msg.value */\n      callvalue\n        /* \"contracts/indrarouter.sol\":28955:28977  msg.value - amounts[0] */\n      sub\n        /* \"contracts/indrarouter.sol\":28912:28942  TransferHelper.safeTransferETH */\n      tag_190\n        /* \"contracts/indrarouter.sol\":28912:28978  TransferHelper.safeTransferETH(msg.sender, msg.value - amounts[0]) */\n      jump\t// in\n        /* \"contracts/indrarouter.sol\":560:917  function safeTransfer(address token, address to, uint value) internal {... */\n    tag_185:\n        /* \"contracts/indrarouter.sol\":753:798  abi.encodeWithSelector(0xa9059cbb, to, value) */\n      0x40\n      dup1\n      mload\n      sub(shl(0xa0, 0x01), 0x01)\n      dup5\n      dup2\n      and\n      0x24\n      dup4\n      add\n      mstore\n      0x44\n      dup1\n      dup4\n      add\n      dup6\n      swap1\n      mstore\n      dup4\n      mload\n        /* \"--CODEGEN--\":26:47   */\n      dup1\n      dup5\n      sub\n        /* \"--CODEGEN--\":22:54   */\n      swap1\n      swap2\n      add\n        /* \"--CODEGEN--\":6:55   */\n      dup2\n      mstore\n        /* \"contracts/indrarouter.sol\":753:798  abi.encodeWithSelector(0xa9059cbb, to, value) */\n      0x64\n      swap1\n      swap3\n      add\n      dup4\n      mstore\n      0x20\n        /* \"--CODEGEN--\":25:43   */\n      dup3\n      add\n        /* \"--CODEGEN--\":61:78   */\n      dup1\n      mload\n      sub(shl(0xe0, 0x01), 0x01)\n        /* \"--CODEGEN--\":182:197   */\n      and\n      shl(0xe0, 0xa9059cbb)\n        /* \"--CODEGEN--\":179:208   */\n      or\n        /* \"--CODEGEN--\":160:209   */\n      dup2\n      mstore\n        /* \"contracts/indrarouter.sol\":742:799  token.call(abi.encodeWithSelector(0xa9059cbb, to, value)) */\n      swap3\n      mload\n      dup3\n      mload\n        /* \"contracts/indrarouter.sol\":707:719  bool success */\n      0x00\n      swap5\n        /* \"contracts/indrarouter.sol\":721:738  bytes memory data */\n      0x60\n      swap5\n        /* \"contracts/indrarouter.sol\":742:752  token.call */\n      swap4\n      dup10\n      and\n      swap4\n        /* \"contracts/indrarouter.sol\":753:798  abi.encodeWithSelector(0xa9059cbb, to, value) */\n      swap3\n        /* \"contracts/indrarouter.sol\":742:799  token.call(abi.encodeWithSelector(0xa9059cbb, to, value)) */\n      swap2\n      dup3\n      swap2\n        /* \"--CODEGEN--\":25:43   */\n      swap1\n        /* \"contracts/indrarouter.sol\":742:799  token.call(abi.encodeWithSelector(0xa9059cbb, to, value)) */\n      dup1\n      dup4\n        /* \"--CODEGEN--\":25:43   */\n      dup4\n        /* \"--CODEGEN--\":36:189   */\n    tag_485:\n        /* \"--CODEGEN--\":66:68   */\n      0x20\n        /* \"--CODEGEN--\":61:64   */\n      dup4\n        /* \"--CODEGEN--\":58:69   */\n      lt\n        /* \"--CODEGEN--\":36:189   */\n      tag_487\n      jumpi\n        /* \"--CODEGEN--\":176:186   */\n      dup1\n      mload\n        /* \"--CODEGEN--\":164:187   */\n      dup3\n      mstore\n      not(0x1f)\n        /* \"--CODEGEN--\":139:151   */\n      swap1\n      swap3\n      add\n      swap2\n        /* \"--CODEGEN--\":98:100   */\n      0x20\n        /* \"--CODEGEN--\":89:101   */\n      swap2\n      dup3\n      add\n      swap2\n        /* \"--CODEGEN--\":114:126   */\n      add\n        /* \"--CODEGEN--\":36:189   */\n      jump(tag_485)\n    tag_487:\n        /* \"--CODEGEN--\":274:275   */\n      0x01\n        /* \"--CODEGEN--\":267:270   */\n      dup4\n        /* \"--CODEGEN--\":263:265   */\n      0x20\n        /* \"--CODEGEN--\":259:271   */\n      sub\n        /* \"--CODEGEN--\":254:257   */\n      0x0100\n        /* \"--CODEGEN--\":250:272   */\n      exp\n        /* \"--CODEGEN--\":246:276   */\n      sub\n        /* \"--CODEGEN--\":315:319   */\n      dup1\n        /* \"--CODEGEN--\":311:320   */\n      not\n        /* \"--CODEGEN--\":305:308   */\n      dup3\n        /* \"--CODEGEN--\":299:309   */\n      mload\n        /* \"--CODEGEN--\":295:321   */\n      and\n        /* \"--CODEGEN--\":356:360   */\n      dup2\n        /* \"--CODEGEN--\":350:353   */\n      dup5\n        /* \"--CODEGEN--\":344:354   */\n      mload\n        /* \"--CODEGEN--\":340:361   */\n      and\n        /* \"--CODEGEN--\":389:396   */\n      dup1\n        /* \"--CODEGEN--\":380:387   */\n      dup3\n        /* \"--CODEGEN--\":377:397   */\n      or\n        /* \"--CODEGEN--\":372:375   */\n      dup6\n        /* \"--CODEGEN--\":365:398   */\n      mstore\n        /* \"--CODEGEN--\":3:402   */\n      pop\n      pop\n      pop\n        /* \"contracts/indrarouter.sol\":742:799  token.call(abi.encodeWithSelector(0xa9059cbb, to, value)) */\n      pop\n      pop\n      pop\n      swap1\n      pop\n      add\n      swap2\n      pop\n      pop\n      0x00\n      mload(0x40)\n      dup1\n      dup4\n      sub\n      dup2\n      0x00\n      dup7\n      gas\n      call\n      swap2\n      pop\n      pop\n      returndatasize\n        /* \"--CODEGEN--\":12:13   */\n      dup1\n        /* \"--CODEGEN--\":19:20   */\n      0x00\n        /* \"--CODEGEN--\":14:41   */\n      dup2\n      eq\n      tag_490\n      jumpi\n        /* \"--CODEGEN--\":67:71   */\n      0x40\n        /* \"--CODEGEN--\":61:72   */\n      mload\n        /* \"--CODEGEN--\":56:72   */\n      swap2\n      pop\n        /* \"--CODEGEN--\":134:138   */\n      0x1f\n        /* \"--CODEGEN--\":130:139   */\n      not\n        /* \"--CODEGEN--\":123:127   */\n      0x3f\n        /* \"--CODEGEN--\":105:121   */\n      returndatasize\n        /* \"--CODEGEN--\":101:128   */\n      add\n        /* \"--CODEGEN--\":97:140   */\n      and\n        /* \"--CODEGEN--\":94:95   */\n      dup3\n        /* \"--CODEGEN--\":90:141   */\n      add\n        /* \"--CODEGEN--\":84:88   */\n      0x40\n        /* \"--CODEGEN--\":77:142   */\n      mstore\n        /* \"--CODEGEN--\":157:173   */\n      returndatasize\n        /* \"--CODEGEN--\":154:155   */\n      dup3\n        /* \"--CODEGEN--\":147:174   */\n      mstore\n        /* \"--CODEGEN--\":211:227   */\n      returndatasize\n        /* \"--CODEGEN--\":208:209   */\n      0x00\n        /* \"--CODEGEN--\":201:205   */\n      0x20\n        /* \"--CODEGEN--\":198:199   */\n      dup5\n        /* \"--CODEGEN--\":194:206   */\n      add\n        /* \"--CODEGEN--\":179:228   */\n      returndatacopy\n        /* \"--CODEGEN--\":5:233   */\n      jump(tag_489)\n        /* \"--CODEGEN--\":14:41   */\n    tag_490:\n        /* \"--CODEGEN--\":32:36   */\n      0x60\n        /* \"--CODEGEN--\":27:36   */\n      swap2\n      pop\n        /* \"--CODEGEN--\":5:233   */\n    tag_489:\n      pop\n        /* \"contracts/indrarouter.sol\":706:799  (bool success, bytes memory data) = token.call(abi.encodeWithSelector(0xa9059cbb, to, value)) */\n      swap2\n      pop\n      swap2\n      pop\n        /* \"contracts/indrarouter.sol\":817:824  success */\n      dup2\n        /* \"contracts/indrarouter.sol\":817:874  success && (data.length == 0 || abi.decode(data, (bool))) */\n      dup1\n      iszero\n      tag_492\n      jumpi\n      pop\n        /* \"contracts/indrarouter.sol\":829:840  data.length */\n      dup1\n      mload\n        /* \"contracts/indrarouter.sol\":829:845  data.length == 0 */\n      iszero\n      dup1\n        /* \"contracts/indrarouter.sol\":829:873  data.length == 0 || abi.decode(data, (bool)) */\n      tag_492\n      jumpi\n      pop\n        /* \"contracts/indrarouter.sol\":860:864  data */\n      dup1\n        /* \"contracts/indrarouter.sol\":849:873  abi.decode(data, (bool)) */\n      dup1\n      0x20\n      add\n      swap1\n      mload\n        /* \"--CODEGEN--\":15:17   */\n      0x20\n        /* \"--CODEGEN--\":10:13   */\n      dup2\n        /* \"--CODEGEN--\":7:18   */\n      lt\n        /* \"--CODEGEN--\":4:6   */\n      iszero\n      tag_493\n      jumpi\n        /* \"--CODEGEN--\":31:32   */\n      0x00\n        /* \"--CODEGEN--\":28:29   */\n      dup1\n        /* \"--CODEGEN--\":21:33   */\n      revert\n        /* \"--CODEGEN--\":4:6   */\n    tag_493:\n      pop\n        /* \"contracts/indrarouter.sol\":849:873  abi.decode(data, (bool)) */\n      mload\n        /* \"contracts/indrarouter.sol\":829:873  data.length == 0 || abi.decode(data, (bool)) */\n    tag_492:\n        /* \"contracts/indrarouter.sol\":809:910  require(success && (data.length == 0 || abi.decode(data, (bool))), 'TransferHelper: TRANSFER_FAILED') */\n      tag_494\n      jumpi\n      0x40\n      dup1\n      mload\n      shl(0xe5, 0x461bcd)\n      dup2\n      mstore\n      0x20\n      0x04\n      dup3\n      add\n      mstore\n      0x1f\n      0x24\n      dup3\n      add\n      mstore\n      0x5472616e7366657248656c7065723a205452414e534645525f4641494c454400\n      0x44\n      dup3\n      add\n      mstore\n      swap1\n      mload\n      swap1\n      dup2\n      swap1\n      sub\n      0x64\n      add\n      swap1\n      revert\n    tag_494:\n        /* \"contracts/indrarouter.sol\":560:917  function safeTransfer(address token, address to, uint value) internal {... */\n      pop\n      pop\n      pop\n      pop\n      pop\n      jump\t// out\n        /* \"contracts/indrarouter.sol\":1327:1519  function safeTransferETH(address to, uint value) internal {... */\n    tag_190:\n        /* \"contracts/indrarouter.sol\":1434:1446  new bytes(0) */\n      0x40\n      dup1\n      mload\n        /* \"contracts/indrarouter.sol\":1396:1408  bool success */\n      0x00\n        /* \"contracts/indrarouter.sol\":1434:1446  new bytes(0) */\n      dup1\n      dup3\n      mstore\n      0x20\n      dup3\n      add\n      swap1\n      swap3\n      mstore\n      sub(shl(0xa0, 0x01), 0x01)\n        /* \"contracts/indrarouter.sol\":1413:1420  to.call */\n      dup5\n      and\n      swap1\n        /* \"contracts/indrarouter.sol\":1427:1432  value */\n      dup4\n      swap1\n        /* \"contracts/indrarouter.sol\":1413:1447  to.call{value:value}(new bytes(0)) */\n      mload(0x40)\n      dup1\n      dup3\n      dup1\n      mload\n      swap1\n      0x20\n      add\n      swap1\n      dup1\n      dup4\n      dup4\n        /* \"--CODEGEN--\":36:189   */\n    tag_498:\n        /* \"--CODEGEN--\":66:68   */\n      0x20\n        /* \"--CODEGEN--\":61:64   */\n      dup4\n        /* \"--CODEGEN--\":58:69   */\n      lt\n        /* \"--CODEGEN--\":36:189   */\n      tag_500\n      jumpi\n        /* \"--CODEGEN--\":176:186   */\n      dup1\n      mload\n        /* \"--CODEGEN--\":164:187   */\n      dup3\n      mstore\n      not(0x1f)\n        /* \"--CODEGEN--\":139:151   */\n      swap1\n      swap3\n      add\n      swap2\n        /* \"--CODEGEN--\":98:100   */\n      0x20\n        /* \"--CODEGEN--\":89:101   */\n      swap2\n      dup3\n      add\n      swap2\n        /* \"--CODEGEN--\":114:126   */\n      add\n        /* \"--CODEGEN--\":36:189   */\n      jump(tag_498)\n    tag_500:\n        /* \"--CODEGEN--\":274:275   */\n      0x01\n        /* \"--CODEGEN--\":267:270   */\n      dup4\n        /* \"--CODEGEN--\":263:265   */\n      0x20\n        /* \"--CODEGEN--\":259:271   */\n      sub\n        /* \"--CODEGEN--\":254:257   */\n      0x0100\n        /* \"--CODEGEN--\":250:272   */\n      exp\n        /* \"--CODEGEN--\":246:276   */\n      sub\n        /* \"--CODEGEN--\":315:319   */\n      dup1\n        /* \"--CODEGEN--\":311:320   */\n      not\n        /* \"--CODEGEN--\":305:308   */\n      dup3\n        /* \"--CODEGEN--\":299:309   */\n      mload\n        /* \"--CODEGEN--\":295:321   */\n      and\n        /* \"--CODEGEN--\":356:360   */\n      dup2\n        /* \"--CODEGEN--\":350:353   */\n      dup5\n        /* \"--CODEGEN--\":344:354   */\n      mload\n        /* \"--CODEGEN--\":340:361   */\n      and\n        /* \"--CODEGEN--\":389:396   */\n      dup1\n        /* \"--CODEGEN--\":380:387   */\n      dup3\n        /* \"--CODEGEN--\":377:397   */\n      or\n        /* \"--CODEGEN--\":372:375   */\n      dup6\n        /* \"--CODEGEN--\":365:398   */\n      mstore\n        /* \"--CODEGEN--\":3:402   */\n      pop\n      pop\n      pop\n        /* \"contracts/indrarouter.sol\":1413:1447  to.call{value:value}(new bytes(0)) */\n      pop\n      pop\n      pop\n      swap1\n      pop\n      add\n      swap2\n      pop\n      pop\n      0x00\n      mload(0x40)\n      dup1\n      dup4\n      sub\n      dup2\n      dup6\n      dup8\n      gas\n      call\n      swap3\n      pop\n      pop\n      pop\n      returndatasize\n        /* \"--CODEGEN--\":12:13   */\n      dup1\n        /* \"--CODEGEN--\":19:20   */\n      0x00\n        /* \"--CODEGEN--\":14:41   */\n      dup2\n      eq\n      tag_503\n      jumpi\n        /* \"--CODEGEN--\":67:71   */\n      0x40\n        /* \"--CODEGEN--\":61:72   */\n      mload\n        /* \"--CODEGEN--\":56:72   */\n      swap2\n      pop\n        /* \"--CODEGEN--\":134:138   */\n      0x1f\n        /* \"--CODEGEN--\":130:139   */\n      not\n        /* \"--CODEGEN--\":123:127   */\n      0x3f\n        /* \"--CODEGEN--\":105:121   */\n      returndatasize\n        /* \"--CODEGEN--\":101:128   */\n      add\n        /* \"--CODEGEN--\":97:140   */\n      and\n        /* \"--CODEGEN--\":94:95   */\n      dup3\n        /* \"--CODEGEN--\":90:141   */\n      add\n        /* \"--CODEGEN--\":84:88   */\n      0x40\n        /* \"--CODEGEN--\":77:142   */\n      mstore\n        /* \"--CODEGEN--\":157:173   */\n      returndatasize\n        /* \"--CODEGEN--\":154:155   */\n      dup3\n        /* \"--CODEGEN--\":147:174   */\n      mstore\n        /* \"--CODEGEN--\":211:227   */\n      returndatasize\n        /* \"--CODEGEN--\":208:209   */\n      0x00\n        /* \"--CODEGEN--\":201:205   */\n      0x20\n        /* \"--CODEGEN--\":198:199   */\n      dup5\n        /* \"--CODEGEN--\":194:206   */\n      add\n        /* \"--CODEGEN--\":179:228   */\n      returndatacopy\n        /* \"--CODEGEN--\":5:233   */\n      jump(tag_502)\n        /* \"--CODEGEN--\":14:41   */\n    tag_503:\n        /* \"--CODEGEN--\":32:36   */\n      0x60\n        /* \"--CODEGEN--\":27:36   */\n      swap2\n      pop\n        /* \"--CODEGEN--\":5:233   */\n    tag_502:\n      pop\n        /* \"contracts/indrarouter.sol\":1395:1447  (bool success,) = to.call{value:value}(new bytes(0)) */\n      pop\n      swap1\n      pop\n        /* \"contracts/indrarouter.sol\":1465:1472  success */\n      dup1\n        /* \"contracts/indrarouter.sol\":1457:1512  require(success, 'TransferHelper: ETH_TRANSFER_FAILED') */\n      tag_504\n      jumpi\n      mload(0x40)\n      shl(0xe5, 0x461bcd)\n      dup2\n      mstore\n      0x04\n      add\n      dup1\n      dup1\n      0x20\n      add\n      dup3\n      dup2\n      sub\n      dup3\n      mstore\n      0x23\n      dup2\n      mstore\n      0x20\n      add\n      dup1\n      data_d290720a9b119bbeaf8124eb771e119cbea85a2f430cbb39a8fead2398528881\n      0x23\n      swap2\n      codecopy\n      0x40\n      add\n      swap2\n      pop\n      pop\n      mload(0x40)\n      dup1\n      swap2\n      sub\n      swap1\n      revert\n    tag_504:\n        /* \"contracts/indrarouter.sol\":1327:1519  function safeTransferETH(address to, uint value) internal {... */\n      pop\n      pop\n      pop\n      jump\t// out\n        /* \"contracts/indrarouter.sol\":12482:12990  function getAmountOut(uint amountIn, uint reserveIn, uint reserveOut) internal pure returns (uint amountOut) {... */\n    tag_193:\n        /* \"contracts/indrarouter.sol\":12575:12589  uint amountOut */\n      0x00\n        /* \"contracts/indrarouter.sol\":12620:12621  0 */\n      dup1\n        /* \"contracts/indrarouter.sol\":12609:12617  amountIn */\n      dup5\n        /* \"contracts/indrarouter.sol\":12609:12621  amountIn > 0 */\n      gt\n        /* \"contracts/indrarouter.sol\":12601:12667  require(amountIn > 0, 'PancakeLibrary: INSUFFICIENT_INPUT_AMOUNT') */\n      tag_506\n      jumpi\n      mload(0x40)\n      shl(0xe5, 0x461bcd)\n      dup2\n      mstore\n      0x04\n      add\n      dup1\n      dup1\n      0x20\n      add\n      dup3\n      dup2\n      sub\n      dup3\n      mstore\n      0x29\n      dup2\n      mstore\n      0x20\n      add\n      dup1\n      data_14085ca7574f8785a82278031a3e9bccdeb82648f2bdc61f16978097f27af39a\n      0x29\n      swap2\n      codecopy\n      0x40\n      add\n      swap2\n      pop\n      pop\n      mload(0x40)\n      dup1\n      swap2\n      sub\n      swap1\n      revert\n    tag_506:\n        /* \"contracts/indrarouter.sol\":12697:12698  0 */\n      0x00\n        /* \"contracts/indrarouter.sol\":12685:12694  reserveIn */\n      dup4\n        /* \"contracts/indrarouter.sol\":12685:12698  reserveIn > 0 */\n      gt\n        /* \"contracts/indrarouter.sol\":12685:12716  reserveIn > 0 && reserveOut > 0 */\n      dup1\n      iszero\n      tag_507\n      jumpi\n      pop\n        /* \"contracts/indrarouter.sol\":12715:12716  0 */\n      0x00\n        /* \"contracts/indrarouter.sol\":12702:12712  reserveOut */\n      dup3\n        /* \"contracts/indrarouter.sol\":12702:12716  reserveOut > 0 */\n      gt\n        /* \"contracts/indrarouter.sol\":12685:12716  reserveIn > 0 && reserveOut > 0 */\n    tag_507:\n        /* \"contracts/indrarouter.sol\":12677:12759  require(reserveIn > 0 && reserveOut > 0, 'PancakeLibrary: INSUFFICIENT_LIQUIDITY') */\n      tag_508\n      jumpi\n      mload(0x40)\n      shl(0xe5, 0x461bcd)\n      dup2\n      mstore\n      0x04\n      add\n      dup1\n      dup1\n      0x20\n      add\n      dup3\n      dup2\n      sub\n      dup3\n      mstore\n      0x26\n      dup2\n      mstore\n      0x20\n      add\n      dup1\n      data_e7f79b6b909ed2023c6e79d88a862542f92041db19a71970a37e18b3fc8ff469\n      0x26\n      swap2\n      codecopy\n      0x40\n      add\n      swap2\n      pop\n      pop\n      mload(0x40)\n      dup1\n      swap2\n      sub\n      swap1\n      revert\n    tag_508:\n        /* \"contracts/indrarouter.sol\":12769:12789  uint amountInWithFee */\n      0x00\n        /* \"contracts/indrarouter.sol\":12792:12810  amountIn.mul(9975) */\n      tag_509\n        /* \"contracts/indrarouter.sol\":12792:12800  amountIn */\n      dup6\n        /* \"contracts/indrarouter.sol\":12805:12809  9975 */\n      0x26f7\n        /* \"contracts/indrarouter.sol\":12792:12810  amountIn.mul(9975) */\n      0xffffffff\n        /* \"contracts/indrarouter.sol\":12792:12804  amountIn.mul */\n      tag_510\n        /* \"contracts/indrarouter.sol\":12792:12810  amountIn.mul(9975) */\n      and\n      jump\t// in\n    tag_509:\n        /* \"contracts/indrarouter.sol\":12769:12810  uint amountInWithFee = amountIn.mul(9975) */\n      swap1\n      pop\n        /* \"contracts/indrarouter.sol\":12820:12834  uint numerator */\n      0x00\n        /* \"contracts/indrarouter.sol\":12837:12868  amountInWithFee.mul(reserveOut) */\n      tag_511\n        /* \"contracts/indrarouter.sol\":12769:12810  uint amountInWithFee = amountIn.mul(9975) */\n      dup3\n        /* \"contracts/indrarouter.sol\":12857:12867  reserveOut */\n      dup6\n        /* \"contracts/indrarouter.sol\":12837:12868  amountInWithFee.mul(reserveOut) */\n      0xffffffff\n        /* \"contracts/indrarouter.sol\":12837:12856  amountInWithFee.mul */\n      tag_510\n        /* \"contracts/indrarouter.sol\":12837:12868  amountInWithFee.mul(reserveOut) */\n      and\n      jump\t// in\n    tag_511:\n        /* \"contracts/indrarouter.sol\":12820:12868  uint numerator = amountInWithFee.mul(reserveOut) */\n      swap1\n      pop\n        /* \"contracts/indrarouter.sol\":12878:12894  uint denominator */\n      0x00\n        /* \"contracts/indrarouter.sol\":12897:12938  reserveIn.mul(10000).add(amountInWithFee) */\n      tag_512\n        /* \"contracts/indrarouter.sol\":12922:12937  amountInWithFee */\n      dup4\n        /* \"contracts/indrarouter.sol\":12897:12917  reserveIn.mul(10000) */\n      tag_513\n        /* \"contracts/indrarouter.sol\":12897:12906  reserveIn */\n      dup9\n        /* \"contracts/indrarouter.sol\":12911:12916  10000 */\n      0x2710\n        /* \"contracts/indrarouter.sol\":12897:12917  reserveIn.mul(10000) */\n      0xffffffff\n        /* \"contracts/indrarouter.sol\":12897:12910  reserveIn.mul */\n      tag_510\n        /* \"contracts/indrarouter.sol\":12897:12917  reserveIn.mul(10000) */\n      and\n      jump\t// in\n    tag_513:\n        /* \"contracts/indrarouter.sol\":12897:12921  reserveIn.mul(10000).add */\n      swap1\n        /* \"contracts/indrarouter.sol\":12897:12938  reserveIn.mul(10000).add(amountInWithFee) */\n      0xffffffff\n        /* \"contracts/indrarouter.sol\":12897:12921  reserveIn.mul(10000).add */\n      tag_514\n        /* \"contracts/indrarouter.sol\":12897:12938  reserveIn.mul(10000).add(amountInWithFee) */\n      and\n      jump\t// in\n    tag_512:\n        /* \"contracts/indrarouter.sol\":12878:12938  uint denominator = reserveIn.mul(10000).add(amountInWithFee) */\n      swap1\n      pop\n        /* \"contracts/indrarouter.sol\":12972:12983  denominator */\n      dup1\n        /* \"contracts/indrarouter.sol\":12960:12969  numerator */\n      dup3\n        /* \"contracts/indrarouter.sol\":12960:12983  numerator / denominator */\n      dup2\n      tag_515\n      jumpi\n      invalid\n    tag_515:\n      div\n      swap8\n        /* \"contracts/indrarouter.sol\":12482:12990  function getAmountOut(uint amountIn, uint reserveIn, uint reserveOut) internal pure returns (uint amountOut) {... */\n      swap7\n      pop\n      pop\n      pop\n      pop\n      pop\n      pop\n      pop\n      jump\t// out\n        /* \"contracts/indrarouter.sol\":13651:14152  function getAmountsOut(address factory, uint amountIn, address[] memory path) internal view returns (uint[] memory amounts) {... */\n    tag_200:\n        /* \"contracts/indrarouter.sol\":13752:13773  uint[] memory amounts */\n      0x60\n        /* \"contracts/indrarouter.sol\":13808:13809  2 */\n      0x02\n        /* \"contracts/indrarouter.sol\":13793:13797  path */\n      dup3\n        /* \"contracts/indrarouter.sol\":13793:13804  path.length */\n      mload\n        /* \"contracts/indrarouter.sol\":13793:13809  path.length >= 2 */\n      lt\n      iszero\n        /* \"contracts/indrarouter.sol\":13785:13842  require(path.length >= 2, 'PancakeLibrary: INVALID_PATH') */\n      tag_517\n      jumpi\n      0x40\n      dup1\n      mload\n      shl(0xe5, 0x461bcd)\n      dup2\n      mstore\n      0x20\n      0x04\n      dup3\n      add\n      mstore\n      0x1c\n      0x24\n      dup3\n      add\n      mstore\n      0x50616e63616b654c6962726172793a20494e56414c49445f5041544800000000\n      0x44\n      dup3\n      add\n      mstore\n      swap1\n      mload\n      swap1\n      dup2\n      swap1\n      sub\n      0x64\n      add\n      swap1\n      revert\n    tag_517:\n        /* \"contracts/indrarouter.sol\":13873:13877  path */\n      dup2\n        /* \"contracts/indrarouter.sol\":13873:13884  path.length */\n      mload\n        /* \"contracts/indrarouter.sol\":13862:13885  new uint[](path.length) */\n      0xffffffffffffffff\n      dup2\n      gt\n        /* \"--CODEGEN--\":5:14   */\n      dup1\n        /* \"--CODEGEN--\":2:4   */\n      iszero\n      tag_518\n      jumpi\n        /* \"--CODEGEN--\":27:28   */\n      0x00\n        /* \"--CODEGEN--\":24:25   */\n      dup1\n        /* \"--CODEGEN--\":17:29   */\n      revert\n        /* \"--CODEGEN--\":2:4   */\n    tag_518:\n        /* \"contracts/indrarouter.sol\":13862:13885  new uint[](path.length) */\n      pop\n      mload(0x40)\n      swap1\n      dup1\n      dup3\n      mstore\n      dup1\n      0x20\n      mul\n      0x20\n      add\n      dup3\n      add\n      0x40\n      mstore\n      dup1\n      iszero\n      tag_519\n      jumpi\n      dup2\n      0x20\n      add\n        /* \"--CODEGEN--\":29:31   */\n      0x20\n        /* \"--CODEGEN--\":21:27   */\n      dup3\n        /* \"--CODEGEN--\":17:32   */\n      mul\n        /* \"--CODEGEN--\":125:129   */\n      dup1\n        /* \"--CODEGEN--\":109:123   */\n      calldatasize\n        /* \"--CODEGEN--\":101:107   */\n      dup4\n        /* \"--CODEGEN--\":88:130   */\n      calldatacopy\n        /* \"--CODEGEN--\":144:161   */\n      add\n      swap1\n      pop\n        /* \"contracts/indrarouter.sol\":13862:13885  new uint[](path.length) */\n    tag_519:\n      pop\n        /* \"contracts/indrarouter.sol\":13852:13885  amounts = new uint[](path.length) */\n      swap1\n      pop\n        /* \"contracts/indrarouter.sol\":13908:13916  amountIn */\n      dup3\n        /* \"contracts/indrarouter.sol\":13895:13902  amounts */\n      dup2\n        /* \"contracts/indrarouter.sol\":13903:13904  0 */\n      0x00\n        /* \"contracts/indrarouter.sol\":13895:13905  amounts[0] */\n      dup2\n      mload\n      dup2\n      lt\n      tag_520\n      jumpi\n      invalid\n    tag_520:\n      0x20\n      mul\n      0x20\n      add\n      add\n        /* \"contracts/indrarouter.sol\":13895:13916  amounts[0] = amountIn */\n      dup2\n      dup2\n      mstore\n      pop\n      pop\n        /* \"contracts/indrarouter.sol\":13931:13937  uint i */\n      0x00\n        /* \"contracts/indrarouter.sol\":13926:14146  for (uint i; i < path.length - 1; i++) {... */\n    tag_521:\n        /* \"contracts/indrarouter.sol\":13957:13958  1 */\n      0x01\n        /* \"contracts/indrarouter.sol\":13943:13947  path */\n      dup4\n        /* \"contracts/indrarouter.sol\":13943:13954  path.length */\n      mload\n        /* \"contracts/indrarouter.sol\":13943:13958  path.length - 1 */\n      sub\n        /* \"contracts/indrarouter.sol\":13939:13940  i */\n      dup2\n        /* \"contracts/indrarouter.sol\":13939:13958  i < path.length - 1 */\n      lt\n        /* \"contracts/indrarouter.sol\":13926:14146  for (uint i; i < path.length - 1; i++) {... */\n      iszero\n      tag_522\n      jumpi\n        /* \"contracts/indrarouter.sol\":13980:13994  uint reserveIn */\n      0x00\n        /* \"contracts/indrarouter.sol\":13996:14011  uint reserveOut */\n      dup1\n        /* \"contracts/indrarouter.sol\":14015:14057  getReserves(factory, path[i], path[i + 1]) */\n      tag_524\n        /* \"contracts/indrarouter.sol\":14027:14034  factory */\n      dup8\n        /* \"contracts/indrarouter.sol\":14036:14040  path */\n      dup7\n        /* \"contracts/indrarouter.sol\":14041:14042  i */\n      dup6\n        /* \"contracts/indrarouter.sol\":14036:14043  path[i] */\n      dup2\n      mload\n      dup2\n      lt\n      tag_525\n      jumpi\n      invalid\n    tag_525:\n      0x20\n      mul\n      0x20\n      add\n      add\n      mload\n        /* \"contracts/indrarouter.sol\":14045:14049  path */\n      dup8\n        /* \"contracts/indrarouter.sol\":14050:14051  i */\n      dup7\n        /* \"contracts/indrarouter.sol\":14054:14055  1 */\n      0x01\n        /* \"contracts/indrarouter.sol\":14050:14055  i + 1 */\n      add\n        /* \"contracts/indrarouter.sol\":14045:14056  path[i + 1] */\n      dup2\n      mload\n      dup2\n      lt\n      tag_526\n      jumpi\n      invalid\n    tag_526:\n      0x20\n      mul\n      0x20\n      add\n      add\n      mload\n        /* \"contracts/indrarouter.sol\":14015:14026  getReserves */\n      tag_527\n        /* \"contracts/indrarouter.sol\":14015:14057  getReserves(factory, path[i], path[i + 1]) */\n      jump\t// in\n    tag_524:\n        /* \"contracts/indrarouter.sol\":13979:14057  (uint reserveIn, uint reserveOut) = getReserves(factory, path[i], path[i + 1]) */\n      swap2\n      pop\n      swap2\n      pop\n        /* \"contracts/indrarouter.sol\":14088:14135  getAmountOut(amounts[i], reserveIn, reserveOut) */\n      tag_528\n        /* \"contracts/indrarouter.sol\":14101:14108  amounts */\n      dup5\n        /* \"contracts/indrarouter.sol\":14109:14110  i */\n      dup5\n        /* \"contracts/indrarouter.sol\":14101:14111  amounts[i] */\n      dup2\n      mload\n      dup2\n      lt\n      tag_529\n      jumpi\n      invalid\n    tag_529:\n      0x20\n      mul\n      0x20\n      add\n      add\n      mload\n        /* \"contracts/indrarouter.sol\":14113:14122  reserveIn */\n      dup4\n        /* \"contracts/indrarouter.sol\":14124:14134  reserveOut */\n      dup4\n        /* \"contracts/indrarouter.sol\":14088:14100  getAmountOut */\n      tag_193\n        /* \"contracts/indrarouter.sol\":14088:14135  getAmountOut(amounts[i], reserveIn, reserveOut) */\n      jump\t// in\n    tag_528:\n        /* \"contracts/indrarouter.sol\":14071:14078  amounts */\n      dup5\n        /* \"contracts/indrarouter.sol\":14079:14080  i */\n      dup5\n        /* \"contracts/indrarouter.sol\":14083:14084  1 */\n      0x01\n        /* \"contracts/indrarouter.sol\":14079:14084  i + 1 */\n      add\n        /* \"contracts/indrarouter.sol\":14071:14085  amounts[i + 1] */\n      dup2\n      mload\n      dup2\n      lt\n      tag_530\n      jumpi\n      invalid\n    tag_530:\n      0x20\n      swap1\n      dup2\n      mul\n      swap2\n      swap1\n      swap2\n      add\n      add\n        /* \"contracts/indrarouter.sol\":14071:14135  amounts[i + 1] = getAmountOut(amounts[i], reserveIn, reserveOut) */\n      mstore\n      pop\n      pop\n        /* \"contracts/indrarouter.sol\":13960:13963  i++ */\n      0x01\n      add\n        /* \"contracts/indrarouter.sol\":13926:14146  for (uint i; i < path.length - 1; i++) {... */\n      jump(tag_521)\n    tag_522:\n      pop\n        /* \"contracts/indrarouter.sol\":13651:14152  function getAmountsOut(address factory, uint amountIn, address[] memory path) internal view returns (uint[] memory amounts) {... */\n      swap4\n      swap3\n      pop\n      pop\n      pop\n      jump\t// out\n        /* \"contracts/indrarouter.sol\":10922:11392  function pairFor(address factory, address tokenA, address tokenB) internal pure returns (address pair) {... */\n    tag_208:\n        /* \"contracts/indrarouter.sol\":11011:11023  address pair */\n      0x00\n        /* \"contracts/indrarouter.sol\":11036:11050  address token0 */\n      dup1\n        /* \"contracts/indrarouter.sol\":11052:11066  address token1 */\n      0x00\n        /* \"contracts/indrarouter.sol\":11070:11096  sortTokens(tokenA, tokenB) */\n      tag_532\n        /* \"contracts/indrarouter.sol\":11081:11087  tokenA */\n      dup6\n        /* \"contracts/indrarouter.sol\":11089:11095  tokenB */\n      dup6\n        /* \"contracts/indrarouter.sol\":11070:11080  sortTokens */\n      tag_411\n        /* \"contracts/indrarouter.sol\":11070:11096  sortTokens(tokenA, tokenB) */\n      jump\t// in\n    tag_532:\n        /* \"contracts/indrarouter.sol\":11230:11262  abi.encodePacked(token0, token1) */\n      0x40\n      dup1\n      mload\n      not(0xffffffffffffffffffffffff)\n      0x60\n      swap5\n      dup6\n      shl\n      dup2\n      and\n      0x20\n      dup1\n      dup5\n      add\n      swap2\n      swap1\n      swap2\n      mstore\n      swap4\n      dup6\n      shl\n      dup2\n      and\n      0x34\n      dup4\n      add\n      mstore\n      dup3\n      mload\n        /* \"--CODEGEN--\":22:54   */\n      0x28\n        /* \"--CODEGEN--\":26:47   */\n      dup2\n      dup5\n      sub\n        /* \"--CODEGEN--\":22:54   */\n      add\n        /* \"--CODEGEN--\":6:55   */\n      dup2\n      mstore\n        /* \"contracts/indrarouter.sol\":11230:11262  abi.encodePacked(token0, token1) */\n      0x48\n      dup4\n      add\n      dup5\n      mstore\n        /* \"contracts/indrarouter.sol\":11220:11263  keccak256(abi.encodePacked(token0, token1)) */\n      dup1\n      mload\n      swap1\n      dup6\n      add\n      keccak256\n      not(sub(shl(0xf8, 0x01), 0x01))\n        /* \"contracts/indrarouter.sol\":11136:11382  abi.encodePacked(... */\n      0x68\n      dup5\n      add\n      mstore\n      swap11\n      swap1\n      swap5\n      shl\n      swap1\n      swap4\n      and\n      0x69\n      dup5\n      add\n      mstore\n      0x7d\n      dup4\n      add\n      swap9\n      swap1\n      swap9\n      mstore\n      0xa4c9a1b6602caf0bbc0c73bc9d0aa719818f6239e64ae55724fb635c6c65ef21\n      0x9d\n      dup1\n      dup5\n      add\n      swap2\n      swap1\n      swap2\n      mstore\n      dup9\n      mload\n        /* \"--CODEGEN--\":26:47   */\n      dup1\n      dup5\n      sub\n        /* \"--CODEGEN--\":22:54   */\n      swap1\n      swap2\n      add\n        /* \"--CODEGEN--\":6:55   */\n      dup2\n      mstore\n        /* \"contracts/indrarouter.sol\":11136:11382  abi.encodePacked(... */\n      0xbd\n      swap1\n      swap3\n      add\n      swap1\n      swap8\n      mstore\n        /* \"contracts/indrarouter.sol\":11126:11383  keccak256(abi.encodePacked(... */\n      dup1\n      mload\n      swap7\n      add\n      swap6\n      swap1\n      swap6\n      keccak256\n      swap6\n        /* \"contracts/indrarouter.sol\":10922:11392  function pairFor(address factory, address tokenA, address tokenB) internal pure returns (address pair) {... */\n      swap5\n      pop\n      pop\n      pop\n      pop\n      pop\n      jump\t// out\n        /* \"contracts/indrarouter.sol\":923:1321  function safeTransferFrom(address token, address from, address to, uint value) internal {... */\n    tag_210:\n        /* \"contracts/indrarouter.sol\":1146:1197  abi.encodeWithSelector(0x23b872dd, from, to, value) */\n      0x40\n      dup1\n      mload\n      sub(shl(0xa0, 0x01), 0x01)\n      dup6\n      dup2\n      and\n      0x24\n      dup4\n      add\n      mstore\n      dup5\n      dup2\n      and\n      0x44\n      dup4\n      add\n      mstore\n      0x64\n      dup1\n      dup4\n      add\n      dup6\n      swap1\n      mstore\n      dup4\n      mload\n        /* \"--CODEGEN--\":26:47   */\n      dup1\n      dup5\n      sub\n        /* \"--CODEGEN--\":22:54   */\n      swap1\n      swap2\n      add\n        /* \"--CODEGEN--\":6:55   */\n      dup2\n      mstore\n        /* \"contracts/indrarouter.sol\":1146:1197  abi.encodeWithSelector(0x23b872dd, from, to, value) */\n      0x84\n      swap1\n      swap3\n      add\n      dup4\n      mstore\n      0x20\n        /* \"--CODEGEN--\":25:43   */\n      dup3\n      add\n        /* \"--CODEGEN--\":61:78   */\n      dup1\n      mload\n      sub(shl(0xe0, 0x01), 0x01)\n        /* \"--CODEGEN--\":182:197   */\n      and\n      shl(0xe0, 0x23b872dd)\n        /* \"--CODEGEN--\":179:208   */\n      or\n        /* \"--CODEGEN--\":160:209   */\n      dup2\n      mstore\n        /* \"contracts/indrarouter.sol\":1135:1198  token.call(abi.encodeWithSelector(0x23b872dd, from, to, value)) */\n      swap3\n      mload\n      dup3\n      mload\n        /* \"contracts/indrarouter.sol\":1100:1112  bool success */\n      0x00\n      swap5\n        /* \"contracts/indrarouter.sol\":1114:1131  bytes memory data */\n      0x60\n      swap5\n        /* \"contracts/indrarouter.sol\":1135:1145  token.call */\n      swap4\n      dup11\n      and\n      swap4\n        /* \"contracts/indrarouter.sol\":1146:1197  abi.encodeWithSelector(0x23b872dd, from, to, value) */\n      swap3\n        /* \"contracts/indrarouter.sol\":1135:1198  token.call(abi.encodeWithSelector(0x23b872dd, from, to, value)) */\n      swap2\n      dup3\n      swap2\n        /* \"--CODEGEN--\":25:43   */\n      swap1\n        /* \"contracts/indrarouter.sol\":1135:1198  token.call(abi.encodeWithSelector(0x23b872dd, from, to, value)) */\n      dup1\n      dup4\n        /* \"--CODEGEN--\":25:43   */\n      dup4\n        /* \"--CODEGEN--\":36:189   */\n    tag_534:\n        /* \"--CODEGEN--\":66:68   */\n      0x20\n        /* \"--CODEGEN--\":61:64   */\n      dup4\n        /* \"--CODEGEN--\":58:69   */\n      lt\n        /* \"--CODEGEN--\":36:189   */\n      tag_536\n      jumpi\n        /* \"--CODEGEN--\":176:186   */\n      dup1\n      mload\n        /* \"--CODEGEN--\":164:187   */\n      dup3\n      mstore\n      not(0x1f)\n        /* \"--CODEGEN--\":139:151   */\n      swap1\n      swap3\n      add\n      swap2\n        /* \"--CODEGEN--\":98:100   */\n      0x20\n        /* \"--CODEGEN--\":89:101   */\n      swap2\n      dup3\n      add\n      swap2\n        /* \"--CODEGEN--\":114:126   */\n      add\n        /* \"--CODEGEN--\":36:189   */\n      jump(tag_534)\n    tag_536:\n        /* \"--CODEGEN--\":274:275   */\n      0x01\n        /* \"--CODEGEN--\":267:270   */\n      dup4\n        /* \"--CODEGEN--\":263:265   */\n      0x20\n        /* \"--CODEGEN--\":259:271   */\n      sub\n        /* \"--CODEGEN--\":254:257   */\n      0x0100\n        /* \"--CODEGEN--\":250:272   */\n      exp\n        /* \"--CODEGEN--\":246:276   */\n      sub\n        /* \"--CODEGEN--\":315:319   */\n      dup1\n        /* \"--CODEGEN--\":311:320   */\n      not\n        /* \"--CODEGEN--\":305:308   */\n      dup3\n        /* \"--CODEGEN--\":299:309   */\n      mload\n        /* \"--CODEGEN--\":295:321   */\n      and\n        /* \"--CODEGEN--\":356:360   */\n      dup2\n        /* \"--CODEGEN--\":350:353   */\n      dup5\n        /* \"--CODEGEN--\":344:354   */\n      mload\n        /* \"--CODEGEN--\":340:361   */\n      and\n        /* \"--CODEGEN--\":389:396   */\n      dup1\n        /* \"--CODEGEN--\":380:387   */\n      dup3\n        /* \"--CODEGEN--\":377:397   */\n      or\n        /* \"--CODEGEN--\":372:375   */\n      dup6\n        /* \"--CODEGEN--\":365:398   */\n      mstore\n        /* \"--CODEGEN--\":3:402   */\n      pop\n      pop\n      pop\n        /* \"contracts/indrarouter.sol\":1135:1198  token.call(abi.encodeWithSelector(0x23b872dd, from, to, value)) */\n      pop\n      pop\n      pop\n      swap1\n      pop\n      add\n      swap2\n      pop\n      pop\n      0x00\n      mload(0x40)\n      dup1\n      dup4\n      sub\n      dup2\n      0x00\n      dup7\n      gas\n      call\n      swap2\n      pop\n      pop\n      returndatasize\n        /* \"--CODEGEN--\":12:13   */\n      dup1\n        /* \"--CODEGEN--\":19:20   */\n      0x00\n        /* \"--CODEGEN--\":14:41   */\n      dup2\n      eq\n      tag_539\n      jumpi\n        /* \"--CODEGEN--\":67:71   */\n      0x40\n        /* \"--CODEGEN--\":61:72   */\n      mload\n        /* \"--CODEGEN--\":56:72   */\n      swap2\n      pop\n        /* \"--CODEGEN--\":134:138   */\n      0x1f\n        /* \"--CODEGEN--\":130:139   */\n      not\n        /* \"--CODEGEN--\":123:127   */\n      0x3f\n        /* \"--CODEGEN--\":105:121   */\n      returndatasize\n        /* \"--CODEGEN--\":101:128   */\n      add\n        /* \"--CODEGEN--\":97:140   */\n      and\n        /* \"--CODEGEN--\":94:95   */\n      dup3\n        /* \"--CODEGEN--\":90:141   */\n      add\n        /* \"--CODEGEN--\":84:88   */\n      0x40\n        /* \"--CODEGEN--\":77:142   */\n      mstore\n        /* \"--CODEGEN--\":157:173   */\n      returndatasize\n        /* \"--CODEGEN--\":154:155   */\n      dup3\n        /* \"--CODEGEN--\":147:174   */\n      mstore\n        /* \"--CODEGEN--\":211:227   */\n      returndatasize\n        /* \"--CODEGEN--\":208:209   */\n      0x00\n        /* \"--CODEGEN--\":201:205   */\n      0x20\n        /* \"--CODEGEN--\":198:199   */\n      dup5\n        /* \"--CODEGEN--\":194:206   */\n      add\n        /* \"--CODEGEN--\":179:228   */\n      returndatacopy\n        /* \"--CODEGEN--\":5:233   */\n      jump(tag_538)\n        /* \"--CODEGEN--\":14:41   */\n    tag_539:\n        /* \"--CODEGEN--\":32:36   */\n      0x60\n        /* \"--CODEGEN--\":27:36   */\n      swap2\n      pop\n        /* \"--CODEGEN--\":5:233   */\n    tag_538:\n      pop\n        /* \"contracts/indrarouter.sol\":1099:1198  (bool success, bytes memory data) = token.call(abi.encodeWithSelector(0x23b872dd, from, to, value)) */\n      swap2\n      pop\n      swap2\n      pop\n        /* \"contracts/indrarouter.sol\":1216:1223  success */\n      dup2\n        /* \"contracts/indrarouter.sol\":1216:1273  success && (data.length == 0 || abi.decode(data, (bool))) */\n      dup1\n      iszero\n      tag_541\n      jumpi\n      pop\n        /* \"contracts/indrarouter.sol\":1228:1239  data.length */\n      dup1\n      mload\n        /* \"contracts/indrarouter.sol\":1228:1244  data.length == 0 */\n      iszero\n      dup1\n        /* \"contracts/indrarouter.sol\":1228:1272  data.length == 0 || abi.decode(data, (bool)) */\n      tag_541\n      jumpi\n      pop\n        /* \"contracts/indrarouter.sol\":1259:1263  data */\n      dup1\n        /* \"contracts/indrarouter.sol\":1248:1272  abi.decode(data, (bool)) */\n      dup1\n      0x20\n      add\n      swap1\n      mload\n        /* \"--CODEGEN--\":15:17   */\n      0x20\n        /* \"--CODEGEN--\":10:13   */\n      dup2\n        /* \"--CODEGEN--\":7:18   */\n      lt\n        /* \"--CODEGEN--\":4:6   */\n      iszero\n      tag_542\n      jumpi\n        /* \"--CODEGEN--\":31:32   */\n      0x00\n        /* \"--CODEGEN--\":28:29   */\n      dup1\n        /* \"--CODEGEN--\":21:33   */\n      revert\n        /* \"--CODEGEN--\":4:6   */\n    tag_542:\n      pop\n        /* \"contracts/indrarouter.sol\":1248:1272  abi.decode(data, (bool)) */\n      mload\n        /* \"contracts/indrarouter.sol\":1228:1272  data.length == 0 || abi.decode(data, (bool)) */\n    tag_541:\n        /* \"contracts/indrarouter.sol\":1208:1314  require(success && (data.length == 0 || abi.decode(data, (bool))), 'TransferHelper: TRANSFER_FROM_FAILED') */\n      tag_543\n      jumpi\n      mload(0x40)\n      shl(0xe5, 0x461bcd)\n      dup2\n      mstore\n      0x04\n      add\n      dup1\n      dup1\n      0x20\n      add\n      dup3\n      dup2\n      sub\n      dup3\n      mstore\n      0x24\n      dup2\n      mstore\n      0x20\n      add\n      dup1\n      data_eb2904bf3c0c9ae693b53eb0188a703c388998a9c405b7965ca678cef9a51d18\n      0x24\n      swap2\n      codecopy\n      0x40\n      add\n      swap2\n      pop\n      pop\n      mload(0x40)\n      dup1\n      swap2\n      sub\n      swap1\n      revert\n    tag_543:\n        /* \"contracts/indrarouter.sol\":923:1321  function safeTransferFrom(address token, address from, address to, uint value) internal {... */\n      pop\n      pop\n      pop\n      pop\n      pop\n      pop\n      jump\t// out\n        /* \"contracts/indrarouter.sol\":23952:24668  function _swap(uint[] memory amounts, address[] memory path, address _to) internal virtual {... */\n    tag_212:\n        /* \"contracts/indrarouter.sol\":24058:24064  uint i */\n      0x00\n        /* \"contracts/indrarouter.sol\":24053:24662  for (uint i; i < path.length - 1; i++) {... */\n    tag_545:\n        /* \"contracts/indrarouter.sol\":24084:24085  1 */\n      0x01\n        /* \"contracts/indrarouter.sol\":24070:24074  path */\n      dup4\n        /* \"contracts/indrarouter.sol\":24070:24081  path.length */\n      mload\n        /* \"contracts/indrarouter.sol\":24070:24085  path.length - 1 */\n      sub\n        /* \"contracts/indrarouter.sol\":24066:24067  i */\n      dup2\n        /* \"contracts/indrarouter.sol\":24066:24085  i < path.length - 1 */\n      lt\n        /* \"contracts/indrarouter.sol\":24053:24662  for (uint i; i < path.length - 1; i++) {... */\n      iszero\n      tag_546\n      jumpi\n        /* \"contracts/indrarouter.sol\":24107:24120  address input */\n      0x00\n        /* \"contracts/indrarouter.sol\":24122:24136  address output */\n      dup1\n        /* \"contracts/indrarouter.sol\":24141:24145  path */\n      dup5\n        /* \"contracts/indrarouter.sol\":24146:24147  i */\n      dup4\n        /* \"contracts/indrarouter.sol\":24141:24148  path[i] */\n      dup2\n      mload\n      dup2\n      lt\n      tag_548\n      jumpi\n      invalid\n    tag_548:\n      0x20\n      mul\n      0x20\n      add\n      add\n      mload\n        /* \"contracts/indrarouter.sol\":24150:24154  path */\n      dup6\n        /* \"contracts/indrarouter.sol\":24155:24156  i */\n      dup5\n        /* \"contracts/indrarouter.sol\":24159:24160  1 */\n      0x01\n        /* \"contracts/indrarouter.sol\":24155:24160  i + 1 */\n      add\n        /* \"contracts/indrarouter.sol\":24150:24161  path[i + 1] */\n      dup2\n      mload\n      dup2\n      lt\n      tag_549\n      jumpi\n      invalid\n    tag_549:\n      0x20\n      mul\n      0x20\n      add\n      add\n      mload\n        /* \"contracts/indrarouter.sol\":24106:24162  (address input, address output) = (path[i], path[i + 1]) */\n      swap2\n      pop\n      swap2\n      pop\n        /* \"contracts/indrarouter.sol\":24177:24191  address token0 */\n      0x00\n        /* \"contracts/indrarouter.sol\":24196:24236  PancakeLibrary.sortTokens(input, output) */\n      tag_550\n        /* \"contracts/indrarouter.sol\":24222:24227  input */\n      dup4\n        /* \"contracts/indrarouter.sol\":24229:24235  output */\n      dup4\n        /* \"contracts/indrarouter.sol\":24196:24221  PancakeLibrary.sortTokens */\n      tag_411\n        /* \"contracts/indrarouter.sol\":24196:24236  PancakeLibrary.sortTokens(input, output) */\n      jump\t// in\n    tag_550:\n        /* \"contracts/indrarouter.sol\":24176:24236  (address token0,) = PancakeLibrary.sortTokens(input, output) */\n      pop\n      swap1\n      pop\n        /* \"contracts/indrarouter.sol\":24250:24264  uint amountOut */\n      0x00\n        /* \"contracts/indrarouter.sol\":24267:24274  amounts */\n      dup8\n        /* \"contracts/indrarouter.sol\":24275:24276  i */\n      dup6\n        /* \"contracts/indrarouter.sol\":24279:24280  1 */\n      0x01\n        /* \"contracts/indrarouter.sol\":24275:24280  i + 1 */\n      add\n        /* \"contracts/indrarouter.sol\":24267:24281  amounts[i + 1] */\n      dup2\n      mload\n      dup2\n      lt\n      tag_551\n      jumpi\n      invalid\n    tag_551:\n      0x20\n      mul\n      0x20\n      add\n      add\n      mload\n        /* \"contracts/indrarouter.sol\":24250:24281  uint amountOut = amounts[i + 1] */\n      swap1\n      pop\n        /* \"contracts/indrarouter.sol\":24296:24311  uint amount0Out */\n      0x00\n        /* \"contracts/indrarouter.sol\":24313:24328  uint amount1Out */\n      dup1\n        /* \"contracts/indrarouter.sol\":24341:24347  token0 */\n      dup4\n      sub(shl(0xa0, 0x01), 0x01)\n        /* \"contracts/indrarouter.sol\":24332:24347  input == token0 */\n      and\n        /* \"contracts/indrarouter.sol\":24332:24337  input */\n      dup7\n      sub(shl(0xa0, 0x01), 0x01)\n        /* \"contracts/indrarouter.sol\":24332:24347  input == token0 */\n      and\n      eq\n        /* \"contracts/indrarouter.sol\":24332:24393  input == token0 ? (uint(0), amountOut) : (amountOut, uint(0)) */\n      tag_552\n      jumpi\n        /* \"contracts/indrarouter.sol\":24374:24383  amountOut */\n      dup3\n        /* \"contracts/indrarouter.sol\":24390:24391  0 */\n      0x00\n        /* \"contracts/indrarouter.sol\":24332:24393  input == token0 ? (uint(0), amountOut) : (amountOut, uint(0)) */\n      jump(tag_553)\n    tag_552:\n        /* \"contracts/indrarouter.sol\":24356:24357  0 */\n      0x00\n        /* \"contracts/indrarouter.sol\":24360:24369  amountOut */\n      dup4\n        /* \"contracts/indrarouter.sol\":24332:24393  input == token0 ? (uint(0), amountOut) : (amountOut, uint(0)) */\n    tag_553:\n        /* \"contracts/indrarouter.sol\":24295:24393  (uint amount0Out, uint amount1Out) = input == token0 ? (uint(0), amountOut) : (amountOut, uint(0)) */\n      swap2\n      pop\n      swap2\n      pop\n        /* \"contracts/indrarouter.sol\":24407:24417  address to */\n      0x00\n        /* \"contracts/indrarouter.sol\":24438:24439  2 */\n      0x02\n        /* \"contracts/indrarouter.sol\":24424:24428  path */\n      dup11\n        /* \"contracts/indrarouter.sol\":24424:24435  path.length */\n      mload\n        /* \"contracts/indrarouter.sol\":24424:24439  path.length - 2 */\n      sub\n        /* \"contracts/indrarouter.sol\":24420:24421  i */\n      dup9\n        /* \"contracts/indrarouter.sol\":24420:24439  i < path.length - 2 */\n      lt\n        /* \"contracts/indrarouter.sol\":24420:24500  i < path.length - 2 ? PancakeLibrary.pairFor(factory, output, path[i + 2]) : _to */\n      tag_554\n      jumpi\n        /* \"contracts/indrarouter.sol\":24497:24500  _to */\n      dup9\n        /* \"contracts/indrarouter.sol\":24420:24500  i < path.length - 2 ? PancakeLibrary.pairFor(factory, output, path[i + 2]) : _to */\n      jump(tag_556)\n    tag_554:\n        /* \"contracts/indrarouter.sol\":24442:24494  PancakeLibrary.pairFor(factory, output, path[i + 2]) */\n      tag_556\n        /* \"contracts/indrarouter.sol\":24465:24472  factory */\n      immutable(\"0xeba818bcee6eaba9d1a7c8e4d0732334c4e45617c48a8a0861c4ad844e6db671\")\n        /* \"contracts/indrarouter.sol\":24474:24480  output */\n      dup8\n        /* \"contracts/indrarouter.sol\":24482:24486  path */\n      dup13\n        /* \"contracts/indrarouter.sol\":24487:24488  i */\n      dup12\n        /* \"contracts/indrarouter.sol\":24491:24492  2 */\n      0x02\n        /* \"contracts/indrarouter.sol\":24487:24492  i + 2 */\n      add\n        /* \"contracts/indrarouter.sol\":24482:24493  path[i + 2] */\n      dup2\n      mload\n      dup2\n      lt\n      tag_557\n      jumpi\n      invalid\n    tag_557:\n      0x20\n      mul\n      0x20\n      add\n      add\n      mload\n        /* \"contracts/indrarouter.sol\":24442:24464  PancakeLibrary.pairFor */\n      tag_208\n        /* \"contracts/indrarouter.sol\":24442:24494  PancakeLibrary.pairFor(factory, output, path[i + 2]) */\n      jump\t// in\n    tag_556:\n        /* \"contracts/indrarouter.sol\":24407:24500  address to = i < path.length - 2 ? PancakeLibrary.pairFor(factory, output, path[i + 2]) : _to */\n      swap1\n      pop\n        /* \"contracts/indrarouter.sol\":24527:24573  PancakeLibrary.pairFor(factory, input, output) */\n      tag_558\n        /* \"contracts/indrarouter.sol\":24550:24557  factory */\n      immutable(\"0xeba818bcee6eaba9d1a7c8e4d0732334c4e45617c48a8a0861c4ad844e6db671\")\n        /* \"contracts/indrarouter.sol\":24559:24564  input */\n      dup9\n        /* \"contracts/indrarouter.sol\":24566:24572  output */\n      dup9\n        /* \"contracts/indrarouter.sol\":24527:24549  PancakeLibrary.pairFor */\n      tag_208\n        /* \"contracts/indrarouter.sol\":24527:24573  PancakeLibrary.pairFor(factory, input, output) */\n      jump\t// in\n    tag_558:\n      sub(shl(0xa0, 0x01), 0x01)\n        /* \"contracts/indrarouter.sol\":24514:24579  IPancakePair(PancakeLibrary.pairFor(factory, input, output)).swap */\n      and\n      0x022c0d9f\n        /* \"contracts/indrarouter.sol\":24597:24607  amount0Out */\n      dup5\n        /* \"contracts/indrarouter.sol\":24609:24619  amount1Out */\n      dup5\n        /* \"contracts/indrarouter.sol\":24621:24623  to */\n      dup5\n        /* \"contracts/indrarouter.sol\":24635:24636  0 */\n      0x00\n        /* \"contracts/indrarouter.sol\":24625:24637  new bytes(0) */\n      mload(0x40)\n      swap1\n      dup1\n      dup3\n      mstore\n      dup1\n      0x1f\n      add\n      not(0x1f)\n      and\n      0x20\n      add\n      dup3\n      add\n      0x40\n      mstore\n      dup1\n      iszero\n      tag_560\n      jumpi\n      0x20\n      dup3\n      add\n        /* \"--CODEGEN--\":21:27   */\n      dup2\n      dup1\n        /* \"--CODEGEN--\":108:122   */\n      calldatasize\n        /* \"contracts/indrarouter.sol\":24625:24637  new bytes(0) */\n      dup4\n        /* \"--CODEGEN--\":87:129   */\n      calldatacopy\n        /* \"--CODEGEN--\":143:160   */\n      add\n      swap1\n      pop\n        /* \"contracts/indrarouter.sol\":24625:24637  new bytes(0) */\n    tag_560:\n      pop\n        /* \"contracts/indrarouter.sol\":24514:24651  IPancakePair(PancakeLibrary.pairFor(factory, input, output)).swap(... */\n      mload(0x40)\n      dup6\n      0xffffffff\n      and\n      0xe0\n      shl\n      dup2\n      mstore\n      0x04\n      add\n      dup1\n      dup6\n      dup2\n      mstore\n      0x20\n      add\n      dup5\n      dup2\n      mstore\n      0x20\n      add\n      dup4\n      sub(shl(0xa0, 0x01), 0x01)\n      and\n      sub(shl(0xa0, 0x01), 0x01)\n      and\n      dup2\n      mstore\n      0x20\n      add\n      dup1\n      0x20\n      add\n      dup3\n      dup2\n      sub\n      dup3\n      mstore\n      dup4\n      dup2\n      dup2\n      mload\n      dup2\n      mstore\n      0x20\n      add\n      swap2\n      pop\n      dup1\n      mload\n      swap1\n      0x20\n      add\n      swap1\n      dup1\n      dup4\n      dup4\n        /* \"--CODEGEN--\":23:24   */\n      0x00\n        /* \"--CODEGEN--\":8:108   */\n    tag_561:\n        /* \"--CODEGEN--\":33:36   */\n      dup4\n        /* \"--CODEGEN--\":30:31   */\n      dup2\n        /* \"--CODEGEN--\":27:37   */\n      lt\n        /* \"--CODEGEN--\":8:108   */\n      iszero\n      tag_563\n      jumpi\n        /* \"--CODEGEN--\":90:101   */\n      dup2\n      dup2\n      add\n        /* \"--CODEGEN--\":84:102   */\n      mload\n        /* \"--CODEGEN--\":71:82   */\n      dup4\n      dup3\n      add\n        /* \"--CODEGEN--\":64:103   */\n      mstore\n        /* \"--CODEGEN--\":52:54   */\n      0x20\n        /* \"--CODEGEN--\":45:55   */\n      add\n        /* \"--CODEGEN--\":8:108   */\n      jump(tag_561)\n    tag_563:\n        /* \"--CODEGEN--\":12:26   */\n      pop\n        /* \"contracts/indrarouter.sol\":24514:24651  IPancakePair(PancakeLibrary.pairFor(factory, input, output)).swap(... */\n      pop\n      pop\n      pop\n      swap1\n      pop\n      swap1\n      dup2\n      add\n      swap1\n      0x1f\n      and\n      dup1\n      iszero\n      tag_564\n      jumpi\n      dup1\n      dup3\n      sub\n      dup1\n      mload\n      0x01\n      dup4\n      0x20\n      sub\n      0x0100\n      exp\n      sub\n      not\n      and\n      dup2\n      mstore\n      0x20\n      add\n      swap2\n      pop\n    tag_564:\n      pop\n      swap6\n      pop\n      pop\n      pop\n      pop\n      pop\n      pop\n      0x00\n      mload(0x40)\n      dup1\n      dup4\n      sub\n      dup2\n      0x00\n      dup8\n      dup1\n      extcodesize\n      iszero\n        /* \"--CODEGEN--\":5:14   */\n      dup1\n        /* \"--CODEGEN--\":2:4   */\n      iszero\n      tag_565\n      jumpi\n        /* \"--CODEGEN--\":27:28   */\n      0x00\n        /* \"--CODEGEN--\":24:25   */\n      dup1\n        /* \"--CODEGEN--\":17:29   */\n      revert\n        /* \"--CODEGEN--\":2:4   */\n    tag_565:\n        /* \"contracts/indrarouter.sol\":24514:24651  IPancakePair(PancakeLibrary.pairFor(factory, input, output)).swap(... */\n      pop\n      gas\n      call\n      iszero\n        /* \"--CODEGEN--\":8:17   */\n      dup1\n        /* \"--CODEGEN--\":5:7   */\n      iszero\n      tag_567\n      jumpi\n        /* \"--CODEGEN--\":45:61   */\n      returndatasize\n        /* \"--CODEGEN--\":42:43   */\n      0x00\n        /* \"--CODEGEN--\":39:40   */\n      dup1\n        /* \"--CODEGEN--\":24:62   */\n      returndatacopy\n        /* \"--CODEGEN--\":77:93   */\n      returndatasize\n        /* \"--CODEGEN--\":74:75   */\n      0x00\n        /* \"--CODEGEN--\":67:94   */\n      revert\n        /* \"--CODEGEN--\":5:7   */\n    tag_567:\n      pop\n      pop\n        /* \"contracts/indrarouter.sol\":24087:24090  i++ */\n      0x01\n      swap1\n      swap10\n      add\n      swap9\n      pop\n        /* \"contracts/indrarouter.sol\":24053:24662  for (uint i; i < path.length - 1; i++) {... */\n      tag_545\n      swap8\n      pop\n      pop\n      pop\n      pop\n      pop\n      pop\n      pop\n      pop\n      jump\n    tag_546:\n      pop\n        /* \"contracts/indrarouter.sol\":23952:24668  function _swap(uint[] memory amounts, address[] memory path, address _to) internal virtual {... */\n      pop\n      pop\n      pop\n      jump\t// out\n        /* \"contracts/indrarouter.sol\":14230:14752  function getAmountsIn(address factory, uint amountOut, address[] memory path) internal view returns (uint[] memory amounts) {... */\n    tag_221:\n        /* \"contracts/indrarouter.sol\":14331:14352  uint[] memory amounts */\n      0x60\n        /* \"contracts/indrarouter.sol\":14387:14388  2 */\n      0x02\n        /* \"contracts/indrarouter.sol\":14372:14376  path */\n      dup3\n        /* \"contracts/indrarouter.sol\":14372:14383  path.length */\n      mload\n        /* \"contracts/indrarouter.sol\":14372:14388  path.length >= 2 */\n      lt\n      iszero\n        /* \"contracts/indrarouter.sol\":14364:14421  require(path.length >= 2, 'PancakeLibrary: INVALID_PATH') */\n      tag_569\n      jumpi\n      0x40\n      dup1\n      mload\n      shl(0xe5, 0x461bcd)\n      dup2\n      mstore\n      0x20\n      0x04\n      dup3\n      add\n      mstore\n      0x1c\n      0x24\n      dup3\n      add\n      mstore\n      0x50616e63616b654c6962726172793a20494e56414c49445f5041544800000000\n      0x44\n      dup3\n      add\n      mstore\n      swap1\n      mload\n      swap1\n      dup2\n      swap1\n      sub\n      0x64\n      add\n      swap1\n      revert\n    tag_569:\n        /* \"contracts/indrarouter.sol\":14452:14456  path */\n      dup2\n        /* \"contracts/indrarouter.sol\":14452:14463  path.length */\n      mload\n        /* \"contracts/indrarouter.sol\":14441:14464  new uint[](path.length) */\n      0xffffffffffffffff\n      dup2\n      gt\n        /* \"--CODEGEN--\":5:14   */\n      dup1\n        /* \"--CODEGEN--\":2:4   */\n      iszero\n      tag_570\n      jumpi\n        /* \"--CODEGEN--\":27:28   */\n      0x00\n        /* \"--CODEGEN--\":24:25   */\n      dup1\n        /* \"--CODEGEN--\":17:29   */\n      revert\n        /* \"--CODEGEN--\":2:4   */\n    tag_570:\n        /* \"contracts/indrarouter.sol\":14441:14464  new uint[](path.length) */\n      pop\n      mload(0x40)\n      swap1\n      dup1\n      dup3\n      mstore\n      dup1\n      0x20\n      mul\n      0x20\n      add\n      dup3\n      add\n      0x40\n      mstore\n      dup1\n      iszero\n      tag_571\n      jumpi\n      dup2\n      0x20\n      add\n        /* \"--CODEGEN--\":29:31   */\n      0x20\n        /* \"--CODEGEN--\":21:27   */\n      dup3\n        /* \"--CODEGEN--\":17:32   */\n      mul\n        /* \"--CODEGEN--\":125:129   */\n      dup1\n        /* \"--CODEGEN--\":109:123   */\n      calldatasize\n        /* \"--CODEGEN--\":101:107   */\n      dup4\n        /* \"--CODEGEN--\":88:130   */\n      calldatacopy\n        /* \"--CODEGEN--\":144:161   */\n      add\n      swap1\n      pop\n        /* \"contracts/indrarouter.sol\":14441:14464  new uint[](path.length) */\n    tag_571:\n      pop\n        /* \"contracts/indrarouter.sol\":14431:14464  amounts = new uint[](path.length) */\n      swap1\n      pop\n        /* \"contracts/indrarouter.sol\":14504:14513  amountOut */\n      dup3\n        /* \"contracts/indrarouter.sol\":14474:14481  amounts */\n      dup2\n        /* \"contracts/indrarouter.sol\":14499:14500  1 */\n      0x01\n        /* \"contracts/indrarouter.sol\":14482:14489  amounts */\n      dup4\n        /* \"contracts/indrarouter.sol\":14482:14496  amounts.length */\n      mload\n        /* \"contracts/indrarouter.sol\":14482:14500  amounts.length - 1 */\n      sub\n        /* \"contracts/indrarouter.sol\":14474:14501  amounts[amounts.length - 1] */\n      dup2\n      mload\n      dup2\n      lt\n      tag_572\n      jumpi\n      invalid\n    tag_572:\n      0x20\n      swap1\n      dup2\n      mul\n      swap2\n      swap1\n      swap2\n      add\n      add\n        /* \"contracts/indrarouter.sol\":14474:14513  amounts[amounts.length - 1] = amountOut */\n      mstore\n        /* \"contracts/indrarouter.sol\":14537:14548  path.length */\n      dup2\n      mload\n      not(0x00)\n        /* \"contracts/indrarouter.sol\":14537:14552  path.length - 1 */\n      add\n        /* \"contracts/indrarouter.sol\":14523:14746  for (uint i = path.length - 1; i > 0; i--) {... */\n    tag_573:\n        /* \"contracts/indrarouter.sol\":14554:14559  i > 0 */\n      dup1\n      iszero\n        /* \"contracts/indrarouter.sol\":14523:14746  for (uint i = path.length - 1; i > 0; i--) {... */\n      tag_522\n      jumpi\n        /* \"contracts/indrarouter.sol\":14581:14595  uint reserveIn */\n      0x00\n        /* \"contracts/indrarouter.sol\":14597:14612  uint reserveOut */\n      dup1\n        /* \"contracts/indrarouter.sol\":14616:14658  getReserves(factory, path[i - 1], path[i]) */\n      tag_576\n        /* \"contracts/indrarouter.sol\":14628:14635  factory */\n      dup8\n        /* \"contracts/indrarouter.sol\":14637:14641  path */\n      dup7\n        /* \"contracts/indrarouter.sol\":14646:14647  1 */\n      0x01\n        /* \"contracts/indrarouter.sol\":14642:14643  i */\n      dup7\n        /* \"contracts/indrarouter.sol\":14642:14647  i - 1 */\n      sub\n        /* \"contracts/indrarouter.sol\":14637:14648  path[i - 1] */\n      dup2\n      mload\n      dup2\n      lt\n      tag_577\n      jumpi\n      invalid\n    tag_577:\n      0x20\n      mul\n      0x20\n      add\n      add\n      mload\n        /* \"contracts/indrarouter.sol\":14650:14654  path */\n      dup8\n        /* \"contracts/indrarouter.sol\":14655:14656  i */\n      dup7\n        /* \"contracts/indrarouter.sol\":14650:14657  path[i] */\n      dup2\n      mload\n      dup2\n      lt\n      tag_526\n      jumpi\n      invalid\n        /* \"contracts/indrarouter.sol\":14616:14658  getReserves(factory, path[i - 1], path[i]) */\n    tag_576:\n        /* \"contracts/indrarouter.sol\":14580:14658  (uint reserveIn, uint reserveOut) = getReserves(factory, path[i - 1], path[i]) */\n      swap2\n      pop\n      swap2\n      pop\n        /* \"contracts/indrarouter.sol\":14689:14735  getAmountIn(amounts[i], reserveIn, reserveOut) */\n      tag_579\n        /* \"contracts/indrarouter.sol\":14701:14708  amounts */\n      dup5\n        /* \"contracts/indrarouter.sol\":14709:14710  i */\n      dup5\n        /* \"contracts/indrarouter.sol\":14701:14711  amounts[i] */\n      dup2\n      mload\n      dup2\n      lt\n      tag_580\n      jumpi\n      invalid\n    tag_580:\n      0x20\n      mul\n      0x20\n      add\n      add\n      mload\n        /* \"contracts/indrarouter.sol\":14713:14722  reserveIn */\n      dup4\n        /* \"contracts/indrarouter.sol\":14724:14734  reserveOut */\n      dup4\n        /* \"contracts/indrarouter.sol\":14689:14700  getAmountIn */\n      tag_339\n        /* \"contracts/indrarouter.sol\":14689:14735  getAmountIn(amounts[i], reserveIn, reserveOut) */\n      jump\t// in\n    tag_579:\n        /* \"contracts/indrarouter.sol\":14672:14679  amounts */\n      dup5\n        /* \"contracts/indrarouter.sol\":14684:14685  1 */\n      0x01\n        /* \"contracts/indrarouter.sol\":14680:14681  i */\n      dup6\n        /* \"contracts/indrarouter.sol\":14680:14685  i - 1 */\n      sub\n        /* \"contracts/indrarouter.sol\":14672:14686  amounts[i - 1] */\n      dup2\n      mload\n      dup2\n      lt\n      tag_581\n      jumpi\n      invalid\n    tag_581:\n      0x20\n      swap1\n      dup2\n      mul\n      swap2\n      swap1\n      swap2\n      add\n      add\n        /* \"contracts/indrarouter.sol\":14672:14735  amounts[i - 1] = getAmountIn(amounts[i], reserveIn, reserveOut) */\n      mstore\n      pop\n      pop\n      not(0x00)\n        /* \"contracts/indrarouter.sol\":14561:14564  i-- */\n      add\n        /* \"contracts/indrarouter.sol\":14523:14746  for (uint i = path.length - 1; i > 0; i--) {... */\n      jump(tag_573)\n        /* \"contracts/indrarouter.sol\":29128:30313  function _swapSupportingFeeOnTransferTokens(address[] memory path, address _to) internal virtual {... */\n    tag_286:\n        /* \"contracts/indrarouter.sol\":29240:29246  uint i */\n      0x00\n        /* \"contracts/indrarouter.sol\":29235:30307  for (uint i; i < path.length - 1; i++) {... */\n    tag_583:\n        /* \"contracts/indrarouter.sol\":29266:29267  1 */\n      0x01\n        /* \"contracts/indrarouter.sol\":29252:29256  path */\n      dup4\n        /* \"contracts/indrarouter.sol\":29252:29263  path.length */\n      mload\n        /* \"contracts/indrarouter.sol\":29252:29267  path.length - 1 */\n      sub\n        /* \"contracts/indrarouter.sol\":29248:29249  i */\n      dup2\n        /* \"contracts/indrarouter.sol\":29248:29267  i < path.length - 1 */\n      lt\n        /* \"contracts/indrarouter.sol\":29235:30307  for (uint i; i < path.length - 1; i++) {... */\n      iszero\n      tag_504\n      jumpi\n        /* \"contracts/indrarouter.sol\":29289:29302  address input */\n      0x00\n        /* \"contracts/indrarouter.sol\":29304:29318  address output */\n      dup1\n        /* \"contracts/indrarouter.sol\":29323:29327  path */\n      dup5\n        /* \"contracts/indrarouter.sol\":29328:29329  i */\n      dup4\n        /* \"contracts/indrarouter.sol\":29323:29330  path[i] */\n      dup2\n      mload\n      dup2\n      lt\n      tag_586\n      jumpi\n      invalid\n    tag_586:\n      0x20\n      mul\n      0x20\n      add\n      add\n      mload\n        /* \"contracts/indrarouter.sol\":29332:29336  path */\n      dup6\n        /* \"contracts/indrarouter.sol\":29337:29338  i */\n      dup5\n        /* \"contracts/indrarouter.sol\":29341:29342  1 */\n      0x01\n        /* \"contracts/indrarouter.sol\":29337:29342  i + 1 */\n      add\n        /* \"contracts/indrarouter.sol\":29332:29343  path[i + 1] */\n      dup2\n      mload\n      dup2\n      lt\n      tag_587\n      jumpi\n      invalid\n    tag_587:\n      0x20\n      mul\n      0x20\n      add\n      add\n      mload\n        /* \"contracts/indrarouter.sol\":29288:29344  (address input, address output) = (path[i], path[i + 1]) */\n      swap2\n      pop\n      swap2\n      pop\n        /* \"contracts/indrarouter.sol\":29359:29373  address token0 */\n      0x00\n        /* \"contracts/indrarouter.sol\":29378:29418  PancakeLibrary.sortTokens(input, output) */\n      tag_588\n        /* \"contracts/indrarouter.sol\":29404:29409  input */\n      dup4\n        /* \"contracts/indrarouter.sol\":29411:29417  output */\n      dup4\n        /* \"contracts/indrarouter.sol\":29378:29403  PancakeLibrary.sortTokens */\n      tag_411\n        /* \"contracts/indrarouter.sol\":29378:29418  PancakeLibrary.sortTokens(input, output) */\n      jump\t// in\n    tag_588:\n        /* \"contracts/indrarouter.sol\":29358:29418  (address token0,) = PancakeLibrary.sortTokens(input, output) */\n      pop\n      swap1\n      pop\n        /* \"contracts/indrarouter.sol\":29432:29449  IPancakePair pair */\n      0x00\n        /* \"contracts/indrarouter.sol\":29465:29511  PancakeLibrary.pairFor(factory, input, output) */\n      tag_589\n        /* \"contracts/indrarouter.sol\":29488:29495  factory */\n      immutable(\"0xeba818bcee6eaba9d1a7c8e4d0732334c4e45617c48a8a0861c4ad844e6db671\")\n        /* \"contracts/indrarouter.sol\":29497:29502  input */\n      dup6\n        /* \"contracts/indrarouter.sol\":29504:29510  output */\n      dup6\n        /* \"contracts/indrarouter.sol\":29465:29487  PancakeLibrary.pairFor */\n      tag_208\n        /* \"contracts/indrarouter.sol\":29465:29511  PancakeLibrary.pairFor(factory, input, output) */\n      jump\t// in\n    tag_589:\n        /* \"contracts/indrarouter.sol\":29432:29512  IPancakePair pair = IPancakePair(PancakeLibrary.pairFor(factory, input, output)) */\n      swap1\n      pop\n        /* \"contracts/indrarouter.sol\":29526:29542  uint amountInput */\n      0x00\n        /* \"contracts/indrarouter.sol\":29556:29573  uint amountOutput */\n      dup1\n        /* \"contracts/indrarouter.sol\":29642:29655  uint reserve0 */\n      0x00\n        /* \"contracts/indrarouter.sol\":29657:29670  uint reserve1 */\n      dup1\n        /* \"contracts/indrarouter.sol\":29675:29679  pair */\n      dup5\n      sub(shl(0xa0, 0x01), 0x01)\n        /* \"contracts/indrarouter.sol\":29675:29691  pair.getReserves */\n      and\n      0x0902f1ac\n        /* \"contracts/indrarouter.sol\":29675:29693  pair.getReserves() */\n      mload(0x40)\n      dup2\n      0xffffffff\n      and\n      0xe0\n      shl\n      dup2\n      mstore\n      0x04\n      add\n      0x60\n      mload(0x40)\n      dup1\n      dup4\n      sub\n      dup2\n      dup7\n      dup1\n      extcodesize\n      iszero\n        /* \"--CODEGEN--\":5:14   */\n      dup1\n        /* \"--CODEGEN--\":2:4   */\n      iszero\n      tag_590\n      jumpi\n        /* \"--CODEGEN--\":27:28   */\n      0x00\n        /* \"--CODEGEN--\":24:25   */\n      dup1\n        /* \"--CODEGEN--\":17:29   */\n      revert\n        /* \"--CODEGEN--\":2:4   */\n    tag_590:\n        /* \"contracts/indrarouter.sol\":29675:29693  pair.getReserves() */\n      pop\n      gas\n      staticcall\n      iszero\n        /* \"--CODEGEN--\":8:17   */\n      dup1\n        /* \"--CODEGEN--\":5:7   */\n      iszero\n      tag_592\n      jumpi\n        /* \"--CODEGEN--\":45:61   */\n      returndatasize\n        /* \"--CODEGEN--\":42:43   */\n      0x00\n        /* \"--CODEGEN--\":39:40   */\n      dup1\n        /* \"--CODEGEN--\":24:62   */\n      returndatacopy\n        /* \"--CODEGEN--\":77:93   */\n      returndatasize\n        /* \"--CODEGEN--\":74:75   */\n      0x00\n        /* \"--CODEGEN--\":67:94   */\n      revert\n        /* \"--CODEGEN--\":5:7   */\n    tag_592:\n        /* \"contracts/indrarouter.sol\":29675:29693  pair.getReserves() */\n      pop\n      pop\n      pop\n      pop\n      mload(0x40)\n      returndatasize\n        /* \"--CODEGEN--\":15:17   */\n      0x60\n        /* \"--CODEGEN--\":10:13   */\n      dup2\n        /* \"--CODEGEN--\":7:18   */\n      lt\n        /* \"--CODEGEN--\":4:6   */\n      iszero\n      tag_593\n      jumpi\n        /* \"--CODEGEN--\":31:32   */\n      0x00\n        /* \"--CODEGEN--\":28:29   */\n      dup1\n        /* \"--CODEGEN--\":21:33   */\n      revert\n        /* \"--CODEGEN--\":4:6   */\n    tag_593:\n      pop\n        /* \"contracts/indrarouter.sol\":29675:29693  pair.getReserves() */\n      dup1\n      mload\n      0x20\n      swap1\n      swap2\n      add\n      mload\n      sub(shl(0x70, 0x01), 0x01)\n        /* \"contracts/indrarouter.sol\":29641:29693  (uint reserve0, uint reserve1,) = pair.getReserves() */\n      swap2\n      dup3\n      and\n      swap4\n      pop\n      and\n      swap1\n      pop\n        /* \"contracts/indrarouter.sol\":29708:29725  uint reserveInput */\n      0x00\n      dup1\n      sub(shl(0xa0, 0x01), 0x01)\n        /* \"contracts/indrarouter.sol\":29749:29764  input == token0 */\n      dup11\n      dup2\n      and\n      swap1\n      dup10\n      and\n      eq\n        /* \"contracts/indrarouter.sol\":29749:29810  input == token0 ? (reserve0, reserve1) : (reserve1, reserve0) */\n      tag_594\n      jumpi\n        /* \"contracts/indrarouter.sol\":29791:29799  reserve1 */\n      dup3\n        /* \"contracts/indrarouter.sol\":29801:29809  reserve0 */\n      dup5\n        /* \"contracts/indrarouter.sol\":29749:29810  input == token0 ? (reserve0, reserve1) : (reserve1, reserve0) */\n      jump(tag_595)\n    tag_594:\n        /* \"contracts/indrarouter.sol\":29768:29776  reserve0 */\n      dup4\n        /* \"contracts/indrarouter.sol\":29778:29786  reserve1 */\n      dup4\n        /* \"contracts/indrarouter.sol\":29749:29810  input == token0 ? (reserve0, reserve1) : (reserve1, reserve0) */\n    tag_595:\n        /* \"contracts/indrarouter.sol\":29707:29810  (uint reserveInput, uint reserveOutput) = input == token0 ? (reserve0, reserve1) : (reserve1, reserve0) */\n      swap2\n      pop\n      swap2\n      pop\n        /* \"contracts/indrarouter.sol\":29838:29894  IERC20(input).balanceOf(address(pair)).sub(reserveInput) */\n      tag_596\n        /* \"contracts/indrarouter.sol\":29881:29893  reserveInput */\n      dup3\n        /* \"contracts/indrarouter.sol\":29845:29850  input */\n      dup12\n      sub(shl(0xa0, 0x01), 0x01)\n        /* \"contracts/indrarouter.sol\":29838:29861  IERC20(input).balanceOf */\n      and\n      0x70a08231\n        /* \"contracts/indrarouter.sol\":29870:29874  pair */\n      dup11\n        /* \"contracts/indrarouter.sol\":29838:29876  IERC20(input).balanceOf(address(pair)) */\n      mload(0x40)\n      dup3\n      0xffffffff\n      and\n      0xe0\n      shl\n      dup2\n      mstore\n      0x04\n      add\n      dup1\n      dup3\n      sub(shl(0xa0, 0x01), 0x01)\n      and\n      sub(shl(0xa0, 0x01), 0x01)\n      and\n      dup2\n      mstore\n      0x20\n      add\n      swap2\n      pop\n      pop\n      0x20\n      mload(0x40)\n      dup1\n      dup4\n      sub\n      dup2\n      dup7\n      dup1\n      extcodesize\n      iszero\n        /* \"--CODEGEN--\":5:14   */\n      dup1\n        /* \"--CODEGEN--\":2:4   */\n      iszero\n      tag_289\n      jumpi\n        /* \"--CODEGEN--\":27:28   */\n      0x00\n        /* \"--CODEGEN--\":24:25   */\n      dup1\n        /* \"--CODEGEN--\":17:29   */\n      revert\n        /* \"contracts/indrarouter.sol\":29838:29894  IERC20(input).balanceOf(address(pair)).sub(reserveInput) */\n    tag_596:\n        /* \"contracts/indrarouter.sol\":29824:29894  amountInput = IERC20(input).balanceOf(address(pair)).sub(reserveInput) */\n      swap6\n      pop\n        /* \"contracts/indrarouter.sol\":29923:29992  PancakeLibrary.getAmountOut(amountInput, reserveInput, reserveOutput) */\n      tag_601\n        /* \"contracts/indrarouter.sol\":29951:29962  amountInput */\n      dup7\n        /* \"contracts/indrarouter.sol\":29964:29976  reserveInput */\n      dup4\n        /* \"contracts/indrarouter.sol\":29978:29991  reserveOutput */\n      dup4\n        /* \"contracts/indrarouter.sol\":29923:29950  PancakeLibrary.getAmountOut */\n      tag_193\n        /* \"contracts/indrarouter.sol\":29923:29992  PancakeLibrary.getAmountOut(amountInput, reserveInput, reserveOutput) */\n      jump\t// in\n    tag_601:\n        /* \"contracts/indrarouter.sol\":29908:29992  amountOutput = PancakeLibrary.getAmountOut(amountInput, reserveInput, reserveOutput) */\n      swap5\n      pop\n        /* \"contracts/indrarouter.sol\":29235:30307  for (uint i; i < path.length - 1; i++) {... */\n      pop\n      pop\n      pop\n      pop\n        /* \"contracts/indrarouter.sol\":30021:30036  uint amount0Out */\n      0x00\n        /* \"contracts/indrarouter.sol\":30038:30053  uint amount1Out */\n      dup1\n        /* \"contracts/indrarouter.sol\":30066:30072  token0 */\n      dup6\n      sub(shl(0xa0, 0x01), 0x01)\n        /* \"contracts/indrarouter.sol\":30057:30072  input == token0 */\n      and\n        /* \"contracts/indrarouter.sol\":30057:30062  input */\n      dup9\n      sub(shl(0xa0, 0x01), 0x01)\n        /* \"contracts/indrarouter.sol\":30057:30072  input == token0 */\n      and\n      eq\n        /* \"contracts/indrarouter.sol\":30057:30124  input == token0 ? (uint(0), amountOutput) : (amountOutput, uint(0)) */\n      tag_602\n      jumpi\n        /* \"contracts/indrarouter.sol\":30102:30114  amountOutput */\n      dup3\n        /* \"contracts/indrarouter.sol\":30121:30122  0 */\n      0x00\n        /* \"contracts/indrarouter.sol\":30057:30124  input == token0 ? (uint(0), amountOutput) : (amountOutput, uint(0)) */\n      jump(tag_603)\n    tag_602:\n        /* \"contracts/indrarouter.sol\":30081:30082  0 */\n      0x00\n        /* \"contracts/indrarouter.sol\":30085:30097  amountOutput */\n      dup4\n        /* \"contracts/indrarouter.sol\":30057:30124  input == token0 ? (uint(0), amountOutput) : (amountOutput, uint(0)) */\n    tag_603:\n        /* \"contracts/indrarouter.sol\":30020:30124  (uint amount0Out, uint amount1Out) = input == token0 ? (uint(0), amountOutput) : (amountOutput, uint(0)) */\n      swap2\n      pop\n      swap2\n      pop\n        /* \"contracts/indrarouter.sol\":30138:30148  address to */\n      0x00\n        /* \"contracts/indrarouter.sol\":30169:30170  2 */\n      0x02\n        /* \"contracts/indrarouter.sol\":30155:30159  path */\n      dup13\n        /* \"contracts/indrarouter.sol\":30155:30166  path.length */\n      mload\n        /* \"contracts/indrarouter.sol\":30155:30170  path.length - 2 */\n      sub\n        /* \"contracts/indrarouter.sol\":30151:30152  i */\n      dup11\n        /* \"contracts/indrarouter.sol\":30151:30170  i < path.length - 2 */\n      lt\n        /* \"contracts/indrarouter.sol\":30151:30231  i < path.length - 2 ? PancakeLibrary.pairFor(factory, output, path[i + 2]) : _to */\n      tag_604\n      jumpi\n        /* \"contracts/indrarouter.sol\":30228:30231  _to */\n      dup11\n        /* \"contracts/indrarouter.sol\":30151:30231  i < path.length - 2 ? PancakeLibrary.pairFor(factory, output, path[i + 2]) : _to */\n      jump(tag_606)\n    tag_604:\n        /* \"contracts/indrarouter.sol\":30173:30225  PancakeLibrary.pairFor(factory, output, path[i + 2]) */\n      tag_606\n        /* \"contracts/indrarouter.sol\":30196:30203  factory */\n      immutable(\"0xeba818bcee6eaba9d1a7c8e4d0732334c4e45617c48a8a0861c4ad844e6db671\")\n        /* \"contracts/indrarouter.sol\":30205:30211  output */\n      dup10\n        /* \"contracts/indrarouter.sol\":30213:30217  path */\n      dup15\n        /* \"contracts/indrarouter.sol\":30218:30219  i */\n      dup14\n        /* \"contracts/indrarouter.sol\":30222:30223  2 */\n      0x02\n        /* \"contracts/indrarouter.sol\":30218:30223  i + 2 */\n      add\n        /* \"contracts/indrarouter.sol\":30213:30224  path[i + 2] */\n      dup2\n      mload\n      dup2\n      lt\n      tag_557\n      jumpi\n      invalid\n        /* \"contracts/indrarouter.sol\":30173:30225  PancakeLibrary.pairFor(factory, output, path[i + 2]) */\n    tag_606:\n        /* \"contracts/indrarouter.sol\":30283:30295  new bytes(0) */\n      0x40\n      dup1\n      mload\n        /* \"contracts/indrarouter.sol\":30293:30294  0 */\n      0x00\n        /* \"contracts/indrarouter.sol\":30283:30295  new bytes(0) */\n      dup1\n      dup3\n      mstore\n      0x20\n      dup3\n      add\n      swap3\n      dup4\n      swap1\n      mstore\n      shl(0xe0, 0x022c0d9f)\n        /* \"contracts/indrarouter.sol\":30245:30296  pair.swap(amount0Out, amount1Out, to, new bytes(0)) */\n      dup4\n      mstore\n      0x24\n      dup3\n      add\n      dup8\n      dup2\n      mstore\n      0x44\n      dup4\n      add\n      dup8\n      swap1\n      mstore\n      sub(shl(0xa0, 0x01), 0x01)\n      dup1\n      dup7\n      and\n      0x64\n      dup6\n      add\n      mstore\n      0x80\n      0x84\n      dup6\n      add\n      swap1\n      dup2\n      mstore\n      dup5\n      mload\n      0xa4\n      dup7\n      add\n      dup2\n      swap1\n      mstore\n        /* \"contracts/indrarouter.sol\":30138:30231  address to = i < path.length - 2 ? PancakeLibrary.pairFor(factory, output, path[i + 2]) : _to */\n      swap7\n      swap8\n      pop\n        /* \"contracts/indrarouter.sol\":30245:30254  pair.swap */\n      swap1\n      dup13\n      and\n      swap6\n      0x022c0d9f\n      swap6\n        /* \"contracts/indrarouter.sol\":30255:30265  amount0Out */\n      dup11\n      swap6\n        /* \"contracts/indrarouter.sol\":30267:30277  amount1Out */\n      dup11\n      swap6\n        /* \"contracts/indrarouter.sol\":30138:30231  address to = i < path.length - 2 ? PancakeLibrary.pairFor(factory, output, path[i + 2]) : _to */\n      dup11\n      swap6\n        /* \"contracts/indrarouter.sol\":30283:30295  new bytes(0) */\n      swap2\n      swap5\n        /* \"contracts/indrarouter.sol\":30245:30296  pair.swap(amount0Out, amount1Out, to, new bytes(0)) */\n      swap2\n      swap4\n      swap2\n      swap3\n      0xc4\n      dup7\n      add\n      swap3\n        /* \"contracts/indrarouter.sol\":30283:30295  new bytes(0) */\n      swap1\n      swap2\n        /* \"contracts/indrarouter.sol\":30245:30296  pair.swap(amount0Out, amount1Out, to, new bytes(0)) */\n      dup2\n      swap1\n      dup5\n      swap1\n        /* \"contracts/indrarouter.sol\":30283:30295  new bytes(0) */\n      dup5\n      swap1\n        /* \"--CODEGEN--\":8:108   */\n    tag_610:\n        /* \"--CODEGEN--\":33:36   */\n      dup4\n        /* \"--CODEGEN--\":30:31   */\n      dup2\n        /* \"--CODEGEN--\":27:37   */\n      lt\n        /* \"--CODEGEN--\":8:108   */\n      iszero\n      tag_612\n      jumpi\n        /* \"--CODEGEN--\":90:101   */\n      dup2\n      dup2\n      add\n        /* \"--CODEGEN--\":84:102   */\n      mload\n        /* \"--CODEGEN--\":71:82   */\n      dup4\n      dup3\n      add\n        /* \"--CODEGEN--\":64:103   */\n      mstore\n        /* \"--CODEGEN--\":52:54   */\n      0x20\n        /* \"--CODEGEN--\":45:55   */\n      add\n        /* \"--CODEGEN--\":8:108   */\n      jump(tag_610)\n    tag_612:\n        /* \"--CODEGEN--\":12:26   */\n      pop\n        /* \"contracts/indrarouter.sol\":30245:30296  pair.swap(amount0Out, amount1Out, to, new bytes(0)) */\n      pop\n      pop\n      pop\n      swap1\n      pop\n      swap1\n      dup2\n      add\n      swap1\n      0x1f\n      and\n      dup1\n      iszero\n      tag_613\n      jumpi\n      dup1\n      dup3\n      sub\n      dup1\n      mload\n      0x01\n      dup4\n      0x20\n      sub\n      0x0100\n      exp\n      sub\n      not\n      and\n      dup2\n      mstore\n      0x20\n      add\n      swap2\n      pop\n    tag_613:\n      pop\n      swap6\n      pop\n      pop\n      pop\n      pop\n      pop\n      pop\n      0x00\n      mload(0x40)\n      dup1\n      dup4\n      sub\n      dup2\n      0x00\n      dup8\n      dup1\n      extcodesize\n      iszero\n        /* \"--CODEGEN--\":5:14   */\n      dup1\n        /* \"--CODEGEN--\":2:4   */\n      iszero\n      tag_614\n      jumpi\n        /* \"--CODEGEN--\":27:28   */\n      0x00\n        /* \"--CODEGEN--\":24:25   */\n      dup1\n        /* \"--CODEGEN--\":17:29   */\n      revert\n        /* \"--CODEGEN--\":2:4   */\n    tag_614:\n        /* \"contracts/indrarouter.sol\":30245:30296  pair.swap(amount0Out, amount1Out, to, new bytes(0)) */\n      pop\n      gas\n      call\n      iszero\n        /* \"--CODEGEN--\":8:17   */\n      dup1\n        /* \"--CODEGEN--\":5:7   */\n      iszero\n      tag_616\n      jumpi\n        /* \"--CODEGEN--\":45:61   */\n      returndatasize\n        /* \"--CODEGEN--\":42:43   */\n      0x00\n        /* \"--CODEGEN--\":39:40   */\n      dup1\n        /* \"--CODEGEN--\":24:62   */\n      returndatacopy\n        /* \"--CODEGEN--\":77:93   */\n      returndatasize\n        /* \"--CODEGEN--\":74:75   */\n      0x00\n        /* \"--CODEGEN--\":67:94   */\n      revert\n        /* \"--CODEGEN--\":5:7   */\n    tag_616:\n      pop\n      pop\n        /* \"contracts/indrarouter.sol\":29269:29272  i++ */\n      0x01\n      swap1\n      swap12\n      add\n      swap11\n      pop\n        /* \"contracts/indrarouter.sol\":29235:30307  for (uint i; i < path.length - 1; i++) {... */\n      tag_583\n      swap10\n      pop\n      pop\n      pop\n      pop\n      pop\n      pop\n      pop\n      pop\n      pop\n      pop\n      jump\n        /* \"contracts/indrarouter.sol\":7508:7635  function sub(uint x, uint y) internal pure returns (uint z) {... */\n    tag_293:\n        /* \"contracts/indrarouter.sol\":7591:7596  x - y */\n      dup1\n      dup3\n      sub\n        /* \"contracts/indrarouter.sol\":7586:7602  (z = x - y) <= x */\n      dup3\n      dup2\n      gt\n      iszero\n        /* \"contracts/indrarouter.sol\":7578:7628  require((z = x - y) <= x, 'ds-math-sub-underflow') */\n      tag_219\n      jumpi\n      0x40\n      dup1\n      mload\n      shl(0xe5, 0x461bcd)\n      dup2\n      mstore\n      0x20\n      0x04\n      dup3\n      add\n      mstore\n      0x15\n      0x24\n      dup3\n      add\n      mstore\n      shl(0x58, 0x64732d6d6174682d7375622d756e646572666c6f77)\n      0x44\n      dup3\n      add\n      mstore\n      swap1\n      mload\n      swap1\n      dup2\n      swap1\n      sub\n      0x64\n      add\n      swap1\n      revert\n        /* \"contracts/indrarouter.sol\":13108:13572  function getAmountIn(uint amountOut, uint reserveIn, uint reserveOut) internal pure returns (uint amountIn) {... */\n    tag_339:\n        /* \"contracts/indrarouter.sol\":13201:13214  uint amountIn */\n      0x00\n        /* \"contracts/indrarouter.sol\":13246:13247  0 */\n      dup1\n        /* \"contracts/indrarouter.sol\":13234:13243  amountOut */\n      dup5\n        /* \"contracts/indrarouter.sol\":13234:13247  amountOut > 0 */\n      gt\n        /* \"contracts/indrarouter.sol\":13226:13294  require(amountOut > 0, 'PancakeLibrary: INSUFFICIENT_OUTPUT_AMOUNT') */\n      tag_620\n      jumpi\n      mload(0x40)\n      shl(0xe5, 0x461bcd)\n      dup2\n      mstore\n      0x04\n      add\n      dup1\n      dup1\n      0x20\n      add\n      dup3\n      dup2\n      sub\n      dup3\n      mstore\n      0x2a\n      dup2\n      mstore\n      0x20\n      add\n      dup1\n      data_2efdc80403d7563fa9c531179ffb4e51423c3b868e9d6d530533fd423943394a\n      0x2a\n      swap2\n      codecopy\n      0x40\n      add\n      swap2\n      pop\n      pop\n      mload(0x40)\n      dup1\n      swap2\n      sub\n      swap1\n      revert\n    tag_620:\n        /* \"contracts/indrarouter.sol\":13324:13325  0 */\n      0x00\n        /* \"contracts/indrarouter.sol\":13312:13321  reserveIn */\n      dup4\n        /* \"contracts/indrarouter.sol\":13312:13325  reserveIn > 0 */\n      gt\n        /* \"contracts/indrarouter.sol\":13312:13343  reserveIn > 0 && reserveOut > 0 */\n      dup1\n      iszero\n      tag_621\n      jumpi\n      pop\n        /* \"contracts/indrarouter.sol\":13342:13343  0 */\n      0x00\n        /* \"contracts/indrarouter.sol\":13329:13339  reserveOut */\n      dup3\n        /* \"contracts/indrarouter.sol\":13329:13343  reserveOut > 0 */\n      gt\n        /* \"contracts/indrarouter.sol\":13312:13343  reserveIn > 0 && reserveOut > 0 */\n    tag_621:\n        /* \"contracts/indrarouter.sol\":13304:13386  require(reserveIn > 0 && reserveOut > 0, 'PancakeLibrary: INSUFFICIENT_LIQUIDITY') */\n      tag_622\n      jumpi\n      mload(0x40)\n      shl(0xe5, 0x461bcd)\n      dup2\n      mstore\n      0x04\n      add\n      dup1\n      dup1\n      0x20\n      add\n      dup3\n      dup2\n      sub\n      dup3\n      mstore\n      0x26\n      dup2\n      mstore\n      0x20\n      add\n      dup1\n      data_e7f79b6b909ed2023c6e79d88a862542f92041db19a71970a37e18b3fc8ff469\n      0x26\n      swap2\n      codecopy\n      0x40\n      add\n      swap2\n      pop\n      pop\n      mload(0x40)\n      dup1\n      swap2\n      sub\n      swap1\n      revert\n    tag_622:\n        /* \"contracts/indrarouter.sol\":13396:13410  uint numerator */\n      0x00\n        /* \"contracts/indrarouter.sol\":13413:13448  reserveIn.mul(amountOut).mul(10000) */\n      tag_623\n        /* \"contracts/indrarouter.sol\":13442:13447  10000 */\n      0x2710\n        /* \"contracts/indrarouter.sol\":13413:13437  reserveIn.mul(amountOut) */\n      tag_624\n        /* \"contracts/indrarouter.sol\":13413:13422  reserveIn */\n      dup7\n        /* \"contracts/indrarouter.sol\":13427:13436  amountOut */\n      dup9\n        /* \"contracts/indrarouter.sol\":13413:13437  reserveIn.mul(amountOut) */\n      0xffffffff\n        /* \"contracts/indrarouter.sol\":13413:13426  reserveIn.mul */\n      tag_510\n        /* \"contracts/indrarouter.sol\":13413:13437  reserveIn.mul(amountOut) */\n      and\n      jump\t// in\n    tag_624:\n        /* \"contracts/indrarouter.sol\":13413:13441  reserveIn.mul(amountOut).mul */\n      swap1\n        /* \"contracts/indrarouter.sol\":13413:13448  reserveIn.mul(amountOut).mul(10000) */\n      0xffffffff\n        /* \"contracts/indrarouter.sol\":13413:13441  reserveIn.mul(amountOut).mul */\n      tag_510\n        /* \"contracts/indrarouter.sol\":13413:13448  reserveIn.mul(amountOut).mul(10000) */\n      and\n      jump\t// in\n    tag_623:\n        /* \"contracts/indrarouter.sol\":13396:13448  uint numerator = reserveIn.mul(amountOut).mul(10000) */\n      swap1\n      pop\n        /* \"contracts/indrarouter.sol\":13458:13474  uint denominator */\n      0x00\n        /* \"contracts/indrarouter.sol\":13477:13512  reserveOut.sub(amountOut).mul(9975) */\n      tag_625\n        /* \"contracts/indrarouter.sol\":13507:13511  9975 */\n      0x26f7\n        /* \"contracts/indrarouter.sol\":13477:13502  reserveOut.sub(amountOut) */\n      tag_624\n        /* \"contracts/indrarouter.sol\":13477:13487  reserveOut */\n      dup7\n        /* \"contracts/indrarouter.sol\":13492:13501  amountOut */\n      dup10\n        /* \"contracts/indrarouter.sol\":13477:13502  reserveOut.sub(amountOut) */\n      0xffffffff\n        /* \"contracts/indrarouter.sol\":13477:13491  reserveOut.sub */\n      tag_293\n        /* \"contracts/indrarouter.sol\":13477:13502  reserveOut.sub(amountOut) */\n      and\n      jump\t// in\n        /* \"contracts/indrarouter.sol\":13477:13512  reserveOut.sub(amountOut).mul(9975) */\n    tag_625:\n        /* \"contracts/indrarouter.sol\":13458:13512  uint denominator = reserveOut.sub(amountOut).mul(9975) */\n      swap1\n      pop\n        /* \"contracts/indrarouter.sol\":13533:13565  (numerator / denominator).add(1) */\n      tag_627\n        /* \"contracts/indrarouter.sol\":13563:13564  1 */\n      0x01\n        /* \"contracts/indrarouter.sol\":13546:13557  denominator */\n      dup3\n        /* \"contracts/indrarouter.sol\":13534:13543  numerator */\n      dup5\n        /* \"contracts/indrarouter.sol\":13534:13557  numerator / denominator */\n      dup2\n      tag_628\n      jumpi\n      invalid\n    tag_628:\n      div\n      swap1\n        /* \"contracts/indrarouter.sol\":13533:13565  (numerator / denominator).add(1) */\n      0xffffffff\n        /* \"contracts/indrarouter.sol\":13533:13562  (numerator / denominator).add */\n      tag_514\n        /* \"contracts/indrarouter.sol\":13533:13565  (numerator / denominator).add(1) */\n      and\n      jump\t// in\n    tag_627:\n        /* \"contracts/indrarouter.sol\":13522:13565  amountIn = (numerator / denominator).add(1) */\n      swap7\n        /* \"contracts/indrarouter.sol\":13108:13572  function getAmountIn(uint amountOut, uint reserveIn, uint reserveOut) internal pure returns (uint amountIn) {... */\n      swap6\n      pop\n      pop\n      pop\n      pop\n      pop\n      pop\n      jump\t// out\n        /* \"contracts/indrarouter.sol\":12050:12363  function quote(uint amountA, uint reserveA, uint reserveB) internal pure returns (uint amountB) {... */\n    tag_355:\n        /* \"contracts/indrarouter.sol\":12132:12144  uint amountB */\n      0x00\n        /* \"contracts/indrarouter.sol\":12174:12175  0 */\n      dup1\n        /* \"contracts/indrarouter.sol\":12164:12171  amountA */\n      dup5\n        /* \"contracts/indrarouter.sol\":12164:12175  amountA > 0 */\n      gt\n        /* \"contracts/indrarouter.sol\":12156:12215  require(amountA > 0, 'PancakeLibrary: INSUFFICIENT_AMOUNT') */\n      tag_630\n      jumpi\n      mload(0x40)\n      shl(0xe5, 0x461bcd)\n      dup2\n      mstore\n      0x04\n      add\n      dup1\n      dup1\n      0x20\n      add\n      dup3\n      dup2\n      sub\n      dup3\n      mstore\n      0x23\n      dup2\n      mstore\n      0x20\n      add\n      dup1\n      data_c2436cd9fe392e9d92ea64ccc2d35ff51167714e653294bf2e45cb6e82b00db9\n      0x23\n      swap2\n      codecopy\n      0x40\n      add\n      swap2\n      pop\n      pop\n      mload(0x40)\n      dup1\n      swap2\n      sub\n      swap1\n      revert\n    tag_630:\n        /* \"contracts/indrarouter.sol\":12244:12245  0 */\n      0x00\n        /* \"contracts/indrarouter.sol\":12233:12241  reserveA */\n      dup4\n        /* \"contracts/indrarouter.sol\":12233:12245  reserveA > 0 */\n      gt\n        /* \"contracts/indrarouter.sol\":12233:12261  reserveA > 0 && reserveB > 0 */\n      dup1\n      iszero\n      tag_631\n      jumpi\n      pop\n        /* \"contracts/indrarouter.sol\":12260:12261  0 */\n      0x00\n        /* \"contracts/indrarouter.sol\":12249:12257  reserveB */\n      dup3\n        /* \"contracts/indrarouter.sol\":12249:12261  reserveB > 0 */\n      gt\n        /* \"contracts/indrarouter.sol\":12233:12261  reserveA > 0 && reserveB > 0 */\n    tag_631:\n        /* \"contracts/indrarouter.sol\":12225:12304  require(reserveA > 0 && reserveB > 0, 'PancakeLibrary: INSUFFICIENT_LIQUIDITY') */\n      tag_632\n      jumpi\n      mload(0x40)\n      shl(0xe5, 0x461bcd)\n      dup2\n      mstore\n      0x04\n      add\n      dup1\n      dup1\n      0x20\n      add\n      dup3\n      dup2\n      sub\n      dup3\n      mstore\n      0x26\n      dup2\n      mstore\n      0x20\n      add\n      dup1\n      data_e7f79b6b909ed2023c6e79d88a862542f92041db19a71970a37e18b3fc8ff469\n      0x26\n      swap2\n      codecopy\n      0x40\n      add\n      swap2\n      pop\n      pop\n      mload(0x40)\n      dup1\n      swap2\n      sub\n      swap1\n      revert\n    tag_632:\n        /* \"contracts/indrarouter.sol\":12348:12356  reserveA */\n      dup3\n        /* \"contracts/indrarouter.sol\":12324:12345  amountA.mul(reserveB) */\n      tag_633\n        /* \"contracts/indrarouter.sol\":12324:12331  amountA */\n      dup6\n        /* \"contracts/indrarouter.sol\":12336:12344  reserveB */\n      dup5\n        /* \"contracts/indrarouter.sol\":12324:12345  amountA.mul(reserveB) */\n      0xffffffff\n        /* \"contracts/indrarouter.sol\":12324:12335  amountA.mul */\n      tag_510\n        /* \"contracts/indrarouter.sol\":12324:12345  amountA.mul(reserveB) */\n      and\n      jump\t// in\n    tag_633:\n        /* \"contracts/indrarouter.sol\":12324:12356  amountA.mul(reserveB) / reserveA */\n      dup2\n      tag_634\n      jumpi\n      invalid\n    tag_634:\n      div\n      swap5\n        /* \"contracts/indrarouter.sol\":12050:12363  function quote(uint amountA, uint reserveA, uint reserveB) internal pure returns (uint amountB) {... */\n      swap4\n      pop\n      pop\n      pop\n      pop\n      jump\t// out\n        /* \"contracts/indrarouter.sol\":10492:10833  function sortTokens(address tokenA, address tokenB) internal pure returns (address token0, address token1) {... */\n    tag_411:\n        /* \"contracts/indrarouter.sol\":10567:10581  address token0 */\n      0x00\n        /* \"contracts/indrarouter.sol\":10583:10597  address token1 */\n      dup1\n        /* \"contracts/indrarouter.sol\":10627:10633  tokenB */\n      dup3\n      sub(shl(0xa0, 0x01), 0x01)\n        /* \"contracts/indrarouter.sol\":10617:10633  tokenA != tokenB */\n      and\n        /* \"contracts/indrarouter.sol\":10617:10623  tokenA */\n      dup5\n      sub(shl(0xa0, 0x01), 0x01)\n        /* \"contracts/indrarouter.sol\":10617:10633  tokenA != tokenB */\n      and\n      eq\n      iszero\n        /* \"contracts/indrarouter.sol\":10609:10673  require(tokenA != tokenB, 'PancakeLibrary: IDENTICAL_ADDRESSES') */\n      tag_636\n      jumpi\n      mload(0x40)\n      shl(0xe5, 0x461bcd)\n      dup2\n      mstore\n      0x04\n      add\n      dup1\n      dup1\n      0x20\n      add\n      dup3\n      dup2\n      sub\n      dup3\n      mstore\n      0x23\n      dup2\n      mstore\n      0x20\n      add\n      dup1\n      data_78572e429854b935d2f9b71fcd53b224e50c6518aa14fc5fcf53684f76e4ff60\n      0x23\n      swap2\n      codecopy\n      0x40\n      add\n      swap2\n      pop\n      pop\n      mload(0x40)\n      dup1\n      swap2\n      sub\n      swap1\n      revert\n    tag_636:\n        /* \"contracts/indrarouter.sol\":10711:10717  tokenB */\n      dup3\n      sub(shl(0xa0, 0x01), 0x01)\n        /* \"contracts/indrarouter.sol\":10702:10717  tokenA < tokenB */\n      and\n        /* \"contracts/indrarouter.sol\":10702:10708  tokenA */\n      dup5\n      sub(shl(0xa0, 0x01), 0x01)\n        /* \"contracts/indrarouter.sol\":10702:10717  tokenA < tokenB */\n      and\n      lt\n        /* \"contracts/indrarouter.sol\":10702:10755  tokenA < tokenB ? (tokenA, tokenB) : (tokenB, tokenA) */\n      tag_637\n      jumpi\n        /* \"contracts/indrarouter.sol\":10740:10746  tokenB */\n      dup3\n        /* \"contracts/indrarouter.sol\":10748:10754  tokenA */\n      dup5\n        /* \"contracts/indrarouter.sol\":10702:10755  tokenA < tokenB ? (tokenA, tokenB) : (tokenB, tokenA) */\n      jump(tag_638)\n    tag_637:\n        /* \"contracts/indrarouter.sol\":10721:10727  tokenA */\n      dup4\n        /* \"contracts/indrarouter.sol\":10729:10735  tokenB */\n      dup4\n        /* \"contracts/indrarouter.sol\":10702:10755  tokenA < tokenB ? (tokenA, tokenB) : (tokenB, tokenA) */\n    tag_638:\n        /* \"contracts/indrarouter.sol\":10683:10755  (token0, token1) = tokenA < tokenB ? (tokenA, tokenB) : (tokenB, tokenA) */\n      swap1\n      swap3\n      pop\n      swap1\n      pop\n      sub(shl(0xa0, 0x01), 0x01)\n        /* \"contracts/indrarouter.sol\":10773:10793  token0 != address(0) */\n      dup3\n      and\n        /* \"contracts/indrarouter.sol\":10765:10826  require(token0 != address(0), 'PancakeLibrary: ZERO_ADDRESS') */\n      tag_639\n      jumpi\n      0x40\n      dup1\n      mload\n      shl(0xe5, 0x461bcd)\n      dup2\n      mstore\n      0x20\n      0x04\n      dup3\n      add\n      mstore\n      0x1c\n      0x24\n      dup3\n      add\n      mstore\n      0x50616e63616b654c6962726172793a205a45524f5f4144445245535300000000\n      0x44\n      dup3\n      add\n      mstore\n      swap1\n      mload\n      swap1\n      dup2\n      swap1\n      sub\n      0x64\n      add\n      swap1\n      revert\n    tag_639:\n        /* \"contracts/indrarouter.sol\":10492:10833  function sortTokens(address tokenA, address tokenB) internal pure returns (address token0, address token1) {... */\n      swap3\n      pop\n      swap3\n      swap1\n      pop\n      jump\t// out\n        /* \"contracts/indrarouter.sol\":16504:17853  function _addLiquidity(... */\n    tag_430:\n        /* \"contracts/indrarouter.sol\":16808:16856  IPancakeFactory(factory).getPair(tokenA, tokenB) */\n      0x40\n      dup1\n      mload\n      shl(0xe0, 0xe6a43905)\n      dup2\n      mstore\n      sub(shl(0xa0, 0x01), 0x01)\n      dup9\n      dup2\n      and\n      0x04\n      dup4\n      add\n      mstore\n      dup8\n      dup2\n      and\n      0x24\n      dup4\n      add\n      mstore\n      swap2\n      mload\n        /* \"contracts/indrarouter.sol\":16715:16727  uint amountA */\n      0x00\n      swap3\n      dup4\n      swap3\n      dup4\n      swap3\n        /* \"contracts/indrarouter.sol\":16824:16831  factory */\n      immutable(\"0xeba818bcee6eaba9d1a7c8e4d0732334c4e45617c48a8a0861c4ad844e6db671\")\n        /* \"contracts/indrarouter.sol\":16808:16840  IPancakeFactory(factory).getPair */\n      swap1\n      swap3\n      and\n      swap2\n      0xe6a43905\n      swap2\n        /* \"contracts/indrarouter.sol\":16808:16856  IPancakeFactory(factory).getPair(tokenA, tokenB) */\n      0x44\n      dup1\n      dup3\n      add\n      swap3\n      0x20\n      swap3\n      swap1\n      swap2\n      swap1\n      dup3\n      swap1\n      sub\n      add\n      dup2\n        /* \"contracts/indrarouter.sol\":16808:16840  IPancakeFactory(factory).getPair */\n      dup7\n        /* \"contracts/indrarouter.sol\":16808:16856  IPancakeFactory(factory).getPair(tokenA, tokenB) */\n      dup1\n      extcodesize\n      iszero\n        /* \"--CODEGEN--\":2:4   */\n      dup1\n      iszero\n      tag_641\n      jumpi\n        /* \"--CODEGEN--\":27:28   */\n      0x00\n        /* \"--CODEGEN--\":24:25   */\n      dup1\n        /* \"--CODEGEN--\":17:29   */\n      revert\n        /* \"--CODEGEN--\":2:4   */\n    tag_641:\n        /* \"contracts/indrarouter.sol\":16808:16856  IPancakeFactory(factory).getPair(tokenA, tokenB) */\n      pop\n      gas\n      staticcall\n      iszero\n        /* \"--CODEGEN--\":8:17   */\n      dup1\n        /* \"--CODEGEN--\":5:7   */\n      iszero\n      tag_643\n      jumpi\n        /* \"--CODEGEN--\":45:61   */\n      returndatasize\n        /* \"--CODEGEN--\":42:43   */\n      0x00\n        /* \"--CODEGEN--\":39:40   */\n      dup1\n        /* \"--CODEGEN--\":24:62   */\n      returndatacopy\n        /* \"--CODEGEN--\":77:93   */\n      returndatasize\n        /* \"--CODEGEN--\":74:75   */\n      0x00\n        /* \"--CODEGEN--\":67:94   */\n      revert\n        /* \"--CODEGEN--\":5:7   */\n    tag_643:\n        /* \"contracts/indrarouter.sol\":16808:16856  IPancakeFactory(factory).getPair(tokenA, tokenB) */\n      pop\n      pop\n      pop\n      pop\n      mload(0x40)\n      returndatasize\n        /* \"--CODEGEN--\":15:17   */\n      0x20\n        /* \"--CODEGEN--\":10:13   */\n      dup2\n        /* \"--CODEGEN--\":7:18   */\n      lt\n        /* \"--CODEGEN--\":4:6   */\n      iszero\n      tag_644\n      jumpi\n        /* \"--CODEGEN--\":31:32   */\n      0x00\n        /* \"--CODEGEN--\":28:29   */\n      dup1\n        /* \"--CODEGEN--\":21:33   */\n      revert\n        /* \"--CODEGEN--\":4:6   */\n    tag_644:\n      pop\n        /* \"contracts/indrarouter.sol\":16808:16856  IPancakeFactory(factory).getPair(tokenA, tokenB) */\n      mload\n      sub(shl(0xa0, 0x01), 0x01)\n        /* \"contracts/indrarouter.sol\":16808:16870  IPancakeFactory(factory).getPair(tokenA, tokenB) == address(0) */\n      and\n      eq\n        /* \"contracts/indrarouter.sol\":16804:16948  if (IPancakeFactory(factory).getPair(tokenA, tokenB) == address(0)) {... */\n      iszero\n      tag_645\n      jumpi\n        /* \"contracts/indrarouter.sol\":16886:16937  IPancakeFactory(factory).createPair(tokenA, tokenB) */\n      0x40\n      dup1\n      mload\n      shl(0xe1, 0x64e329cb)\n      dup2\n      mstore\n      sub(shl(0xa0, 0x01), 0x01)\n      dup11\n      dup2\n      and\n      0x04\n      dup4\n      add\n      mstore\n      dup10\n      dup2\n      and\n      0x24\n      dup4\n      add\n      mstore\n      swap2\n      mload\n        /* \"contracts/indrarouter.sol\":16902:16909  factory */\n      immutable(\"0xeba818bcee6eaba9d1a7c8e4d0732334c4e45617c48a8a0861c4ad844e6db671\")\n        /* \"contracts/indrarouter.sol\":16886:16921  IPancakeFactory(factory).createPair */\n      swap1\n      swap3\n      and\n      swap2\n      0xc9c65396\n      swap2\n        /* \"contracts/indrarouter.sol\":16886:16937  IPancakeFactory(factory).createPair(tokenA, tokenB) */\n      0x44\n      dup1\n      dup3\n      add\n      swap3\n      0x20\n      swap3\n      swap1\n      swap2\n      swap1\n      dup3\n      swap1\n      sub\n      add\n      dup2\n      0x00\n        /* \"contracts/indrarouter.sol\":16886:16921  IPancakeFactory(factory).createPair */\n      dup8\n        /* \"contracts/indrarouter.sol\":16886:16937  IPancakeFactory(factory).createPair(tokenA, tokenB) */\n      dup1\n      extcodesize\n      iszero\n        /* \"--CODEGEN--\":2:4   */\n      dup1\n      iszero\n      tag_646\n      jumpi\n        /* \"--CODEGEN--\":27:28   */\n      0x00\n        /* \"--CODEGEN--\":24:25   */\n      dup1\n        /* \"--CODEGEN--\":17:29   */\n      revert\n        /* \"--CODEGEN--\":2:4   */\n    tag_646:\n        /* \"contracts/indrarouter.sol\":16886:16937  IPancakeFactory(factory).createPair(tokenA, tokenB) */\n      pop\n      gas\n      call\n      iszero\n        /* \"--CODEGEN--\":8:17   */\n      dup1\n        /* \"--CODEGEN--\":5:7   */\n      iszero\n      tag_648\n      jumpi\n        /* \"--CODEGEN--\":45:61   */\n      returndatasize\n        /* \"--CODEGEN--\":42:43   */\n      0x00\n        /* \"--CODEGEN--\":39:40   */\n      dup1\n        /* \"--CODEGEN--\":24:62   */\n      returndatacopy\n        /* \"--CODEGEN--\":77:93   */\n      returndatasize\n        /* \"--CODEGEN--\":74:75   */\n      0x00\n        /* \"--CODEGEN--\":67:94   */\n      revert\n        /* \"--CODEGEN--\":5:7   */\n    tag_648:\n        /* \"contracts/indrarouter.sol\":16886:16937  IPancakeFactory(factory).createPair(tokenA, tokenB) */\n      pop\n      pop\n      pop\n      pop\n      mload(0x40)\n      returndatasize\n        /* \"--CODEGEN--\":15:17   */\n      0x20\n        /* \"--CODEGEN--\":10:13   */\n      dup2\n        /* \"--CODEGEN--\":7:18   */\n      lt\n        /* \"--CODEGEN--\":4:6   */\n      iszero\n      tag_649\n      jumpi\n        /* \"--CODEGEN--\":31:32   */\n      0x00\n        /* \"--CODEGEN--\":28:29   */\n      dup1\n        /* \"--CODEGEN--\":21:33   */\n      revert\n        /* \"--CODEGEN--\":4:6   */\n    tag_649:\n      pop\n      pop\n        /* \"contracts/indrarouter.sol\":16804:16948  if (IPancakeFactory(factory).getPair(tokenA, tokenB) == address(0)) {... */\n    tag_645:\n        /* \"contracts/indrarouter.sol\":16958:16971  uint reserveA */\n      0x00\n        /* \"contracts/indrarouter.sol\":16973:16986  uint reserveB */\n      dup1\n        /* \"contracts/indrarouter.sol\":16990:17041  PancakeLibrary.getReserves(factory, tokenA, tokenB) */\n      tag_650\n        /* \"contracts/indrarouter.sol\":17017:17024  factory */\n      immutable(\"0xeba818bcee6eaba9d1a7c8e4d0732334c4e45617c48a8a0861c4ad844e6db671\")\n        /* \"contracts/indrarouter.sol\":17026:17032  tokenA */\n      dup12\n        /* \"contracts/indrarouter.sol\":17034:17040  tokenB */\n      dup12\n        /* \"contracts/indrarouter.sol\":16990:17016  PancakeLibrary.getReserves */\n      tag_527\n        /* \"contracts/indrarouter.sol\":16990:17041  PancakeLibrary.getReserves(factory, tokenA, tokenB) */\n      jump\t// in\n    tag_650:\n        /* \"contracts/indrarouter.sol\":16957:17041  (uint reserveA, uint reserveB) = PancakeLibrary.getReserves(factory, tokenA, tokenB) */\n      swap2\n      pop\n      swap2\n      pop\n        /* \"contracts/indrarouter.sol\":17055:17063  reserveA */\n      dup2\n        /* \"contracts/indrarouter.sol\":17067:17068  0 */\n      0x00\n        /* \"contracts/indrarouter.sol\":17055:17068  reserveA == 0 */\n      eq\n        /* \"contracts/indrarouter.sol\":17055:17085  reserveA == 0 && reserveB == 0 */\n      dup1\n      iszero\n      tag_651\n      jumpi\n      pop\n        /* \"contracts/indrarouter.sol\":17072:17085  reserveB == 0 */\n      dup1\n      iszero\n        /* \"contracts/indrarouter.sol\":17055:17085  reserveA == 0 && reserveB == 0 */\n    tag_651:\n        /* \"contracts/indrarouter.sol\":17051:17847  if (reserveA == 0 && reserveB == 0) {... */\n      iszero\n      tag_652\n      jumpi\n        /* \"contracts/indrarouter.sol\":17123:17137  amountADesired */\n      dup8\n      swap4\n      pop\n        /* \"contracts/indrarouter.sol\":17139:17153  amountBDesired */\n      dup7\n      swap3\n      pop\n        /* \"contracts/indrarouter.sol\":17051:17847  if (reserveA == 0 && reserveB == 0) {... */\n      jump(tag_653)\n    tag_652:\n        /* \"contracts/indrarouter.sol\":17185:17204  uint amountBOptimal */\n      0x00\n        /* \"contracts/indrarouter.sol\":17207:17263  PancakeLibrary.quote(amountADesired, reserveA, reserveB) */\n      tag_654\n        /* \"contracts/indrarouter.sol\":17228:17242  amountADesired */\n      dup10\n        /* \"contracts/indrarouter.sol\":17244:17252  reserveA */\n      dup5\n        /* \"contracts/indrarouter.sol\":17254:17262  reserveB */\n      dup5\n        /* \"contracts/indrarouter.sol\":17207:17227  PancakeLibrary.quote */\n      tag_355\n        /* \"contracts/indrarouter.sol\":17207:17263  PancakeLibrary.quote(amountADesired, reserveA, reserveB) */\n      jump\t// in\n    tag_654:\n        /* \"contracts/indrarouter.sol\":17185:17263  uint amountBOptimal = PancakeLibrary.quote(amountADesired, reserveA, reserveB) */\n      swap1\n      pop\n        /* \"contracts/indrarouter.sol\":17299:17313  amountBDesired */\n      dup8\n        /* \"contracts/indrarouter.sol\":17281:17295  amountBOptimal */\n      dup2\n        /* \"contracts/indrarouter.sol\":17281:17313  amountBOptimal <= amountBDesired */\n      gt\n        /* \"contracts/indrarouter.sol\":17277:17837  if (amountBOptimal <= amountBDesired) {... */\n      tag_655\n      jumpi\n        /* \"contracts/indrarouter.sol\":17359:17369  amountBMin */\n      dup6\n        /* \"contracts/indrarouter.sol\":17341:17355  amountBOptimal */\n      dup2\n        /* \"contracts/indrarouter.sol\":17341:17369  amountBOptimal >= amountBMin */\n      lt\n      iszero\n        /* \"contracts/indrarouter.sol\":17333:17410  require(amountBOptimal >= amountBMin, 'PancakeRouter: INSUFFICIENT_B_AMOUNT') */\n      tag_656\n      jumpi\n      mload(0x40)\n      shl(0xe5, 0x461bcd)\n      dup2\n      mstore\n      0x04\n      add\n      dup1\n      dup1\n      0x20\n      add\n      dup3\n      dup2\n      sub\n      dup3\n      mstore\n      0x24\n      dup2\n      mstore\n      0x20\n      add\n      dup1\n      data_f52a741502b5da50a5ea2d120670dbc8a41268419821689a668eee625b765bdd\n      0x24\n      swap2\n      codecopy\n      0x40\n      add\n      swap2\n      pop\n      pop\n      mload(0x40)\n      dup1\n      swap2\n      sub\n      swap1\n      revert\n    tag_656:\n        /* \"contracts/indrarouter.sol\":17450:17464  amountADesired */\n      dup9\n      swap5\n      pop\n        /* \"contracts/indrarouter.sol\":17466:17480  amountBOptimal */\n      swap3\n      pop\n      dup3\n        /* \"contracts/indrarouter.sol\":17277:17837  if (amountBOptimal <= amountBDesired) {... */\n      jump(tag_657)\n    tag_655:\n        /* \"contracts/indrarouter.sol\":17520:17539  uint amountAOptimal */\n      0x00\n        /* \"contracts/indrarouter.sol\":17542:17598  PancakeLibrary.quote(amountBDesired, reserveB, reserveA) */\n      tag_658\n        /* \"contracts/indrarouter.sol\":17563:17577  amountBDesired */\n      dup10\n        /* \"contracts/indrarouter.sol\":17579:17587  reserveB */\n      dup5\n        /* \"contracts/indrarouter.sol\":17589:17597  reserveA */\n      dup7\n        /* \"contracts/indrarouter.sol\":17542:17562  PancakeLibrary.quote */\n      tag_355\n        /* \"contracts/indrarouter.sol\":17542:17598  PancakeLibrary.quote(amountBDesired, reserveB, reserveA) */\n      jump\t// in\n    tag_658:\n        /* \"contracts/indrarouter.sol\":17520:17598  uint amountAOptimal = PancakeLibrary.quote(amountBDesired, reserveB, reserveA) */\n      swap1\n      pop\n        /* \"contracts/indrarouter.sol\":17641:17655  amountADesired */\n      dup10\n        /* \"contracts/indrarouter.sol\":17623:17637  amountAOptimal */\n      dup2\n        /* \"contracts/indrarouter.sol\":17623:17655  amountAOptimal <= amountADesired */\n      gt\n      iszero\n        /* \"contracts/indrarouter.sol\":17616:17656  assert(amountAOptimal <= amountADesired) */\n      tag_659\n      jumpi\n      invalid\n    tag_659:\n        /* \"contracts/indrarouter.sol\":17700:17710  amountAMin */\n      dup8\n        /* \"contracts/indrarouter.sol\":17682:17696  amountAOptimal */\n      dup2\n        /* \"contracts/indrarouter.sol\":17682:17710  amountAOptimal >= amountAMin */\n      lt\n      iszero\n        /* \"contracts/indrarouter.sol\":17674:17751  require(amountAOptimal >= amountAMin, 'PancakeRouter: INSUFFICIENT_A_AMOUNT') */\n      tag_660\n      jumpi\n      mload(0x40)\n      shl(0xe5, 0x461bcd)\n      dup2\n      mstore\n      0x04\n      add\n      dup1\n      dup1\n      0x20\n      add\n      dup3\n      dup2\n      sub\n      dup3\n      mstore\n      0x24\n      dup2\n      mstore\n      0x20\n      add\n      dup1\n      data_9a6260423fdc88a337a0f9f8760b69a29bc94052bb07dc1cf319f59a04b7572b\n      0x24\n      swap2\n      codecopy\n      0x40\n      add\n      swap2\n      pop\n      pop\n      mload(0x40)\n      dup1\n      swap2\n      sub\n      swap1\n      revert\n    tag_660:\n        /* \"contracts/indrarouter.sol\":17791:17805  amountAOptimal */\n      swap5\n      pop\n        /* \"contracts/indrarouter.sol\":17807:17821  amountBDesired */\n      dup8\n      swap4\n      pop\n        /* \"contracts/indrarouter.sol\":17277:17837  if (amountBOptimal <= amountBDesired) {... */\n    tag_657:\n        /* \"contracts/indrarouter.sol\":17051:17847  if (reserveA == 0 && reserveB == 0) {... */\n      pop\n    tag_653:\n        /* \"contracts/indrarouter.sol\":16504:17853  function _addLiquidity(... */\n      pop\n      pop\n      swap7\n      pop\n      swap7\n      swap5\n      pop\n      pop\n      pop\n      pop\n      pop\n      jump\t// out\n        /* \"contracts/indrarouter.sol\":7641:7781  function mul(uint x, uint y) internal pure returns (uint z) {... */\n    tag_510:\n        /* \"contracts/indrarouter.sol\":7693:7699  uint z */\n      0x00\n        /* \"contracts/indrarouter.sol\":7719:7725  y == 0 */\n      dup2\n      iszero\n      dup1\n        /* \"contracts/indrarouter.sol\":7719:7749  y == 0 || (z = x * y) / y == x */\n      tag_662\n      jumpi\n      pop\n      pop\n        /* \"contracts/indrarouter.sol\":7734:7739  x * y */\n      dup1\n      dup3\n      mul\n        /* \"contracts/indrarouter.sol\":7748:7749  x */\n      dup3\n        /* \"contracts/indrarouter.sol\":7743:7744  y */\n      dup3\n        /* \"contracts/indrarouter.sol\":7734:7739  x * y */\n      dup3\n        /* \"contracts/indrarouter.sol\":7743:7744  y */\n      dup2\n        /* \"contracts/indrarouter.sol\":7729:7744  (z = x * y) / y */\n      tag_663\n      jumpi\n      invalid\n    tag_663:\n      div\n        /* \"contracts/indrarouter.sol\":7729:7749  (z = x * y) / y == x */\n      eq\n        /* \"contracts/indrarouter.sol\":7719:7749  y == 0 || (z = x * y) / y == x */\n    tag_662:\n        /* \"contracts/indrarouter.sol\":7711:7774  require(y == 0 || (z = x * y) / y == x, 'ds-math-mul-overflow') */\n      tag_219\n      jumpi\n      0x40\n      dup1\n      mload\n      shl(0xe5, 0x461bcd)\n      dup2\n      mstore\n      0x20\n      0x04\n      dup3\n      add\n      mstore\n      0x14\n      0x24\n      dup3\n      add\n      mstore\n      shl(0x60, 0x64732d6d6174682d6d756c2d6f766572666c6f77)\n      0x44\n      dup3\n      add\n      mstore\n      swap1\n      mload\n      swap1\n      dup2\n      swap1\n      sub\n      0x64\n      add\n      swap1\n      revert\n        /* \"contracts/indrarouter.sol\":7376:7502  function add(uint x, uint y) internal pure returns (uint z) {... */\n    tag_514:\n        /* \"contracts/indrarouter.sol\":7459:7464  x + y */\n      dup1\n      dup3\n      add\n        /* \"contracts/indrarouter.sol\":7454:7470  (z = x + y) >= x */\n      dup3\n      dup2\n      lt\n      iszero\n        /* \"contracts/indrarouter.sol\":7446:7495  require((z = x + y) >= x, 'ds-math-add-overflow') */\n      tag_219\n      jumpi\n      0x40\n      dup1\n      mload\n      shl(0xe5, 0x461bcd)\n      dup2\n      mstore\n      0x20\n      0x04\n      dup3\n      add\n      mstore\n      0x14\n      0x24\n      dup3\n      add\n      mstore\n      shl(0x60, 0x64732d6d6174682d6164642d6f766572666c6f77)\n      0x44\n      dup3\n      add\n      mstore\n      swap1\n      mload\n      swap1\n      dup2\n      swap1\n      sub\n      0x64\n      add\n      swap1\n      revert\n        /* \"contracts/indrarouter.sol\":11513:11940  function getReserves(address factory, address tokenA, address tokenB) internal view returns (uint reserveA, uint reserveB) {... */\n    tag_527:\n        /* \"contracts/indrarouter.sol\":11606:11619  uint reserveA */\n      0x00\n        /* \"contracts/indrarouter.sol\":11621:11634  uint reserveB */\n      dup1\n        /* \"contracts/indrarouter.sol\":11647:11661  address token0 */\n      0x00\n        /* \"contracts/indrarouter.sol\":11666:11692  sortTokens(tokenA, tokenB) */\n      tag_668\n        /* \"contracts/indrarouter.sol\":11677:11683  tokenA */\n      dup6\n        /* \"contracts/indrarouter.sol\":11685:11691  tokenB */\n      dup6\n        /* \"contracts/indrarouter.sol\":11666:11676  sortTokens */\n      tag_411\n        /* \"contracts/indrarouter.sol\":11666:11692  sortTokens(tokenA, tokenB) */\n      jump\t// in\n    tag_668:\n        /* \"contracts/indrarouter.sol\":11646:11692  (address token0,) = sortTokens(tokenA, tokenB) */\n      pop\n      swap1\n      pop\n        /* \"contracts/indrarouter.sol\":11702:11734  pairFor(factory, tokenA, tokenB) */\n      tag_669\n        /* \"contracts/indrarouter.sol\":11710:11717  factory */\n      dup7\n        /* \"contracts/indrarouter.sol\":11719:11725  tokenA */\n      dup7\n        /* \"contracts/indrarouter.sol\":11727:11733  tokenB */\n      dup7\n        /* \"contracts/indrarouter.sol\":11702:11709  pairFor */\n      tag_208\n        /* \"contracts/indrarouter.sol\":11702:11734  pairFor(factory, tokenA, tokenB) */\n      jump\t// in\n    tag_669:\n      pop\n        /* \"contracts/indrarouter.sol\":11745:11758  uint reserve0 */\n      0x00\n        /* \"contracts/indrarouter.sol\":11760:11773  uint reserve1 */\n      dup1\n        /* \"contracts/indrarouter.sol\":11791:11823  pairFor(factory, tokenA, tokenB) */\n      tag_670\n        /* \"contracts/indrarouter.sol\":11799:11806  factory */\n      dup9\n        /* \"contracts/indrarouter.sol\":11808:11814  tokenA */\n      dup9\n        /* \"contracts/indrarouter.sol\":11816:11822  tokenB */\n      dup9\n        /* \"contracts/indrarouter.sol\":11791:11798  pairFor */\n      tag_208\n        /* \"contracts/indrarouter.sol\":11791:11823  pairFor(factory, tokenA, tokenB) */\n      jump\t// in\n    tag_670:\n      sub(shl(0xa0, 0x01), 0x01)\n        /* \"contracts/indrarouter.sol\":11778:11836  IPancakePair(pairFor(factory, tokenA, tokenB)).getReserves */\n      and\n      0x0902f1ac\n        /* \"contracts/indrarouter.sol\":11778:11838  IPancakePair(pairFor(factory, tokenA, tokenB)).getReserves() */\n      mload(0x40)\n      dup2\n      0xffffffff\n      and\n      0xe0\n      shl\n      dup2\n      mstore\n      0x04\n      add\n      0x60\n      mload(0x40)\n      dup1\n      dup4\n      sub\n      dup2\n      dup7\n      dup1\n      extcodesize\n      iszero\n        /* \"--CODEGEN--\":5:14   */\n      dup1\n        /* \"--CODEGEN--\":2:4   */\n      iszero\n      tag_671\n      jumpi\n        /* \"--CODEGEN--\":27:28   */\n      0x00\n        /* \"--CODEGEN--\":24:25   */\n      dup1\n        /* \"--CODEGEN--\":17:29   */\n      revert\n        /* \"--CODEGEN--\":2:4   */\n    tag_671:\n        /* \"contracts/indrarouter.sol\":11778:11838  IPancakePair(pairFor(factory, tokenA, tokenB)).getReserves() */\n      pop\n      gas\n      staticcall\n      iszero\n        /* \"--CODEGEN--\":8:17   */\n      dup1\n        /* \"--CODEGEN--\":5:7   */\n      iszero\n      tag_673\n      jumpi\n        /* \"--CODEGEN--\":45:61   */\n      returndatasize\n        /* \"--CODEGEN--\":42:43   */\n      0x00\n        /* \"--CODEGEN--\":39:40   */\n      dup1\n        /* \"--CODEGEN--\":24:62   */\n      returndatacopy\n        /* \"--CODEGEN--\":77:93   */\n      returndatasize\n        /* \"--CODEGEN--\":74:75   */\n      0x00\n        /* \"--CODEGEN--\":67:94   */\n      revert\n        /* \"--CODEGEN--\":5:7   */\n    tag_673:\n        /* \"contracts/indrarouter.sol\":11778:11838  IPancakePair(pairFor(factory, tokenA, tokenB)).getReserves() */\n      pop\n      pop\n      pop\n      pop\n      mload(0x40)\n      returndatasize\n        /* \"--CODEGEN--\":15:17   */\n      0x60\n        /* \"--CODEGEN--\":10:13   */\n      dup2\n        /* \"--CODEGEN--\":7:18   */\n      lt\n        /* \"--CODEGEN--\":4:6   */\n      iszero\n      tag_674\n      jumpi\n        /* \"--CODEGEN--\":31:32   */\n      0x00\n        /* \"--CODEGEN--\":28:29   */\n      dup1\n        /* \"--CODEGEN--\":21:33   */\n      revert\n        /* \"--CODEGEN--\":4:6   */\n    tag_674:\n      pop\n        /* \"contracts/indrarouter.sol\":11778:11838  IPancakePair(pairFor(factory, tokenA, tokenB)).getReserves() */\n      dup1\n      mload\n      0x20\n      swap1\n      swap2\n      add\n      mload\n      sub(shl(0x70, 0x01), 0x01)\n        /* \"contracts/indrarouter.sol\":11744:11838  (uint reserve0, uint reserve1,) = IPancakePair(pairFor(factory, tokenA, tokenB)).getReserves() */\n      swap2\n      dup3\n      and\n      swap4\n      pop\n      and\n      swap1\n      pop\n      sub(shl(0xa0, 0x01), 0x01)\n        /* \"contracts/indrarouter.sol\":11871:11887  tokenA == token0 */\n      dup8\n      dup2\n      and\n      swap1\n      dup5\n      and\n      eq\n        /* \"contracts/indrarouter.sol\":11871:11933  tokenA == token0 ? (reserve0, reserve1) : (reserve1, reserve0) */\n      tag_675\n      jumpi\n        /* \"contracts/indrarouter.sol\":11914:11922  reserve1 */\n      dup1\n        /* \"contracts/indrarouter.sol\":11924:11932  reserve0 */\n      dup3\n        /* \"contracts/indrarouter.sol\":11871:11933  tokenA == token0 ? (reserve0, reserve1) : (reserve1, reserve0) */\n      jump(tag_676)\n    tag_675:\n        /* \"contracts/indrarouter.sol\":11891:11899  reserve0 */\n      dup2\n        /* \"contracts/indrarouter.sol\":11901:11909  reserve1 */\n      dup2\n        /* \"contracts/indrarouter.sol\":11871:11933  tokenA == token0 ? (reserve0, reserve1) : (reserve1, reserve0) */\n    tag_676:\n        /* \"contracts/indrarouter.sol\":11848:11933  (reserveA, reserveB) = tokenA == token0 ? (reserve0, reserve1) : (reserve1, reserve0) */\n      swap1\n      swap10\n      swap1\n      swap9\n      pop\n        /* \"contracts/indrarouter.sol\":11513:11940  function getReserves(address factory, address tokenA, address tokenB) internal view returns (uint reserveA, uint reserveB) {... */\n      swap7\n      pop\n      pop\n      pop\n      pop\n      pop\n      pop\n      pop\n      jump\t// out\n    stop\n    data_14085ca7574f8785a82278031a3e9bccdeb82648f2bdc61f16978097f27af39a 50616e63616b654c6962726172793a20494e53554646494349454e545f494e5055545f414d4f554e54\n    data_2efdc80403d7563fa9c531179ffb4e51423c3b868e9d6d530533fd423943394a 50616e63616b654c6962726172793a20494e53554646494349454e545f4f55545055545f414d4f554e54\n    data_48da24abbb1fac1ad424fc0d0ddda728b5e193f1888a852641dc2d17535faffb 50616e63616b65526f757465723a204558504952454400000000000000000000\n    data_67a78505585fe709b19736b06d36a1ecdc512f90bed7fd0663a91a07a227deb4 50616e63616b65526f757465723a20494e53554646494349454e545f4f55545055545f414d4f554e54\n    data_78572e429854b935d2f9b71fcd53b224e50c6518aa14fc5fcf53684f76e4ff60 50616e63616b654c6962726172793a204944454e544943414c5f414444524553534553\n    data_82928200364a85809bf4a0b91c6d2eba6bdb5bd92df2e22eb8eef03222c3f531 50616e63616b65526f757465723a20494e56414c49445f504154480000000000\n    data_9a6260423fdc88a337a0f9f8760b69a29bc94052bb07dc1cf319f59a04b7572b 50616e63616b65526f757465723a20494e53554646494349454e545f415f414d4f554e54\n    data_c2436cd9fe392e9d92ea64ccc2d35ff51167714e653294bf2e45cb6e82b00db9 50616e63616b654c6962726172793a20494e53554646494349454e545f414d4f554e54\n    data_d290720a9b119bbeaf8124eb771e119cbea85a2f430cbb39a8fead2398528881 5472616e7366657248656c7065723a204554485f5452414e534645525f4641494c4544\n    data_e6ebac85a9dcf9d43d23a00e3f0314a74ac256fe09f8252fc03ff2284a4761ee 50616e63616b65526f757465723a204558434553534956455f494e5055545f414d4f554e54\n    data_e7f79b6b909ed2023c6e79d88a862542f92041db19a71970a37e18b3fc8ff469 50616e63616b654c6962726172793a20494e53554646494349454e545f4c4951554944495459\n    data_eb2904bf3c0c9ae693b53eb0188a703c388998a9c405b7965ca678cef9a51d18 5472616e7366657248656c7065723a205452414e534645525f46524f4d5f4641494c4544\n    data_f52a741502b5da50a5ea2d120670dbc8a41268419821689a668eee625b765bdd 50616e63616b65526f757465723a20494e53554646494349454e545f425f414d4f554e54\n\n    auxdata: 0xa2646970667358221220792cb090a08dac78c13f81093bb8bae2f9eb8f124ddc0c53343740931bdd6a0d64736f6c63430006060033\n}\n",
				"bytecode": {
					"linkReferences": {},
					"object": "60c060405234801561001057600080fd5b5060405162004762380380620047628339818101604052604081101561003557600080fd5b5080516020909101516001600160601b0319606092831b8116608052911b1660a05260805160601c60a05160601c6145dd620001856000398061015f5280610ce45280610d1f5280610e16528061103452806113be528061152452806118eb52806119e55280611a9b5280611b695280611caf5280611d375280611f7c5280611ff752806120a652806121725280612207528061227b528061277952806129ec5280612a425280612a765280612aea5280612c8a5280612dcd5280612e55525080610ea45280610f7b52806110fa5280611133528061126e528061144c528061150252806116725280611bfc5280611d695280611ecc52806122ad528061250652806126fe5280612727528061275752806128c45280612a205280612d1d5280612e87528061372e52806137715280613a545280613bd3528061400352806140b1528061413152506145dd6000f3fe60806040526004361061014f5760003560e01c80638803dbee116100b6578063c45a01551161006f578063c45a015514610a10578063d06ca61f14610a25578063ded9382a14610ada578063e8e3370014610b4d578063f305d71914610bcd578063fb3bdb4114610c1357610188565b80638803dbee146107df578063ad5c464814610875578063ad615dec146108a6578063af2979eb146108dc578063b6f9de951461092f578063baa2abde146109b357610188565b80634a25d94a116101085780634a25d94a146104f05780635b0d5984146105865780635c11d795146105f9578063791ac9471461068f5780637ff36ab51461072557806385f8c259146107a957610188565b806302751cec1461018d578063054d50d4146101f957806318cbafe5146102415780631f00ca74146103275780632195995c146103dc57806338ed17391461045a57610188565b3661018857336001600160a01b037f0000000000000000000000000000000000000000000000000000000000000000161461018657fe5b005b600080fd5b34801561019957600080fd5b506101e0600480360360c08110156101b057600080fd5b506001600160a01b0381358116916020810135916040820135916060810135916080820135169060a00135610c97565b6040805192835260208301919091528051918290030190f35b34801561020557600080fd5b5061022f6004803603606081101561021c57600080fd5b5080359060208101359060400135610db1565b60408051918252519081900360200190f35b34801561024d57600080fd5b506102d7600480360360a081101561026457600080fd5b813591602081013591810190606081016040820135600160201b81111561028a57600080fd5b82018360208201111561029c57600080fd5b803590602001918460208302840111600160201b831117156102bd57600080fd5b91935091506001600160a01b038135169060200135610dc6565b60408051602080825283518183015283519192839290830191858101910280838360005b838110156103135781810151838201526020016102fb565b505050509050019250505060405180910390f35b34801561033357600080fd5b506102d76004803603604081101561034a57600080fd5b81359190810190604081016020820135600160201b81111561036b57600080fd5b82018360208201111561037d57600080fd5b803590602001918460208302840111600160201b8311171561039e57600080fd5b9190808060200260200160405190810160405280939291908181526020018383602002808284376000920191909152509295506110f3945050505050565b3480156103e857600080fd5b506101e0600480360361016081101561040057600080fd5b506001600160a01b038135811691602081013582169160408201359160608101359160808201359160a08101359091169060c08101359060e081013515159060ff6101008201351690610120810135906101400135611129565b34801561046657600080fd5b506102d7600480360360a081101561047d57600080fd5b813591602081013591810190606081016040820135600160201b8111156104a357600080fd5b8201836020820111156104b557600080fd5b803590602001918460208302840111600160201b831117156104d657600080fd5b91935091506001600160a01b038135169060200135611223565b3480156104fc57600080fd5b506102d7600480360360a081101561051357600080fd5b813591602081013591810190606081016040820135600160201b81111561053957600080fd5b82018360208201111561054b57600080fd5b803590602001918460208302840111600160201b8311171561056c57600080fd5b91935091506001600160a01b03813516906020013561136e565b34801561059257600080fd5b5061022f60048036036101408110156105aa57600080fd5b506001600160a01b0381358116916020810135916040820135916060810135916080820135169060a08101359060c081013515159060ff60e082013516906101008101359061012001356114fa565b34801561060557600080fd5b50610186600480360360a081101561061c57600080fd5b813591602081013591810190606081016040820135600160201b81111561064257600080fd5b82018360208201111561065457600080fd5b803590602001918460208302840111600160201b8311171561067557600080fd5b91935091506001600160a01b038135169060200135611608565b34801561069b57600080fd5b50610186600480360360a08110156106b257600080fd5b813591602081013591810190606081016040820135600160201b8111156106d857600080fd5b8201836020820111156106ea57600080fd5b803590602001918460208302840111600160201b8311171561070b57600080fd5b91935091506001600160a01b03813516906020013561189d565b6102d76004803603608081101561073b57600080fd5b81359190810190604081016020820135600160201b81111561075c57600080fd5b82018360208201111561076e57600080fd5b803590602001918460208302840111600160201b8311171561078f57600080fd5b91935091506001600160a01b038135169060200135611b21565b3480156107b557600080fd5b5061022f600480360360608110156107cc57600080fd5b5080359060208101359060400135611e74565b3480156107eb57600080fd5b506102d7600480360360a081101561080257600080fd5b813591602081013591810190606081016040820135600160201b81111561082857600080fd5b82018360208201111561083a57600080fd5b803590602001918460208302840111600160201b8311171561085b57600080fd5b91935091506001600160a01b038135169060200135611e81565b34801561088157600080fd5b5061088a611f7a565b604080516001600160a01b039092168252519081900360200190f35b3480156108b257600080fd5b5061022f600480360360608110156108c957600080fd5b5080359060208101359060400135611f9e565b3480156108e857600080fd5b5061022f600480360360c08110156108ff57600080fd5b506001600160a01b0381358116916020810135916040820135916060810135916080820135169060a00135611fab565b6101866004803603608081101561094557600080fd5b81359190810190604081016020820135600160201b81111561096657600080fd5b82018360208201111561097857600080fd5b803590602001918460208302840111600160201b8311171561099957600080fd5b91935091506001600160a01b03813516906020013561212c565b3480156109bf57600080fd5b506101e0600480360360e08110156109d657600080fd5b506001600160a01b038135811691602081013582169160408201359160608101359160808201359160a08101359091169060c001356124b8565b348015610a1c57600080fd5b5061088a6126fc565b348015610a3157600080fd5b506102d760048036036040811015610a4857600080fd5b81359190810190604081016020820135600160201b811115610a6957600080fd5b820183602082011115610a7b57600080fd5b803590602001918460208302840111600160201b83111715610a9c57600080fd5b919080806020026020016040519081016040528093929190818152602001838360200280828437600092019190915250929550612720945050505050565b348015610ae657600080fd5b506101e06004803603610140811015610afe57600080fd5b506001600160a01b0381358116916020810135916040820135916060810135916080820135169060a08101359060c081013515159060ff60e0820135169061010081013590610120013561274d565b348015610b5957600080fd5b50610baf6004803603610100811015610b7157600080fd5b506001600160a01b038135811691602081013582169160408201359160608101359160808201359160a08101359160c0820135169060e00135612861565b60408051938452602084019290925282820152519081900360600190f35b610baf600480360360c0811015610be357600080fd5b506001600160a01b0381358116916020810135916040820135916060810135916080820135169060a0013561299d565b6102d760048036036080811015610c2957600080fd5b81359190810190604081016020820135600160201b811115610c4a57600080fd5b820183602082011115610c5c57600080fd5b803590602001918460208302840111600160201b83111715610c7d57600080fd5b91935091506001600160a01b038135169060200135612c42565b6000808242811015610cde576040805162461bcd60e51b8152602060048201526016602482015260008051602061441f833981519152604482015290519081900360640190fd5b610d0d897f00000000000000000000000000000000000000000000000000000000000000008a8a8a308a6124b8565b9093509150610d1d898685612fc4565b7f00000000000000000000000000000000000000000000000000000000000000006001600160a01b0316632e1a7d4d836040518263ffffffff1660e01b815260040180828152602001915050600060405180830381600087803b158015610d8357600080fd5b505af1158015610d97573d6000803e3d6000fd5b50505050610da5858361312e565b50965096945050505050565b6000610dbe848484613226565b949350505050565b60608142811015610e0c576040805162461bcd60e51b8152602060048201526016602482015260008051602061441f833981519152604482015290519081900360640190fd5b6001600160a01b037f00000000000000000000000000000000000000000000000000000000000000001686866000198101818110610e4657fe5b905060200201356001600160a01b03166001600160a01b031614610e9f576040805162461bcd60e51b815260206004820152601b602482015260008051602061448b833981519152604482015290519081900360640190fd5b610efd7f00000000000000000000000000000000000000000000000000000000000000008988888080602002602001604051908101604052809392919081815260200183836020028082843760009201919091525061331692505050565b91508682600184510381518110610f1057fe5b60200260200101511015610f555760405162461bcd60e51b815260040180806020018281038252602981526020018061443f6029913960400191505060405180910390fd5b610ff386866000818110610f6557fe5b905060200201356001600160a01b031633610fd97f00000000000000000000000000000000000000000000000000000000000000008a8a6000818110610fa757fe5b905060200201356001600160a01b03168b8b6001818110610fc457fe5b905060200201356001600160a01b0316613462565b85600081518110610fe657fe5b6020026020010151613522565b6110328287878080602002602001604051908101604052809392919081815260200183836020028082843760009201919091525030925061367f915050565b7f00000000000000000000000000000000000000000000000000000000000000006001600160a01b0316632e1a7d4d8360018551038151811061107157fe5b60200260200101516040518263ffffffff1660e01b815260040180828152602001915050600060405180830381600087803b1580156110af57600080fd5b505af11580156110c3573d6000803e3d6000fd5b505050506110e884836001855103815181106110db57fe5b602002602001015161312e565b509695505050505050565b60606111207f000000000000000000000000000000000000000000000000000000000000000084846138c5565b90505b92915050565b60008060006111597f00000000000000000000000000000000000000000000000000000000000000008f8f613462565b9050600087611168578c61116c565b6000195b6040805163d505accf60e01b815233600482015230602482015260448101839052606481018c905260ff8a16608482015260a4810189905260c4810188905290519192506001600160a01b0384169163d505accf9160e48082019260009290919082900301818387803b1580156111e257600080fd5b505af11580156111f6573d6000803e3d6000fd5b505050506112098f8f8f8f8f8f8f6124b8565b809450819550505050509b509b9950505050505050505050565b60608142811015611269576040805162461bcd60e51b8152602060048201526016602482015260008051602061441f833981519152604482015290519081900360640190fd5b6112c77f00000000000000000000000000000000000000000000000000000000000000008988888080602002602001604051908101604052809392919081815260200183836020028082843760009201919091525061331692505050565b915086826001845103815181106112da57fe5b6020026020010151101561131f5760405162461bcd60e51b815260040180806020018281038252602981526020018061443f6029913960400191505060405180910390fd5b61132f86866000818110610f6557fe5b6110e88287878080602002602001604051908101604052809392919081815260200183836020028082843760009201919091525089925061367f915050565b606081428110156113b4576040805162461bcd60e51b8152602060048201526016602482015260008051602061441f833981519152604482015290519081900360640190fd5b6001600160a01b037f000000000000000000000000000000000000000000000000000000000000000016868660001981018181106113ee57fe5b905060200201356001600160a01b03166001600160a01b031614611447576040805162461bcd60e51b815260206004820152601b602482015260008051602061448b833981519152604482015290519081900360640190fd5b6114a57f0000000000000000000000000000000000000000000000000000000000000000898888808060200260200160405190810160405280939291908181526020018383602002808284376000920191909152506138c592505050565b915086826000815181106114b557fe5b60200260200101511115610f555760405162461bcd60e51b81526004018080602001828103825260258152602001806145156025913960400191505060405180910390fd5b6000806115487f00000000000000000000000000000000000000000000000000000000000000008d7f0000000000000000000000000000000000000000000000000000000000000000613462565b9050600086611557578b61155b565b6000195b6040805163d505accf60e01b815233600482015230602482015260448101839052606481018b905260ff8916608482015260a4810188905260c4810187905290519192506001600160a01b0384169163d505accf9160e48082019260009290919082900301818387803b1580156115d157600080fd5b505af11580156115e5573d6000803e3d6000fd5b505050506115f78d8d8d8d8d8d611fab565b9d9c50505050505050505050505050565b804281101561164c576040805162461bcd60e51b8152602060048201526016602482015260008051602061441f833981519152604482015290519081900360640190fd5b6116c18585600081811061165c57fe5b905060200201356001600160a01b0316336116bb7f00000000000000000000000000000000000000000000000000000000000000008989600081811061169e57fe5b905060200201356001600160a01b03168a8a6001818110610fc457fe5b8a613522565b6000858560001981018181106116d357fe5b905060200201356001600160a01b03166001600160a01b03166370a08231856040518263ffffffff1660e01b815260040180826001600160a01b03166001600160a01b0316815260200191505060206040518083038186803b15801561173857600080fd5b505afa15801561174c573d6000803e3d6000fd5b505050506040513d602081101561176257600080fd5b505160408051602088810282810182019093528882529293506117a49290918991899182918501908490808284376000920191909152508892506139fd915050565b8661185682888860001981018181106117b957fe5b905060200201356001600160a01b03166001600160a01b03166370a08231886040518263ffffffff1660e01b815260040180826001600160a01b03166001600160a01b0316815260200191505060206040518083038186803b15801561181e57600080fd5b505afa158015611832573d6000803e3d6000fd5b505050506040513d602081101561184857600080fd5b50519063ffffffff613d0816565b10156118935760405162461bcd60e51b815260040180806020018281038252602981526020018061443f6029913960400191505060405180910390fd5b5050505050505050565b80428110156118e1576040805162461bcd60e51b8152602060048201526016602482015260008051602061441f833981519152604482015290519081900360640190fd5b6001600160a01b037f0000000000000000000000000000000000000000000000000000000000000000168585600019810181811061191b57fe5b905060200201356001600160a01b03166001600160a01b031614611974576040805162461bcd60e51b815260206004820152601b602482015260008051602061448b833981519152604482015290519081900360640190fd5b6119848585600081811061165c57fe5b6119c28585808060200260200160405190810160405280939291908181526020018383602002808284376000920191909152503092506139fd915050565b604080516370a0823160e01b815230600482015290516000916001600160a01b037f000000000000000000000000000000000000000000000000000000000000000016916370a0823191602480820192602092909190829003018186803b158015611a2c57600080fd5b505afa158015611a40573d6000803e3d6000fd5b505050506040513d6020811015611a5657600080fd5b5051905086811015611a995760405162461bcd60e51b815260040180806020018281038252602981526020018061443f6029913960400191505060405180910390fd5b7f00000000000000000000000000000000000000000000000000000000000000006001600160a01b0316632e1a7d4d826040518263ffffffff1660e01b815260040180828152602001915050600060405180830381600087803b158015611aff57600080fd5b505af1158015611b13573d6000803e3d6000fd5b50505050611893848261312e565b60608142811015611b67576040805162461bcd60e51b8152602060048201526016602482015260008051602061441f833981519152604482015290519081900360640190fd5b7f00000000000000000000000000000000000000000000000000000000000000006001600160a01b031686866000818110611b9e57fe5b905060200201356001600160a01b03166001600160a01b031614611bf7576040805162461bcd60e51b815260206004820152601b602482015260008051602061448b833981519152604482015290519081900360640190fd5b611c557f00000000000000000000000000000000000000000000000000000000000000003488888080602002602001604051908101604052809392919081815260200183836020028082843760009201919091525061331692505050565b91508682600184510381518110611c6857fe5b60200260200101511015611cad5760405162461bcd60e51b815260040180806020018281038252602981526020018061443f6029913960400191505060405180910390fd5b7f00000000000000000000000000000000000000000000000000000000000000006001600160a01b031663d0e30db083600081518110611ce957fe5b60200260200101516040518263ffffffff1660e01b81526004016000604051808303818588803b158015611d1c57600080fd5b505af1158015611d30573d6000803e3d6000fd5b50505050507f00000000000000000000000000000000000000000000000000000000000000006001600160a01b031663a9059cbb611d957f00000000000000000000000000000000000000000000000000000000000000008989600081811061169e57fe5b84600081518110611da257fe5b60200260200101516040518363ffffffff1660e01b815260040180836001600160a01b03166001600160a01b0316815260200182815260200192505050602060405180830381600087803b158015611df957600080fd5b505af1158015611e0d573d6000803e3d6000fd5b505050506040513d6020811015611e2357600080fd5b5051611e2b57fe5b611e6a8287878080602002602001604051908101604052809392919081815260200183836020028082843760009201919091525089925061367f915050565b5095945050505050565b6000610dbe848484613d58565b60608142811015611ec7576040805162461bcd60e51b8152602060048201526016602482015260008051602061441f833981519152604482015290519081900360640190fd5b611f257f0000000000000000000000000000000000000000000000000000000000000000898888808060200260200160405190810160405280939291908181526020018383602002808284376000920191909152506138c592505050565b91508682600081518110611f3557fe5b6020026020010151111561131f5760405162461bcd60e51b81526004018080602001828103825260258152602001806145156025913960400191505060405180910390fd5b7f000000000000000000000000000000000000000000000000000000000000000081565b6000610dbe848484613e48565b60008142811015611ff1576040805162461bcd60e51b8152602060048201526016602482015260008051602061441f833981519152604482015290519081900360640190fd5b612020887f000000000000000000000000000000000000000000000000000000000000000089898930896124b8565b604080516370a0823160e01b815230600482015290519194506120a492508a9187916001600160a01b038416916370a0823191602480820192602092909190829003018186803b15801561207357600080fd5b505afa158015612087573d6000803e3d6000fd5b505050506040513d602081101561209d57600080fd5b5051612fc4565b7f00000000000000000000000000000000000000000000000000000000000000006001600160a01b0316632e1a7d4d836040518263ffffffff1660e01b815260040180828152602001915050600060405180830381600087803b15801561210a57600080fd5b505af115801561211e573d6000803e3d6000fd5b505050506110e8848361312e565b8042811015612170576040805162461bcd60e51b8152602060048201526016602482015260008051602061441f833981519152604482015290519081900360640190fd5b7f00000000000000000000000000000000000000000000000000000000000000006001600160a01b0316858560008181106121a757fe5b905060200201356001600160a01b03166001600160a01b031614612200576040805162461bcd60e51b815260206004820152601b602482015260008051602061448b833981519152604482015290519081900360640190fd5b60003490507f00000000000000000000000000000000000000000000000000000000000000006001600160a01b031663d0e30db0826040518263ffffffff1660e01b81526004016000604051808303818588803b15801561226057600080fd5b505af1158015612274573d6000803e3d6000fd5b50505050507f00000000000000000000000000000000000000000000000000000000000000006001600160a01b031663a9059cbb6122d97f00000000000000000000000000000000000000000000000000000000000000008989600081811061169e57fe5b836040518363ffffffff1660e01b815260040180836001600160a01b03166001600160a01b0316815260200182815260200192505050602060405180830381600087803b15801561232957600080fd5b505af115801561233d573d6000803e3d6000fd5b505050506040513d602081101561235357600080fd5b505161235b57fe5b60008686600019810181811061236d57fe5b905060200201356001600160a01b03166001600160a01b03166370a08231866040518263ffffffff1660e01b815260040180826001600160a01b03166001600160a01b0316815260200191505060206040518083038186803b1580156123d257600080fd5b505afa1580156123e6573d6000803e3d6000fd5b505050506040513d60208110156123fc57600080fd5b5051604080516020898102828101820190935289825292935061243e9290918a918a9182918501908490808284376000920191909152508992506139fd915050565b87611856828989600019810181811061245357fe5b905060200201356001600160a01b03166001600160a01b03166370a08231896040518263ffffffff1660e01b815260040180826001600160a01b03166001600160a01b0316815260200191505060206040518083038186803b15801561181e57600080fd5b60008082428110156124ff576040805162461bcd60e51b8152602060048201526016602482015260008051602061441f833981519152604482015290519081900360640190fd5b600061252c7f00000000000000000000000000000000000000000000000000000000000000008c8c613462565b604080516323b872dd60e01b81523360048201526001600160a01b03831660248201819052604482018d9052915192935090916323b872dd916064808201926020929091908290030181600087803b15801561258757600080fd5b505af115801561259b573d6000803e3d6000fd5b505050506040513d60208110156125b157600080fd5b50506040805163226bf2d160e21b81526001600160a01b03888116600483015282516000938493928616926389afcb44926024808301939282900301818787803b1580156125fe57600080fd5b505af1158015612612573d6000803e3d6000fd5b505050506040513d604081101561262857600080fd5b508051602090910151909250905060006126428e8e613ef4565b509050806001600160a01b03168e6001600160a01b031614612665578183612668565b82825b90975095508a8710156126ac5760405162461bcd60e51b81526004018080602001828103825260248152602001806144ab6024913960400191505060405180910390fd5b898610156126eb5760405162461bcd60e51b81526004018080602001828103825260248152602001806145846024913960400191505060405180910390fd5b505050505097509795505050505050565b7f000000000000000000000000000000000000000000000000000000000000000081565b60606111207f00000000000000000000000000000000000000000000000000000000000000008484613316565b600080600061279d7f00000000000000000000000000000000000000000000000000000000000000008e7f0000000000000000000000000000000000000000000000000000000000000000613462565b90506000876127ac578c6127b0565b6000195b6040805163d505accf60e01b815233600482015230602482015260448101839052606481018c905260ff8a16608482015260a4810189905260c4810188905290519192506001600160a01b0384169163d505accf9160e48082019260009290919082900301818387803b15801561282657600080fd5b505af115801561283a573d6000803e3d6000fd5b5050505061284c8e8e8e8e8e8e610c97565b909f909e509c50505050505050505050505050565b600080600083428110156128aa576040805162461bcd60e51b8152602060048201526016602482015260008051602061441f833981519152604482015290519081900360640190fd5b6128b88c8c8c8c8c8c613fd2565b909450925060006128ea7f00000000000000000000000000000000000000000000000000000000000000008e8e613462565b90506128f88d338388613522565b6129048c338387613522565b806001600160a01b0316636a627842886040518263ffffffff1660e01b815260040180826001600160a01b03166001600160a01b03168152602001915050602060405180830381600087803b15801561295c57600080fd5b505af1158015612970573d6000803e3d6000fd5b505050506040513d602081101561298657600080fd5b5051949d939c50939a509198505050505050505050565b600080600083428110156129e6576040805162461bcd60e51b8152602060048201526016602482015260008051602061441f833981519152604482015290519081900360640190fd5b612a148a7f00000000000000000000000000000000000000000000000000000000000000008b348c8c613fd2565b90945092506000612a667f00000000000000000000000000000000000000000000000000000000000000008c7f0000000000000000000000000000000000000000000000000000000000000000613462565b9050612a748b338388613522565b7f00000000000000000000000000000000000000000000000000000000000000006001600160a01b031663d0e30db0856040518263ffffffff1660e01b81526004016000604051808303818588803b158015612acf57600080fd5b505af1158015612ae3573d6000803e3d6000fd5b50505050507f00000000000000000000000000000000000000000000000000000000000000006001600160a01b031663a9059cbb82866040518363ffffffff1660e01b815260040180836001600160a01b03166001600160a01b0316815260200182815260200192505050602060405180830381600087803b158015612b6857600080fd5b505af1158015612b7c573d6000803e3d6000fd5b505050506040513d6020811015612b9257600080fd5b5051612b9a57fe5b806001600160a01b0316636a627842886040518263ffffffff1660e01b815260040180826001600160a01b03166001600160a01b03168152602001915050602060405180830381600087803b158015612bf257600080fd5b505af1158015612c06573d6000803e3d6000fd5b505050506040513d6020811015612c1c57600080fd5b5051925034841015612c3457612c343385340361312e565b505096509650969350505050565b60608142811015612c88576040805162461bcd60e51b8152602060048201526016602482015260008051602061441f833981519152604482015290519081900360640190fd5b7f00000000000000000000000000000000000000000000000000000000000000006001600160a01b031686866000818110612cbf57fe5b905060200201356001600160a01b03166001600160a01b031614612d18576040805162461bcd60e51b815260206004820152601b602482015260008051602061448b833981519152604482015290519081900360640190fd5b612d767f0000000000000000000000000000000000000000000000000000000000000000888888808060200260200160405190810160405280939291908181526020018383602002808284376000920191909152506138c592505050565b91503482600081518110612d8657fe5b60200260200101511115612dcb5760405162461bcd60e51b81526004018080602001828103825260258152602001806145156025913960400191505060405180910390fd5b7f00000000000000000000000000000000000000000000000000000000000000006001600160a01b031663d0e30db083600081518110612e0757fe5b60200260200101516040518263ffffffff1660e01b81526004016000604051808303818588803b158015612e3a57600080fd5b505af1158015612e4e573d6000803e3d6000fd5b50505050507f00000000000000000000000000000000000000000000000000000000000000006001600160a01b031663a9059cbb612eb37f00000000000000000000000000000000000000000000000000000000000000008989600081811061169e57fe5b84600081518110612ec057fe5b60200260200101516040518363ffffffff1660e01b815260040180836001600160a01b03166001600160a01b0316815260200182815260200192505050602060405180830381600087803b158015612f1757600080fd5b505af1158015612f2b573d6000803e3d6000fd5b505050506040513d6020811015612f4157600080fd5b5051612f4957fe5b612f888287878080602002602001604051908101604052809392919081815260200183836020028082843760009201919091525089925061367f915050565b81600081518110612f9557fe5b6020026020010151341115611e6a57611e6a3383600081518110612fb557fe5b6020026020010151340361312e565b604080516001600160a01b038481166024830152604480830185905283518084039091018152606490920183526020820180516001600160e01b031663a9059cbb60e01b178152925182516000946060949389169392918291908083835b602083106130415780518252601f199092019160209182019101613022565b6001836020036101000a0380198251168184511680821785525050505050509050019150506000604051808303816000865af19150503d80600081146130a3576040519150601f19603f3d011682016040523d82523d6000602084013e6130a8565b606091505b50915091508180156130d65750805115806130d657508080602001905160208110156130d357600080fd5b50515b613127576040805162461bcd60e51b815260206004820152601f60248201527f5472616e7366657248656c7065723a205452414e534645525f4641494c454400604482015290519081900360640190fd5b5050505050565b604080516000808252602082019092526001600160a01b0384169083906040518082805190602001908083835b6020831061317a5780518252601f19909201916020918201910161315b565b6001836020036101000a03801982511681845116808217855250505050505090500191505060006040518083038185875af1925050503d80600081146131dc576040519150601f19603f3d011682016040523d82523d6000602084013e6131e1565b606091505b50509050806132215760405162461bcd60e51b81526004018080602001828103825260238152602001806144f26023913960400191505060405180910390fd5b505050565b60008084116132665760405162461bcd60e51b81526004018080602001828103825260298152602001806143cc6029913960400191505060405180910390fd5b6000831180156132765750600082115b6132b15760405162461bcd60e51b815260040180806020018281038252602681526020018061453a6026913960400191505060405180910390fd5b60006132c5856126f763ffffffff61424616565b905060006132d9828563ffffffff61424616565b905060006132ff836132f38861271063ffffffff61424616565b9063ffffffff6142a916565b905080828161330a57fe5b04979650505050505050565b606060028251101561336f576040805162461bcd60e51b815260206004820152601c60248201527f50616e63616b654c6962726172793a20494e56414c49445f5041544800000000604482015290519081900360640190fd5b815167ffffffffffffffff8111801561338757600080fd5b506040519080825280602002602001820160405280156133b1578160200160208202803683370190505b50905082816000815181106133c257fe5b60200260200101818152505060005b600183510381101561345a57600080613414878685815181106133f057fe5b602002602001015187866001018151811061340757fe5b60200260200101516142f8565b9150915061343684848151811061342757fe5b60200260200101518383613226565b84846001018151811061344557fe5b602090810291909101015250506001016133d1565b509392505050565b60008060006134718585613ef4565b604080516bffffffffffffffffffffffff19606094851b811660208084019190915293851b81166034830152825160288184030181526048830184528051908501206001600160f81b031960688401529a90941b9093166069840152607d8301989098527fa4c9a1b6602caf0bbc0c73bc9d0aa719818f6239e64ae55724fb635c6c65ef21609d808401919091528851808403909101815260bd909201909752805196019590952095945050505050565b604080516001600160a01b0385811660248301528481166044830152606480830185905283518084039091018152608490920183526020820180516001600160e01b03166323b872dd60e01b17815292518251600094606094938a169392918291908083835b602083106135a75780518252601f199092019160209182019101613588565b6001836020036101000a0380198251168184511680821785525050505050509050019150506000604051808303816000865af19150503d8060008114613609576040519150601f19603f3d011682016040523d82523d6000602084013e61360e565b606091505b509150915081801561363c57508051158061363c575080806020019051602081101561363957600080fd5b50515b6136775760405162461bcd60e51b81526004018080602001828103825260248152602001806145606024913960400191505060405180910390fd5b505050505050565b60005b60018351038110156138bf5760008084838151811061369d57fe5b60200260200101518584600101815181106136b457fe5b60200260200101519150915060006136cc8383613ef4565b50905060008785600101815181106136e057fe5b60200260200101519050600080836001600160a01b0316866001600160a01b03161461370e57826000613712565b6000835b91509150600060028a51038810613729578861376a565b61376a7f0000000000000000000000000000000000000000000000000000000000000000878c8b6002018151811061375d57fe5b6020026020010151613462565b90506137977f00000000000000000000000000000000000000000000000000000000000000008888613462565b6001600160a01b031663022c0d9f84848460006040519080825280601f01601f1916602001820160405280156137d4576020820181803683370190505b506040518563ffffffff1660e01b815260040180858152602001848152602001836001600160a01b03166001600160a01b0316815260200180602001828103825283818151815260200191508051906020019080838360005b8381101561384557818101518382015260200161382d565b50505050905090810190601f1680156138725780820380516001836020036101000a031916815260200191505b5095505050505050600060405180830381600087803b15801561389457600080fd5b505af11580156138a8573d6000803e3d6000fd5b505060019099019850613682975050505050505050565b50505050565b606060028251101561391e576040805162461bcd60e51b815260206004820152601c60248201527f50616e63616b654c6962726172793a20494e56414c49445f5041544800000000604482015290519081900360640190fd5b815167ffffffffffffffff8111801561393657600080fd5b50604051908082528060200260200182016040528015613960578160200160208202803683370190505b509050828160018351038151811061397457fe5b60209081029190910101528151600019015b801561345a576000806139b6878660018603815181106139a257fe5b602002602001015187868151811061340757fe5b915091506139d88484815181106139c957fe5b60200260200101518383613d58565b8460018503815181106139e757fe5b6020908102919091010152505060001901613986565b60005b600183510381101561322157600080848381518110613a1b57fe5b6020026020010151858460010181518110613a3257fe5b6020026020010151915091506000613a4a8383613ef4565b5090506000613a7a7f00000000000000000000000000000000000000000000000000000000000000008585613462565b9050600080600080846001600160a01b0316630902f1ac6040518163ffffffff1660e01b815260040160606040518083038186803b158015613abb57600080fd5b505afa158015613acf573d6000803e3d6000fd5b505050506040513d6060811015613ae557600080fd5b5080516020909101516001600160701b0391821693501690506000806001600160a01b038a811690891614613b1b578284613b1e565b83835b91509150613b7c828b6001600160a01b03166370a082318a6040518263ffffffff1660e01b815260040180826001600160a01b03166001600160a01b0316815260200191505060206040518083038186803b15801561181e57600080fd5b9550613b89868383613226565b945050505050600080856001600160a01b0316886001600160a01b031614613bb357826000613bb7565b6000835b91509150600060028c51038a10613bce578a613c02565b613c027f0000000000000000000000000000000000000000000000000000000000000000898e8d6002018151811061375d57fe5b604080516000808252602082019283905263022c0d9f60e01b835260248201878152604483018790526001600160a01b038086166064850152608060848501908152845160a48601819052969750908c169563022c0d9f958a958a958a9591949193919260c486019290918190849084905b83811015613c8c578181015183820152602001613c74565b50505050905090810190601f168015613cb95780820380516001836020036101000a031916815260200191505b5095505050505050600060405180830381600087803b158015613cdb57600080fd5b505af1158015613cef573d6000803e3d6000fd5b50506001909b019a50613a009950505050505050505050565b80820382811115611123576040805162461bcd60e51b815260206004820152601560248201527464732d6d6174682d7375622d756e646572666c6f7760581b604482015290519081900360640190fd5b6000808411613d985760405162461bcd60e51b815260040180806020018281038252602a8152602001806143f5602a913960400191505060405180910390fd5b600083118015613da85750600082115b613de35760405162461bcd60e51b815260040180806020018281038252602681526020018061453a6026913960400191505060405180910390fd5b6000613e07612710613dfb868863ffffffff61424616565b9063ffffffff61424616565b90506000613e216126f7613dfb868963ffffffff613d0816565b9050613e3e6001828481613e3157fe5b049063ffffffff6142a916565b9695505050505050565b6000808411613e885760405162461bcd60e51b81526004018080602001828103825260238152602001806144cf6023913960400191505060405180910390fd5b600083118015613e985750600082115b613ed35760405162461bcd60e51b815260040180806020018281038252602681526020018061453a6026913960400191505060405180910390fd5b82613ee4858463ffffffff61424616565b81613eeb57fe5b04949350505050565b600080826001600160a01b0316846001600160a01b03161415613f485760405162461bcd60e51b81526004018080602001828103825260238152602001806144686023913960400191505060405180910390fd5b826001600160a01b0316846001600160a01b031610613f68578284613f6b565b83835b90925090506001600160a01b038216613fcb576040805162461bcd60e51b815260206004820152601c60248201527f50616e63616b654c6962726172793a205a45524f5f4144445245535300000000604482015290519081900360640190fd5b9250929050565b6040805163e6a4390560e01b81526001600160a01b03888116600483015287811660248301529151600092839283927f00000000000000000000000000000000000000000000000000000000000000009092169163e6a4390591604480820192602092909190829003018186803b15801561404c57600080fd5b505afa158015614060573d6000803e3d6000fd5b505050506040513d602081101561407657600080fd5b50516001600160a01b0316141561412957604080516364e329cb60e11b81526001600160a01b038a81166004830152898116602483015291517f00000000000000000000000000000000000000000000000000000000000000009092169163c9c65396916044808201926020929091908290030181600087803b1580156140fc57600080fd5b505af1158015614110573d6000803e3d6000fd5b505050506040513d602081101561412657600080fd5b50505b6000806141577f00000000000000000000000000000000000000000000000000000000000000008b8b6142f8565b91509150816000148015614169575080155b1561417957879350869250614239565b6000614186898484613e48565b90508781116141d957858110156141ce5760405162461bcd60e51b81526004018080602001828103825260248152602001806145846024913960400191505060405180910390fd5b889450925082614237565b60006141e6898486613e48565b9050898111156141f257fe5b878110156142315760405162461bcd60e51b81526004018080602001828103825260248152602001806144ab6024913960400191505060405180910390fd5b94508793505b505b5050965096945050505050565b60008115806142615750508082028282828161425e57fe5b04145b611123576040805162461bcd60e51b815260206004820152601460248201527364732d6d6174682d6d756c2d6f766572666c6f7760601b604482015290519081900360640190fd5b80820182811015611123576040805162461bcd60e51b815260206004820152601460248201527364732d6d6174682d6164642d6f766572666c6f7760601b604482015290519081900360640190fd5b60008060006143078585613ef4565b509050614315868686613462565b50600080614324888888613462565b6001600160a01b0316630902f1ac6040518163ffffffff1660e01b815260040160606040518083038186803b15801561435c57600080fd5b505afa158015614370573d6000803e3d6000fd5b505050506040513d606081101561438657600080fd5b5080516020909101516001600160701b0391821693501690506001600160a01b03878116908416146143b95780826143bc565b81815b9099909850965050505050505056fe50616e63616b654c6962726172793a20494e53554646494349454e545f494e5055545f414d4f554e5450616e63616b654c6962726172793a20494e53554646494349454e545f4f55545055545f414d4f554e5450616e63616b65526f757465723a20455850495245440000000000000000000050616e63616b65526f757465723a20494e53554646494349454e545f4f55545055545f414d4f554e5450616e63616b654c6962726172793a204944454e544943414c5f41444452455353455350616e63616b65526f757465723a20494e56414c49445f50415448000000000050616e63616b65526f757465723a20494e53554646494349454e545f415f414d4f554e5450616e63616b654c6962726172793a20494e53554646494349454e545f414d4f554e545472616e7366657248656c7065723a204554485f5452414e534645525f4641494c454450616e63616b65526f757465723a204558434553534956455f494e5055545f414d4f554e5450616e63616b654c6962726172793a20494e53554646494349454e545f4c49515549444954595472616e7366657248656c7065723a205452414e534645525f46524f4d5f4641494c454450616e63616b65526f757465723a20494e53554646494349454e545f425f414d4f554e54a2646970667358221220792cb090a08dac78c13f81093bb8bae2f9eb8f124ddc0c53343740931bdd6a0d64736f6c63430006060033",
					"opcodes": "PUSH1 0xC0 PUSH1 0x40 MSTORE CALLVALUE DUP1 ISZERO PUSH2 0x10 JUMPI PUSH1 0x0 DUP1 REVERT JUMPDEST POP PUSH1 0x40 MLOAD PUSH3 0x4762 CODESIZE SUB DUP1 PUSH3 0x4762 DUP4 CODECOPY DUP2 DUP2 ADD PUSH1 0x40 MSTORE PUSH1 0x40 DUP2 LT ISZERO PUSH2 0x35 JUMPI PUSH1 0x0 DUP1 REVERT JUMPDEST POP DUP1 MLOAD PUSH1 0x20 SWAP1 SWAP2 ADD MLOAD PUSH1 0x1 PUSH1 0x1 PUSH1 0x60 SHL SUB NOT PUSH1 0x60 SWAP3 DUP4 SHL DUP2 AND PUSH1 0x80 MSTORE SWAP2 SHL AND PUSH1 0xA0 MSTORE PUSH1 0x80 MLOAD PUSH1 0x60 SHR PUSH1 0xA0 MLOAD PUSH1 0x60 SHR PUSH2 0x45DD PUSH3 0x185 PUSH1 0x0 CODECOPY DUP1 PUSH2 0x15F MSTORE DUP1 PUSH2 0xCE4 MSTORE DUP1 PUSH2 0xD1F MSTORE DUP1 PUSH2 0xE16 MSTORE DUP1 PUSH2 0x1034 MSTORE DUP1 PUSH2 0x13BE MSTORE DUP1 PUSH2 0x1524 MSTORE DUP1 PUSH2 0x18EB MSTORE DUP1 PUSH2 0x19E5 MSTORE DUP1 PUSH2 0x1A9B MSTORE DUP1 PUSH2 0x1B69 MSTORE DUP1 PUSH2 0x1CAF MSTORE DUP1 PUSH2 0x1D37 MSTORE DUP1 PUSH2 0x1F7C MSTORE DUP1 PUSH2 0x1FF7 MSTORE DUP1 PUSH2 0x20A6 MSTORE DUP1 PUSH2 0x2172 MSTORE DUP1 PUSH2 0x2207 MSTORE DUP1 PUSH2 0x227B MSTORE DUP1 PUSH2 0x2779 MSTORE DUP1 PUSH2 0x29EC MSTORE DUP1 PUSH2 0x2A42 MSTORE DUP1 PUSH2 0x2A76 MSTORE DUP1 PUSH2 0x2AEA MSTORE DUP1 PUSH2 0x2C8A MSTORE DUP1 PUSH2 0x2DCD MSTORE DUP1 PUSH2 0x2E55 MSTORE POP DUP1 PUSH2 0xEA4 MSTORE DUP1 PUSH2 0xF7B MSTORE DUP1 PUSH2 0x10FA MSTORE DUP1 PUSH2 0x1133 MSTORE DUP1 PUSH2 0x126E MSTORE DUP1 PUSH2 0x144C MSTORE DUP1 PUSH2 0x1502 MSTORE DUP1 PUSH2 0x1672 MSTORE DUP1 PUSH2 0x1BFC MSTORE DUP1 PUSH2 0x1D69 MSTORE DUP1 PUSH2 0x1ECC MSTORE DUP1 PUSH2 0x22AD MSTORE DUP1 PUSH2 0x2506 MSTORE DUP1 PUSH2 0x26FE MSTORE DUP1 PUSH2 0x2727 MSTORE DUP1 PUSH2 0x2757 MSTORE DUP1 PUSH2 0x28C4 MSTORE DUP1 PUSH2 0x2A20 MSTORE DUP1 PUSH2 0x2D1D MSTORE DUP1 PUSH2 0x2E87 MSTORE DUP1 PUSH2 0x372E MSTORE DUP1 PUSH2 0x3771 MSTORE DUP1 PUSH2 0x3A54 MSTORE DUP1 PUSH2 0x3BD3 MSTORE DUP1 PUSH2 0x4003 MSTORE DUP1 PUSH2 0x40B1 MSTORE DUP1 PUSH2 0x4131 MSTORE POP PUSH2 0x45DD PUSH1 0x0 RETURN INVALID PUSH1 0x80 PUSH1 0x40 MSTORE PUSH1 0x4 CALLDATASIZE LT PUSH2 0x14F JUMPI PUSH1 0x0 CALLDATALOAD PUSH1 0xE0 SHR DUP1 PUSH4 0x8803DBEE GT PUSH2 0xB6 JUMPI DUP1 PUSH4 0xC45A0155 GT PUSH2 0x6F JUMPI DUP1 PUSH4 0xC45A0155 EQ PUSH2 0xA10 JUMPI DUP1 PUSH4 0xD06CA61F EQ PUSH2 0xA25 JUMPI DUP1 PUSH4 0xDED9382A EQ PUSH2 0xADA JUMPI DUP1 PUSH4 0xE8E33700 EQ PUSH2 0xB4D JUMPI DUP1 PUSH4 0xF305D719 EQ PUSH2 0xBCD JUMPI DUP1 PUSH4 0xFB3BDB41 EQ PUSH2 0xC13 JUMPI PUSH2 0x188 JUMP JUMPDEST DUP1 PUSH4 0x8803DBEE EQ PUSH2 0x7DF JUMPI DUP1 PUSH4 0xAD5C4648 EQ PUSH2 0x875 JUMPI DUP1 PUSH4 0xAD615DEC EQ PUSH2 0x8A6 JUMPI DUP1 PUSH4 0xAF2979EB EQ PUSH2 0x8DC JUMPI DUP1 PUSH4 0xB6F9DE95 EQ PUSH2 0x92F JUMPI DUP1 PUSH4 0xBAA2ABDE EQ PUSH2 0x9B3 JUMPI PUSH2 0x188 JUMP JUMPDEST DUP1 PUSH4 0x4A25D94A GT PUSH2 0x108 JUMPI DUP1 PUSH4 0x4A25D94A EQ PUSH2 0x4F0 JUMPI DUP1 PUSH4 0x5B0D5984 EQ PUSH2 0x586 JUMPI DUP1 PUSH4 0x5C11D795 EQ PUSH2 0x5F9 JUMPI DUP1 PUSH4 0x791AC947 EQ PUSH2 0x68F JUMPI DUP1 PUSH4 0x7FF36AB5 EQ PUSH2 0x725 JUMPI DUP1 PUSH4 0x85F8C259 EQ PUSH2 0x7A9 JUMPI PUSH2 0x188 JUMP JUMPDEST DUP1 PUSH4 0x2751CEC EQ PUSH2 0x18D JUMPI DUP1 PUSH4 0x54D50D4 EQ PUSH2 0x1F9 JUMPI DUP1 PUSH4 0x18CBAFE5 EQ PUSH2 0x241 JUMPI DUP1 PUSH4 0x1F00CA74 EQ PUSH2 0x327 JUMPI DUP1 PUSH4 0x2195995C EQ PUSH2 0x3DC JUMPI DUP1 PUSH4 0x38ED1739 EQ PUSH2 0x45A JUMPI PUSH2 0x188 JUMP JUMPDEST CALLDATASIZE PUSH2 0x188 JUMPI CALLER PUSH1 0x1 PUSH1 0x1 PUSH1 0xA0 SHL SUB PUSH32 0x0 AND EQ PUSH2 0x186 JUMPI INVALID JUMPDEST STOP JUMPDEST PUSH1 0x0 DUP1 REVERT JUMPDEST CALLVALUE DUP1 ISZERO PUSH2 0x199 JUMPI PUSH1 0x0 DUP1 REVERT JUMPDEST POP PUSH2 0x1E0 PUSH1 0x4 DUP1 CALLDATASIZE SUB PUSH1 0xC0 DUP2 LT ISZERO PUSH2 0x1B0 JUMPI PUSH1 0x0 DUP1 REVERT JUMPDEST POP PUSH1 0x1 PUSH1 0x1 PUSH1 0xA0 SHL SUB DUP2 CALLDATALOAD DUP2 AND SWAP2 PUSH1 0x20 DUP2 ADD CALLDATALOAD SWAP2 PUSH1 0x40 DUP3 ADD CALLDATALOAD SWAP2 PUSH1 0x60 DUP2 ADD CALLDATALOAD SWAP2 PUSH1 0x80 DUP3 ADD CALLDATALOAD AND SWAP1 PUSH1 0xA0 ADD CALLDATALOAD PUSH2 0xC97 JUMP JUMPDEST PUSH1 0x40 DUP1 MLOAD SWAP3 DUP4 MSTORE PUSH1 0x20 DUP4 ADD SWAP2 SWAP1 SWAP2 MSTORE DUP1 MLOAD SWAP2 DUP3 SWAP1 SUB ADD SWAP1 RETURN JUMPDEST CALLVALUE DUP1 ISZERO PUSH2 0x205 JUMPI PUSH1 0x0 DUP1 REVERT JUMPDEST POP PUSH2 0x22F PUSH1 0x4 DUP1 CALLDATASIZE SUB PUSH1 0x60 DUP2 LT ISZERO PUSH2 0x21C JUMPI PUSH1 0x0 DUP1 REVERT JUMPDEST POP DUP1 CALLDATALOAD SWAP1 PUSH1 0x20 DUP2 ADD CALLDATALOAD SWAP1 PUSH1 0x40 ADD CALLDATALOAD PUSH2 0xDB1 JUMP JUMPDEST PUSH1 0x40 DUP1 MLOAD SWAP2 DUP3 MSTORE MLOAD SWAP1 DUP2 SWAP1 SUB PUSH1 0x20 ADD SWAP1 RETURN JUMPDEST CALLVALUE DUP1 ISZERO PUSH2 0x24D JUMPI PUSH1 0x0 DUP1 REVERT JUMPDEST POP PUSH2 0x2D7 PUSH1 0x4 DUP1 CALLDATASIZE SUB PUSH1 0xA0 DUP2 LT ISZERO PUSH2 0x264 JUMPI PUSH1 0x0 DUP1 REVERT JUMPDEST DUP2 CALLDATALOAD SWAP2 PUSH1 0x20 DUP2 ADD CALLDATALOAD SWAP2 DUP2 ADD SWAP1 PUSH1 0x60 DUP2 ADD PUSH1 0x40 DUP3 ADD CALLDATALOAD PUSH1 0x1 PUSH1 0x20 SHL DUP2 GT ISZERO PUSH2 0x28A JUMPI PUSH1 0x0 DUP1 REVERT JUMPDEST DUP3 ADD DUP4 PUSH1 0x20 DUP3 ADD GT ISZERO PUSH2 0x29C JUMPI PUSH1 0x0 DUP1 REVERT JUMPDEST DUP1 CALLDATALOAD SWAP1 PUSH1 0x20 ADD SWAP2 DUP5 PUSH1 0x20 DUP4 MUL DUP5 ADD GT PUSH1 0x1 PUSH1 0x20 SHL DUP4 GT OR ISZERO PUSH2 0x2BD JUMPI PUSH1 0x0 DUP1 REVERT JUMPDEST SWAP2 SWAP4 POP SWAP2 POP PUSH1 0x1 PUSH1 0x1 PUSH1 0xA0 SHL SUB DUP2 CALLDATALOAD AND SWAP1 PUSH1 0x20 ADD CALLDATALOAD PUSH2 0xDC6 JUMP JUMPDEST PUSH1 0x40 DUP1 MLOAD PUSH1 0x20 DUP1 DUP3 MSTORE DUP4 MLOAD DUP2 DUP4 ADD MSTORE DUP4 MLOAD SWAP2 SWAP3 DUP4 SWAP3 SWAP1 DUP4 ADD SWAP2 DUP6 DUP2 ADD SWAP2 MUL DUP1 DUP4 DUP4 PUSH1 0x0 JUMPDEST DUP4 DUP2 LT ISZERO PUSH2 0x313 JUMPI DUP2 DUP2 ADD MLOAD DUP4 DUP3 ADD MSTORE PUSH1 0x20 ADD PUSH2 0x2FB JUMP JUMPDEST POP POP POP POP SWAP1 POP ADD SWAP3 POP POP POP PUSH1 0x40 MLOAD DUP1 SWAP2 SUB SWAP1 RETURN JUMPDEST CALLVALUE DUP1 ISZERO PUSH2 0x333 JUMPI PUSH1 0x0 DUP1 REVERT JUMPDEST POP PUSH2 0x2D7 PUSH1 0x4 DUP1 CALLDATASIZE SUB PUSH1 0x40 DUP2 LT ISZERO PUSH2 0x34A JUMPI PUSH1 0x0 DUP1 REVERT JUMPDEST DUP2 CALLDATALOAD SWAP2 SWAP1 DUP2 ADD SWAP1 PUSH1 0x40 DUP2 ADD PUSH1 0x20 DUP3 ADD CALLDATALOAD PUSH1 0x1 PUSH1 0x20 SHL DUP2 GT ISZERO PUSH2 0x36B JUMPI PUSH1 0x0 DUP1 REVERT JUMPDEST DUP3 ADD DUP4 PUSH1 0x20 DUP3 ADD GT ISZERO PUSH2 0x37D JUMPI PUSH1 0x0 DUP1 REVERT JUMPDEST DUP1 CALLDATALOAD SWAP1 PUSH1 0x20 ADD SWAP2 DUP5 PUSH1 0x20 DUP4 MUL DUP5 ADD GT PUSH1 0x1 PUSH1 0x20 SHL DUP4 GT OR ISZERO PUSH2 0x39E JUMPI PUSH1 0x0 DUP1 REVERT JUMPDEST SWAP2 SWAP1 DUP1 DUP1 PUSH1 0x20 MUL PUSH1 0x20 ADD PUSH1 0x40 MLOAD SWAP1 DUP2 ADD PUSH1 0x40 MSTORE DUP1 SWAP4 SWAP3 SWAP2 SWAP1 DUP2 DUP2 MSTORE PUSH1 0x20 ADD DUP4 DUP4 PUSH1 0x20 MUL DUP1 DUP3 DUP5 CALLDATACOPY PUSH1 0x0 SWAP3 ADD SWAP2 SWAP1 SWAP2 MSTORE POP SWAP3 SWAP6 POP PUSH2 0x10F3 SWAP5 POP POP POP POP POP JUMP JUMPDEST CALLVALUE DUP1 ISZERO PUSH2 0x3E8 JUMPI PUSH1 0x0 DUP1 REVERT JUMPDEST POP PUSH2 0x1E0 PUSH1 0x4 DUP1 CALLDATASIZE SUB PUSH2 0x160 DUP2 LT ISZERO PUSH2 0x400 JUMPI PUSH1 0x0 DUP1 REVERT JUMPDEST POP PUSH1 0x1 PUSH1 0x1 PUSH1 0xA0 SHL SUB DUP2 CALLDATALOAD DUP2 AND SWAP2 PUSH1 0x20 DUP2 ADD CALLDATALOAD DUP3 AND SWAP2 PUSH1 0x40 DUP3 ADD CALLDATALOAD SWAP2 PUSH1 0x60 DUP2 ADD CALLDATALOAD SWAP2 PUSH1 0x80 DUP3 ADD CALLDATALOAD SWAP2 PUSH1 0xA0 DUP2 ADD CALLDATALOAD SWAP1 SWAP2 AND SWAP1 PUSH1 0xC0 DUP2 ADD CALLDATALOAD SWAP1 PUSH1 0xE0 DUP2 ADD CALLDATALOAD ISZERO ISZERO SWAP1 PUSH1 0xFF PUSH2 0x100 DUP3 ADD CALLDATALOAD AND SWAP1 PUSH2 0x120 DUP2 ADD CALLDATALOAD SWAP1 PUSH2 0x140 ADD CALLDATALOAD PUSH2 0x1129 JUMP JUMPDEST CALLVALUE DUP1 ISZERO PUSH2 0x466 JUMPI PUSH1 0x0 DUP1 REVERT JUMPDEST POP PUSH2 0x2D7 PUSH1 0x4 DUP1 CALLDATASIZE SUB PUSH1 0xA0 DUP2 LT ISZERO PUSH2 0x47D JUMPI PUSH1 0x0 DUP1 REVERT JUMPDEST DUP2 CALLDATALOAD SWAP2 PUSH1 0x20 DUP2 ADD CALLDATALOAD SWAP2 DUP2 ADD SWAP1 PUSH1 0x60 DUP2 ADD PUSH1 0x40 DUP3 ADD CALLDATALOAD PUSH1 0x1 PUSH1 0x20 SHL DUP2 GT ISZERO PUSH2 0x4A3 JUMPI PUSH1 0x0 DUP1 REVERT JUMPDEST DUP3 ADD DUP4 PUSH1 0x20 DUP3 ADD GT ISZERO PUSH2 0x4B5 JUMPI PUSH1 0x0 DUP1 REVERT JUMPDEST DUP1 CALLDATALOAD SWAP1 PUSH1 0x20 ADD SWAP2 DUP5 PUSH1 0x20 DUP4 MUL DUP5 ADD GT PUSH1 0x1 PUSH1 0x20 SHL DUP4 GT OR ISZERO PUSH2 0x4D6 JUMPI PUSH1 0x0 DUP1 REVERT JUMPDEST SWAP2 SWAP4 POP SWAP2 POP PUSH1 0x1 PUSH1 0x1 PUSH1 0xA0 SHL SUB DUP2 CALLDATALOAD AND SWAP1 PUSH1 0x20 ADD CALLDATALOAD PUSH2 0x1223 JUMP JUMPDEST CALLVALUE DUP1 ISZERO PUSH2 0x4FC JUMPI PUSH1 0x0 DUP1 REVERT JUMPDEST POP PUSH2 0x2D7 PUSH1 0x4 DUP1 CALLDATASIZE SUB PUSH1 0xA0 DUP2 LT ISZERO PUSH2 0x513 JUMPI PUSH1 0x0 DUP1 REVERT JUMPDEST DUP2 CALLDATALOAD SWAP2 PUSH1 0x20 DUP2 ADD CALLDATALOAD SWAP2 DUP2 ADD SWAP1 PUSH1 0x60 DUP2 ADD PUSH1 0x40 DUP3 ADD CALLDATALOAD PUSH1 0x1 PUSH1 0x20 SHL DUP2 GT ISZERO PUSH2 0x539 JUMPI PUSH1 0x0 DUP1 REVERT JUMPDEST DUP3 ADD DUP4 PUSH1 0x20 DUP3 ADD GT ISZERO PUSH2 0x54B JUMPI PUSH1 0x0 DUP1 REVERT JUMPDEST DUP1 CALLDATALOAD SWAP1 PUSH1 0x20 ADD SWAP2 DUP5 PUSH1 0x20 DUP4 MUL DUP5 ADD GT PUSH1 0x1 PUSH1 0x20 SHL DUP4 GT OR ISZERO PUSH2 0x56C JUMPI PUSH1 0x0 DUP1 REVERT JUMPDEST SWAP2 SWAP4 POP SWAP2 POP PUSH1 0x1 PUSH1 0x1 PUSH1 0xA0 SHL SUB DUP2 CALLDATALOAD AND SWAP1 PUSH1 0x20 ADD CALLDATALOAD PUSH2 0x136E JUMP JUMPDEST CALLVALUE DUP1 ISZERO PUSH2 0x592 JUMPI PUSH1 0x0 DUP1 REVERT JUMPDEST POP PUSH2 0x22F PUSH1 0x4 DUP1 CALLDATASIZE SUB PUSH2 0x140 DUP2 LT ISZERO PUSH2 0x5AA JUMPI PUSH1 0x0 DUP1 REVERT JUMPDEST POP PUSH1 0x1 PUSH1 0x1 PUSH1 0xA0 SHL SUB DUP2 CALLDATALOAD DUP2 AND SWAP2 PUSH1 0x20 DUP2 ADD CALLDATALOAD SWAP2 PUSH1 0x40 DUP3 ADD CALLDATALOAD SWAP2 PUSH1 0x60 DUP2 ADD CALLDATALOAD SWAP2 PUSH1 0x80 DUP3 ADD CALLDATALOAD AND SWAP1 PUSH1 0xA0 DUP2 ADD CALLDATALOAD SWAP1 PUSH1 0xC0 DUP2 ADD CALLDATALOAD ISZERO ISZERO SWAP1 PUSH1 0xFF PUSH1 0xE0 DUP3 ADD CALLDATALOAD AND SWAP1 PUSH2 0x100 DUP2 ADD CALLDATALOAD SWAP1 PUSH2 0x120 ADD CALLDATALOAD PUSH2 0x14FA JUMP JUMPDEST CALLVALUE DUP1 ISZERO PUSH2 0x605 JUMPI PUSH1 0x0 DUP1 REVERT JUMPDEST POP PUSH2 0x186 PUSH1 0x4 DUP1 CALLDATASIZE SUB PUSH1 0xA0 DUP2 LT ISZERO PUSH2 0x61C JUMPI PUSH1 0x0 DUP1 REVERT JUMPDEST DUP2 CALLDATALOAD SWAP2 PUSH1 0x20 DUP2 ADD CALLDATALOAD SWAP2 DUP2 ADD SWAP1 PUSH1 0x60 DUP2 ADD PUSH1 0x40 DUP3 ADD CALLDATALOAD PUSH1 0x1 PUSH1 0x20 SHL DUP2 GT ISZERO PUSH2 0x642 JUMPI PUSH1 0x0 DUP1 REVERT JUMPDEST DUP3 ADD DUP4 PUSH1 0x20 DUP3 ADD GT ISZERO PUSH2 0x654 JUMPI PUSH1 0x0 DUP1 REVERT JUMPDEST DUP1 CALLDATALOAD SWAP1 PUSH1 0x20 ADD SWAP2 DUP5 PUSH1 0x20 DUP4 MUL DUP5 ADD GT PUSH1 0x1 PUSH1 0x20 SHL DUP4 GT OR ISZERO PUSH2 0x675 JUMPI PUSH1 0x0 DUP1 REVERT JUMPDEST SWAP2 SWAP4 POP SWAP2 POP PUSH1 0x1 PUSH1 0x1 PUSH1 0xA0 SHL SUB DUP2 CALLDATALOAD AND SWAP1 PUSH1 0x20 ADD CALLDATALOAD PUSH2 0x1608 JUMP JUMPDEST CALLVALUE DUP1 ISZERO PUSH2 0x69B JUMPI PUSH1 0x0 DUP1 REVERT JUMPDEST POP PUSH2 0x186 PUSH1 0x4 DUP1 CALLDATASIZE SUB PUSH1 0xA0 DUP2 LT ISZERO PUSH2 0x6B2 JUMPI PUSH1 0x0 DUP1 REVERT JUMPDEST DUP2 CALLDATALOAD SWAP2 PUSH1 0x20 DUP2 ADD CALLDATALOAD SWAP2 DUP2 ADD SWAP1 PUSH1 0x60 DUP2 ADD PUSH1 0x40 DUP3 ADD CALLDATALOAD PUSH1 0x1 PUSH1 0x20 SHL DUP2 GT ISZERO PUSH2 0x6D8 JUMPI PUSH1 0x0 DUP1 REVERT JUMPDEST DUP3 ADD DUP4 PUSH1 0x20 DUP3 ADD GT ISZERO PUSH2 0x6EA JUMPI PUSH1 0x0 DUP1 REVERT JUMPDEST DUP1 CALLDATALOAD SWAP1 PUSH1 0x20 ADD SWAP2 DUP5 PUSH1 0x20 DUP4 MUL DUP5 ADD GT PUSH1 0x1 PUSH1 0x20 SHL DUP4 GT OR ISZERO PUSH2 0x70B JUMPI PUSH1 0x0 DUP1 REVERT JUMPDEST SWAP2 SWAP4 POP SWAP2 POP PUSH1 0x1 PUSH1 0x1 PUSH1 0xA0 SHL SUB DUP2 CALLDATALOAD AND SWAP1 PUSH1 0x20 ADD CALLDATALOAD PUSH2 0x189D JUMP JUMPDEST PUSH2 0x2D7 PUSH1 0x4 DUP1 CALLDATASIZE SUB PUSH1 0x80 DUP2 LT ISZERO PUSH2 0x73B JUMPI PUSH1 0x0 DUP1 REVERT JUMPDEST DUP2 CALLDATALOAD SWAP2 SWAP1 DUP2 ADD SWAP1 PUSH1 0x40 DUP2 ADD PUSH1 0x20 DUP3 ADD CALLDATALOAD PUSH1 0x1 PUSH1 0x20 SHL DUP2 GT ISZERO PUSH2 0x75C JUMPI PUSH1 0x0 DUP1 REVERT JUMPDEST DUP3 ADD DUP4 PUSH1 0x20 DUP3 ADD GT ISZERO PUSH2 0x76E JUMPI PUSH1 0x0 DUP1 REVERT JUMPDEST DUP1 CALLDATALOAD SWAP1 PUSH1 0x20 ADD SWAP2 DUP5 PUSH1 0x20 DUP4 MUL DUP5 ADD GT PUSH1 0x1 PUSH1 0x20 SHL DUP4 GT OR ISZERO PUSH2 0x78F JUMPI PUSH1 0x0 DUP1 REVERT JUMPDEST SWAP2 SWAP4 POP SWAP2 POP PUSH1 0x1 PUSH1 0x1 PUSH1 0xA0 SHL SUB DUP2 CALLDATALOAD AND SWAP1 PUSH1 0x20 ADD CALLDATALOAD PUSH2 0x1B21 JUMP JUMPDEST CALLVALUE DUP1 ISZERO PUSH2 0x7B5 JUMPI PUSH1 0x0 DUP1 REVERT JUMPDEST POP PUSH2 0x22F PUSH1 0x4 DUP1 CALLDATASIZE SUB PUSH1 0x60 DUP2 LT ISZERO PUSH2 0x7CC JUMPI PUSH1 0x0 DUP1 REVERT JUMPDEST POP DUP1 CALLDATALOAD SWAP1 PUSH1 0x20 DUP2 ADD CALLDATALOAD SWAP1 PUSH1 0x40 ADD CALLDATALOAD PUSH2 0x1E74 JUMP JUMPDEST CALLVALUE DUP1 ISZERO PUSH2 0x7EB JUMPI PUSH1 0x0 DUP1 REVERT JUMPDEST POP PUSH2 0x2D7 PUSH1 0x4 DUP1 CALLDATASIZE SUB PUSH1 0xA0 DUP2 LT ISZERO PUSH2 0x802 JUMPI PUSH1 0x0 DUP1 REVERT JUMPDEST DUP2 CALLDATALOAD SWAP2 PUSH1 0x20 DUP2 ADD CALLDATALOAD SWAP2 DUP2 ADD SWAP1 PUSH1 0x60 DUP2 ADD PUSH1 0x40 DUP3 ADD CALLDATALOAD PUSH1 0x1 PUSH1 0x20 SHL DUP2 GT ISZERO PUSH2 0x828 JUMPI PUSH1 0x0 DUP1 REVERT JUMPDEST DUP3 ADD DUP4 PUSH1 0x20 DUP3 ADD GT ISZERO PUSH2 0x83A JUMPI PUSH1 0x0 DUP1 REVERT JUMPDEST DUP1 CALLDATALOAD SWAP1 PUSH1 0x20 ADD SWAP2 DUP5 PUSH1 0x20 DUP4 MUL DUP5 ADD GT PUSH1 0x1 PUSH1 0x20 SHL DUP4 GT OR ISZERO PUSH2 0x85B JUMPI PUSH1 0x0 DUP1 REVERT JUMPDEST SWAP2 SWAP4 POP SWAP2 POP PUSH1 0x1 PUSH1 0x1 PUSH1 0xA0 SHL SUB DUP2 CALLDATALOAD AND SWAP1 PUSH1 0x20 ADD CALLDATALOAD PUSH2 0x1E81 JUMP JUMPDEST CALLVALUE DUP1 ISZERO PUSH2 0x881 JUMPI PUSH1 0x0 DUP1 REVERT JUMPDEST POP PUSH2 0x88A PUSH2 0x1F7A JUMP JUMPDEST PUSH1 0x40 DUP1 MLOAD PUSH1 0x1 PUSH1 0x1 PUSH1 0xA0 SHL SUB SWAP1 SWAP3 AND DUP3 MSTORE MLOAD SWAP1 DUP2 SWAP1 SUB PUSH1 0x20 ADD SWAP1 RETURN JUMPDEST CALLVALUE DUP1 ISZERO PUSH2 0x8B2 JUMPI PUSH1 0x0 DUP1 REVERT JUMPDEST POP PUSH2 0x22F PUSH1 0x4 DUP1 CALLDATASIZE SUB PUSH1 0x60 DUP2 LT ISZERO PUSH2 0x8C9 JUMPI PUSH1 0x0 DUP1 REVERT JUMPDEST POP DUP1 CALLDATALOAD SWAP1 PUSH1 0x20 DUP2 ADD CALLDATALOAD SWAP1 PUSH1 0x40 ADD CALLDATALOAD PUSH2 0x1F9E JUMP JUMPDEST CALLVALUE DUP1 ISZERO PUSH2 0x8E8 JUMPI PUSH1 0x0 DUP1 REVERT JUMPDEST POP PUSH2 0x22F PUSH1 0x4 DUP1 CALLDATASIZE SUB PUSH1 0xC0 DUP2 LT ISZERO PUSH2 0x8FF JUMPI PUSH1 0x0 DUP1 REVERT JUMPDEST POP PUSH1 0x1 PUSH1 0x1 PUSH1 0xA0 SHL SUB DUP2 CALLDATALOAD DUP2 AND SWAP2 PUSH1 0x20 DUP2 ADD CALLDATALOAD SWAP2 PUSH1 0x40 DUP3 ADD CALLDATALOAD SWAP2 PUSH1 0x60 DUP2 ADD CALLDATALOAD SWAP2 PUSH1 0x80 DUP3 ADD CALLDATALOAD AND SWAP1 PUSH1 0xA0 ADD CALLDATALOAD PUSH2 0x1FAB JUMP JUMPDEST PUSH2 0x186 PUSH1 0x4 DUP1 CALLDATASIZE SUB PUSH1 0x80 DUP2 LT ISZERO PUSH2 0x945 JUMPI PUSH1 0x0 DUP1 REVERT JUMPDEST DUP2 CALLDATALOAD SWAP2 SWAP1 DUP2 ADD SWAP1 PUSH1 0x40 DUP2 ADD PUSH1 0x20 DUP3 ADD CALLDATALOAD PUSH1 0x1 PUSH1 0x20 SHL DUP2 GT ISZERO PUSH2 0x966 JUMPI PUSH1 0x0 DUP1 REVERT JUMPDEST DUP3 ADD DUP4 PUSH1 0x20 DUP3 ADD GT ISZERO PUSH2 0x978 JUMPI PUSH1 0x0 DUP1 REVERT JUMPDEST DUP1 CALLDATALOAD SWAP1 PUSH1 0x20 ADD SWAP2 DUP5 PUSH1 0x20 DUP4 MUL DUP5 ADD GT PUSH1 0x1 PUSH1 0x20 SHL DUP4 GT OR ISZERO PUSH2 0x999 JUMPI PUSH1 0x0 DUP1 REVERT JUMPDEST SWAP2 SWAP4 POP SWAP2 POP PUSH1 0x1 PUSH1 0x1 PUSH1 0xA0 SHL SUB DUP2 CALLDATALOAD AND SWAP1 PUSH1 0x20 ADD CALLDATALOAD PUSH2 0x212C JUMP JUMPDEST CALLVALUE DUP1 ISZERO PUSH2 0x9BF JUMPI PUSH1 0x0 DUP1 REVERT JUMPDEST POP PUSH2 0x1E0 PUSH1 0x4 DUP1 CALLDATASIZE SUB PUSH1 0xE0 DUP2 LT ISZERO PUSH2 0x9D6 JUMPI PUSH1 0x0 DUP1 REVERT JUMPDEST POP PUSH1 0x1 PUSH1 0x1 PUSH1 0xA0 SHL SUB DUP2 CALLDATALOAD DUP2 AND SWAP2 PUSH1 0x20 DUP2 ADD CALLDATALOAD DUP3 AND SWAP2 PUSH1 0x40 DUP3 ADD CALLDATALOAD SWAP2 PUSH1 0x60 DUP2 ADD CALLDATALOAD SWAP2 PUSH1 0x80 DUP3 ADD CALLDATALOAD SWAP2 PUSH1 0xA0 DUP2 ADD CALLDATALOAD SWAP1 SWAP2 AND SWAP1 PUSH1 0xC0 ADD CALLDATALOAD PUSH2 0x24B8 JUMP JUMPDEST CALLVALUE DUP1 ISZERO PUSH2 0xA1C JUMPI PUSH1 0x0 DUP1 REVERT JUMPDEST POP PUSH2 0x88A PUSH2 0x26FC JUMP JUMPDEST CALLVALUE DUP1 ISZERO PUSH2 0xA31 JUMPI PUSH1 0x0 DUP1 REVERT JUMPDEST POP PUSH2 0x2D7 PUSH1 0x4 DUP1 CALLDATASIZE SUB PUSH1 0x40 DUP2 LT ISZERO PUSH2 0xA48 JUMPI PUSH1 0x0 DUP1 REVERT JUMPDEST DUP2 CALLDATALOAD SWAP2 SWAP1 DUP2 ADD SWAP1 PUSH1 0x40 DUP2 ADD PUSH1 0x20 DUP3 ADD CALLDATALOAD PUSH1 0x1 PUSH1 0x20 SHL DUP2 GT ISZERO PUSH2 0xA69 JUMPI PUSH1 0x0 DUP1 REVERT JUMPDEST DUP3 ADD DUP4 PUSH1 0x20 DUP3 ADD GT ISZERO PUSH2 0xA7B JUMPI PUSH1 0x0 DUP1 REVERT JUMPDEST DUP1 CALLDATALOAD SWAP1 PUSH1 0x20 ADD SWAP2 DUP5 PUSH1 0x20 DUP4 MUL DUP5 ADD GT PUSH1 0x1 PUSH1 0x20 SHL DUP4 GT OR ISZERO PUSH2 0xA9C JUMPI PUSH1 0x0 DUP1 REVERT JUMPDEST SWAP2 SWAP1 DUP1 DUP1 PUSH1 0x20 MUL PUSH1 0x20 ADD PUSH1 0x40 MLOAD SWAP1 DUP2 ADD PUSH1 0x40 MSTORE DUP1 SWAP4 SWAP3 SWAP2 SWAP1 DUP2 DUP2 MSTORE PUSH1 0x20 ADD DUP4 DUP4 PUSH1 0x20 MUL DUP1 DUP3 DUP5 CALLDATACOPY PUSH1 0x0 SWAP3 ADD SWAP2 SWAP1 SWAP2 MSTORE POP SWAP3 SWAP6 POP PUSH2 0x2720 SWAP5 POP POP POP POP POP JUMP JUMPDEST CALLVALUE DUP1 ISZERO PUSH2 0xAE6 JUMPI PUSH1 0x0 DUP1 REVERT JUMPDEST POP PUSH2 0x1E0 PUSH1 0x4 DUP1 CALLDATASIZE SUB PUSH2 0x140 DUP2 LT ISZERO PUSH2 0xAFE JUMPI PUSH1 0x0 DUP1 REVERT JUMPDEST POP PUSH1 0x1 PUSH1 0x1 PUSH1 0xA0 SHL SUB DUP2 CALLDATALOAD DUP2 AND SWAP2 PUSH1 0x20 DUP2 ADD CALLDATALOAD SWAP2 PUSH1 0x40 DUP3 ADD CALLDATALOAD SWAP2 PUSH1 0x60 DUP2 ADD CALLDATALOAD SWAP2 PUSH1 0x80 DUP3 ADD CALLDATALOAD AND SWAP1 PUSH1 0xA0 DUP2 ADD CALLDATALOAD SWAP1 PUSH1 0xC0 DUP2 ADD CALLDATALOAD ISZERO ISZERO SWAP1 PUSH1 0xFF PUSH1 0xE0 DUP3 ADD CALLDATALOAD AND SWAP1 PUSH2 0x100 DUP2 ADD CALLDATALOAD SWAP1 PUSH2 0x120 ADD CALLDATALOAD PUSH2 0x274D JUMP JUMPDEST CALLVALUE DUP1 ISZERO PUSH2 0xB59 JUMPI PUSH1 0x0 DUP1 REVERT JUMPDEST POP PUSH2 0xBAF PUSH1 0x4 DUP1 CALLDATASIZE SUB PUSH2 0x100 DUP2 LT ISZERO PUSH2 0xB71 JUMPI PUSH1 0x0 DUP1 REVERT JUMPDEST POP PUSH1 0x1 PUSH1 0x1 PUSH1 0xA0 SHL SUB DUP2 CALLDATALOAD DUP2 AND SWAP2 PUSH1 0x20 DUP2 ADD CALLDATALOAD DUP3 AND SWAP2 PUSH1 0x40 DUP3 ADD CALLDATALOAD SWAP2 PUSH1 0x60 DUP2 ADD CALLDATALOAD SWAP2 PUSH1 0x80 DUP3 ADD CALLDATALOAD SWAP2 PUSH1 0xA0 DUP2 ADD CALLDATALOAD SWAP2 PUSH1 0xC0 DUP3 ADD CALLDATALOAD AND SWAP1 PUSH1 0xE0 ADD CALLDATALOAD PUSH2 0x2861 JUMP JUMPDEST PUSH1 0x40 DUP1 MLOAD SWAP4 DUP5 MSTORE PUSH1 0x20 DUP5 ADD SWAP3 SWAP1 SWAP3 MSTORE DUP3 DUP3 ADD MSTORE MLOAD SWAP1 DUP2 SWAP1 SUB PUSH1 0x60 ADD SWAP1 RETURN JUMPDEST PUSH2 0xBAF PUSH1 0x4 DUP1 CALLDATASIZE SUB PUSH1 0xC0 DUP2 LT ISZERO PUSH2 0xBE3 JUMPI PUSH1 0x0 DUP1 REVERT JUMPDEST POP PUSH1 0x1 PUSH1 0x1 PUSH1 0xA0 SHL SUB DUP2 CALLDATALOAD DUP2 AND SWAP2 PUSH1 0x20 DUP2 ADD CALLDATALOAD SWAP2 PUSH1 0x40 DUP3 ADD CALLDATALOAD SWAP2 PUSH1 0x60 DUP2 ADD CALLDATALOAD SWAP2 PUSH1 0x80 DUP3 ADD CALLDATALOAD AND SWAP1 PUSH1 0xA0 ADD CALLDATALOAD PUSH2 0x299D JUMP JUMPDEST PUSH2 0x2D7 PUSH1 0x4 DUP1 CALLDATASIZE SUB PUSH1 0x80 DUP2 LT ISZERO PUSH2 0xC29 JUMPI PUSH1 0x0 DUP1 REVERT JUMPDEST DUP2 CALLDATALOAD SWAP2 SWAP1 DUP2 ADD SWAP1 PUSH1 0x40 DUP2 ADD PUSH1 0x20 DUP3 ADD CALLDATALOAD PUSH1 0x1 PUSH1 0x20 SHL DUP2 GT ISZERO PUSH2 0xC4A JUMPI PUSH1 0x0 DUP1 REVERT JUMPDEST DUP3 ADD DUP4 PUSH1 0x20 DUP3 ADD GT ISZERO PUSH2 0xC5C JUMPI PUSH1 0x0 DUP1 REVERT JUMPDEST DUP1 CALLDATALOAD SWAP1 PUSH1 0x20 ADD SWAP2 DUP5 PUSH1 0x20 DUP4 MUL DUP5 ADD GT PUSH1 0x1 PUSH1 0x20 SHL DUP4 GT OR ISZERO PUSH2 0xC7D JUMPI PUSH1 0x0 DUP1 REVERT JUMPDEST SWAP2 SWAP4 POP SWAP2 POP PUSH1 0x1 PUSH1 0x1 PUSH1 0xA0 SHL SUB DUP2 CALLDATALOAD AND SWAP1 PUSH1 0x20 ADD CALLDATALOAD PUSH2 0x2C42 JUMP JUMPDEST PUSH1 0x0 DUP1 DUP3 TIMESTAMP DUP2 LT ISZERO PUSH2 0xCDE JUMPI PUSH1 0x40 DUP1 MLOAD PUSH3 0x461BCD PUSH1 0xE5 SHL DUP2 MSTORE PUSH1 0x20 PUSH1 0x4 DUP3 ADD MSTORE PUSH1 0x16 PUSH1 0x24 DUP3 ADD MSTORE PUSH1 0x0 DUP1 MLOAD PUSH1 0x20 PUSH2 0x441F DUP4 CODECOPY DUP2 MLOAD SWAP2 MSTORE PUSH1 0x44 DUP3 ADD MSTORE SWAP1 MLOAD SWAP1 DUP2 SWAP1 SUB PUSH1 0x64 ADD SWAP1 REVERT JUMPDEST PUSH2 0xD0D DUP10 PUSH32 0x0 DUP11 DUP11 DUP11 ADDRESS DUP11 PUSH2 0x24B8 JUMP JUMPDEST SWAP1 SWAP4 POP SWAP2 POP PUSH2 0xD1D DUP10 DUP7 DUP6 PUSH2 0x2FC4 JUMP JUMPDEST PUSH32 0x0 PUSH1 0x1 PUSH1 0x1 PUSH1 0xA0 SHL SUB AND PUSH4 0x2E1A7D4D DUP4 PUSH1 0x40 MLOAD DUP3 PUSH4 0xFFFFFFFF AND PUSH1 0xE0 SHL DUP2 MSTORE PUSH1 0x4 ADD DUP1 DUP3 DUP2 MSTORE PUSH1 0x20 ADD SWAP2 POP POP PUSH1 0x0 PUSH1 0x40 MLOAD DUP1 DUP4 SUB DUP2 PUSH1 0x0 DUP8 DUP1 EXTCODESIZE ISZERO DUP1 ISZERO PUSH2 0xD83 JUMPI PUSH1 0x0 DUP1 REVERT JUMPDEST POP GAS CALL ISZERO DUP1 ISZERO PUSH2 0xD97 JUMPI RETURNDATASIZE PUSH1 0x0 DUP1 RETURNDATACOPY RETURNDATASIZE PUSH1 0x0 REVERT JUMPDEST POP POP POP POP PUSH2 0xDA5 DUP6 DUP4 PUSH2 0x312E JUMP JUMPDEST POP SWAP7 POP SWAP7 SWAP5 POP POP POP POP POP JUMP JUMPDEST PUSH1 0x0 PUSH2 0xDBE DUP5 DUP5 DUP5 PUSH2 0x3226 JUMP JUMPDEST SWAP5 SWAP4 POP POP POP POP JUMP JUMPDEST PUSH1 0x60 DUP2 TIMESTAMP DUP2 LT ISZERO PUSH2 0xE0C JUMPI PUSH1 0x40 DUP1 MLOAD PUSH3 0x461BCD PUSH1 0xE5 SHL DUP2 MSTORE PUSH1 0x20 PUSH1 0x4 DUP3 ADD MSTORE PUSH1 0x16 PUSH1 0x24 DUP3 ADD MSTORE PUSH1 0x0 DUP1 MLOAD PUSH1 0x20 PUSH2 0x441F DUP4 CODECOPY DUP2 MLOAD SWAP2 MSTORE PUSH1 0x44 DUP3 ADD MSTORE SWAP1 MLOAD SWAP1 DUP2 SWAP1 SUB PUSH1 0x64 ADD SWAP1 REVERT JUMPDEST PUSH1 0x1 PUSH1 0x1 PUSH1 0xA0 SHL SUB PUSH32 0x0 AND DUP7 DUP7 PUSH1 0x0 NOT DUP2 ADD DUP2 DUP2 LT PUSH2 0xE46 JUMPI INVALID JUMPDEST SWAP1 POP PUSH1 0x20 MUL ADD CALLDATALOAD PUSH1 0x1 PUSH1 0x1 PUSH1 0xA0 SHL SUB AND PUSH1 0x1 PUSH1 0x1 PUSH1 0xA0 SHL SUB AND EQ PUSH2 0xE9F JUMPI PUSH1 0x40 DUP1 MLOAD PUSH3 0x461BCD PUSH1 0xE5 SHL DUP2 MSTORE PUSH1 0x20 PUSH1 0x4 DUP3 ADD MSTORE PUSH1 0x1B PUSH1 0x24 DUP3 ADD MSTORE PUSH1 0x0 DUP1 MLOAD PUSH1 0x20 PUSH2 0x448B DUP4 CODECOPY DUP2 MLOAD SWAP2 MSTORE PUSH1 0x44 DUP3 ADD MSTORE SWAP1 MLOAD SWAP1 DUP2 SWAP1 SUB PUSH1 0x64 ADD SWAP1 REVERT JUMPDEST PUSH2 0xEFD PUSH32 0x0 DUP10 DUP9 DUP9 DUP1 DUP1 PUSH1 0x20 MUL PUSH1 0x20 ADD PUSH1 0x40 MLOAD SWAP1 DUP2 ADD PUSH1 0x40 MSTORE DUP1 SWAP4 SWAP3 SWAP2 SWAP1 DUP2 DUP2 MSTORE PUSH1 0x20 ADD DUP4 DUP4 PUSH1 0x20 MUL DUP1 DUP3 DUP5 CALLDATACOPY PUSH1 0x0 SWAP3 ADD SWAP2 SWAP1 SWAP2 MSTORE POP PUSH2 0x3316 SWAP3 POP POP POP JUMP JUMPDEST SWAP2 POP DUP7 DUP3 PUSH1 0x1 DUP5 MLOAD SUB DUP2 MLOAD DUP2 LT PUSH2 0xF10 JUMPI INVALID JUMPDEST PUSH1 0x20 MUL PUSH1 0x20 ADD ADD MLOAD LT ISZERO PUSH2 0xF55 JUMPI PUSH1 0x40 MLOAD PUSH3 0x461BCD PUSH1 0xE5 SHL DUP2 MSTORE PUSH1 0x4 ADD DUP1 DUP1 PUSH1 0x20 ADD DUP3 DUP2 SUB DUP3 MSTORE PUSH1 0x29 DUP2 MSTORE PUSH1 0x20 ADD DUP1 PUSH2 0x443F PUSH1 0x29 SWAP2 CODECOPY PUSH1 0x40 ADD SWAP2 POP POP PUSH1 0x40 MLOAD DUP1 SWAP2 SUB SWAP1 REVERT JUMPDEST PUSH2 0xFF3 DUP7 DUP7 PUSH1 0x0 DUP2 DUP2 LT PUSH2 0xF65 JUMPI INVALID JUMPDEST SWAP1 POP PUSH1 0x20 MUL ADD CALLDATALOAD PUSH1 0x1 PUSH1 0x1 PUSH1 0xA0 SHL SUB AND CALLER PUSH2 0xFD9 PUSH32 0x0 DUP11 DUP11 PUSH1 0x0 DUP2 DUP2 LT PUSH2 0xFA7 JUMPI INVALID JUMPDEST SWAP1 POP PUSH1 0x20 MUL ADD CALLDATALOAD PUSH1 0x1 PUSH1 0x1 PUSH1 0xA0 SHL SUB AND DUP12 DUP12 PUSH1 0x1 DUP2 DUP2 LT PUSH2 0xFC4 JUMPI INVALID JUMPDEST SWAP1 POP PUSH1 0x20 MUL ADD CALLDATALOAD PUSH1 0x1 PUSH1 0x1 PUSH1 0xA0 SHL SUB AND PUSH2 0x3462 JUMP JUMPDEST DUP6 PUSH1 0x0 DUP2 MLOAD DUP2 LT PUSH2 0xFE6 JUMPI INVALID JUMPDEST PUSH1 0x20 MUL PUSH1 0x20 ADD ADD MLOAD PUSH2 0x3522 JUMP JUMPDEST PUSH2 0x1032 DUP3 DUP8 DUP8 DUP1 DUP1 PUSH1 0x20 MUL PUSH1 0x20 ADD PUSH1 0x40 MLOAD SWAP1 DUP2 ADD PUSH1 0x40 MSTORE DUP1 SWAP4 SWAP3 SWAP2 SWAP1 DUP2 DUP2 MSTORE PUSH1 0x20 ADD DUP4 DUP4 PUSH1 0x20 MUL DUP1 DUP3 DUP5 CALLDATACOPY PUSH1 0x0 SWAP3 ADD SWAP2 SWAP1 SWAP2 MSTORE POP ADDRESS SWAP3 POP PUSH2 0x367F SWAP2 POP POP JUMP JUMPDEST PUSH32 0x0 PUSH1 0x1 PUSH1 0x1 PUSH1 0xA0 SHL SUB AND PUSH4 0x2E1A7D4D DUP4 PUSH1 0x1 DUP6 MLOAD SUB DUP2 MLOAD DUP2 LT PUSH2 0x1071 JUMPI INVALID JUMPDEST PUSH1 0x20 MUL PUSH1 0x20 ADD ADD MLOAD PUSH1 0x40 MLOAD DUP3 PUSH4 0xFFFFFFFF AND PUSH1 0xE0 SHL DUP2 MSTORE PUSH1 0x4 ADD DUP1 DUP3 DUP2 MSTORE PUSH1 0x20 ADD SWAP2 POP POP PUSH1 0x0 PUSH1 0x40 MLOAD DUP1 DUP4 SUB DUP2 PUSH1 0x0 DUP8 DUP1 EXTCODESIZE ISZERO DUP1 ISZERO PUSH2 0x10AF JUMPI PUSH1 0x0 DUP1 REVERT JUMPDEST POP GAS CALL ISZERO DUP1 ISZERO PUSH2 0x10C3 JUMPI RETURNDATASIZE PUSH1 0x0 DUP1 RETURNDATACOPY RETURNDATASIZE PUSH1 0x0 REVERT JUMPDEST POP POP POP POP PUSH2 0x10E8 DUP5 DUP4 PUSH1 0x1 DUP6 MLOAD SUB DUP2 MLOAD DUP2 LT PUSH2 0x10DB JUMPI INVALID JUMPDEST PUSH1 0x20 MUL PUSH1 0x20 ADD ADD MLOAD PUSH2 0x312E JUMP JUMPDEST POP SWAP7 SWAP6 POP POP POP POP POP POP JUMP JUMPDEST PUSH1 0x60 PUSH2 0x1120 PUSH32 0x0 DUP5 DUP5 PUSH2 0x38C5 JUMP JUMPDEST SWAP1 POP JUMPDEST SWAP3 SWAP2 POP POP JUMP JUMPDEST PUSH1 0x0 DUP1 PUSH1 0x0 PUSH2 0x1159 PUSH32 0x0 DUP16 DUP16 PUSH2 0x3462 JUMP JUMPDEST SWAP1 POP PUSH1 0x0 DUP8 PUSH2 0x1168 JUMPI DUP13 PUSH2 0x116C JUMP JUMPDEST PUSH1 0x0 NOT JUMPDEST PUSH1 0x40 DUP1 MLOAD PUSH4 0xD505ACCF PUSH1 0xE0 SHL DUP2 MSTORE CALLER PUSH1 0x4 DUP3 ADD MSTORE ADDRESS PUSH1 0x24 DUP3 ADD MSTORE PUSH1 0x44 DUP2 ADD DUP4 SWAP1 MSTORE PUSH1 0x64 DUP2 ADD DUP13 SWAP1 MSTORE PUSH1 0xFF DUP11 AND PUSH1 0x84 DUP3 ADD MSTORE PUSH1 0xA4 DUP2 ADD DUP10 SWAP1 MSTORE PUSH1 0xC4 DUP2 ADD DUP9 SWAP1 MSTORE SWAP1 MLOAD SWAP2 SWAP3 POP PUSH1 0x1 PUSH1 0x1 PUSH1 0xA0 SHL SUB DUP5 AND SWAP2 PUSH4 0xD505ACCF SWAP2 PUSH1 0xE4 DUP1 DUP3 ADD SWAP3 PUSH1 0x0 SWAP3 SWAP1 SWAP2 SWAP1 DUP3 SWAP1 SUB ADD DUP2 DUP4 DUP8 DUP1 EXTCODESIZE ISZERO DUP1 ISZERO PUSH2 0x11E2 JUMPI PUSH1 0x0 DUP1 REVERT JUMPDEST POP GAS CALL ISZERO DUP1 ISZERO PUSH2 0x11F6 JUMPI RETURNDATASIZE PUSH1 0x0 DUP1 RETURNDATACOPY RETURNDATASIZE PUSH1 0x0 REVERT JUMPDEST POP POP POP POP PUSH2 0x1209 DUP16 DUP16 DUP16 DUP16 DUP16 DUP16 DUP16 PUSH2 0x24B8 JUMP JUMPDEST DUP1 SWAP5 POP DUP2 SWAP6 POP POP POP POP POP SWAP12 POP SWAP12 SWAP10 POP POP POP POP POP POP POP POP POP POP JUMP JUMPDEST PUSH1 0x60 DUP2 TIMESTAMP DUP2 LT ISZERO PUSH2 0x1269 JUMPI PUSH1 0x40 DUP1 MLOAD PUSH3 0x461BCD PUSH1 0xE5 SHL DUP2 MSTORE PUSH1 0x20 PUSH1 0x4 DUP3 ADD MSTORE PUSH1 0x16 PUSH1 0x24 DUP3 ADD MSTORE PUSH1 0x0 DUP1 MLOAD PUSH1 0x20 PUSH2 0x441F DUP4 CODECOPY DUP2 MLOAD SWAP2 MSTORE PUSH1 0x44 DUP3 ADD MSTORE SWAP1 MLOAD SWAP1 DUP2 SWAP1 SUB PUSH1 0x64 ADD SWAP1 REVERT JUMPDEST PUSH2 0x12C7 PUSH32 0x0 DUP10 DUP9 DUP9 DUP1 DUP1 PUSH1 0x20 MUL PUSH1 0x20 ADD PUSH1 0x40 MLOAD SWAP1 DUP2 ADD PUSH1 0x40 MSTORE DUP1 SWAP4 SWAP3 SWAP2 SWAP1 DUP2 DUP2 MSTORE PUSH1 0x20 ADD DUP4 DUP4 PUSH1 0x20 MUL DUP1 DUP3 DUP5 CALLDATACOPY PUSH1 0x0 SWAP3 ADD SWAP2 SWAP1 SWAP2 MSTORE POP PUSH2 0x3316 SWAP3 POP POP POP JUMP JUMPDEST SWAP2 POP DUP7 DUP3 PUSH1 0x1 DUP5 MLOAD SUB DUP2 MLOAD DUP2 LT PUSH2 0x12DA JUMPI INVALID JUMPDEST PUSH1 0x20 MUL PUSH1 0x20 ADD ADD MLOAD LT ISZERO PUSH2 0x131F JUMPI PUSH1 0x40 MLOAD PUSH3 0x461BCD PUSH1 0xE5 SHL DUP2 MSTORE PUSH1 0x4 ADD DUP1 DUP1 PUSH1 0x20 ADD DUP3 DUP2 SUB DUP3 MSTORE PUSH1 0x29 DUP2 MSTORE PUSH1 0x20 ADD DUP1 PUSH2 0x443F PUSH1 0x29 SWAP2 CODECOPY PUSH1 0x40 ADD SWAP2 POP POP PUSH1 0x40 MLOAD DUP1 SWAP2 SUB SWAP1 REVERT JUMPDEST PUSH2 0x132F DUP7 DUP7 PUSH1 0x0 DUP2 DUP2 LT PUSH2 0xF65 JUMPI INVALID JUMPDEST PUSH2 0x10E8 DUP3 DUP8 DUP8 DUP1 DUP1 PUSH1 0x20 MUL PUSH1 0x20 ADD PUSH1 0x40 MLOAD SWAP1 DUP2 ADD PUSH1 0x40 MSTORE DUP1 SWAP4 SWAP3 SWAP2 SWAP1 DUP2 DUP2 MSTORE PUSH1 0x20 ADD DUP4 DUP4 PUSH1 0x20 MUL DUP1 DUP3 DUP5 CALLDATACOPY PUSH1 0x0 SWAP3 ADD SWAP2 SWAP1 SWAP2 MSTORE POP DUP10 SWAP3 POP PUSH2 0x367F SWAP2 POP POP JUMP JUMPDEST PUSH1 0x60 DUP2 TIMESTAMP DUP2 LT ISZERO PUSH2 0x13B4 JUMPI PUSH1 0x40 DUP1 MLOAD PUSH3 0x461BCD PUSH1 0xE5 SHL DUP2 MSTORE PUSH1 0x20 PUSH1 0x4 DUP3 ADD MSTORE PUSH1 0x16 PUSH1 0x24 DUP3 ADD MSTORE PUSH1 0x0 DUP1 MLOAD PUSH1 0x20 PUSH2 0x441F DUP4 CODECOPY DUP2 MLOAD SWAP2 MSTORE PUSH1 0x44 DUP3 ADD MSTORE SWAP1 MLOAD SWAP1 DUP2 SWAP1 SUB PUSH1 0x64 ADD SWAP1 REVERT JUMPDEST PUSH1 0x1 PUSH1 0x1 PUSH1 0xA0 SHL SUB PUSH32 0x0 AND DUP7 DUP7 PUSH1 0x0 NOT DUP2 ADD DUP2 DUP2 LT PUSH2 0x13EE JUMPI INVALID JUMPDEST SWAP1 POP PUSH1 0x20 MUL ADD CALLDATALOAD PUSH1 0x1 PUSH1 0x1 PUSH1 0xA0 SHL SUB AND PUSH1 0x1 PUSH1 0x1 PUSH1 0xA0 SHL SUB AND EQ PUSH2 0x1447 JUMPI PUSH1 0x40 DUP1 MLOAD PUSH3 0x461BCD PUSH1 0xE5 SHL DUP2 MSTORE PUSH1 0x20 PUSH1 0x4 DUP3 ADD MSTORE PUSH1 0x1B PUSH1 0x24 DUP3 ADD MSTORE PUSH1 0x0 DUP1 MLOAD PUSH1 0x20 PUSH2 0x448B DUP4 CODECOPY DUP2 MLOAD SWAP2 MSTORE PUSH1 0x44 DUP3 ADD MSTORE SWAP1 MLOAD SWAP1 DUP2 SWAP1 SUB PUSH1 0x64 ADD SWAP1 REVERT JUMPDEST PUSH2 0x14A5 PUSH32 0x0 DUP10 DUP9 DUP9 DUP1 DUP1 PUSH1 0x20 MUL PUSH1 0x20 ADD PUSH1 0x40 MLOAD SWAP1 DUP2 ADD PUSH1 0x40 MSTORE DUP1 SWAP4 SWAP3 SWAP2 SWAP1 DUP2 DUP2 MSTORE PUSH1 0x20 ADD DUP4 DUP4 PUSH1 0x20 MUL DUP1 DUP3 DUP5 CALLDATACOPY PUSH1 0x0 SWAP3 ADD SWAP2 SWAP1 SWAP2 MSTORE POP PUSH2 0x38C5 SWAP3 POP POP POP JUMP JUMPDEST SWAP2 POP DUP7 DUP3 PUSH1 0x0 DUP2 MLOAD DUP2 LT PUSH2 0x14B5 JUMPI INVALID JUMPDEST PUSH1 0x20 MUL PUSH1 0x20 ADD ADD MLOAD GT ISZERO PUSH2 0xF55 JUMPI PUSH1 0x40 MLOAD PUSH3 0x461BCD PUSH1 0xE5 SHL DUP2 MSTORE PUSH1 0x4 ADD DUP1 DUP1 PUSH1 0x20 ADD DUP3 DUP2 SUB DUP3 MSTORE PUSH1 0x25 DUP2 MSTORE PUSH1 0x20 ADD DUP1 PUSH2 0x4515 PUSH1 0x25 SWAP2 CODECOPY PUSH1 0x40 ADD SWAP2 POP POP PUSH1 0x40 MLOAD DUP1 SWAP2 SUB SWAP1 REVERT JUMPDEST PUSH1 0x0 DUP1 PUSH2 0x1548 PUSH32 0x0 DUP14 PUSH32 0x0 PUSH2 0x3462 JUMP JUMPDEST SWAP1 POP PUSH1 0x0 DUP7 PUSH2 0x1557 JUMPI DUP12 PUSH2 0x155B JUMP JUMPDEST PUSH1 0x0 NOT JUMPDEST PUSH1 0x40 DUP1 MLOAD PUSH4 0xD505ACCF PUSH1 0xE0 SHL DUP2 MSTORE CALLER PUSH1 0x4 DUP3 ADD MSTORE ADDRESS PUSH1 0x24 DUP3 ADD MSTORE PUSH1 0x44 DUP2 ADD DUP4 SWAP1 MSTORE PUSH1 0x64 DUP2 ADD DUP12 SWAP1 MSTORE PUSH1 0xFF DUP10 AND PUSH1 0x84 DUP3 ADD MSTORE PUSH1 0xA4 DUP2 ADD DUP9 SWAP1 MSTORE PUSH1 0xC4 DUP2 ADD DUP8 SWAP1 MSTORE SWAP1 MLOAD SWAP2 SWAP3 POP PUSH1 0x1 PUSH1 0x1 PUSH1 0xA0 SHL SUB DUP5 AND SWAP2 PUSH4 0xD505ACCF SWAP2 PUSH1 0xE4 DUP1 DUP3 ADD SWAP3 PUSH1 0x0 SWAP3 SWAP1 SWAP2 SWAP1 DUP3 SWAP1 SUB ADD DUP2 DUP4 DUP8 DUP1 EXTCODESIZE ISZERO DUP1 ISZERO PUSH2 0x15D1 JUMPI PUSH1 0x0 DUP1 REVERT JUMPDEST POP GAS CALL ISZERO DUP1 ISZERO PUSH2 0x15E5 JUMPI RETURNDATASIZE PUSH1 0x0 DUP1 RETURNDATACOPY RETURNDATASIZE PUSH1 0x0 REVERT JUMPDEST POP POP POP POP PUSH2 0x15F7 DUP14 DUP14 DUP14 DUP14 DUP14 DUP14 PUSH2 0x1FAB JUMP JUMPDEST SWAP14 SWAP13 POP POP POP POP POP POP POP POP POP POP POP POP POP JUMP JUMPDEST DUP1 TIMESTAMP DUP2 LT ISZERO PUSH2 0x164C JUMPI PUSH1 0x40 DUP1 MLOAD PUSH3 0x461BCD PUSH1 0xE5 SHL DUP2 MSTORE PUSH1 0x20 PUSH1 0x4 DUP3 ADD MSTORE PUSH1 0x16 PUSH1 0x24 DUP3 ADD MSTORE PUSH1 0x0 DUP1 MLOAD PUSH1 0x20 PUSH2 0x441F DUP4 CODECOPY DUP2 MLOAD SWAP2 MSTORE PUSH1 0x44 DUP3 ADD MSTORE SWAP1 MLOAD SWAP1 DUP2 SWAP1 SUB PUSH1 0x64 ADD SWAP1 REVERT JUMPDEST PUSH2 0x16C1 DUP6 DUP6 PUSH1 0x0 DUP2 DUP2 LT PUSH2 0x165C JUMPI INVALID JUMPDEST SWAP1 POP PUSH1 0x20 MUL ADD CALLDATALOAD PUSH1 0x1 PUSH1 0x1 PUSH1 0xA0 SHL SUB AND CALLER PUSH2 0x16BB PUSH32 0x0 DUP10 DUP10 PUSH1 0x0 DUP2 DUP2 LT PUSH2 0x169E JUMPI INVALID JUMPDEST SWAP1 POP PUSH1 0x20 MUL ADD CALLDATALOAD PUSH1 0x1 PUSH1 0x1 PUSH1 0xA0 SHL SUB AND DUP11 DUP11 PUSH1 0x1 DUP2 DUP2 LT PUSH2 0xFC4 JUMPI INVALID JUMPDEST DUP11 PUSH2 0x3522 JUMP JUMPDEST PUSH1 0x0 DUP6 DUP6 PUSH1 0x0 NOT DUP2 ADD DUP2 DUP2 LT PUSH2 0x16D3 JUMPI INVALID JUMPDEST SWAP1 POP PUSH1 0x20 MUL ADD CALLDATALOAD PUSH1 0x1 PUSH1 0x1 PUSH1 0xA0 SHL SUB AND PUSH1 0x1 PUSH1 0x1 PUSH1 0xA0 SHL SUB AND PUSH4 0x70A08231 DUP6 PUSH1 0x40 MLOAD DUP3 PUSH4 0xFFFFFFFF AND PUSH1 0xE0 SHL DUP2 MSTORE PUSH1 0x4 ADD DUP1 DUP3 PUSH1 0x1 PUSH1 0x1 PUSH1 0xA0 SHL SUB AND PUSH1 0x1 PUSH1 0x1 PUSH1 0xA0 SHL SUB AND DUP2 MSTORE PUSH1 0x20 ADD SWAP2 POP POP PUSH1 0x20 PUSH1 0x40 MLOAD DUP1 DUP4 SUB DUP2 DUP7 DUP1 EXTCODESIZE ISZERO DUP1 ISZERO PUSH2 0x1738 JUMPI PUSH1 0x0 DUP1 REVERT JUMPDEST POP GAS STATICCALL ISZERO DUP1 ISZERO PUSH2 0x174C JUMPI RETURNDATASIZE PUSH1 0x0 DUP1 RETURNDATACOPY RETURNDATASIZE PUSH1 0x0 REVERT JUMPDEST POP POP POP POP PUSH1 0x40 MLOAD RETURNDATASIZE PUSH1 0x20 DUP2 LT ISZERO PUSH2 0x1762 JUMPI PUSH1 0x0 DUP1 REVERT JUMPDEST POP MLOAD PUSH1 0x40 DUP1 MLOAD PUSH1 0x20 DUP9 DUP2 MUL DUP3 DUP2 ADD DUP3 ADD SWAP1 SWAP4 MSTORE DUP9 DUP3 MSTORE SWAP3 SWAP4 POP PUSH2 0x17A4 SWAP3 SWAP1 SWAP2 DUP10 SWAP2 DUP10 SWAP2 DUP3 SWAP2 DUP6 ADD SWAP1 DUP5 SWAP1 DUP1 DUP3 DUP5 CALLDATACOPY PUSH1 0x0 SWAP3 ADD SWAP2 SWAP1 SWAP2 MSTORE POP DUP9 SWAP3 POP PUSH2 0x39FD SWAP2 POP POP JUMP JUMPDEST DUP7 PUSH2 0x1856 DUP3 DUP9 DUP9 PUSH1 0x0 NOT DUP2 ADD DUP2 DUP2 LT PUSH2 0x17B9 JUMPI INVALID JUMPDEST SWAP1 POP PUSH1 0x20 MUL ADD CALLDATALOAD PUSH1 0x1 PUSH1 0x1 PUSH1 0xA0 SHL SUB AND PUSH1 0x1 PUSH1 0x1 PUSH1 0xA0 SHL SUB AND PUSH4 0x70A08231 DUP9 PUSH1 0x40 MLOAD DUP3 PUSH4 0xFFFFFFFF AND PUSH1 0xE0 SHL DUP2 MSTORE PUSH1 0x4 ADD DUP1 DUP3 PUSH1 0x1 PUSH1 0x1 PUSH1 0xA0 SHL SUB AND PUSH1 0x1 PUSH1 0x1 PUSH1 0xA0 SHL SUB AND DUP2 MSTORE PUSH1 0x20 ADD SWAP2 POP POP PUSH1 0x20 PUSH1 0x40 MLOAD DUP1 DUP4 SUB DUP2 DUP7 DUP1 EXTCODESIZE ISZERO DUP1 ISZERO PUSH2 0x181E JUMPI PUSH1 0x0 DUP1 REVERT JUMPDEST POP GAS STATICCALL ISZERO DUP1 ISZERO PUSH2 0x1832 JUMPI RETURNDATASIZE PUSH1 0x0 DUP1 RETURNDATACOPY RETURNDATASIZE PUSH1 0x0 REVERT JUMPDEST POP POP POP POP PUSH1 0x40 MLOAD RETURNDATASIZE PUSH1 0x20 DUP2 LT ISZERO PUSH2 0x1848 JUMPI PUSH1 0x0 DUP1 REVERT JUMPDEST POP MLOAD SWAP1 PUSH4 0xFFFFFFFF PUSH2 0x3D08 AND JUMP JUMPDEST LT ISZERO PUSH2 0x1893 JUMPI PUSH1 0x40 MLOAD PUSH3 0x461BCD PUSH1 0xE5 SHL DUP2 MSTORE PUSH1 0x4 ADD DUP1 DUP1 PUSH1 0x20 ADD DUP3 DUP2 SUB DUP3 MSTORE PUSH1 0x29 DUP2 MSTORE PUSH1 0x20 ADD DUP1 PUSH2 0x443F PUSH1 0x29 SWAP2 CODECOPY PUSH1 0x40 ADD SWAP2 POP POP PUSH1 0x40 MLOAD DUP1 SWAP2 SUB SWAP1 REVERT JUMPDEST POP POP POP POP POP POP POP POP JUMP JUMPDEST DUP1 TIMESTAMP DUP2 LT ISZERO PUSH2 0x18E1 JUMPI PUSH1 0x40 DUP1 MLOAD PUSH3 0x461BCD PUSH1 0xE5 SHL DUP2 MSTORE PUSH1 0x20 PUSH1 0x4 DUP3 ADD MSTORE PUSH1 0x16 PUSH1 0x24 DUP3 ADD MSTORE PUSH1 0x0 DUP1 MLOAD PUSH1 0x20 PUSH2 0x441F DUP4 CODECOPY DUP2 MLOAD SWAP2 MSTORE PUSH1 0x44 DUP3 ADD MSTORE SWAP1 MLOAD SWAP1 DUP2 SWAP1 SUB PUSH1 0x64 ADD SWAP1 REVERT JUMPDEST PUSH1 0x1 PUSH1 0x1 PUSH1 0xA0 SHL SUB PUSH32 0x0 AND DUP6 DUP6 PUSH1 0x0 NOT DUP2 ADD DUP2 DUP2 LT PUSH2 0x191B JUMPI INVALID JUMPDEST SWAP1 POP PUSH1 0x20 MUL ADD CALLDATALOAD PUSH1 0x1 PUSH1 0x1 PUSH1 0xA0 SHL SUB AND PUSH1 0x1 PUSH1 0x1 PUSH1 0xA0 SHL SUB AND EQ PUSH2 0x1974 JUMPI PUSH1 0x40 DUP1 MLOAD PUSH3 0x461BCD PUSH1 0xE5 SHL DUP2 MSTORE PUSH1 0x20 PUSH1 0x4 DUP3 ADD MSTORE PUSH1 0x1B PUSH1 0x24 DUP3 ADD MSTORE PUSH1 0x0 DUP1 MLOAD PUSH1 0x20 PUSH2 0x448B DUP4 CODECOPY DUP2 MLOAD SWAP2 MSTORE PUSH1 0x44 DUP3 ADD MSTORE SWAP1 MLOAD SWAP1 DUP2 SWAP1 SUB PUSH1 0x64 ADD SWAP1 REVERT JUMPDEST PUSH2 0x1984 DUP6 DUP6 PUSH1 0x0 DUP2 DUP2 LT PUSH2 0x165C JUMPI INVALID JUMPDEST PUSH2 0x19C2 DUP6 DUP6 DUP1 DUP1 PUSH1 0x20 MUL PUSH1 0x20 ADD PUSH1 0x40 MLOAD SWAP1 DUP2 ADD PUSH1 0x40 MSTORE DUP1 SWAP4 SWAP3 SWAP2 SWAP1 DUP2 DUP2 MSTORE PUSH1 0x20 ADD DUP4 DUP4 PUSH1 0x20 MUL DUP1 DUP3 DUP5 CALLDATACOPY PUSH1 0x0 SWAP3 ADD SWAP2 SWAP1 SWAP2 MSTORE POP ADDRESS SWAP3 POP PUSH2 0x39FD SWAP2 POP POP JUMP JUMPDEST PUSH1 0x40 DUP1 MLOAD PUSH4 0x70A08231 PUSH1 0xE0 SHL DUP2 MSTORE ADDRESS PUSH1 0x4 DUP3 ADD MSTORE SWAP1 MLOAD PUSH1 0x0 SWAP2 PUSH1 0x1 PUSH1 0x1 PUSH1 0xA0 SHL SUB PUSH32 0x0 AND SWAP2 PUSH4 0x70A08231 SWAP2 PUSH1 0x24 DUP1 DUP3 ADD SWAP3 PUSH1 0x20 SWAP3 SWAP1 SWAP2 SWAP1 DUP3 SWAP1 SUB ADD DUP2 DUP7 DUP1 EXTCODESIZE ISZERO DUP1 ISZERO PUSH2 0x1A2C JUMPI PUSH1 0x0 DUP1 REVERT JUMPDEST POP GAS STATICCALL ISZERO DUP1 ISZERO PUSH2 0x1A40 JUMPI RETURNDATASIZE PUSH1 0x0 DUP1 RETURNDATACOPY RETURNDATASIZE PUSH1 0x0 REVERT JUMPDEST POP POP POP POP PUSH1 0x40 MLOAD RETURNDATASIZE PUSH1 0x20 DUP2 LT ISZERO PUSH2 0x1A56 JUMPI PUSH1 0x0 DUP1 REVERT JUMPDEST POP MLOAD SWAP1 POP DUP7 DUP2 LT ISZERO PUSH2 0x1A99 JUMPI PUSH1 0x40 MLOAD PUSH3 0x461BCD PUSH1 0xE5 SHL DUP2 MSTORE PUSH1 0x4 ADD DUP1 DUP1 PUSH1 0x20 ADD DUP3 DUP2 SUB DUP3 MSTORE PUSH1 0x29 DUP2 MSTORE PUSH1 0x20 ADD DUP1 PUSH2 0x443F PUSH1 0x29 SWAP2 CODECOPY PUSH1 0x40 ADD SWAP2 POP POP PUSH1 0x40 MLOAD DUP1 SWAP2 SUB SWAP1 REVERT JUMPDEST PUSH32 0x0 PUSH1 0x1 PUSH1 0x1 PUSH1 0xA0 SHL SUB AND PUSH4 0x2E1A7D4D DUP3 PUSH1 0x40 MLOAD DUP3 PUSH4 0xFFFFFFFF AND PUSH1 0xE0 SHL DUP2 MSTORE PUSH1 0x4 ADD DUP1 DUP3 DUP2 MSTORE PUSH1 0x20 ADD SWAP2 POP POP PUSH1 0x0 PUSH1 0x40 MLOAD DUP1 DUP4 SUB DUP2 PUSH1 0x0 DUP8 DUP1 EXTCODESIZE ISZERO DUP1 ISZERO PUSH2 0x1AFF JUMPI PUSH1 0x0 DUP1 REVERT JUMPDEST POP GAS CALL ISZERO DUP1 ISZERO PUSH2 0x1B13 JUMPI RETURNDATASIZE PUSH1 0x0 DUP1 RETURNDATACOPY RETURNDATASIZE PUSH1 0x0 REVERT JUMPDEST POP POP POP POP PUSH2 0x1893 DUP5 DUP3 PUSH2 0x312E JUMP JUMPDEST PUSH1 0x60 DUP2 TIMESTAMP DUP2 LT ISZERO PUSH2 0x1B67 JUMPI PUSH1 0x40 DUP1 MLOAD PUSH3 0x461BCD PUSH1 0xE5 SHL DUP2 MSTORE PUSH1 0x20 PUSH1 0x4 DUP3 ADD MSTORE PUSH1 0x16 PUSH1 0x24 DUP3 ADD MSTORE PUSH1 0x0 DUP1 MLOAD PUSH1 0x20 PUSH2 0x441F DUP4 CODECOPY DUP2 MLOAD SWAP2 MSTORE PUSH1 0x44 DUP3 ADD MSTORE SWAP1 MLOAD SWAP1 DUP2 SWAP1 SUB PUSH1 0x64 ADD SWAP1 REVERT JUMPDEST PUSH32 0x0 PUSH1 0x1 PUSH1 0x1 PUSH1 0xA0 SHL SUB AND DUP7 DUP7 PUSH1 0x0 DUP2 DUP2 LT PUSH2 0x1B9E JUMPI INVALID JUMPDEST SWAP1 POP PUSH1 0x20 MUL ADD CALLDATALOAD PUSH1 0x1 PUSH1 0x1 PUSH1 0xA0 SHL SUB AND PUSH1 0x1 PUSH1 0x1 PUSH1 0xA0 SHL SUB AND EQ PUSH2 0x1BF7 JUMPI PUSH1 0x40 DUP1 MLOAD PUSH3 0x461BCD PUSH1 0xE5 SHL DUP2 MSTORE PUSH1 0x20 PUSH1 0x4 DUP3 ADD MSTORE PUSH1 0x1B PUSH1 0x24 DUP3 ADD MSTORE PUSH1 0x0 DUP1 MLOAD PUSH1 0x20 PUSH2 0x448B DUP4 CODECOPY DUP2 MLOAD SWAP2 MSTORE PUSH1 0x44 DUP3 ADD MSTORE SWAP1 MLOAD SWAP1 DUP2 SWAP1 SUB PUSH1 0x64 ADD SWAP1 REVERT JUMPDEST PUSH2 0x1C55 PUSH32 0x0 CALLVALUE DUP9 DUP9 DUP1 DUP1 PUSH1 0x20 MUL PUSH1 0x20 ADD PUSH1 0x40 MLOAD SWAP1 DUP2 ADD PUSH1 0x40 MSTORE DUP1 SWAP4 SWAP3 SWAP2 SWAP1 DUP2 DUP2 MSTORE PUSH1 0x20 ADD DUP4 DUP4 PUSH1 0x20 MUL DUP1 DUP3 DUP5 CALLDATACOPY PUSH1 0x0 SWAP3 ADD SWAP2 SWAP1 SWAP2 MSTORE POP PUSH2 0x3316 SWAP3 POP POP POP JUMP JUMPDEST SWAP2 POP DUP7 DUP3 PUSH1 0x1 DUP5 MLOAD SUB DUP2 MLOAD DUP2 LT PUSH2 0x1C68 JUMPI INVALID JUMPDEST PUSH1 0x20 MUL PUSH1 0x20 ADD ADD MLOAD LT ISZERO PUSH2 0x1CAD JUMPI PUSH1 0x40 MLOAD PUSH3 0x461BCD PUSH1 0xE5 SHL DUP2 MSTORE PUSH1 0x4 ADD DUP1 DUP1 PUSH1 0x20 ADD DUP3 DUP2 SUB DUP3 MSTORE PUSH1 0x29 DUP2 MSTORE PUSH1 0x20 ADD DUP1 PUSH2 0x443F PUSH1 0x29 SWAP2 CODECOPY PUSH1 0x40 ADD SWAP2 POP POP PUSH1 0x40 MLOAD DUP1 SWAP2 SUB SWAP1 REVERT JUMPDEST PUSH32 0x0 PUSH1 0x1 PUSH1 0x1 PUSH1 0xA0 SHL SUB AND PUSH4 0xD0E30DB0 DUP4 PUSH1 0x0 DUP2 MLOAD DUP2 LT PUSH2 0x1CE9 JUMPI INVALID JUMPDEST PUSH1 0x20 MUL PUSH1 0x20 ADD ADD MLOAD PUSH1 0x40 MLOAD DUP3 PUSH4 0xFFFFFFFF AND PUSH1 0xE0 SHL DUP2 MSTORE PUSH1 0x4 ADD PUSH1 0x0 PUSH1 0x40 MLOAD DUP1 DUP4 SUB DUP2 DUP6 DUP9 DUP1 EXTCODESIZE ISZERO DUP1 ISZERO PUSH2 0x1D1C JUMPI PUSH1 0x0 DUP1 REVERT JUMPDEST POP GAS CALL ISZERO DUP1 ISZERO PUSH2 0x1D30 JUMPI RETURNDATASIZE PUSH1 0x0 DUP1 RETURNDATACOPY RETURNDATASIZE PUSH1 0x0 REVERT JUMPDEST POP POP POP POP POP PUSH32 0x0 PUSH1 0x1 PUSH1 0x1 PUSH1 0xA0 SHL SUB AND PUSH4 0xA9059CBB PUSH2 0x1D95 PUSH32 0x0 DUP10 DUP10 PUSH1 0x0 DUP2 DUP2 LT PUSH2 0x169E JUMPI INVALID JUMPDEST DUP5 PUSH1 0x0 DUP2 MLOAD DUP2 LT PUSH2 0x1DA2 JUMPI INVALID JUMPDEST PUSH1 0x20 MUL PUSH1 0x20 ADD ADD MLOAD PUSH1 0x40 MLOAD DUP4 PUSH4 0xFFFFFFFF AND PUSH1 0xE0 SHL DUP2 MSTORE PUSH1 0x4 ADD DUP1 DUP4 PUSH1 0x1 PUSH1 0x1 PUSH1 0xA0 SHL SUB AND PUSH1 0x1 PUSH1 0x1 PUSH1 0xA0 SHL SUB AND DUP2 MSTORE PUSH1 0x20 ADD DUP3 DUP2 MSTORE PUSH1 0x20 ADD SWAP3 POP POP POP PUSH1 0x20 PUSH1 0x40 MLOAD DUP1 DUP4 SUB DUP2 PUSH1 0x0 DUP8 DUP1 EXTCODESIZE ISZERO DUP1 ISZERO PUSH2 0x1DF9 JUMPI PUSH1 0x0 DUP1 REVERT JUMPDEST POP GAS CALL ISZERO DUP1 ISZERO PUSH2 0x1E0D JUMPI RETURNDATASIZE PUSH1 0x0 DUP1 RETURNDATACOPY RETURNDATASIZE PUSH1 0x0 REVERT JUMPDEST POP POP POP POP PUSH1 0x40 MLOAD RETURNDATASIZE PUSH1 0x20 DUP2 LT ISZERO PUSH2 0x1E23 JUMPI PUSH1 0x0 DUP1 REVERT JUMPDEST POP MLOAD PUSH2 0x1E2B JUMPI INVALID JUMPDEST PUSH2 0x1E6A DUP3 DUP8 DUP8 DUP1 DUP1 PUSH1 0x20 MUL PUSH1 0x20 ADD PUSH1 0x40 MLOAD SWAP1 DUP2 ADD PUSH1 0x40 MSTORE DUP1 SWAP4 SWAP3 SWAP2 SWAP1 DUP2 DUP2 MSTORE PUSH1 0x20 ADD DUP4 DUP4 PUSH1 0x20 MUL DUP1 DUP3 DUP5 CALLDATACOPY PUSH1 0x0 SWAP3 ADD SWAP2 SWAP1 SWAP2 MSTORE POP DUP10 SWAP3 POP PUSH2 0x367F SWAP2 POP POP JUMP JUMPDEST POP SWAP6 SWAP5 POP POP POP POP POP JUMP JUMPDEST PUSH1 0x0 PUSH2 0xDBE DUP5 DUP5 DUP5 PUSH2 0x3D58 JUMP JUMPDEST PUSH1 0x60 DUP2 TIMESTAMP DUP2 LT ISZERO PUSH2 0x1EC7 JUMPI PUSH1 0x40 DUP1 MLOAD PUSH3 0x461BCD PUSH1 0xE5 SHL DUP2 MSTORE PUSH1 0x20 PUSH1 0x4 DUP3 ADD MSTORE PUSH1 0x16 PUSH1 0x24 DUP3 ADD MSTORE PUSH1 0x0 DUP1 MLOAD PUSH1 0x20 PUSH2 0x441F DUP4 CODECOPY DUP2 MLOAD SWAP2 MSTORE PUSH1 0x44 DUP3 ADD MSTORE SWAP1 MLOAD SWAP1 DUP2 SWAP1 SUB PUSH1 0x64 ADD SWAP1 REVERT JUMPDEST PUSH2 0x1F25 PUSH32 0x0 DUP10 DUP9 DUP9 DUP1 DUP1 PUSH1 0x20 MUL PUSH1 0x20 ADD PUSH1 0x40 MLOAD SWAP1 DUP2 ADD PUSH1 0x40 MSTORE DUP1 SWAP4 SWAP3 SWAP2 SWAP1 DUP2 DUP2 MSTORE PUSH1 0x20 ADD DUP4 DUP4 PUSH1 0x20 MUL DUP1 DUP3 DUP5 CALLDATACOPY PUSH1 0x0 SWAP3 ADD SWAP2 SWAP1 SWAP2 MSTORE POP PUSH2 0x38C5 SWAP3 POP POP POP JUMP JUMPDEST SWAP2 POP DUP7 DUP3 PUSH1 0x0 DUP2 MLOAD DUP2 LT PUSH2 0x1F35 JUMPI INVALID JUMPDEST PUSH1 0x20 MUL PUSH1 0x20 ADD ADD MLOAD GT ISZERO PUSH2 0x131F JUMPI PUSH1 0x40 MLOAD PUSH3 0x461BCD PUSH1 0xE5 SHL DUP2 MSTORE PUSH1 0x4 ADD DUP1 DUP1 PUSH1 0x20 ADD DUP3 DUP2 SUB DUP3 MSTORE PUSH1 0x25 DUP2 MSTORE PUSH1 0x20 ADD DUP1 PUSH2 0x4515 PUSH1 0x25 SWAP2 CODECOPY PUSH1 0x40 ADD SWAP2 POP POP PUSH1 0x40 MLOAD DUP1 SWAP2 SUB SWAP1 REVERT JUMPDEST PUSH32 0x0 DUP2 JUMP JUMPDEST PUSH1 0x0 PUSH2 0xDBE DUP5 DUP5 DUP5 PUSH2 0x3E48 JUMP JUMPDEST PUSH1 0x0 DUP2 TIMESTAMP DUP2 LT ISZERO PUSH2 0x1FF1 JUMPI PUSH1 0x40 DUP1 MLOAD PUSH3 0x461BCD PUSH1 0xE5 SHL DUP2 MSTORE PUSH1 0x20 PUSH1 0x4 DUP3 ADD MSTORE PUSH1 0x16 PUSH1 0x24 DUP3 ADD MSTORE PUSH1 0x0 DUP1 MLOAD PUSH1 0x20 PUSH2 0x441F DUP4 CODECOPY DUP2 MLOAD SWAP2 MSTORE PUSH1 0x44 DUP3 ADD MSTORE SWAP1 MLOAD SWAP1 DUP2 SWAP1 SUB PUSH1 0x64 ADD SWAP1 REVERT JUMPDEST PUSH2 0x2020 DUP9 PUSH32 0x0 DUP10 DUP10 DUP10 ADDRESS DUP10 PUSH2 0x24B8 JUMP JUMPDEST PUSH1 0x40 DUP1 MLOAD PUSH4 0x70A08231 PUSH1 0xE0 SHL DUP2 MSTORE ADDRESS PUSH1 0x4 DUP3 ADD MSTORE SWAP1 MLOAD SWAP2 SWAP5 POP PUSH2 0x20A4 SWAP3 POP DUP11 SWAP2 DUP8 SWAP2 PUSH1 0x1 PUSH1 0x1 PUSH1 0xA0 SHL SUB DUP5 AND SWAP2 PUSH4 0x70A08231 SWAP2 PUSH1 0x24 DUP1 DUP3 ADD SWAP3 PUSH1 0x20 SWAP3 SWAP1 SWAP2 SWAP1 DUP3 SWAP1 SUB ADD DUP2 DUP7 DUP1 EXTCODESIZE ISZERO DUP1 ISZERO PUSH2 0x2073 JUMPI PUSH1 0x0 DUP1 REVERT JUMPDEST POP GAS STATICCALL ISZERO DUP1 ISZERO PUSH2 0x2087 JUMPI RETURNDATASIZE PUSH1 0x0 DUP1 RETURNDATACOPY RETURNDATASIZE PUSH1 0x0 REVERT JUMPDEST POP POP POP POP PUSH1 0x40 MLOAD RETURNDATASIZE PUSH1 0x20 DUP2 LT ISZERO PUSH2 0x209D JUMPI PUSH1 0x0 DUP1 REVERT JUMPDEST POP MLOAD PUSH2 0x2FC4 JUMP JUMPDEST PUSH32 0x0 PUSH1 0x1 PUSH1 0x1 PUSH1 0xA0 SHL SUB AND PUSH4 0x2E1A7D4D DUP4 PUSH1 0x40 MLOAD DUP3 PUSH4 0xFFFFFFFF AND PUSH1 0xE0 SHL DUP2 MSTORE PUSH1 0x4 ADD DUP1 DUP3 DUP2 MSTORE PUSH1 0x20 ADD SWAP2 POP POP PUSH1 0x0 PUSH1 0x40 MLOAD DUP1 DUP4 SUB DUP2 PUSH1 0x0 DUP8 DUP1 EXTCODESIZE ISZERO DUP1 ISZERO PUSH2 0x210A JUMPI PUSH1 0x0 DUP1 REVERT JUMPDEST POP GAS CALL ISZERO DUP1 ISZERO PUSH2 0x211E JUMPI RETURNDATASIZE PUSH1 0x0 DUP1 RETURNDATACOPY RETURNDATASIZE PUSH1 0x0 REVERT JUMPDEST POP POP POP POP PUSH2 0x10E8 DUP5 DUP4 PUSH2 0x312E JUMP JUMPDEST DUP1 TIMESTAMP DUP2 LT ISZERO PUSH2 0x2170 JUMPI PUSH1 0x40 DUP1 MLOAD PUSH3 0x461BCD PUSH1 0xE5 SHL DUP2 MSTORE PUSH1 0x20 PUSH1 0x4 DUP3 ADD MSTORE PUSH1 0x16 PUSH1 0x24 DUP3 ADD MSTORE PUSH1 0x0 DUP1 MLOAD PUSH1 0x20 PUSH2 0x441F DUP4 CODECOPY DUP2 MLOAD SWAP2 MSTORE PUSH1 0x44 DUP3 ADD MSTORE SWAP1 MLOAD SWAP1 DUP2 SWAP1 SUB PUSH1 0x64 ADD SWAP1 REVERT JUMPDEST PUSH32 0x0 PUSH1 0x1 PUSH1 0x1 PUSH1 0xA0 SHL SUB AND DUP6 DUP6 PUSH1 0x0 DUP2 DUP2 LT PUSH2 0x21A7 JUMPI INVALID JUMPDEST SWAP1 POP PUSH1 0x20 MUL ADD CALLDATALOAD PUSH1 0x1 PUSH1 0x1 PUSH1 0xA0 SHL SUB AND PUSH1 0x1 PUSH1 0x1 PUSH1 0xA0 SHL SUB AND EQ PUSH2 0x2200 JUMPI PUSH1 0x40 DUP1 MLOAD PUSH3 0x461BCD PUSH1 0xE5 SHL DUP2 MSTORE PUSH1 0x20 PUSH1 0x4 DUP3 ADD MSTORE PUSH1 0x1B PUSH1 0x24 DUP3 ADD MSTORE PUSH1 0x0 DUP1 MLOAD PUSH1 0x20 PUSH2 0x448B DUP4 CODECOPY DUP2 MLOAD SWAP2 MSTORE PUSH1 0x44 DUP3 ADD MSTORE SWAP1 MLOAD SWAP1 DUP2 SWAP1 SUB PUSH1 0x64 ADD SWAP1 REVERT JUMPDEST PUSH1 0x0 CALLVALUE SWAP1 POP PUSH32 0x0 PUSH1 0x1 PUSH1 0x1 PUSH1 0xA0 SHL SUB AND PUSH4 0xD0E30DB0 DUP3 PUSH1 0x40 MLOAD DUP3 PUSH4 0xFFFFFFFF AND PUSH1 0xE0 SHL DUP2 MSTORE PUSH1 0x4 ADD PUSH1 0x0 PUSH1 0x40 MLOAD DUP1 DUP4 SUB DUP2 DUP6 DUP9 DUP1 EXTCODESIZE ISZERO DUP1 ISZERO PUSH2 0x2260 JUMPI PUSH1 0x0 DUP1 REVERT JUMPDEST POP GAS CALL ISZERO DUP1 ISZERO PUSH2 0x2274 JUMPI RETURNDATASIZE PUSH1 0x0 DUP1 RETURNDATACOPY RETURNDATASIZE PUSH1 0x0 REVERT JUMPDEST POP POP POP POP POP PUSH32 0x0 PUSH1 0x1 PUSH1 0x1 PUSH1 0xA0 SHL SUB AND PUSH4 0xA9059CBB PUSH2 0x22D9 PUSH32 0x0 DUP10 DUP10 PUSH1 0x0 DUP2 DUP2 LT PUSH2 0x169E JUMPI INVALID JUMPDEST DUP4 PUSH1 0x40 MLOAD DUP4 PUSH4 0xFFFFFFFF AND PUSH1 0xE0 SHL DUP2 MSTORE PUSH1 0x4 ADD DUP1 DUP4 PUSH1 0x1 PUSH1 0x1 PUSH1 0xA0 SHL SUB AND PUSH1 0x1 PUSH1 0x1 PUSH1 0xA0 SHL SUB AND DUP2 MSTORE PUSH1 0x20 ADD DUP3 DUP2 MSTORE PUSH1 0x20 ADD SWAP3 POP POP POP PUSH1 0x20 PUSH1 0x40 MLOAD DUP1 DUP4 SUB DUP2 PUSH1 0x0 DUP8 DUP1 EXTCODESIZE ISZERO DUP1 ISZERO PUSH2 0x2329 JUMPI PUSH1 0x0 DUP1 REVERT JUMPDEST POP GAS CALL ISZERO DUP1 ISZERO PUSH2 0x233D JUMPI RETURNDATASIZE PUSH1 0x0 DUP1 RETURNDATACOPY RETURNDATASIZE PUSH1 0x0 REVERT JUMPDEST POP POP POP POP PUSH1 0x40 MLOAD RETURNDATASIZE PUSH1 0x20 DUP2 LT ISZERO PUSH2 0x2353 JUMPI PUSH1 0x0 DUP1 REVERT JUMPDEST POP MLOAD PUSH2 0x235B JUMPI INVALID JUMPDEST PUSH1 0x0 DUP7 DUP7 PUSH1 0x0 NOT DUP2 ADD DUP2 DUP2 LT PUSH2 0x236D JUMPI INVALID JUMPDEST SWAP1 POP PUSH1 0x20 MUL ADD CALLDATALOAD PUSH1 0x1 PUSH1 0x1 PUSH1 0xA0 SHL SUB AND PUSH1 0x1 PUSH1 0x1 PUSH1 0xA0 SHL SUB AND PUSH4 0x70A08231 DUP7 PUSH1 0x40 MLOAD DUP3 PUSH4 0xFFFFFFFF AND PUSH1 0xE0 SHL DUP2 MSTORE PUSH1 0x4 ADD DUP1 DUP3 PUSH1 0x1 PUSH1 0x1 PUSH1 0xA0 SHL SUB AND PUSH1 0x1 PUSH1 0x1 PUSH1 0xA0 SHL SUB AND DUP2 MSTORE PUSH1 0x20 ADD SWAP2 POP POP PUSH1 0x20 PUSH1 0x40 MLOAD DUP1 DUP4 SUB DUP2 DUP7 DUP1 EXTCODESIZE ISZERO DUP1 ISZERO PUSH2 0x23D2 JUMPI PUSH1 0x0 DUP1 REVERT JUMPDEST POP GAS STATICCALL ISZERO DUP1 ISZERO PUSH2 0x23E6 JUMPI RETURNDATASIZE PUSH1 0x0 DUP1 RETURNDATACOPY RETURNDATASIZE PUSH1 0x0 REVERT JUMPDEST POP POP POP POP PUSH1 0x40 MLOAD RETURNDATASIZE PUSH1 0x20 DUP2 LT ISZERO PUSH2 0x23FC JUMPI PUSH1 0x0 DUP1 REVERT JUMPDEST POP MLOAD PUSH1 0x40 DUP1 MLOAD PUSH1 0x20 DUP10 DUP2 MUL DUP3 DUP2 ADD DUP3 ADD SWAP1 SWAP4 MSTORE DUP10 DUP3 MSTORE SWAP3 SWAP4 POP PUSH2 0x243E SWAP3 SWAP1 SWAP2 DUP11 SWAP2 DUP11 SWAP2 DUP3 SWAP2 DUP6 ADD SWAP1 DUP5 SWAP1 DUP1 DUP3 DUP5 CALLDATACOPY PUSH1 0x0 SWAP3 ADD SWAP2 SWAP1 SWAP2 MSTORE POP DUP10 SWAP3 POP PUSH2 0x39FD SWAP2 POP POP JUMP JUMPDEST DUP8 PUSH2 0x1856 DUP3 DUP10 DUP10 PUSH1 0x0 NOT DUP2 ADD DUP2 DUP2 LT PUSH2 0x2453 JUMPI INVALID JUMPDEST SWAP1 POP PUSH1 0x20 MUL ADD CALLDATALOAD PUSH1 0x1 PUSH1 0x1 PUSH1 0xA0 SHL SUB AND PUSH1 0x1 PUSH1 0x1 PUSH1 0xA0 SHL SUB AND PUSH4 0x70A08231 DUP10 PUSH1 0x40 MLOAD DUP3 PUSH4 0xFFFFFFFF AND PUSH1 0xE0 SHL DUP2 MSTORE PUSH1 0x4 ADD DUP1 DUP3 PUSH1 0x1 PUSH1 0x1 PUSH1 0xA0 SHL SUB AND PUSH1 0x1 PUSH1 0x1 PUSH1 0xA0 SHL SUB AND DUP2 MSTORE PUSH1 0x20 ADD SWAP2 POP POP PUSH1 0x20 PUSH1 0x40 MLOAD DUP1 DUP4 SUB DUP2 DUP7 DUP1 EXTCODESIZE ISZERO DUP1 ISZERO PUSH2 0x181E JUMPI PUSH1 0x0 DUP1 REVERT JUMPDEST PUSH1 0x0 DUP1 DUP3 TIMESTAMP DUP2 LT ISZERO PUSH2 0x24FF JUMPI PUSH1 0x40 DUP1 MLOAD PUSH3 0x461BCD PUSH1 0xE5 SHL DUP2 MSTORE PUSH1 0x20 PUSH1 0x4 DUP3 ADD MSTORE PUSH1 0x16 PUSH1 0x24 DUP3 ADD MSTORE PUSH1 0x0 DUP1 MLOAD PUSH1 0x20 PUSH2 0x441F DUP4 CODECOPY DUP2 MLOAD SWAP2 MSTORE PUSH1 0x44 DUP3 ADD MSTORE SWAP1 MLOAD SWAP1 DUP2 SWAP1 SUB PUSH1 0x64 ADD SWAP1 REVERT JUMPDEST PUSH1 0x0 PUSH2 0x252C PUSH32 0x0 DUP13 DUP13 PUSH2 0x3462 JUMP JUMPDEST PUSH1 0x40 DUP1 MLOAD PUSH4 0x23B872DD PUSH1 0xE0 SHL DUP2 MSTORE CALLER PUSH1 0x4 DUP3 ADD MSTORE PUSH1 0x1 PUSH1 0x1 PUSH1 0xA0 SHL SUB DUP4 AND PUSH1 0x24 DUP3 ADD DUP2 SWAP1 MSTORE PUSH1 0x44 DUP3 ADD DUP14 SWAP1 MSTORE SWAP2 MLOAD SWAP3 SWAP4 POP SWAP1 SWAP2 PUSH4 0x23B872DD SWAP2 PUSH1 0x64 DUP1 DUP3 ADD SWAP3 PUSH1 0x20 SWAP3 SWAP1 SWAP2 SWAP1 DUP3 SWAP1 SUB ADD DUP2 PUSH1 0x0 DUP8 DUP1 EXTCODESIZE ISZERO DUP1 ISZERO PUSH2 0x2587 JUMPI PUSH1 0x0 DUP1 REVERT JUMPDEST POP GAS CALL ISZERO DUP1 ISZERO PUSH2 0x259B JUMPI RETURNDATASIZE PUSH1 0x0 DUP1 RETURNDATACOPY RETURNDATASIZE PUSH1 0x0 REVERT JUMPDEST POP POP POP POP PUSH1 0x40 MLOAD RETURNDATASIZE PUSH1 0x20 DUP2 LT ISZERO PUSH2 0x25B1 JUMPI PUSH1 0x0 DUP1 REVERT JUMPDEST POP POP PUSH1 0x40 DUP1 MLOAD PUSH4 0x226BF2D1 PUSH1 0xE2 SHL DUP2 MSTORE PUSH1 0x1 PUSH1 0x1 PUSH1 0xA0 SHL SUB DUP9 DUP2 AND PUSH1 0x4 DUP4 ADD MSTORE DUP3 MLOAD PUSH1 0x0 SWAP4 DUP5 SWAP4 SWAP3 DUP7 AND SWAP3 PUSH4 0x89AFCB44 SWAP3 PUSH1 0x24 DUP1 DUP4 ADD SWAP4 SWAP3 DUP3 SWAP1 SUB ADD DUP2 DUP8 DUP8 DUP1 EXTCODESIZE ISZERO DUP1 ISZERO PUSH2 0x25FE JUMPI PUSH1 0x0 DUP1 REVERT JUMPDEST POP GAS CALL ISZERO DUP1 ISZERO PUSH2 0x2612 JUMPI RETURNDATASIZE PUSH1 0x0 DUP1 RETURNDATACOPY RETURNDATASIZE PUSH1 0x0 REVERT JUMPDEST POP POP POP POP PUSH1 0x40 MLOAD RETURNDATASIZE PUSH1 0x40 DUP2 LT ISZERO PUSH2 0x2628 JUMPI PUSH1 0x0 DUP1 REVERT JUMPDEST POP DUP1 MLOAD PUSH1 0x20 SWAP1 SWAP2 ADD MLOAD SWAP1 SWAP3 POP SWAP1 POP PUSH1 0x0 PUSH2 0x2642 DUP15 DUP15 PUSH2 0x3EF4 JUMP JUMPDEST POP SWAP1 POP DUP1 PUSH1 0x1 PUSH1 0x1 PUSH1 0xA0 SHL SUB AND DUP15 PUSH1 0x1 PUSH1 0x1 PUSH1 0xA0 SHL SUB AND EQ PUSH2 0x2665 JUMPI DUP2 DUP4 PUSH2 0x2668 JUMP JUMPDEST DUP3 DUP3 JUMPDEST SWAP1 SWAP8 POP SWAP6 POP DUP11 DUP8 LT ISZERO PUSH2 0x26AC JUMPI PUSH1 0x40 MLOAD PUSH3 0x461BCD PUSH1 0xE5 SHL DUP2 MSTORE PUSH1 0x4 ADD DUP1 DUP1 PUSH1 0x20 ADD DUP3 DUP2 SUB DUP3 MSTORE PUSH1 0x24 DUP2 MSTORE PUSH1 0x20 ADD DUP1 PUSH2 0x44AB PUSH1 0x24 SWAP2 CODECOPY PUSH1 0x40 ADD SWAP2 POP POP PUSH1 0x40 MLOAD DUP1 SWAP2 SUB SWAP1 REVERT JUMPDEST DUP10 DUP7 LT ISZERO PUSH2 0x26EB JUMPI PUSH1 0x40 MLOAD PUSH3 0x461BCD PUSH1 0xE5 SHL DUP2 MSTORE PUSH1 0x4 ADD DUP1 DUP1 PUSH1 0x20 ADD DUP3 DUP2 SUB DUP3 MSTORE PUSH1 0x24 DUP2 MSTORE PUSH1 0x20 ADD DUP1 PUSH2 0x4584 PUSH1 0x24 SWAP2 CODECOPY PUSH1 0x40 ADD SWAP2 POP POP PUSH1 0x40 MLOAD DUP1 SWAP2 SUB SWAP1 REVERT JUMPDEST POP POP POP POP POP SWAP8 POP SWAP8 SWAP6 POP POP POP POP POP POP JUMP JUMPDEST PUSH32 0x0 DUP2 JUMP JUMPDEST PUSH1 0x60 PUSH2 0x1120 PUSH32 0x0 DUP5 DUP5 PUSH2 0x3316 JUMP JUMPDEST PUSH1 0x0 DUP1 PUSH1 0x0 PUSH2 0x279D PUSH32 0x0 DUP15 PUSH32 0x0 PUSH2 0x3462 JUMP JUMPDEST SWAP1 POP PUSH1 0x0 DUP8 PUSH2 0x27AC JUMPI DUP13 PUSH2 0x27B0 JUMP JUMPDEST PUSH1 0x0 NOT JUMPDEST PUSH1 0x40 DUP1 MLOAD PUSH4 0xD505ACCF PUSH1 0xE0 SHL DUP2 MSTORE CALLER PUSH1 0x4 DUP3 ADD MSTORE ADDRESS PUSH1 0x24 DUP3 ADD MSTORE PUSH1 0x44 DUP2 ADD DUP4 SWAP1 MSTORE PUSH1 0x64 DUP2 ADD DUP13 SWAP1 MSTORE PUSH1 0xFF DUP11 AND PUSH1 0x84 DUP3 ADD MSTORE PUSH1 0xA4 DUP2 ADD DUP10 SWAP1 MSTORE PUSH1 0xC4 DUP2 ADD DUP9 SWAP1 MSTORE SWAP1 MLOAD SWAP2 SWAP3 POP PUSH1 0x1 PUSH1 0x1 PUSH1 0xA0 SHL SUB DUP5 AND SWAP2 PUSH4 0xD505ACCF SWAP2 PUSH1 0xE4 DUP1 DUP3 ADD SWAP3 PUSH1 0x0 SWAP3 SWAP1 SWAP2 SWAP1 DUP3 SWAP1 SUB ADD DUP2 DUP4 DUP8 DUP1 EXTCODESIZE ISZERO DUP1 ISZERO PUSH2 0x2826 JUMPI PUSH1 0x0 DUP1 REVERT JUMPDEST POP GAS CALL ISZERO DUP1 ISZERO PUSH2 0x283A JUMPI RETURNDATASIZE PUSH1 0x0 DUP1 RETURNDATACOPY RETURNDATASIZE PUSH1 0x0 REVERT JUMPDEST POP POP POP POP PUSH2 0x284C DUP15 DUP15 DUP15 DUP15 DUP15 DUP15 PUSH2 0xC97 JUMP JUMPDEST SWAP1 SWAP16 SWAP1 SWAP15 POP SWAP13 POP POP POP POP POP POP POP POP POP POP POP POP POP JUMP JUMPDEST PUSH1 0x0 DUP1 PUSH1 0x0 DUP4 TIMESTAMP DUP2 LT ISZERO PUSH2 0x28AA JUMPI PUSH1 0x40 DUP1 MLOAD PUSH3 0x461BCD PUSH1 0xE5 SHL DUP2 MSTORE PUSH1 0x20 PUSH1 0x4 DUP3 ADD MSTORE PUSH1 0x16 PUSH1 0x24 DUP3 ADD MSTORE PUSH1 0x0 DUP1 MLOAD PUSH1 0x20 PUSH2 0x441F DUP4 CODECOPY DUP2 MLOAD SWAP2 MSTORE PUSH1 0x44 DUP3 ADD MSTORE SWAP1 MLOAD SWAP1 DUP2 SWAP1 SUB PUSH1 0x64 ADD SWAP1 REVERT JUMPDEST PUSH2 0x28B8 DUP13 DUP13 DUP13 DUP13 DUP13 DUP13 PUSH2 0x3FD2 JUMP JUMPDEST SWAP1 SWAP5 POP SWAP3 POP PUSH1 0x0 PUSH2 0x28EA PUSH32 0x0 DUP15 DUP15 PUSH2 0x3462 JUMP JUMPDEST SWAP1 POP PUSH2 0x28F8 DUP14 CALLER DUP4 DUP9 PUSH2 0x3522 JUMP JUMPDEST PUSH2 0x2904 DUP13 CALLER DUP4 DUP8 PUSH2 0x3522 JUMP JUMPDEST DUP1 PUSH1 0x1 PUSH1 0x1 PUSH1 0xA0 SHL SUB AND PUSH4 0x6A627842 DUP9 PUSH1 0x40 MLOAD DUP3 PUSH4 0xFFFFFFFF AND PUSH1 0xE0 SHL DUP2 MSTORE PUSH1 0x4 ADD DUP1 DUP3 PUSH1 0x1 PUSH1 0x1 PUSH1 0xA0 SHL SUB AND PUSH1 0x1 PUSH1 0x1 PUSH1 0xA0 SHL SUB AND DUP2 MSTORE PUSH1 0x20 ADD SWAP2 POP POP PUSH1 0x20 PUSH1 0x40 MLOAD DUP1 DUP4 SUB DUP2 PUSH1 0x0 DUP8 DUP1 EXTCODESIZE ISZERO DUP1 ISZERO PUSH2 0x295C JUMPI PUSH1 0x0 DUP1 REVERT JUMPDEST POP GAS CALL ISZERO DUP1 ISZERO PUSH2 0x2970 JUMPI RETURNDATASIZE PUSH1 0x0 DUP1 RETURNDATACOPY RETURNDATASIZE PUSH1 0x0 REVERT JUMPDEST POP POP POP POP PUSH1 0x40 MLOAD RETURNDATASIZE PUSH1 0x20 DUP2 LT ISZERO PUSH2 0x2986 JUMPI PUSH1 0x0 DUP1 REVERT JUMPDEST POP MLOAD SWAP5 SWAP14 SWAP4 SWAP13 POP SWAP4 SWAP11 POP SWAP2 SWAP9 POP POP POP POP POP POP POP POP POP JUMP JUMPDEST PUSH1 0x0 DUP1 PUSH1 0x0 DUP4 TIMESTAMP DUP2 LT ISZERO PUSH2 0x29E6 JUMPI PUSH1 0x40 DUP1 MLOAD PUSH3 0x461BCD PUSH1 0xE5 SHL DUP2 MSTORE PUSH1 0x20 PUSH1 0x4 DUP3 ADD MSTORE PUSH1 0x16 PUSH1 0x24 DUP3 ADD MSTORE PUSH1 0x0 DUP1 MLOAD PUSH1 0x20 PUSH2 0x441F DUP4 CODECOPY DUP2 MLOAD SWAP2 MSTORE PUSH1 0x44 DUP3 ADD MSTORE SWAP1 MLOAD SWAP1 DUP2 SWAP1 SUB PUSH1 0x64 ADD SWAP1 REVERT JUMPDEST PUSH2 0x2A14 DUP11 PUSH32 0x0 DUP12 CALLVALUE DUP13 DUP13 PUSH2 0x3FD2 JUMP JUMPDEST SWAP1 SWAP5 POP SWAP3 POP PUSH1 0x0 PUSH2 0x2A66 PUSH32 0x0 DUP13 PUSH32 0x0 PUSH2 0x3462 JUMP JUMPDEST SWAP1 POP PUSH2 0x2A74 DUP12 CALLER DUP4 DUP9 PUSH2 0x3522 JUMP JUMPDEST PUSH32 0x0 PUSH1 0x1 PUSH1 0x1 PUSH1 0xA0 SHL SUB AND PUSH4 0xD0E30DB0 DUP6 PUSH1 0x40 MLOAD DUP3 PUSH4 0xFFFFFFFF AND PUSH1 0xE0 SHL DUP2 MSTORE PUSH1 0x4 ADD PUSH1 0x0 PUSH1 0x40 MLOAD DUP1 DUP4 SUB DUP2 DUP6 DUP9 DUP1 EXTCODESIZE ISZERO DUP1 ISZERO PUSH2 0x2ACF JUMPI PUSH1 0x0 DUP1 REVERT JUMPDEST POP GAS CALL ISZERO DUP1 ISZERO PUSH2 0x2AE3 JUMPI RETURNDATASIZE PUSH1 0x0 DUP1 RETURNDATACOPY RETURNDATASIZE PUSH1 0x0 REVERT JUMPDEST POP POP POP POP POP PUSH32 0x0 PUSH1 0x1 PUSH1 0x1 PUSH1 0xA0 SHL SUB AND PUSH4 0xA9059CBB DUP3 DUP7 PUSH1 0x40 MLOAD DUP4 PUSH4 0xFFFFFFFF AND PUSH1 0xE0 SHL DUP2 MSTORE PUSH1 0x4 ADD DUP1 DUP4 PUSH1 0x1 PUSH1 0x1 PUSH1 0xA0 SHL SUB AND PUSH1 0x1 PUSH1 0x1 PUSH1 0xA0 SHL SUB AND DUP2 MSTORE PUSH1 0x20 ADD DUP3 DUP2 MSTORE PUSH1 0x20 ADD SWAP3 POP POP POP PUSH1 0x20 PUSH1 0x40 MLOAD DUP1 DUP4 SUB DUP2 PUSH1 0x0 DUP8 DUP1 EXTCODESIZE ISZERO DUP1 ISZERO PUSH2 0x2B68 JUMPI PUSH1 0x0 DUP1 REVERT JUMPDEST POP GAS CALL ISZERO DUP1 ISZERO PUSH2 0x2B7C JUMPI RETURNDATASIZE PUSH1 0x0 DUP1 RETURNDATACOPY RETURNDATASIZE PUSH1 0x0 REVERT JUMPDEST POP POP POP POP PUSH1 0x40 MLOAD RETURNDATASIZE PUSH1 0x20 DUP2 LT ISZERO PUSH2 0x2B92 JUMPI PUSH1 0x0 DUP1 REVERT JUMPDEST POP MLOAD PUSH2 0x2B9A JUMPI INVALID JUMPDEST DUP1 PUSH1 0x1 PUSH1 0x1 PUSH1 0xA0 SHL SUB AND PUSH4 0x6A627842 DUP9 PUSH1 0x40 MLOAD DUP3 PUSH4 0xFFFFFFFF AND PUSH1 0xE0 SHL DUP2 MSTORE PUSH1 0x4 ADD DUP1 DUP3 PUSH1 0x1 PUSH1 0x1 PUSH1 0xA0 SHL SUB AND PUSH1 0x1 PUSH1 0x1 PUSH1 0xA0 SHL SUB AND DUP2 MSTORE PUSH1 0x20 ADD SWAP2 POP POP PUSH1 0x20 PUSH1 0x40 MLOAD DUP1 DUP4 SUB DUP2 PUSH1 0x0 DUP8 DUP1 EXTCODESIZE ISZERO DUP1 ISZERO PUSH2 0x2BF2 JUMPI PUSH1 0x0 DUP1 REVERT JUMPDEST POP GAS CALL ISZERO DUP1 ISZERO PUSH2 0x2C06 JUMPI RETURNDATASIZE PUSH1 0x0 DUP1 RETURNDATACOPY RETURNDATASIZE PUSH1 0x0 REVERT JUMPDEST POP POP POP POP PUSH1 0x40 MLOAD RETURNDATASIZE PUSH1 0x20 DUP2 LT ISZERO PUSH2 0x2C1C JUMPI PUSH1 0x0 DUP1 REVERT JUMPDEST POP MLOAD SWAP3 POP CALLVALUE DUP5 LT ISZERO PUSH2 0x2C34 JUMPI PUSH2 0x2C34 CALLER DUP6 CALLVALUE SUB PUSH2 0x312E JUMP JUMPDEST POP POP SWAP7 POP SWAP7 POP SWAP7 SWAP4 POP POP POP POP JUMP JUMPDEST PUSH1 0x60 DUP2 TIMESTAMP DUP2 LT ISZERO PUSH2 0x2C88 JUMPI PUSH1 0x40 DUP1 MLOAD PUSH3 0x461BCD PUSH1 0xE5 SHL DUP2 MSTORE PUSH1 0x20 PUSH1 0x4 DUP3 ADD MSTORE PUSH1 0x16 PUSH1 0x24 DUP3 ADD MSTORE PUSH1 0x0 DUP1 MLOAD PUSH1 0x20 PUSH2 0x441F DUP4 CODECOPY DUP2 MLOAD SWAP2 MSTORE PUSH1 0x44 DUP3 ADD MSTORE SWAP1 MLOAD SWAP1 DUP2 SWAP1 SUB PUSH1 0x64 ADD SWAP1 REVERT JUMPDEST PUSH32 0x0 PUSH1 0x1 PUSH1 0x1 PUSH1 0xA0 SHL SUB AND DUP7 DUP7 PUSH1 0x0 DUP2 DUP2 LT PUSH2 0x2CBF JUMPI INVALID JUMPDEST SWAP1 POP PUSH1 0x20 MUL ADD CALLDATALOAD PUSH1 0x1 PUSH1 0x1 PUSH1 0xA0 SHL SUB AND PUSH1 0x1 PUSH1 0x1 PUSH1 0xA0 SHL SUB AND EQ PUSH2 0x2D18 JUMPI PUSH1 0x40 DUP1 MLOAD PUSH3 0x461BCD PUSH1 0xE5 SHL DUP2 MSTORE PUSH1 0x20 PUSH1 0x4 DUP3 ADD MSTORE PUSH1 0x1B PUSH1 0x24 DUP3 ADD MSTORE PUSH1 0x0 DUP1 MLOAD PUSH1 0x20 PUSH2 0x448B DUP4 CODECOPY DUP2 MLOAD SWAP2 MSTORE PUSH1 0x44 DUP3 ADD MSTORE SWAP1 MLOAD SWAP1 DUP2 SWAP1 SUB PUSH1 0x64 ADD SWAP1 REVERT JUMPDEST PUSH2 0x2D76 PUSH32 0x0 DUP9 DUP9 DUP9 DUP1 DUP1 PUSH1 0x20 MUL PUSH1 0x20 ADD PUSH1 0x40 MLOAD SWAP1 DUP2 ADD PUSH1 0x40 MSTORE DUP1 SWAP4 SWAP3 SWAP2 SWAP1 DUP2 DUP2 MSTORE PUSH1 0x20 ADD DUP4 DUP4 PUSH1 0x20 MUL DUP1 DUP3 DUP5 CALLDATACOPY PUSH1 0x0 SWAP3 ADD SWAP2 SWAP1 SWAP2 MSTORE POP PUSH2 0x38C5 SWAP3 POP POP POP JUMP JUMPDEST SWAP2 POP CALLVALUE DUP3 PUSH1 0x0 DUP2 MLOAD DUP2 LT PUSH2 0x2D86 JUMPI INVALID JUMPDEST PUSH1 0x20 MUL PUSH1 0x20 ADD ADD MLOAD GT ISZERO PUSH2 0x2DCB JUMPI PUSH1 0x40 MLOAD PUSH3 0x461BCD PUSH1 0xE5 SHL DUP2 MSTORE PUSH1 0x4 ADD DUP1 DUP1 PUSH1 0x20 ADD DUP3 DUP2 SUB DUP3 MSTORE PUSH1 0x25 DUP2 MSTORE PUSH1 0x20 ADD DUP1 PUSH2 0x4515 PUSH1 0x25 SWAP2 CODECOPY PUSH1 0x40 ADD SWAP2 POP POP PUSH1 0x40 MLOAD DUP1 SWAP2 SUB SWAP1 REVERT JUMPDEST PUSH32 0x0 PUSH1 0x1 PUSH1 0x1 PUSH1 0xA0 SHL SUB AND PUSH4 0xD0E30DB0 DUP4 PUSH1 0x0 DUP2 MLOAD DUP2 LT PUSH2 0x2E07 JUMPI INVALID JUMPDEST PUSH1 0x20 MUL PUSH1 0x20 ADD ADD MLOAD PUSH1 0x40 MLOAD DUP3 PUSH4 0xFFFFFFFF AND PUSH1 0xE0 SHL DUP2 MSTORE PUSH1 0x4 ADD PUSH1 0x0 PUSH1 0x40 MLOAD DUP1 DUP4 SUB DUP2 DUP6 DUP9 DUP1 EXTCODESIZE ISZERO DUP1 ISZERO PUSH2 0x2E3A JUMPI PUSH1 0x0 DUP1 REVERT JUMPDEST POP GAS CALL ISZERO DUP1 ISZERO PUSH2 0x2E4E JUMPI RETURNDATASIZE PUSH1 0x0 DUP1 RETURNDATACOPY RETURNDATASIZE PUSH1 0x0 REVERT JUMPDEST POP POP POP POP POP PUSH32 0x0 PUSH1 0x1 PUSH1 0x1 PUSH1 0xA0 SHL SUB AND PUSH4 0xA9059CBB PUSH2 0x2EB3 PUSH32 0x0 DUP10 DUP10 PUSH1 0x0 DUP2 DUP2 LT PUSH2 0x169E JUMPI INVALID JUMPDEST DUP5 PUSH1 0x0 DUP2 MLOAD DUP2 LT PUSH2 0x2EC0 JUMPI INVALID JUMPDEST PUSH1 0x20 MUL PUSH1 0x20 ADD ADD MLOAD PUSH1 0x40 MLOAD DUP4 PUSH4 0xFFFFFFFF AND PUSH1 0xE0 SHL DUP2 MSTORE PUSH1 0x4 ADD DUP1 DUP4 PUSH1 0x1 PUSH1 0x1 PUSH1 0xA0 SHL SUB AND PUSH1 0x1 PUSH1 0x1 PUSH1 0xA0 SHL SUB AND DUP2 MSTORE PUSH1 0x20 ADD DUP3 DUP2 MSTORE PUSH1 0x20 ADD SWAP3 POP POP POP PUSH1 0x20 PUSH1 0x40 MLOAD DUP1 DUP4 SUB DUP2 PUSH1 0x0 DUP8 DUP1 EXTCODESIZE ISZERO DUP1 ISZERO PUSH2 0x2F17 JUMPI PUSH1 0x0 DUP1 REVERT JUMPDEST POP GAS CALL ISZERO DUP1 ISZERO PUSH2 0x2F2B JUMPI RETURNDATASIZE PUSH1 0x0 DUP1 RETURNDATACOPY RETURNDATASIZE PUSH1 0x0 REVERT JUMPDEST POP POP POP POP PUSH1 0x40 MLOAD RETURNDATASIZE PUSH1 0x20 DUP2 LT ISZERO PUSH2 0x2F41 JUMPI PUSH1 0x0 DUP1 REVERT JUMPDEST POP MLOAD PUSH2 0x2F49 JUMPI INVALID JUMPDEST PUSH2 0x2F88 DUP3 DUP8 DUP8 DUP1 DUP1 PUSH1 0x20 MUL PUSH1 0x20 ADD PUSH1 0x40 MLOAD SWAP1 DUP2 ADD PUSH1 0x40 MSTORE DUP1 SWAP4 SWAP3 SWAP2 SWAP1 DUP2 DUP2 MSTORE PUSH1 0x20 ADD DUP4 DUP4 PUSH1 0x20 MUL DUP1 DUP3 DUP5 CALLDATACOPY PUSH1 0x0 SWAP3 ADD SWAP2 SWAP1 SWAP2 MSTORE POP DUP10 SWAP3 POP PUSH2 0x367F SWAP2 POP POP JUMP JUMPDEST DUP2 PUSH1 0x0 DUP2 MLOAD DUP2 LT PUSH2 0x2F95 JUMPI INVALID JUMPDEST PUSH1 0x20 MUL PUSH1 0x20 ADD ADD MLOAD CALLVALUE GT ISZERO PUSH2 0x1E6A JUMPI PUSH2 0x1E6A CALLER DUP4 PUSH1 0x0 DUP2 MLOAD DUP2 LT PUSH2 0x2FB5 JUMPI INVALID JUMPDEST PUSH1 0x20 MUL PUSH1 0x20 ADD ADD MLOAD CALLVALUE SUB PUSH2 0x312E JUMP JUMPDEST PUSH1 0x40 DUP1 MLOAD PUSH1 0x1 PUSH1 0x1 PUSH1 0xA0 SHL SUB DUP5 DUP2 AND PUSH1 0x24 DUP4 ADD MSTORE PUSH1 0x44 DUP1 DUP4 ADD DUP6 SWAP1 MSTORE DUP4 MLOAD DUP1 DUP5 SUB SWAP1 SWAP2 ADD DUP2 MSTORE PUSH1 0x64 SWAP1 SWAP3 ADD DUP4 MSTORE PUSH1 0x20 DUP3 ADD DUP1 MLOAD PUSH1 0x1 PUSH1 0x1 PUSH1 0xE0 SHL SUB AND PUSH4 0xA9059CBB PUSH1 0xE0 SHL OR DUP2 MSTORE SWAP3 MLOAD DUP3 MLOAD PUSH1 0x0 SWAP5 PUSH1 0x60 SWAP5 SWAP4 DUP10 AND SWAP4 SWAP3 SWAP2 DUP3 SWAP2 SWAP1 DUP1 DUP4 DUP4 JUMPDEST PUSH1 0x20 DUP4 LT PUSH2 0x3041 JUMPI DUP1 MLOAD DUP3 MSTORE PUSH1 0x1F NOT SWAP1 SWAP3 ADD SWAP2 PUSH1 0x20 SWAP2 DUP3 ADD SWAP2 ADD PUSH2 0x3022 JUMP JUMPDEST PUSH1 0x1 DUP4 PUSH1 0x20 SUB PUSH2 0x100 EXP SUB DUP1 NOT DUP3 MLOAD AND DUP2 DUP5 MLOAD AND DUP1 DUP3 OR DUP6 MSTORE POP POP POP POP POP POP SWAP1 POP ADD SWAP2 POP POP PUSH1 0x0 PUSH1 0x40 MLOAD DUP1 DUP4 SUB DUP2 PUSH1 0x0 DUP7 GAS CALL SWAP2 POP POP RETURNDATASIZE DUP1 PUSH1 0x0 DUP2 EQ PUSH2 0x30A3 JUMPI PUSH1 0x40 MLOAD SWAP2 POP PUSH1 0x1F NOT PUSH1 0x3F RETURNDATASIZE ADD AND DUP3 ADD PUSH1 0x40 MSTORE RETURNDATASIZE DUP3 MSTORE RETURNDATASIZE PUSH1 0x0 PUSH1 0x20 DUP5 ADD RETURNDATACOPY PUSH2 0x30A8 JUMP JUMPDEST PUSH1 0x60 SWAP2 POP JUMPDEST POP SWAP2 POP SWAP2 POP DUP2 DUP1 ISZERO PUSH2 0x30D6 JUMPI POP DUP1 MLOAD ISZERO DUP1 PUSH2 0x30D6 JUMPI POP DUP1 DUP1 PUSH1 0x20 ADD SWAP1 MLOAD PUSH1 0x20 DUP2 LT ISZERO PUSH2 0x30D3 JUMPI PUSH1 0x0 DUP1 REVERT JUMPDEST POP MLOAD JUMPDEST PUSH2 0x3127 JUMPI PUSH1 0x40 DUP1 MLOAD PUSH3 0x461BCD PUSH1 0xE5 SHL DUP2 MSTORE PUSH1 0x20 PUSH1 0x4 DUP3 ADD MSTORE PUSH1 0x1F PUSH1 0x24 DUP3 ADD MSTORE PUSH32 0x5472616E7366657248656C7065723A205452414E534645525F4641494C454400 PUSH1 0x44 DUP3 ADD MSTORE SWAP1 MLOAD SWAP1 DUP2 SWAP1 SUB PUSH1 0x64 ADD SWAP1 REVERT JUMPDEST POP POP POP POP POP JUMP JUMPDEST PUSH1 0x40 DUP1 MLOAD PUSH1 0x0 DUP1 DUP3 MSTORE PUSH1 0x20 DUP3 ADD SWAP1 SWAP3 MSTORE PUSH1 0x1 PUSH1 0x1 PUSH1 0xA0 SHL SUB DUP5 AND SWAP1 DUP4 SWAP1 PUSH1 0x40 MLOAD DUP1 DUP3 DUP1 MLOAD SWAP1 PUSH1 0x20 ADD SWAP1 DUP1 DUP4 DUP4 JUMPDEST PUSH1 0x20 DUP4 LT PUSH2 0x317A JUMPI DUP1 MLOAD DUP3 MSTORE PUSH1 0x1F NOT SWAP1 SWAP3 ADD SWAP2 PUSH1 0x20 SWAP2 DUP3 ADD SWAP2 ADD PUSH2 0x315B JUMP JUMPDEST PUSH1 0x1 DUP4 PUSH1 0x20 SUB PUSH2 0x100 EXP SUB DUP1 NOT DUP3 MLOAD AND DUP2 DUP5 MLOAD AND DUP1 DUP3 OR DUP6 MSTORE POP POP POP POP POP POP SWAP1 POP ADD SWAP2 POP POP PUSH1 0x0 PUSH1 0x40 MLOAD DUP1 DUP4 SUB DUP2 DUP6 DUP8 GAS CALL SWAP3 POP POP POP RETURNDATASIZE DUP1 PUSH1 0x0 DUP2 EQ PUSH2 0x31DC JUMPI PUSH1 0x40 MLOAD SWAP2 POP PUSH1 0x1F NOT PUSH1 0x3F RETURNDATASIZE ADD AND DUP3 ADD PUSH1 0x40 MSTORE RETURNDATASIZE DUP3 MSTORE RETURNDATASIZE PUSH1 0x0 PUSH1 0x20 DUP5 ADD RETURNDATACOPY PUSH2 0x31E1 JUMP JUMPDEST PUSH1 0x60 SWAP2 POP JUMPDEST POP POP SWAP1 POP DUP1 PUSH2 0x3221 JUMPI PUSH1 0x40 MLOAD PUSH3 0x461BCD PUSH1 0xE5 SHL DUP2 MSTORE PUSH1 0x4 ADD DUP1 DUP1 PUSH1 0x20 ADD DUP3 DUP2 SUB DUP3 MSTORE PUSH1 0x23 DUP2 MSTORE PUSH1 0x20 ADD DUP1 PUSH2 0x44F2 PUSH1 0x23 SWAP2 CODECOPY PUSH1 0x40 ADD SWAP2 POP POP PUSH1 0x40 MLOAD DUP1 SWAP2 SUB SWAP1 REVERT JUMPDEST POP POP POP JUMP JUMPDEST PUSH1 0x0 DUP1 DUP5 GT PUSH2 0x3266 JUMPI PUSH1 0x40 MLOAD PUSH3 0x461BCD PUSH1 0xE5 SHL DUP2 MSTORE PUSH1 0x4 ADD DUP1 DUP1 PUSH1 0x20 ADD DUP3 DUP2 SUB DUP3 MSTORE PUSH1 0x29 DUP2 MSTORE PUSH1 0x20 ADD DUP1 PUSH2 0x43CC PUSH1 0x29 SWAP2 CODECOPY PUSH1 0x40 ADD SWAP2 POP POP PUSH1 0x40 MLOAD DUP1 SWAP2 SUB SWAP1 REVERT JUMPDEST PUSH1 0x0 DUP4 GT DUP1 ISZERO PUSH2 0x3276 JUMPI POP PUSH1 0x0 DUP3 GT JUMPDEST PUSH2 0x32B1 JUMPI PUSH1 0x40 MLOAD PUSH3 0x461BCD PUSH1 0xE5 SHL DUP2 MSTORE PUSH1 0x4 ADD DUP1 DUP1 PUSH1 0x20 ADD DUP3 DUP2 SUB DUP3 MSTORE PUSH1 0x26 DUP2 MSTORE PUSH1 0x20 ADD DUP1 PUSH2 0x453A PUSH1 0x26 SWAP2 CODECOPY PUSH1 0x40 ADD SWAP2 POP POP PUSH1 0x40 MLOAD DUP1 SWAP2 SUB SWAP1 REVERT JUMPDEST PUSH1 0x0 PUSH2 0x32C5 DUP6 PUSH2 0x26F7 PUSH4 0xFFFFFFFF PUSH2 0x4246 AND JUMP JUMPDEST SWAP1 POP PUSH1 0x0 PUSH2 0x32D9 DUP3 DUP6 PUSH4 0xFFFFFFFF PUSH2 0x4246 AND JUMP JUMPDEST SWAP1 POP PUSH1 0x0 PUSH2 0x32FF DUP4 PUSH2 0x32F3 DUP9 PUSH2 0x2710 PUSH4 0xFFFFFFFF PUSH2 0x4246 AND JUMP JUMPDEST SWAP1 PUSH4 0xFFFFFFFF PUSH2 0x42A9 AND JUMP JUMPDEST SWAP1 POP DUP1 DUP3 DUP2 PUSH2 0x330A JUMPI INVALID JUMPDEST DIV SWAP8 SWAP7 POP POP POP POP POP POP POP JUMP JUMPDEST PUSH1 0x60 PUSH1 0x2 DUP3 MLOAD LT ISZERO PUSH2 0x336F JUMPI PUSH1 0x40 DUP1 MLOAD PUSH3 0x461BCD PUSH1 0xE5 SHL DUP2 MSTORE PUSH1 0x20 PUSH1 0x4 DUP3 ADD MSTORE PUSH1 0x1C PUSH1 0x24 DUP3 ADD MSTORE PUSH32 0x50616E63616B654C6962726172793A20494E56414C49445F5041544800000000 PUSH1 0x44 DUP3 ADD MSTORE SWAP1 MLOAD SWAP1 DUP2 SWAP1 SUB PUSH1 0x64 ADD SWAP1 REVERT JUMPDEST DUP2 MLOAD PUSH8 0xFFFFFFFFFFFFFFFF DUP2 GT DUP1 ISZERO PUSH2 0x3387 JUMPI PUSH1 0x0 DUP1 REVERT JUMPDEST POP PUSH1 0x40 MLOAD SWAP1 DUP1 DUP3 MSTORE DUP1 PUSH1 0x20 MUL PUSH1 0x20 ADD DUP3 ADD PUSH1 0x40 MSTORE DUP1 ISZERO PUSH2 0x33B1 JUMPI DUP2 PUSH1 0x20 ADD PUSH1 0x20 DUP3 MUL DUP1 CALLDATASIZE DUP4 CALLDATACOPY ADD SWAP1 POP JUMPDEST POP SWAP1 POP DUP3 DUP2 PUSH1 0x0 DUP2 MLOAD DUP2 LT PUSH2 0x33C2 JUMPI INVALID JUMPDEST PUSH1 0x20 MUL PUSH1 0x20 ADD ADD DUP2 DUP2 MSTORE POP POP PUSH1 0x0 JUMPDEST PUSH1 0x1 DUP4 MLOAD SUB DUP2 LT ISZERO PUSH2 0x345A JUMPI PUSH1 0x0 DUP1 PUSH2 0x3414 DUP8 DUP7 DUP6 DUP2 MLOAD DUP2 LT PUSH2 0x33F0 JUMPI INVALID JUMPDEST PUSH1 0x20 MUL PUSH1 0x20 ADD ADD MLOAD DUP8 DUP7 PUSH1 0x1 ADD DUP2 MLOAD DUP2 LT PUSH2 0x3407 JUMPI INVALID JUMPDEST PUSH1 0x20 MUL PUSH1 0x20 ADD ADD MLOAD PUSH2 0x42F8 JUMP JUMPDEST SWAP2 POP SWAP2 POP PUSH2 0x3436 DUP5 DUP5 DUP2 MLOAD DUP2 LT PUSH2 0x3427 JUMPI INVALID JUMPDEST PUSH1 0x20 MUL PUSH1 0x20 ADD ADD MLOAD DUP4 DUP4 PUSH2 0x3226 JUMP JUMPDEST DUP5 DUP5 PUSH1 0x1 ADD DUP2 MLOAD DUP2 LT PUSH2 0x3445 JUMPI INVALID JUMPDEST PUSH1 0x20 SWAP1 DUP2 MUL SWAP2 SWAP1 SWAP2 ADD ADD MSTORE POP POP PUSH1 0x1 ADD PUSH2 0x33D1 JUMP JUMPDEST POP SWAP4 SWAP3 POP POP POP JUMP JUMPDEST PUSH1 0x0 DUP1 PUSH1 0x0 PUSH2 0x3471 DUP6 DUP6 PUSH2 0x3EF4 JUMP JUMPDEST PUSH1 0x40 DUP1 MLOAD PUSH12 0xFFFFFFFFFFFFFFFFFFFFFFFF NOT PUSH1 0x60 SWAP5 DUP6 SHL DUP2 AND PUSH1 0x20 DUP1 DUP5 ADD SWAP2 SWAP1 SWAP2 MSTORE SWAP4 DUP6 SHL DUP2 AND PUSH1 0x34 DUP4 ADD MSTORE DUP3 MLOAD PUSH1 0x28 DUP2 DUP5 SUB ADD DUP2 MSTORE PUSH1 0x48 DUP4 ADD DUP5 MSTORE DUP1 MLOAD SWAP1 DUP6 ADD KECCAK256 PUSH1 0x1 PUSH1 0x1 PUSH1 0xF8 SHL SUB NOT PUSH1 0x68 DUP5 ADD MSTORE SWAP11 SWAP1 SWAP5 SHL SWAP1 SWAP4 AND PUSH1 0x69 DUP5 ADD MSTORE PUSH1 0x7D DUP4 ADD SWAP9 SWAP1 SWAP9 MSTORE PUSH32 0xA4C9A1B6602CAF0BBC0C73BC9D0AA719818F6239E64AE55724FB635C6C65EF21 PUSH1 0x9D DUP1 DUP5 ADD SWAP2 SWAP1 SWAP2 MSTORE DUP9 MLOAD DUP1 DUP5 SUB SWAP1 SWAP2 ADD DUP2 MSTORE PUSH1 0xBD SWAP1 SWAP3 ADD SWAP1 SWAP8 MSTORE DUP1 MLOAD SWAP7 ADD SWAP6 SWAP1 SWAP6 KECCAK256 SWAP6 SWAP5 POP POP POP POP POP JUMP JUMPDEST PUSH1 0x40 DUP1 MLOAD PUSH1 0x1 PUSH1 0x1 PUSH1 0xA0 SHL SUB DUP6 DUP2 AND PUSH1 0x24 DUP4 ADD MSTORE DUP5 DUP2 AND PUSH1 0x44 DUP4 ADD MSTORE PUSH1 0x64 DUP1 DUP4 ADD DUP6 SWAP1 MSTORE DUP4 MLOAD DUP1 DUP5 SUB SWAP1 SWAP2 ADD DUP2 MSTORE PUSH1 0x84 SWAP1 SWAP3 ADD DUP4 MSTORE PUSH1 0x20 DUP3 ADD DUP1 MLOAD PUSH1 0x1 PUSH1 0x1 PUSH1 0xE0 SHL SUB AND PUSH4 0x23B872DD PUSH1 0xE0 SHL OR DUP2 MSTORE SWAP3 MLOAD DUP3 MLOAD PUSH1 0x0 SWAP5 PUSH1 0x60 SWAP5 SWAP4 DUP11 AND SWAP4 SWAP3 SWAP2 DUP3 SWAP2 SWAP1 DUP1 DUP4 DUP4 JUMPDEST PUSH1 0x20 DUP4 LT PUSH2 0x35A7 JUMPI DUP1 MLOAD DUP3 MSTORE PUSH1 0x1F NOT SWAP1 SWAP3 ADD SWAP2 PUSH1 0x20 SWAP2 DUP3 ADD SWAP2 ADD PUSH2 0x3588 JUMP JUMPDEST PUSH1 0x1 DUP4 PUSH1 0x20 SUB PUSH2 0x100 EXP SUB DUP1 NOT DUP3 MLOAD AND DUP2 DUP5 MLOAD AND DUP1 DUP3 OR DUP6 MSTORE POP POP POP POP POP POP SWAP1 POP ADD SWAP2 POP POP PUSH1 0x0 PUSH1 0x40 MLOAD DUP1 DUP4 SUB DUP2 PUSH1 0x0 DUP7 GAS CALL SWAP2 POP POP RETURNDATASIZE DUP1 PUSH1 0x0 DUP2 EQ PUSH2 0x3609 JUMPI PUSH1 0x40 MLOAD SWAP2 POP PUSH1 0x1F NOT PUSH1 0x3F RETURNDATASIZE ADD AND DUP3 ADD PUSH1 0x40 MSTORE RETURNDATASIZE DUP3 MSTORE RETURNDATASIZE PUSH1 0x0 PUSH1 0x20 DUP5 ADD RETURNDATACOPY PUSH2 0x360E JUMP JUMPDEST PUSH1 0x60 SWAP2 POP JUMPDEST POP SWAP2 POP SWAP2 POP DUP2 DUP1 ISZERO PUSH2 0x363C JUMPI POP DUP1 MLOAD ISZERO DUP1 PUSH2 0x363C JUMPI POP DUP1 DUP1 PUSH1 0x20 ADD SWAP1 MLOAD PUSH1 0x20 DUP2 LT ISZERO PUSH2 0x3639 JUMPI PUSH1 0x0 DUP1 REVERT JUMPDEST POP MLOAD JUMPDEST PUSH2 0x3677 JUMPI PUSH1 0x40 MLOAD PUSH3 0x461BCD PUSH1 0xE5 SHL DUP2 MSTORE PUSH1 0x4 ADD DUP1 DUP1 PUSH1 0x20 ADD DUP3 DUP2 SUB DUP3 MSTORE PUSH1 0x24 DUP2 MSTORE PUSH1 0x20 ADD DUP1 PUSH2 0x4560 PUSH1 0x24 SWAP2 CODECOPY PUSH1 0x40 ADD SWAP2 POP POP PUSH1 0x40 MLOAD DUP1 SWAP2 SUB SWAP1 REVERT JUMPDEST POP POP POP POP POP POP JUMP JUMPDEST PUSH1 0x0 JUMPDEST PUSH1 0x1 DUP4 MLOAD SUB DUP2 LT ISZERO PUSH2 0x38BF JUMPI PUSH1 0x0 DUP1 DUP5 DUP4 DUP2 MLOAD DUP2 LT PUSH2 0x369D JUMPI INVALID JUMPDEST PUSH1 0x20 MUL PUSH1 0x20 ADD ADD MLOAD DUP6 DUP5 PUSH1 0x1 ADD DUP2 MLOAD DUP2 LT PUSH2 0x36B4 JUMPI INVALID JUMPDEST PUSH1 0x20 MUL PUSH1 0x20 ADD ADD MLOAD SWAP2 POP SWAP2 POP PUSH1 0x0 PUSH2 0x36CC DUP4 DUP4 PUSH2 0x3EF4 JUMP JUMPDEST POP SWAP1 POP PUSH1 0x0 DUP8 DUP6 PUSH1 0x1 ADD DUP2 MLOAD DUP2 LT PUSH2 0x36E0 JUMPI INVALID JUMPDEST PUSH1 0x20 MUL PUSH1 0x20 ADD ADD MLOAD SWAP1 POP PUSH1 0x0 DUP1 DUP4 PUSH1 0x1 PUSH1 0x1 PUSH1 0xA0 SHL SUB AND DUP7 PUSH1 0x1 PUSH1 0x1 PUSH1 0xA0 SHL SUB AND EQ PUSH2 0x370E JUMPI DUP3 PUSH1 0x0 PUSH2 0x3712 JUMP JUMPDEST PUSH1 0x0 DUP4 JUMPDEST SWAP2 POP SWAP2 POP PUSH1 0x0 PUSH1 0x2 DUP11 MLOAD SUB DUP9 LT PUSH2 0x3729 JUMPI DUP9 PUSH2 0x376A JUMP JUMPDEST PUSH2 0x376A PUSH32 0x0 DUP8 DUP13 DUP12 PUSH1 0x2 ADD DUP2 MLOAD DUP2 LT PUSH2 0x375D JUMPI INVALID JUMPDEST PUSH1 0x20 MUL PUSH1 0x20 ADD ADD MLOAD PUSH2 0x3462 JUMP JUMPDEST SWAP1 POP PUSH2 0x3797 PUSH32 0x0 DUP9 DUP9 PUSH2 0x3462 JUMP JUMPDEST PUSH1 0x1 PUSH1 0x1 PUSH1 0xA0 SHL SUB AND PUSH4 0x22C0D9F DUP5 DUP5 DUP5 PUSH1 0x0 PUSH1 0x40 MLOAD SWAP1 DUP1 DUP3 MSTORE DUP1 PUSH1 0x1F ADD PUSH1 0x1F NOT AND PUSH1 0x20 ADD DUP3 ADD PUSH1 0x40 MSTORE DUP1 ISZERO PUSH2 0x37D4 JUMPI PUSH1 0x20 DUP3 ADD DUP2 DUP1 CALLDATASIZE DUP4 CALLDATACOPY ADD SWAP1 POP JUMPDEST POP PUSH1 0x40 MLOAD DUP6 PUSH4 0xFFFFFFFF AND PUSH1 0xE0 SHL DUP2 MSTORE PUSH1 0x4 ADD DUP1 DUP6 DUP2 MSTORE PUSH1 0x20 ADD DUP5 DUP2 MSTORE PUSH1 0x20 ADD DUP4 PUSH1 0x1 PUSH1 0x1 PUSH1 0xA0 SHL SUB AND PUSH1 0x1 PUSH1 0x1 PUSH1 0xA0 SHL SUB AND DUP2 MSTORE PUSH1 0x20 ADD DUP1 PUSH1 0x20 ADD DUP3 DUP2 SUB DUP3 MSTORE DUP4 DUP2 DUP2 MLOAD DUP2 MSTORE PUSH1 0x20 ADD SWAP2 POP DUP1 MLOAD SWAP1 PUSH1 0x20 ADD SWAP1 DUP1 DUP4 DUP4 PUSH1 0x0 JUMPDEST DUP4 DUP2 LT ISZERO PUSH2 0x3845 JUMPI DUP2 DUP2 ADD MLOAD DUP4 DUP3 ADD MSTORE PUSH1 0x20 ADD PUSH2 0x382D JUMP JUMPDEST POP POP POP POP SWAP1 POP SWAP1 DUP2 ADD SWAP1 PUSH1 0x1F AND DUP1 ISZERO PUSH2 0x3872 JUMPI DUP1 DUP3 SUB DUP1 MLOAD PUSH1 0x1 DUP4 PUSH1 0x20 SUB PUSH2 0x100 EXP SUB NOT AND DUP2 MSTORE PUSH1 0x20 ADD SWAP2 POP JUMPDEST POP SWAP6 POP POP POP POP POP POP PUSH1 0x0 PUSH1 0x40 MLOAD DUP1 DUP4 SUB DUP2 PUSH1 0x0 DUP8 DUP1 EXTCODESIZE ISZERO DUP1 ISZERO PUSH2 0x3894 JUMPI PUSH1 0x0 DUP1 REVERT JUMPDEST POP GAS CALL ISZERO DUP1 ISZERO PUSH2 0x38A8 JUMPI RETURNDATASIZE PUSH1 0x0 DUP1 RETURNDATACOPY RETURNDATASIZE PUSH1 0x0 REVERT JUMPDEST POP POP PUSH1 0x1 SWAP1 SWAP10 ADD SWAP9 POP PUSH2 0x3682 SWAP8 POP POP POP POP POP POP POP POP JUMP JUMPDEST POP POP POP POP JUMP JUMPDEST PUSH1 0x60 PUSH1 0x2 DUP3 MLOAD LT ISZERO PUSH2 0x391E JUMPI PUSH1 0x40 DUP1 MLOAD PUSH3 0x461BCD PUSH1 0xE5 SHL DUP2 MSTORE PUSH1 0x20 PUSH1 0x4 DUP3 ADD MSTORE PUSH1 0x1C PUSH1 0x24 DUP3 ADD MSTORE PUSH32 0x50616E63616B654C6962726172793A20494E56414C49445F5041544800000000 PUSH1 0x44 DUP3 ADD MSTORE SWAP1 MLOAD SWAP1 DUP2 SWAP1 SUB PUSH1 0x64 ADD SWAP1 REVERT JUMPDEST DUP2 MLOAD PUSH8 0xFFFFFFFFFFFFFFFF DUP2 GT DUP1 ISZERO PUSH2 0x3936 JUMPI PUSH1 0x0 DUP1 REVERT JUMPDEST POP PUSH1 0x40 MLOAD SWAP1 DUP1 DUP3 MSTORE DUP1 PUSH1 0x20 MUL PUSH1 0x20 ADD DUP3 ADD PUSH1 0x40 MSTORE DUP1 ISZERO PUSH2 0x3960 JUMPI DUP2 PUSH1 0x20 ADD PUSH1 0x20 DUP3 MUL DUP1 CALLDATASIZE DUP4 CALLDATACOPY ADD SWAP1 POP JUMPDEST POP SWAP1 POP DUP3 DUP2 PUSH1 0x1 DUP4 MLOAD SUB DUP2 MLOAD DUP2 LT PUSH2 0x3974 JUMPI INVALID JUMPDEST PUSH1 0x20 SWAP1 DUP2 MUL SWAP2 SWAP1 SWAP2 ADD ADD MSTORE DUP2 MLOAD PUSH1 0x0 NOT ADD JUMPDEST DUP1 ISZERO PUSH2 0x345A JUMPI PUSH1 0x0 DUP1 PUSH2 0x39B6 DUP8 DUP7 PUSH1 0x1 DUP7 SUB DUP2 MLOAD DUP2 LT PUSH2 0x39A2 JUMPI INVALID JUMPDEST PUSH1 0x20 MUL PUSH1 0x20 ADD ADD MLOAD DUP8 DUP7 DUP2 MLOAD DUP2 LT PUSH2 0x3407 JUMPI INVALID JUMPDEST SWAP2 POP SWAP2 POP PUSH2 0x39D8 DUP5 DUP5 DUP2 MLOAD DUP2 LT PUSH2 0x39C9 JUMPI INVALID JUMPDEST PUSH1 0x20 MUL PUSH1 0x20 ADD ADD MLOAD DUP4 DUP4 PUSH2 0x3D58 JUMP JUMPDEST DUP5 PUSH1 0x1 DUP6 SUB DUP2 MLOAD DUP2 LT PUSH2 0x39E7 JUMPI INVALID JUMPDEST PUSH1 0x20 SWAP1 DUP2 MUL SWAP2 SWAP1 SWAP2 ADD ADD MSTORE POP POP PUSH1 0x0 NOT ADD PUSH2 0x3986 JUMP JUMPDEST PUSH1 0x0 JUMPDEST PUSH1 0x1 DUP4 MLOAD SUB DUP2 LT ISZERO PUSH2 0x3221 JUMPI PUSH1 0x0 DUP1 DUP5 DUP4 DUP2 MLOAD DUP2 LT PUSH2 0x3A1B JUMPI INVALID JUMPDEST PUSH1 0x20 MUL PUSH1 0x20 ADD ADD MLOAD DUP6 DUP5 PUSH1 0x1 ADD DUP2 MLOAD DUP2 LT PUSH2 0x3A32 JUMPI INVALID JUMPDEST PUSH1 0x20 MUL PUSH1 0x20 ADD ADD MLOAD SWAP2 POP SWAP2 POP PUSH1 0x0 PUSH2 0x3A4A DUP4 DUP4 PUSH2 0x3EF4 JUMP JUMPDEST POP SWAP1 POP PUSH1 0x0 PUSH2 0x3A7A PUSH32 0x0 DUP6 DUP6 PUSH2 0x3462 JUMP JUMPDEST SWAP1 POP PUSH1 0x0 DUP1 PUSH1 0x0 DUP1 DUP5 PUSH1 0x1 PUSH1 0x1 PUSH1 0xA0 SHL SUB AND PUSH4 0x902F1AC PUSH1 0x40 MLOAD DUP2 PUSH4 0xFFFFFFFF AND PUSH1 0xE0 SHL DUP2 MSTORE PUSH1 0x4 ADD PUSH1 0x60 PUSH1 0x40 MLOAD DUP1 DUP4 SUB DUP2 DUP7 DUP1 EXTCODESIZE ISZERO DUP1 ISZERO PUSH2 0x3ABB JUMPI PUSH1 0x0 DUP1 REVERT JUMPDEST POP GAS STATICCALL ISZERO DUP1 ISZERO PUSH2 0x3ACF JUMPI RETURNDATASIZE PUSH1 0x0 DUP1 RETURNDATACOPY RETURNDATASIZE PUSH1 0x0 REVERT JUMPDEST POP POP POP POP PUSH1 0x40 MLOAD RETURNDATASIZE PUSH1 0x60 DUP2 LT ISZERO PUSH2 0x3AE5 JUMPI PUSH1 0x0 DUP1 REVERT JUMPDEST POP DUP1 MLOAD PUSH1 0x20 SWAP1 SWAP2 ADD MLOAD PUSH1 0x1 PUSH1 0x1 PUSH1 0x70 SHL SUB SWAP2 DUP3 AND SWAP4 POP AND SWAP1 POP PUSH1 0x0 DUP1 PUSH1 0x1 PUSH1 0x1 PUSH1 0xA0 SHL SUB DUP11 DUP2 AND SWAP1 DUP10 AND EQ PUSH2 0x3B1B JUMPI DUP3 DUP5 PUSH2 0x3B1E JUMP JUMPDEST DUP4 DUP4 JUMPDEST SWAP2 POP SWAP2 POP PUSH2 0x3B7C DUP3 DUP12 PUSH1 0x1 PUSH1 0x1 PUSH1 0xA0 SHL SUB AND PUSH4 0x70A08231 DUP11 PUSH1 0x40 MLOAD DUP3 PUSH4 0xFFFFFFFF AND PUSH1 0xE0 SHL DUP2 MSTORE PUSH1 0x4 ADD DUP1 DUP3 PUSH1 0x1 PUSH1 0x1 PUSH1 0xA0 SHL SUB AND PUSH1 0x1 PUSH1 0x1 PUSH1 0xA0 SHL SUB AND DUP2 MSTORE PUSH1 0x20 ADD SWAP2 POP POP PUSH1 0x20 PUSH1 0x40 MLOAD DUP1 DUP4 SUB DUP2 DUP7 DUP1 EXTCODESIZE ISZERO DUP1 ISZERO PUSH2 0x181E JUMPI PUSH1 0x0 DUP1 REVERT JUMPDEST SWAP6 POP PUSH2 0x3B89 DUP7 DUP4 DUP4 PUSH2 0x3226 JUMP JUMPDEST SWAP5 POP POP POP POP POP PUSH1 0x0 DUP1 DUP6 PUSH1 0x1 PUSH1 0x1 PUSH1 0xA0 SHL SUB AND DUP9 PUSH1 0x1 PUSH1 0x1 PUSH1 0xA0 SHL SUB AND EQ PUSH2 0x3BB3 JUMPI DUP3 PUSH1 0x0 PUSH2 0x3BB7 JUMP JUMPDEST PUSH1 0x0 DUP4 JUMPDEST SWAP2 POP SWAP2 POP PUSH1 0x0 PUSH1 0x2 DUP13 MLOAD SUB DUP11 LT PUSH2 0x3BCE JUMPI DUP11 PUSH2 0x3C02 JUMP JUMPDEST PUSH2 0x3C02 PUSH32 0x0 DUP10 DUP15 DUP14 PUSH1 0x2 ADD DUP2 MLOAD DUP2 LT PUSH2 0x375D JUMPI INVALID JUMPDEST PUSH1 0x40 DUP1 MLOAD PUSH1 0x0 DUP1 DUP3 MSTORE PUSH1 0x20 DUP3 ADD SWAP3 DUP4 SWAP1 MSTORE PUSH4 0x22C0D9F PUSH1 0xE0 SHL DUP4 MSTORE PUSH1 0x24 DUP3 ADD DUP8 DUP2 MSTORE PUSH1 0x44 DUP4 ADD DUP8 SWAP1 MSTORE PUSH1 0x1 PUSH1 0x1 PUSH1 0xA0 SHL SUB DUP1 DUP7 AND PUSH1 0x64 DUP6 ADD MSTORE PUSH1 0x80 PUSH1 0x84 DUP6 ADD SWAP1 DUP2 MSTORE DUP5 MLOAD PUSH1 0xA4 DUP7 ADD DUP2 SWAP1 MSTORE SWAP7 SWAP8 POP SWAP1 DUP13 AND SWAP6 PUSH4 0x22C0D9F SWAP6 DUP11 SWAP6 DUP11 SWAP6 DUP11 SWAP6 SWAP2 SWAP5 SWAP2 SWAP4 SWAP2 SWAP3 PUSH1 0xC4 DUP7 ADD SWAP3 SWAP1 SWAP2 DUP2 SWAP1 DUP5 SWAP1 DUP5 SWAP1 JUMPDEST DUP4 DUP2 LT ISZERO PUSH2 0x3C8C JUMPI DUP2 DUP2 ADD MLOAD DUP4 DUP3 ADD MSTORE PUSH1 0x20 ADD PUSH2 0x3C74 JUMP JUMPDEST POP POP POP POP SWAP1 POP SWAP1 DUP2 ADD SWAP1 PUSH1 0x1F AND DUP1 ISZERO PUSH2 0x3CB9 JUMPI DUP1 DUP3 SUB DUP1 MLOAD PUSH1 0x1 DUP4 PUSH1 0x20 SUB PUSH2 0x100 EXP SUB NOT AND DUP2 MSTORE PUSH1 0x20 ADD SWAP2 POP JUMPDEST POP SWAP6 POP POP POP POP POP POP PUSH1 0x0 PUSH1 0x40 MLOAD DUP1 DUP4 SUB DUP2 PUSH1 0x0 DUP8 DUP1 EXTCODESIZE ISZERO DUP1 ISZERO PUSH2 0x3CDB JUMPI PUSH1 0x0 DUP1 REVERT JUMPDEST POP GAS CALL ISZERO DUP1 ISZERO PUSH2 0x3CEF JUMPI RETURNDATASIZE PUSH1 0x0 DUP1 RETURNDATACOPY RETURNDATASIZE PUSH1 0x0 REVERT JUMPDEST POP POP PUSH1 0x1 SWAP1 SWAP12 ADD SWAP11 POP PUSH2 0x3A00 SWAP10 POP POP POP POP POP POP POP POP POP POP JUMP JUMPDEST DUP1 DUP3 SUB DUP3 DUP2 GT ISZERO PUSH2 0x1123 JUMPI PUSH1 0x40 DUP1 MLOAD PUSH3 0x461BCD PUSH1 0xE5 SHL DUP2 MSTORE PUSH1 0x20 PUSH1 0x4 DUP3 ADD MSTORE PUSH1 0x15 PUSH1 0x24 DUP3 ADD MSTORE PUSH21 0x64732D6D6174682D7375622D756E646572666C6F77 PUSH1 0x58 SHL PUSH1 0x44 DUP3 ADD MSTORE SWAP1 MLOAD SWAP1 DUP2 SWAP1 SUB PUSH1 0x64 ADD SWAP1 REVERT JUMPDEST PUSH1 0x0 DUP1 DUP5 GT PUSH2 0x3D98 JUMPI PUSH1 0x40 MLOAD PUSH3 0x461BCD PUSH1 0xE5 SHL DUP2 MSTORE PUSH1 0x4 ADD DUP1 DUP1 PUSH1 0x20 ADD DUP3 DUP2 SUB DUP3 MSTORE PUSH1 0x2A DUP2 MSTORE PUSH1 0x20 ADD DUP1 PUSH2 0x43F5 PUSH1 0x2A SWAP2 CODECOPY PUSH1 0x40 ADD SWAP2 POP POP PUSH1 0x40 MLOAD DUP1 SWAP2 SUB SWAP1 REVERT JUMPDEST PUSH1 0x0 DUP4 GT DUP1 ISZERO PUSH2 0x3DA8 JUMPI POP PUSH1 0x0 DUP3 GT JUMPDEST PUSH2 0x3DE3 JUMPI PUSH1 0x40 MLOAD PUSH3 0x461BCD PUSH1 0xE5 SHL DUP2 MSTORE PUSH1 0x4 ADD DUP1 DUP1 PUSH1 0x20 ADD DUP3 DUP2 SUB DUP3 MSTORE PUSH1 0x26 DUP2 MSTORE PUSH1 0x20 ADD DUP1 PUSH2 0x453A PUSH1 0x26 SWAP2 CODECOPY PUSH1 0x40 ADD SWAP2 POP POP PUSH1 0x40 MLOAD DUP1 SWAP2 SUB SWAP1 REVERT JUMPDEST PUSH1 0x0 PUSH2 0x3E07 PUSH2 0x2710 PUSH2 0x3DFB DUP7 DUP9 PUSH4 0xFFFFFFFF PUSH2 0x4246 AND JUMP JUMPDEST SWAP1 PUSH4 0xFFFFFFFF PUSH2 0x4246 AND JUMP JUMPDEST SWAP1 POP PUSH1 0x0 PUSH2 0x3E21 PUSH2 0x26F7 PUSH2 0x3DFB DUP7 DUP10 PUSH4 0xFFFFFFFF PUSH2 0x3D08 AND JUMP JUMPDEST SWAP1 POP PUSH2 0x3E3E PUSH1 0x1 DUP3 DUP5 DUP2 PUSH2 0x3E31 JUMPI INVALID JUMPDEST DIV SWAP1 PUSH4 0xFFFFFFFF PUSH2 0x42A9 AND JUMP JUMPDEST SWAP7 SWAP6 POP POP POP POP POP POP JUMP JUMPDEST PUSH1 0x0 DUP1 DUP5 GT PUSH2 0x3E88 JUMPI PUSH1 0x40 MLOAD PUSH3 0x461BCD PUSH1 0xE5 SHL DUP2 MSTORE PUSH1 0x4 ADD DUP1 DUP1 PUSH1 0x20 ADD DUP3 DUP2 SUB DUP3 MSTORE PUSH1 0x23 DUP2 MSTORE PUSH1 0x20 ADD DUP1 PUSH2 0x44CF PUSH1 0x23 SWAP2 CODECOPY PUSH1 0x40 ADD SWAP2 POP POP PUSH1 0x40 MLOAD DUP1 SWAP2 SUB SWAP1 REVERT JUMPDEST PUSH1 0x0 DUP4 GT DUP1 ISZERO PUSH2 0x3E98 JUMPI POP PUSH1 0x0 DUP3 GT JUMPDEST PUSH2 0x3ED3 JUMPI PUSH1 0x40 MLOAD PUSH3 0x461BCD PUSH1 0xE5 SHL DUP2 MSTORE PUSH1 0x4 ADD DUP1 DUP1 PUSH1 0x20 ADD DUP3 DUP2 SUB DUP3 MSTORE PUSH1 0x26 DUP2 MSTORE PUSH1 0x20 ADD DUP1 PUSH2 0x453A PUSH1 0x26 SWAP2 CODECOPY PUSH1 0x40 ADD SWAP2 POP POP PUSH1 0x40 MLOAD DUP1 SWAP2 SUB SWAP1 REVERT JUMPDEST DUP3 PUSH2 0x3EE4 DUP6 DUP5 PUSH4 0xFFFFFFFF PUSH2 0x4246 AND JUMP JUMPDEST DUP2 PUSH2 0x3EEB JUMPI INVALID JUMPDEST DIV SWAP5 SWAP4 POP POP POP POP JUMP JUMPDEST PUSH1 0x0 DUP1 DUP3 PUSH1 0x1 PUSH1 0x1 PUSH1 0xA0 SHL SUB AND DUP5 PUSH1 0x1 PUSH1 0x1 PUSH1 0xA0 SHL SUB AND EQ ISZERO PUSH2 0x3F48 JUMPI PUSH1 0x40 MLOAD PUSH3 0x461BCD PUSH1 0xE5 SHL DUP2 MSTORE PUSH1 0x4 ADD DUP1 DUP1 PUSH1 0x20 ADD DUP3 DUP2 SUB DUP3 MSTORE PUSH1 0x23 DUP2 MSTORE PUSH1 0x20 ADD DUP1 PUSH2 0x4468 PUSH1 0x23 SWAP2 CODECOPY PUSH1 0x40 ADD SWAP2 POP POP PUSH1 0x40 MLOAD DUP1 SWAP2 SUB SWAP1 REVERT JUMPDEST DUP3 PUSH1 0x1 PUSH1 0x1 PUSH1 0xA0 SHL SUB AND DUP5 PUSH1 0x1 PUSH1 0x1 PUSH1 0xA0 SHL SUB AND LT PUSH2 0x3F68 JUMPI DUP3 DUP5 PUSH2 0x3F6B JUMP JUMPDEST DUP4 DUP4 JUMPDEST SWAP1 SWAP3 POP SWAP1 POP PUSH1 0x1 PUSH1 0x1 PUSH1 0xA0 SHL SUB DUP3 AND PUSH2 0x3FCB JUMPI PUSH1 0x40 DUP1 MLOAD PUSH3 0x461BCD PUSH1 0xE5 SHL DUP2 MSTORE PUSH1 0x20 PUSH1 0x4 DUP3 ADD MSTORE PUSH1 0x1C PUSH1 0x24 DUP3 ADD MSTORE PUSH32 0x50616E63616B654C6962726172793A205A45524F5F4144445245535300000000 PUSH1 0x44 DUP3 ADD MSTORE SWAP1 MLOAD SWAP1 DUP2 SWAP1 SUB PUSH1 0x64 ADD SWAP1 REVERT JUMPDEST SWAP3 POP SWAP3 SWAP1 POP JUMP JUMPDEST PUSH1 0x40 DUP1 MLOAD PUSH4 0xE6A43905 PUSH1 0xE0 SHL DUP2 MSTORE PUSH1 0x1 PUSH1 0x1 PUSH1 0xA0 SHL SUB DUP9 DUP2 AND PUSH1 0x4 DUP4 ADD MSTORE DUP8 DUP2 AND PUSH1 0x24 DUP4 ADD MSTORE SWAP2 MLOAD PUSH1 0x0 SWAP3 DUP4 SWAP3 DUP4 SWAP3 PUSH32 0x0 SWAP1 SWAP3 AND SWAP2 PUSH4 0xE6A43905 SWAP2 PUSH1 0x44 DUP1 DUP3 ADD SWAP3 PUSH1 0x20 SWAP3 SWAP1 SWAP2 SWAP1 DUP3 SWAP1 SUB ADD DUP2 DUP7 DUP1 EXTCODESIZE ISZERO DUP1 ISZERO PUSH2 0x404C JUMPI PUSH1 0x0 DUP1 REVERT JUMPDEST POP GAS STATICCALL ISZERO DUP1 ISZERO PUSH2 0x4060 JUMPI RETURNDATASIZE PUSH1 0x0 DUP1 RETURNDATACOPY RETURNDATASIZE PUSH1 0x0 REVERT JUMPDEST POP POP POP POP PUSH1 0x40 MLOAD RETURNDATASIZE PUSH1 0x20 DUP2 LT ISZERO PUSH2 0x4076 JUMPI PUSH1 0x0 DUP1 REVERT JUMPDEST POP MLOAD PUSH1 0x1 PUSH1 0x1 PUSH1 0xA0 SHL SUB AND EQ ISZERO PUSH2 0x4129 JUMPI PUSH1 0x40 DUP1 MLOAD PUSH4 0x64E329CB PUSH1 0xE1 SHL DUP2 MSTORE PUSH1 0x1 PUSH1 0x1 PUSH1 0xA0 SHL SUB DUP11 DUP2 AND PUSH1 0x4 DUP4 ADD MSTORE DUP10 DUP2 AND PUSH1 0x24 DUP4 ADD MSTORE SWAP2 MLOAD PUSH32 0x0 SWAP1 SWAP3 AND SWAP2 PUSH4 0xC9C65396 SWAP2 PUSH1 0x44 DUP1 DUP3 ADD SWAP3 PUSH1 0x20 SWAP3 SWAP1 SWAP2 SWAP1 DUP3 SWAP1 SUB ADD DUP2 PUSH1 0x0 DUP8 DUP1 EXTCODESIZE ISZERO DUP1 ISZERO PUSH2 0x40FC JUMPI PUSH1 0x0 DUP1 REVERT JUMPDEST POP GAS CALL ISZERO DUP1 ISZERO PUSH2 0x4110 JUMPI RETURNDATASIZE PUSH1 0x0 DUP1 RETURNDATACOPY RETURNDATASIZE PUSH1 0x0 REVERT JUMPDEST POP POP POP POP PUSH1 0x40 MLOAD RETURNDATASIZE PUSH1 0x20 DUP2 LT ISZERO PUSH2 0x4126 JUMPI PUSH1 0x0 DUP1 REVERT JUMPDEST POP POP JUMPDEST PUSH1 0x0 DUP1 PUSH2 0x4157 PUSH32 0x0 DUP12 DUP12 PUSH2 0x42F8 JUMP JUMPDEST SWAP2 POP SWAP2 POP DUP2 PUSH1 0x0 EQ DUP1 ISZERO PUSH2 0x4169 JUMPI POP DUP1 ISZERO JUMPDEST ISZERO PUSH2 0x4179 JUMPI DUP8 SWAP4 POP DUP7 SWAP3 POP PUSH2 0x4239 JUMP JUMPDEST PUSH1 0x0 PUSH2 0x4186 DUP10 DUP5 DUP5 PUSH2 0x3E48 JUMP JUMPDEST SWAP1 POP DUP8 DUP2 GT PUSH2 0x41D9 JUMPI DUP6 DUP2 LT ISZERO PUSH2 0x41CE JUMPI PUSH1 0x40 MLOAD PUSH3 0x461BCD PUSH1 0xE5 SHL DUP2 MSTORE PUSH1 0x4 ADD DUP1 DUP1 PUSH1 0x20 ADD DUP3 DUP2 SUB DUP3 MSTORE PUSH1 0x24 DUP2 MSTORE PUSH1 0x20 ADD DUP1 PUSH2 0x4584 PUSH1 0x24 SWAP2 CODECOPY PUSH1 0x40 ADD SWAP2 POP POP PUSH1 0x40 MLOAD DUP1 SWAP2 SUB SWAP1 REVERT JUMPDEST DUP9 SWAP5 POP SWAP3 POP DUP3 PUSH2 0x4237 JUMP JUMPDEST PUSH1 0x0 PUSH2 0x41E6 DUP10 DUP5 DUP7 PUSH2 0x3E48 JUMP JUMPDEST SWAP1 POP DUP10 DUP2 GT ISZERO PUSH2 0x41F2 JUMPI INVALID JUMPDEST DUP8 DUP2 LT ISZERO PUSH2 0x4231 JUMPI PUSH1 0x40 MLOAD PUSH3 0x461BCD PUSH1 0xE5 SHL DUP2 MSTORE PUSH1 0x4 ADD DUP1 DUP1 PUSH1 0x20 ADD DUP3 DUP2 SUB DUP3 MSTORE PUSH1 0x24 DUP2 MSTORE PUSH1 0x20 ADD DUP1 PUSH2 0x44AB PUSH1 0x24 SWAP2 CODECOPY PUSH1 0x40 ADD SWAP2 POP POP PUSH1 0x40 MLOAD DUP1 SWAP2 SUB SWAP1 REVERT JUMPDEST SWAP5 POP DUP8 SWAP4 POP JUMPDEST POP JUMPDEST POP POP SWAP7 POP SWAP7 SWAP5 POP POP POP POP POP JUMP JUMPDEST PUSH1 0x0 DUP2 ISZERO DUP1 PUSH2 0x4261 JUMPI POP POP DUP1 DUP3 MUL DUP3 DUP3 DUP3 DUP2 PUSH2 0x425E JUMPI INVALID JUMPDEST DIV EQ JUMPDEST PUSH2 0x1123 JUMPI PUSH1 0x40 DUP1 MLOAD PUSH3 0x461BCD PUSH1 0xE5 SHL DUP2 MSTORE PUSH1 0x20 PUSH1 0x4 DUP3 ADD MSTORE PUSH1 0x14 PUSH1 0x24 DUP3 ADD MSTORE PUSH20 0x64732D6D6174682D6D756C2D6F766572666C6F77 PUSH1 0x60 SHL PUSH1 0x44 DUP3 ADD MSTORE SWAP1 MLOAD SWAP1 DUP2 SWAP1 SUB PUSH1 0x64 ADD SWAP1 REVERT JUMPDEST DUP1 DUP3 ADD DUP3 DUP2 LT ISZERO PUSH2 0x1123 JUMPI PUSH1 0x40 DUP1 MLOAD PUSH3 0x461BCD PUSH1 0xE5 SHL DUP2 MSTORE PUSH1 0x20 PUSH1 0x4 DUP3 ADD MSTORE PUSH1 0x14 PUSH1 0x24 DUP3 ADD MSTORE PUSH20 0x64732D6D6174682D6164642D6F766572666C6F77 PUSH1 0x60 SHL PUSH1 0x44 DUP3 ADD MSTORE SWAP1 MLOAD SWAP1 DUP2 SWAP1 SUB PUSH1 0x64 ADD SWAP1 REVERT JUMPDEST PUSH1 0x0 DUP1 PUSH1 0x0 PUSH2 0x4307 DUP6 DUP6 PUSH2 0x3EF4 JUMP JUMPDEST POP SWAP1 POP PUSH2 0x4315 DUP7 DUP7 DUP7 PUSH2 0x3462 JUMP JUMPDEST POP PUSH1 0x0 DUP1 PUSH2 0x4324 DUP9 DUP9 DUP9 PUSH2 0x3462 JUMP JUMPDEST PUSH1 0x1 PUSH1 0x1 PUSH1 0xA0 SHL SUB AND PUSH4 0x902F1AC PUSH1 0x40 MLOAD DUP2 PUSH4 0xFFFFFFFF AND PUSH1 0xE0 SHL DUP2 MSTORE PUSH1 0x4 ADD PUSH1 0x60 PUSH1 0x40 MLOAD DUP1 DUP4 SUB DUP2 DUP7 DUP1 EXTCODESIZE ISZERO DUP1 ISZERO PUSH2 0x435C JUMPI PUSH1 0x0 DUP1 REVERT JUMPDEST POP GAS STATICCALL ISZERO DUP1 ISZERO PUSH2 0x4370 JUMPI RETURNDATASIZE PUSH1 0x0 DUP1 RETURNDATACOPY RETURNDATASIZE PUSH1 0x0 REVERT JUMPDEST POP POP POP POP PUSH1 0x40 MLOAD RETURNDATASIZE PUSH1 0x60 DUP2 LT ISZERO PUSH2 0x4386 JUMPI PUSH1 0x0 DUP1 REVERT JUMPDEST POP DUP1 MLOAD PUSH1 0x20 SWAP1 SWAP2 ADD MLOAD PUSH1 0x1 PUSH1 0x1 PUSH1 0x70 SHL SUB SWAP2 DUP3 AND SWAP4 POP AND SWAP1 POP PUSH1 0x1 PUSH1 0x1 PUSH1 0xA0 SHL SUB DUP8 DUP2 AND SWAP1 DUP5 AND EQ PUSH2 0x43B9 JUMPI DUP1 DUP3 PUSH2 0x43BC JUMP JUMPDEST DUP2 DUP2 JUMPDEST SWAP1 SWAP10 SWAP1 SWAP9 POP SWAP7 POP POP POP POP POP POP POP JUMP INVALID POP PUSH2 0x6E63 PUSH2 0x6B65 0x4C PUSH10 0x62726172793A20494E53 SSTORE CHAINID CHAINID 0x49 NUMBER 0x49 GASLIMIT 0x4E SLOAD 0x5F 0x49 0x4E POP SSTORE SLOAD 0x5F COINBASE 0x4D 0x4F SSTORE 0x4E SLOAD POP PUSH2 0x6E63 PUSH2 0x6B65 0x4C PUSH10 0x62726172793A20494E53 SSTORE CHAINID CHAINID 0x49 NUMBER 0x49 GASLIMIT 0x4E SLOAD 0x5F 0x4F SSTORE SLOAD POP SSTORE SLOAD 0x5F COINBASE 0x4D 0x4F SSTORE 0x4E SLOAD POP PUSH2 0x6E63 PUSH2 0x6B65 MSTORE PUSH16 0x757465723A2045585049524544000000 STOP STOP STOP STOP STOP STOP STOP POP PUSH2 0x6E63 PUSH2 0x6B65 MSTORE PUSH16 0x757465723A20494E5355464649434945 0x4E SLOAD 0x5F 0x4F SSTORE SLOAD POP SSTORE SLOAD 0x5F COINBASE 0x4D 0x4F SSTORE 0x4E SLOAD POP PUSH2 0x6E63 PUSH2 0x6B65 0x4C PUSH10 0x62726172793A20494445 0x4E SLOAD 0x49 NUMBER COINBASE 0x4C 0x5F COINBASE DIFFICULTY DIFFICULTY MSTORE GASLIMIT MSTORE8 MSTORE8 GASLIMIT MSTORE8 POP PUSH2 0x6E63 PUSH2 0x6B65 MSTORE PUSH16 0x757465723A20494E56414C49445F5041 SLOAD 0x48 STOP STOP STOP STOP STOP POP PUSH2 0x6E63 PUSH2 0x6B65 MSTORE PUSH16 0x757465723A20494E5355464649434945 0x4E SLOAD 0x5F COINBASE 0x5F COINBASE 0x4D 0x4F SSTORE 0x4E SLOAD POP PUSH2 0x6E63 PUSH2 0x6B65 0x4C PUSH10 0x62726172793A20494E53 SSTORE CHAINID CHAINID 0x49 NUMBER 0x49 GASLIMIT 0x4E SLOAD 0x5F COINBASE 0x4D 0x4F SSTORE 0x4E SLOAD SLOAD PUSH19 0x616E7366657248656C7065723A204554485F54 MSTORE COINBASE 0x4E MSTORE8 CHAINID GASLIMIT MSTORE 0x5F CHAINID COINBASE 0x49 0x4C GASLIMIT DIFFICULTY POP PUSH2 0x6E63 PUSH2 0x6B65 MSTORE PUSH16 0x757465723A204558434553534956455F 0x49 0x4E POP SSTORE SLOAD 0x5F COINBASE 0x4D 0x4F SSTORE 0x4E SLOAD POP PUSH2 0x6E63 PUSH2 0x6B65 0x4C PUSH10 0x62726172793A20494E53 SSTORE CHAINID CHAINID 0x49 NUMBER 0x49 GASLIMIT 0x4E SLOAD 0x5F 0x4C 0x49 MLOAD SSTORE 0x49 DIFFICULTY 0x49 SLOAD MSIZE SLOAD PUSH19 0x616E7366657248656C7065723A205452414E53 CHAINID GASLIMIT MSTORE 0x5F CHAINID MSTORE 0x4F 0x4D 0x5F CHAINID COINBASE 0x49 0x4C GASLIMIT DIFFICULTY POP PUSH2 0x6E63 PUSH2 0x6B65 MSTORE PUSH16 0x757465723A20494E5355464649434945 0x4E SLOAD 0x5F TIMESTAMP 0x5F COINBASE 0x4D 0x4F SSTORE 0x4E SLOAD LOG2 PUSH5 0x6970667358 0x22 SLT KECCAK256 PUSH26 0x2CB090A08DAC78C13F81093BB8BAE2F9EB8F124DDC0C53343740 SWAP4 SHL 0xDD PUSH11 0xD64736F6C634300060600 CALLER "
				},
				"gasEstimates": {
					"creation": {
						"codeDepositCost": "3577000",
						"executionCost": "infinite",
						"totalCost": "infinite"
					},
					"external": {
						"WETH()": "infinite",
						"addLiquidity(address,address,uint256,uint256,uint256,uint256,address,uint256)": "infinite",
						"addLiquidityETH(address,uint256,uint256,uint256,address,uint256)": "infinite",
						"factory()": "infinite",
						"getAmountIn(uint256,uint256,uint256)": "infinite",
						"getAmountOut(uint256,uint256,uint256)": "infinite",
						"getAmountsIn(uint256,address[])": "infinite",
						"getAmountsOut(uint256,address[])": "infinite",
						"quote(uint256,uint256,uint256)": "infinite",
						"removeLiquidity(address,address,uint256,uint256,uint256,address,uint256)": "infinite",
						"removeLiquidityETH(address,uint256,uint256,uint256,address,uint256)": "infinite",
						"removeLiquidityETHSupportingFeeOnTransferTokens(address,uint256,uint256,uint256,address,uint256)": "infinite",
						"removeLiquidityETHWithPermit(address,uint256,uint256,uint256,address,uint256,bool,uint8,bytes32,bytes32)": "infinite",
						"removeLiquidityETHWithPermitSupportingFeeOnTransferTokens(address,uint256,uint256,uint256,address,uint256,bool,uint8,bytes32,bytes32)": "infinite",
						"removeLiquidityWithPermit(address,address,uint256,uint256,uint256,address,uint256,bool,uint8,bytes32,bytes32)": "infinite",
						"swapETHForExactTokens(uint256,address[],address,uint256)": "infinite",
						"swapExactETHForTokens(uint256,address[],address,uint256)": "infinite",
						"swapExactETHForTokensSupportingFeeOnTransferTokens(uint256,address[],address,uint256)": "infinite",
						"swapExactTokensForETH(uint256,uint256,address[],address,uint256)": "infinite",
						"swapExactTokensForETHSupportingFeeOnTransferTokens(uint256,uint256,address[],address,uint256)": "infinite",
						"swapExactTokensForTokens(uint256,uint256,address[],address,uint256)": "infinite",
						"swapExactTokensForTokensSupportingFeeOnTransferTokens(uint256,uint256,address[],address,uint256)": "infinite",
						"swapTokensForExactETH(uint256,uint256,address[],address,uint256)": "infinite",
						"swapTokensForExactTokens(uint256,uint256,address[],address,uint256)": "infinite"
					},
					"internal": {
						"_addLiquidity(address,address,uint256,uint256,uint256,uint256)": "infinite",
						"_swap(uint256[] memory,address[] memory,address)": "infinite",
						"_swapSupportingFeeOnTransferTokens(address[] memory,address)": "infinite"
					}
				},
				"methodIdentifiers": {
					"WETH()": "ad5c4648",
					"addLiquidity(address,address,uint256,uint256,uint256,uint256,address,uint256)": "e8e33700",
					"addLiquidityETH(address,uint256,uint256,uint256,address,uint256)": "f305d719",
					"factory()": "c45a0155",
					"getAmountIn(uint256,uint256,uint256)": "85f8c259",
					"getAmountOut(uint256,uint256,uint256)": "054d50d4",
					"getAmountsIn(uint256,address[])": "1f00ca74",
					"getAmountsOut(uint256,address[])": "d06ca61f",
					"quote(uint256,uint256,uint256)": "ad615dec",
					"removeLiquidity(address,address,uint256,uint256,uint256,address,uint256)": "baa2abde",
					"removeLiquidityETH(address,uint256,uint256,uint256,address,uint256)": "02751cec",
					"removeLiquidityETHSupportingFeeOnTransferTokens(address,uint256,uint256,uint256,address,uint256)": "af2979eb",
					"removeLiquidityETHWithPermit(address,uint256,uint256,uint256,address,uint256,bool,uint8,bytes32,bytes32)": "ded9382a",
					"removeLiquidityETHWithPermitSupportingFeeOnTransferTokens(address,uint256,uint256,uint256,address,uint256,bool,uint8,bytes32,bytes32)": "5b0d5984",
					"removeLiquidityWithPermit(address,address,uint256,uint256,uint256,address,uint256,bool,uint8,bytes32,bytes32)": "2195995c",
					"swapETHForExactTokens(uint256,address[],address,uint256)": "fb3bdb41",
					"swapExactETHForTokens(uint256,address[],address,uint256)": "7ff36ab5",
					"swapExactETHForTokensSupportingFeeOnTransferTokens(uint256,address[],address,uint256)": "b6f9de95",
					"swapExactTokensForETH(uint256,uint256,address[],address,uint256)": "18cbafe5",
					"swapExactTokensForETHSupportingFeeOnTransferTokens(uint256,uint256,address[],address,uint256)": "791ac947",
					"swapExactTokensForTokens(uint256,uint256,address[],address,uint256)": "38ed1739",
					"swapExactTokensForTokensSupportingFeeOnTransferTokens(uint256,uint256,address[],address,uint256)": "5c11d795",
					"swapTokensForExactETH(uint256,uint256,address[],address,uint256)": "4a25d94a",
					"swapTokensForExactTokens(uint256,uint256,address[],address,uint256)": "8803dbee"
				}
			},
			"storageLayout": {
				"storage": [],
				"types": null
			},
			"userdoc": {
				"methods": {}
			}
		}
	}
}