{
	"contracts/cake.sol": {
		"CakeToken": {
			"abi": [
				{
					"anonymous": false,
					"inputs": [
						{
							"indexed": true,
							"internalType": "address",
							"name": "owner",
							"type": "address"
						},
						{
							"indexed": true,
							"internalType": "address",
							"name": "spender",
							"type": "address"
						},
						{
							"indexed": false,
							"internalType": "uint256",
							"name": "value",
							"type": "uint256"
						}
					],
					"name": "Approval",
					"type": "event"
				},
				{
					"anonymous": false,
					"inputs": [
						{
							"indexed": true,
							"internalType": "address",
							"name": "delegator",
							"type": "address"
						},
						{
							"indexed": true,
							"internalType": "address",
							"name": "fromDelegate",
							"type": "address"
						},
						{
							"indexed": true,
							"internalType": "address",
							"name": "toDelegate",
							"type": "address"
						}
					],
					"name": "DelegateChanged",
					"type": "event"
				},
				{
					"anonymous": false,
					"inputs": [
						{
							"indexed": true,
							"internalType": "address",
							"name": "delegate",
							"type": "address"
						},
						{
							"indexed": false,
							"internalType": "uint256",
							"name": "previousBalance",
							"type": "uint256"
						},
						{
							"indexed": false,
							"internalType": "uint256",
							"name": "newBalance",
							"type": "uint256"
						}
					],
					"name": "DelegateVotesChanged",
					"type": "event"
				},
				{
					"anonymous": false,
					"inputs": [
						{
							"indexed": true,
							"internalType": "address",
							"name": "previousOwner",
							"type": "address"
						},
						{
							"indexed": true,
							"internalType": "address",
							"name": "newOwner",
							"type": "address"
						}
					],
					"name": "OwnershipTransferred",
					"type": "event"
				},
				{
					"anonymous": false,
					"inputs": [
						{
							"indexed": true,
							"internalType": "address",
							"name": "from",
							"type": "address"
						},
						{
							"indexed": true,
							"internalType": "address",
							"name": "to",
							"type": "address"
						},
						{
							"indexed": false,
							"internalType": "uint256",
							"name": "value",
							"type": "uint256"
						}
					],
					"name": "Transfer",
					"type": "event"
				},
				{
					"inputs": [],
					"name": "DELEGATION_TYPEHASH",
					"outputs": [
						{
							"internalType": "bytes32",
							"name": "",
							"type": "bytes32"
						}
					],
					"stateMutability": "view",
					"type": "function"
				},
				{
					"inputs": [],
					"name": "DOMAIN_TYPEHASH",
					"outputs": [
						{
							"internalType": "bytes32",
							"name": "",
							"type": "bytes32"
						}
					],
					"stateMutability": "view",
					"type": "function"
				},
				{
					"inputs": [
						{
							"internalType": "address",
							"name": "owner",
							"type": "address"
						},
						{
							"internalType": "address",
							"name": "spender",
							"type": "address"
						}
					],
					"name": "allowance",
					"outputs": [
						{
							"internalType": "uint256",
							"name": "",
							"type": "uint256"
						}
					],
					"stateMutability": "view",
					"type": "function"
				},
				{
					"inputs": [
						{
							"internalType": "address",
							"name": "spender",
							"type": "address"
						},
						{
							"internalType": "uint256",
							"name": "amount",
							"type": "uint256"
						}
					],
					"name": "approve",
					"outputs": [
						{
							"internalType": "bool",
							"name": "",
							"type": "bool"
						}
					],
					"stateMutability": "nonpayable",
					"type": "function"
				},
				{
					"inputs": [
						{
							"internalType": "address",
							"name": "account",
							"type": "address"
						}
					],
					"name": "balanceOf",
					"outputs": [
						{
							"internalType": "uint256",
							"name": "",
							"type": "uint256"
						}
					],
					"stateMutability": "view",
					"type": "function"
				},
				{
					"inputs": [
						{
							"internalType": "address",
							"name": "",
							"type": "address"
						},
						{
							"internalType": "uint32",
							"name": "",
							"type": "uint32"
						}
					],
					"name": "checkpoints",
					"outputs": [
						{
							"internalType": "uint32",
							"name": "fromBlock",
							"type": "uint32"
						},
						{
							"internalType": "uint256",
							"name": "votes",
							"type": "uint256"
						}
					],
					"stateMutability": "view",
					"type": "function"
				},
				{
					"inputs": [],
					"name": "decimals",
					"outputs": [
						{
							"internalType": "uint8",
							"name": "",
							"type": "uint8"
						}
					],
					"stateMutability": "view",
					"type": "function"
				},
				{
					"inputs": [
						{
							"internalType": "address",
							"name": "spender",
							"type": "address"
						},
						{
							"internalType": "uint256",
							"name": "subtractedValue",
							"type": "uint256"
						}
					],
					"name": "decreaseAllowance",
					"outputs": [
						{
							"internalType": "bool",
							"name": "",
							"type": "bool"
						}
					],
					"stateMutability": "nonpayable",
					"type": "function"
				},
				{
					"inputs": [
						{
							"internalType": "address",
							"name": "delegatee",
							"type": "address"
						}
					],
					"name": "delegate",
					"outputs": [],
					"stateMutability": "nonpayable",
					"type": "function"
				},
				{
					"inputs": [
						{
							"internalType": "address",
							"name": "delegatee",
							"type": "address"
						},
						{
							"internalType": "uint256",
							"name": "nonce",
							"type": "uint256"
						},
						{
							"internalType": "uint256",
							"name": "expiry",
							"type": "uint256"
						},
						{
							"internalType": "uint8",
							"name": "v",
							"type": "uint8"
						},
						{
							"internalType": "bytes32",
							"name": "r",
							"type": "bytes32"
						},
						{
							"internalType": "bytes32",
							"name": "s",
							"type": "bytes32"
						}
					],
					"name": "delegateBySig",
					"outputs": [],
					"stateMutability": "nonpayable",
					"type": "function"
				},
				{
					"inputs": [
						{
							"internalType": "address",
							"name": "delegator",
							"type": "address"
						}
					],
					"name": "delegates",
					"outputs": [
						{
							"internalType": "address",
							"name": "",
							"type": "address"
						}
					],
					"stateMutability": "view",
					"type": "function"
				},
				{
					"inputs": [
						{
							"internalType": "address",
							"name": "account",
							"type": "address"
						}
					],
					"name": "getCurrentVotes",
					"outputs": [
						{
							"internalType": "uint256",
							"name": "",
							"type": "uint256"
						}
					],
					"stateMutability": "view",
					"type": "function"
				},
				{
					"inputs": [],
					"name": "getOwner",
					"outputs": [
						{
							"internalType": "address",
							"name": "",
							"type": "address"
						}
					],
					"stateMutability": "view",
					"type": "function"
				},
				{
					"inputs": [
						{
							"internalType": "address",
							"name": "account",
							"type": "address"
						},
						{
							"internalType": "uint256",
							"name": "blockNumber",
							"type": "uint256"
						}
					],
					"name": "getPriorVotes",
					"outputs": [
						{
							"internalType": "uint256",
							"name": "",
							"type": "uint256"
						}
					],
					"stateMutability": "view",
					"type": "function"
				},
				{
					"inputs": [
						{
							"internalType": "address",
							"name": "spender",
							"type": "address"
						},
						{
							"internalType": "uint256",
							"name": "addedValue",
							"type": "uint256"
						}
					],
					"name": "increaseAllowance",
					"outputs": [
						{
							"internalType": "bool",
							"name": "",
							"type": "bool"
						}
					],
					"stateMutability": "nonpayable",
					"type": "function"
				},
				{
					"inputs": [
						{
							"internalType": "address",
							"name": "_to",
							"type": "address"
						},
						{
							"internalType": "uint256",
							"name": "_amount",
							"type": "uint256"
						}
					],
					"name": "mint",
					"outputs": [],
					"stateMutability": "nonpayable",
					"type": "function"
				},
				{
					"inputs": [
						{
							"internalType": "uint256",
							"name": "amount",
							"type": "uint256"
						}
					],
					"name": "mint",
					"outputs": [
						{
							"internalType": "bool",
							"name": "",
							"type": "bool"
						}
					],
					"stateMutability": "nonpayable",
					"type": "function"
				},
				{
					"inputs": [],
					"name": "name",
					"outputs": [
						{
							"internalType": "string",
							"name": "",
							"type": "string"
						}
					],
					"stateMutability": "view",
					"type": "function"
				},
				{
					"inputs": [
						{
							"internalType": "address",
							"name": "",
							"type": "address"
						}
					],
					"name": "nonces",
					"outputs": [
						{
							"internalType": "uint256",
							"name": "",
							"type": "uint256"
						}
					],
					"stateMutability": "view",
					"type": "function"
				},
				{
					"inputs": [
						{
							"internalType": "address",
							"name": "",
							"type": "address"
						}
					],
					"name": "numCheckpoints",
					"outputs": [
						{
							"internalType": "uint32",
							"name": "",
							"type": "uint32"
						}
					],
					"stateMutability": "view",
					"type": "function"
				},
				{
					"inputs": [],
					"name": "owner",
					"outputs": [
						{
							"internalType": "address",
							"name": "",
							"type": "address"
						}
					],
					"stateMutability": "view",
					"type": "function"
				},
				{
					"inputs": [],
					"name": "renounceOwnership",
					"outputs": [],
					"stateMutability": "nonpayable",
					"type": "function"
				},
				{
					"inputs": [],
					"name": "symbol",
					"outputs": [
						{
							"internalType": "string",
							"name": "",
							"type": "string"
						}
					],
					"stateMutability": "view",
					"type": "function"
				},
				{
					"inputs": [],
					"name": "totalSupply",
					"outputs": [
						{
							"internalType": "uint256",
							"name": "",
							"type": "uint256"
						}
					],
					"stateMutability": "view",
					"type": "function"
				},
				{
					"inputs": [
						{
							"internalType": "address",
							"name": "recipient",
							"type": "address"
						},
						{
							"internalType": "uint256",
							"name": "amount",
							"type": "uint256"
						}
					],
					"name": "transfer",
					"outputs": [
						{
							"internalType": "bool",
							"name": "",
							"type": "bool"
						}
					],
					"stateMutability": "nonpayable",
					"type": "function"
				},
				{
					"inputs": [
						{
							"internalType": "address",
							"name": "sender",
							"type": "address"
						},
						{
							"internalType": "address",
							"name": "recipient",
							"type": "address"
						},
						{
							"internalType": "uint256",
							"name": "amount",
							"type": "uint256"
						}
					],
					"name": "transferFrom",
					"outputs": [
						{
							"internalType": "bool",
							"name": "",
							"type": "bool"
						}
					],
					"stateMutability": "nonpayable",
					"type": "function"
				},
				{
					"inputs": [
						{
							"internalType": "address",
							"name": "newOwner",
							"type": "address"
						}
					],
					"name": "transferOwnership",
					"outputs": [],
					"stateMutability": "nonpayable",
					"type": "function"
				}
			],
			"devdoc": {
				"kind": "dev",
				"methods": {
					"allowance(address,address)": {
						"details": "See {CAKE20-allowance}."
					},
					"approve(address,uint256)": {
						"details": "See {CAKE20-approve}. Requirements: - `spender` cannot be the zero address."
					},
					"balanceOf(address)": {
						"details": "See {CAKE20-balanceOf}."
					},
					"decimals()": {
						"details": "Returns the token decimals."
					},
					"decreaseAllowance(address,uint256)": {
						"details": "Atomically decreases the allowance granted to `spender` by the caller. This is an alternative to {approve} that can be used as a mitigation for problems described in {CAKE20-approve}. Emits an {Approval} event indicating the updated allowance. Requirements: - `spender` cannot be the zero address. - `spender` must have allowance for the caller of at least `subtractedValue`."
					},
					"delegate(address)": {
						"params": {
							"delegatee": "The address to delegate votes to"
						}
					},
					"delegateBySig(address,uint256,uint256,uint8,bytes32,bytes32)": {
						"params": {
							"delegatee": "The address to delegate votes to",
							"expiry": "The time at which to expire the signature",
							"nonce": "The contract state required to match the signature",
							"r": "Half of the ECDSA signature pair",
							"s": "Half of the ECDSA signature pair",
							"v": "The recovery byte of the signature"
						}
					},
					"delegates(address)": {
						"params": {
							"delegator": "The address to get delegatee for"
						}
					},
					"getCurrentVotes(address)": {
						"params": {
							"account": "The address to get votes balance"
						},
						"returns": {
							"_0": "The number of current votes for `account`"
						}
					},
					"getOwner()": {
						"details": "Returns the CAKE token owner."
					},
					"getPriorVotes(address,uint256)": {
						"details": "Block number must be a finalized block or else this function will revert to prevent misinformation.",
						"params": {
							"account": "The address of the account to check",
							"blockNumber": "The block number to get the vote balance at"
						},
						"returns": {
							"_0": "The number of votes the account had as of the given block"
						}
					},
					"increaseAllowance(address,uint256)": {
						"details": "Atomically increases the allowance granted to `spender` by the caller. This is an alternative to {approve} that can be used as a mitigation for problems described in {CAKE20-approve}. Emits an {Approval} event indicating the updated allowance. Requirements: - `spender` cannot be the zero address."
					},
					"mint(uint256)": {
						"details": "Creates `amount` tokens and assigns them to `msg.sender`, increasing the total supply. Requirements - `msg.sender` must be the token owner"
					},
					"name()": {
						"details": "Returns the token name."
					},
					"owner()": {
						"details": "Returns the address of the current owner."
					},
					"renounceOwnership()": {
						"details": "Leaves the contract without owner. It will not be possible to call `onlyOwner` functions anymore. Can only be called by the current owner. NOTE: Renouncing ownership will leave the contract without an owner, thereby removing any functionality that is only available to the owner."
					},
					"symbol()": {
						"details": "Returns the token symbol."
					},
					"totalSupply()": {
						"details": "See {CAKE20-totalSupply}."
					},
					"transfer(address,uint256)": {
						"details": "See {CAKE20-transfer}. Requirements: - `recipient` cannot be the zero address. - the caller must have a balance of at least `amount`."
					},
					"transferFrom(address,address,uint256)": {
						"details": "See {CAKE20-transferFrom}. Emits an {Approval} event indicating the updated allowance. This is not required by the EIP. See the note at the beginning of {CAKE20}; Requirements: - `sender` and `recipient` cannot be the zero address. - `sender` must have a balance of at least `amount`. - the caller must have allowance for `sender`'s tokens of at least `amount`."
					},
					"transferOwnership(address)": {
						"details": "Transfers ownership of the contract to a new account (`newOwner`). Can only be called by the current owner."
					}
				},
				"version": 1
			},
			"evm": {
				"assembly": "    /* \"contracts/cake.sol\":28279:36917  contract CakeToken is CAKE20('PancakeSwap Token', 'Cake') {... */\n  mstore(0x40, 0x80)\n  callvalue\n  dup1\n  iszero\n  tag_1\n  jumpi\n  0x00\n  dup1\n  revert\ntag_1:\n  pop\n    /* \"contracts/cake.sol\":20276:20416  constructor(string memory name, string memory symbol) public {... */\n  mload(0x40)\n  dup1\n  0x40\n  add\n  0x40\n  mstore\n  dup1\n  0x11\n  dup2\n  mstore\n  0x20\n  add\n  shl(0x79, 0x2830b731b0b5b2a9bbb0b8102a37b5b2b7)\n  dup2\n  mstore\n  pop\n  mload(0x40)\n  dup1\n  0x40\n  add\n  0x40\n  mstore\n  dup1\n  0x04\n  dup2\n  mstore\n  0x20\n  add\n  shl(0xe0, 0x43616b65)\n  dup2\n  mstore\n  pop\n    /* \"contracts/cake.sol\":1879:1896  address msgSender */\n  0x00\n    /* \"contracts/cake.sol\":1899:1911  _msgSender() */\n  tag_7\n    /* \"contracts/cake.sol\":1899:1909  _msgSender */\n  shl(0x20, tag_8)\n    /* \"contracts/cake.sol\":1899:1911  _msgSender() */\n  0x20\n  shr\n  jump\t// in\ntag_7:\n    /* \"contracts/cake.sol\":1921:1927  _owner */\n  0x00\n    /* \"contracts/cake.sol\":1921:1939  _owner = msgSender */\n  dup1\n  sload\n  not(sub(shl(0xa0, 0x01), 0x01))\n  and\n  sub(shl(0xa0, 0x01), 0x01)\n  dup4\n  and\n  swap1\n  dup2\n  or\n  dup3\n  sstore\n    /* \"contracts/cake.sol\":1954:1997  OwnershipTransferred(address(0), msgSender) */\n  mload(0x40)\n    /* \"contracts/cake.sol\":1921:1939  _owner = msgSender */\n  swap3\n  swap4\n  pop\n  swap2\n    /* \"contracts/cake.sol\":1954:1997  OwnershipTransferred(address(0), msgSender) */\n  0x8be0079c531659141344cd1fd0a4f28419497f9722a3daafe3b4186f6b6457e0\n  swap1\n    /* \"contracts/cake.sol\":1921:1927  _owner */\n  dup3\n  swap1\n    /* \"contracts/cake.sol\":1954:1997  OwnershipTransferred(address(0), msgSender) */\n  log3\n  pop\n    /* \"contracts/cake.sol\":20347:20359  _name = name */\n  dup2\n  mload\n  tag_10\n  swap1\n    /* \"contracts/cake.sol\":20347:20352  _name */\n  0x04\n  swap1\n    /* \"contracts/cake.sol\":20347:20359  _name = name */\n  0x20\n  dup6\n  add\n  swap1\n  tag_11\n  jump\t// in\ntag_10:\n  pop\n    /* \"contracts/cake.sol\":20369:20385  _symbol = symbol */\n  dup1\n  mload\n  tag_12\n  swap1\n    /* \"contracts/cake.sol\":20369:20376  _symbol */\n  0x05\n  swap1\n    /* \"contracts/cake.sol\":20369:20385  _symbol = symbol */\n  0x20\n  dup5\n  add\n  swap1\n  tag_11\n  jump\t// in\ntag_12:\n  pop\n  pop\n    /* \"contracts/cake.sol\":20395:20404  _decimals */\n  0x06\n    /* \"contracts/cake.sol\":20395:20409  _decimals = 18 */\n  dup1\n  sload\n  not(0xff)\n  and\n    /* \"contracts/cake.sol\":20407:20409  18 */\n  0x12\n    /* \"contracts/cake.sol\":20395:20409  _decimals = 18 */\n  or\n  swap1\n  sstore\n  pop\n    /* \"contracts/cake.sol\":28279:36917  contract CakeToken is CAKE20('PancakeSwap Token', 'Cake') {... */\n  jump(tag_13)\n    /* \"contracts/cake.sol\":770:866  function _msgSender() internal view returns (address payable) {... */\ntag_8:\n    /* \"contracts/cake.sol\":849:859  msg.sender */\n  caller\n    /* \"contracts/cake.sol\":770:866  function _msgSender() internal view returns (address payable) {... */\n  swap1\n  jump\t// out\n    /* \"contracts/cake.sol\":28279:36917  contract CakeToken is CAKE20('PancakeSwap Token', 'Cake') {... */\ntag_11:\n  dup3\n  dup1\n  sload\n  0x01\n  dup2\n  0x01\n  and\n  iszero\n  0x0100\n  mul\n  sub\n  and\n  0x02\n  swap1\n  div\n  swap1\n  0x00\n  mstore\n  keccak256(0x00, 0x20)\n  swap1\n  0x1f\n  add\n  0x20\n  swap1\n  div\n  dup2\n  add\n  swap3\n  dup3\n  0x1f\n  lt\n  tag_16\n  jumpi\n  dup1\n  mload\n  not(0xff)\n  and\n  dup4\n  dup1\n  add\n  or\n  dup6\n  sstore\n  jump(tag_18)\ntag_16:\n  dup3\n  dup1\n  add\n  0x01\n  add\n  dup6\n  sstore\n  dup3\n  iszero\n  tag_18\n  jumpi\n  swap2\n  dup3\n  add\ntag_17:\n  dup3\n  dup2\n  gt\n  iszero\n  tag_18\n  jumpi\n  dup3\n  mload\n  dup3\n  sstore\n  swap2\n  0x20\n  add\n  swap2\n  swap1\n  0x01\n  add\n  swap1\n  jump(tag_17)\ntag_18:\n  pop\n  tag_19\n  swap3\n  swap2\n  pop\n  tag_20\n  jump\t// in\ntag_19:\n  pop\n  swap1\n  jump\t// out\ntag_20:\ntag_21:\n  dup1\n  dup3\n  gt\n  iszero\n  tag_19\n  jumpi\n  0x00\n  dup2\n  sstore\n  0x01\n  add\n  jump(tag_21)\ntag_13:\n  dataSize(sub_0)\n  dup1\n  dataOffset(sub_0)\n  0x00\n  codecopy\n  0x00\n  return\nstop\n\nsub_0: assembly {\n        /* \"contracts/cake.sol\":28279:36917  contract CakeToken is CAKE20('PancakeSwap Token', 'Cake') {... */\n      mstore(0x40, 0x80)\n      callvalue\n      dup1\n      iszero\n      tag_1\n      jumpi\n      0x00\n      dup1\n      revert\n    tag_1:\n      pop\n      jumpi(tag_2, lt(calldatasize, 0x04))\n      shr(0xe0, calldataload(0x00))\n      dup1\n      0x782d6fe1\n      gt\n      tag_30\n      jumpi\n      dup1\n      0xa9059cbb\n      gt\n      tag_31\n      jumpi\n      dup1\n      0xdd62ed3e\n      gt\n      tag_32\n      jumpi\n      dup1\n      0xdd62ed3e\n      eq\n      tag_26\n      jumpi\n      dup1\n      0xe7a324dc\n      eq\n      tag_27\n      jumpi\n      dup1\n      0xf1127ed8\n      eq\n      tag_28\n      jumpi\n      dup1\n      0xf2fde38b\n      eq\n      tag_29\n      jumpi\n      jump(tag_2)\n    tag_32:\n      dup1\n      0xa9059cbb\n      eq\n      tag_23\n      jumpi\n      dup1\n      0xb4b5ea57\n      eq\n      tag_24\n      jumpi\n      dup1\n      0xc3cda520\n      eq\n      tag_25\n      jumpi\n      jump(tag_2)\n    tag_31:\n      dup1\n      0x8da5cb5b\n      gt\n      tag_33\n      jumpi\n      dup1\n      0x8da5cb5b\n      eq\n      tag_19\n      jumpi\n      dup1\n      0x95d89b41\n      eq\n      tag_20\n      jumpi\n      dup1\n      0xa0712d68\n      eq\n      tag_21\n      jumpi\n      dup1\n      0xa457c2d7\n      eq\n      tag_22\n      jumpi\n      jump(tag_2)\n    tag_33:\n      dup1\n      0x782d6fe1\n      eq\n      tag_16\n      jumpi\n      dup1\n      0x7ecebe00\n      eq\n      tag_17\n      jumpi\n      dup1\n      0x893d20e8\n      eq\n      tag_18\n      jumpi\n      jump(tag_2)\n    tag_30:\n      dup1\n      0x39509351\n      gt\n      tag_34\n      jumpi\n      dup1\n      0x5c19a95c\n      gt\n      tag_35\n      jumpi\n      dup1\n      0x5c19a95c\n      eq\n      tag_12\n      jumpi\n      dup1\n      0x6fcfff45\n      eq\n      tag_13\n      jumpi\n      dup1\n      0x70a08231\n      eq\n      tag_14\n      jumpi\n      dup1\n      0x715018a6\n      eq\n      tag_15\n      jumpi\n      jump(tag_2)\n    tag_35:\n      dup1\n      0x39509351\n      eq\n      tag_9\n      jumpi\n      dup1\n      0x40c10f19\n      eq\n      tag_10\n      jumpi\n      dup1\n      0x587cde1e\n      eq\n      tag_11\n      jumpi\n      jump(tag_2)\n    tag_34:\n      dup1\n      0x06fdde03\n      eq\n      tag_3\n      jumpi\n      dup1\n      0x095ea7b3\n      eq\n      tag_4\n      jumpi\n      dup1\n      0x18160ddd\n      eq\n      tag_5\n      jumpi\n      dup1\n      0x20606b70\n      eq\n      tag_6\n      jumpi\n      dup1\n      0x23b872dd\n      eq\n      tag_7\n      jumpi\n      dup1\n      0x313ce567\n      eq\n      tag_8\n      jumpi\n    tag_2:\n      0x00\n      dup1\n      revert\n        /* \"contracts/cake.sol\":20630:20720  function name() public override view returns (string memory) {... */\n    tag_3:\n      tag_36\n      tag_37\n      jump\t// in\n    tag_36:\n      0x40\n      dup1\n      mload\n      0x20\n      dup1\n      dup3\n      mstore\n      dup4\n      mload\n      dup2\n      dup4\n      add\n      mstore\n      dup4\n      mload\n      swap2\n      swap3\n      dup4\n      swap3\n      swap1\n      dup4\n      add\n      swap2\n      dup6\n      add\n      swap1\n      dup1\n      dup4\n      dup4\n      0x00\n    tag_38:\n      dup4\n      dup2\n      lt\n      iszero\n      tag_40\n      jumpi\n      dup2\n      dup2\n      add\n      mload\n      dup4\n      dup3\n      add\n      mstore\n      0x20\n      add\n      jump(tag_38)\n    tag_40:\n      pop\n      pop\n      pop\n      pop\n      swap1\n      pop\n      swap1\n      dup2\n      add\n      swap1\n      0x1f\n      and\n      dup1\n      iszero\n      tag_41\n      jumpi\n      dup1\n      dup3\n      sub\n      dup1\n      mload\n      0x01\n      dup4\n      0x20\n      sub\n      0x0100\n      exp\n      sub\n      not\n      and\n      dup2\n      mstore\n      0x20\n      add\n      swap2\n      pop\n    tag_41:\n      pop\n      swap3\n      pop\n      pop\n      pop\n      mload(0x40)\n      dup1\n      swap2\n      sub\n      swap1\n      return\n        /* \"contracts/cake.sol\":22063:22221  function approve(address spender, uint256 amount) public override returns (bool) {... */\n    tag_4:\n      tag_42\n      0x04\n      dup1\n      calldatasize\n      sub\n      0x40\n      dup2\n      lt\n      iszero\n      tag_43\n      jumpi\n      0x00\n      dup1\n      revert\n    tag_43:\n      pop\n      sub(shl(0xa0, 0x01), 0x01)\n      dup2\n      calldataload\n      and\n      swap1\n      0x20\n      add\n      calldataload\n      tag_44\n      jump\t// in\n    tag_42:\n      0x40\n      dup1\n      mload\n      swap2\n      iszero\n      iszero\n      dup3\n      mstore\n      mload\n      swap1\n      dup2\n      swap1\n      sub\n      0x20\n      add\n      swap1\n      return\n        /* \"contracts/cake.sol\":21086:21184  function totalSupply() public override view returns (uint256) {... */\n    tag_5:\n      tag_45\n      tag_46\n      jump\t// in\n    tag_45:\n      0x40\n      dup1\n      mload\n      swap2\n      dup3\n      mstore\n      mload\n      swap1\n      dup2\n      swap1\n      sub\n      0x20\n      add\n      swap1\n      return\n        /* \"contracts/cake.sol\":29546:29668  bytes32 public constant DOMAIN_TYPEHASH = keccak256(\"EIP712Domain(string name,uint256 chainId,address verifyingContract)\") */\n    tag_6:\n      tag_45\n      tag_48\n      jump\t// in\n        /* \"contracts/cake.sol\":22680:23066  function transferFrom(... */\n    tag_7:\n      tag_42\n      0x04\n      dup1\n      calldatasize\n      sub\n      0x60\n      dup2\n      lt\n      iszero\n      tag_50\n      jumpi\n      0x00\n      dup1\n      revert\n    tag_50:\n      pop\n      sub(shl(0xa0, 0x01), 0x01)\n      dup2\n      calldataload\n      dup2\n      and\n      swap2\n      0x20\n      dup2\n      add\n      calldataload\n      swap1\n      swap2\n      and\n      swap1\n      0x40\n      add\n      calldataload\n      tag_51\n      jump\t// in\n        /* \"contracts/cake.sol\":20782:20872  function decimals() public override view returns (uint8) {... */\n    tag_8:\n      tag_52\n      tag_53\n      jump\t// in\n    tag_52:\n      0x40\n      dup1\n      mload\n      0xff\n      swap1\n      swap3\n      and\n      dup3\n      mstore\n      mload\n      swap1\n      dup2\n      swap1\n      sub\n      0x20\n      add\n      swap1\n      return\n        /* \"contracts/cake.sol\":23461:23668  function increaseAllowance(address spender, uint256 addedValue) public returns (bool) {... */\n    tag_9:\n      tag_42\n      0x04\n      dup1\n      calldatasize\n      sub\n      0x40\n      dup2\n      lt\n      iszero\n      tag_55\n      jumpi\n      0x00\n      dup1\n      revert\n    tag_55:\n      pop\n      sub(shl(0xa0, 0x01), 0x01)\n      dup2\n      calldataload\n      and\n      swap1\n      0x20\n      add\n      calldataload\n      tag_56\n      jump\t// in\n        /* \"contracts/cake.sol\":28440:28599  function mint(address _to, uint256 _amount) public onlyOwner {... */\n    tag_10:\n      tag_57\n      0x04\n      dup1\n      calldatasize\n      sub\n      0x40\n      dup2\n      lt\n      iszero\n      tag_58\n      jumpi\n      0x00\n      dup1\n      revert\n    tag_58:\n      pop\n      sub(shl(0xa0, 0x01), 0x01)\n      dup2\n      calldataload\n      and\n      swap1\n      0x20\n      add\n      calldataload\n      tag_59\n      jump\t// in\n    tag_57:\n      stop\n        /* \"contracts/cake.sol\":30511:30654  function delegates(address delegator)... */\n    tag_11:\n      tag_60\n      0x04\n      dup1\n      calldatasize\n      sub\n      0x20\n      dup2\n      lt\n      iszero\n      tag_61\n      jumpi\n      0x00\n      dup1\n      revert\n    tag_61:\n      pop\n      calldataload\n      sub(shl(0xa0, 0x01), 0x01)\n      and\n      tag_62\n      jump\t// in\n    tag_60:\n      0x40\n      dup1\n      mload\n      sub(shl(0xa0, 0x01), 0x01)\n      swap1\n      swap3\n      and\n      dup3\n      mstore\n      mload\n      swap1\n      dup2\n      swap1\n      sub\n      0x20\n      add\n      swap1\n      return\n        /* \"contracts/cake.sol\":30792:30894  function delegate(address delegatee) external {... */\n    tag_12:\n      tag_57\n      0x04\n      dup1\n      calldatasize\n      sub\n      0x20\n      dup2\n      lt\n      iszero\n      tag_64\n      jumpi\n      0x00\n      dup1\n      revert\n    tag_64:\n      pop\n      calldataload\n      sub(shl(0xa0, 0x01), 0x01)\n      and\n      tag_65\n      jump\t// in\n        /* \"contracts/cake.sol\":29427:29476  mapping (address => uint32) public numCheckpoints */\n    tag_13:\n      tag_66\n      0x04\n      dup1\n      calldatasize\n      sub\n      0x20\n      dup2\n      lt\n      iszero\n      tag_67\n      jumpi\n      0x00\n      dup1\n      revert\n    tag_67:\n      pop\n      calldataload\n      sub(shl(0xa0, 0x01), 0x01)\n      and\n      tag_68\n      jump\t// in\n    tag_66:\n      0x40\n      dup1\n      mload\n      0xffffffff\n      swap1\n      swap3\n      and\n      dup3\n      mstore\n      mload\n      swap1\n      dup2\n      swap1\n      sub\n      0x20\n      add\n      swap1\n      return\n        /* \"contracts/cake.sol\":21242:21359  function balanceOf(address account) public override view returns (uint256) {... */\n    tag_14:\n      tag_45\n      0x04\n      dup1\n      calldatasize\n      sub\n      0x20\n      dup2\n      lt\n      iszero\n      tag_70\n      jumpi\n      0x00\n      dup1\n      revert\n    tag_70:\n      pop\n      calldataload\n      sub(shl(0xa0, 0x01), 0x01)\n      and\n      tag_71\n      jump\t// in\n        /* \"contracts/cake.sol\":2703:2840  function renounceOwnership() public onlyOwner {... */\n    tag_15:\n      tag_57\n      tag_73\n      jump\t// in\n        /* \"contracts/cake.sol\":33318:34535  function getPriorVotes(address account, uint blockNumber)... */\n    tag_16:\n      tag_45\n      0x04\n      dup1\n      calldatasize\n      sub\n      0x40\n      dup2\n      lt\n      iszero\n      tag_75\n      jumpi\n      0x00\n      dup1\n      revert\n    tag_75:\n      pop\n      sub(shl(0xa0, 0x01), 0x01)\n      dup2\n      calldataload\n      and\n      swap1\n      0x20\n      add\n      calldataload\n      tag_76\n      jump\t// in\n        /* \"contracts/cake.sol\":29954:29993  mapping (address => uint) public nonces */\n    tag_17:\n      tag_45\n      0x04\n      dup1\n      calldatasize\n      sub\n      0x20\n      dup2\n      lt\n      iszero\n      tag_78\n      jumpi\n      0x00\n      dup1\n      revert\n    tag_78:\n      pop\n      calldataload\n      sub(shl(0xa0, 0x01), 0x01)\n      and\n      tag_79\n      jump\t// in\n        /* \"contracts/cake.sol\":20480:20572  function getOwner() external override view returns (address) {... */\n    tag_18:\n      tag_60\n      tag_81\n      jump\t// in\n        /* \"contracts/cake.sol\":2080:2157  function owner() public view returns (address) {... */\n    tag_19:\n      tag_60\n      tag_83\n      jump\t// in\n        /* \"contracts/cake.sol\":20932:21026  function symbol() public override view returns (string memory) {... */\n    tag_20:\n      tag_36\n      tag_85\n      jump\t// in\n        /* \"contracts/cake.sol\":24668:24795  function mint(uint256 amount) public onlyOwner returns (bool) {... */\n    tag_21:\n      tag_42\n      0x04\n      dup1\n      calldatasize\n      sub\n      0x20\n      dup2\n      lt\n      iszero\n      tag_91\n      jumpi\n      0x00\n      dup1\n      revert\n    tag_91:\n      pop\n      calldataload\n      tag_92\n      jump\t// in\n        /* \"contracts/cake.sol\":24155:24460  function decreaseAllowance(address spender, uint256 subtractedValue) public returns (bool) {... */\n    tag_22:\n      tag_42\n      0x04\n      dup1\n      calldatasize\n      sub\n      0x40\n      dup2\n      lt\n      iszero\n      tag_94\n      jumpi\n      0x00\n      dup1\n      revert\n    tag_94:\n      pop\n      sub(shl(0xa0, 0x01), 0x01)\n      dup2\n      calldataload\n      and\n      swap1\n      0x20\n      add\n      calldataload\n      tag_95\n      jump\t// in\n        /* \"contracts/cake.sol\":21562:21726  function transfer(address recipient, uint256 amount) public override returns (bool) {... */\n    tag_23:\n      tag_42\n      0x04\n      dup1\n      calldatasize\n      sub\n      0x40\n      dup2\n      lt\n      iszero\n      tag_97\n      jumpi\n      0x00\n      dup1\n      revert\n    tag_97:\n      pop\n      sub(shl(0xa0, 0x01), 0x01)\n      dup2\n      calldataload\n      and\n      swap1\n      0x20\n      add\n      calldataload\n      tag_98\n      jump\t// in\n        /* \"contracts/cake.sol\":32648:32896  function getCurrentVotes(address account)... */\n    tag_24:\n      tag_45\n      0x04\n      dup1\n      calldatasize\n      sub\n      0x20\n      dup2\n      lt\n      iszero\n      tag_100\n      jumpi\n      0x00\n      dup1\n      revert\n    tag_100:\n      pop\n      calldataload\n      sub(shl(0xa0, 0x01), 0x01)\n      and\n      tag_101\n      jump\t// in\n        /* \"contracts/cake.sol\":31317:32454  function delegateBySig(... */\n    tag_25:\n      tag_57\n      0x04\n      dup1\n      calldatasize\n      sub\n      0xc0\n      dup2\n      lt\n      iszero\n      tag_103\n      jumpi\n      0x00\n      dup1\n      revert\n    tag_103:\n      pop\n      sub(shl(0xa0, 0x01), 0x01)\n      dup2\n      calldataload\n      and\n      swap1\n      0x20\n      dup2\n      add\n      calldataload\n      swap1\n      0x40\n      dup2\n      add\n      calldataload\n      swap1\n      0xff\n      0x60\n      dup3\n      add\n      calldataload\n      and\n      swap1\n      0x80\n      dup2\n      add\n      calldataload\n      swap1\n      0xa0\n      add\n      calldataload\n      tag_104\n      jump\t// in\n        /* \"contracts/cake.sol\":21784:21925  function allowance(address owner, address spender) public override view returns (uint256) {... */\n    tag_26:\n      tag_45\n      0x04\n      dup1\n      calldatasize\n      sub\n      0x40\n      dup2\n      lt\n      iszero\n      tag_106\n      jumpi\n      0x00\n      dup1\n      revert\n    tag_106:\n      pop\n      sub(shl(0xa0, 0x01), 0x01)\n      dup2\n      calldataload\n      dup2\n      and\n      swap2\n      0x20\n      add\n      calldataload\n      and\n      tag_107\n      jump\t// in\n        /* \"contracts/cake.sol\":29759:29876  bytes32 public constant DELEGATION_TYPEHASH = keccak256(\"Delegation(address delegatee,uint256 nonce,uint256 expiry)\") */\n    tag_27:\n      tag_45\n      tag_109\n      jump\t// in\n        /* \"contracts/cake.sol\":29291:29361  mapping (address => mapping (uint32 => Checkpoint)) public checkpoints */\n    tag_28:\n      tag_110\n      0x04\n      dup1\n      calldatasize\n      sub\n      0x40\n      dup2\n      lt\n      iszero\n      tag_111\n      jumpi\n      0x00\n      dup1\n      revert\n    tag_111:\n      pop\n      dup1\n      calldataload\n      sub(shl(0xa0, 0x01), 0x01)\n      and\n      swap1\n      0x20\n      add\n      calldataload\n      0xffffffff\n      and\n      tag_112\n      jump\t// in\n    tag_110:\n      0x40\n      dup1\n      mload\n      0xffffffff\n      swap1\n      swap4\n      and\n      dup4\n      mstore\n      0x20\n      dup4\n      add\n      swap2\n      swap1\n      swap2\n      mstore\n      dup1\n      mload\n      swap2\n      dup3\n      swap1\n      sub\n      add\n      swap1\n      return\n        /* \"contracts/cake.sol\":2989:3096  function transferOwnership(address newOwner) public onlyOwner {... */\n    tag_29:\n      tag_57\n      0x04\n      dup1\n      calldatasize\n      sub\n      0x20\n      dup2\n      lt\n      iszero\n      tag_114\n      jumpi\n      0x00\n      dup1\n      revert\n    tag_114:\n      pop\n      calldataload\n      sub(shl(0xa0, 0x01), 0x01)\n      and\n      tag_115\n      jump\t// in\n        /* \"contracts/cake.sol\":20630:20720  function name() public override view returns (string memory) {... */\n    tag_37:\n        /* \"contracts/cake.sol\":20708:20713  _name */\n      0x04\n        /* \"contracts/cake.sol\":20701:20713  return _name */\n      dup1\n      sload\n      0x40\n      dup1\n      mload\n      0x20\n      0x1f\n      0x02\n      not(0x00)\n      0x0100\n      0x01\n      dup9\n      and\n      iszero\n      mul\n      add\n      swap1\n      swap6\n      and\n      swap5\n      swap1\n      swap5\n      div\n      swap4\n      dup5\n      add\n      dup2\n      swap1\n      div\n      dup2\n      mul\n      dup3\n      add\n      dup2\n      add\n      swap1\n      swap3\n      mstore\n      dup3\n      dup2\n      mstore\n        /* \"contracts/cake.sol\":20676:20689  string memory */\n      0x60\n      swap4\n        /* \"contracts/cake.sol\":20701:20713  return _name */\n      swap1\n      swap3\n        /* \"contracts/cake.sol\":20708:20713  _name */\n      swap1\n      swap2\n        /* \"contracts/cake.sol\":20701:20713  return _name */\n      dup4\n      add\n        /* \"contracts/cake.sol\":20708:20713  _name */\n      dup3\n        /* \"contracts/cake.sol\":20701:20713  return _name */\n      dup3\n      dup1\n      iszero\n      tag_117\n      jumpi\n      dup1\n      0x1f\n      lt\n      tag_118\n      jumpi\n      0x0100\n      dup1\n      dup4\n      sload\n      div\n      mul\n      dup4\n      mstore\n      swap2\n      0x20\n      add\n      swap2\n      jump(tag_117)\n    tag_118:\n      dup3\n      add\n      swap2\n      swap1\n      0x00\n      mstore\n      keccak256(0x00, 0x20)\n      swap1\n    tag_119:\n      dup2\n      sload\n      dup2\n      mstore\n      swap1\n      0x01\n      add\n      swap1\n      0x20\n      add\n      dup1\n      dup4\n      gt\n      tag_119\n      jumpi\n      dup3\n      swap1\n      sub\n      0x1f\n      and\n      dup3\n      add\n      swap2\n    tag_117:\n      pop\n      pop\n      pop\n      pop\n      pop\n      swap1\n      pop\n        /* \"contracts/cake.sol\":20630:20720  function name() public override view returns (string memory) {... */\n      swap1\n      jump\t// out\n        /* \"contracts/cake.sol\":22063:22221  function approve(address spender, uint256 amount) public override returns (bool) {... */\n    tag_44:\n        /* \"contracts/cake.sol\":22138:22142  bool */\n      0x00\n        /* \"contracts/cake.sol\":22154:22193  _approve(_msgSender(), spender, amount) */\n      tag_121\n        /* \"contracts/cake.sol\":22163:22175  _msgSender() */\n      tag_122\n        /* \"contracts/cake.sol\":22163:22173  _msgSender */\n      tag_123\n        /* \"contracts/cake.sol\":22163:22175  _msgSender() */\n      jump\t// in\n    tag_122:\n        /* \"contracts/cake.sol\":22177:22184  spender */\n      dup5\n        /* \"contracts/cake.sol\":22186:22192  amount */\n      dup5\n        /* \"contracts/cake.sol\":22154:22162  _approve */\n      tag_124\n        /* \"contracts/cake.sol\":22154:22193  _approve(_msgSender(), spender, amount) */\n      jump\t// in\n    tag_121:\n      pop\n        /* \"contracts/cake.sol\":22210:22214  true */\n      0x01\n        /* \"contracts/cake.sol\":22063:22221  function approve(address spender, uint256 amount) public override returns (bool) {... */\n    tag_120:\n      swap3\n      swap2\n      pop\n      pop\n      jump\t// out\n        /* \"contracts/cake.sol\":21086:21184  function totalSupply() public override view returns (uint256) {... */\n    tag_46:\n        /* \"contracts/cake.sol\":21165:21177  _totalSupply */\n      sload(0x03)\n        /* \"contracts/cake.sol\":21086:21184  function totalSupply() public override view returns (uint256) {... */\n      swap1\n      jump\t// out\n        /* \"contracts/cake.sol\":29546:29668  bytes32 public constant DOMAIN_TYPEHASH = keccak256(\"EIP712Domain(string name,uint256 chainId,address verifyingContract)\") */\n    tag_48:\n        /* \"contracts/cake.sol\":29588:29668  keccak256(\"EIP712Domain(string name,uint256 chainId,address verifyingContract)\") */\n      0x8cad95687ba82c2ce50e74f7b754645e5117c3a5bec8151c0726d5857980a866\n        /* \"contracts/cake.sol\":29546:29668  bytes32 public constant DOMAIN_TYPEHASH = keccak256(\"EIP712Domain(string name,uint256 chainId,address verifyingContract)\") */\n      dup2\n      jump\t// out\n        /* \"contracts/cake.sol\":22680:23066  function transferFrom(... */\n    tag_51:\n        /* \"contracts/cake.sol\":22808:22812  bool */\n      0x00\n        /* \"contracts/cake.sol\":22824:22860  _transfer(sender, recipient, amount) */\n      tag_127\n        /* \"contracts/cake.sol\":22834:22840  sender */\n      dup5\n        /* \"contracts/cake.sol\":22842:22851  recipient */\n      dup5\n        /* \"contracts/cake.sol\":22853:22859  amount */\n      dup5\n        /* \"contracts/cake.sol\":22824:22833  _transfer */\n      tag_128\n        /* \"contracts/cake.sol\":22824:22860  _transfer(sender, recipient, amount) */\n      jump\t// in\n    tag_127:\n        /* \"contracts/cake.sol\":22870:23038  _approve(... */\n      tag_129\n        /* \"contracts/cake.sol\":22892:22898  sender */\n      dup5\n        /* \"contracts/cake.sol\":22912:22924  _msgSender() */\n      tag_130\n        /* \"contracts/cake.sol\":22912:22922  _msgSender */\n      tag_123\n        /* \"contracts/cake.sol\":22912:22924  _msgSender() */\n      jump\t// in\n    tag_130:\n        /* \"contracts/cake.sol\":22938:23028  _allowances[sender][_msgSender()].sub(amount, 'CAKE20: transfer amount exceeds allowance') */\n      tag_131\n        /* \"contracts/cake.sol\":22976:22982  amount */\n      dup6\n        /* \"contracts/cake.sol\":22938:23028  _allowances[sender][_msgSender()].sub(amount, 'CAKE20: transfer amount exceeds allowance') */\n      mload(0x40)\n      dup1\n      0x60\n      add\n      0x40\n      mstore\n      dup1\n      0x29\n      dup2\n      mstore\n      0x20\n      add\n      data_037a800c383c8b41b7f30fd6fdbe6b4a969472a92c909c5e3a50fbad30140e2f\n      0x29\n      swap2\n      codecopy\n      sub(shl(0xa0, 0x01), 0x01)\n        /* \"contracts/cake.sol\":22938:22957  _allowances[sender] */\n      dup11\n      and\n      0x00\n      swap1\n      dup2\n      mstore\n        /* \"contracts/cake.sol\":22938:22949  _allowances */\n      0x02\n        /* \"contracts/cake.sol\":22938:22957  _allowances[sender] */\n      0x20\n      mstore\n      0x40\n      dup2\n      keccak256\n      swap1\n        /* \"contracts/cake.sol\":22958:22970  _msgSender() */\n      tag_132\n        /* \"contracts/cake.sol\":22958:22968  _msgSender */\n      tag_123\n        /* \"contracts/cake.sol\":22958:22970  _msgSender() */\n      jump\t// in\n    tag_132:\n      sub(shl(0xa0, 0x01), 0x01)\n        /* \"contracts/cake.sol\":22938:22971  _allowances[sender][_msgSender()] */\n      and\n      dup2\n      mstore\n      0x20\n      dup2\n      add\n      swap2\n      swap1\n      swap2\n      mstore\n      0x40\n      add\n      0x00\n      keccak256\n      sload\n      swap2\n        /* \"contracts/cake.sol\":22938:23028  _allowances[sender][_msgSender()].sub(amount, 'CAKE20: transfer amount exceeds allowance') */\n      swap1\n        /* \"contracts/cake.sol\":22938:22975  _allowances[sender][_msgSender()].sub */\n      tag_133\n        /* \"contracts/cake.sol\":22938:23028  _allowances[sender][_msgSender()].sub(amount, 'CAKE20: transfer amount exceeds allowance') */\n      jump\t// in\n    tag_131:\n        /* \"contracts/cake.sol\":22870:22878  _approve */\n      tag_124\n        /* \"contracts/cake.sol\":22870:23038  _approve(... */\n      jump\t// in\n    tag_129:\n      pop\n        /* \"contracts/cake.sol\":23055:23059  true */\n      0x01\n        /* \"contracts/cake.sol\":22680:23066  function transferFrom(... */\n      swap4\n      swap3\n      pop\n      pop\n      pop\n      jump\t// out\n        /* \"contracts/cake.sol\":20782:20872  function decimals() public override view returns (uint8) {... */\n    tag_53:\n        /* \"contracts/cake.sol\":20856:20865  _decimals */\n      and(0xff, sload(0x06))\n        /* \"contracts/cake.sol\":20782:20872  function decimals() public override view returns (uint8) {... */\n      swap1\n      jump\t// out\n        /* \"contracts/cake.sol\":23461:23668  function increaseAllowance(address spender, uint256 addedValue) public returns (bool) {... */\n    tag_56:\n        /* \"contracts/cake.sol\":23541:23545  bool */\n      0x00\n        /* \"contracts/cake.sol\":23557:23640  _approve(_msgSender(), spender, _allowances[_msgSender()][spender].add(addedValue)) */\n      tag_121\n        /* \"contracts/cake.sol\":23566:23578  _msgSender() */\n      tag_137\n        /* \"contracts/cake.sol\":23566:23576  _msgSender */\n      tag_123\n        /* \"contracts/cake.sol\":23566:23578  _msgSender() */\n      jump\t// in\n    tag_137:\n        /* \"contracts/cake.sol\":23580:23587  spender */\n      dup5\n        /* \"contracts/cake.sol\":23589:23639  _allowances[_msgSender()][spender].add(addedValue) */\n      tag_131\n        /* \"contracts/cake.sol\":23628:23638  addedValue */\n      dup6\n        /* \"contracts/cake.sol\":23589:23600  _allowances */\n      0x02\n        /* \"contracts/cake.sol\":23589:23614  _allowances[_msgSender()] */\n      0x00\n        /* \"contracts/cake.sol\":23601:23613  _msgSender() */\n      tag_139\n        /* \"contracts/cake.sol\":23601:23611  _msgSender */\n      tag_123\n        /* \"contracts/cake.sol\":23601:23613  _msgSender() */\n      jump\t// in\n    tag_139:\n      sub(shl(0xa0, 0x01), 0x01)\n        /* \"contracts/cake.sol\":23589:23614  _allowances[_msgSender()] */\n      swap1\n      dup2\n      and\n      dup3\n      mstore\n      0x20\n      dup1\n      dup4\n      add\n      swap4\n      swap1\n      swap4\n      mstore\n      0x40\n      swap2\n      dup3\n      add\n      0x00\n      swap1\n      dup2\n      keccak256\n        /* \"contracts/cake.sol\":23589:23623  _allowances[_msgSender()][spender] */\n      swap2\n      dup13\n      and\n      dup2\n      mstore\n      swap3\n      mstore\n      swap1\n      keccak256\n      sload\n      swap1\n        /* \"contracts/cake.sol\":23589:23627  _allowances[_msgSender()][spender].add */\n      tag_140\n        /* \"contracts/cake.sol\":23589:23639  _allowances[_msgSender()][spender].add(addedValue) */\n      jump\t// in\n        /* \"contracts/cake.sol\":28440:28599  function mint(address _to, uint256 _amount) public onlyOwner {... */\n    tag_59:\n        /* \"contracts/cake.sol\":2294:2306  _msgSender() */\n      tag_142\n        /* \"contracts/cake.sol\":2294:2304  _msgSender */\n      tag_123\n        /* \"contracts/cake.sol\":2294:2306  _msgSender() */\n      jump\t// in\n    tag_142:\n        /* \"contracts/cake.sol\":2284:2290  _owner */\n      sload(0x00)\n      sub(shl(0xa0, 0x01), 0x01)\n      swap1\n      dup2\n      and\n        /* \"contracts/cake.sol\":2284:2306  _owner == _msgSender() */\n      swap2\n      and\n      eq\n        /* \"contracts/cake.sol\":2276:2343  require(_owner == _msgSender(), 'Ownable: caller is not the owner') */\n      tag_143\n      jumpi\n      0x40\n      dup1\n      mload\n      shl(0xe5, 0x461bcd)\n      dup2\n      mstore\n      0x20\n      0x04\n      dup3\n      add\n      dup2\n      swap1\n      mstore\n      0x24\n      dup3\n      add\n      mstore\n      0x00\n      dup1\n      mload\n      0x20\n      data_9924ebdf1add33d25d4ef888e16131f0a5687b0580a36c21b5c301a6c462effe\n      dup4\n      codecopy\n      dup2\n      mload\n      swap2\n      mstore\n      0x44\n      dup3\n      add\n      mstore\n      swap1\n      mload\n      swap1\n      dup2\n      swap1\n      sub\n      0x64\n      add\n      swap1\n      revert\n    tag_143:\n        /* \"contracts/cake.sol\":28511:28530  _mint(_to, _amount) */\n      tag_145\n        /* \"contracts/cake.sol\":28517:28520  _to */\n      dup3\n        /* \"contracts/cake.sol\":28522:28529  _amount */\n      dup3\n        /* \"contracts/cake.sol\":28511:28516  _mint */\n      tag_146\n        /* \"contracts/cake.sol\":28511:28530  _mint(_to, _amount) */\n      jump\t// in\n    tag_145:\n      sub(shl(0xa0, 0x01), 0x01)\n        /* \"contracts/cake.sol\":28567:28582  _delegates[_to] */\n      dup1\n      dup4\n      and\n        /* \"contracts/cake.sol\":28563:28564  0 */\n      0x00\n        /* \"contracts/cake.sol\":28567:28582  _delegates[_to] */\n      swap1\n      dup2\n      mstore\n        /* \"contracts/cake.sol\":28567:28577  _delegates */\n      0x07\n        /* \"contracts/cake.sol\":28567:28582  _delegates[_to] */\n      0x20\n      mstore\n      0x40\n      dup2\n      keccak256\n      sload\n        /* \"contracts/cake.sol\":28540:28592  _moveDelegates(address(0), _delegates[_to], _amount) */\n      tag_147\n      swap3\n        /* \"contracts/cake.sol\":28567:28582  _delegates[_to] */\n      and\n        /* \"contracts/cake.sol\":28584:28591  _amount */\n      dup4\n        /* \"contracts/cake.sol\":28540:28554  _moveDelegates */\n      tag_148\n        /* \"contracts/cake.sol\":28540:28592  _moveDelegates(address(0), _delegates[_to], _amount) */\n      jump\t// in\n    tag_147:\n        /* \"contracts/cake.sol\":28440:28599  function mint(address _to, uint256 _amount) public onlyOwner {... */\n      pop\n      pop\n      jump\t// out\n        /* \"contracts/cake.sol\":30511:30654  function delegates(address delegator)... */\n    tag_62:\n      sub(shl(0xa0, 0x01), 0x01)\n        /* \"contracts/cake.sol\":30626:30647  _delegates[delegator] */\n      swap1\n      dup2\n      and\n        /* \"contracts/cake.sol\":30596:30603  address */\n      0x00\n        /* \"contracts/cake.sol\":30626:30647  _delegates[delegator] */\n      swap1\n      dup2\n      mstore\n        /* \"contracts/cake.sol\":30626:30636  _delegates */\n      0x07\n        /* \"contracts/cake.sol\":30626:30647  _delegates[delegator] */\n      0x20\n      mstore\n      0x40\n      swap1\n      keccak256\n      sload\n      and\n      swap1\n        /* \"contracts/cake.sol\":30511:30654  function delegates(address delegator)... */\n      jump\t// out\n        /* \"contracts/cake.sol\":30792:30894  function delegate(address delegatee) external {... */\n    tag_65:\n        /* \"contracts/cake.sol\":30855:30887  _delegate(msg.sender, delegatee) */\n      tag_151\n        /* \"contracts/cake.sol\":30865:30875  msg.sender */\n      caller\n        /* \"contracts/cake.sol\":30877:30886  delegatee */\n      dup3\n        /* \"contracts/cake.sol\":30855:30864  _delegate */\n      tag_152\n        /* \"contracts/cake.sol\":30855:30887  _delegate(msg.sender, delegatee) */\n      jump\t// in\n    tag_151:\n        /* \"contracts/cake.sol\":30792:30894  function delegate(address delegatee) external {... */\n      pop\n      jump\t// out\n        /* \"contracts/cake.sol\":29427:29476  mapping (address => uint32) public numCheckpoints */\n    tag_68:\n      mstore(0x20, 0x09)\n      0x00\n      swap1\n      dup2\n      mstore\n      0x40\n      swap1\n      keccak256\n      sload\n      0xffffffff\n      and\n      dup2\n      jump\t// out\n        /* \"contracts/cake.sol\":21242:21359  function balanceOf(address account) public override view returns (uint256) {... */\n    tag_71:\n      sub(shl(0xa0, 0x01), 0x01)\n        /* \"contracts/cake.sol\":21334:21352  _balances[account] */\n      and\n        /* \"contracts/cake.sol\":21308:21315  uint256 */\n      0x00\n        /* \"contracts/cake.sol\":21334:21352  _balances[account] */\n      swap1\n      dup2\n      mstore\n        /* \"contracts/cake.sol\":21334:21343  _balances */\n      0x01\n        /* \"contracts/cake.sol\":21334:21352  _balances[account] */\n      0x20\n      mstore\n      0x40\n      swap1\n      keccak256\n      sload\n      swap1\n        /* \"contracts/cake.sol\":21242:21359  function balanceOf(address account) public override view returns (uint256) {... */\n      jump\t// out\n        /* \"contracts/cake.sol\":2703:2840  function renounceOwnership() public onlyOwner {... */\n    tag_73:\n        /* \"contracts/cake.sol\":2294:2306  _msgSender() */\n      tag_155\n        /* \"contracts/cake.sol\":2294:2304  _msgSender */\n      tag_123\n        /* \"contracts/cake.sol\":2294:2306  _msgSender() */\n      jump\t// in\n    tag_155:\n        /* \"contracts/cake.sol\":2284:2290  _owner */\n      sload(0x00)\n      sub(shl(0xa0, 0x01), 0x01)\n      swap1\n      dup2\n      and\n        /* \"contracts/cake.sol\":2284:2306  _owner == _msgSender() */\n      swap2\n      and\n      eq\n        /* \"contracts/cake.sol\":2276:2343  require(_owner == _msgSender(), 'Ownable: caller is not the owner') */\n      tag_156\n      jumpi\n      0x40\n      dup1\n      mload\n      shl(0xe5, 0x461bcd)\n      dup2\n      mstore\n      0x20\n      0x04\n      dup3\n      add\n      dup2\n      swap1\n      mstore\n      0x24\n      dup3\n      add\n      mstore\n      0x00\n      dup1\n      mload\n      0x20\n      data_9924ebdf1add33d25d4ef888e16131f0a5687b0580a36c21b5c301a6c462effe\n      dup4\n      codecopy\n      dup2\n      mload\n      swap2\n      mstore\n      0x44\n      dup3\n      add\n      mstore\n      swap1\n      mload\n      swap1\n      dup2\n      swap1\n      sub\n      0x64\n      add\n      swap1\n      revert\n    tag_156:\n        /* \"contracts/cake.sol\":2801:2802  0 */\n      0x00\n        /* \"contracts/cake.sol\":2785:2791  _owner */\n      dup1\n      sload\n        /* \"contracts/cake.sol\":2764:2804  OwnershipTransferred(_owner, address(0)) */\n      mload(0x40)\n      sub(shl(0xa0, 0x01), 0x01)\n        /* \"contracts/cake.sol\":2785:2791  _owner */\n      swap1\n      swap2\n      and\n      swap1\n        /* \"contracts/cake.sol\":2764:2804  OwnershipTransferred(_owner, address(0)) */\n      0x8be0079c531659141344cd1fd0a4f28419497f9722a3daafe3b4186f6b6457e0\n      swap1\n        /* \"contracts/cake.sol\":2801:2802  0 */\n      dup4\n      swap1\n        /* \"contracts/cake.sol\":2764:2804  OwnershipTransferred(_owner, address(0)) */\n      log3\n        /* \"contracts/cake.sol\":2831:2832  0 */\n      0x00\n        /* \"contracts/cake.sol\":2814:2833  _owner = address(0) */\n      dup1\n      sload\n      not(sub(shl(0xa0, 0x01), 0x01))\n      and\n      swap1\n      sstore\n        /* \"contracts/cake.sol\":2703:2840  function renounceOwnership() public onlyOwner {... */\n      jump\t// out\n        /* \"contracts/cake.sol\":33318:34535  function getPriorVotes(address account, uint blockNumber)... */\n    tag_76:\n        /* \"contracts/cake.sol\":33423:33430  uint256 */\n      0x00\n        /* \"contracts/cake.sol\":33468:33480  block.number */\n      number\n        /* \"contracts/cake.sol\":33454:33465  blockNumber */\n      dup3\n        /* \"contracts/cake.sol\":33454:33480  blockNumber < block.number */\n      lt\n        /* \"contracts/cake.sol\":33446:33524  require(blockNumber < block.number, \"CAKE::getPriorVotes: not yet determined\") */\n      tag_159\n      jumpi\n      mload(0x40)\n      shl(0xe5, 0x461bcd)\n      dup2\n      mstore\n      0x04\n      add\n      dup1\n      dup1\n      0x20\n      add\n      dup3\n      dup2\n      sub\n      dup3\n      mstore\n      0x27\n      dup2\n      mstore\n      0x20\n      add\n      dup1\n      data_a1be2aa7ce8870f4c68a34627ce4514a20d52f005edd6f8bf954781312534474\n      0x27\n      swap2\n      codecopy\n      0x40\n      add\n      swap2\n      pop\n      pop\n      mload(0x40)\n      dup1\n      swap2\n      sub\n      swap1\n      revert\n    tag_159:\n      sub(shl(0xa0, 0x01), 0x01)\n        /* \"contracts/cake.sol\":33557:33580  numCheckpoints[account] */\n      dup4\n      and\n        /* \"contracts/cake.sol\":33535:33554  uint32 nCheckpoints */\n      0x00\n        /* \"contracts/cake.sol\":33557:33580  numCheckpoints[account] */\n      swap1\n      dup2\n      mstore\n        /* \"contracts/cake.sol\":33557:33571  numCheckpoints */\n      0x09\n        /* \"contracts/cake.sol\":33557:33580  numCheckpoints[account] */\n      0x20\n      mstore\n      0x40\n      swap1\n      keccak256\n      sload\n      0xffffffff\n      and\n        /* \"contracts/cake.sol\":33594:33611  nCheckpoints == 0 */\n      dup1\n        /* \"contracts/cake.sol\":33590:33646  if (nCheckpoints == 0) {... */\n      tag_160\n      jumpi\n        /* \"contracts/cake.sol\":33634:33635  0 */\n      0x00\n        /* \"contracts/cake.sol\":33627:33635  return 0 */\n      swap2\n      pop\n      pop\n      jump(tag_120)\n        /* \"contracts/cake.sol\":33590:33646  if (nCheckpoints == 0) {... */\n    tag_160:\n      sub(shl(0xa0, 0x01), 0x01)\n        /* \"contracts/cake.sol\":33703:33723  checkpoints[account] */\n      dup5\n      and\n      0x00\n      swap1\n      dup2\n      mstore\n        /* \"contracts/cake.sol\":33703:33714  checkpoints */\n      0x08\n        /* \"contracts/cake.sol\":33703:33723  checkpoints[account] */\n      0x20\n      swap1\n      dup2\n      mstore\n      0x40\n      dup1\n      dup4\n      keccak256\n        /* \"contracts/cake.sol\":33703:33741  checkpoints[account][nCheckpoints - 1] */\n      0xffffffff\n      not(0x00)\n        /* \"contracts/cake.sol\":33724:33740  nCheckpoints - 1 */\n      dup7\n      add\n        /* \"contracts/cake.sol\":33703:33741  checkpoints[account][nCheckpoints - 1] */\n      dup2\n      and\n      dup6\n      mstore\n      swap3\n      mstore\n      swap1\n      swap2\n      keccak256\n        /* \"contracts/cake.sol\":33703:33751  checkpoints[account][nCheckpoints - 1].fromBlock */\n      sload\n      and\n        /* \"contracts/cake.sol\":33703:33766  checkpoints[account][nCheckpoints - 1].fromBlock <= blockNumber */\n      dup4\n      lt\n        /* \"contracts/cake.sol\":33699:33844  if (checkpoints[account][nCheckpoints - 1].fromBlock <= blockNumber) {... */\n      tag_161\n      jumpi\n      sub(shl(0xa0, 0x01), 0x01)\n        /* \"contracts/cake.sol\":33789:33809  checkpoints[account] */\n      dup5\n      and\n      0x00\n      swap1\n      dup2\n      mstore\n        /* \"contracts/cake.sol\":33789:33800  checkpoints */\n      0x08\n        /* \"contracts/cake.sol\":33789:33809  checkpoints[account] */\n      0x20\n      swap1\n      dup2\n      mstore\n      0x40\n      dup1\n      dup4\n      keccak256\n      not(0x00)\n        /* \"contracts/cake.sol\":33810:33826  nCheckpoints - 1 */\n      swap5\n      swap1\n      swap5\n      add\n        /* \"contracts/cake.sol\":33789:33827  checkpoints[account][nCheckpoints - 1] */\n      0xffffffff\n      and\n      dup4\n      mstore\n      swap3\n      swap1\n      mstore\n      keccak256\n        /* \"contracts/cake.sol\":33825:33826  1 */\n      0x01\n        /* \"contracts/cake.sol\":33789:33833  checkpoints[account][nCheckpoints - 1].votes */\n      add\n      sload\n      swap1\n      pop\n        /* \"contracts/cake.sol\":33782:33833  return checkpoints[account][nCheckpoints - 1].votes */\n      jump(tag_120)\n        /* \"contracts/cake.sol\":33699:33844  if (checkpoints[account][nCheckpoints - 1].fromBlock <= blockNumber) {... */\n    tag_161:\n      sub(shl(0xa0, 0x01), 0x01)\n        /* \"contracts/cake.sol\":33902:33922  checkpoints[account] */\n      dup5\n      and\n      0x00\n      swap1\n      dup2\n      mstore\n        /* \"contracts/cake.sol\":33902:33913  checkpoints */\n      0x08\n        /* \"contracts/cake.sol\":33902:33922  checkpoints[account] */\n      0x20\n      swap1\n      dup2\n      mstore\n      0x40\n      dup1\n      dup4\n      keccak256\n        /* \"contracts/cake.sol\":33902:33925  checkpoints[account][0] */\n      dup4\n      dup1\n      mstore\n      swap1\n      swap2\n      mstore\n      swap1\n      keccak256\n        /* \"contracts/cake.sol\":33902:33935  checkpoints[account][0].fromBlock */\n      sload\n        /* \"contracts/cake.sol\":33902:33925  checkpoints[account][0] */\n      0xffffffff\n        /* \"contracts/cake.sol\":33902:33935  checkpoints[account][0].fromBlock */\n      and\n        /* \"contracts/cake.sol\":33902:33949  checkpoints[account][0].fromBlock > blockNumber */\n      dup4\n      lt\n        /* \"contracts/cake.sol\":33898:33984  if (checkpoints[account][0].fromBlock > blockNumber) {... */\n      iszero\n      tag_162\n      jumpi\n        /* \"contracts/cake.sol\":33972:33973  0 */\n      0x00\n        /* \"contracts/cake.sol\":33965:33973  return 0 */\n      swap2\n      pop\n      pop\n      jump(tag_120)\n        /* \"contracts/cake.sol\":33898:33984  if (checkpoints[account][0].fromBlock > blockNumber) {... */\n    tag_162:\n        /* \"contracts/cake.sol\":33994:34006  uint32 lower */\n      0x00\n      not(0x00)\n        /* \"contracts/cake.sol\":34035:34051  nCheckpoints - 1 */\n      dup3\n      add\n        /* \"contracts/cake.sol\":34061:34479  while (upper > lower) {... */\n    tag_163:\n        /* \"contracts/cake.sol\":34076:34081  lower */\n      dup2\n        /* \"contracts/cake.sol\":34068:34081  upper > lower */\n      0xffffffff\n      and\n        /* \"contracts/cake.sol\":34068:34073  upper */\n      dup2\n        /* \"contracts/cake.sol\":34068:34081  upper > lower */\n      0xffffffff\n      and\n      gt\n        /* \"contracts/cake.sol\":34061:34479  while (upper > lower) {... */\n      iszero\n      tag_164\n      jumpi\n        /* \"contracts/cake.sol\":34139:34140  2 */\n      0x02\n        /* \"contracts/cake.sol\":34122:34135  upper - lower */\n      dup3\n      dup3\n      sub\n        /* \"contracts/cake.sol\":34121:34140  (upper - lower) / 2 */\n      0xffffffff\n      and\n      div\n        /* \"contracts/cake.sol\":34113:34140  upper - (upper - lower) / 2 */\n      dup2\n      sub\n        /* \"contracts/cake.sol\":34181:34201  Checkpoint memory cp */\n      tag_166\n      tag_167\n      jump\t// in\n    tag_166:\n      pop\n      sub(shl(0xa0, 0x01), 0x01)\n        /* \"contracts/cake.sol\":34204:34224  checkpoints[account] */\n      dup8\n      and\n      0x00\n      swap1\n      dup2\n      mstore\n        /* \"contracts/cake.sol\":34204:34215  checkpoints */\n      0x08\n        /* \"contracts/cake.sol\":34204:34224  checkpoints[account] */\n      0x20\n      swap1\n      dup2\n      mstore\n      0x40\n      dup1\n      dup4\n      keccak256\n        /* \"contracts/cake.sol\":34204:34232  checkpoints[account][center] */\n      0xffffffff\n      dup1\n      dup7\n      and\n      dup6\n      mstore\n      swap1\n      dup4\n      mstore\n      swap3\n      dup2\n      swap1\n      keccak256\n        /* \"contracts/cake.sol\":34181:34232  Checkpoint memory cp = checkpoints[account][center] */\n      dup2\n      mload\n      dup1\n      dup4\n      add\n      swap1\n      swap3\n      mstore\n      dup1\n      sload\n      swap1\n      swap4\n      and\n      dup1\n      dup3\n      mstore\n      0x01\n      swap1\n      swap4\n      add\n      sload\n      swap2\n      dup2\n      add\n      swap2\n      swap1\n      swap2\n      mstore\n      swap1\n        /* \"contracts/cake.sol\":34250:34277  cp.fromBlock == blockNumber */\n      dup8\n      eq\n        /* \"contracts/cake.sol\":34246:34469  if (cp.fromBlock == blockNumber) {... */\n      iszero\n      tag_168\n      jumpi\n        /* \"contracts/cake.sol\":34304:34312  cp.votes */\n      0x20\n      add\n      mload\n      swap5\n      pop\n        /* \"contracts/cake.sol\":34297:34312  return cp.votes */\n      tag_120\n      swap4\n      pop\n      pop\n      pop\n      pop\n      jump\n        /* \"contracts/cake.sol\":34246:34469  if (cp.fromBlock == blockNumber) {... */\n    tag_168:\n        /* \"contracts/cake.sol\":34337:34349  cp.fromBlock */\n      dup1\n      mload\n        /* \"contracts/cake.sol\":34337:34363  cp.fromBlock < blockNumber */\n      0xffffffff\n      and\n      dup8\n      gt\n        /* \"contracts/cake.sol\":34333:34469  if (cp.fromBlock < blockNumber) {... */\n      iszero\n      tag_170\n      jumpi\n        /* \"contracts/cake.sol\":34391:34397  center */\n      dup2\n        /* \"contracts/cake.sol\":34383:34397  lower = center */\n      swap4\n      pop\n        /* \"contracts/cake.sol\":34333:34469  if (cp.fromBlock < blockNumber) {... */\n      jump(tag_171)\n    tag_170:\n        /* \"contracts/cake.sol\":34453:34454  1 */\n      0x01\n        /* \"contracts/cake.sol\":34444:34450  center */\n      dup3\n        /* \"contracts/cake.sol\":34444:34454  center - 1 */\n      sub\n        /* \"contracts/cake.sol\":34436:34454  upper = center - 1 */\n      swap3\n      pop\n        /* \"contracts/cake.sol\":34333:34469  if (cp.fromBlock < blockNumber) {... */\n    tag_171:\n        /* \"contracts/cake.sol\":34061:34479  while (upper > lower) {... */\n      pop\n      pop\n      jump(tag_163)\n    tag_164:\n      pop\n      sub(shl(0xa0, 0x01), 0x01)\n        /* \"contracts/cake.sol\":34495:34515  checkpoints[account] */\n      dup6\n      and\n      0x00\n      swap1\n      dup2\n      mstore\n        /* \"contracts/cake.sol\":34495:34506  checkpoints */\n      0x08\n        /* \"contracts/cake.sol\":34495:34515  checkpoints[account] */\n      0x20\n      swap1\n      dup2\n      mstore\n      0x40\n      dup1\n      dup4\n      keccak256\n        /* \"contracts/cake.sol\":34495:34522  checkpoints[account][lower] */\n      0xffffffff\n      swap1\n      swap5\n      and\n      dup4\n      mstore\n      swap3\n      swap1\n      mstore\n      keccak256\n        /* \"contracts/cake.sol\":34495:34528  checkpoints[account][lower].votes */\n      0x01\n      add\n      sload\n      swap2\n      pop\n      pop\n        /* \"contracts/cake.sol\":33318:34535  function getPriorVotes(address account, uint blockNumber)... */\n      swap3\n      swap2\n      pop\n      pop\n      jump\t// out\n        /* \"contracts/cake.sol\":29954:29993  mapping (address => uint) public nonces */\n    tag_79:\n      mstore(0x20, 0x0a)\n      0x00\n      swap1\n      dup2\n      mstore\n      0x40\n      swap1\n      keccak256\n      sload\n      dup2\n      jump\t// out\n        /* \"contracts/cake.sol\":20480:20572  function getOwner() external override view returns (address) {... */\n    tag_81:\n        /* \"contracts/cake.sol\":20532:20539  address */\n      0x00\n        /* \"contracts/cake.sol\":20558:20565  owner() */\n      tag_173\n        /* \"contracts/cake.sol\":20558:20563  owner */\n      tag_83\n        /* \"contracts/cake.sol\":20558:20565  owner() */\n      jump\t// in\n    tag_173:\n        /* \"contracts/cake.sol\":20551:20565  return owner() */\n      swap1\n      pop\n        /* \"contracts/cake.sol\":20480:20572  function getOwner() external override view returns (address) {... */\n      swap1\n      jump\t// out\n        /* \"contracts/cake.sol\":2080:2157  function owner() public view returns (address) {... */\n    tag_83:\n        /* \"contracts/cake.sol\":2118:2125  address */\n      0x00\n        /* \"contracts/cake.sol\":2144:2150  _owner */\n      sload\n      sub(shl(0xa0, 0x01), 0x01)\n      and\n        /* \"contracts/cake.sol\":2080:2157  function owner() public view returns (address) {... */\n      swap1\n      jump\t// out\n        /* \"contracts/cake.sol\":20932:21026  function symbol() public override view returns (string memory) {... */\n    tag_85:\n        /* \"contracts/cake.sol\":21012:21019  _symbol */\n      0x05\n        /* \"contracts/cake.sol\":21005:21019  return _symbol */\n      dup1\n      sload\n      0x40\n      dup1\n      mload\n      0x20\n      0x1f\n      0x02\n      not(0x00)\n      0x0100\n      0x01\n      dup9\n      and\n      iszero\n      mul\n      add\n      swap1\n      swap6\n      and\n      swap5\n      swap1\n      swap5\n      div\n      swap4\n      dup5\n      add\n      dup2\n      swap1\n      div\n      dup2\n      mul\n      dup3\n      add\n      dup2\n      add\n      swap1\n      swap3\n      mstore\n      dup3\n      dup2\n      mstore\n        /* \"contracts/cake.sol\":20980:20993  string memory */\n      0x60\n      swap4\n        /* \"contracts/cake.sol\":21005:21019  return _symbol */\n      swap1\n      swap3\n        /* \"contracts/cake.sol\":21012:21019  _symbol */\n      swap1\n      swap2\n        /* \"contracts/cake.sol\":21005:21019  return _symbol */\n      dup4\n      add\n        /* \"contracts/cake.sol\":21012:21019  _symbol */\n      dup3\n        /* \"contracts/cake.sol\":21005:21019  return _symbol */\n      dup3\n      dup1\n      iszero\n      tag_117\n      jumpi\n      dup1\n      0x1f\n      lt\n      tag_118\n      jumpi\n      0x0100\n      dup1\n      dup4\n      sload\n      div\n      mul\n      dup4\n      mstore\n      swap2\n      0x20\n      add\n      swap2\n      jump(tag_117)\n        /* \"contracts/cake.sol\":24668:24795  function mint(uint256 amount) public onlyOwner returns (bool) {... */\n    tag_92:\n        /* \"contracts/cake.sol\":24724:24728  bool */\n      0x00\n        /* \"contracts/cake.sol\":2294:2306  _msgSender() */\n      tag_180\n        /* \"contracts/cake.sol\":2294:2304  _msgSender */\n      tag_123\n        /* \"contracts/cake.sol\":2294:2306  _msgSender() */\n      jump\t// in\n    tag_180:\n        /* \"contracts/cake.sol\":2284:2290  _owner */\n      sload(0x00)\n      sub(shl(0xa0, 0x01), 0x01)\n      swap1\n      dup2\n      and\n        /* \"contracts/cake.sol\":2284:2306  _owner == _msgSender() */\n      swap2\n      and\n      eq\n        /* \"contracts/cake.sol\":2276:2343  require(_owner == _msgSender(), 'Ownable: caller is not the owner') */\n      tag_181\n      jumpi\n      0x40\n      dup1\n      mload\n      shl(0xe5, 0x461bcd)\n      dup2\n      mstore\n      0x20\n      0x04\n      dup3\n      add\n      dup2\n      swap1\n      mstore\n      0x24\n      dup3\n      add\n      mstore\n      0x00\n      dup1\n      mload\n      0x20\n      data_9924ebdf1add33d25d4ef888e16131f0a5687b0580a36c21b5c301a6c462effe\n      dup4\n      codecopy\n      dup2\n      mload\n      swap2\n      mstore\n      0x44\n      dup3\n      add\n      mstore\n      swap1\n      mload\n      swap1\n      dup2\n      swap1\n      sub\n      0x64\n      add\n      swap1\n      revert\n    tag_181:\n        /* \"contracts/cake.sol\":24740:24767  _mint(_msgSender(), amount) */\n      tag_183\n        /* \"contracts/cake.sol\":24746:24758  _msgSender() */\n      tag_184\n        /* \"contracts/cake.sol\":24746:24756  _msgSender */\n      tag_123\n        /* \"contracts/cake.sol\":24746:24758  _msgSender() */\n      jump\t// in\n    tag_184:\n        /* \"contracts/cake.sol\":24760:24766  amount */\n      dup4\n        /* \"contracts/cake.sol\":24740:24745  _mint */\n      tag_146\n        /* \"contracts/cake.sol\":24740:24767  _mint(_msgSender(), amount) */\n      jump\t// in\n    tag_183:\n      pop\n        /* \"contracts/cake.sol\":24784:24788  true */\n      0x01\n        /* \"contracts/cake.sol\":24668:24795  function mint(uint256 amount) public onlyOwner returns (bool) {... */\n      swap2\n      swap1\n      pop\n      jump\t// out\n        /* \"contracts/cake.sol\":24155:24460  function decreaseAllowance(address spender, uint256 subtractedValue) public returns (bool) {... */\n    tag_95:\n        /* \"contracts/cake.sol\":24240:24244  bool */\n      0x00\n        /* \"contracts/cake.sol\":24256:24432  _approve(... */\n      tag_121\n        /* \"contracts/cake.sol\":24278:24290  _msgSender() */\n      tag_187\n        /* \"contracts/cake.sol\":24278:24288  _msgSender */\n      tag_123\n        /* \"contracts/cake.sol\":24278:24290  _msgSender() */\n      jump\t// in\n    tag_187:\n        /* \"contracts/cake.sol\":24304:24311  spender */\n      dup5\n        /* \"contracts/cake.sol\":24325:24422  _allowances[_msgSender()][spender].sub(subtractedValue, 'CAKE20: decreased allowance below zero') */\n      tag_131\n        /* \"contracts/cake.sol\":24364:24379  subtractedValue */\n      dup6\n        /* \"contracts/cake.sol\":24325:24422  _allowances[_msgSender()][spender].sub(subtractedValue, 'CAKE20: decreased allowance below zero') */\n      mload(0x40)\n      dup1\n      0x60\n      add\n      0x40\n      mstore\n      dup1\n      0x26\n      dup2\n      mstore\n      0x20\n      add\n      data_7426a02a8645a4fc3fbe54503be0c6ef4e20d7e78f4110ed802fa144a020d321\n      0x26\n      swap2\n      codecopy\n        /* \"contracts/cake.sol\":24325:24336  _allowances */\n      0x02\n        /* \"contracts/cake.sol\":24325:24350  _allowances[_msgSender()] */\n      0x00\n        /* \"contracts/cake.sol\":24337:24349  _msgSender() */\n      tag_189\n        /* \"contracts/cake.sol\":24337:24347  _msgSender */\n      tag_123\n        /* \"contracts/cake.sol\":24337:24349  _msgSender() */\n      jump\t// in\n    tag_189:\n      sub(shl(0xa0, 0x01), 0x01)\n        /* \"contracts/cake.sol\":24325:24350  _allowances[_msgSender()] */\n      swap1\n      dup2\n      and\n      dup3\n      mstore\n      0x20\n      dup1\n      dup4\n      add\n      swap4\n      swap1\n      swap4\n      mstore\n      0x40\n      swap2\n      dup3\n      add\n      0x00\n      swap1\n      dup2\n      keccak256\n        /* \"contracts/cake.sol\":24325:24359  _allowances[_msgSender()][spender] */\n      swap2\n      dup14\n      and\n      dup2\n      mstore\n      swap3\n      mstore\n      swap1\n      keccak256\n      sload\n      swap2\n        /* \"contracts/cake.sol\":24325:24422  _allowances[_msgSender()][spender].sub(subtractedValue, 'CAKE20: decreased allowance below zero') */\n      swap1\n        /* \"contracts/cake.sol\":24325:24363  _allowances[_msgSender()][spender].sub */\n      tag_133\n        /* \"contracts/cake.sol\":24325:24422  _allowances[_msgSender()][spender].sub(subtractedValue, 'CAKE20: decreased allowance below zero') */\n      jump\t// in\n        /* \"contracts/cake.sol\":21562:21726  function transfer(address recipient, uint256 amount) public override returns (bool) {... */\n    tag_98:\n        /* \"contracts/cake.sol\":21640:21644  bool */\n      0x00\n        /* \"contracts/cake.sol\":21656:21698  _transfer(_msgSender(), recipient, amount) */\n      tag_121\n        /* \"contracts/cake.sol\":21666:21678  _msgSender() */\n      tag_192\n        /* \"contracts/cake.sol\":21666:21676  _msgSender */\n      tag_123\n        /* \"contracts/cake.sol\":21666:21678  _msgSender() */\n      jump\t// in\n    tag_192:\n        /* \"contracts/cake.sol\":21680:21689  recipient */\n      dup5\n        /* \"contracts/cake.sol\":21691:21697  amount */\n      dup5\n        /* \"contracts/cake.sol\":21656:21665  _transfer */\n      tag_128\n        /* \"contracts/cake.sol\":21656:21698  _transfer(_msgSender(), recipient, amount) */\n      jump\t// in\n        /* \"contracts/cake.sol\":32648:32896  function getCurrentVotes(address account)... */\n    tag_101:\n      sub(shl(0xa0, 0x01), 0x01)\n        /* \"contracts/cake.sol\":32782:32805  numCheckpoints[account] */\n      dup2\n      and\n        /* \"contracts/cake.sol\":32737:32744  uint256 */\n      0x00\n        /* \"contracts/cake.sol\":32782:32805  numCheckpoints[account] */\n      swap1\n      dup2\n      mstore\n        /* \"contracts/cake.sol\":32782:32796  numCheckpoints */\n      0x09\n        /* \"contracts/cake.sol\":32782:32805  numCheckpoints[account] */\n      0x20\n      mstore\n      0x40\n      dup2\n      keccak256\n      sload\n      0xffffffff\n      and\n        /* \"contracts/cake.sol\":32822:32838  nCheckpoints > 0 */\n      dup1\n        /* \"contracts/cake.sol\":32822:32889  nCheckpoints > 0 ? checkpoints[account][nCheckpoints - 1].votes : 0 */\n      tag_194\n      jumpi\n        /* \"contracts/cake.sol\":32888:32889  0 */\n      0x00\n        /* \"contracts/cake.sol\":32822:32889  nCheckpoints > 0 ? checkpoints[account][nCheckpoints - 1].votes : 0 */\n      jump(tag_195)\n    tag_194:\n      sub(shl(0xa0, 0x01), 0x01)\n        /* \"contracts/cake.sol\":32841:32861  checkpoints[account] */\n      dup4\n      and\n      0x00\n      swap1\n      dup2\n      mstore\n        /* \"contracts/cake.sol\":32841:32852  checkpoints */\n      0x08\n        /* \"contracts/cake.sol\":32841:32861  checkpoints[account] */\n      0x20\n      swap1\n      dup2\n      mstore\n      0x40\n      dup1\n      dup4\n      keccak256\n        /* \"contracts/cake.sol\":32841:32879  checkpoints[account][nCheckpoints - 1] */\n      0xffffffff\n      not(0x00)\n        /* \"contracts/cake.sol\":32862:32878  nCheckpoints - 1 */\n      dup7\n      add\n        /* \"contracts/cake.sol\":32841:32879  checkpoints[account][nCheckpoints - 1] */\n      and\n      dup5\n      mstore\n      swap1\n      swap2\n      mstore\n      swap1\n      keccak256\n        /* \"contracts/cake.sol\":32877:32878  1 */\n      0x01\n        /* \"contracts/cake.sol\":32841:32885  checkpoints[account][nCheckpoints - 1].votes */\n      add\n      sload\n        /* \"contracts/cake.sol\":32822:32889  nCheckpoints > 0 ? checkpoints[account][nCheckpoints - 1].votes : 0 */\n    tag_195:\n        /* \"contracts/cake.sol\":32815:32889  return nCheckpoints > 0 ? checkpoints[account][nCheckpoints - 1].votes : 0 */\n      swap4\n        /* \"contracts/cake.sol\":32648:32896  function getCurrentVotes(address account)... */\n      swap3\n      pop\n      pop\n      pop\n      jump\t// out\n        /* \"contracts/cake.sol\":31317:32454  function delegateBySig(... */\n    tag_104:\n        /* \"contracts/cake.sol\":31500:31523  bytes32 domainSeparator */\n      0x00\n        /* \"contracts/cake.sol\":29588:29668  keccak256(\"EIP712Domain(string name,uint256 chainId,address verifyingContract)\") */\n      0x8cad95687ba82c2ce50e74f7b754645e5117c3a5bec8151c0726d5857980a866\n        /* \"contracts/cake.sol\":31626:31632  name() */\n      tag_197\n        /* \"contracts/cake.sol\":31626:31630  name */\n      tag_37\n        /* \"contracts/cake.sol\":31626:31632  name() */\n      jump\t// in\n    tag_197:\n        /* \"contracts/cake.sol\":31610:31634  keccak256(bytes(name())) */\n      dup1\n      mload\n      swap1\n      0x20\n      add\n      keccak256\n        /* \"contracts/cake.sol\":31652:31664  getChainId() */\n      tag_198\n        /* \"contracts/cake.sol\":31652:31662  getChainId */\n      tag_199\n        /* \"contracts/cake.sol\":31652:31664  getChainId() */\n      jump\t// in\n    tag_198:\n        /* \"contracts/cake.sol\":31549:31709  abi.encode(... */\n      0x40\n      dup1\n      mload\n      0x20\n      dup1\n      dup3\n      add\n      swap6\n      swap1\n      swap6\n      mstore\n      dup1\n      dup3\n      add\n      swap4\n      swap1\n      swap4\n      mstore\n      0x60\n      dup4\n      add\n      swap2\n      swap1\n      swap2\n      mstore\n        /* \"contracts/cake.sol\":31690:31694  this */\n      address\n        /* \"contracts/cake.sol\":31549:31709  abi.encode(... */\n      0x80\n      dup1\n      dup5\n      add\n      swap2\n      swap1\n      swap2\n      mstore\n      dup2\n      mload\n      dup1\n      dup5\n      sub\n      swap1\n      swap2\n      add\n      dup2\n      mstore\n      0xa0\n      dup4\n      add\n      dup3\n      mstore\n        /* \"contracts/cake.sol\":31526:31719  keccak256(... */\n      dup1\n      mload\n      swap1\n      dup5\n      add\n      keccak256\n        /* \"contracts/cake.sol\":29805:29876  keccak256(\"Delegation(address delegatee,uint256 nonce,uint256 expiry)\") */\n      0xe48329057bfd03d55e49b547132e39cffd9c1820ad7b9d4c5307691425d15adf\n        /* \"contracts/cake.sol\":31774:31909  abi.encode(... */\n      0xc0\n      dup5\n      add\n      mstore\n      sub(shl(0xa0, 0x01), 0x01)\n      dup12\n      and\n      0xe0\n      dup5\n      add\n      mstore\n      0x0100\n      dup4\n      add\n      dup11\n      swap1\n      mstore\n      0x0120\n      dup1\n      dup5\n      add\n      dup11\n      swap1\n      mstore\n      dup3\n      mload\n      dup1\n      dup6\n      sub\n      swap1\n      swap2\n      add\n      dup2\n      mstore\n      0x0140\n      dup5\n      add\n      dup4\n      mstore\n        /* \"contracts/cake.sol\":31751:31919  keccak256(... */\n      dup1\n      mload\n      swap1\n      dup6\n      add\n      keccak256\n      shl(0xf0, 0x1901)\n        /* \"contracts/cake.sol\":31970:32089  abi.encodePacked(... */\n      0x0160\n      dup6\n      add\n      mstore\n      0x0162\n      dup5\n      add\n      dup3\n      swap1\n      mstore\n      0x0182\n      dup1\n      dup6\n      add\n      dup3\n      swap1\n      mstore\n      dup4\n      mload\n      dup1\n      dup7\n      sub\n      swap1\n      swap2\n      add\n      dup2\n      mstore\n      0x01a2\n      dup6\n      add\n      dup1\n      dup6\n      mstore\n        /* \"contracts/cake.sol\":31947:32099  keccak256(... */\n      dup2\n      mload\n      swap2\n      dup8\n      add\n      swap2\n      swap1\n      swap2\n      keccak256\n      0x00\n        /* \"contracts/cake.sol\":32130:32156  ecrecover(digest, v, r, s) */\n      swap2\n      dup3\n      swap1\n      mstore\n      0x01c2\n      dup7\n      add\n      dup1\n      dup7\n      mstore\n      dup2\n      swap1\n      mstore\n      0xff\n      dup12\n      and\n      0x01e2\n      dup8\n      add\n      mstore\n      0x0202\n      dup7\n      add\n      dup11\n      swap1\n      mstore\n      0x0222\n      dup7\n      add\n      dup10\n      swap1\n      mstore\n      swap4\n      mload\n        /* \"contracts/cake.sol\":31526:31719  keccak256(... */\n      swap3\n      swap7\n      pop\n        /* \"contracts/cake.sol\":31751:31919  keccak256(... */\n      swap1\n      swap5\n        /* \"contracts/cake.sol\":31947:32099  keccak256(... */\n      swap3\n      swap4\n      swap1\n      swap3\n        /* \"contracts/cake.sol\":32130:32156  ecrecover(digest, v, r, s) */\n      0x01\n      swap3\n      0x0242\n      dup1\n      dup5\n      add\n      swap4\n      not(0x1f)\n      dup4\n      add\n      swap3\n      swap1\n      dup2\n      swap1\n      sub\n      swap1\n      swap2\n      add\n      swap1\n      dup6\n      gas\n      staticcall\n      iszero\n      dup1\n      iszero\n      tag_201\n      jumpi\n      returndatasize\n      0x00\n      dup1\n      returndatacopy\n      revert(0x00, returndatasize)\n    tag_201:\n      pop\n      pop\n      mload(add(not(0x1f), mload(0x40)))\n      swap2\n      pop\n      pop\n      sub(shl(0xa0, 0x01), 0x01)\n        /* \"contracts/cake.sol\":32174:32197  signatory != address(0) */\n      dup2\n      and\n        /* \"contracts/cake.sol\":32166:32240  require(signatory != address(0), \"CAKE::delegateBySig: invalid signature\") */\n      tag_202\n      jumpi\n      mload(0x40)\n      shl(0xe5, 0x461bcd)\n      dup2\n      mstore\n      0x04\n      add\n      dup1\n      dup1\n      0x20\n      add\n      dup3\n      dup2\n      sub\n      dup3\n      mstore\n      0x26\n      dup2\n      mstore\n      0x20\n      add\n      dup1\n      data_8c9772d8870faf984838fdb1a6a39869b314cedd021c20fb983e461d778f09aa\n      0x26\n      swap2\n      codecopy\n      0x40\n      add\n      swap2\n      pop\n      pop\n      mload(0x40)\n      dup1\n      swap2\n      sub\n      swap1\n      revert\n    tag_202:\n      sub(shl(0xa0, 0x01), 0x01)\n        /* \"contracts/cake.sol\":32267:32284  nonces[signatory] */\n      dup2\n      and\n      0x00\n      swap1\n      dup2\n      mstore\n        /* \"contracts/cake.sol\":32267:32273  nonces */\n      0x0a\n        /* \"contracts/cake.sol\":32267:32284  nonces[signatory] */\n      0x20\n      mstore\n      0x40\n      swap1\n      keccak256\n        /* \"contracts/cake.sol\":32267:32286  nonces[signatory]++ */\n      dup1\n      sload\n      0x01\n      dup2\n      add\n      swap1\n      swap2\n      sstore\n        /* \"contracts/cake.sol\":32258:32286  nonce == nonces[signatory]++ */\n      dup10\n      eq\n        /* \"contracts/cake.sol\":32250:32325  require(nonce == nonces[signatory]++, \"CAKE::delegateBySig: invalid nonce\") */\n      tag_203\n      jumpi\n      mload(0x40)\n      shl(0xe5, 0x461bcd)\n      dup2\n      mstore\n      0x04\n      add\n      dup1\n      dup1\n      0x20\n      add\n      dup3\n      dup2\n      sub\n      dup3\n      mstore\n      0x22\n      dup2\n      mstore\n      0x20\n      add\n      dup1\n      data_aa9ee17312be9dc937c6c61d6a03a6c21827d2f9c3e6dfea349c1095e56db22f\n      0x22\n      swap2\n      codecopy\n      0x40\n      add\n      swap2\n      pop\n      pop\n      mload(0x40)\n      dup1\n      swap2\n      sub\n      swap1\n      revert\n    tag_203:\n        /* \"contracts/cake.sol\":32350:32356  expiry */\n      dup8\n        /* \"contracts/cake.sol\":32343:32346  now */\n      timestamp\n        /* \"contracts/cake.sol\":32343:32356  now <= expiry */\n      gt\n      iszero\n        /* \"contracts/cake.sol\":32335:32399  require(now <= expiry, \"CAKE::delegateBySig: signature expired\") */\n      tag_204\n      jumpi\n      mload(0x40)\n      shl(0xe5, 0x461bcd)\n      dup2\n      mstore\n      0x04\n      add\n      dup1\n      dup1\n      0x20\n      add\n      dup3\n      dup2\n      sub\n      dup3\n      mstore\n      0x26\n      dup2\n      mstore\n      0x20\n      add\n      dup1\n      data_2975ff3a9c2df4c97fcc8bda6ff60212c199edfef1308a20efc5c659649e98eb\n      0x26\n      swap2\n      codecopy\n      0x40\n      add\n      swap2\n      pop\n      pop\n      mload(0x40)\n      dup1\n      swap2\n      sub\n      swap1\n      revert\n    tag_204:\n        /* \"contracts/cake.sol\":32416:32447  _delegate(signatory, delegatee) */\n      tag_205\n        /* \"contracts/cake.sol\":32426:32435  signatory */\n      dup2\n        /* \"contracts/cake.sol\":32437:32446  delegatee */\n      dup12\n        /* \"contracts/cake.sol\":32416:32425  _delegate */\n      tag_152\n        /* \"contracts/cake.sol\":32416:32447  _delegate(signatory, delegatee) */\n      jump\t// in\n    tag_205:\n        /* \"contracts/cake.sol\":32409:32447  return _delegate(signatory, delegatee) */\n      pop\n      pop\n      pop\n      pop\n        /* \"contracts/cake.sol\":31317:32454  function delegateBySig(... */\n    tag_196:\n      pop\n      pop\n      pop\n      pop\n      pop\n      pop\n      jump\t// out\n        /* \"contracts/cake.sol\":21784:21925  function allowance(address owner, address spender) public override view returns (uint256) {... */\n    tag_107:\n      sub(shl(0xa0, 0x01), 0x01)\n        /* \"contracts/cake.sol\":21891:21909  _allowances[owner] */\n      swap2\n      dup3\n      and\n        /* \"contracts/cake.sol\":21865:21872  uint256 */\n      0x00\n        /* \"contracts/cake.sol\":21891:21909  _allowances[owner] */\n      swap1\n      dup2\n      mstore\n        /* \"contracts/cake.sol\":21891:21902  _allowances */\n      0x02\n        /* \"contracts/cake.sol\":21891:21909  _allowances[owner] */\n      0x20\n      swap1\n      dup2\n      mstore\n      0x40\n      dup1\n      dup4\n      keccak256\n        /* \"contracts/cake.sol\":21891:21918  _allowances[owner][spender] */\n      swap4\n      swap1\n      swap5\n      and\n      dup3\n      mstore\n      swap2\n      swap1\n      swap2\n      mstore\n      keccak256\n      sload\n      swap1\n        /* \"contracts/cake.sol\":21784:21925  function allowance(address owner, address spender) public override view returns (uint256) {... */\n      jump\t// out\n        /* \"contracts/cake.sol\":29759:29876  bytes32 public constant DELEGATION_TYPEHASH = keccak256(\"Delegation(address delegatee,uint256 nonce,uint256 expiry)\") */\n    tag_109:\n        /* \"contracts/cake.sol\":29805:29876  keccak256(\"Delegation(address delegatee,uint256 nonce,uint256 expiry)\") */\n      0xe48329057bfd03d55e49b547132e39cffd9c1820ad7b9d4c5307691425d15adf\n        /* \"contracts/cake.sol\":29759:29876  bytes32 public constant DELEGATION_TYPEHASH = keccak256(\"Delegation(address delegatee,uint256 nonce,uint256 expiry)\") */\n      dup2\n      jump\t// out\n        /* \"contracts/cake.sol\":29291:29361  mapping (address => mapping (uint32 => Checkpoint)) public checkpoints */\n    tag_112:\n      0x08\n      0x20\n      swap1\n      dup2\n      mstore\n      0x00\n      swap3\n      dup4\n      mstore\n      0x40\n      dup1\n      dup5\n      keccak256\n      swap1\n      swap2\n      mstore\n      swap1\n      dup3\n      mstore\n      swap1\n      keccak256\n      dup1\n      sload\n      0x01\n      swap1\n      swap2\n      add\n      sload\n      0xffffffff\n      swap1\n      swap2\n      and\n      swap1\n      dup3\n      jump\t// out\n        /* \"contracts/cake.sol\":2989:3096  function transferOwnership(address newOwner) public onlyOwner {... */\n    tag_115:\n        /* \"contracts/cake.sol\":2294:2306  _msgSender() */\n      tag_208\n        /* \"contracts/cake.sol\":2294:2304  _msgSender */\n      tag_123\n        /* \"contracts/cake.sol\":2294:2306  _msgSender() */\n      jump\t// in\n    tag_208:\n        /* \"contracts/cake.sol\":2284:2290  _owner */\n      sload(0x00)\n      sub(shl(0xa0, 0x01), 0x01)\n      swap1\n      dup2\n      and\n        /* \"contracts/cake.sol\":2284:2306  _owner == _msgSender() */\n      swap2\n      and\n      eq\n        /* \"contracts/cake.sol\":2276:2343  require(_owner == _msgSender(), 'Ownable: caller is not the owner') */\n      tag_209\n      jumpi\n      0x40\n      dup1\n      mload\n      shl(0xe5, 0x461bcd)\n      dup2\n      mstore\n      0x20\n      0x04\n      dup3\n      add\n      dup2\n      swap1\n      mstore\n      0x24\n      dup3\n      add\n      mstore\n      0x00\n      dup1\n      mload\n      0x20\n      data_9924ebdf1add33d25d4ef888e16131f0a5687b0580a36c21b5c301a6c462effe\n      dup4\n      codecopy\n      dup2\n      mload\n      swap2\n      mstore\n      0x44\n      dup3\n      add\n      mstore\n      swap1\n      mload\n      swap1\n      dup2\n      swap1\n      sub\n      0x64\n      add\n      swap1\n      revert\n    tag_209:\n        /* \"contracts/cake.sol\":3061:3089  _transferOwnership(newOwner) */\n      tag_151\n        /* \"contracts/cake.sol\":3080:3088  newOwner */\n      dup2\n        /* \"contracts/cake.sol\":3061:3079  _transferOwnership */\n      tag_212\n        /* \"contracts/cake.sol\":3061:3089  _transferOwnership(newOwner) */\n      jump\t// in\n        /* \"contracts/cake.sol\":770:866  function _msgSender() internal view returns (address payable) {... */\n    tag_123:\n        /* \"contracts/cake.sol\":849:859  msg.sender */\n      caller\n        /* \"contracts/cake.sol\":770:866  function _msgSender() internal view returns (address payable) {... */\n      swap1\n      jump\t// out\n        /* \"contracts/cake.sol\":27427:27791  function _approve(... */\n    tag_124:\n      sub(shl(0xa0, 0x01), 0x01)\n        /* \"contracts/cake.sol\":27550:27569  owner != address(0) */\n      dup4\n      and\n        /* \"contracts/cake.sol\":27542:27611  require(owner != address(0), 'CAKE20: approve from the zero address') */\n      tag_215\n      jumpi\n      mload(0x40)\n      shl(0xe5, 0x461bcd)\n      dup2\n      mstore\n      0x04\n      add\n      dup1\n      dup1\n      0x20\n      add\n      dup3\n      dup2\n      sub\n      dup3\n      mstore\n      0x25\n      dup2\n      mstore\n      0x20\n      add\n      dup1\n      data_c8a22d3b0f46cb8553e794906ffc1b6e8656f593e72d64cb7102cb1f934afaf6\n      0x25\n      swap2\n      codecopy\n      0x40\n      add\n      swap2\n      pop\n      pop\n      mload(0x40)\n      dup1\n      swap2\n      sub\n      swap1\n      revert\n    tag_215:\n      sub(shl(0xa0, 0x01), 0x01)\n        /* \"contracts/cake.sol\":27629:27650  spender != address(0) */\n      dup3\n      and\n        /* \"contracts/cake.sol\":27621:27690  require(spender != address(0), 'CAKE20: approve to the zero address') */\n      tag_216\n      jumpi\n      mload(0x40)\n      shl(0xe5, 0x461bcd)\n      dup2\n      mstore\n      0x04\n      add\n      dup1\n      dup1\n      0x20\n      add\n      dup3\n      dup2\n      sub\n      dup3\n      mstore\n      0x23\n      dup2\n      mstore\n      0x20\n      add\n      dup1\n      data_818980e094d98e32545e5a09b38cf4334a5aa9765c6adbd223fdb87d9a48dd60\n      0x23\n      swap2\n      codecopy\n      0x40\n      add\n      swap2\n      pop\n      pop\n      mload(0x40)\n      dup1\n      swap2\n      sub\n      swap1\n      revert\n    tag_216:\n      sub(shl(0xa0, 0x01), 0x01)\n        /* \"contracts/cake.sol\":27701:27719  _allowances[owner] */\n      dup1\n      dup5\n      and\n      0x00\n      dup2\n      dup2\n      mstore\n        /* \"contracts/cake.sol\":27701:27712  _allowances */\n      0x02\n        /* \"contracts/cake.sol\":27701:27719  _allowances[owner] */\n      0x20\n      swap1\n      dup2\n      mstore\n      0x40\n      dup1\n      dup4\n      keccak256\n        /* \"contracts/cake.sol\":27701:27728  _allowances[owner][spender] */\n      swap5\n      dup8\n      and\n      dup1\n      dup5\n      mstore\n      swap5\n      dup3\n      mstore\n      swap2\n      dup3\n      swap1\n      keccak256\n        /* \"contracts/cake.sol\":27701:27737  _allowances[owner][spender] = amount */\n      dup6\n      swap1\n      sstore\n        /* \"contracts/cake.sol\":27752:27784  Approval(owner, spender, amount) */\n      dup2\n      mload\n      dup6\n      dup2\n      mstore\n      swap2\n      mload\n      0x8c5be1e5ebec7d5bd14f71427d1e84f3dd0314c0f7b2291e5b200ac8c7c3b925\n      swap3\n      dup2\n      swap1\n      sub\n      swap1\n      swap2\n      add\n      swap1\n      log3\n        /* \"contracts/cake.sol\":27427:27791  function _approve(... */\n      pop\n      pop\n      pop\n      jump\t// out\n        /* \"contracts/cake.sol\":25269:25766  function _transfer(... */\n    tag_128:\n      sub(shl(0xa0, 0x01), 0x01)\n        /* \"contracts/cake.sol\":25396:25416  sender != address(0) */\n      dup4\n      and\n        /* \"contracts/cake.sol\":25388:25459  require(sender != address(0), 'CAKE20: transfer from the zero address') */\n      tag_218\n      jumpi\n      mload(0x40)\n      shl(0xe5, 0x461bcd)\n      dup2\n      mstore\n      0x04\n      add\n      dup1\n      dup1\n      0x20\n      add\n      dup3\n      dup2\n      sub\n      dup3\n      mstore\n      0x26\n      dup2\n      mstore\n      0x20\n      add\n      dup1\n      data_9f602c3ca62830526fb39312611c26f66e9439b2bdd3e2c3a3e2a522717508c4\n      0x26\n      swap2\n      codecopy\n      0x40\n      add\n      swap2\n      pop\n      pop\n      mload(0x40)\n      dup1\n      swap2\n      sub\n      swap1\n      revert\n    tag_218:\n      sub(shl(0xa0, 0x01), 0x01)\n        /* \"contracts/cake.sol\":25477:25500  recipient != address(0) */\n      dup3\n      and\n        /* \"contracts/cake.sol\":25469:25541  require(recipient != address(0), 'CAKE20: transfer to the zero address') */\n      tag_219\n      jumpi\n      mload(0x40)\n      shl(0xe5, 0x461bcd)\n      dup2\n      mstore\n      0x04\n      add\n      dup1\n      dup1\n      0x20\n      add\n      dup3\n      dup2\n      sub\n      dup3\n      mstore\n      0x24\n      dup2\n      mstore\n      0x20\n      add\n      dup1\n      data_ac1d5373694637d2969063be6d0102dc19599842fefc49d9b9656600338f4bd7\n      0x24\n      swap2\n      codecopy\n      0x40\n      add\n      swap2\n      pop\n      pop\n      mload(0x40)\n      dup1\n      swap2\n      sub\n      swap1\n      revert\n    tag_219:\n        /* \"contracts/cake.sol\":25572:25644  _balances[sender].sub(amount, 'CAKE20: transfer amount exceeds balance') */\n      tag_220\n        /* \"contracts/cake.sol\":25594:25600  amount */\n      dup2\n        /* \"contracts/cake.sol\":25572:25644  _balances[sender].sub(amount, 'CAKE20: transfer amount exceeds balance') */\n      mload(0x40)\n      dup1\n      0x60\n      add\n      0x40\n      mstore\n      dup1\n      0x27\n      dup2\n      mstore\n      0x20\n      add\n      data_6883c37a4c18e68948a3674af93a21b6c0026d301016300c1e6da51f1448eb28\n      0x27\n      swap2\n      codecopy\n      sub(shl(0xa0, 0x01), 0x01)\n        /* \"contracts/cake.sol\":25572:25589  _balances[sender] */\n      dup7\n      and\n      0x00\n      swap1\n      dup2\n      mstore\n        /* \"contracts/cake.sol\":25572:25581  _balances */\n      0x01\n        /* \"contracts/cake.sol\":25572:25589  _balances[sender] */\n      0x20\n      mstore\n      0x40\n      swap1\n      keccak256\n      sload\n      swap2\n        /* \"contracts/cake.sol\":25572:25644  _balances[sender].sub(amount, 'CAKE20: transfer amount exceeds balance') */\n      swap1\n        /* \"contracts/cake.sol\":25572:25593  _balances[sender].sub */\n      tag_133\n        /* \"contracts/cake.sol\":25572:25644  _balances[sender].sub(amount, 'CAKE20: transfer amount exceeds balance') */\n      jump\t// in\n    tag_220:\n      sub(shl(0xa0, 0x01), 0x01)\n        /* \"contracts/cake.sol\":25552:25569  _balances[sender] */\n      dup1\n      dup6\n      and\n      0x00\n      swap1\n      dup2\n      mstore\n        /* \"contracts/cake.sol\":25552:25561  _balances */\n      0x01\n        /* \"contracts/cake.sol\":25552:25569  _balances[sender] */\n      0x20\n      mstore\n      0x40\n      dup1\n      dup3\n      keccak256\n        /* \"contracts/cake.sol\":25552:25644  _balances[sender] = _balances[sender].sub(amount, 'CAKE20: transfer amount exceeds balance') */\n      swap4\n      swap1\n      swap4\n      sstore\n        /* \"contracts/cake.sol\":25677:25697  _balances[recipient] */\n      swap1\n      dup5\n      and\n      dup2\n      mstore\n      keccak256\n      sload\n        /* \"contracts/cake.sol\":25677:25709  _balances[recipient].add(amount) */\n      tag_221\n      swap1\n        /* \"contracts/cake.sol\":25702:25708  amount */\n      dup3\n        /* \"contracts/cake.sol\":25677:25701  _balances[recipient].add */\n      tag_140\n        /* \"contracts/cake.sol\":25677:25709  _balances[recipient].add(amount) */\n      jump\t// in\n    tag_221:\n      sub(shl(0xa0, 0x01), 0x01)\n        /* \"contracts/cake.sol\":25654:25674  _balances[recipient] */\n      dup1\n      dup5\n      and\n      0x00\n      dup2\n      dup2\n      mstore\n        /* \"contracts/cake.sol\":25654:25663  _balances */\n      0x01\n        /* \"contracts/cake.sol\":25654:25674  _balances[recipient] */\n      0x20\n      swap1\n      dup2\n      mstore\n      0x40\n      swap2\n      dup3\n      swap1\n      keccak256\n        /* \"contracts/cake.sol\":25654:25709  _balances[recipient] = _balances[recipient].add(amount) */\n      swap5\n      swap1\n      swap5\n      sstore\n        /* \"contracts/cake.sol\":25724:25759  Transfer(sender, recipient, amount) */\n      dup1\n      mload\n      dup6\n      dup2\n      mstore\n      swap1\n      mload\n        /* \"contracts/cake.sol\":25654:25674  _balances[recipient] */\n      swap2\n      swap4\n        /* \"contracts/cake.sol\":25724:25759  Transfer(sender, recipient, amount) */\n      swap3\n      dup8\n      and\n      swap3\n      0xddf252ad1be2c89b69c2b068fc378daa952ba7f163c4a11628f55a4df523b3ef\n      swap3\n      swap2\n      dup3\n      swap1\n      sub\n      add\n      swap1\n      log3\n        /* \"contracts/cake.sol\":25269:25766  function _transfer(... */\n      pop\n      pop\n      pop\n      jump\t// out\n        /* \"contracts/cake.sol\":8178:8395  function sub(... */\n    tag_133:\n        /* \"contracts/cake.sol\":8294:8301  uint256 */\n      0x00\n        /* \"contracts/cake.sol\":8329:8341  errorMessage */\n      dup2\n        /* \"contracts/cake.sol\":8321:8327  b <= a */\n      dup5\n      dup5\n      gt\n      iszero\n        /* \"contracts/cake.sol\":8313:8342  require(b <= a, errorMessage) */\n      tag_223\n      jumpi\n      mload(0x40)\n      shl(0xe5, 0x461bcd)\n      dup2\n      mstore\n      0x04\n      add\n      dup1\n      dup1\n      0x20\n      add\n      dup3\n      dup2\n      sub\n      dup3\n      mstore\n      dup4\n      dup2\n      dup2\n      mload\n      dup2\n      mstore\n      0x20\n      add\n      swap2\n      pop\n      dup1\n      mload\n      swap1\n      0x20\n      add\n      swap1\n      dup1\n      dup4\n      dup4\n      0x00\n    tag_224:\n      dup4\n      dup2\n      lt\n      iszero\n      tag_226\n      jumpi\n      dup2\n      dup2\n      add\n      mload\n      dup4\n      dup3\n      add\n      mstore\n      0x20\n      add\n      jump(tag_224)\n    tag_226:\n      pop\n      pop\n      pop\n      pop\n      swap1\n      pop\n      swap1\n      dup2\n      add\n      swap1\n      0x1f\n      and\n      dup1\n      iszero\n      tag_227\n      jumpi\n      dup1\n      dup3\n      sub\n      dup1\n      mload\n      0x01\n      dup4\n      0x20\n      sub\n      0x0100\n      exp\n      sub\n      not\n      and\n      dup2\n      mstore\n      0x20\n      add\n      swap2\n      pop\n    tag_227:\n      pop\n      swap3\n      pop\n      pop\n      pop\n      mload(0x40)\n      dup1\n      swap2\n      sub\n      swap1\n      revert\n    tag_223:\n      pop\n      pop\n      pop\n        /* \"contracts/cake.sol\":8364:8369  a - b */\n      swap1\n      sub\n      swap1\n        /* \"contracts/cake.sol\":8178:8395  function sub(... */\n      jump\t// out\n        /* \"contracts/cake.sol\":7306:7482  function add(uint256 a, uint256 b) internal pure returns (uint256) {... */\n    tag_140:\n        /* \"contracts/cake.sol\":7364:7371  uint256 */\n      0x00\n        /* \"contracts/cake.sol\":7395:7400  a + b */\n      dup3\n      dup3\n      add\n        /* \"contracts/cake.sol\":7418:7424  c >= a */\n      dup4\n      dup2\n      lt\n      iszero\n        /* \"contracts/cake.sol\":7410:7456  require(c >= a, 'SafeMath: addition overflow') */\n      tag_195\n      jumpi\n      0x40\n      dup1\n      mload\n      shl(0xe5, 0x461bcd)\n      dup2\n      mstore\n      0x20\n      0x04\n      dup3\n      add\n      mstore\n      0x1b\n      0x24\n      dup3\n      add\n      mstore\n      0x536166654d6174683a206164646974696f6e206f766572666c6f770000000000\n      0x44\n      dup3\n      add\n      mstore\n      swap1\n      mload\n      swap1\n      dup2\n      swap1\n      sub\n      0x64\n      add\n      swap1\n      revert\n        /* \"contracts/cake.sol\":26036:26339  function _mint(address account, uint256 amount) internal {... */\n    tag_146:\n      sub(shl(0xa0, 0x01), 0x01)\n        /* \"contracts/cake.sol\":26111:26132  account != address(0) */\n      dup3\n      and\n        /* \"contracts/cake.sol\":26103:26169  require(account != address(0), 'CAKE20: mint to the zero address') */\n      tag_231\n      jumpi\n      0x40\n      dup1\n      mload\n      shl(0xe5, 0x461bcd)\n      dup2\n      mstore\n      0x20\n      0x04\n      dup3\n      add\n      dup2\n      swap1\n      mstore\n      0x24\n      dup3\n      add\n      mstore\n      0x43414b4532303a206d696e7420746f20746865207a65726f2061646472657373\n      0x44\n      dup3\n      add\n      mstore\n      swap1\n      mload\n      swap1\n      dup2\n      swap1\n      sub\n      0x64\n      add\n      swap1\n      revert\n    tag_231:\n        /* \"contracts/cake.sol\":26195:26207  _totalSupply */\n      sload(0x03)\n        /* \"contracts/cake.sol\":26195:26219  _totalSupply.add(amount) */\n      tag_232\n      swap1\n        /* \"contracts/cake.sol\":26212:26218  amount */\n      dup3\n        /* \"contracts/cake.sol\":26195:26211  _totalSupply.add */\n      tag_140\n        /* \"contracts/cake.sol\":26195:26219  _totalSupply.add(amount) */\n      jump\t// in\n    tag_232:\n        /* \"contracts/cake.sol\":26180:26192  _totalSupply */\n      0x03\n        /* \"contracts/cake.sol\":26180:26219  _totalSupply = _totalSupply.add(amount) */\n      sstore\n      sub(shl(0xa0, 0x01), 0x01)\n        /* \"contracts/cake.sol\":26250:26268  _balances[account] */\n      dup3\n      and\n      0x00\n      swap1\n      dup2\n      mstore\n        /* \"contracts/cake.sol\":26250:26259  _balances */\n      0x01\n        /* \"contracts/cake.sol\":26250:26268  _balances[account] */\n      0x20\n      mstore\n      0x40\n      swap1\n      keccak256\n      sload\n        /* \"contracts/cake.sol\":26250:26280  _balances[account].add(amount) */\n      tag_233\n      swap1\n        /* \"contracts/cake.sol\":26273:26279  amount */\n      dup3\n        /* \"contracts/cake.sol\":26250:26272  _balances[account].add */\n      tag_140\n        /* \"contracts/cake.sol\":26250:26280  _balances[account].add(amount) */\n      jump\t// in\n    tag_233:\n      sub(shl(0xa0, 0x01), 0x01)\n        /* \"contracts/cake.sol\":26229:26247  _balances[account] */\n      dup4\n      and\n      0x00\n      dup2\n      dup2\n      mstore\n        /* \"contracts/cake.sol\":26229:26238  _balances */\n      0x01\n        /* \"contracts/cake.sol\":26229:26247  _balances[account] */\n      0x20\n      swap1\n      dup2\n      mstore\n      0x40\n      dup1\n      dup4\n      keccak256\n        /* \"contracts/cake.sol\":26229:26280  _balances[account] = _balances[account].add(amount) */\n      swap5\n      swap1\n      swap5\n      sstore\n        /* \"contracts/cake.sol\":26295:26332  Transfer(address(0), account, amount) */\n      dup4\n      mload\n      dup6\n      dup2\n      mstore\n      swap4\n      mload\n        /* \"contracts/cake.sol\":26229:26247  _balances[account] */\n      swap3\n      swap4\n      swap2\n      swap3\n        /* \"contracts/cake.sol\":26295:26332  Transfer(address(0), account, amount) */\n      0xddf252ad1be2c89b69c2b068fc378daa952ba7f163c4a11628f55a4df523b3ef\n      swap3\n      dup2\n      swap1\n      sub\n      swap1\n      swap2\n      add\n      swap1\n      log3\n        /* \"contracts/cake.sol\":26036:26339  function _mint(address account, uint256 amount) internal {... */\n      pop\n      pop\n      jump\t// out\n        /* \"contracts/cake.sol\":34975:35904  function _moveDelegates(address srcRep, address dstRep, uint256 amount) internal {... */\n    tag_148:\n        /* \"contracts/cake.sol\":35080:35086  dstRep */\n      dup2\n      sub(shl(0xa0, 0x01), 0x01)\n        /* \"contracts/cake.sol\":35070:35086  srcRep != dstRep */\n      and\n        /* \"contracts/cake.sol\":35070:35076  srcRep */\n      dup4\n      sub(shl(0xa0, 0x01), 0x01)\n        /* \"contracts/cake.sol\":35070:35086  srcRep != dstRep */\n      and\n      eq\n      iszero\n        /* \"contracts/cake.sol\":35070:35100  srcRep != dstRep && amount > 0 */\n      dup1\n      iszero\n      tag_235\n      jumpi\n      pop\n        /* \"contracts/cake.sol\":35099:35100  0 */\n      0x00\n        /* \"contracts/cake.sol\":35090:35096  amount */\n      dup2\n        /* \"contracts/cake.sol\":35090:35100  amount > 0 */\n      gt\n        /* \"contracts/cake.sol\":35070:35100  srcRep != dstRep && amount > 0 */\n    tag_235:\n        /* \"contracts/cake.sol\":35066:35898  if (srcRep != dstRep && amount > 0) {... */\n      iszero\n      tag_244\n      jumpi\n      sub(shl(0xa0, 0x01), 0x01)\n        /* \"contracts/cake.sol\":35120:35140  srcRep != address(0) */\n      dup4\n      and\n      iszero\n        /* \"contracts/cake.sol\":35116:35495  if (srcRep != address(0)) {... */\n      tag_237\n      jumpi\n      sub(shl(0xa0, 0x01), 0x01)\n        /* \"contracts/cake.sol\":35226:35248  numCheckpoints[srcRep] */\n      dup4\n      and\n        /* \"contracts/cake.sol\":35207:35223  uint32 srcRepNum */\n      0x00\n        /* \"contracts/cake.sol\":35226:35248  numCheckpoints[srcRep] */\n      swap1\n      dup2\n      mstore\n        /* \"contracts/cake.sol\":35226:35240  numCheckpoints */\n      0x09\n        /* \"contracts/cake.sol\":35226:35248  numCheckpoints[srcRep] */\n      0x20\n      mstore\n      0x40\n      dup2\n      keccak256\n      sload\n      0xffffffff\n      and\n      swap1\n        /* \"contracts/cake.sol\":35286:35299  srcRepNum > 0 */\n      dup2\n        /* \"contracts/cake.sol\":35286:35346  srcRepNum > 0 ? checkpoints[srcRep][srcRepNum - 1].votes : 0 */\n      tag_238\n      jumpi\n        /* \"contracts/cake.sol\":35345:35346  0 */\n      0x00\n        /* \"contracts/cake.sol\":35286:35346  srcRepNum > 0 ? checkpoints[srcRep][srcRepNum - 1].votes : 0 */\n      jump(tag_239)\n    tag_238:\n      sub(shl(0xa0, 0x01), 0x01)\n        /* \"contracts/cake.sol\":35302:35321  checkpoints[srcRep] */\n      dup6\n      and\n      0x00\n      swap1\n      dup2\n      mstore\n        /* \"contracts/cake.sol\":35302:35313  checkpoints */\n      0x08\n        /* \"contracts/cake.sol\":35302:35321  checkpoints[srcRep] */\n      0x20\n      swap1\n      dup2\n      mstore\n      0x40\n      dup1\n      dup4\n      keccak256\n        /* \"contracts/cake.sol\":35302:35336  checkpoints[srcRep][srcRepNum - 1] */\n      0xffffffff\n      not(0x00)\n        /* \"contracts/cake.sol\":35322:35335  srcRepNum - 1 */\n      dup8\n      add\n        /* \"contracts/cake.sol\":35302:35336  checkpoints[srcRep][srcRepNum - 1] */\n      and\n      dup5\n      mstore\n      swap1\n      swap2\n      mstore\n      swap1\n      keccak256\n        /* \"contracts/cake.sol\":35334:35335  1 */\n      0x01\n        /* \"contracts/cake.sol\":35302:35342  checkpoints[srcRep][srcRepNum - 1].votes */\n      add\n      sload\n        /* \"contracts/cake.sol\":35286:35346  srcRepNum > 0 ? checkpoints[srcRep][srcRepNum - 1].votes : 0 */\n    tag_239:\n        /* \"contracts/cake.sol\":35266:35346  uint256 srcRepOld = srcRepNum > 0 ? checkpoints[srcRep][srcRepNum - 1].votes : 0 */\n      swap1\n      pop\n        /* \"contracts/cake.sol\":35364:35381  uint256 srcRepNew */\n      0x00\n        /* \"contracts/cake.sol\":35384:35405  srcRepOld.sub(amount) */\n      tag_240\n        /* \"contracts/cake.sol\":35266:35346  uint256 srcRepOld = srcRepNum > 0 ? checkpoints[srcRep][srcRepNum - 1].votes : 0 */\n      dup3\n        /* \"contracts/cake.sol\":35398:35404  amount */\n      dup6\n        /* \"contracts/cake.sol\":35384:35397  srcRepOld.sub */\n      tag_241\n        /* \"contracts/cake.sol\":35384:35405  srcRepOld.sub(amount) */\n      jump\t// in\n    tag_240:\n        /* \"contracts/cake.sol\":35364:35405  uint256 srcRepNew = srcRepOld.sub(amount) */\n      swap1\n      pop\n        /* \"contracts/cake.sol\":35423:35480  _writeCheckpoint(srcRep, srcRepNum, srcRepOld, srcRepNew) */\n      tag_242\n        /* \"contracts/cake.sol\":35440:35446  srcRep */\n      dup7\n        /* \"contracts/cake.sol\":35448:35457  srcRepNum */\n      dup5\n        /* \"contracts/cake.sol\":35459:35468  srcRepOld */\n      dup5\n        /* \"contracts/cake.sol\":35470:35479  srcRepNew */\n      dup5\n        /* \"contracts/cake.sol\":35423:35439  _writeCheckpoint */\n      tag_243\n        /* \"contracts/cake.sol\":35423:35480  _writeCheckpoint(srcRep, srcRepNum, srcRepOld, srcRepNew) */\n      jump\t// in\n    tag_242:\n        /* \"contracts/cake.sol\":35116:35495  if (srcRep != address(0)) {... */\n      pop\n      pop\n      pop\n    tag_237:\n      sub(shl(0xa0, 0x01), 0x01)\n        /* \"contracts/cake.sol\":35513:35533  dstRep != address(0) */\n      dup3\n      and\n      iszero\n        /* \"contracts/cake.sol\":35509:35888  if (dstRep != address(0)) {... */\n      tag_244\n      jumpi\n      sub(shl(0xa0, 0x01), 0x01)\n        /* \"contracts/cake.sol\":35619:35641  numCheckpoints[dstRep] */\n      dup3\n      and\n        /* \"contracts/cake.sol\":35600:35616  uint32 dstRepNum */\n      0x00\n        /* \"contracts/cake.sol\":35619:35641  numCheckpoints[dstRep] */\n      swap1\n      dup2\n      mstore\n        /* \"contracts/cake.sol\":35619:35633  numCheckpoints */\n      0x09\n        /* \"contracts/cake.sol\":35619:35641  numCheckpoints[dstRep] */\n      0x20\n      mstore\n      0x40\n      dup2\n      keccak256\n      sload\n      0xffffffff\n      and\n      swap1\n        /* \"contracts/cake.sol\":35679:35692  dstRepNum > 0 */\n      dup2\n        /* \"contracts/cake.sol\":35679:35739  dstRepNum > 0 ? checkpoints[dstRep][dstRepNum - 1].votes : 0 */\n      tag_245\n      jumpi\n        /* \"contracts/cake.sol\":35738:35739  0 */\n      0x00\n        /* \"contracts/cake.sol\":35679:35739  dstRepNum > 0 ? checkpoints[dstRep][dstRepNum - 1].votes : 0 */\n      jump(tag_246)\n    tag_245:\n      sub(shl(0xa0, 0x01), 0x01)\n        /* \"contracts/cake.sol\":35695:35714  checkpoints[dstRep] */\n      dup5\n      and\n      0x00\n      swap1\n      dup2\n      mstore\n        /* \"contracts/cake.sol\":35695:35706  checkpoints */\n      0x08\n        /* \"contracts/cake.sol\":35695:35714  checkpoints[dstRep] */\n      0x20\n      swap1\n      dup2\n      mstore\n      0x40\n      dup1\n      dup4\n      keccak256\n        /* \"contracts/cake.sol\":35695:35729  checkpoints[dstRep][dstRepNum - 1] */\n      0xffffffff\n      not(0x00)\n        /* \"contracts/cake.sol\":35715:35728  dstRepNum - 1 */\n      dup8\n      add\n        /* \"contracts/cake.sol\":35695:35729  checkpoints[dstRep][dstRepNum - 1] */\n      and\n      dup5\n      mstore\n      swap1\n      swap2\n      mstore\n      swap1\n      keccak256\n        /* \"contracts/cake.sol\":35727:35728  1 */\n      0x01\n        /* \"contracts/cake.sol\":35695:35735  checkpoints[dstRep][dstRepNum - 1].votes */\n      add\n      sload\n        /* \"contracts/cake.sol\":35679:35739  dstRepNum > 0 ? checkpoints[dstRep][dstRepNum - 1].votes : 0 */\n    tag_246:\n        /* \"contracts/cake.sol\":35659:35739  uint256 dstRepOld = dstRepNum > 0 ? checkpoints[dstRep][dstRepNum - 1].votes : 0 */\n      swap1\n      pop\n        /* \"contracts/cake.sol\":35757:35774  uint256 dstRepNew */\n      0x00\n        /* \"contracts/cake.sol\":35777:35798  dstRepOld.add(amount) */\n      tag_247\n        /* \"contracts/cake.sol\":35659:35739  uint256 dstRepOld = dstRepNum > 0 ? checkpoints[dstRep][dstRepNum - 1].votes : 0 */\n      dup3\n        /* \"contracts/cake.sol\":35791:35797  amount */\n      dup6\n        /* \"contracts/cake.sol\":35777:35790  dstRepOld.add */\n      tag_140\n        /* \"contracts/cake.sol\":35777:35798  dstRepOld.add(amount) */\n      jump\t// in\n    tag_247:\n        /* \"contracts/cake.sol\":35757:35798  uint256 dstRepNew = dstRepOld.add(amount) */\n      swap1\n      pop\n        /* \"contracts/cake.sol\":35816:35873  _writeCheckpoint(dstRep, dstRepNum, dstRepOld, dstRepNew) */\n      tag_196\n        /* \"contracts/cake.sol\":35833:35839  dstRep */\n      dup6\n        /* \"contracts/cake.sol\":35841:35850  dstRepNum */\n      dup5\n        /* \"contracts/cake.sol\":35852:35861  dstRepOld */\n      dup5\n        /* \"contracts/cake.sol\":35863:35872  dstRepNew */\n      dup5\n        /* \"contracts/cake.sol\":35816:35832  _writeCheckpoint */\n      tag_243\n        /* \"contracts/cake.sol\":35816:35873  _writeCheckpoint(dstRep, dstRepNum, dstRepOld, dstRepNew) */\n      jump\t// in\n        /* \"contracts/cake.sol\":35509:35888  if (dstRep != address(0)) {... */\n    tag_244:\n        /* \"contracts/cake.sol\":34975:35904  function _moveDelegates(address srcRep, address dstRep, uint256 amount) internal {... */\n      pop\n      pop\n      pop\n      jump\t// out\n        /* \"contracts/cake.sol\":34541:34969  function _delegate(address delegator, address delegatee)... */\n    tag_152:\n      sub(shl(0xa0, 0x01), 0x01)\n        /* \"contracts/cake.sol\":34655:34676  _delegates[delegator] */\n      dup1\n      dup4\n      and\n        /* \"contracts/cake.sol\":34629:34652  address currentDelegate */\n      0x00\n        /* \"contracts/cake.sol\":34655:34676  _delegates[delegator] */\n      swap1\n      dup2\n      mstore\n        /* \"contracts/cake.sol\":34655:34665  _delegates */\n      0x07\n        /* \"contracts/cake.sol\":34655:34676  _delegates[delegator] */\n      0x20\n      mstore\n      0x40\n      dup2\n      keccak256\n      sload\n      swap1\n      swap2\n      and\n      swap1\n        /* \"contracts/cake.sol\":34713:34733  balanceOf(delegator) */\n      tag_250\n        /* \"contracts/cake.sol\":34666:34675  delegator */\n      dup5\n        /* \"contracts/cake.sol\":34713:34722  balanceOf */\n      tag_71\n        /* \"contracts/cake.sol\":34713:34733  balanceOf(delegator) */\n      jump\t// in\n    tag_250:\n      sub(shl(0xa0, 0x01), 0x01)\n        /* \"contracts/cake.sol\":34788:34809  _delegates[delegator] */\n      dup6\n      dup2\n      and\n      0x00\n      dup2\n      dup2\n      mstore\n        /* \"contracts/cake.sol\":34788:34798  _delegates */\n      0x07\n        /* \"contracts/cake.sol\":34788:34809  _delegates[delegator] */\n      0x20\n      mstore\n      0x40\n      dup1\n      dup3\n      keccak256\n        /* \"contracts/cake.sol\":34788:34821  _delegates[delegator] = delegatee */\n      dup1\n      sload\n      not(sub(shl(0xa0, 0x01), 0x01))\n      and\n      dup10\n      dup7\n      and\n      swap1\n      dup2\n      or\n      swap1\n      swap2\n      sstore\n        /* \"contracts/cake.sol\":34837:34891  DelegateChanged(delegator, currentDelegate, delegatee) */\n      swap1\n      mload\n        /* \"contracts/cake.sol\":34686:34733  uint256 delegatorBalance = balanceOf(delegator) */\n      swap5\n      swap6\n      pop\n        /* \"contracts/cake.sol\":34788:34821  _delegates[delegator] = delegatee */\n      swap4\n        /* \"contracts/cake.sol\":34837:34891  DelegateChanged(delegator, currentDelegate, delegatee) */\n      swap3\n      dup7\n      and\n      swap3\n      0x3134e8a2e6d97e929a7e54011ea5485d7d196dd5f0ba4d4ef95803e8e3fc257f\n      swap2\n        /* \"contracts/cake.sol\":34788:34809  _delegates[delegator] */\n      swap1\n        /* \"contracts/cake.sol\":34837:34891  DelegateChanged(delegator, currentDelegate, delegatee) */\n      log4\n        /* \"contracts/cake.sol\":34902:34962  _moveDelegates(currentDelegate, delegatee, delegatorBalance) */\n      tag_251\n        /* \"contracts/cake.sol\":34917:34932  currentDelegate */\n      dup3\n        /* \"contracts/cake.sol\":34934:34943  delegatee */\n      dup5\n        /* \"contracts/cake.sol\":34945:34961  delegatorBalance */\n      dup4\n        /* \"contracts/cake.sol\":34902:34916  _moveDelegates */\n      tag_148\n        /* \"contracts/cake.sol\":34902:34962  _moveDelegates(currentDelegate, delegatee, delegatorBalance) */\n      jump\t// in\n    tag_251:\n        /* \"contracts/cake.sol\":34541:34969  function _delegate(address delegator, address delegatee)... */\n      pop\n      pop\n      pop\n      pop\n      jump\t// out\n        /* \"contracts/cake.sol\":36766:36915  function getChainId() internal pure returns (uint) {... */\n    tag_199:\n        /* \"contracts/cake.sol\":36874:36883  chainid() */\n      chainid\n        /* \"contracts/cake.sol\":36766:36915  function getChainId() internal pure returns (uint) {... */\n      swap1\n      jump\t// out\n        /* \"contracts/cake.sol\":3197:3422  function _transferOwnership(address newOwner) internal {... */\n    tag_212:\n      sub(shl(0xa0, 0x01), 0x01)\n        /* \"contracts/cake.sol\":3270:3292  newOwner != address(0) */\n      dup2\n      and\n        /* \"contracts/cake.sol\":3262:3335  require(newOwner != address(0), 'Ownable: new owner is the zero address') */\n      tag_254\n      jumpi\n      mload(0x40)\n      shl(0xe5, 0x461bcd)\n      dup2\n      mstore\n      0x04\n      add\n      dup1\n      dup1\n      0x20\n      add\n      dup3\n      dup2\n      sub\n      dup3\n      mstore\n      0x26\n      dup2\n      mstore\n      0x20\n      add\n      dup1\n      data_245f15ff17f551913a7a18385165551503906a406f905ac1c2437281a7cd0cfe\n      0x26\n      swap2\n      codecopy\n      0x40\n      add\n      swap2\n      pop\n      pop\n      mload(0x40)\n      dup1\n      swap2\n      sub\n      swap1\n      revert\n    tag_254:\n        /* \"contracts/cake.sol\":3371:3377  _owner */\n      0x00\n      dup1\n      sload\n        /* \"contracts/cake.sol\":3350:3388  OwnershipTransferred(_owner, newOwner) */\n      mload(0x40)\n      sub(shl(0xa0, 0x01), 0x01)\n      dup1\n      dup6\n      and\n      swap4\n        /* \"contracts/cake.sol\":3371:3377  _owner */\n      swap3\n      and\n      swap2\n        /* \"contracts/cake.sol\":3350:3388  OwnershipTransferred(_owner, newOwner) */\n      0x8be0079c531659141344cd1fd0a4f28419497f9722a3daafe3b4186f6b6457e0\n      swap2\n      log3\n        /* \"contracts/cake.sol\":3398:3404  _owner */\n      0x00\n        /* \"contracts/cake.sol\":3398:3415  _owner = newOwner */\n      dup1\n      sload\n      not(sub(shl(0xa0, 0x01), 0x01))\n      and\n      sub(shl(0xa0, 0x01), 0x01)\n      swap3\n      swap1\n      swap3\n      and\n      swap2\n      swap1\n      swap2\n      or\n      swap1\n      sstore\n        /* \"contracts/cake.sol\":3197:3422  function _transferOwnership(address newOwner) internal {... */\n      jump\t// out\n        /* \"contracts/cake.sol\":7753:7887  function sub(uint256 a, uint256 b) internal pure returns (uint256) {... */\n    tag_241:\n        /* \"contracts/cake.sol\":7811:7818  uint256 */\n      0x00\n        /* \"contracts/cake.sol\":7837:7880  sub(a, b, 'SafeMath: subtraction overflow') */\n      tag_195\n        /* \"contracts/cake.sol\":7841:7842  a */\n      dup4\n        /* \"contracts/cake.sol\":7844:7845  b */\n      dup4\n        /* \"contracts/cake.sol\":7837:7880  sub(a, b, 'SafeMath: subtraction overflow') */\n      mload(0x40)\n      dup1\n      0x40\n      add\n      0x40\n      mstore\n      dup1\n      0x1e\n      dup2\n      mstore\n      0x20\n      add\n      0x536166654d6174683a207375627472616374696f6e206f766572666c6f770000\n      dup2\n      mstore\n      pop\n        /* \"contracts/cake.sol\":7837:7840  sub */\n      tag_133\n        /* \"contracts/cake.sol\":7837:7880  sub(a, b, 'SafeMath: subtraction overflow') */\n      jump\t// in\n        /* \"contracts/cake.sol\":35910:36596  function _writeCheckpoint(... */\n    tag_243:\n        /* \"contracts/cake.sol\":36081:36099  uint32 blockNumber */\n      0x00\n        /* \"contracts/cake.sol\":36102:36178  safe32(block.number, \"CAKE::_writeCheckpoint: block number exceeds 32 bits\") */\n      tag_258\n        /* \"contracts/cake.sol\":36109:36121  block.number */\n      number\n        /* \"contracts/cake.sol\":36102:36178  safe32(block.number, \"CAKE::_writeCheckpoint: block number exceeds 32 bits\") */\n      mload(0x40)\n      dup1\n      0x60\n      add\n      0x40\n      mstore\n      dup1\n      0x34\n      dup2\n      mstore\n      0x20\n      add\n      data_a024375c1b834d2d05951566d035f756f78479a9dc650436c3ba2937d280012f\n      0x34\n      swap2\n      codecopy\n        /* \"contracts/cake.sol\":36102:36108  safe32 */\n      tag_259\n        /* \"contracts/cake.sol\":36102:36178  safe32(block.number, \"CAKE::_writeCheckpoint: block number exceeds 32 bits\") */\n      jump\t// in\n    tag_258:\n        /* \"contracts/cake.sol\":36081:36178  uint32 blockNumber = safe32(block.number, \"CAKE::_writeCheckpoint: block number exceeds 32 bits\") */\n      swap1\n      pop\n        /* \"contracts/cake.sol\":36208:36209  0 */\n      0x00\n        /* \"contracts/cake.sol\":36193:36205  nCheckpoints */\n      dup5\n        /* \"contracts/cake.sol\":36193:36209  nCheckpoints > 0 */\n      0xffffffff\n      and\n      gt\n        /* \"contracts/cake.sol\":36193:36278  nCheckpoints > 0 && checkpoints[delegatee][nCheckpoints - 1].fromBlock == blockNumber */\n      dup1\n      iszero\n      tag_260\n      jumpi\n      pop\n      sub(shl(0xa0, 0x01), 0x01)\n        /* \"contracts/cake.sol\":36213:36235  checkpoints[delegatee] */\n      dup6\n      and\n      0x00\n      swap1\n      dup2\n      mstore\n        /* \"contracts/cake.sol\":36213:36224  checkpoints */\n      0x08\n        /* \"contracts/cake.sol\":36213:36235  checkpoints[delegatee] */\n      0x20\n      swap1\n      dup2\n      mstore\n      0x40\n      dup1\n      dup4\n      keccak256\n        /* \"contracts/cake.sol\":36213:36278  checkpoints[delegatee][nCheckpoints - 1].fromBlock == blockNumber */\n      0xffffffff\n      not(0x00)\n        /* \"contracts/cake.sol\":36236:36252  nCheckpoints - 1 */\n      dup10\n      add\n        /* \"contracts/cake.sol\":36213:36253  checkpoints[delegatee][nCheckpoints - 1] */\n      dup2\n      and\n      dup6\n      mstore\n      swap3\n      mstore\n      swap1\n      swap2\n      keccak256\n        /* \"contracts/cake.sol\":36213:36263  checkpoints[delegatee][nCheckpoints - 1].fromBlock */\n      sload\n        /* \"contracts/cake.sol\":36213:36278  checkpoints[delegatee][nCheckpoints - 1].fromBlock == blockNumber */\n      dup3\n      dup3\n      and\n        /* \"contracts/cake.sol\":36213:36263  checkpoints[delegatee][nCheckpoints - 1].fromBlock */\n      swap2\n      and\n        /* \"contracts/cake.sol\":36213:36278  checkpoints[delegatee][nCheckpoints - 1].fromBlock == blockNumber */\n      eq\n        /* \"contracts/cake.sol\":36193:36278  nCheckpoints > 0 && checkpoints[delegatee][nCheckpoints - 1].fromBlock == blockNumber */\n    tag_260:\n        /* \"contracts/cake.sol\":36189:36523  if (nCheckpoints > 0 && checkpoints[delegatee][nCheckpoints - 1].fromBlock == blockNumber) {... */\n      iszero\n      tag_261\n      jumpi\n      sub(shl(0xa0, 0x01), 0x01)\n        /* \"contracts/cake.sol\":36294:36316  checkpoints[delegatee] */\n      dup6\n      and\n      0x00\n      swap1\n      dup2\n      mstore\n        /* \"contracts/cake.sol\":36294:36305  checkpoints */\n      0x08\n        /* \"contracts/cake.sol\":36294:36316  checkpoints[delegatee] */\n      0x20\n      swap1\n      dup2\n      mstore\n      0x40\n      dup1\n      dup4\n      keccak256\n        /* \"contracts/cake.sol\":36294:36334  checkpoints[delegatee][nCheckpoints - 1] */\n      0xffffffff\n      not(0x00)\n        /* \"contracts/cake.sol\":36317:36333  nCheckpoints - 1 */\n      dup10\n      add\n        /* \"contracts/cake.sol\":36294:36334  checkpoints[delegatee][nCheckpoints - 1] */\n      and\n      dup5\n      mstore\n      swap1\n      swap2\n      mstore\n      swap1\n      keccak256\n        /* \"contracts/cake.sol\":36332:36333  1 */\n      0x01\n        /* \"contracts/cake.sol\":36294:36340  checkpoints[delegatee][nCheckpoints - 1].votes */\n      add\n        /* \"contracts/cake.sol\":36294:36351  checkpoints[delegatee][nCheckpoints - 1].votes = newVotes */\n      dup3\n      swap1\n      sstore\n        /* \"contracts/cake.sol\":36189:36523  if (nCheckpoints > 0 && checkpoints[delegatee][nCheckpoints - 1].fromBlock == blockNumber) {... */\n      jump(tag_262)\n    tag_261:\n        /* \"contracts/cake.sol\":36421:36454  Checkpoint(blockNumber, newVotes) */\n      0x40\n      dup1\n      mload\n      dup1\n      dup3\n      add\n      dup3\n      mstore\n      0xffffffff\n      dup1\n      dup5\n      and\n      dup3\n      mstore\n      0x20\n      dup1\n      dup4\n      add\n      dup7\n      dup2\n      mstore\n      sub(shl(0xa0, 0x01), 0x01)\n        /* \"contracts/cake.sol\":36382:36404  checkpoints[delegatee] */\n      dup11\n      and\n      0x00\n      dup2\n      dup2\n      mstore\n        /* \"contracts/cake.sol\":36382:36393  checkpoints */\n      0x08\n        /* \"contracts/cake.sol\":36382:36404  checkpoints[delegatee] */\n      dup5\n      mstore\n      dup7\n      dup2\n      keccak256\n        /* \"contracts/cake.sol\":36382:36418  checkpoints[delegatee][nCheckpoints] */\n      dup12\n      dup7\n      and\n      dup3\n      mstore\n      dup5\n      mstore\n      dup7\n      dup2\n      keccak256\n        /* \"contracts/cake.sol\":36382:36454  checkpoints[delegatee][nCheckpoints] = Checkpoint(blockNumber, newVotes) */\n      swap6\n      mload\n      dup7\n      sload\n      swap1\n      dup7\n      and\n      not(0xffffffff)\n      swap2\n      dup3\n      and\n      or\n      dup8\n      sstore\n      swap3\n      mload\n      0x01\n      swap7\n      dup8\n      add\n      sstore\n        /* \"contracts/cake.sol\":36468:36493  numCheckpoints[delegatee] */\n      swap1\n      dup2\n      mstore\n        /* \"contracts/cake.sol\":36468:36482  numCheckpoints */\n      0x09\n        /* \"contracts/cake.sol\":36468:36493  numCheckpoints[delegatee] */\n      swap1\n      swap3\n      mstore\n      swap4\n      swap1\n      keccak256\n        /* \"contracts/cake.sol\":36468:36512  numCheckpoints[delegatee] = nCheckpoints + 1 */\n      dup1\n      sload\n        /* \"contracts/cake.sol\":36496:36512  nCheckpoints + 1 */\n      swap3\n      dup9\n      add\n        /* \"contracts/cake.sol\":36468:36512  numCheckpoints[delegatee] = nCheckpoints + 1 */\n      swap1\n      swap2\n      and\n      swap2\n      swap1\n      swap3\n      and\n      or\n      swap1\n      sstore\n        /* \"contracts/cake.sol\":36189:36523  if (nCheckpoints > 0 && checkpoints[delegatee][nCheckpoints - 1].fromBlock == blockNumber) {... */\n    tag_262:\n        /* \"contracts/cake.sol\":36538:36589  DelegateVotesChanged(delegatee, oldVotes, newVotes) */\n      0x40\n      dup1\n      mload\n      dup5\n      dup2\n      mstore\n      0x20\n      dup2\n      add\n      dup5\n      swap1\n      mstore\n      dup2\n      mload\n      sub(shl(0xa0, 0x01), 0x01)\n      dup9\n      and\n      swap3\n      0xdec2bacdd2f05b59de34da9b523dff8be42e5e38e818c82fdb0bae774387a724\n      swap3\n      dup3\n      swap1\n      sub\n      add\n      swap1\n      log2\n        /* \"contracts/cake.sol\":35910:36596  function _writeCheckpoint(... */\n      pop\n      pop\n      pop\n      pop\n      pop\n      jump\t// out\n        /* \"contracts/cake.sol\":36602:36760  function safe32(uint n, string memory errorMessage) internal pure returns (uint32) {... */\n    tag_259:\n        /* \"contracts/cake.sol\":36677:36683  uint32 */\n      0x00\n        /* \"contracts/cake.sol\":36714:36726  errorMessage */\n      dup2\n        /* \"contracts/cake.sol\":36707:36712  2**32 */\n      0x0100000000\n        /* \"contracts/cake.sol\":36703:36712  n < 2**32 */\n      dup5\n      lt\n        /* \"contracts/cake.sol\":36695:36727  require(n < 2**32, errorMessage) */\n      tag_264\n      jumpi\n      mload(0x40)\n      shl(0xe5, 0x461bcd)\n      dup2\n      mstore\n      0x20\n      0x04\n      dup3\n      add\n      dup2\n      dup2\n      mstore\n      dup4\n      mload\n      0x24\n      dup5\n      add\n      mstore\n      dup4\n      mload\n      swap1\n      swap3\n      dup4\n      swap3\n      0x44\n      swap1\n      swap2\n      add\n      swap2\n      swap1\n      dup6\n      add\n      swap1\n      dup1\n      dup4\n      dup4\n      0x00\n      dup4\n      iszero\n      tag_226\n      jumpi\n      dup2\n      dup2\n      add\n      mload\n      dup4\n      dup3\n      add\n      mstore\n      0x20\n      add\n      jump(tag_224)\n    tag_264:\n      pop\n        /* \"contracts/cake.sol\":36751:36752  n */\n      swap2\n      swap3\n        /* \"contracts/cake.sol\":36602:36760  function safe32(uint n, string memory errorMessage) internal pure returns (uint32) {... */\n      swap2\n      pop\n      pop\n      jump\t// out\n    tag_167:\n      0x40\n      dup1\n      mload\n      dup1\n      dup3\n      add\n      swap1\n      swap2\n      mstore\n      0x00\n      dup1\n      dup3\n      mstore\n      0x20\n      dup3\n      add\n      mstore\n      swap1\n      jump\t// out\n    stop\n    data_037a800c383c8b41b7f30fd6fdbe6b4a969472a92c909c5e3a50fbad30140e2f 43414b4532303a207472616e7366657220616d6f756e74206578636565647320616c6c6f77616e6365\n    data_245f15ff17f551913a7a18385165551503906a406f905ac1c2437281a7cd0cfe 4f776e61626c653a206e6577206f776e657220697320746865207a65726f2061646472657373\n    data_2975ff3a9c2df4c97fcc8bda6ff60212c199edfef1308a20efc5c659649e98eb 43414b453a3a64656c656761746542795369673a207369676e61747572652065787069726564\n    data_6883c37a4c18e68948a3674af93a21b6c0026d301016300c1e6da51f1448eb28 43414b4532303a207472616e7366657220616d6f756e7420657863656564732062616c616e6365\n    data_7426a02a8645a4fc3fbe54503be0c6ef4e20d7e78f4110ed802fa144a020d321 43414b4532303a2064656372656173656420616c6c6f77616e63652062656c6f77207a65726f\n    data_818980e094d98e32545e5a09b38cf4334a5aa9765c6adbd223fdb87d9a48dd60 43414b4532303a20617070726f766520746f20746865207a65726f2061646472657373\n    data_8c9772d8870faf984838fdb1a6a39869b314cedd021c20fb983e461d778f09aa 43414b453a3a64656c656761746542795369673a20696e76616c6964207369676e6174757265\n    data_9924ebdf1add33d25d4ef888e16131f0a5687b0580a36c21b5c301a6c462effe 4f776e61626c653a2063616c6c6572206973206e6f7420746865206f776e6572\n    data_9f602c3ca62830526fb39312611c26f66e9439b2bdd3e2c3a3e2a522717508c4 43414b4532303a207472616e736665722066726f6d20746865207a65726f2061646472657373\n    data_a024375c1b834d2d05951566d035f756f78479a9dc650436c3ba2937d280012f 43414b453a3a5f7772697465436865636b706f696e743a20626c6f636b206e756d62657220657863656564732033322062697473\n    data_a1be2aa7ce8870f4c68a34627ce4514a20d52f005edd6f8bf954781312534474 43414b453a3a6765745072696f72566f7465733a206e6f74207965742064657465726d696e6564\n    data_aa9ee17312be9dc937c6c61d6a03a6c21827d2f9c3e6dfea349c1095e56db22f 43414b453a3a64656c656761746542795369673a20696e76616c6964206e6f6e6365\n    data_ac1d5373694637d2969063be6d0102dc19599842fefc49d9b9656600338f4bd7 43414b4532303a207472616e7366657220746f20746865207a65726f2061646472657373\n    data_c8a22d3b0f46cb8553e794906ffc1b6e8656f593e72d64cb7102cb1f934afaf6 43414b4532303a20617070726f76652066726f6d20746865207a65726f2061646472657373\n\n    auxdata: 0xa264697066735822122083ce4653c435476e5fc94dfd59b7a42e08c4a511349bbe8bf737d8520327b67964736f6c634300060c0033\n}\n",
				"bytecode": {
					"linkReferences": {},
					"object": "60806040523480156200001157600080fd5b50604051806040016040528060118152602001702830b731b0b5b2a9bbb0b8102a37b5b2b760791b8152506040518060400160405280600481526020016343616b6560e01b81525060006200006b620000f660201b60201c565b600080546001600160a01b0319166001600160a01b0383169081178255604051929350917f8be0079c531659141344cd1fd0a4f28419497f9722a3daafe3b4186f6b6457e0908290a3508151620000ca906004906020850190620000fa565b508051620000e0906005906020840190620000fa565b50506006805460ff191660121790555062000196565b3390565b828054600181600116156101000203166002900490600052602060002090601f016020900481019282601f106200013d57805160ff19168380011785556200016d565b828001600101855582156200016d579182015b828111156200016d57825182559160200191906001019062000150565b506200017b9291506200017f565b5090565b5b808211156200017b576000815560010162000180565b611b8a80620001a66000396000f3fe608060405234801561001057600080fd5b50600436106101a95760003560e01c8063782d6fe1116100f9578063a9059cbb11610097578063dd62ed3e11610071578063dd62ed3e1461055c578063e7a324dc1461058a578063f1127ed814610592578063f2fde38b146105e4576101a9565b8063a9059cbb146104c3578063b4b5ea57146104ef578063c3cda52014610515576101a9565b80638da5cb5b116100d35780638da5cb5b1461046a57806395d89b4114610472578063a0712d681461047a578063a457c2d714610497576101a9565b8063782d6fe1146104105780637ecebe001461043c578063893d20e814610462576101a9565b806339509351116101665780635c19a95c116101405780635c19a95c1461037d5780636fcfff45146103a357806370a08231146103e2578063715018a614610408576101a9565b806339509351146102e157806340c10f191461030d578063587cde1e1461033b576101a9565b806306fdde03146101ae578063095ea7b31461022b57806318160ddd1461026b57806320606b701461028557806323b872dd1461028d578063313ce567146102c3575b600080fd5b6101b661060a565b6040805160208082528351818301528351919283929083019185019080838360005b838110156101f05781810151838201526020016101d8565b50505050905090810190601f16801561021d5780820380516001836020036101000a031916815260200191505b509250505060405180910390f35b6102576004803603604081101561024157600080fd5b506001600160a01b0381351690602001356106a0565b604080519115158252519081900360200190f35b6102736106be565b60408051918252519081900360200190f35b6102736106c4565b610257600480360360608110156102a357600080fd5b506001600160a01b038135811691602081013590911690604001356106e8565b6102cb61076f565b6040805160ff9092168252519081900360200190f35b610257600480360360408110156102f757600080fd5b506001600160a01b038135169060200135610778565b6103396004803603604081101561032357600080fd5b506001600160a01b0381351690602001356107c6565b005b6103616004803603602081101561035157600080fd5b50356001600160a01b0316610851565b604080516001600160a01b039092168252519081900360200190f35b6103396004803603602081101561039357600080fd5b50356001600160a01b031661086f565b6103c9600480360360208110156103b957600080fd5b50356001600160a01b031661087c565b6040805163ffffffff9092168252519081900360200190f35b610273600480360360208110156103f857600080fd5b50356001600160a01b0316610894565b6103396108af565b6102736004803603604081101561042657600080fd5b506001600160a01b038135169060200135610951565b6102736004803603602081101561045257600080fd5b50356001600160a01b0316610b59565b610361610b6b565b610361610b7a565b6101b6610b89565b6102576004803603602081101561049057600080fd5b5035610bea565b610257600480360360408110156104ad57600080fd5b506001600160a01b038135169060200135610c5d565b610257600480360360408110156104d957600080fd5b506001600160a01b038135169060200135610cc5565b6102736004803603602081101561050557600080fd5b50356001600160a01b0316610cd9565b610339600480360360c081101561052b57600080fd5b506001600160a01b038135169060208101359060408101359060ff6060820135169060808101359060a00135610d3d565b6102736004803603604081101561057257600080fd5b506001600160a01b0381358116916020013516610fb0565b610273610fdb565b6105c4600480360360408110156105a857600080fd5b5080356001600160a01b0316906020013563ffffffff16610fff565b6040805163ffffffff909316835260208301919091528051918290030190f35b610339600480360360208110156105fa57600080fd5b50356001600160a01b031661102c565b60048054604080516020601f60026000196101006001881615020190951694909404938401819004810282018101909252828152606093909290918301828280156106965780601f1061066b57610100808354040283529160200191610696565b820191906000526020600020905b81548152906001019060200180831161067957829003601f168201915b5050505050905090565b60006106b46106ad61108d565b8484611091565b5060015b92915050565b60035490565b7f8cad95687ba82c2ce50e74f7b754645e5117c3a5bec8151c0726d5857980a86681565b60006106f584848461117d565b6107658461070161108d565b6107608560405180606001604052806029815260200161193e602991396001600160a01b038a1660009081526002602052604081209061073f61108d565b6001600160a01b0316815260208101919091526040016000205491906112cf565b611091565b5060019392505050565b60065460ff1690565b60006106b461078561108d565b84610760856002600061079661108d565b6001600160a01b03908116825260208083019390935260409182016000908120918c168152925290205490611366565b6107ce61108d565b6000546001600160a01b0390811691161461081e576040805162461bcd60e51b81526020600482018190526024820152600080516020611a49833981519152604482015290519081900360640190fd5b61082882826113c0565b6001600160a01b0380831660009081526007602052604081205461084d9216836114a6565b5050565b6001600160a01b039081166000908152600760205260409020541690565b61087933826115e8565b50565b60096020526000908152604090205463ffffffff1681565b6001600160a01b031660009081526001602052604090205490565b6108b761108d565b6000546001600160a01b03908116911614610907576040805162461bcd60e51b81526020600482018190526024820152600080516020611a49833981519152604482015290519081900360640190fd5b600080546040516001600160a01b03909116907f8be0079c531659141344cd1fd0a4f28419497f9722a3daafe3b4186f6b6457e0908390a3600080546001600160a01b0319169055565b60004382106109915760405162461bcd60e51b8152600401808060200182810382526027815260200180611ac36027913960400191505060405180910390fd5b6001600160a01b03831660009081526009602052604090205463ffffffff16806109bf5760009150506106b8565b6001600160a01b038416600090815260086020908152604080832063ffffffff600019860181168552925290912054168310610a2e576001600160a01b03841660009081526008602090815260408083206000199490940163ffffffff168352929052206001015490506106b8565b6001600160a01b038416600090815260086020908152604080832083805290915290205463ffffffff16831015610a695760009150506106b8565b600060001982015b8163ffffffff168163ffffffff161115610b2257600282820363ffffffff16048103610a9b611926565b506001600160a01b038716600090815260086020908152604080832063ffffffff808616855290835292819020815180830190925280549093168082526001909301549181019190915290871415610afd576020015194506106b89350505050565b805163ffffffff16871115610b1457819350610b1b565b6001820392505b5050610a71565b506001600160a01b038516600090815260086020908152604080832063ffffffff9094168352929052206001015491505092915050565b600a6020526000908152604090205481565b6000610b75610b7a565b905090565b6000546001600160a01b031690565b60058054604080516020601f60026000196101006001881615020190951694909404938401819004810282018101909252828152606093909290918301828280156106965780601f1061066b57610100808354040283529160200191610696565b6000610bf461108d565b6000546001600160a01b03908116911614610c44576040805162461bcd60e51b81526020600482018190526024820152600080516020611a49833981519152604482015290519081900360640190fd5b610c55610c4f61108d565b836113c0565b506001919050565b60006106b4610c6a61108d565b84610760856040518060600160405280602681526020016119da6026913960026000610c9461108d565b6001600160a01b03908116825260208083019390935260409182016000908120918d168152925290205491906112cf565b60006106b4610cd261108d565b848461117d565b6001600160a01b03811660009081526009602052604081205463ffffffff1680610d04576000610d36565b6001600160a01b038316600090815260086020908152604080832063ffffffff60001986011684529091529020600101545b9392505050565b60007f8cad95687ba82c2ce50e74f7b754645e5117c3a5bec8151c0726d5857980a866610d6861060a565b80519060200120610d7761167d565b60408051602080820195909552808201939093526060830191909152306080808401919091528151808403909101815260a0830182528051908401207fe48329057bfd03d55e49b547132e39cffd9c1820ad7b9d4c5307691425d15adf60c08401526001600160a01b038b1660e084015261010083018a90526101208084018a9052825180850390910181526101408401835280519085012061190160f01b6101608501526101628401829052610182808501829052835180860390910181526101a285018085528151918701919091206000918290526101c2860180865281905260ff8b166101e287015261020286018a90526102228601899052935192965090949293909260019261024280840193601f198301929081900390910190855afa158015610eaa573d6000803e3d6000fd5b5050604051601f1901519150506001600160a01b038116610efc5760405162461bcd60e51b8152600401808060200182810382526026815260200180611a236026913960400191505060405180910390fd5b6001600160a01b0381166000908152600a602052604090208054600181019091558914610f5a5760405162461bcd60e51b8152600401808060200182810382526022815260200180611aea6022913960400191505060405180910390fd5b87421115610f995760405162461bcd60e51b815260040180806020018281038252602681526020018061198d6026913960400191505060405180910390fd5b610fa3818b6115e8565b505050505b505050505050565b6001600160a01b03918216600090815260026020908152604080832093909416825291909152205490565b7fe48329057bfd03d55e49b547132e39cffd9c1820ad7b9d4c5307691425d15adf81565b60086020908152600092835260408084209091529082529020805460019091015463ffffffff9091169082565b61103461108d565b6000546001600160a01b03908116911614611084576040805162461bcd60e51b81526020600482018190526024820152600080516020611a49833981519152604482015290519081900360640190fd5b61087981611681565b3390565b6001600160a01b0383166110d65760405162461bcd60e51b8152600401808060200182810382526025815260200180611b306025913960400191505060405180910390fd5b6001600160a01b03821661111b5760405162461bcd60e51b8152600401808060200182810382526023815260200180611a006023913960400191505060405180910390fd5b6001600160a01b03808416600081815260026020908152604080832094871680845294825291829020859055815185815291517f8c5be1e5ebec7d5bd14f71427d1e84f3dd0314c0f7b2291e5b200ac8c7c3b9259281900390910190a3505050565b6001600160a01b0383166111c25760405162461bcd60e51b8152600401808060200182810382526026815260200180611a696026913960400191505060405180910390fd5b6001600160a01b0382166112075760405162461bcd60e51b8152600401808060200182810382526024815260200180611b0c6024913960400191505060405180910390fd5b611244816040518060600160405280602781526020016119b3602791396001600160a01b03861660009081526001602052604090205491906112cf565b6001600160a01b0380851660009081526001602052604080822093909355908416815220546112739082611366565b6001600160a01b0380841660008181526001602090815260409182902094909455805185815290519193928716927fddf252ad1be2c89b69c2b068fc378daa952ba7f163c4a11628f55a4df523b3ef92918290030190a3505050565b6000818484111561135e5760405162461bcd60e51b81526004018080602001828103825283818151815260200191508051906020019080838360005b8381101561132357818101518382015260200161130b565b50505050905090810190601f1680156113505780820380516001836020036101000a031916815260200191505b509250505060405180910390fd5b505050900390565b600082820183811015610d36576040805162461bcd60e51b815260206004820152601b60248201527f536166654d6174683a206164646974696f6e206f766572666c6f770000000000604482015290519081900360640190fd5b6001600160a01b03821661141b576040805162461bcd60e51b815260206004820181905260248201527f43414b4532303a206d696e7420746f20746865207a65726f2061646472657373604482015290519081900360640190fd5b6003546114289082611366565b6003556001600160a01b03821660009081526001602052604090205461144e9082611366565b6001600160a01b03831660008181526001602090815260408083209490945583518581529351929391927fddf252ad1be2c89b69c2b068fc378daa952ba7f163c4a11628f55a4df523b3ef9281900390910190a35050565b816001600160a01b0316836001600160a01b0316141580156114c85750600081115b156115e3576001600160a01b0383161561155a576001600160a01b03831660009081526009602052604081205463ffffffff16908161150857600061153a565b6001600160a01b038516600090815260086020908152604080832063ffffffff60001987011684529091529020600101545b905060006115488285611721565b905061155686848484611763565b5050505b6001600160a01b038216156115e3576001600160a01b03821660009081526009602052604081205463ffffffff1690816115955760006115c7565b6001600160a01b038416600090815260086020908152604080832063ffffffff60001987011684529091529020600101545b905060006115d58285611366565b9050610fa885848484611763565b505050565b6001600160a01b038083166000908152600760205260408120549091169061160f84610894565b6001600160a01b0385811660008181526007602052604080822080546001600160a01b031916898616908117909155905194955093928616927f3134e8a2e6d97e929a7e54011ea5485d7d196dd5f0ba4d4ef95803e8e3fc257f9190a46116778284836114a6565b50505050565b4690565b6001600160a01b0381166116c65760405162461bcd60e51b81526004018080602001828103825260268152602001806119676026913960400191505060405180910390fd5b600080546040516001600160a01b03808516939216917f8be0079c531659141344cd1fd0a4f28419497f9722a3daafe3b4186f6b6457e091a3600080546001600160a01b0319166001600160a01b0392909216919091179055565b6000610d3683836040518060400160405280601e81526020017f536166654d6174683a207375627472616374696f6e206f766572666c6f7700008152506112cf565b600061178743604051806060016040528060348152602001611a8f603491396118c8565b905060008463ffffffff161180156117d057506001600160a01b038516600090815260086020908152604080832063ffffffff6000198901811685529252909120548282169116145b1561180d576001600160a01b038516600090815260086020908152604080832063ffffffff6000198901168452909152902060010182905561187e565b60408051808201825263ffffffff808416825260208083018681526001600160a01b038a166000818152600884528681208b8616825284528681209551865490861663ffffffff19918216178755925160019687015590815260099092529390208054928801909116919092161790555b604080518481526020810184905281516001600160a01b038816927fdec2bacdd2f05b59de34da9b523dff8be42e5e38e818c82fdb0bae774387a724928290030190a25050505050565b600081640100000000841061191e5760405162461bcd60e51b815260206004820181815283516024840152835190928392604490910191908501908083836000831561132357818101518382015260200161130b565b509192915050565b60408051808201909152600080825260208201529056fe43414b4532303a207472616e7366657220616d6f756e74206578636565647320616c6c6f77616e63654f776e61626c653a206e6577206f776e657220697320746865207a65726f206164647265737343414b453a3a64656c656761746542795369673a207369676e6174757265206578706972656443414b4532303a207472616e7366657220616d6f756e7420657863656564732062616c616e636543414b4532303a2064656372656173656420616c6c6f77616e63652062656c6f77207a65726f43414b4532303a20617070726f766520746f20746865207a65726f206164647265737343414b453a3a64656c656761746542795369673a20696e76616c6964207369676e61747572654f776e61626c653a2063616c6c6572206973206e6f7420746865206f776e657243414b4532303a207472616e736665722066726f6d20746865207a65726f206164647265737343414b453a3a5f7772697465436865636b706f696e743a20626c6f636b206e756d6265722065786365656473203332206269747343414b453a3a6765745072696f72566f7465733a206e6f74207965742064657465726d696e656443414b453a3a64656c656761746542795369673a20696e76616c6964206e6f6e636543414b4532303a207472616e7366657220746f20746865207a65726f206164647265737343414b4532303a20617070726f76652066726f6d20746865207a65726f2061646472657373a264697066735822122083ce4653c435476e5fc94dfd59b7a42e08c4a511349bbe8bf737d8520327b67964736f6c634300060c0033",
					"opcodes": "PUSH1 0x80 PUSH1 0x40 MSTORE CALLVALUE DUP1 ISZERO PUSH3 0x11 JUMPI PUSH1 0x0 DUP1 REVERT JUMPDEST POP PUSH1 0x40 MLOAD DUP1 PUSH1 0x40 ADD PUSH1 0x40 MSTORE DUP1 PUSH1 0x11 DUP2 MSTORE PUSH1 0x20 ADD PUSH17 0x2830B731B0B5B2A9BBB0B8102A37B5B2B7 PUSH1 0x79 SHL DUP2 MSTORE POP PUSH1 0x40 MLOAD DUP1 PUSH1 0x40 ADD PUSH1 0x40 MSTORE DUP1 PUSH1 0x4 DUP2 MSTORE PUSH1 0x20 ADD PUSH4 0x43616B65 PUSH1 0xE0 SHL DUP2 MSTORE POP PUSH1 0x0 PUSH3 0x6B PUSH3 0xF6 PUSH1 0x20 SHL PUSH1 0x20 SHR JUMP JUMPDEST PUSH1 0x0 DUP1 SLOAD PUSH1 0x1 PUSH1 0x1 PUSH1 0xA0 SHL SUB NOT AND PUSH1 0x1 PUSH1 0x1 PUSH1 0xA0 SHL SUB DUP4 AND SWAP1 DUP2 OR DUP3 SSTORE PUSH1 0x40 MLOAD SWAP3 SWAP4 POP SWAP2 PUSH32 0x8BE0079C531659141344CD1FD0A4F28419497F9722A3DAAFE3B4186F6B6457E0 SWAP1 DUP3 SWAP1 LOG3 POP DUP2 MLOAD PUSH3 0xCA SWAP1 PUSH1 0x4 SWAP1 PUSH1 0x20 DUP6 ADD SWAP1 PUSH3 0xFA JUMP JUMPDEST POP DUP1 MLOAD PUSH3 0xE0 SWAP1 PUSH1 0x5 SWAP1 PUSH1 0x20 DUP5 ADD SWAP1 PUSH3 0xFA JUMP JUMPDEST POP POP PUSH1 0x6 DUP1 SLOAD PUSH1 0xFF NOT AND PUSH1 0x12 OR SWAP1 SSTORE POP PUSH3 0x196 JUMP JUMPDEST CALLER SWAP1 JUMP JUMPDEST DUP3 DUP1 SLOAD PUSH1 0x1 DUP2 PUSH1 0x1 AND ISZERO PUSH2 0x100 MUL SUB AND PUSH1 0x2 SWAP1 DIV SWAP1 PUSH1 0x0 MSTORE PUSH1 0x20 PUSH1 0x0 KECCAK256 SWAP1 PUSH1 0x1F ADD PUSH1 0x20 SWAP1 DIV DUP2 ADD SWAP3 DUP3 PUSH1 0x1F LT PUSH3 0x13D JUMPI DUP1 MLOAD PUSH1 0xFF NOT AND DUP4 DUP1 ADD OR DUP6 SSTORE PUSH3 0x16D JUMP JUMPDEST DUP3 DUP1 ADD PUSH1 0x1 ADD DUP6 SSTORE DUP3 ISZERO PUSH3 0x16D JUMPI SWAP2 DUP3 ADD JUMPDEST DUP3 DUP2 GT ISZERO PUSH3 0x16D JUMPI DUP3 MLOAD DUP3 SSTORE SWAP2 PUSH1 0x20 ADD SWAP2 SWAP1 PUSH1 0x1 ADD SWAP1 PUSH3 0x150 JUMP JUMPDEST POP PUSH3 0x17B SWAP3 SWAP2 POP PUSH3 0x17F JUMP JUMPDEST POP SWAP1 JUMP JUMPDEST JUMPDEST DUP1 DUP3 GT ISZERO PUSH3 0x17B JUMPI PUSH1 0x0 DUP2 SSTORE PUSH1 0x1 ADD PUSH3 0x180 JUMP JUMPDEST PUSH2 0x1B8A DUP1 PUSH3 0x1A6 PUSH1 0x0 CODECOPY PUSH1 0x0 RETURN INVALID PUSH1 0x80 PUSH1 0x40 MSTORE CALLVALUE DUP1 ISZERO PUSH2 0x10 JUMPI PUSH1 0x0 DUP1 REVERT JUMPDEST POP PUSH1 0x4 CALLDATASIZE LT PUSH2 0x1A9 JUMPI PUSH1 0x0 CALLDATALOAD PUSH1 0xE0 SHR DUP1 PUSH4 0x782D6FE1 GT PUSH2 0xF9 JUMPI DUP1 PUSH4 0xA9059CBB GT PUSH2 0x97 JUMPI DUP1 PUSH4 0xDD62ED3E GT PUSH2 0x71 JUMPI DUP1 PUSH4 0xDD62ED3E EQ PUSH2 0x55C JUMPI DUP1 PUSH4 0xE7A324DC EQ PUSH2 0x58A JUMPI DUP1 PUSH4 0xF1127ED8 EQ PUSH2 0x592 JUMPI DUP1 PUSH4 0xF2FDE38B EQ PUSH2 0x5E4 JUMPI PUSH2 0x1A9 JUMP JUMPDEST DUP1 PUSH4 0xA9059CBB EQ PUSH2 0x4C3 JUMPI DUP1 PUSH4 0xB4B5EA57 EQ PUSH2 0x4EF JUMPI DUP1 PUSH4 0xC3CDA520 EQ PUSH2 0x515 JUMPI PUSH2 0x1A9 JUMP JUMPDEST DUP1 PUSH4 0x8DA5CB5B GT PUSH2 0xD3 JUMPI DUP1 PUSH4 0x8DA5CB5B EQ PUSH2 0x46A JUMPI DUP1 PUSH4 0x95D89B41 EQ PUSH2 0x472 JUMPI DUP1 PUSH4 0xA0712D68 EQ PUSH2 0x47A JUMPI DUP1 PUSH4 0xA457C2D7 EQ PUSH2 0x497 JUMPI PUSH2 0x1A9 JUMP JUMPDEST DUP1 PUSH4 0x782D6FE1 EQ PUSH2 0x410 JUMPI DUP1 PUSH4 0x7ECEBE00 EQ PUSH2 0x43C JUMPI DUP1 PUSH4 0x893D20E8 EQ PUSH2 0x462 JUMPI PUSH2 0x1A9 JUMP JUMPDEST DUP1 PUSH4 0x39509351 GT PUSH2 0x166 JUMPI DUP1 PUSH4 0x5C19A95C GT PUSH2 0x140 JUMPI DUP1 PUSH4 0x5C19A95C EQ PUSH2 0x37D JUMPI DUP1 PUSH4 0x6FCFFF45 EQ PUSH2 0x3A3 JUMPI DUP1 PUSH4 0x70A08231 EQ PUSH2 0x3E2 JUMPI DUP1 PUSH4 0x715018A6 EQ PUSH2 0x408 JUMPI PUSH2 0x1A9 JUMP JUMPDEST DUP1 PUSH4 0x39509351 EQ PUSH2 0x2E1 JUMPI DUP1 PUSH4 0x40C10F19 EQ PUSH2 0x30D JUMPI DUP1 PUSH4 0x587CDE1E EQ PUSH2 0x33B JUMPI PUSH2 0x1A9 JUMP JUMPDEST DUP1 PUSH4 0x6FDDE03 EQ PUSH2 0x1AE JUMPI DUP1 PUSH4 0x95EA7B3 EQ PUSH2 0x22B JUMPI DUP1 PUSH4 0x18160DDD EQ PUSH2 0x26B JUMPI DUP1 PUSH4 0x20606B70 EQ PUSH2 0x285 JUMPI DUP1 PUSH4 0x23B872DD EQ PUSH2 0x28D JUMPI DUP1 PUSH4 0x313CE567 EQ PUSH2 0x2C3 JUMPI JUMPDEST PUSH1 0x0 DUP1 REVERT JUMPDEST PUSH2 0x1B6 PUSH2 0x60A JUMP JUMPDEST PUSH1 0x40 DUP1 MLOAD PUSH1 0x20 DUP1 DUP3 MSTORE DUP4 MLOAD DUP2 DUP4 ADD MSTORE DUP4 MLOAD SWAP2 SWAP3 DUP4 SWAP3 SWAP1 DUP4 ADD SWAP2 DUP6 ADD SWAP1 DUP1 DUP4 DUP4 PUSH1 0x0 JUMPDEST DUP4 DUP2 LT ISZERO PUSH2 0x1F0 JUMPI DUP2 DUP2 ADD MLOAD DUP4 DUP3 ADD MSTORE PUSH1 0x20 ADD PUSH2 0x1D8 JUMP JUMPDEST POP POP POP POP SWAP1 POP SWAP1 DUP2 ADD SWAP1 PUSH1 0x1F AND DUP1 ISZERO PUSH2 0x21D JUMPI DUP1 DUP3 SUB DUP1 MLOAD PUSH1 0x1 DUP4 PUSH1 0x20 SUB PUSH2 0x100 EXP SUB NOT AND DUP2 MSTORE PUSH1 0x20 ADD SWAP2 POP JUMPDEST POP SWAP3 POP POP POP PUSH1 0x40 MLOAD DUP1 SWAP2 SUB SWAP1 RETURN JUMPDEST PUSH2 0x257 PUSH1 0x4 DUP1 CALLDATASIZE SUB PUSH1 0x40 DUP2 LT ISZERO PUSH2 0x241 JUMPI PUSH1 0x0 DUP1 REVERT JUMPDEST POP PUSH1 0x1 PUSH1 0x1 PUSH1 0xA0 SHL SUB DUP2 CALLDATALOAD AND SWAP1 PUSH1 0x20 ADD CALLDATALOAD PUSH2 0x6A0 JUMP JUMPDEST PUSH1 0x40 DUP1 MLOAD SWAP2 ISZERO ISZERO DUP3 MSTORE MLOAD SWAP1 DUP2 SWAP1 SUB PUSH1 0x20 ADD SWAP1 RETURN JUMPDEST PUSH2 0x273 PUSH2 0x6BE JUMP JUMPDEST PUSH1 0x40 DUP1 MLOAD SWAP2 DUP3 MSTORE MLOAD SWAP1 DUP2 SWAP1 SUB PUSH1 0x20 ADD SWAP1 RETURN JUMPDEST PUSH2 0x273 PUSH2 0x6C4 JUMP JUMPDEST PUSH2 0x257 PUSH1 0x4 DUP1 CALLDATASIZE SUB PUSH1 0x60 DUP2 LT ISZERO PUSH2 0x2A3 JUMPI PUSH1 0x0 DUP1 REVERT JUMPDEST POP PUSH1 0x1 PUSH1 0x1 PUSH1 0xA0 SHL SUB DUP2 CALLDATALOAD DUP2 AND SWAP2 PUSH1 0x20 DUP2 ADD CALLDATALOAD SWAP1 SWAP2 AND SWAP1 PUSH1 0x40 ADD CALLDATALOAD PUSH2 0x6E8 JUMP JUMPDEST PUSH2 0x2CB PUSH2 0x76F JUMP JUMPDEST PUSH1 0x40 DUP1 MLOAD PUSH1 0xFF SWAP1 SWAP3 AND DUP3 MSTORE MLOAD SWAP1 DUP2 SWAP1 SUB PUSH1 0x20 ADD SWAP1 RETURN JUMPDEST PUSH2 0x257 PUSH1 0x4 DUP1 CALLDATASIZE SUB PUSH1 0x40 DUP2 LT ISZERO PUSH2 0x2F7 JUMPI PUSH1 0x0 DUP1 REVERT JUMPDEST POP PUSH1 0x1 PUSH1 0x1 PUSH1 0xA0 SHL SUB DUP2 CALLDATALOAD AND SWAP1 PUSH1 0x20 ADD CALLDATALOAD PUSH2 0x778 JUMP JUMPDEST PUSH2 0x339 PUSH1 0x4 DUP1 CALLDATASIZE SUB PUSH1 0x40 DUP2 LT ISZERO PUSH2 0x323 JUMPI PUSH1 0x0 DUP1 REVERT JUMPDEST POP PUSH1 0x1 PUSH1 0x1 PUSH1 0xA0 SHL SUB DUP2 CALLDATALOAD AND SWAP1 PUSH1 0x20 ADD CALLDATALOAD PUSH2 0x7C6 JUMP JUMPDEST STOP JUMPDEST PUSH2 0x361 PUSH1 0x4 DUP1 CALLDATASIZE SUB PUSH1 0x20 DUP2 LT ISZERO PUSH2 0x351 JUMPI PUSH1 0x0 DUP1 REVERT JUMPDEST POP CALLDATALOAD PUSH1 0x1 PUSH1 0x1 PUSH1 0xA0 SHL SUB AND PUSH2 0x851 JUMP JUMPDEST PUSH1 0x40 DUP1 MLOAD PUSH1 0x1 PUSH1 0x1 PUSH1 0xA0 SHL SUB SWAP1 SWAP3 AND DUP3 MSTORE MLOAD SWAP1 DUP2 SWAP1 SUB PUSH1 0x20 ADD SWAP1 RETURN JUMPDEST PUSH2 0x339 PUSH1 0x4 DUP1 CALLDATASIZE SUB PUSH1 0x20 DUP2 LT ISZERO PUSH2 0x393 JUMPI PUSH1 0x0 DUP1 REVERT JUMPDEST POP CALLDATALOAD PUSH1 0x1 PUSH1 0x1 PUSH1 0xA0 SHL SUB AND PUSH2 0x86F JUMP JUMPDEST PUSH2 0x3C9 PUSH1 0x4 DUP1 CALLDATASIZE SUB PUSH1 0x20 DUP2 LT ISZERO PUSH2 0x3B9 JUMPI PUSH1 0x0 DUP1 REVERT JUMPDEST POP CALLDATALOAD PUSH1 0x1 PUSH1 0x1 PUSH1 0xA0 SHL SUB AND PUSH2 0x87C JUMP JUMPDEST PUSH1 0x40 DUP1 MLOAD PUSH4 0xFFFFFFFF SWAP1 SWAP3 AND DUP3 MSTORE MLOAD SWAP1 DUP2 SWAP1 SUB PUSH1 0x20 ADD SWAP1 RETURN JUMPDEST PUSH2 0x273 PUSH1 0x4 DUP1 CALLDATASIZE SUB PUSH1 0x20 DUP2 LT ISZERO PUSH2 0x3F8 JUMPI PUSH1 0x0 DUP1 REVERT JUMPDEST POP CALLDATALOAD PUSH1 0x1 PUSH1 0x1 PUSH1 0xA0 SHL SUB AND PUSH2 0x894 JUMP JUMPDEST PUSH2 0x339 PUSH2 0x8AF JUMP JUMPDEST PUSH2 0x273 PUSH1 0x4 DUP1 CALLDATASIZE SUB PUSH1 0x40 DUP2 LT ISZERO PUSH2 0x426 JUMPI PUSH1 0x0 DUP1 REVERT JUMPDEST POP PUSH1 0x1 PUSH1 0x1 PUSH1 0xA0 SHL SUB DUP2 CALLDATALOAD AND SWAP1 PUSH1 0x20 ADD CALLDATALOAD PUSH2 0x951 JUMP JUMPDEST PUSH2 0x273 PUSH1 0x4 DUP1 CALLDATASIZE SUB PUSH1 0x20 DUP2 LT ISZERO PUSH2 0x452 JUMPI PUSH1 0x0 DUP1 REVERT JUMPDEST POP CALLDATALOAD PUSH1 0x1 PUSH1 0x1 PUSH1 0xA0 SHL SUB AND PUSH2 0xB59 JUMP JUMPDEST PUSH2 0x361 PUSH2 0xB6B JUMP JUMPDEST PUSH2 0x361 PUSH2 0xB7A JUMP JUMPDEST PUSH2 0x1B6 PUSH2 0xB89 JUMP JUMPDEST PUSH2 0x257 PUSH1 0x4 DUP1 CALLDATASIZE SUB PUSH1 0x20 DUP2 LT ISZERO PUSH2 0x490 JUMPI PUSH1 0x0 DUP1 REVERT JUMPDEST POP CALLDATALOAD PUSH2 0xBEA JUMP JUMPDEST PUSH2 0x257 PUSH1 0x4 DUP1 CALLDATASIZE SUB PUSH1 0x40 DUP2 LT ISZERO PUSH2 0x4AD JUMPI PUSH1 0x0 DUP1 REVERT JUMPDEST POP PUSH1 0x1 PUSH1 0x1 PUSH1 0xA0 SHL SUB DUP2 CALLDATALOAD AND SWAP1 PUSH1 0x20 ADD CALLDATALOAD PUSH2 0xC5D JUMP JUMPDEST PUSH2 0x257 PUSH1 0x4 DUP1 CALLDATASIZE SUB PUSH1 0x40 DUP2 LT ISZERO PUSH2 0x4D9 JUMPI PUSH1 0x0 DUP1 REVERT JUMPDEST POP PUSH1 0x1 PUSH1 0x1 PUSH1 0xA0 SHL SUB DUP2 CALLDATALOAD AND SWAP1 PUSH1 0x20 ADD CALLDATALOAD PUSH2 0xCC5 JUMP JUMPDEST PUSH2 0x273 PUSH1 0x4 DUP1 CALLDATASIZE SUB PUSH1 0x20 DUP2 LT ISZERO PUSH2 0x505 JUMPI PUSH1 0x0 DUP1 REVERT JUMPDEST POP CALLDATALOAD PUSH1 0x1 PUSH1 0x1 PUSH1 0xA0 SHL SUB AND PUSH2 0xCD9 JUMP JUMPDEST PUSH2 0x339 PUSH1 0x4 DUP1 CALLDATASIZE SUB PUSH1 0xC0 DUP2 LT ISZERO PUSH2 0x52B JUMPI PUSH1 0x0 DUP1 REVERT JUMPDEST POP PUSH1 0x1 PUSH1 0x1 PUSH1 0xA0 SHL SUB DUP2 CALLDATALOAD AND SWAP1 PUSH1 0x20 DUP2 ADD CALLDATALOAD SWAP1 PUSH1 0x40 DUP2 ADD CALLDATALOAD SWAP1 PUSH1 0xFF PUSH1 0x60 DUP3 ADD CALLDATALOAD AND SWAP1 PUSH1 0x80 DUP2 ADD CALLDATALOAD SWAP1 PUSH1 0xA0 ADD CALLDATALOAD PUSH2 0xD3D JUMP JUMPDEST PUSH2 0x273 PUSH1 0x4 DUP1 CALLDATASIZE SUB PUSH1 0x40 DUP2 LT ISZERO PUSH2 0x572 JUMPI PUSH1 0x0 DUP1 REVERT JUMPDEST POP PUSH1 0x1 PUSH1 0x1 PUSH1 0xA0 SHL SUB DUP2 CALLDATALOAD DUP2 AND SWAP2 PUSH1 0x20 ADD CALLDATALOAD AND PUSH2 0xFB0 JUMP JUMPDEST PUSH2 0x273 PUSH2 0xFDB JUMP JUMPDEST PUSH2 0x5C4 PUSH1 0x4 DUP1 CALLDATASIZE SUB PUSH1 0x40 DUP2 LT ISZERO PUSH2 0x5A8 JUMPI PUSH1 0x0 DUP1 REVERT JUMPDEST POP DUP1 CALLDATALOAD PUSH1 0x1 PUSH1 0x1 PUSH1 0xA0 SHL SUB AND SWAP1 PUSH1 0x20 ADD CALLDATALOAD PUSH4 0xFFFFFFFF AND PUSH2 0xFFF JUMP JUMPDEST PUSH1 0x40 DUP1 MLOAD PUSH4 0xFFFFFFFF SWAP1 SWAP4 AND DUP4 MSTORE PUSH1 0x20 DUP4 ADD SWAP2 SWAP1 SWAP2 MSTORE DUP1 MLOAD SWAP2 DUP3 SWAP1 SUB ADD SWAP1 RETURN JUMPDEST PUSH2 0x339 PUSH1 0x4 DUP1 CALLDATASIZE SUB PUSH1 0x20 DUP2 LT ISZERO PUSH2 0x5FA JUMPI PUSH1 0x0 DUP1 REVERT JUMPDEST POP CALLDATALOAD PUSH1 0x1 PUSH1 0x1 PUSH1 0xA0 SHL SUB AND PUSH2 0x102C JUMP JUMPDEST PUSH1 0x4 DUP1 SLOAD PUSH1 0x40 DUP1 MLOAD PUSH1 0x20 PUSH1 0x1F PUSH1 0x2 PUSH1 0x0 NOT PUSH2 0x100 PUSH1 0x1 DUP9 AND ISZERO MUL ADD SWAP1 SWAP6 AND SWAP5 SWAP1 SWAP5 DIV SWAP4 DUP5 ADD DUP2 SWAP1 DIV DUP2 MUL DUP3 ADD DUP2 ADD SWAP1 SWAP3 MSTORE DUP3 DUP2 MSTORE PUSH1 0x60 SWAP4 SWAP1 SWAP3 SWAP1 SWAP2 DUP4 ADD DUP3 DUP3 DUP1 ISZERO PUSH2 0x696 JUMPI DUP1 PUSH1 0x1F LT PUSH2 0x66B JUMPI PUSH2 0x100 DUP1 DUP4 SLOAD DIV MUL DUP4 MSTORE SWAP2 PUSH1 0x20 ADD SWAP2 PUSH2 0x696 JUMP JUMPDEST DUP3 ADD SWAP2 SWAP1 PUSH1 0x0 MSTORE PUSH1 0x20 PUSH1 0x0 KECCAK256 SWAP1 JUMPDEST DUP2 SLOAD DUP2 MSTORE SWAP1 PUSH1 0x1 ADD SWAP1 PUSH1 0x20 ADD DUP1 DUP4 GT PUSH2 0x679 JUMPI DUP3 SWAP1 SUB PUSH1 0x1F AND DUP3 ADD SWAP2 JUMPDEST POP POP POP POP POP SWAP1 POP SWAP1 JUMP JUMPDEST PUSH1 0x0 PUSH2 0x6B4 PUSH2 0x6AD PUSH2 0x108D JUMP JUMPDEST DUP5 DUP5 PUSH2 0x1091 JUMP JUMPDEST POP PUSH1 0x1 JUMPDEST SWAP3 SWAP2 POP POP JUMP JUMPDEST PUSH1 0x3 SLOAD SWAP1 JUMP JUMPDEST PUSH32 0x8CAD95687BA82C2CE50E74F7B754645E5117C3A5BEC8151C0726D5857980A866 DUP2 JUMP JUMPDEST PUSH1 0x0 PUSH2 0x6F5 DUP5 DUP5 DUP5 PUSH2 0x117D JUMP JUMPDEST PUSH2 0x765 DUP5 PUSH2 0x701 PUSH2 0x108D JUMP JUMPDEST PUSH2 0x760 DUP6 PUSH1 0x40 MLOAD DUP1 PUSH1 0x60 ADD PUSH1 0x40 MSTORE DUP1 PUSH1 0x29 DUP2 MSTORE PUSH1 0x20 ADD PUSH2 0x193E PUSH1 0x29 SWAP2 CODECOPY PUSH1 0x1 PUSH1 0x1 PUSH1 0xA0 SHL SUB DUP11 AND PUSH1 0x0 SWAP1 DUP2 MSTORE PUSH1 0x2 PUSH1 0x20 MSTORE PUSH1 0x40 DUP2 KECCAK256 SWAP1 PUSH2 0x73F PUSH2 0x108D JUMP JUMPDEST PUSH1 0x1 PUSH1 0x1 PUSH1 0xA0 SHL SUB AND DUP2 MSTORE PUSH1 0x20 DUP2 ADD SWAP2 SWAP1 SWAP2 MSTORE PUSH1 0x40 ADD PUSH1 0x0 KECCAK256 SLOAD SWAP2 SWAP1 PUSH2 0x12CF JUMP JUMPDEST PUSH2 0x1091 JUMP JUMPDEST POP PUSH1 0x1 SWAP4 SWAP3 POP POP POP JUMP JUMPDEST PUSH1 0x6 SLOAD PUSH1 0xFF AND SWAP1 JUMP JUMPDEST PUSH1 0x0 PUSH2 0x6B4 PUSH2 0x785 PUSH2 0x108D JUMP JUMPDEST DUP5 PUSH2 0x760 DUP6 PUSH1 0x2 PUSH1 0x0 PUSH2 0x796 PUSH2 0x108D JUMP JUMPDEST PUSH1 0x1 PUSH1 0x1 PUSH1 0xA0 SHL SUB SWAP1 DUP2 AND DUP3 MSTORE PUSH1 0x20 DUP1 DUP4 ADD SWAP4 SWAP1 SWAP4 MSTORE PUSH1 0x40 SWAP2 DUP3 ADD PUSH1 0x0 SWAP1 DUP2 KECCAK256 SWAP2 DUP13 AND DUP2 MSTORE SWAP3 MSTORE SWAP1 KECCAK256 SLOAD SWAP1 PUSH2 0x1366 JUMP JUMPDEST PUSH2 0x7CE PUSH2 0x108D JUMP JUMPDEST PUSH1 0x0 SLOAD PUSH1 0x1 PUSH1 0x1 PUSH1 0xA0 SHL SUB SWAP1 DUP2 AND SWAP2 AND EQ PUSH2 0x81E JUMPI PUSH1 0x40 DUP1 MLOAD PUSH3 0x461BCD PUSH1 0xE5 SHL DUP2 MSTORE PUSH1 0x20 PUSH1 0x4 DUP3 ADD DUP2 SWAP1 MSTORE PUSH1 0x24 DUP3 ADD MSTORE PUSH1 0x0 DUP1 MLOAD PUSH1 0x20 PUSH2 0x1A49 DUP4 CODECOPY DUP2 MLOAD SWAP2 MSTORE PUSH1 0x44 DUP3 ADD MSTORE SWAP1 MLOAD SWAP1 DUP2 SWAP1 SUB PUSH1 0x64 ADD SWAP1 REVERT JUMPDEST PUSH2 0x828 DUP3 DUP3 PUSH2 0x13C0 JUMP JUMPDEST PUSH1 0x1 PUSH1 0x1 PUSH1 0xA0 SHL SUB DUP1 DUP4 AND PUSH1 0x0 SWAP1 DUP2 MSTORE PUSH1 0x7 PUSH1 0x20 MSTORE PUSH1 0x40 DUP2 KECCAK256 SLOAD PUSH2 0x84D SWAP3 AND DUP4 PUSH2 0x14A6 JUMP JUMPDEST POP POP JUMP JUMPDEST PUSH1 0x1 PUSH1 0x1 PUSH1 0xA0 SHL SUB SWAP1 DUP2 AND PUSH1 0x0 SWAP1 DUP2 MSTORE PUSH1 0x7 PUSH1 0x20 MSTORE PUSH1 0x40 SWAP1 KECCAK256 SLOAD AND SWAP1 JUMP JUMPDEST PUSH2 0x879 CALLER DUP3 PUSH2 0x15E8 JUMP JUMPDEST POP JUMP JUMPDEST PUSH1 0x9 PUSH1 0x20 MSTORE PUSH1 0x0 SWAP1 DUP2 MSTORE PUSH1 0x40 SWAP1 KECCAK256 SLOAD PUSH4 0xFFFFFFFF AND DUP2 JUMP JUMPDEST PUSH1 0x1 PUSH1 0x1 PUSH1 0xA0 SHL SUB AND PUSH1 0x0 SWAP1 DUP2 MSTORE PUSH1 0x1 PUSH1 0x20 MSTORE PUSH1 0x40 SWAP1 KECCAK256 SLOAD SWAP1 JUMP JUMPDEST PUSH2 0x8B7 PUSH2 0x108D JUMP JUMPDEST PUSH1 0x0 SLOAD PUSH1 0x1 PUSH1 0x1 PUSH1 0xA0 SHL SUB SWAP1 DUP2 AND SWAP2 AND EQ PUSH2 0x907 JUMPI PUSH1 0x40 DUP1 MLOAD PUSH3 0x461BCD PUSH1 0xE5 SHL DUP2 MSTORE PUSH1 0x20 PUSH1 0x4 DUP3 ADD DUP2 SWAP1 MSTORE PUSH1 0x24 DUP3 ADD MSTORE PUSH1 0x0 DUP1 MLOAD PUSH1 0x20 PUSH2 0x1A49 DUP4 CODECOPY DUP2 MLOAD SWAP2 MSTORE PUSH1 0x44 DUP3 ADD MSTORE SWAP1 MLOAD SWAP1 DUP2 SWAP1 SUB PUSH1 0x64 ADD SWAP1 REVERT JUMPDEST PUSH1 0x0 DUP1 SLOAD PUSH1 0x40 MLOAD PUSH1 0x1 PUSH1 0x1 PUSH1 0xA0 SHL SUB SWAP1 SWAP2 AND SWAP1 PUSH32 0x8BE0079C531659141344CD1FD0A4F28419497F9722A3DAAFE3B4186F6B6457E0 SWAP1 DUP4 SWAP1 LOG3 PUSH1 0x0 DUP1 SLOAD PUSH1 0x1 PUSH1 0x1 PUSH1 0xA0 SHL SUB NOT AND SWAP1 SSTORE JUMP JUMPDEST PUSH1 0x0 NUMBER DUP3 LT PUSH2 0x991 JUMPI PUSH1 0x40 MLOAD PUSH3 0x461BCD PUSH1 0xE5 SHL DUP2 MSTORE PUSH1 0x4 ADD DUP1 DUP1 PUSH1 0x20 ADD DUP3 DUP2 SUB DUP3 MSTORE PUSH1 0x27 DUP2 MSTORE PUSH1 0x20 ADD DUP1 PUSH2 0x1AC3 PUSH1 0x27 SWAP2 CODECOPY PUSH1 0x40 ADD SWAP2 POP POP PUSH1 0x40 MLOAD DUP1 SWAP2 SUB SWAP1 REVERT JUMPDEST PUSH1 0x1 PUSH1 0x1 PUSH1 0xA0 SHL SUB DUP4 AND PUSH1 0x0 SWAP1 DUP2 MSTORE PUSH1 0x9 PUSH1 0x20 MSTORE PUSH1 0x40 SWAP1 KECCAK256 SLOAD PUSH4 0xFFFFFFFF AND DUP1 PUSH2 0x9BF JUMPI PUSH1 0x0 SWAP2 POP POP PUSH2 0x6B8 JUMP JUMPDEST PUSH1 0x1 PUSH1 0x1 PUSH1 0xA0 SHL SUB DUP5 AND PUSH1 0x0 SWAP1 DUP2 MSTORE PUSH1 0x8 PUSH1 0x20 SWAP1 DUP2 MSTORE PUSH1 0x40 DUP1 DUP4 KECCAK256 PUSH4 0xFFFFFFFF PUSH1 0x0 NOT DUP7 ADD DUP2 AND DUP6 MSTORE SWAP3 MSTORE SWAP1 SWAP2 KECCAK256 SLOAD AND DUP4 LT PUSH2 0xA2E JUMPI PUSH1 0x1 PUSH1 0x1 PUSH1 0xA0 SHL SUB DUP5 AND PUSH1 0x0 SWAP1 DUP2 MSTORE PUSH1 0x8 PUSH1 0x20 SWAP1 DUP2 MSTORE PUSH1 0x40 DUP1 DUP4 KECCAK256 PUSH1 0x0 NOT SWAP5 SWAP1 SWAP5 ADD PUSH4 0xFFFFFFFF AND DUP4 MSTORE SWAP3 SWAP1 MSTORE KECCAK256 PUSH1 0x1 ADD SLOAD SWAP1 POP PUSH2 0x6B8 JUMP JUMPDEST PUSH1 0x1 PUSH1 0x1 PUSH1 0xA0 SHL SUB DUP5 AND PUSH1 0x0 SWAP1 DUP2 MSTORE PUSH1 0x8 PUSH1 0x20 SWAP1 DUP2 MSTORE PUSH1 0x40 DUP1 DUP4 KECCAK256 DUP4 DUP1 MSTORE SWAP1 SWAP2 MSTORE SWAP1 KECCAK256 SLOAD PUSH4 0xFFFFFFFF AND DUP4 LT ISZERO PUSH2 0xA69 JUMPI PUSH1 0x0 SWAP2 POP POP PUSH2 0x6B8 JUMP JUMPDEST PUSH1 0x0 PUSH1 0x0 NOT DUP3 ADD JUMPDEST DUP2 PUSH4 0xFFFFFFFF AND DUP2 PUSH4 0xFFFFFFFF AND GT ISZERO PUSH2 0xB22 JUMPI PUSH1 0x2 DUP3 DUP3 SUB PUSH4 0xFFFFFFFF AND DIV DUP2 SUB PUSH2 0xA9B PUSH2 0x1926 JUMP JUMPDEST POP PUSH1 0x1 PUSH1 0x1 PUSH1 0xA0 SHL SUB DUP8 AND PUSH1 0x0 SWAP1 DUP2 MSTORE PUSH1 0x8 PUSH1 0x20 SWAP1 DUP2 MSTORE PUSH1 0x40 DUP1 DUP4 KECCAK256 PUSH4 0xFFFFFFFF DUP1 DUP7 AND DUP6 MSTORE SWAP1 DUP4 MSTORE SWAP3 DUP2 SWAP1 KECCAK256 DUP2 MLOAD DUP1 DUP4 ADD SWAP1 SWAP3 MSTORE DUP1 SLOAD SWAP1 SWAP4 AND DUP1 DUP3 MSTORE PUSH1 0x1 SWAP1 SWAP4 ADD SLOAD SWAP2 DUP2 ADD SWAP2 SWAP1 SWAP2 MSTORE SWAP1 DUP8 EQ ISZERO PUSH2 0xAFD JUMPI PUSH1 0x20 ADD MLOAD SWAP5 POP PUSH2 0x6B8 SWAP4 POP POP POP POP JUMP JUMPDEST DUP1 MLOAD PUSH4 0xFFFFFFFF AND DUP8 GT ISZERO PUSH2 0xB14 JUMPI DUP2 SWAP4 POP PUSH2 0xB1B JUMP JUMPDEST PUSH1 0x1 DUP3 SUB SWAP3 POP JUMPDEST POP POP PUSH2 0xA71 JUMP JUMPDEST POP PUSH1 0x1 PUSH1 0x1 PUSH1 0xA0 SHL SUB DUP6 AND PUSH1 0x0 SWAP1 DUP2 MSTORE PUSH1 0x8 PUSH1 0x20 SWAP1 DUP2 MSTORE PUSH1 0x40 DUP1 DUP4 KECCAK256 PUSH4 0xFFFFFFFF SWAP1 SWAP5 AND DUP4 MSTORE SWAP3 SWAP1 MSTORE KECCAK256 PUSH1 0x1 ADD SLOAD SWAP2 POP POP SWAP3 SWAP2 POP POP JUMP JUMPDEST PUSH1 0xA PUSH1 0x20 MSTORE PUSH1 0x0 SWAP1 DUP2 MSTORE PUSH1 0x40 SWAP1 KECCAK256 SLOAD DUP2 JUMP JUMPDEST PUSH1 0x0 PUSH2 0xB75 PUSH2 0xB7A JUMP JUMPDEST SWAP1 POP SWAP1 JUMP JUMPDEST PUSH1 0x0 SLOAD PUSH1 0x1 PUSH1 0x1 PUSH1 0xA0 SHL SUB AND SWAP1 JUMP JUMPDEST PUSH1 0x5 DUP1 SLOAD PUSH1 0x40 DUP1 MLOAD PUSH1 0x20 PUSH1 0x1F PUSH1 0x2 PUSH1 0x0 NOT PUSH2 0x100 PUSH1 0x1 DUP9 AND ISZERO MUL ADD SWAP1 SWAP6 AND SWAP5 SWAP1 SWAP5 DIV SWAP4 DUP5 ADD DUP2 SWAP1 DIV DUP2 MUL DUP3 ADD DUP2 ADD SWAP1 SWAP3 MSTORE DUP3 DUP2 MSTORE PUSH1 0x60 SWAP4 SWAP1 SWAP3 SWAP1 SWAP2 DUP4 ADD DUP3 DUP3 DUP1 ISZERO PUSH2 0x696 JUMPI DUP1 PUSH1 0x1F LT PUSH2 0x66B JUMPI PUSH2 0x100 DUP1 DUP4 SLOAD DIV MUL DUP4 MSTORE SWAP2 PUSH1 0x20 ADD SWAP2 PUSH2 0x696 JUMP JUMPDEST PUSH1 0x0 PUSH2 0xBF4 PUSH2 0x108D JUMP JUMPDEST PUSH1 0x0 SLOAD PUSH1 0x1 PUSH1 0x1 PUSH1 0xA0 SHL SUB SWAP1 DUP2 AND SWAP2 AND EQ PUSH2 0xC44 JUMPI PUSH1 0x40 DUP1 MLOAD PUSH3 0x461BCD PUSH1 0xE5 SHL DUP2 MSTORE PUSH1 0x20 PUSH1 0x4 DUP3 ADD DUP2 SWAP1 MSTORE PUSH1 0x24 DUP3 ADD MSTORE PUSH1 0x0 DUP1 MLOAD PUSH1 0x20 PUSH2 0x1A49 DUP4 CODECOPY DUP2 MLOAD SWAP2 MSTORE PUSH1 0x44 DUP3 ADD MSTORE SWAP1 MLOAD SWAP1 DUP2 SWAP1 SUB PUSH1 0x64 ADD SWAP1 REVERT JUMPDEST PUSH2 0xC55 PUSH2 0xC4F PUSH2 0x108D JUMP JUMPDEST DUP4 PUSH2 0x13C0 JUMP JUMPDEST POP PUSH1 0x1 SWAP2 SWAP1 POP JUMP JUMPDEST PUSH1 0x0 PUSH2 0x6B4 PUSH2 0xC6A PUSH2 0x108D JUMP JUMPDEST DUP5 PUSH2 0x760 DUP6 PUSH1 0x40 MLOAD DUP1 PUSH1 0x60 ADD PUSH1 0x40 MSTORE DUP1 PUSH1 0x26 DUP2 MSTORE PUSH1 0x20 ADD PUSH2 0x19DA PUSH1 0x26 SWAP2 CODECOPY PUSH1 0x2 PUSH1 0x0 PUSH2 0xC94 PUSH2 0x108D JUMP JUMPDEST PUSH1 0x1 PUSH1 0x1 PUSH1 0xA0 SHL SUB SWAP1 DUP2 AND DUP3 MSTORE PUSH1 0x20 DUP1 DUP4 ADD SWAP4 SWAP1 SWAP4 MSTORE PUSH1 0x40 SWAP2 DUP3 ADD PUSH1 0x0 SWAP1 DUP2 KECCAK256 SWAP2 DUP14 AND DUP2 MSTORE SWAP3 MSTORE SWAP1 KECCAK256 SLOAD SWAP2 SWAP1 PUSH2 0x12CF JUMP JUMPDEST PUSH1 0x0 PUSH2 0x6B4 PUSH2 0xCD2 PUSH2 0x108D JUMP JUMPDEST DUP5 DUP5 PUSH2 0x117D JUMP JUMPDEST PUSH1 0x1 PUSH1 0x1 PUSH1 0xA0 SHL SUB DUP2 AND PUSH1 0x0 SWAP1 DUP2 MSTORE PUSH1 0x9 PUSH1 0x20 MSTORE PUSH1 0x40 DUP2 KECCAK256 SLOAD PUSH4 0xFFFFFFFF AND DUP1 PUSH2 0xD04 JUMPI PUSH1 0x0 PUSH2 0xD36 JUMP JUMPDEST PUSH1 0x1 PUSH1 0x1 PUSH1 0xA0 SHL SUB DUP4 AND PUSH1 0x0 SWAP1 DUP2 MSTORE PUSH1 0x8 PUSH1 0x20 SWAP1 DUP2 MSTORE PUSH1 0x40 DUP1 DUP4 KECCAK256 PUSH4 0xFFFFFFFF PUSH1 0x0 NOT DUP7 ADD AND DUP5 MSTORE SWAP1 SWAP2 MSTORE SWAP1 KECCAK256 PUSH1 0x1 ADD SLOAD JUMPDEST SWAP4 SWAP3 POP POP POP JUMP JUMPDEST PUSH1 0x0 PUSH32 0x8CAD95687BA82C2CE50E74F7B754645E5117C3A5BEC8151C0726D5857980A866 PUSH2 0xD68 PUSH2 0x60A JUMP JUMPDEST DUP1 MLOAD SWAP1 PUSH1 0x20 ADD KECCAK256 PUSH2 0xD77 PUSH2 0x167D JUMP JUMPDEST PUSH1 0x40 DUP1 MLOAD PUSH1 0x20 DUP1 DUP3 ADD SWAP6 SWAP1 SWAP6 MSTORE DUP1 DUP3 ADD SWAP4 SWAP1 SWAP4 MSTORE PUSH1 0x60 DUP4 ADD SWAP2 SWAP1 SWAP2 MSTORE ADDRESS PUSH1 0x80 DUP1 DUP5 ADD SWAP2 SWAP1 SWAP2 MSTORE DUP2 MLOAD DUP1 DUP5 SUB SWAP1 SWAP2 ADD DUP2 MSTORE PUSH1 0xA0 DUP4 ADD DUP3 MSTORE DUP1 MLOAD SWAP1 DUP5 ADD KECCAK256 PUSH32 0xE48329057BFD03D55E49B547132E39CFFD9C1820AD7B9D4C5307691425D15ADF PUSH1 0xC0 DUP5 ADD MSTORE PUSH1 0x1 PUSH1 0x1 PUSH1 0xA0 SHL SUB DUP12 AND PUSH1 0xE0 DUP5 ADD MSTORE PUSH2 0x100 DUP4 ADD DUP11 SWAP1 MSTORE PUSH2 0x120 DUP1 DUP5 ADD DUP11 SWAP1 MSTORE DUP3 MLOAD DUP1 DUP6 SUB SWAP1 SWAP2 ADD DUP2 MSTORE PUSH2 0x140 DUP5 ADD DUP4 MSTORE DUP1 MLOAD SWAP1 DUP6 ADD KECCAK256 PUSH2 0x1901 PUSH1 0xF0 SHL PUSH2 0x160 DUP6 ADD MSTORE PUSH2 0x162 DUP5 ADD DUP3 SWAP1 MSTORE PUSH2 0x182 DUP1 DUP6 ADD DUP3 SWAP1 MSTORE DUP4 MLOAD DUP1 DUP7 SUB SWAP1 SWAP2 ADD DUP2 MSTORE PUSH2 0x1A2 DUP6 ADD DUP1 DUP6 MSTORE DUP2 MLOAD SWAP2 DUP8 ADD SWAP2 SWAP1 SWAP2 KECCAK256 PUSH1 0x0 SWAP2 DUP3 SWAP1 MSTORE PUSH2 0x1C2 DUP7 ADD DUP1 DUP7 MSTORE DUP2 SWAP1 MSTORE PUSH1 0xFF DUP12 AND PUSH2 0x1E2 DUP8 ADD MSTORE PUSH2 0x202 DUP7 ADD DUP11 SWAP1 MSTORE PUSH2 0x222 DUP7 ADD DUP10 SWAP1 MSTORE SWAP4 MLOAD SWAP3 SWAP7 POP SWAP1 SWAP5 SWAP3 SWAP4 SWAP1 SWAP3 PUSH1 0x1 SWAP3 PUSH2 0x242 DUP1 DUP5 ADD SWAP4 PUSH1 0x1F NOT DUP4 ADD SWAP3 SWAP1 DUP2 SWAP1 SUB SWAP1 SWAP2 ADD SWAP1 DUP6 GAS STATICCALL ISZERO DUP1 ISZERO PUSH2 0xEAA JUMPI RETURNDATASIZE PUSH1 0x0 DUP1 RETURNDATACOPY RETURNDATASIZE PUSH1 0x0 REVERT JUMPDEST POP POP PUSH1 0x40 MLOAD PUSH1 0x1F NOT ADD MLOAD SWAP2 POP POP PUSH1 0x1 PUSH1 0x1 PUSH1 0xA0 SHL SUB DUP2 AND PUSH2 0xEFC JUMPI PUSH1 0x40 MLOAD PUSH3 0x461BCD PUSH1 0xE5 SHL DUP2 MSTORE PUSH1 0x4 ADD DUP1 DUP1 PUSH1 0x20 ADD DUP3 DUP2 SUB DUP3 MSTORE PUSH1 0x26 DUP2 MSTORE PUSH1 0x20 ADD DUP1 PUSH2 0x1A23 PUSH1 0x26 SWAP2 CODECOPY PUSH1 0x40 ADD SWAP2 POP POP PUSH1 0x40 MLOAD DUP1 SWAP2 SUB SWAP1 REVERT JUMPDEST PUSH1 0x1 PUSH1 0x1 PUSH1 0xA0 SHL SUB DUP2 AND PUSH1 0x0 SWAP1 DUP2 MSTORE PUSH1 0xA PUSH1 0x20 MSTORE PUSH1 0x40 SWAP1 KECCAK256 DUP1 SLOAD PUSH1 0x1 DUP2 ADD SWAP1 SWAP2 SSTORE DUP10 EQ PUSH2 0xF5A JUMPI PUSH1 0x40 MLOAD PUSH3 0x461BCD PUSH1 0xE5 SHL DUP2 MSTORE PUSH1 0x4 ADD DUP1 DUP1 PUSH1 0x20 ADD DUP3 DUP2 SUB DUP3 MSTORE PUSH1 0x22 DUP2 MSTORE PUSH1 0x20 ADD DUP1 PUSH2 0x1AEA PUSH1 0x22 SWAP2 CODECOPY PUSH1 0x40 ADD SWAP2 POP POP PUSH1 0x40 MLOAD DUP1 SWAP2 SUB SWAP1 REVERT JUMPDEST DUP8 TIMESTAMP GT ISZERO PUSH2 0xF99 JUMPI PUSH1 0x40 MLOAD PUSH3 0x461BCD PUSH1 0xE5 SHL DUP2 MSTORE PUSH1 0x4 ADD DUP1 DUP1 PUSH1 0x20 ADD DUP3 DUP2 SUB DUP3 MSTORE PUSH1 0x26 DUP2 MSTORE PUSH1 0x20 ADD DUP1 PUSH2 0x198D PUSH1 0x26 SWAP2 CODECOPY PUSH1 0x40 ADD SWAP2 POP POP PUSH1 0x40 MLOAD DUP1 SWAP2 SUB SWAP1 REVERT JUMPDEST PUSH2 0xFA3 DUP2 DUP12 PUSH2 0x15E8 JUMP JUMPDEST POP POP POP POP JUMPDEST POP POP POP POP POP POP JUMP JUMPDEST PUSH1 0x1 PUSH1 0x1 PUSH1 0xA0 SHL SUB SWAP2 DUP3 AND PUSH1 0x0 SWAP1 DUP2 MSTORE PUSH1 0x2 PUSH1 0x20 SWAP1 DUP2 MSTORE PUSH1 0x40 DUP1 DUP4 KECCAK256 SWAP4 SWAP1 SWAP5 AND DUP3 MSTORE SWAP2 SWAP1 SWAP2 MSTORE KECCAK256 SLOAD SWAP1 JUMP JUMPDEST PUSH32 0xE48329057BFD03D55E49B547132E39CFFD9C1820AD7B9D4C5307691425D15ADF DUP2 JUMP JUMPDEST PUSH1 0x8 PUSH1 0x20 SWAP1 DUP2 MSTORE PUSH1 0x0 SWAP3 DUP4 MSTORE PUSH1 0x40 DUP1 DUP5 KECCAK256 SWAP1 SWAP2 MSTORE SWAP1 DUP3 MSTORE SWAP1 KECCAK256 DUP1 SLOAD PUSH1 0x1 SWAP1 SWAP2 ADD SLOAD PUSH4 0xFFFFFFFF SWAP1 SWAP2 AND SWAP1 DUP3 JUMP JUMPDEST PUSH2 0x1034 PUSH2 0x108D JUMP JUMPDEST PUSH1 0x0 SLOAD PUSH1 0x1 PUSH1 0x1 PUSH1 0xA0 SHL SUB SWAP1 DUP2 AND SWAP2 AND EQ PUSH2 0x1084 JUMPI PUSH1 0x40 DUP1 MLOAD PUSH3 0x461BCD PUSH1 0xE5 SHL DUP2 MSTORE PUSH1 0x20 PUSH1 0x4 DUP3 ADD DUP2 SWAP1 MSTORE PUSH1 0x24 DUP3 ADD MSTORE PUSH1 0x0 DUP1 MLOAD PUSH1 0x20 PUSH2 0x1A49 DUP4 CODECOPY DUP2 MLOAD SWAP2 MSTORE PUSH1 0x44 DUP3 ADD MSTORE SWAP1 MLOAD SWAP1 DUP2 SWAP1 SUB PUSH1 0x64 ADD SWAP1 REVERT JUMPDEST PUSH2 0x879 DUP2 PUSH2 0x1681 JUMP JUMPDEST CALLER SWAP1 JUMP JUMPDEST PUSH1 0x1 PUSH1 0x1 PUSH1 0xA0 SHL SUB DUP4 AND PUSH2 0x10D6 JUMPI PUSH1 0x40 MLOAD PUSH3 0x461BCD PUSH1 0xE5 SHL DUP2 MSTORE PUSH1 0x4 ADD DUP1 DUP1 PUSH1 0x20 ADD DUP3 DUP2 SUB DUP3 MSTORE PUSH1 0x25 DUP2 MSTORE PUSH1 0x20 ADD DUP1 PUSH2 0x1B30 PUSH1 0x25 SWAP2 CODECOPY PUSH1 0x40 ADD SWAP2 POP POP PUSH1 0x40 MLOAD DUP1 SWAP2 SUB SWAP1 REVERT JUMPDEST PUSH1 0x1 PUSH1 0x1 PUSH1 0xA0 SHL SUB DUP3 AND PUSH2 0x111B JUMPI PUSH1 0x40 MLOAD PUSH3 0x461BCD PUSH1 0xE5 SHL DUP2 MSTORE PUSH1 0x4 ADD DUP1 DUP1 PUSH1 0x20 ADD DUP3 DUP2 SUB DUP3 MSTORE PUSH1 0x23 DUP2 MSTORE PUSH1 0x20 ADD DUP1 PUSH2 0x1A00 PUSH1 0x23 SWAP2 CODECOPY PUSH1 0x40 ADD SWAP2 POP POP PUSH1 0x40 MLOAD DUP1 SWAP2 SUB SWAP1 REVERT JUMPDEST PUSH1 0x1 PUSH1 0x1 PUSH1 0xA0 SHL SUB DUP1 DUP5 AND PUSH1 0x0 DUP2 DUP2 MSTORE PUSH1 0x2 PUSH1 0x20 SWAP1 DUP2 MSTORE PUSH1 0x40 DUP1 DUP4 KECCAK256 SWAP5 DUP8 AND DUP1 DUP5 MSTORE SWAP5 DUP3 MSTORE SWAP2 DUP3 SWAP1 KECCAK256 DUP6 SWAP1 SSTORE DUP2 MLOAD DUP6 DUP2 MSTORE SWAP2 MLOAD PUSH32 0x8C5BE1E5EBEC7D5BD14F71427D1E84F3DD0314C0F7B2291E5B200AC8C7C3B925 SWAP3 DUP2 SWAP1 SUB SWAP1 SWAP2 ADD SWAP1 LOG3 POP POP POP JUMP JUMPDEST PUSH1 0x1 PUSH1 0x1 PUSH1 0xA0 SHL SUB DUP4 AND PUSH2 0x11C2 JUMPI PUSH1 0x40 MLOAD PUSH3 0x461BCD PUSH1 0xE5 SHL DUP2 MSTORE PUSH1 0x4 ADD DUP1 DUP1 PUSH1 0x20 ADD DUP3 DUP2 SUB DUP3 MSTORE PUSH1 0x26 DUP2 MSTORE PUSH1 0x20 ADD DUP1 PUSH2 0x1A69 PUSH1 0x26 SWAP2 CODECOPY PUSH1 0x40 ADD SWAP2 POP POP PUSH1 0x40 MLOAD DUP1 SWAP2 SUB SWAP1 REVERT JUMPDEST PUSH1 0x1 PUSH1 0x1 PUSH1 0xA0 SHL SUB DUP3 AND PUSH2 0x1207 JUMPI PUSH1 0x40 MLOAD PUSH3 0x461BCD PUSH1 0xE5 SHL DUP2 MSTORE PUSH1 0x4 ADD DUP1 DUP1 PUSH1 0x20 ADD DUP3 DUP2 SUB DUP3 MSTORE PUSH1 0x24 DUP2 MSTORE PUSH1 0x20 ADD DUP1 PUSH2 0x1B0C PUSH1 0x24 SWAP2 CODECOPY PUSH1 0x40 ADD SWAP2 POP POP PUSH1 0x40 MLOAD DUP1 SWAP2 SUB SWAP1 REVERT JUMPDEST PUSH2 0x1244 DUP2 PUSH1 0x40 MLOAD DUP1 PUSH1 0x60 ADD PUSH1 0x40 MSTORE DUP1 PUSH1 0x27 DUP2 MSTORE PUSH1 0x20 ADD PUSH2 0x19B3 PUSH1 0x27 SWAP2 CODECOPY PUSH1 0x1 PUSH1 0x1 PUSH1 0xA0 SHL SUB DUP7 AND PUSH1 0x0 SWAP1 DUP2 MSTORE PUSH1 0x1 PUSH1 0x20 MSTORE PUSH1 0x40 SWAP1 KECCAK256 SLOAD SWAP2 SWAP1 PUSH2 0x12CF JUMP JUMPDEST PUSH1 0x1 PUSH1 0x1 PUSH1 0xA0 SHL SUB DUP1 DUP6 AND PUSH1 0x0 SWAP1 DUP2 MSTORE PUSH1 0x1 PUSH1 0x20 MSTORE PUSH1 0x40 DUP1 DUP3 KECCAK256 SWAP4 SWAP1 SWAP4 SSTORE SWAP1 DUP5 AND DUP2 MSTORE KECCAK256 SLOAD PUSH2 0x1273 SWAP1 DUP3 PUSH2 0x1366 JUMP JUMPDEST PUSH1 0x1 PUSH1 0x1 PUSH1 0xA0 SHL SUB DUP1 DUP5 AND PUSH1 0x0 DUP2 DUP2 MSTORE PUSH1 0x1 PUSH1 0x20 SWAP1 DUP2 MSTORE PUSH1 0x40 SWAP2 DUP3 SWAP1 KECCAK256 SWAP5 SWAP1 SWAP5 SSTORE DUP1 MLOAD DUP6 DUP2 MSTORE SWAP1 MLOAD SWAP2 SWAP4 SWAP3 DUP8 AND SWAP3 PUSH32 0xDDF252AD1BE2C89B69C2B068FC378DAA952BA7F163C4A11628F55A4DF523B3EF SWAP3 SWAP2 DUP3 SWAP1 SUB ADD SWAP1 LOG3 POP POP POP JUMP JUMPDEST PUSH1 0x0 DUP2 DUP5 DUP5 GT ISZERO PUSH2 0x135E JUMPI PUSH1 0x40 MLOAD PUSH3 0x461BCD PUSH1 0xE5 SHL DUP2 MSTORE PUSH1 0x4 ADD DUP1 DUP1 PUSH1 0x20 ADD DUP3 DUP2 SUB DUP3 MSTORE DUP4 DUP2 DUP2 MLOAD DUP2 MSTORE PUSH1 0x20 ADD SWAP2 POP DUP1 MLOAD SWAP1 PUSH1 0x20 ADD SWAP1 DUP1 DUP4 DUP4 PUSH1 0x0 JUMPDEST DUP4 DUP2 LT ISZERO PUSH2 0x1323 JUMPI DUP2 DUP2 ADD MLOAD DUP4 DUP3 ADD MSTORE PUSH1 0x20 ADD PUSH2 0x130B JUMP JUMPDEST POP POP POP POP SWAP1 POP SWAP1 DUP2 ADD SWAP1 PUSH1 0x1F AND DUP1 ISZERO PUSH2 0x1350 JUMPI DUP1 DUP3 SUB DUP1 MLOAD PUSH1 0x1 DUP4 PUSH1 0x20 SUB PUSH2 0x100 EXP SUB NOT AND DUP2 MSTORE PUSH1 0x20 ADD SWAP2 POP JUMPDEST POP SWAP3 POP POP POP PUSH1 0x40 MLOAD DUP1 SWAP2 SUB SWAP1 REVERT JUMPDEST POP POP POP SWAP1 SUB SWAP1 JUMP JUMPDEST PUSH1 0x0 DUP3 DUP3 ADD DUP4 DUP2 LT ISZERO PUSH2 0xD36 JUMPI PUSH1 0x40 DUP1 MLOAD PUSH3 0x461BCD PUSH1 0xE5 SHL DUP2 MSTORE PUSH1 0x20 PUSH1 0x4 DUP3 ADD MSTORE PUSH1 0x1B PUSH1 0x24 DUP3 ADD MSTORE PUSH32 0x536166654D6174683A206164646974696F6E206F766572666C6F770000000000 PUSH1 0x44 DUP3 ADD MSTORE SWAP1 MLOAD SWAP1 DUP2 SWAP1 SUB PUSH1 0x64 ADD SWAP1 REVERT JUMPDEST PUSH1 0x1 PUSH1 0x1 PUSH1 0xA0 SHL SUB DUP3 AND PUSH2 0x141B JUMPI PUSH1 0x40 DUP1 MLOAD PUSH3 0x461BCD PUSH1 0xE5 SHL DUP2 MSTORE PUSH1 0x20 PUSH1 0x4 DUP3 ADD DUP2 SWAP1 MSTORE PUSH1 0x24 DUP3 ADD MSTORE PUSH32 0x43414B4532303A206D696E7420746F20746865207A65726F2061646472657373 PUSH1 0x44 DUP3 ADD MSTORE SWAP1 MLOAD SWAP1 DUP2 SWAP1 SUB PUSH1 0x64 ADD SWAP1 REVERT JUMPDEST PUSH1 0x3 SLOAD PUSH2 0x1428 SWAP1 DUP3 PUSH2 0x1366 JUMP JUMPDEST PUSH1 0x3 SSTORE PUSH1 0x1 PUSH1 0x1 PUSH1 0xA0 SHL SUB DUP3 AND PUSH1 0x0 SWAP1 DUP2 MSTORE PUSH1 0x1 PUSH1 0x20 MSTORE PUSH1 0x40 SWAP1 KECCAK256 SLOAD PUSH2 0x144E SWAP1 DUP3 PUSH2 0x1366 JUMP JUMPDEST PUSH1 0x1 PUSH1 0x1 PUSH1 0xA0 SHL SUB DUP4 AND PUSH1 0x0 DUP2 DUP2 MSTORE PUSH1 0x1 PUSH1 0x20 SWAP1 DUP2 MSTORE PUSH1 0x40 DUP1 DUP4 KECCAK256 SWAP5 SWAP1 SWAP5 SSTORE DUP4 MLOAD DUP6 DUP2 MSTORE SWAP4 MLOAD SWAP3 SWAP4 SWAP2 SWAP3 PUSH32 0xDDF252AD1BE2C89B69C2B068FC378DAA952BA7F163C4A11628F55A4DF523B3EF SWAP3 DUP2 SWAP1 SUB SWAP1 SWAP2 ADD SWAP1 LOG3 POP POP JUMP JUMPDEST DUP2 PUSH1 0x1 PUSH1 0x1 PUSH1 0xA0 SHL SUB AND DUP4 PUSH1 0x1 PUSH1 0x1 PUSH1 0xA0 SHL SUB AND EQ ISZERO DUP1 ISZERO PUSH2 0x14C8 JUMPI POP PUSH1 0x0 DUP2 GT JUMPDEST ISZERO PUSH2 0x15E3 JUMPI PUSH1 0x1 PUSH1 0x1 PUSH1 0xA0 SHL SUB DUP4 AND ISZERO PUSH2 0x155A JUMPI PUSH1 0x1 PUSH1 0x1 PUSH1 0xA0 SHL SUB DUP4 AND PUSH1 0x0 SWAP1 DUP2 MSTORE PUSH1 0x9 PUSH1 0x20 MSTORE PUSH1 0x40 DUP2 KECCAK256 SLOAD PUSH4 0xFFFFFFFF AND SWAP1 DUP2 PUSH2 0x1508 JUMPI PUSH1 0x0 PUSH2 0x153A JUMP JUMPDEST PUSH1 0x1 PUSH1 0x1 PUSH1 0xA0 SHL SUB DUP6 AND PUSH1 0x0 SWAP1 DUP2 MSTORE PUSH1 0x8 PUSH1 0x20 SWAP1 DUP2 MSTORE PUSH1 0x40 DUP1 DUP4 KECCAK256 PUSH4 0xFFFFFFFF PUSH1 0x0 NOT DUP8 ADD AND DUP5 MSTORE SWAP1 SWAP2 MSTORE SWAP1 KECCAK256 PUSH1 0x1 ADD SLOAD JUMPDEST SWAP1 POP PUSH1 0x0 PUSH2 0x1548 DUP3 DUP6 PUSH2 0x1721 JUMP JUMPDEST SWAP1 POP PUSH2 0x1556 DUP7 DUP5 DUP5 DUP5 PUSH2 0x1763 JUMP JUMPDEST POP POP POP JUMPDEST PUSH1 0x1 PUSH1 0x1 PUSH1 0xA0 SHL SUB DUP3 AND ISZERO PUSH2 0x15E3 JUMPI PUSH1 0x1 PUSH1 0x1 PUSH1 0xA0 SHL SUB DUP3 AND PUSH1 0x0 SWAP1 DUP2 MSTORE PUSH1 0x9 PUSH1 0x20 MSTORE PUSH1 0x40 DUP2 KECCAK256 SLOAD PUSH4 0xFFFFFFFF AND SWAP1 DUP2 PUSH2 0x1595 JUMPI PUSH1 0x0 PUSH2 0x15C7 JUMP JUMPDEST PUSH1 0x1 PUSH1 0x1 PUSH1 0xA0 SHL SUB DUP5 AND PUSH1 0x0 SWAP1 DUP2 MSTORE PUSH1 0x8 PUSH1 0x20 SWAP1 DUP2 MSTORE PUSH1 0x40 DUP1 DUP4 KECCAK256 PUSH4 0xFFFFFFFF PUSH1 0x0 NOT DUP8 ADD AND DUP5 MSTORE SWAP1 SWAP2 MSTORE SWAP1 KECCAK256 PUSH1 0x1 ADD SLOAD JUMPDEST SWAP1 POP PUSH1 0x0 PUSH2 0x15D5 DUP3 DUP6 PUSH2 0x1366 JUMP JUMPDEST SWAP1 POP PUSH2 0xFA8 DUP6 DUP5 DUP5 DUP5 PUSH2 0x1763 JUMP JUMPDEST POP POP POP JUMP JUMPDEST PUSH1 0x1 PUSH1 0x1 PUSH1 0xA0 SHL SUB DUP1 DUP4 AND PUSH1 0x0 SWAP1 DUP2 MSTORE PUSH1 0x7 PUSH1 0x20 MSTORE PUSH1 0x40 DUP2 KECCAK256 SLOAD SWAP1 SWAP2 AND SWAP1 PUSH2 0x160F DUP5 PUSH2 0x894 JUMP JUMPDEST PUSH1 0x1 PUSH1 0x1 PUSH1 0xA0 SHL SUB DUP6 DUP2 AND PUSH1 0x0 DUP2 DUP2 MSTORE PUSH1 0x7 PUSH1 0x20 MSTORE PUSH1 0x40 DUP1 DUP3 KECCAK256 DUP1 SLOAD PUSH1 0x1 PUSH1 0x1 PUSH1 0xA0 SHL SUB NOT AND DUP10 DUP7 AND SWAP1 DUP2 OR SWAP1 SWAP2 SSTORE SWAP1 MLOAD SWAP5 SWAP6 POP SWAP4 SWAP3 DUP7 AND SWAP3 PUSH32 0x3134E8A2E6D97E929A7E54011EA5485D7D196DD5F0BA4D4EF95803E8E3FC257F SWAP2 SWAP1 LOG4 PUSH2 0x1677 DUP3 DUP5 DUP4 PUSH2 0x14A6 JUMP JUMPDEST POP POP POP POP JUMP JUMPDEST CHAINID SWAP1 JUMP JUMPDEST PUSH1 0x1 PUSH1 0x1 PUSH1 0xA0 SHL SUB DUP2 AND PUSH2 0x16C6 JUMPI PUSH1 0x40 MLOAD PUSH3 0x461BCD PUSH1 0xE5 SHL DUP2 MSTORE PUSH1 0x4 ADD DUP1 DUP1 PUSH1 0x20 ADD DUP3 DUP2 SUB DUP3 MSTORE PUSH1 0x26 DUP2 MSTORE PUSH1 0x20 ADD DUP1 PUSH2 0x1967 PUSH1 0x26 SWAP2 CODECOPY PUSH1 0x40 ADD SWAP2 POP POP PUSH1 0x40 MLOAD DUP1 SWAP2 SUB SWAP1 REVERT JUMPDEST PUSH1 0x0 DUP1 SLOAD PUSH1 0x40 MLOAD PUSH1 0x1 PUSH1 0x1 PUSH1 0xA0 SHL SUB DUP1 DUP6 AND SWAP4 SWAP3 AND SWAP2 PUSH32 0x8BE0079C531659141344CD1FD0A4F28419497F9722A3DAAFE3B4186F6B6457E0 SWAP2 LOG3 PUSH1 0x0 DUP1 SLOAD PUSH1 0x1 PUSH1 0x1 PUSH1 0xA0 SHL SUB NOT AND PUSH1 0x1 PUSH1 0x1 PUSH1 0xA0 SHL SUB SWAP3 SWAP1 SWAP3 AND SWAP2 SWAP1 SWAP2 OR SWAP1 SSTORE JUMP JUMPDEST PUSH1 0x0 PUSH2 0xD36 DUP4 DUP4 PUSH1 0x40 MLOAD DUP1 PUSH1 0x40 ADD PUSH1 0x40 MSTORE DUP1 PUSH1 0x1E DUP2 MSTORE PUSH1 0x20 ADD PUSH32 0x536166654D6174683A207375627472616374696F6E206F766572666C6F770000 DUP2 MSTORE POP PUSH2 0x12CF JUMP JUMPDEST PUSH1 0x0 PUSH2 0x1787 NUMBER PUSH1 0x40 MLOAD DUP1 PUSH1 0x60 ADD PUSH1 0x40 MSTORE DUP1 PUSH1 0x34 DUP2 MSTORE PUSH1 0x20 ADD PUSH2 0x1A8F PUSH1 0x34 SWAP2 CODECOPY PUSH2 0x18C8 JUMP JUMPDEST SWAP1 POP PUSH1 0x0 DUP5 PUSH4 0xFFFFFFFF AND GT DUP1 ISZERO PUSH2 0x17D0 JUMPI POP PUSH1 0x1 PUSH1 0x1 PUSH1 0xA0 SHL SUB DUP6 AND PUSH1 0x0 SWAP1 DUP2 MSTORE PUSH1 0x8 PUSH1 0x20 SWAP1 DUP2 MSTORE PUSH1 0x40 DUP1 DUP4 KECCAK256 PUSH4 0xFFFFFFFF PUSH1 0x0 NOT DUP10 ADD DUP2 AND DUP6 MSTORE SWAP3 MSTORE SWAP1 SWAP2 KECCAK256 SLOAD DUP3 DUP3 AND SWAP2 AND EQ JUMPDEST ISZERO PUSH2 0x180D JUMPI PUSH1 0x1 PUSH1 0x1 PUSH1 0xA0 SHL SUB DUP6 AND PUSH1 0x0 SWAP1 DUP2 MSTORE PUSH1 0x8 PUSH1 0x20 SWAP1 DUP2 MSTORE PUSH1 0x40 DUP1 DUP4 KECCAK256 PUSH4 0xFFFFFFFF PUSH1 0x0 NOT DUP10 ADD AND DUP5 MSTORE SWAP1 SWAP2 MSTORE SWAP1 KECCAK256 PUSH1 0x1 ADD DUP3 SWAP1 SSTORE PUSH2 0x187E JUMP JUMPDEST PUSH1 0x40 DUP1 MLOAD DUP1 DUP3 ADD DUP3 MSTORE PUSH4 0xFFFFFFFF DUP1 DUP5 AND DUP3 MSTORE PUSH1 0x20 DUP1 DUP4 ADD DUP7 DUP2 MSTORE PUSH1 0x1 PUSH1 0x1 PUSH1 0xA0 SHL SUB DUP11 AND PUSH1 0x0 DUP2 DUP2 MSTORE PUSH1 0x8 DUP5 MSTORE DUP7 DUP2 KECCAK256 DUP12 DUP7 AND DUP3 MSTORE DUP5 MSTORE DUP7 DUP2 KECCAK256 SWAP6 MLOAD DUP7 SLOAD SWAP1 DUP7 AND PUSH4 0xFFFFFFFF NOT SWAP2 DUP3 AND OR DUP8 SSTORE SWAP3 MLOAD PUSH1 0x1 SWAP7 DUP8 ADD SSTORE SWAP1 DUP2 MSTORE PUSH1 0x9 SWAP1 SWAP3 MSTORE SWAP4 SWAP1 KECCAK256 DUP1 SLOAD SWAP3 DUP9 ADD SWAP1 SWAP2 AND SWAP2 SWAP1 SWAP3 AND OR SWAP1 SSTORE JUMPDEST PUSH1 0x40 DUP1 MLOAD DUP5 DUP2 MSTORE PUSH1 0x20 DUP2 ADD DUP5 SWAP1 MSTORE DUP2 MLOAD PUSH1 0x1 PUSH1 0x1 PUSH1 0xA0 SHL SUB DUP9 AND SWAP3 PUSH32 0xDEC2BACDD2F05B59DE34DA9B523DFF8BE42E5E38E818C82FDB0BAE774387A724 SWAP3 DUP3 SWAP1 SUB ADD SWAP1 LOG2 POP POP POP POP POP JUMP JUMPDEST PUSH1 0x0 DUP2 PUSH5 0x100000000 DUP5 LT PUSH2 0x191E JUMPI PUSH1 0x40 MLOAD PUSH3 0x461BCD PUSH1 0xE5 SHL DUP2 MSTORE PUSH1 0x20 PUSH1 0x4 DUP3 ADD DUP2 DUP2 MSTORE DUP4 MLOAD PUSH1 0x24 DUP5 ADD MSTORE DUP4 MLOAD SWAP1 SWAP3 DUP4 SWAP3 PUSH1 0x44 SWAP1 SWAP2 ADD SWAP2 SWAP1 DUP6 ADD SWAP1 DUP1 DUP4 DUP4 PUSH1 0x0 DUP4 ISZERO PUSH2 0x1323 JUMPI DUP2 DUP2 ADD MLOAD DUP4 DUP3 ADD MSTORE PUSH1 0x20 ADD PUSH2 0x130B JUMP JUMPDEST POP SWAP2 SWAP3 SWAP2 POP POP JUMP JUMPDEST PUSH1 0x40 DUP1 MLOAD DUP1 DUP3 ADD SWAP1 SWAP2 MSTORE PUSH1 0x0 DUP1 DUP3 MSTORE PUSH1 0x20 DUP3 ADD MSTORE SWAP1 JUMP INVALID NUMBER COINBASE 0x4B GASLIMIT ORIGIN ADDRESS GASPRICE KECCAK256 PUSH21 0x72616E7366657220616D6F756E7420657863656564 PUSH20 0x20616C6C6F77616E63654F776E61626C653A206E PUSH6 0x77206F776E65 PUSH19 0x20697320746865207A65726F20616464726573 PUSH20 0x43414B453A3A64656C656761746542795369673A KECCAK256 PUSH20 0x69676E6174757265206578706972656443414B45 ORIGIN ADDRESS GASPRICE KECCAK256 PUSH21 0x72616E7366657220616D6F756E7420657863656564 PUSH20 0x2062616C616E636543414B4532303A2064656372 PUSH6 0x617365642061 PUSH13 0x6C6F77616E63652062656C6F77 KECCAK256 PUSH27 0x65726F43414B4532303A20617070726F766520746F20746865207A PUSH6 0x726F20616464 PUSH19 0x65737343414B453A3A64656C65676174654279 MSTORE8 PUSH10 0x673A20696E76616C6964 KECCAK256 PUSH20 0x69676E61747572654F776E61626C653A2063616C PUSH13 0x6572206973206E6F7420746865 KECCAK256 PUSH16 0x776E657243414B4532303A207472616E PUSH20 0x6665722066726F6D20746865207A65726F206164 PUSH5 0x7265737343 COINBASE 0x4B GASLIMIT GASPRICE GASPRICE 0x5F PUSH24 0x72697465436865636B706F696E743A20626C6F636B206E75 PUSH14 0x6265722065786365656473203332 KECCAK256 PUSH3 0x697473 NUMBER COINBASE 0x4B GASLIMIT GASPRICE GASPRICE PUSH8 0x65745072696F7256 PUSH16 0x7465733A206E6F742079657420646574 PUSH6 0x726D696E6564 NUMBER COINBASE 0x4B GASLIMIT GASPRICE GASPRICE PUSH5 0x656C656761 PUSH21 0x6542795369673A20696E76616C6964206E6F6E6365 NUMBER COINBASE 0x4B GASLIMIT ORIGIN ADDRESS GASPRICE KECCAK256 PUSH21 0x72616E7366657220746F20746865207A65726F2061 PUSH5 0x6472657373 NUMBER COINBASE 0x4B GASLIMIT ORIGIN ADDRESS GASPRICE KECCAK256 PUSH2 0x7070 PUSH19 0x6F76652066726F6D20746865207A65726F2061 PUSH5 0x6472657373 LOG2 PUSH5 0x6970667358 0x22 SLT KECCAK256 DUP4 0xCE CHAINID MSTORE8 0xC4 CALLDATALOAD SELFBALANCE PUSH15 0x5FC94DFD59B7A42E08C4A511349BBE DUP12 0xF7 CALLDATACOPY 0xD8 MSTORE SUB 0x27 0xB6 PUSH26 0x64736F6C634300060C0033000000000000000000000000000000 "
				},
				"gasEstimates": {
					"creation": {
						"codeDepositCost": "1410000",
						"executionCost": "infinite",
						"totalCost": "infinite"
					},
					"external": {
						"DELEGATION_TYPEHASH()": "264",
						"DOMAIN_TYPEHASH()": "288",
						"allowance(address,address)": "1294",
						"approve(address,uint256)": "infinite",
						"balanceOf(address)": "1231",
						"checkpoints(address,uint32)": "2168",
						"decimals()": "1147",
						"decreaseAllowance(address,uint256)": "infinite",
						"delegate(address)": "infinite",
						"delegateBySig(address,uint256,uint256,uint8,bytes32,bytes32)": "infinite",
						"delegates(address)": "1262",
						"getCurrentVotes(address)": "2228",
						"getOwner()": "1162",
						"getPriorVotes(address,uint256)": "infinite",
						"increaseAllowance(address,uint256)": "infinite",
						"mint(address,uint256)": "infinite",
						"mint(uint256)": "infinite",
						"name()": "infinite",
						"nonces(address)": "1192",
						"numCheckpoints(address)": "1206",
						"owner()": "1082",
						"renounceOwnership()": "infinite",
						"symbol()": "infinite",
						"totalSupply()": "1066",
						"transfer(address,uint256)": "infinite",
						"transferFrom(address,address,uint256)": "infinite",
						"transferOwnership(address)": "infinite"
					},
					"internal": {
						"_delegate(address,address)": "infinite",
						"_moveDelegates(address,address,uint256)": "infinite",
						"_writeCheckpoint(address,uint32,uint256,uint256)": "infinite",
						"getChainId()": "14",
						"safe32(uint256,string memory)": "infinite"
					}
				},
				"methodIdentifiers": {
					"DELEGATION_TYPEHASH()": "e7a324dc",
					"DOMAIN_TYPEHASH()": "20606b70",
					"allowance(address,address)": "dd62ed3e",
					"approve(address,uint256)": "095ea7b3",
					"balanceOf(address)": "70a08231",
					"checkpoints(address,uint32)": "f1127ed8",
					"decimals()": "313ce567",
					"decreaseAllowance(address,uint256)": "a457c2d7",
					"delegate(address)": "5c19a95c",
					"delegateBySig(address,uint256,uint256,uint8,bytes32,bytes32)": "c3cda520",
					"delegates(address)": "587cde1e",
					"getCurrentVotes(address)": "b4b5ea57",
					"getOwner()": "893d20e8",
					"getPriorVotes(address,uint256)": "782d6fe1",
					"increaseAllowance(address,uint256)": "39509351",
					"mint(address,uint256)": "40c10f19",
					"mint(uint256)": "a0712d68",
					"name()": "06fdde03",
					"nonces(address)": "7ecebe00",
					"numCheckpoints(address)": "6fcfff45",
					"owner()": "8da5cb5b",
					"renounceOwnership()": "715018a6",
					"symbol()": "95d89b41",
					"totalSupply()": "18160ddd",
					"transfer(address,uint256)": "a9059cbb",
					"transferFrom(address,address,uint256)": "23b872dd",
					"transferOwnership(address)": "f2fde38b"
				}
			},
			"storageLayout": {
				"storage": [
					{
						"astId": 31,
						"contract": "contracts/cake.sol:CakeToken",
						"label": "_owner",
						"offset": 0,
						"slot": "0",
						"type": "t_address"
					},
					{
						"astId": 728,
						"contract": "contracts/cake.sol:CakeToken",
						"label": "_balances",
						"offset": 0,
						"slot": "1",
						"type": "t_mapping(t_address,t_uint256)"
					},
					{
						"astId": 734,
						"contract": "contracts/cake.sol:CakeToken",
						"label": "_allowances",
						"offset": 0,
						"slot": "2",
						"type": "t_mapping(t_address,t_mapping(t_address,t_uint256))"
					},
					{
						"astId": 736,
						"contract": "contracts/cake.sol:CakeToken",
						"label": "_totalSupply",
						"offset": 0,
						"slot": "3",
						"type": "t_uint256"
					},
					{
						"astId": 738,
						"contract": "contracts/cake.sol:CakeToken",
						"label": "_name",
						"offset": 0,
						"slot": "4",
						"type": "t_string_storage"
					},
					{
						"astId": 740,
						"contract": "contracts/cake.sol:CakeToken",
						"label": "_symbol",
						"offset": 0,
						"slot": "5",
						"type": "t_string_storage"
					},
					{
						"astId": 742,
						"contract": "contracts/cake.sol:CakeToken",
						"label": "_decimals",
						"offset": 0,
						"slot": "6",
						"type": "t_uint8"
					},
					{
						"astId": 1266,
						"contract": "contracts/cake.sol:CakeToken",
						"label": "_delegates",
						"offset": 0,
						"slot": "7",
						"type": "t_mapping(t_address,t_address)"
					},
					{
						"astId": 1278,
						"contract": "contracts/cake.sol:CakeToken",
						"label": "checkpoints",
						"offset": 0,
						"slot": "8",
						"type": "t_mapping(t_address,t_mapping(t_uint32,t_struct(Checkpoint)1271_storage))"
					},
					{
						"astId": 1283,
						"contract": "contracts/cake.sol:CakeToken",
						"label": "numCheckpoints",
						"offset": 0,
						"slot": "9",
						"type": "t_mapping(t_address,t_uint32)"
					},
					{
						"astId": 1300,
						"contract": "contracts/cake.sol:CakeToken",
						"label": "nonces",
						"offset": 0,
						"slot": "10",
						"type": "t_mapping(t_address,t_uint256)"
					}
				],
				"types": {
					"t_address": {
						"encoding": "inplace",
						"label": "address",
						"numberOfBytes": "20"
					},
					"t_mapping(t_address,t_address)": {
						"encoding": "mapping",
						"key": "t_address",
						"label": "mapping(address => address)",
						"numberOfBytes": "32",
						"value": "t_address"
					},
					"t_mapping(t_address,t_mapping(t_address,t_uint256))": {
						"encoding": "mapping",
						"key": "t_address",
						"label": "mapping(address => mapping(address => uint256))",
						"numberOfBytes": "32",
						"value": "t_mapping(t_address,t_uint256)"
					},
					"t_mapping(t_address,t_mapping(t_uint32,t_struct(Checkpoint)1271_storage))": {
						"encoding": "mapping",
						"key": "t_address",
						"label": "mapping(address => mapping(uint32 => struct CakeToken.Checkpoint))",
						"numberOfBytes": "32",
						"value": "t_mapping(t_uint32,t_struct(Checkpoint)1271_storage)"
					},
					"t_mapping(t_address,t_uint256)": {
						"encoding": "mapping",
						"key": "t_address",
						"label": "mapping(address => uint256)",
						"numberOfBytes": "32",
						"value": "t_uint256"
					},
					"t_mapping(t_address,t_uint32)": {
						"encoding": "mapping",
						"key": "t_address",
						"label": "mapping(address => uint32)",
						"numberOfBytes": "32",
						"value": "t_uint32"
					},
					"t_mapping(t_uint32,t_struct(Checkpoint)1271_storage)": {
						"encoding": "mapping",
						"key": "t_uint32",
						"label": "mapping(uint32 => struct CakeToken.Checkpoint)",
						"numberOfBytes": "32",
						"value": "t_struct(Checkpoint)1271_storage"
					},
					"t_string_storage": {
						"encoding": "bytes",
						"label": "string",
						"numberOfBytes": "32"
					},
					"t_struct(Checkpoint)1271_storage": {
						"encoding": "inplace",
						"label": "struct CakeToken.Checkpoint",
						"members": [
							{
								"astId": 1268,
								"contract": "contracts/cake.sol:CakeToken",
								"label": "fromBlock",
								"offset": 0,
								"slot": "0",
								"type": "t_uint32"
							},
							{
								"astId": 1270,
								"contract": "contracts/cake.sol:CakeToken",
								"label": "votes",
								"offset": 0,
								"slot": "1",
								"type": "t_uint256"
							}
						],
						"numberOfBytes": "64"
					},
					"t_uint256": {
						"encoding": "inplace",
						"label": "uint256",
						"numberOfBytes": "32"
					},
					"t_uint32": {
						"encoding": "inplace",
						"label": "uint32",
						"numberOfBytes": "4"
					},
					"t_uint8": {
						"encoding": "inplace",
						"label": "uint8",
						"numberOfBytes": "1"
					}
				}
			},
			"userdoc": {
				"events": {
					"DelegateChanged(address,address,address)": {
						"notice": "An event thats emitted when an account changes its delegate"
					},
					"DelegateVotesChanged(address,uint256,uint256)": {
						"notice": "An event thats emitted when a delegate account's vote balance changes"
					}
				},
				"kind": "user",
				"methods": {
					"DELEGATION_TYPEHASH()": {
						"notice": "The EIP-712 typehash for the delegation struct used by the contract"
					},
					"DOMAIN_TYPEHASH()": {
						"notice": "The EIP-712 typehash for the contract's domain"
					},
					"checkpoints(address,uint32)": {
						"notice": "A record of votes checkpoints for each account, by index"
					},
					"delegate(address)": {
						"notice": "Delegate votes from `msg.sender` to `delegatee`"
					},
					"delegateBySig(address,uint256,uint256,uint8,bytes32,bytes32)": {
						"notice": "Delegates votes from signatory to `delegatee`"
					},
					"delegates(address)": {
						"notice": "Delegate votes from `msg.sender` to `delegatee`"
					},
					"getCurrentVotes(address)": {
						"notice": "Gets the current votes balance for `account`"
					},
					"getPriorVotes(address,uint256)": {
						"notice": "Determine the prior number of votes for an account as of a block number"
					},
					"mint(address,uint256)": {
						"notice": "Creates `_amount` token to `_to`. Must only be called by the owner (MasterChef)."
					},
					"nonces(address)": {
						"notice": "A record of states for signing / validating signatures"
					},
					"numCheckpoints(address)": {
						"notice": "The number of checkpoints for each account"
					}
				},
				"version": 1
			}
		}
	}
}