{
	"contracts/usdt.sol": {
		"Usdt": {
			"abi": [
				{
					"inputs": [],
					"payable": false,
					"stateMutability": "nonpayable",
					"type": "constructor"
				},
				{
					"anonymous": false,
					"inputs": [
						{
							"indexed": true,
							"internalType": "address",
							"name": "owner",
							"type": "address"
						},
						{
							"indexed": true,
							"internalType": "address",
							"name": "spender",
							"type": "address"
						},
						{
							"indexed": false,
							"internalType": "uint256",
							"name": "value",
							"type": "uint256"
						}
					],
					"name": "Approval",
					"type": "event"
				},
				{
					"anonymous": false,
					"inputs": [
						{
							"indexed": true,
							"internalType": "address",
							"name": "previousOwner",
							"type": "address"
						},
						{
							"indexed": true,
							"internalType": "address",
							"name": "newOwner",
							"type": "address"
						}
					],
					"name": "OwnershipTransferred",
					"type": "event"
				},
				{
					"anonymous": false,
					"inputs": [
						{
							"indexed": true,
							"internalType": "address",
							"name": "from",
							"type": "address"
						},
						{
							"indexed": true,
							"internalType": "address",
							"name": "to",
							"type": "address"
						},
						{
							"indexed": false,
							"internalType": "uint256",
							"name": "value",
							"type": "uint256"
						}
					],
					"name": "Transfer",
					"type": "event"
				},
				{
					"constant": true,
					"inputs": [],
					"name": "_decimals",
					"outputs": [
						{
							"internalType": "uint8",
							"name": "",
							"type": "uint8"
						}
					],
					"payable": false,
					"stateMutability": "view",
					"type": "function"
				},
				{
					"constant": true,
					"inputs": [],
					"name": "_name",
					"outputs": [
						{
							"internalType": "string",
							"name": "",
							"type": "string"
						}
					],
					"payable": false,
					"stateMutability": "view",
					"type": "function"
				},
				{
					"constant": true,
					"inputs": [],
					"name": "_symbol",
					"outputs": [
						{
							"internalType": "string",
							"name": "",
							"type": "string"
						}
					],
					"payable": false,
					"stateMutability": "view",
					"type": "function"
				},
				{
					"constant": true,
					"inputs": [
						{
							"internalType": "address",
							"name": "owner",
							"type": "address"
						},
						{
							"internalType": "address",
							"name": "spender",
							"type": "address"
						}
					],
					"name": "allowance",
					"outputs": [
						{
							"internalType": "uint256",
							"name": "",
							"type": "uint256"
						}
					],
					"payable": false,
					"stateMutability": "view",
					"type": "function"
				},
				{
					"constant": false,
					"inputs": [
						{
							"internalType": "address",
							"name": "spender",
							"type": "address"
						},
						{
							"internalType": "uint256",
							"name": "amount",
							"type": "uint256"
						}
					],
					"name": "approve",
					"outputs": [
						{
							"internalType": "bool",
							"name": "",
							"type": "bool"
						}
					],
					"payable": false,
					"stateMutability": "nonpayable",
					"type": "function"
				},
				{
					"constant": true,
					"inputs": [
						{
							"internalType": "address",
							"name": "account",
							"type": "address"
						}
					],
					"name": "balanceOf",
					"outputs": [
						{
							"internalType": "uint256",
							"name": "",
							"type": "uint256"
						}
					],
					"payable": false,
					"stateMutability": "view",
					"type": "function"
				},
				{
					"constant": true,
					"inputs": [],
					"name": "decimals",
					"outputs": [
						{
							"internalType": "uint256",
							"name": "",
							"type": "uint256"
						}
					],
					"payable": false,
					"stateMutability": "view",
					"type": "function"
				},
				{
					"constant": false,
					"inputs": [
						{
							"internalType": "address",
							"name": "spender",
							"type": "address"
						},
						{
							"internalType": "uint256",
							"name": "subtractedValue",
							"type": "uint256"
						}
					],
					"name": "decreaseAllowance",
					"outputs": [
						{
							"internalType": "bool",
							"name": "",
							"type": "bool"
						}
					],
					"payable": false,
					"stateMutability": "nonpayable",
					"type": "function"
				},
				{
					"constant": true,
					"inputs": [],
					"name": "getOwner",
					"outputs": [
						{
							"internalType": "address",
							"name": "",
							"type": "address"
						}
					],
					"payable": false,
					"stateMutability": "view",
					"type": "function"
				},
				{
					"constant": false,
					"inputs": [
						{
							"internalType": "address",
							"name": "spender",
							"type": "address"
						},
						{
							"internalType": "uint256",
							"name": "addedValue",
							"type": "uint256"
						}
					],
					"name": "increaseAllowance",
					"outputs": [
						{
							"internalType": "bool",
							"name": "",
							"type": "bool"
						}
					],
					"payable": false,
					"stateMutability": "nonpayable",
					"type": "function"
				},
				{
					"constant": false,
					"inputs": [
						{
							"internalType": "uint256",
							"name": "amount",
							"type": "uint256"
						}
					],
					"name": "mint",
					"outputs": [
						{
							"internalType": "bool",
							"name": "",
							"type": "bool"
						}
					],
					"payable": false,
					"stateMutability": "nonpayable",
					"type": "function"
				},
				{
					"constant": true,
					"inputs": [],
					"name": "name",
					"outputs": [
						{
							"internalType": "string",
							"name": "",
							"type": "string"
						}
					],
					"payable": false,
					"stateMutability": "view",
					"type": "function"
				},
				{
					"constant": true,
					"inputs": [],
					"name": "owner",
					"outputs": [
						{
							"internalType": "address",
							"name": "",
							"type": "address"
						}
					],
					"payable": false,
					"stateMutability": "view",
					"type": "function"
				},
				{
					"constant": false,
					"inputs": [],
					"name": "renounceOwnership",
					"outputs": [],
					"payable": false,
					"stateMutability": "nonpayable",
					"type": "function"
				},
				{
					"constant": true,
					"inputs": [],
					"name": "symbol",
					"outputs": [
						{
							"internalType": "string",
							"name": "",
							"type": "string"
						}
					],
					"payable": false,
					"stateMutability": "view",
					"type": "function"
				},
				{
					"constant": true,
					"inputs": [],
					"name": "totalSupply",
					"outputs": [
						{
							"internalType": "uint256",
							"name": "",
							"type": "uint256"
						}
					],
					"payable": false,
					"stateMutability": "view",
					"type": "function"
				},
				{
					"constant": false,
					"inputs": [
						{
							"internalType": "address",
							"name": "recipient",
							"type": "address"
						},
						{
							"internalType": "uint256",
							"name": "amount",
							"type": "uint256"
						}
					],
					"name": "transfer",
					"outputs": [
						{
							"internalType": "bool",
							"name": "",
							"type": "bool"
						}
					],
					"payable": false,
					"stateMutability": "nonpayable",
					"type": "function"
				},
				{
					"constant": false,
					"inputs": [
						{
							"internalType": "address",
							"name": "sender",
							"type": "address"
						},
						{
							"internalType": "address",
							"name": "recipient",
							"type": "address"
						},
						{
							"internalType": "uint256",
							"name": "amount",
							"type": "uint256"
						}
					],
					"name": "transferFrom",
					"outputs": [
						{
							"internalType": "bool",
							"name": "",
							"type": "bool"
						}
					],
					"payable": false,
					"stateMutability": "nonpayable",
					"type": "function"
				},
				{
					"constant": false,
					"inputs": [
						{
							"internalType": "address",
							"name": "newOwner",
							"type": "address"
						}
					],
					"name": "transferOwnership",
					"outputs": [],
					"payable": false,
					"stateMutability": "nonpayable",
					"type": "function"
				}
			],
			"devdoc": {
				"methods": {
					"allowance(address,address)": {
						"details": "See {USDT-allowance}."
					},
					"approve(address,uint256)": {
						"details": "See {USDT-approve}.   * Requirements:   * - `spender` cannot be the zero address."
					},
					"balanceOf(address)": {
						"details": "See {USDT-balanceOf}."
					},
					"decimals()": {
						"details": "Returns the token decimals."
					},
					"decreaseAllowance(address,uint256)": {
						"details": "Atomically decreases the allowance granted to `spender` by the caller.   * This is an alternative to {approve} that can be used as a mitigation for problems described in {USDT-approve}.   * Emits an {Approval} event indicating the updated allowance.   * Requirements:   * - `spender` cannot be the zero address. - `spender` must have allowance for the caller of at least `subtractedValue`."
					},
					"getOwner()": {
						"details": "Returns the bep token owner."
					},
					"increaseAllowance(address,uint256)": {
						"details": "Atomically increases the allowance granted to `spender` by the caller.   * This is an alternative to {approve} that can be used as a mitigation for problems described in {USDT-approve}.   * Emits an {Approval} event indicating the updated allowance.   * Requirements:   * - `spender` cannot be the zero address."
					},
					"mint(uint256)": {
						"details": "Creates `amount` tokens and assigns them to `msg.sender`, increasing the total supply.   * Requirements   * - `msg.sender` must be the token owner"
					},
					"name()": {
						"details": "Returns the token name."
					},
					"owner()": {
						"details": "Returns the address of the current owner."
					},
					"renounceOwnership()": {
						"details": "Leaves the contract without owner. It will not be possible to call `onlyOwner` functions anymore. Can only be called by the current owner.   * NOTE: Renouncing ownership will leave the contract without an owner, thereby removing any functionality that is only available to the owner."
					},
					"symbol()": {
						"details": "Returns the token symbol."
					},
					"totalSupply()": {
						"details": "See {USDT-totalSupply}."
					},
					"transfer(address,uint256)": {
						"details": "See {USDT-transfer}.   * Requirements:   * - `recipient` cannot be the zero address. - the caller must have a balance of at least `amount`."
					},
					"transferFrom(address,address,uint256)": {
						"details": "See {USDT-transferFrom}.   * Emits an {Approval} event indicating the updated allowance. This is not required by the EIP. See the note at the beginning of {USDT};   * Requirements: - `sender` and `recipient` cannot be the zero address. - `sender` must have a balance of at least `amount`. - the caller must have allowance for `sender`'s tokens of at least `amount`."
					},
					"transferOwnership(address)": {
						"details": "Transfers ownership of the contract to a new account (`newOwner`). Can only be called by the current owner."
					}
				}
			},
			"evm": {
				"assembly": "    /* \"contracts/usdt.sol\":11080:18622  contract Usdt is Context, IUSDT, Ownable {... */\n  mstore(0x40, 0x80)\n    /* \"contracts/usdt.sol\":11388:11630  constructor() public {... */\n  callvalue\n    /* \"--CODEGEN--\":8:17   */\n  dup1\n    /* \"--CODEGEN--\":5:7   */\n  iszero\n  tag_1\n  jumpi\n    /* \"--CODEGEN--\":30:31   */\n  0x00\n    /* \"--CODEGEN--\":27:28   */\n  dup1\n    /* \"--CODEGEN--\":20:32   */\n  revert\n    /* \"--CODEGEN--\":5:7   */\ntag_1:\n  pop\n    /* \"contracts/usdt.sol\":9639:9656  address msgSender */\n  0x00\n    /* \"contracts/usdt.sol\":9659:9671  _msgSender() */\n  tag_7\n  sub(shl(0xe0, 0x01), 0x01)\n    /* \"contracts/usdt.sol\":9659:9669  _msgSender */\n  tag_8\n    /* \"contracts/usdt.sol\":9659:9671  _msgSender() */\n  and\n  jump\t// in\ntag_7:\n    /* \"contracts/usdt.sol\":9677:9683  _owner */\n  0x00\n    /* \"contracts/usdt.sol\":9677:9695  _owner = msgSender */\n  dup1\n  sload\n  not(sub(shl(0xa0, 0x01), 0x01))\n  and\n  sub(shl(0xa0, 0x01), 0x01)\n  dup4\n  and\n  swap1\n  dup2\n  or\n  dup3\n  sstore\n    /* \"contracts/usdt.sol\":9706:9749  OwnershipTransferred(address(0), msgSender) */\n  mload(0x40)\n    /* \"contracts/usdt.sol\":9677:9695  _owner = msgSender */\n  swap3\n  swap4\n  pop\n  swap2\n    /* \"contracts/usdt.sol\":9706:9749  OwnershipTransferred(address(0), msgSender) */\n  0x8be0079c531659141344cd1fd0a4f28419497f9722a3daafe3b4186f6b6457e0\n  swap1\n    /* \"contracts/usdt.sol\":9677:9683  _owner */\n  dup3\n  swap1\n    /* \"contracts/usdt.sol\":9706:9749  OwnershipTransferred(address(0), msgSender) */\n  log3\n  pop\n    /* \"contracts/usdt.sol\":11415:11435  _name = \"USDT Token\" */\n  0x40\n  dup1\n  mload\n  dup1\n  dup3\n  add\n  swap1\n  swap2\n  mstore\n  0x0a\n  dup1\n  dup3\n  mstore\n  shl(0xb1, 0x2aa9a22a102a37b5b2b7)\n  0x20\n  swap1\n  swap3\n  add\n  swap2\n  dup3\n  mstore\n  tag_10\n  swap2\n    /* \"contracts/usdt.sol\":11415:11420  _name */\n  0x06\n  swap2\n    /* \"contracts/usdt.sol\":11415:11435  _name = \"USDT Token\" */\n  tag_11\n  jump\t// in\ntag_10:\n  pop\n    /* \"contracts/usdt.sol\":11441:11457  _symbol = \"USDT\" */\n  0x40\n  dup1\n  mload\n  dup1\n  dup3\n  add\n  swap1\n  swap2\n  mstore\n  0x04\n  dup1\n  dup3\n  mstore\n  shl(0xe2, 0x1554d115)\n  0x20\n  swap1\n  swap3\n  add\n  swap2\n  dup3\n  mstore\n  tag_12\n  swap2\n    /* \"contracts/usdt.sol\":11441:11448  _symbol */\n  0x05\n  swap2\n    /* \"contracts/usdt.sol\":11441:11457  _symbol = \"USDT\" */\n  tag_11\n  jump\t// in\ntag_12:\n  pop\n    /* \"contracts/usdt.sol\":11463:11472  _decimals */\n  0x04\n    /* \"contracts/usdt.sol\":11463:11477  _decimals = 18 */\n  dup1\n  sload\n  not(0xff)\n  and\n    /* \"contracts/usdt.sol\":11475:11477  18 */\n  0x12\n    /* \"contracts/usdt.sol\":11463:11477  _decimals = 18 */\n  or\n  swap1\n  sstore\n    /* \"contracts/usdt.sol\":11498:11525  100000000000000000000000000 */\n  0x52b7d2dcc80cd2e4000000\n    /* \"contracts/usdt.sol\":11483:11495  _totalSupply */\n  0x03\n    /* \"contracts/usdt.sol\":11483:11525  _totalSupply = 100000000000000000000000000 */\n  dup2\n  swap1\n  sstore\n    /* \"contracts/usdt.sol\":11541:11551  msg.sender */\n  caller\n    /* \"contracts/usdt.sol\":11463:11472  _decimals */\n  0x00\n    /* \"contracts/usdt.sol\":11531:11552  _balances[msg.sender] */\n  dup2\n  dup2\n  mstore\n    /* \"contracts/usdt.sol\":11463:11477  _decimals = 18 */\n  0x01\n    /* \"contracts/usdt.sol\":11531:11552  _balances[msg.sender] */\n  0x20\n  swap1\n  dup2\n  mstore\n  0x40\n  dup1\n  dup4\n  keccak256\n    /* \"contracts/usdt.sol\":11531:11567  _balances[msg.sender] = _totalSupply */\n  dup6\n  swap1\n  sstore\n    /* \"contracts/usdt.sol\":11579:11625  Transfer(address(0), msg.sender, _totalSupply) */\n  dup1\n  mload\n  swap5\n  dup6\n  mstore\n  mload\n    /* \"contracts/usdt.sol\":11541:11551  msg.sender */\n  swap3\n  swap4\n    /* \"contracts/usdt.sol\":11463:11472  _decimals */\n  swap2\n  swap3\n    /* \"contracts/usdt.sol\":11579:11625  Transfer(address(0), msg.sender, _totalSupply) */\n  0xddf252ad1be2c89b69c2b068fc378daa952ba7f163c4a11628f55a4df523b3ef\n  swap3\n  dup2\n  swap1\n  sub\n  swap1\n  swap2\n  add\n  swap1\n  log3\n    /* \"contracts/usdt.sol\":11080:18622  contract Usdt is Context, IUSDT, Ownable {... */\n  jump(tag_13)\n    /* \"contracts/usdt.sol\":3707:3797  function _msgSender() internal view returns (address payable) {... */\ntag_8:\n    /* \"contracts/usdt.sol\":3782:3792  msg.sender */\n  caller\n    /* \"contracts/usdt.sol\":3707:3797  function _msgSender() internal view returns (address payable) {... */\ntag_14:\n  swap1\n  jump\t// out\n    /* \"contracts/usdt.sol\":11080:18622  contract Usdt is Context, IUSDT, Ownable {... */\ntag_11:\n  dup3\n  dup1\n  sload\n  0x01\n  dup2\n  0x01\n  and\n  iszero\n  0x0100\n  mul\n  sub\n  and\n  0x02\n  swap1\n  div\n  swap1\n  0x00\n  mstore\n  keccak256(0x00, 0x20)\n  swap1\n  0x1f\n  add\n  0x20\n  swap1\n  div\n  dup2\n  add\n  swap3\n  dup3\n  0x1f\n  lt\n  tag_16\n  jumpi\n  dup1\n  mload\n  not(0xff)\n  and\n  dup4\n  dup1\n  add\n  or\n  dup6\n  sstore\n  jump(tag_18)\ntag_16:\n  dup3\n  dup1\n  add\n  0x01\n  add\n  dup6\n  sstore\n  dup3\n  iszero\n  tag_18\n  jumpi\n  swap2\n  dup3\n  add\ntag_17:\n  dup3\n  dup2\n  gt\n  iszero\n  tag_18\n  jumpi\n  dup3\n  mload\n  dup3\n  sstore\n  swap2\n  0x20\n  add\n  swap2\n  swap1\n  0x01\n  add\n  swap1\n  jump(tag_17)\ntag_18:\n  pop\n  tag_19\n  swap3\n  swap2\n  pop\n  tag_20\n  jump\t// in\ntag_19:\n  pop\n  swap1\n  jump\t// out\ntag_20:\n  tag_14\n  swap2\n  swap1\ntag_22:\n  dup1\n  dup3\n  gt\n  iszero\n  tag_19\n  jumpi\n  0x00\n  dup2\n  sstore\n  0x01\n  add\n  jump(tag_22)\ntag_13:\n  dataSize(sub_0)\n  dup1\n  dataOffset(sub_0)\n  0x00\n  codecopy\n  0x00\n  return\nstop\n\nsub_0: assembly {\n        /* \"contracts/usdt.sol\":11080:18622  contract Usdt is Context, IUSDT, Ownable {... */\n      mstore(0x40, 0x80)\n      callvalue\n        /* \"--CODEGEN--\":8:17   */\n      dup1\n        /* \"--CODEGEN--\":5:7   */\n      iszero\n      tag_1\n      jumpi\n        /* \"--CODEGEN--\":30:31   */\n      0x00\n        /* \"--CODEGEN--\":27:28   */\n      dup1\n        /* \"--CODEGEN--\":20:32   */\n      revert\n        /* \"--CODEGEN--\":5:7   */\n    tag_1:\n        /* \"contracts/usdt.sol\":11080:18622  contract Usdt is Context, IUSDT, Ownable {... */\n      pop\n      jumpi(tag_2, lt(calldatasize, 0x04))\n      shr(0xe0, calldataload(0x00))\n      dup1\n      0x893d20e8\n      gt\n      tag_22\n      jumpi\n      dup1\n      0xa9059cbb\n      gt\n      tag_23\n      jumpi\n      dup1\n      0xa9059cbb\n      eq\n      tag_17\n      jumpi\n      dup1\n      0xb09f1266\n      eq\n      tag_18\n      jumpi\n      dup1\n      0xd28d8852\n      eq\n      tag_19\n      jumpi\n      dup1\n      0xdd62ed3e\n      eq\n      tag_20\n      jumpi\n      dup1\n      0xf2fde38b\n      eq\n      tag_21\n      jumpi\n      jump(tag_2)\n    tag_23:\n      dup1\n      0x893d20e8\n      eq\n      tag_12\n      jumpi\n      dup1\n      0x8da5cb5b\n      eq\n      tag_13\n      jumpi\n      dup1\n      0x95d89b41\n      eq\n      tag_14\n      jumpi\n      dup1\n      0xa0712d68\n      eq\n      tag_15\n      jumpi\n      dup1\n      0xa457c2d7\n      eq\n      tag_16\n      jumpi\n      jump(tag_2)\n    tag_22:\n      dup1\n      0x313ce567\n      gt\n      tag_24\n      jumpi\n      dup1\n      0x313ce567\n      eq\n      tag_7\n      jumpi\n      dup1\n      0x32424aa3\n      eq\n      tag_8\n      jumpi\n      dup1\n      0x39509351\n      eq\n      tag_9\n      jumpi\n      dup1\n      0x70a08231\n      eq\n      tag_10\n      jumpi\n      dup1\n      0x715018a6\n      eq\n      tag_11\n      jumpi\n      jump(tag_2)\n    tag_24:\n      dup1\n      0x06fdde03\n      eq\n      tag_3\n      jumpi\n      dup1\n      0x095ea7b3\n      eq\n      tag_4\n      jumpi\n      dup1\n      0x18160ddd\n      eq\n      tag_5\n      jumpi\n      dup1\n      0x23b872dd\n      eq\n      tag_6\n      jumpi\n    tag_2:\n      0x00\n      dup1\n      revert\n        /* \"contracts/usdt.sol\":12076:12153  function name() external view returns (string memory) {... */\n    tag_3:\n      tag_25\n      tag_26\n      jump\t// in\n    tag_25:\n      0x40\n      dup1\n      mload\n      0x20\n      dup1\n      dup3\n      mstore\n      dup4\n      mload\n      dup2\n      dup4\n      add\n      mstore\n      dup4\n      mload\n      swap2\n      swap3\n      dup4\n      swap3\n      swap1\n      dup4\n      add\n      swap2\n      dup6\n      add\n      swap1\n      dup1\n      dup4\n      dup4\n      0x00\n        /* \"--CODEGEN--\":8:108   */\n    tag_27:\n        /* \"--CODEGEN--\":33:36   */\n      dup4\n        /* \"--CODEGEN--\":30:31   */\n      dup2\n        /* \"--CODEGEN--\":27:37   */\n      lt\n        /* \"--CODEGEN--\":8:108   */\n      iszero\n      tag_29\n      jumpi\n        /* \"--CODEGEN--\":90:101   */\n      dup2\n      dup2\n      add\n        /* \"--CODEGEN--\":84:102   */\n      mload\n        /* \"--CODEGEN--\":71:82   */\n      dup4\n      dup3\n      add\n        /* \"--CODEGEN--\":64:103   */\n      mstore\n        /* \"--CODEGEN--\":52:54   */\n      0x20\n        /* \"--CODEGEN--\":45:55   */\n      add\n        /* \"--CODEGEN--\":8:108   */\n      jump(tag_27)\n    tag_29:\n        /* \"--CODEGEN--\":12:26   */\n      pop\n        /* \"contracts/usdt.sol\":12076:12153  function name() external view returns (string memory) {... */\n      pop\n      pop\n      pop\n      swap1\n      pop\n      swap1\n      dup2\n      add\n      swap1\n      0x1f\n      and\n      dup1\n      iszero\n      tag_30\n      jumpi\n      dup1\n      dup3\n      sub\n      dup1\n      mload\n      0x01\n      dup4\n      0x20\n      sub\n      0x0100\n      exp\n      sub\n      not\n      and\n      dup2\n      mstore\n      0x20\n      add\n      swap2\n      pop\n    tag_30:\n      pop\n      swap3\n      pop\n      pop\n      pop\n      mload(0x40)\n      dup1\n      swap2\n      sub\n      swap1\n      return\n        /* \"contracts/usdt.sol\":13066:13207  function approve(address spender, uint256 amount) external returns (bool) {... */\n    tag_4:\n      tag_31\n      0x04\n      dup1\n      calldatasize\n      sub\n        /* \"--CODEGEN--\":13:15   */\n      0x40\n        /* \"--CODEGEN--\":8:11   */\n      dup2\n        /* \"--CODEGEN--\":5:16   */\n      lt\n        /* \"--CODEGEN--\":2:4   */\n      iszero\n      tag_32\n      jumpi\n        /* \"--CODEGEN--\":29:30   */\n      0x00\n        /* \"--CODEGEN--\":26:27   */\n      dup1\n        /* \"--CODEGEN--\":19:31   */\n      revert\n        /* \"--CODEGEN--\":2:4   */\n    tag_32:\n      pop\n      sub(shl(0xa0, 0x01), 0x01)\n        /* \"contracts/usdt.sol\":13066:13207  function approve(address spender, uint256 amount) external returns (bool) {... */\n      dup2\n      calldataload\n      and\n      swap1\n      0x20\n      add\n      calldataload\n      tag_33\n      jump\t// in\n    tag_31:\n      0x40\n      dup1\n      mload\n      swap2\n      iszero\n      iszero\n      dup3\n      mstore\n      mload\n      swap1\n      dup2\n      swap1\n      sub\n      0x20\n      add\n      swap1\n      return\n        /* \"contracts/usdt.sol\":12203:12288  function totalSupply() external view returns (uint256) {... */\n    tag_5:\n      tag_34\n      tag_35\n      jump\t// in\n    tag_34:\n      0x40\n      dup1\n      mload\n      swap2\n      dup3\n      mstore\n      mload\n      swap1\n      dup2\n      swap1\n      sub\n      0x20\n      add\n      swap1\n      return\n        /* \"contracts/usdt.sol\":13636:13923  function transferFrom(address sender, address recipient, uint256 amount) external returns (bool) {... */\n    tag_6:\n      tag_31\n      0x04\n      dup1\n      calldatasize\n      sub\n        /* \"--CODEGEN--\":13:15   */\n      0x60\n        /* \"--CODEGEN--\":8:11   */\n      dup2\n        /* \"--CODEGEN--\":5:16   */\n      lt\n        /* \"--CODEGEN--\":2:4   */\n      iszero\n      tag_37\n      jumpi\n        /* \"--CODEGEN--\":29:30   */\n      0x00\n        /* \"--CODEGEN--\":26:27   */\n      dup1\n        /* \"--CODEGEN--\":19:31   */\n      revert\n        /* \"--CODEGEN--\":2:4   */\n    tag_37:\n      pop\n      sub(shl(0xa0, 0x01), 0x01)\n        /* \"contracts/usdt.sol\":13636:13923  function transferFrom(address sender, address recipient, uint256 amount) external returns (bool) {... */\n      dup2\n      calldataload\n      dup2\n      and\n      swap2\n      0x20\n      dup2\n      add\n      calldataload\n      swap1\n      swap2\n      and\n      swap1\n      0x40\n      add\n      calldataload\n      tag_38\n      jump\t// in\n        /* \"contracts/usdt.sol\":11816:11895  function decimals() external view returns (uint256) {... */\n    tag_7:\n      tag_34\n      tag_40\n      jump\t// in\n        /* \"contracts/usdt.sol\":11313:11335  uint8 public _decimals */\n    tag_8:\n      tag_41\n      tag_42\n      jump\t// in\n    tag_41:\n      0x40\n      dup1\n      mload\n      0xff\n      swap1\n      swap3\n      and\n      dup3\n      mstore\n      mload\n      swap1\n      dup2\n      swap1\n      sub\n      0x20\n      add\n      swap1\n      return\n        /* \"contracts/usdt.sol\":14290:14487  function increaseAllowance(address spender, uint256 addedValue) public returns (bool) {... */\n    tag_9:\n      tag_31\n      0x04\n      dup1\n      calldatasize\n      sub\n        /* \"--CODEGEN--\":13:15   */\n      0x40\n        /* \"--CODEGEN--\":8:11   */\n      dup2\n        /* \"--CODEGEN--\":5:16   */\n      lt\n        /* \"--CODEGEN--\":2:4   */\n      iszero\n      tag_44\n      jumpi\n        /* \"--CODEGEN--\":29:30   */\n      0x00\n        /* \"--CODEGEN--\":26:27   */\n      dup1\n        /* \"--CODEGEN--\":19:31   */\n      revert\n        /* \"--CODEGEN--\":2:4   */\n    tag_44:\n      pop\n      sub(shl(0xa0, 0x01), 0x01)\n        /* \"contracts/usdt.sol\":14290:14487  function increaseAllowance(address spender, uint256 addedValue) public returns (bool) {... */\n      dup2\n      calldataload\n      and\n      swap1\n      0x20\n      add\n      calldataload\n      tag_45\n      jump\t// in\n        /* \"contracts/usdt.sol\":12336:12440  function balanceOf(address account) external view returns (uint256) {... */\n    tag_10:\n      tag_34\n      0x04\n      dup1\n      calldatasize\n      sub\n        /* \"--CODEGEN--\":13:15   */\n      0x20\n        /* \"--CODEGEN--\":8:11   */\n      dup2\n        /* \"--CODEGEN--\":5:16   */\n      lt\n        /* \"--CODEGEN--\":2:4   */\n      iszero\n      tag_47\n      jumpi\n        /* \"--CODEGEN--\":29:30   */\n      0x00\n        /* \"--CODEGEN--\":26:27   */\n      dup1\n        /* \"--CODEGEN--\":19:31   */\n      revert\n        /* \"--CODEGEN--\":2:4   */\n    tag_47:\n      pop\n        /* \"contracts/usdt.sol\":12336:12440  function balanceOf(address account) external view returns (uint256) {... */\n      calldataload\n      sub(shl(0xa0, 0x01), 0x01)\n      and\n      tag_48\n      jump\t// in\n        /* \"contracts/usdt.sol\":10405:10532  function renounceOwnership() public onlyOwner {... */\n    tag_11:\n      tag_49\n      tag_50\n      jump\t// in\n    tag_49:\n      stop\n        /* \"contracts/usdt.sol\":11685:11762  function getOwner() external view returns (address) {... */\n    tag_12:\n      tag_51\n      tag_52\n      jump\t// in\n    tag_51:\n      0x40\n      dup1\n      mload\n      sub(shl(0xa0, 0x01), 0x01)\n      swap1\n      swap3\n      and\n      dup3\n      mstore\n      mload\n      swap1\n      dup2\n      swap1\n      sub\n      0x20\n      add\n      swap1\n      return\n        /* \"contracts/usdt.sol\":9822:9893  function owner() public view returns (address) {... */\n    tag_13:\n      tag_51\n      tag_54\n      jump\t// in\n        /* \"contracts/usdt.sol\":11947:12028  function symbol() external view returns (string memory) {... */\n    tag_14:\n      tag_25\n      tag_56\n      jump\t// in\n        /* \"contracts/usdt.sol\":15379:15496  function mint(uint256 amount) public onlyOwner returns (bool) {... */\n    tag_15:\n      tag_31\n      0x04\n      dup1\n      calldatasize\n      sub\n        /* \"--CODEGEN--\":13:15   */\n      0x20\n        /* \"--CODEGEN--\":8:11   */\n      dup2\n        /* \"--CODEGEN--\":5:16   */\n      lt\n        /* \"--CODEGEN--\":2:4   */\n      iszero\n      tag_62\n      jumpi\n        /* \"--CODEGEN--\":29:30   */\n      0x00\n        /* \"--CODEGEN--\":26:27   */\n      dup1\n        /* \"--CODEGEN--\":19:31   */\n      revert\n        /* \"--CODEGEN--\":2:4   */\n    tag_62:\n      pop\n        /* \"contracts/usdt.sol\":15379:15496  function mint(uint256 amount) public onlyOwner returns (bool) {... */\n      calldataload\n      tag_63\n      jump\t// in\n        /* \"contracts/usdt.sol\":14942:15189  function decreaseAllowance(address spender, uint256 subtractedValue) public returns (bool) {... */\n    tag_16:\n      tag_31\n      0x04\n      dup1\n      calldatasize\n      sub\n        /* \"--CODEGEN--\":13:15   */\n      0x40\n        /* \"--CODEGEN--\":8:11   */\n      dup2\n        /* \"--CODEGEN--\":5:16   */\n      lt\n        /* \"--CODEGEN--\":2:4   */\n      iszero\n      tag_65\n      jumpi\n        /* \"--CODEGEN--\":29:30   */\n      0x00\n        /* \"--CODEGEN--\":26:27   */\n      dup1\n        /* \"--CODEGEN--\":19:31   */\n      revert\n        /* \"--CODEGEN--\":2:4   */\n    tag_65:\n      pop\n      sub(shl(0xa0, 0x01), 0x01)\n        /* \"contracts/usdt.sol\":14942:15189  function decreaseAllowance(address spender, uint256 subtractedValue) public returns (bool) {... */\n      dup2\n      calldataload\n      and\n      swap1\n      0x20\n      add\n      calldataload\n      tag_66\n      jump\t// in\n        /* \"contracts/usdt.sol\":12623:12770  function transfer(address recipient, uint256 amount) external returns (bool) {... */\n    tag_17:\n      tag_31\n      0x04\n      dup1\n      calldatasize\n      sub\n        /* \"--CODEGEN--\":13:15   */\n      0x40\n        /* \"--CODEGEN--\":8:11   */\n      dup2\n        /* \"--CODEGEN--\":5:16   */\n      lt\n        /* \"--CODEGEN--\":2:4   */\n      iszero\n      tag_68\n      jumpi\n        /* \"--CODEGEN--\":29:30   */\n      0x00\n        /* \"--CODEGEN--\":26:27   */\n      dup1\n        /* \"--CODEGEN--\":19:31   */\n      revert\n        /* \"--CODEGEN--\":2:4   */\n    tag_68:\n      pop\n      sub(shl(0xa0, 0x01), 0x01)\n        /* \"contracts/usdt.sol\":12623:12770  function transfer(address recipient, uint256 amount) external returns (bool) {... */\n      dup2\n      calldataload\n      and\n      swap1\n      0x20\n      add\n      calldataload\n      tag_69\n      jump\t// in\n        /* \"contracts/usdt.sol\":11339:11360  string public _symbol */\n    tag_18:\n      tag_25\n      tag_71\n      jump\t// in\n        /* \"contracts/usdt.sol\":11364:11383  string public _name */\n    tag_19:\n      tag_25\n      tag_77\n      jump\t// in\n        /* \"contracts/usdt.sol\":12818:12946  function allowance(address owner, address spender) external view returns (uint256) {... */\n    tag_20:\n      tag_34\n      0x04\n      dup1\n      calldatasize\n      sub\n        /* \"--CODEGEN--\":13:15   */\n      0x40\n        /* \"--CODEGEN--\":8:11   */\n      dup2\n        /* \"--CODEGEN--\":5:16   */\n      lt\n        /* \"--CODEGEN--\":2:4   */\n      iszero\n      tag_83\n      jumpi\n        /* \"--CODEGEN--\":29:30   */\n      0x00\n        /* \"--CODEGEN--\":26:27   */\n      dup1\n        /* \"--CODEGEN--\":19:31   */\n      revert\n        /* \"--CODEGEN--\":2:4   */\n    tag_83:\n      pop\n      sub(shl(0xa0, 0x01), 0x01)\n        /* \"contracts/usdt.sol\":12818:12946  function allowance(address owner, address spender) external view returns (uint256) {... */\n      dup2\n      calldataload\n      dup2\n      and\n      swap2\n      0x20\n      add\n      calldataload\n      and\n      tag_84\n      jump\t// in\n        /* \"contracts/usdt.sol\":10671:10772  function transferOwnership(address newOwner) public onlyOwner {... */\n    tag_21:\n      tag_49\n      0x04\n      dup1\n      calldatasize\n      sub\n        /* \"--CODEGEN--\":13:15   */\n      0x20\n        /* \"--CODEGEN--\":8:11   */\n      dup2\n        /* \"--CODEGEN--\":5:16   */\n      lt\n        /* \"--CODEGEN--\":2:4   */\n      iszero\n      tag_86\n      jumpi\n        /* \"--CODEGEN--\":29:30   */\n      0x00\n        /* \"--CODEGEN--\":26:27   */\n      dup1\n        /* \"--CODEGEN--\":19:31   */\n      revert\n        /* \"--CODEGEN--\":2:4   */\n    tag_86:\n      pop\n        /* \"contracts/usdt.sol\":10671:10772  function transferOwnership(address newOwner) public onlyOwner {... */\n      calldataload\n      sub(shl(0xa0, 0x01), 0x01)\n      and\n      tag_87\n      jump\t// in\n        /* \"contracts/usdt.sol\":12076:12153  function name() external view returns (string memory) {... */\n    tag_26:\n        /* \"contracts/usdt.sol\":12143:12148  _name */\n      0x06\n        /* \"contracts/usdt.sol\":12136:12148  return _name */\n      dup1\n      sload\n      0x40\n      dup1\n      mload\n      0x20\n      0x1f\n      0x02\n      not(0x00)\n      0x0100\n      0x01\n      dup9\n      and\n      iszero\n      mul\n      add\n      swap1\n      swap6\n      and\n      swap5\n      swap1\n      swap5\n      div\n      swap4\n      dup5\n      add\n      dup2\n      swap1\n      div\n      dup2\n      mul\n      dup3\n      add\n      dup2\n      add\n      swap1\n      swap3\n      mstore\n      dup3\n      dup2\n      mstore\n        /* \"contracts/usdt.sol\":12115:12128  string memory */\n      0x60\n      swap4\n        /* \"contracts/usdt.sol\":12136:12148  return _name */\n      swap1\n      swap3\n        /* \"contracts/usdt.sol\":12143:12148  _name */\n      swap1\n      swap2\n        /* \"contracts/usdt.sol\":12136:12148  return _name */\n      dup4\n      add\n        /* \"contracts/usdt.sol\":12143:12148  _name */\n      dup3\n        /* \"contracts/usdt.sol\":12136:12148  return _name */\n      dup3\n      dup1\n      iszero\n      tag_89\n      jumpi\n      dup1\n      0x1f\n      lt\n      tag_90\n      jumpi\n      0x0100\n      dup1\n      dup4\n      sload\n      div\n      mul\n      dup4\n      mstore\n      swap2\n      0x20\n      add\n      swap2\n      jump(tag_89)\n    tag_90:\n      dup3\n      add\n      swap2\n      swap1\n      0x00\n      mstore\n      keccak256(0x00, 0x20)\n      swap1\n    tag_91:\n      dup2\n      sload\n      dup2\n      mstore\n      swap1\n      0x01\n      add\n      swap1\n      0x20\n      add\n      dup1\n      dup4\n      gt\n      tag_91\n      jumpi\n      dup3\n      swap1\n      sub\n      0x1f\n      and\n      dup3\n      add\n      swap2\n    tag_89:\n      pop\n      pop\n      pop\n      pop\n      pop\n      swap1\n      pop\n        /* \"contracts/usdt.sol\":12076:12153  function name() external view returns (string memory) {... */\n      swap1\n      jump\t// out\n        /* \"contracts/usdt.sol\":13066:13207  function approve(address spender, uint256 amount) external returns (bool) {... */\n    tag_33:\n        /* \"contracts/usdt.sol\":13134:13138  bool */\n      0x00\n        /* \"contracts/usdt.sol\":13146:13185  _approve(_msgSender(), spender, amount) */\n      tag_93\n        /* \"contracts/usdt.sol\":13155:13167  _msgSender() */\n      tag_94\n        /* \"contracts/usdt.sol\":13155:13165  _msgSender */\n      tag_95\n        /* \"contracts/usdt.sol\":13155:13167  _msgSender() */\n      jump\t// in\n    tag_94:\n        /* \"contracts/usdt.sol\":13169:13176  spender */\n      dup5\n        /* \"contracts/usdt.sol\":13178:13184  amount */\n      dup5\n        /* \"contracts/usdt.sol\":13146:13154  _approve */\n      tag_96\n        /* \"contracts/usdt.sol\":13146:13185  _approve(_msgSender(), spender, amount) */\n      jump\t// in\n    tag_93:\n      pop\n        /* \"contracts/usdt.sol\":13198:13202  true */\n      0x01\n        /* \"contracts/usdt.sol\":13066:13207  function approve(address spender, uint256 amount) external returns (bool) {... */\n      swap3\n      swap2\n      pop\n      pop\n      jump\t// out\n        /* \"contracts/usdt.sol\":12203:12288  function totalSupply() external view returns (uint256) {... */\n    tag_35:\n        /* \"contracts/usdt.sol\":12271:12283  _totalSupply */\n      sload(0x03)\n        /* \"contracts/usdt.sol\":12203:12288  function totalSupply() external view returns (uint256) {... */\n      swap1\n      jump\t// out\n        /* \"contracts/usdt.sol\":13636:13923  function transferFrom(address sender, address recipient, uint256 amount) external returns (bool) {... */\n    tag_38:\n        /* \"contracts/usdt.sol\":13727:13731  bool */\n      0x00\n        /* \"contracts/usdt.sol\":13739:13775  _transfer(sender, recipient, amount) */\n      tag_99\n        /* \"contracts/usdt.sol\":13749:13755  sender */\n      dup5\n        /* \"contracts/usdt.sol\":13757:13766  recipient */\n      dup5\n        /* \"contracts/usdt.sol\":13768:13774  amount */\n      dup5\n        /* \"contracts/usdt.sol\":13739:13748  _transfer */\n      tag_100\n        /* \"contracts/usdt.sol\":13739:13775  _transfer(sender, recipient, amount) */\n      jump\t// in\n    tag_99:\n        /* \"contracts/usdt.sol\":13781:13901  _approve(sender, _msgSender(), _allowances[sender][_msgSender()].sub(amount, \"USDT: transfer amount exceeds allowance\")) */\n      tag_101\n        /* \"contracts/usdt.sol\":13790:13796  sender */\n      dup5\n        /* \"contracts/usdt.sol\":13798:13810  _msgSender() */\n      tag_102\n        /* \"contracts/usdt.sol\":13798:13808  _msgSender */\n      tag_95\n        /* \"contracts/usdt.sol\":13798:13810  _msgSender() */\n      jump\t// in\n    tag_102:\n        /* \"contracts/usdt.sol\":13812:13900  _allowances[sender][_msgSender()].sub(amount, \"USDT: transfer amount exceeds allowance\") */\n      tag_103\n        /* \"contracts/usdt.sol\":13850:13856  amount */\n      dup6\n        /* \"contracts/usdt.sol\":13812:13900  _allowances[sender][_msgSender()].sub(amount, \"USDT: transfer amount exceeds allowance\") */\n      mload(0x40)\n      dup1\n      0x60\n      add\n      0x40\n      mstore\n      dup1\n      0x27\n      dup2\n      mstore\n      0x20\n      add\n      data_48762184e6cc81b01f1cf7132221fcca5eb3c474c8add2ea70000c20f5565b7e\n      0x27\n      swap2\n      codecopy\n      sub(shl(0xa0, 0x01), 0x01)\n        /* \"contracts/usdt.sol\":13812:13831  _allowances[sender] */\n      dup11\n      and\n      0x00\n      swap1\n      dup2\n      mstore\n        /* \"contracts/usdt.sol\":13812:13823  _allowances */\n      0x02\n        /* \"contracts/usdt.sol\":13812:13831  _allowances[sender] */\n      0x20\n      mstore\n      0x40\n      dup2\n      keccak256\n      swap1\n        /* \"contracts/usdt.sol\":13832:13844  _msgSender() */\n      tag_104\n        /* \"contracts/usdt.sol\":13832:13842  _msgSender */\n      tag_95\n        /* \"contracts/usdt.sol\":13832:13844  _msgSender() */\n      jump\t// in\n    tag_104:\n      sub(shl(0xa0, 0x01), 0x01)\n        /* \"contracts/usdt.sol\":13812:13845  _allowances[sender][_msgSender()] */\n      and\n      dup2\n      mstore\n      0x20\n      dup2\n      add\n      swap2\n      swap1\n      swap2\n      mstore\n      0x40\n      add\n      0x00\n      keccak256\n      sload\n      swap2\n        /* \"contracts/usdt.sol\":13812:13900  _allowances[sender][_msgSender()].sub(amount, \"USDT: transfer amount exceeds allowance\") */\n      swap1\n      0xffffffff\n        /* \"contracts/usdt.sol\":13812:13849  _allowances[sender][_msgSender()].sub */\n      tag_105\n        /* \"contracts/usdt.sol\":13812:13900  _allowances[sender][_msgSender()].sub(amount, \"USDT: transfer amount exceeds allowance\") */\n      and\n      jump\t// in\n    tag_103:\n        /* \"contracts/usdt.sol\":13781:13789  _approve */\n      tag_96\n        /* \"contracts/usdt.sol\":13781:13901  _approve(sender, _msgSender(), _allowances[sender][_msgSender()].sub(amount, \"USDT: transfer amount exceeds allowance\")) */\n      jump\t// in\n    tag_101:\n      pop\n        /* \"contracts/usdt.sol\":13914:13918  true */\n      0x01\n        /* \"contracts/usdt.sol\":13636:13923  function transferFrom(address sender, address recipient, uint256 amount) external returns (bool) {... */\n      swap4\n      swap3\n      pop\n      pop\n      pop\n      jump\t// out\n        /* \"contracts/usdt.sol\":11816:11895  function decimals() external view returns (uint256) {... */\n    tag_40:\n        /* \"contracts/usdt.sol\":11881:11890  _decimals */\n      and(0xff, sload(0x04))\n        /* \"contracts/usdt.sol\":11816:11895  function decimals() external view returns (uint256) {... */\n      swap1\n      jump\t// out\n        /* \"contracts/usdt.sol\":11313:11335  uint8 public _decimals */\n    tag_42:\n      and(0xff, sload(0x04))\n      dup2\n      jump\t// out\n        /* \"contracts/usdt.sol\":14290:14487  function increaseAllowance(address spender, uint256 addedValue) public returns (bool) {... */\n    tag_45:\n        /* \"contracts/usdt.sol\":14370:14374  bool */\n      0x00\n        /* \"contracts/usdt.sol\":14382:14465  _approve(_msgSender(), spender, _allowances[_msgSender()][spender].add(addedValue)) */\n      tag_93\n        /* \"contracts/usdt.sol\":14391:14403  _msgSender() */\n      tag_109\n        /* \"contracts/usdt.sol\":14391:14401  _msgSender */\n      tag_95\n        /* \"contracts/usdt.sol\":14391:14403  _msgSender() */\n      jump\t// in\n    tag_109:\n        /* \"contracts/usdt.sol\":14405:14412  spender */\n      dup5\n        /* \"contracts/usdt.sol\":14414:14464  _allowances[_msgSender()][spender].add(addedValue) */\n      tag_103\n        /* \"contracts/usdt.sol\":14453:14463  addedValue */\n      dup6\n        /* \"contracts/usdt.sol\":14414:14425  _allowances */\n      0x02\n        /* \"contracts/usdt.sol\":14414:14439  _allowances[_msgSender()] */\n      0x00\n        /* \"contracts/usdt.sol\":14426:14438  _msgSender() */\n      tag_111\n        /* \"contracts/usdt.sol\":14426:14436  _msgSender */\n      tag_95\n        /* \"contracts/usdt.sol\":14426:14438  _msgSender() */\n      jump\t// in\n    tag_111:\n      sub(shl(0xa0, 0x01), 0x01)\n        /* \"contracts/usdt.sol\":14414:14439  _allowances[_msgSender()] */\n      swap1\n      dup2\n      and\n      dup3\n      mstore\n      0x20\n      dup1\n      dup4\n      add\n      swap4\n      swap1\n      swap4\n      mstore\n      0x40\n      swap2\n      dup3\n      add\n      0x00\n      swap1\n      dup2\n      keccak256\n        /* \"contracts/usdt.sol\":14414:14448  _allowances[_msgSender()][spender] */\n      swap2\n      dup13\n      and\n      dup2\n      mstore\n      swap3\n      mstore\n      swap1\n      keccak256\n      sload\n      swap1\n        /* \"contracts/usdt.sol\":14414:14464  _allowances[_msgSender()][spender].add(addedValue) */\n      0xffffffff\n        /* \"contracts/usdt.sol\":14414:14452  _allowances[_msgSender()][spender].add */\n      tag_112\n        /* \"contracts/usdt.sol\":14414:14464  _allowances[_msgSender()][spender].add(addedValue) */\n      and\n      jump\t// in\n        /* \"contracts/usdt.sol\":12336:12440  function balanceOf(address account) external view returns (uint256) {... */\n    tag_48:\n      sub(shl(0xa0, 0x01), 0x01)\n        /* \"contracts/usdt.sol\":12417:12435  _balances[account] */\n      and\n        /* \"contracts/usdt.sol\":12395:12402  uint256 */\n      0x00\n        /* \"contracts/usdt.sol\":12417:12435  _balances[account] */\n      swap1\n      dup2\n      mstore\n        /* \"contracts/usdt.sol\":12417:12426  _balances */\n      0x01\n        /* \"contracts/usdt.sol\":12417:12435  _balances[account] */\n      0x20\n      mstore\n      0x40\n      swap1\n      keccak256\n      sload\n      swap1\n        /* \"contracts/usdt.sol\":12336:12440  function balanceOf(address account) external view returns (uint256) {... */\n      jump\t// out\n        /* \"contracts/usdt.sol\":10405:10532  function renounceOwnership() public onlyOwner {... */\n    tag_50:\n        /* \"contracts/usdt.sol\":10018:10030  _msgSender() */\n      tag_115\n        /* \"contracts/usdt.sol\":10018:10028  _msgSender */\n      tag_95\n        /* \"contracts/usdt.sol\":10018:10030  _msgSender() */\n      jump\t// in\n    tag_115:\n        /* \"contracts/usdt.sol\":10008:10014  _owner */\n      sload(0x00)\n      sub(shl(0xa0, 0x01), 0x01)\n      swap1\n      dup2\n      and\n        /* \"contracts/usdt.sol\":10008:10030  _owner == _msgSender() */\n      swap2\n      and\n      eq\n        /* \"contracts/usdt.sol\":10000:10067  require(_owner == _msgSender(), \"Ownable: caller is not the owner\") */\n      tag_116\n      jumpi\n      0x40\n      dup1\n      mload\n      shl(0xe5, 0x461bcd)\n      dup2\n      mstore\n      0x20\n      0x04\n      dup3\n      add\n      dup2\n      swap1\n      mstore\n      0x24\n      dup3\n      add\n      mstore\n      0x4f776e61626c653a2063616c6c6572206973206e6f7420746865206f776e6572\n      0x44\n      dup3\n      add\n      mstore\n      swap1\n      mload\n      swap1\n      dup2\n      swap1\n      sub\n      0x64\n      add\n      swap1\n      revert\n    tag_116:\n        /* \"contracts/usdt.sol\":10499:10500  0 */\n      0x00\n        /* \"contracts/usdt.sol\":10483:10489  _owner */\n      dup1\n      sload\n        /* \"contracts/usdt.sol\":10462:10502  OwnershipTransferred(_owner, address(0)) */\n      mload(0x40)\n      sub(shl(0xa0, 0x01), 0x01)\n        /* \"contracts/usdt.sol\":10483:10489  _owner */\n      swap1\n      swap2\n      and\n      swap1\n        /* \"contracts/usdt.sol\":10462:10502  OwnershipTransferred(_owner, address(0)) */\n      0x8be0079c531659141344cd1fd0a4f28419497f9722a3daafe3b4186f6b6457e0\n      swap1\n        /* \"contracts/usdt.sol\":10499:10500  0 */\n      dup4\n      swap1\n        /* \"contracts/usdt.sol\":10462:10502  OwnershipTransferred(_owner, address(0)) */\n      log3\n        /* \"contracts/usdt.sol\":10525:10526  0 */\n      0x00\n        /* \"contracts/usdt.sol\":10508:10527  _owner = address(0) */\n      dup1\n      sload\n      not(sub(shl(0xa0, 0x01), 0x01))\n      and\n      swap1\n      sstore\n        /* \"contracts/usdt.sol\":10405:10532  function renounceOwnership() public onlyOwner {... */\n      jump\t// out\n        /* \"contracts/usdt.sol\":11685:11762  function getOwner() external view returns (address) {... */\n    tag_52:\n        /* \"contracts/usdt.sol\":11728:11735  address */\n      0x00\n        /* \"contracts/usdt.sol\":11750:11757  owner() */\n      tag_119\n        /* \"contracts/usdt.sol\":11750:11755  owner */\n      tag_54\n        /* \"contracts/usdt.sol\":11750:11757  owner() */\n      jump\t// in\n    tag_119:\n        /* \"contracts/usdt.sol\":11743:11757  return owner() */\n      swap1\n      pop\n        /* \"contracts/usdt.sol\":11685:11762  function getOwner() external view returns (address) {... */\n      swap1\n      jump\t// out\n        /* \"contracts/usdt.sol\":9822:9893  function owner() public view returns (address) {... */\n    tag_54:\n        /* \"contracts/usdt.sol\":9860:9867  address */\n      0x00\n        /* \"contracts/usdt.sol\":9882:9888  _owner */\n      sload\n      sub(shl(0xa0, 0x01), 0x01)\n      and\n        /* \"contracts/usdt.sol\":9822:9893  function owner() public view returns (address) {... */\n      swap1\n      jump\t// out\n        /* \"contracts/usdt.sol\":11947:12028  function symbol() external view returns (string memory) {... */\n    tag_56:\n        /* \"contracts/usdt.sol\":12016:12023  _symbol */\n      0x05\n        /* \"contracts/usdt.sol\":12009:12023  return _symbol */\n      dup1\n      sload\n      0x40\n      dup1\n      mload\n      0x20\n      0x1f\n      0x02\n      not(0x00)\n      0x0100\n      0x01\n      dup9\n      and\n      iszero\n      mul\n      add\n      swap1\n      swap6\n      and\n      swap5\n      swap1\n      swap5\n      div\n      swap4\n      dup5\n      add\n      dup2\n      swap1\n      div\n      dup2\n      mul\n      dup3\n      add\n      dup2\n      add\n      swap1\n      swap3\n      mstore\n      dup3\n      dup2\n      mstore\n        /* \"contracts/usdt.sol\":11988:12001  string memory */\n      0x60\n      swap4\n        /* \"contracts/usdt.sol\":12009:12023  return _symbol */\n      swap1\n      swap3\n        /* \"contracts/usdt.sol\":12016:12023  _symbol */\n      swap1\n      swap2\n        /* \"contracts/usdt.sol\":12009:12023  return _symbol */\n      dup4\n      add\n        /* \"contracts/usdt.sol\":12016:12023  _symbol */\n      dup3\n        /* \"contracts/usdt.sol\":12009:12023  return _symbol */\n      dup3\n      dup1\n      iszero\n      tag_89\n      jumpi\n      dup1\n      0x1f\n      lt\n      tag_90\n      jumpi\n      0x0100\n      dup1\n      dup4\n      sload\n      div\n      mul\n      dup4\n      mstore\n      swap2\n      0x20\n      add\n      swap2\n      jump(tag_89)\n        /* \"contracts/usdt.sol\":15379:15496  function mint(uint256 amount) public onlyOwner returns (bool) {... */\n    tag_63:\n        /* \"contracts/usdt.sol\":15435:15439  bool */\n      0x00\n        /* \"contracts/usdt.sol\":10018:10030  _msgSender() */\n      tag_126\n        /* \"contracts/usdt.sol\":10018:10028  _msgSender */\n      tag_95\n        /* \"contracts/usdt.sol\":10018:10030  _msgSender() */\n      jump\t// in\n    tag_126:\n        /* \"contracts/usdt.sol\":10008:10014  _owner */\n      sload(0x00)\n      sub(shl(0xa0, 0x01), 0x01)\n      swap1\n      dup2\n      and\n        /* \"contracts/usdt.sol\":10008:10030  _owner == _msgSender() */\n      swap2\n      and\n      eq\n        /* \"contracts/usdt.sol\":10000:10067  require(_owner == _msgSender(), \"Ownable: caller is not the owner\") */\n      tag_127\n      jumpi\n      0x40\n      dup1\n      mload\n      shl(0xe5, 0x461bcd)\n      dup2\n      mstore\n      0x20\n      0x04\n      dup3\n      add\n      dup2\n      swap1\n      mstore\n      0x24\n      dup3\n      add\n      mstore\n      0x4f776e61626c653a2063616c6c6572206973206e6f7420746865206f776e6572\n      0x44\n      dup3\n      add\n      mstore\n      swap1\n      mload\n      swap1\n      dup2\n      swap1\n      sub\n      0x64\n      add\n      swap1\n      revert\n    tag_127:\n        /* \"contracts/usdt.sol\":15447:15474  _mint(_msgSender(), amount) */\n      tag_129\n        /* \"contracts/usdt.sol\":15453:15465  _msgSender() */\n      tag_130\n        /* \"contracts/usdt.sol\":15453:15463  _msgSender */\n      tag_95\n        /* \"contracts/usdt.sol\":15453:15465  _msgSender() */\n      jump\t// in\n    tag_130:\n        /* \"contracts/usdt.sol\":15467:15473  amount */\n      dup4\n        /* \"contracts/usdt.sol\":15447:15452  _mint */\n      tag_131\n        /* \"contracts/usdt.sol\":15447:15474  _mint(_msgSender(), amount) */\n      jump\t// in\n    tag_129:\n      pop\n        /* \"contracts/usdt.sol\":15487:15491  true */\n      0x01\n        /* \"contracts/usdt.sol\":15379:15496  function mint(uint256 amount) public onlyOwner returns (bool) {... */\n      swap2\n      swap1\n      pop\n      jump\t// out\n        /* \"contracts/usdt.sol\":14942:15189  function decreaseAllowance(address spender, uint256 subtractedValue) public returns (bool) {... */\n    tag_66:\n        /* \"contracts/usdt.sol\":15027:15031  bool */\n      0x00\n        /* \"contracts/usdt.sol\":15039:15167  _approve(_msgSender(), spender, _allowances[_msgSender()][spender].sub(subtractedValue, \"USDT: decreased allowance below zero\")) */\n      tag_93\n        /* \"contracts/usdt.sol\":15048:15060  _msgSender() */\n      tag_134\n        /* \"contracts/usdt.sol\":15048:15058  _msgSender */\n      tag_95\n        /* \"contracts/usdt.sol\":15048:15060  _msgSender() */\n      jump\t// in\n    tag_134:\n        /* \"contracts/usdt.sol\":15062:15069  spender */\n      dup5\n        /* \"contracts/usdt.sol\":15071:15166  _allowances[_msgSender()][spender].sub(subtractedValue, \"USDT: decreased allowance below zero\") */\n      tag_103\n        /* \"contracts/usdt.sol\":15110:15125  subtractedValue */\n      dup6\n        /* \"contracts/usdt.sol\":15071:15166  _allowances[_msgSender()][spender].sub(subtractedValue, \"USDT: decreased allowance below zero\") */\n      mload(0x40)\n      dup1\n      0x60\n      add\n      0x40\n      mstore\n      dup1\n      0x24\n      dup2\n      mstore\n      0x20\n      add\n      data_209244f047a8224dd09938f43ca844bf644f39b7061501ffe1cc3ce9909b330b\n      0x24\n      swap2\n      codecopy\n        /* \"contracts/usdt.sol\":15071:15082  _allowances */\n      0x02\n        /* \"contracts/usdt.sol\":15071:15096  _allowances[_msgSender()] */\n      0x00\n        /* \"contracts/usdt.sol\":15083:15095  _msgSender() */\n      tag_136\n        /* \"contracts/usdt.sol\":15083:15093  _msgSender */\n      tag_95\n        /* \"contracts/usdt.sol\":15083:15095  _msgSender() */\n      jump\t// in\n    tag_136:\n      sub(shl(0xa0, 0x01), 0x01)\n        /* \"contracts/usdt.sol\":15071:15096  _allowances[_msgSender()] */\n      swap1\n      dup2\n      and\n      dup3\n      mstore\n      0x20\n      dup1\n      dup4\n      add\n      swap4\n      swap1\n      swap4\n      mstore\n      0x40\n      swap2\n      dup3\n      add\n      0x00\n      swap1\n      dup2\n      keccak256\n        /* \"contracts/usdt.sol\":15071:15105  _allowances[_msgSender()][spender] */\n      swap2\n      dup14\n      and\n      dup2\n      mstore\n      swap3\n      mstore\n      swap1\n      keccak256\n      sload\n      swap2\n        /* \"contracts/usdt.sol\":15071:15166  _allowances[_msgSender()][spender].sub(subtractedValue, \"USDT: decreased allowance below zero\") */\n      swap1\n      0xffffffff\n        /* \"contracts/usdt.sol\":15071:15109  _allowances[_msgSender()][spender].sub */\n      tag_105\n        /* \"contracts/usdt.sol\":15071:15166  _allowances[_msgSender()][spender].sub(subtractedValue, \"USDT: decreased allowance below zero\") */\n      and\n      jump\t// in\n        /* \"contracts/usdt.sol\":12623:12770  function transfer(address recipient, uint256 amount) external returns (bool) {... */\n    tag_69:\n        /* \"contracts/usdt.sol\":12694:12698  bool */\n      0x00\n        /* \"contracts/usdt.sol\":12706:12748  _transfer(_msgSender(), recipient, amount) */\n      tag_93\n        /* \"contracts/usdt.sol\":12716:12728  _msgSender() */\n      tag_139\n        /* \"contracts/usdt.sol\":12716:12726  _msgSender */\n      tag_95\n        /* \"contracts/usdt.sol\":12716:12728  _msgSender() */\n      jump\t// in\n    tag_139:\n        /* \"contracts/usdt.sol\":12730:12739  recipient */\n      dup5\n        /* \"contracts/usdt.sol\":12741:12747  amount */\n      dup5\n        /* \"contracts/usdt.sol\":12706:12715  _transfer */\n      tag_100\n        /* \"contracts/usdt.sol\":12706:12748  _transfer(_msgSender(), recipient, amount) */\n      jump\t// in\n        /* \"contracts/usdt.sol\":11339:11360  string public _symbol */\n    tag_71:\n      0x05\n      dup1\n      sload\n      0x40\n      dup1\n      mload\n      0x20\n      0x02\n      0x01\n      dup6\n      and\n      iszero\n      0x0100\n      mul\n      not(0x00)\n      add\n      swap1\n      swap5\n      and\n      swap4\n      swap1\n      swap4\n      div\n      0x1f\n      dup2\n      add\n      dup5\n      swap1\n      div\n      dup5\n      mul\n      dup3\n      add\n      dup5\n      add\n      swap1\n      swap3\n      mstore\n      dup2\n      dup2\n      mstore\n      swap3\n      swap2\n      dup4\n      add\n      dup3\n      dup3\n      dup1\n      iszero\n      tag_140\n      jumpi\n      dup1\n      0x1f\n      lt\n      tag_141\n      jumpi\n      0x0100\n      dup1\n      dup4\n      sload\n      div\n      mul\n      dup4\n      mstore\n      swap2\n      0x20\n      add\n      swap2\n      jump(tag_140)\n    tag_141:\n      dup3\n      add\n      swap2\n      swap1\n      0x00\n      mstore\n      keccak256(0x00, 0x20)\n      swap1\n    tag_142:\n      dup2\n      sload\n      dup2\n      mstore\n      swap1\n      0x01\n      add\n      swap1\n      0x20\n      add\n      dup1\n      dup4\n      gt\n      tag_142\n      jumpi\n      dup3\n      swap1\n      sub\n      0x1f\n      and\n      dup3\n      add\n      swap2\n    tag_140:\n      pop\n      pop\n      pop\n      pop\n      pop\n      dup2\n      jump\t// out\n        /* \"contracts/usdt.sol\":11364:11383  string public _name */\n    tag_77:\n      0x06\n      dup1\n      sload\n      0x40\n      dup1\n      mload\n      0x20\n      0x02\n      0x01\n      dup6\n      and\n      iszero\n      0x0100\n      mul\n      not(0x00)\n      add\n      swap1\n      swap5\n      and\n      swap4\n      swap1\n      swap4\n      div\n      0x1f\n      dup2\n      add\n      dup5\n      swap1\n      div\n      dup5\n      mul\n      dup3\n      add\n      dup5\n      add\n      swap1\n      swap3\n      mstore\n      dup2\n      dup2\n      mstore\n      swap3\n      swap2\n      dup4\n      add\n      dup3\n      dup3\n      dup1\n      iszero\n      tag_140\n      jumpi\n      dup1\n      0x1f\n      lt\n      tag_141\n      jumpi\n      0x0100\n      dup1\n      dup4\n      sload\n      div\n      mul\n      dup4\n      mstore\n      swap2\n      0x20\n      add\n      swap2\n      jump(tag_140)\n        /* \"contracts/usdt.sol\":12818:12946  function allowance(address owner, address spender) external view returns (uint256) {... */\n    tag_84:\n      sub(shl(0xa0, 0x01), 0x01)\n        /* \"contracts/usdt.sol\":12914:12932  _allowances[owner] */\n      swap2\n      dup3\n      and\n        /* \"contracts/usdt.sol\":12892:12899  uint256 */\n      0x00\n        /* \"contracts/usdt.sol\":12914:12932  _allowances[owner] */\n      swap1\n      dup2\n      mstore\n        /* \"contracts/usdt.sol\":12914:12925  _allowances */\n      0x02\n        /* \"contracts/usdt.sol\":12914:12932  _allowances[owner] */\n      0x20\n      swap1\n      dup2\n      mstore\n      0x40\n      dup1\n      dup4\n      keccak256\n        /* \"contracts/usdt.sol\":12914:12941  _allowances[owner][spender] */\n      swap4\n      swap1\n      swap5\n      and\n      dup3\n      mstore\n      swap2\n      swap1\n      swap2\n      mstore\n      keccak256\n      sload\n      swap1\n        /* \"contracts/usdt.sol\":12818:12946  function allowance(address owner, address spender) external view returns (uint256) {... */\n      jump\t// out\n        /* \"contracts/usdt.sol\":10671:10772  function transferOwnership(address newOwner) public onlyOwner {... */\n    tag_87:\n        /* \"contracts/usdt.sol\":10018:10030  _msgSender() */\n      tag_148\n        /* \"contracts/usdt.sol\":10018:10028  _msgSender */\n      tag_95\n        /* \"contracts/usdt.sol\":10018:10030  _msgSender() */\n      jump\t// in\n    tag_148:\n        /* \"contracts/usdt.sol\":10008:10014  _owner */\n      sload(0x00)\n      sub(shl(0xa0, 0x01), 0x01)\n      swap1\n      dup2\n      and\n        /* \"contracts/usdt.sol\":10008:10030  _owner == _msgSender() */\n      swap2\n      and\n      eq\n        /* \"contracts/usdt.sol\":10000:10067  require(_owner == _msgSender(), \"Ownable: caller is not the owner\") */\n      tag_149\n      jumpi\n      0x40\n      dup1\n      mload\n      shl(0xe5, 0x461bcd)\n      dup2\n      mstore\n      0x20\n      0x04\n      dup3\n      add\n      dup2\n      swap1\n      mstore\n      0x24\n      dup3\n      add\n      mstore\n      0x4f776e61626c653a2063616c6c6572206973206e6f7420746865206f776e6572\n      0x44\n      dup3\n      add\n      mstore\n      swap1\n      mload\n      swap1\n      dup2\n      swap1\n      sub\n      0x64\n      add\n      swap1\n      revert\n    tag_149:\n        /* \"contracts/usdt.sol\":10739:10767  _transferOwnership(newOwner) */\n      tag_151\n        /* \"contracts/usdt.sol\":10758:10766  newOwner */\n      dup2\n        /* \"contracts/usdt.sol\":10739:10757  _transferOwnership */\n      tag_152\n        /* \"contracts/usdt.sol\":10739:10767  _transferOwnership(newOwner) */\n      jump\t// in\n    tag_151:\n        /* \"contracts/usdt.sol\":10671:10772  function transferOwnership(address newOwner) public onlyOwner {... */\n      pop\n      jump\t// out\n        /* \"contracts/usdt.sol\":3707:3797  function _msgSender() internal view returns (address payable) {... */\n    tag_95:\n        /* \"contracts/usdt.sol\":3782:3792  msg.sender */\n      caller\n        /* \"contracts/usdt.sol\":3707:3797  function _msgSender() internal view returns (address payable) {... */\n      swap1\n      jump\t// out\n        /* \"contracts/usdt.sol\":17926:18238  function _approve(address owner, address spender, uint256 amount) internal {... */\n    tag_96:\n      sub(shl(0xa0, 0x01), 0x01)\n        /* \"contracts/usdt.sol\":18015:18034  owner != address(0) */\n      dup4\n      and\n        /* \"contracts/usdt.sol\":18007:18074  require(owner != address(0), \"USDT: approve from the zero address\") */\n      tag_155\n      jumpi\n      mload(0x40)\n      shl(0xe5, 0x461bcd)\n      dup2\n      mstore\n      0x04\n      add\n      dup1\n      dup1\n      0x20\n      add\n      dup3\n      dup2\n      sub\n      dup3\n      mstore\n      0x23\n      dup2\n      mstore\n      0x20\n      add\n      dup1\n      data_46b92c107683bd4bebb0fe39ab57ec138766b4510ca1e67d04027785004b14f6\n      0x23\n      swap2\n      codecopy\n      0x40\n      add\n      swap2\n      pop\n      pop\n      mload(0x40)\n      dup1\n      swap2\n      sub\n      swap1\n      revert\n    tag_155:\n      sub(shl(0xa0, 0x01), 0x01)\n        /* \"contracts/usdt.sol\":18088:18109  spender != address(0) */\n      dup3\n      and\n        /* \"contracts/usdt.sol\":18080:18147  require(spender != address(0), \"USDT: approve to the zero address\") */\n      tag_156\n      jumpi\n      mload(0x40)\n      shl(0xe5, 0x461bcd)\n      dup2\n      mstore\n      0x04\n      add\n      dup1\n      dup1\n      0x20\n      add\n      dup3\n      dup2\n      sub\n      dup3\n      mstore\n      0x21\n      dup2\n      mstore\n      0x20\n      add\n      dup1\n      data_adbc321b816a81a31e241db77c10a77dd37dbe8d1dd85d65bc5d681f7779acf4\n      0x21\n      swap2\n      codecopy\n      0x40\n      add\n      swap2\n      pop\n      pop\n      mload(0x40)\n      dup1\n      swap2\n      sub\n      swap1\n      revert\n    tag_156:\n      sub(shl(0xa0, 0x01), 0x01)\n        /* \"contracts/usdt.sol\":18154:18172  _allowances[owner] */\n      dup1\n      dup5\n      and\n      0x00\n      dup2\n      dup2\n      mstore\n        /* \"contracts/usdt.sol\":18154:18165  _allowances */\n      0x02\n        /* \"contracts/usdt.sol\":18154:18172  _allowances[owner] */\n      0x20\n      swap1\n      dup2\n      mstore\n      0x40\n      dup1\n      dup4\n      keccak256\n        /* \"contracts/usdt.sol\":18154:18181  _allowances[owner][spender] */\n      swap5\n      dup8\n      and\n      dup1\n      dup5\n      mstore\n      swap5\n      dup3\n      mstore\n      swap2\n      dup3\n      swap1\n      keccak256\n        /* \"contracts/usdt.sol\":18154:18190  _allowances[owner][spender] = amount */\n      dup6\n      swap1\n      sstore\n        /* \"contracts/usdt.sol\":18201:18233  Approval(owner, spender, amount) */\n      dup2\n      mload\n      dup6\n      dup2\n      mstore\n      swap2\n      mload\n      0x8c5be1e5ebec7d5bd14f71427d1e84f3dd0314c0f7b2291e5b200ac8c7c3b925\n      swap3\n      dup2\n      swap1\n      sub\n      swap1\n      swap2\n      add\n      swap1\n      log3\n        /* \"contracts/usdt.sol\":17926:18238  function _approve(address owner, address spender, uint256 amount) internal {... */\n      pop\n      pop\n      pop\n      jump\t// out\n        /* \"contracts/usdt.sol\":15940:16379  function _transfer(address sender, address recipient, uint256 amount) internal {... */\n    tag_100:\n      sub(shl(0xa0, 0x01), 0x01)\n        /* \"contracts/usdt.sol\":16033:16053  sender != address(0) */\n      dup4\n      and\n        /* \"contracts/usdt.sol\":16025:16094  require(sender != address(0), \"USDT: transfer from the zero address\") */\n      tag_158\n      jumpi\n      mload(0x40)\n      shl(0xe5, 0x461bcd)\n      dup2\n      mstore\n      0x04\n      add\n      dup1\n      dup1\n      0x20\n      add\n      dup3\n      dup2\n      sub\n      dup3\n      mstore\n      0x24\n      dup2\n      mstore\n      0x20\n      add\n      dup1\n      data_b47312614118ca974cd1cb0785cf101003663749b22596bc8e7ea6ce64a4aa76\n      0x24\n      swap2\n      codecopy\n      0x40\n      add\n      swap2\n      pop\n      pop\n      mload(0x40)\n      dup1\n      swap2\n      sub\n      swap1\n      revert\n    tag_158:\n      sub(shl(0xa0, 0x01), 0x01)\n        /* \"contracts/usdt.sol\":16108:16131  recipient != address(0) */\n      dup3\n      and\n        /* \"contracts/usdt.sol\":16100:16170  require(recipient != address(0), \"USDT: transfer to the zero address\") */\n      tag_159\n      jumpi\n      mload(0x40)\n      shl(0xe5, 0x461bcd)\n      dup2\n      mstore\n      0x04\n      add\n      dup1\n      dup1\n      0x20\n      add\n      dup3\n      dup2\n      sub\n      dup3\n      mstore\n      0x22\n      dup2\n      mstore\n      0x20\n      add\n      dup1\n      data_423f148df64af2854c983cfa14596dfe53761b85317edf4f394d9416b513853b\n      0x22\n      swap2\n      codecopy\n      0x40\n      add\n      swap2\n      pop\n      pop\n      mload(0x40)\n      dup1\n      swap2\n      sub\n      swap1\n      revert\n    tag_159:\n        /* \"contracts/usdt.sol\":16197:16267  _balances[sender].sub(amount, \"USDT: transfer amount exceeds balance\") */\n      tag_160\n        /* \"contracts/usdt.sol\":16219:16225  amount */\n      dup2\n        /* \"contracts/usdt.sol\":16197:16267  _balances[sender].sub(amount, \"USDT: transfer amount exceeds balance\") */\n      mload(0x40)\n      dup1\n      0x60\n      add\n      0x40\n      mstore\n      dup1\n      0x25\n      dup2\n      mstore\n      0x20\n      add\n      data_0ae587bda794751604922be67654f7ce009e430d2fb0a0638a0adf55cced3d54\n      0x25\n      swap2\n      codecopy\n      sub(shl(0xa0, 0x01), 0x01)\n        /* \"contracts/usdt.sol\":16197:16214  _balances[sender] */\n      dup7\n      and\n      0x00\n      swap1\n      dup2\n      mstore\n        /* \"contracts/usdt.sol\":16197:16206  _balances */\n      0x01\n        /* \"contracts/usdt.sol\":16197:16214  _balances[sender] */\n      0x20\n      mstore\n      0x40\n      swap1\n      keccak256\n      sload\n      swap2\n        /* \"contracts/usdt.sol\":16197:16267  _balances[sender].sub(amount, \"USDT: transfer amount exceeds balance\") */\n      swap1\n      0xffffffff\n        /* \"contracts/usdt.sol\":16197:16218  _balances[sender].sub */\n      tag_105\n        /* \"contracts/usdt.sol\":16197:16267  _balances[sender].sub(amount, \"USDT: transfer amount exceeds balance\") */\n      and\n      jump\t// in\n    tag_160:\n      sub(shl(0xa0, 0x01), 0x01)\n        /* \"contracts/usdt.sol\":16177:16194  _balances[sender] */\n      dup1\n      dup6\n      and\n      0x00\n      swap1\n      dup2\n      mstore\n        /* \"contracts/usdt.sol\":16177:16186  _balances */\n      0x01\n        /* \"contracts/usdt.sol\":16177:16194  _balances[sender] */\n      0x20\n      mstore\n      0x40\n      dup1\n      dup3\n      keccak256\n        /* \"contracts/usdt.sol\":16177:16267  _balances[sender] = _balances[sender].sub(amount, \"USDT: transfer amount exceeds balance\") */\n      swap4\n      swap1\n      swap4\n      sstore\n        /* \"contracts/usdt.sol\":16296:16316  _balances[recipient] */\n      swap1\n      dup5\n      and\n      dup2\n      mstore\n      keccak256\n      sload\n        /* \"contracts/usdt.sol\":16296:16328  _balances[recipient].add(amount) */\n      tag_161\n      swap1\n        /* \"contracts/usdt.sol\":16321:16327  amount */\n      dup3\n        /* \"contracts/usdt.sol\":16296:16328  _balances[recipient].add(amount) */\n      0xffffffff\n        /* \"contracts/usdt.sol\":16296:16320  _balances[recipient].add */\n      tag_112\n        /* \"contracts/usdt.sol\":16296:16328  _balances[recipient].add(amount) */\n      and\n      jump\t// in\n    tag_161:\n      sub(shl(0xa0, 0x01), 0x01)\n        /* \"contracts/usdt.sol\":16273:16293  _balances[recipient] */\n      dup1\n      dup5\n      and\n      0x00\n      dup2\n      dup2\n      mstore\n        /* \"contracts/usdt.sol\":16273:16282  _balances */\n      0x01\n        /* \"contracts/usdt.sol\":16273:16293  _balances[recipient] */\n      0x20\n      swap1\n      dup2\n      mstore\n      0x40\n      swap2\n      dup3\n      swap1\n      keccak256\n        /* \"contracts/usdt.sol\":16273:16328  _balances[recipient] = _balances[recipient].add(amount) */\n      swap5\n      swap1\n      swap5\n      sstore\n        /* \"contracts/usdt.sol\":16339:16374  Transfer(sender, recipient, amount) */\n      dup1\n      mload\n      dup6\n      dup2\n      mstore\n      swap1\n      mload\n        /* \"contracts/usdt.sol\":16273:16293  _balances[recipient] */\n      swap2\n      swap4\n        /* \"contracts/usdt.sol\":16339:16374  Transfer(sender, recipient, amount) */\n      swap3\n      dup8\n      and\n      swap3\n      0xddf252ad1be2c89b69c2b068fc378daa952ba7f163c4a11628f55a4df523b3ef\n      swap3\n      swap2\n      dup3\n      swap1\n      sub\n      add\n      swap1\n      log3\n        /* \"contracts/usdt.sol\":15940:16379  function _transfer(address sender, address recipient, uint256 amount) internal {... */\n      pop\n      pop\n      pop\n      jump\t// out\n        /* \"contracts/usdt.sol\":5604:5777  function sub(uint256 a, uint256 b, string memory errorMessage) internal pure returns (uint256) {... */\n    tag_105:\n        /* \"contracts/usdt.sol\":5690:5697  uint256 */\n      0x00\n        /* \"contracts/usdt.sol\":5721:5733  errorMessage */\n      dup2\n        /* \"contracts/usdt.sol\":5713:5719  b <= a */\n      dup5\n      dup5\n      gt\n      iszero\n        /* \"contracts/usdt.sol\":5705:5734  require(b <= a, errorMessage) */\n      tag_163\n      jumpi\n      mload(0x40)\n      shl(0xe5, 0x461bcd)\n      dup2\n      mstore\n      0x04\n      add\n      dup1\n      dup1\n      0x20\n      add\n      dup3\n      dup2\n      sub\n      dup3\n      mstore\n      dup4\n      dup2\n      dup2\n      mload\n      dup2\n      mstore\n      0x20\n      add\n      swap2\n      pop\n      dup1\n      mload\n      swap1\n      0x20\n      add\n      swap1\n      dup1\n      dup4\n      dup4\n        /* \"--CODEGEN--\":23:24   */\n      0x00\n        /* \"--CODEGEN--\":8:108   */\n    tag_164:\n        /* \"--CODEGEN--\":33:36   */\n      dup4\n        /* \"--CODEGEN--\":30:31   */\n      dup2\n        /* \"--CODEGEN--\":27:37   */\n      lt\n        /* \"--CODEGEN--\":8:108   */\n      iszero\n      tag_166\n      jumpi\n        /* \"--CODEGEN--\":90:101   */\n      dup2\n      dup2\n      add\n        /* \"--CODEGEN--\":84:102   */\n      mload\n        /* \"--CODEGEN--\":71:82   */\n      dup4\n      dup3\n      add\n        /* \"--CODEGEN--\":64:103   */\n      mstore\n        /* \"--CODEGEN--\":52:54   */\n      0x20\n        /* \"--CODEGEN--\":45:55   */\n      add\n        /* \"--CODEGEN--\":8:108   */\n      jump(tag_164)\n    tag_166:\n        /* \"--CODEGEN--\":12:26   */\n      pop\n        /* \"contracts/usdt.sol\":5705:5734  require(b <= a, errorMessage) */\n      pop\n      pop\n      pop\n      swap1\n      pop\n      swap1\n      dup2\n      add\n      swap1\n      0x1f\n      and\n      dup1\n      iszero\n      tag_167\n      jumpi\n      dup1\n      dup3\n      sub\n      dup1\n      mload\n      0x01\n      dup4\n      0x20\n      sub\n      0x0100\n      exp\n      sub\n      not\n      and\n      dup2\n      mstore\n      0x20\n      add\n      swap2\n      pop\n    tag_167:\n      pop\n      swap3\n      pop\n      pop\n      pop\n      mload(0x40)\n      dup1\n      swap2\n      sub\n      swap1\n      revert\n    tag_163:\n      pop\n      pop\n      pop\n        /* \"contracts/usdt.sol\":5752:5757  a - b */\n      swap1\n      sub\n      swap1\n        /* \"contracts/usdt.sol\":5604:5777  function sub(uint256 a, uint256 b, string memory errorMessage) internal pure returns (uint256) {... */\n      jump\t// out\n        /* \"contracts/usdt.sol\":4806:4968  function add(uint256 a, uint256 b) internal pure returns (uint256) {... */\n    tag_112:\n        /* \"contracts/usdt.sol\":4864:4871  uint256 */\n      0x00\n        /* \"contracts/usdt.sol\":4891:4896  a + b */\n      dup3\n      dup3\n      add\n        /* \"contracts/usdt.sol\":4910:4916  c >= a */\n      dup4\n      dup2\n      lt\n      iszero\n        /* \"contracts/usdt.sol\":4902:4948  require(c >= a, \"SafeMath: addition overflow\") */\n      tag_169\n      jumpi\n      0x40\n      dup1\n      mload\n      shl(0xe5, 0x461bcd)\n      dup2\n      mstore\n      0x20\n      0x04\n      dup3\n      add\n      mstore\n      0x1b\n      0x24\n      dup3\n      add\n      mstore\n      0x536166654d6174683a206164646974696f6e206f766572666c6f770000000000\n      0x44\n      dup3\n      add\n      mstore\n      swap1\n      mload\n      swap1\n      dup2\n      swap1\n      sub\n      0x64\n      add\n      swap1\n      revert\n    tag_169:\n        /* \"contracts/usdt.sol\":4962:4963  c */\n      swap4\n        /* \"contracts/usdt.sol\":4806:4968  function add(uint256 a, uint256 b) internal pure returns (uint256) {... */\n      swap3\n      pop\n      pop\n      pop\n      jump\t// out\n        /* \"contracts/usdt.sol\":16629:16912  function _mint(address account, uint256 amount) internal {... */\n    tag_131:\n      sub(shl(0xa0, 0x01), 0x01)\n        /* \"contracts/usdt.sol\":16700:16721  account != address(0) */\n      dup3\n      and\n        /* \"contracts/usdt.sol\":16692:16756  require(account != address(0), \"USDT: mint to the zero address\") */\n      tag_171\n      jumpi\n      0x40\n      dup1\n      mload\n      shl(0xe5, 0x461bcd)\n      dup2\n      mstore\n      0x20\n      0x04\n      dup3\n      add\n      mstore\n      0x1e\n      0x24\n      dup3\n      add\n      mstore\n      0x555344543a206d696e7420746f20746865207a65726f20616464726573730000\n      0x44\n      dup3\n      add\n      mstore\n      swap1\n      mload\n      swap1\n      dup2\n      swap1\n      sub\n      0x64\n      add\n      swap1\n      revert\n    tag_171:\n        /* \"contracts/usdt.sol\":16778:16790  _totalSupply */\n      sload(0x03)\n        /* \"contracts/usdt.sol\":16778:16802  _totalSupply.add(amount) */\n      tag_172\n      swap1\n        /* \"contracts/usdt.sol\":16795:16801  amount */\n      dup3\n        /* \"contracts/usdt.sol\":16778:16802  _totalSupply.add(amount) */\n      0xffffffff\n        /* \"contracts/usdt.sol\":16778:16794  _totalSupply.add */\n      tag_112\n        /* \"contracts/usdt.sol\":16778:16802  _totalSupply.add(amount) */\n      and\n      jump\t// in\n    tag_172:\n        /* \"contracts/usdt.sol\":16763:16775  _totalSupply */\n      0x03\n        /* \"contracts/usdt.sol\":16763:16802  _totalSupply = _totalSupply.add(amount) */\n      sstore\n      sub(shl(0xa0, 0x01), 0x01)\n        /* \"contracts/usdt.sol\":16829:16847  _balances[account] */\n      dup3\n      and\n      0x00\n      swap1\n      dup2\n      mstore\n        /* \"contracts/usdt.sol\":16829:16838  _balances */\n      0x01\n        /* \"contracts/usdt.sol\":16829:16847  _balances[account] */\n      0x20\n      mstore\n      0x40\n      swap1\n      keccak256\n      sload\n        /* \"contracts/usdt.sol\":16829:16859  _balances[account].add(amount) */\n      tag_173\n      swap1\n        /* \"contracts/usdt.sol\":16852:16858  amount */\n      dup3\n        /* \"contracts/usdt.sol\":16829:16859  _balances[account].add(amount) */\n      0xffffffff\n        /* \"contracts/usdt.sol\":16829:16851  _balances[account].add */\n      tag_112\n        /* \"contracts/usdt.sol\":16829:16859  _balances[account].add(amount) */\n      and\n      jump\t// in\n    tag_173:\n      sub(shl(0xa0, 0x01), 0x01)\n        /* \"contracts/usdt.sol\":16808:16826  _balances[account] */\n      dup4\n      and\n      0x00\n      dup2\n      dup2\n      mstore\n        /* \"contracts/usdt.sol\":16808:16817  _balances */\n      0x01\n        /* \"contracts/usdt.sol\":16808:16826  _balances[account] */\n      0x20\n      swap1\n      dup2\n      mstore\n      0x40\n      dup1\n      dup4\n      keccak256\n        /* \"contracts/usdt.sol\":16808:16859  _balances[account] = _balances[account].add(amount) */\n      swap5\n      swap1\n      swap5\n      sstore\n        /* \"contracts/usdt.sol\":16870:16907  Transfer(address(0), account, amount) */\n      dup4\n      mload\n      dup6\n      dup2\n      mstore\n      swap4\n      mload\n        /* \"contracts/usdt.sol\":16808:16826  _balances[account] */\n      swap3\n      swap4\n      swap2\n      swap3\n        /* \"contracts/usdt.sol\":16870:16907  Transfer(address(0), account, amount) */\n      0xddf252ad1be2c89b69c2b068fc378daa952ba7f163c4a11628f55a4df523b3ef\n      swap3\n      dup2\n      swap1\n      sub\n      swap1\n      swap2\n      add\n      swap1\n      log3\n        /* \"contracts/usdt.sol\":16629:16912  function _mint(address account, uint256 amount) internal {... */\n      pop\n      pop\n      jump\t// out\n        /* \"contracts/usdt.sol\":10865:11076  function _transferOwnership(address newOwner) internal {... */\n    tag_152:\n      sub(shl(0xa0, 0x01), 0x01)\n        /* \"contracts/usdt.sol\":10934:10956  newOwner != address(0) */\n      dup2\n      and\n        /* \"contracts/usdt.sol\":10926:10999  require(newOwner != address(0), \"Ownable: new owner is the zero address\") */\n      tag_175\n      jumpi\n      mload(0x40)\n      shl(0xe5, 0x461bcd)\n      dup2\n      mstore\n      0x04\n      add\n      dup1\n      dup1\n      0x20\n      add\n      dup3\n      dup2\n      sub\n      dup3\n      mstore\n      0x26\n      dup2\n      mstore\n      0x20\n      add\n      dup1\n      data_245f15ff17f551913a7a18385165551503906a406f905ac1c2437281a7cd0cfe\n      0x26\n      swap2\n      codecopy\n      0x40\n      add\n      swap2\n      pop\n      pop\n      mload(0x40)\n      dup1\n      swap2\n      sub\n      swap1\n      revert\n    tag_175:\n        /* \"contracts/usdt.sol\":11031:11037  _owner */\n      0x00\n      dup1\n      sload\n        /* \"contracts/usdt.sol\":11010:11048  OwnershipTransferred(_owner, newOwner) */\n      mload(0x40)\n      sub(shl(0xa0, 0x01), 0x01)\n      dup1\n      dup6\n      and\n      swap4\n        /* \"contracts/usdt.sol\":11031:11037  _owner */\n      swap3\n      and\n      swap2\n        /* \"contracts/usdt.sol\":11010:11048  OwnershipTransferred(_owner, newOwner) */\n      0x8be0079c531659141344cd1fd0a4f28419497f9722a3daafe3b4186f6b6457e0\n      swap2\n      log3\n        /* \"contracts/usdt.sol\":11054:11060  _owner */\n      0x00\n        /* \"contracts/usdt.sol\":11054:11071  _owner = newOwner */\n      dup1\n      sload\n      not(sub(shl(0xa0, 0x01), 0x01))\n      and\n      sub(shl(0xa0, 0x01), 0x01)\n      swap3\n      swap1\n      swap3\n      and\n      swap2\n      swap1\n      swap2\n      or\n      swap1\n      sstore\n        /* \"contracts/usdt.sol\":10865:11076  function _transferOwnership(address newOwner) internal {... */\n      jump\t// out\n    stop\n    data_0ae587bda794751604922be67654f7ce009e430d2fb0a0638a0adf55cced3d54 555344543a207472616e7366657220616d6f756e7420657863656564732062616c616e6365\n    data_209244f047a8224dd09938f43ca844bf644f39b7061501ffe1cc3ce9909b330b 555344543a2064656372656173656420616c6c6f77616e63652062656c6f77207a65726f\n    data_245f15ff17f551913a7a18385165551503906a406f905ac1c2437281a7cd0cfe 4f776e61626c653a206e6577206f776e657220697320746865207a65726f2061646472657373\n    data_423f148df64af2854c983cfa14596dfe53761b85317edf4f394d9416b513853b 555344543a207472616e7366657220746f20746865207a65726f2061646472657373\n    data_46b92c107683bd4bebb0fe39ab57ec138766b4510ca1e67d04027785004b14f6 555344543a20617070726f76652066726f6d20746865207a65726f2061646472657373\n    data_48762184e6cc81b01f1cf7132221fcca5eb3c474c8add2ea70000c20f5565b7e 555344543a207472616e7366657220616d6f756e74206578636565647320616c6c6f77616e6365\n    data_adbc321b816a81a31e241db77c10a77dd37dbe8d1dd85d65bc5d681f7779acf4 555344543a20617070726f766520746f20746865207a65726f2061646472657373\n    data_b47312614118ca974cd1cb0785cf101003663749b22596bc8e7ea6ce64a4aa76 555344543a207472616e736665722066726f6d20746865207a65726f2061646472657373\n\n    auxdata: 0xa265627a7a723158201c3b3c9633bc2ede8cd5b63deca7202847053c043869cd57fafbcbcc7403a9fa64736f6c63430005100032\n}\n",
				"bytecode": {
					"linkReferences": {},
					"object": "60806040523480156200001157600080fd5b506000620000276001600160e01b036200014016565b600080546001600160a01b0319166001600160a01b0383169081178255604051929350917f8be0079c531659141344cd1fd0a4f28419497f9722a3daafe3b4186f6b6457e0908290a35060408051808201909152600a808252692aa9a22a102a37b5b2b760b11b6020909201918252620000a49160069162000145565b50604080518082019091526004808252631554d11560e21b6020909201918252620000d29160059162000145565b506004805460ff191660121790556a52b7d2dcc80cd2e40000006003819055336000818152600160209081526040808320859055805194855251929391927fddf252ad1be2c89b69c2b068fc378daa952ba7f163c4a11628f55a4df523b3ef9281900390910190a3620001e7565b335b90565b828054600181600116156101000203166002900490600052602060002090601f016020900481019282601f106200018857805160ff1916838001178555620001b8565b82800160010185558215620001b8579182015b82811115620001b85782518255916020019190600101906200019b565b50620001c6929150620001ca565b5090565b6200014291905b80821115620001c65760008155600101620001d1565b610f7a80620001f76000396000f3fe608060405234801561001057600080fd5b50600436106101215760003560e01c8063893d20e8116100ad578063a9059cbb11610071578063a9059cbb14610332578063b09f12661461035e578063d28d885214610366578063dd62ed3e1461036e578063f2fde38b1461039c57610121565b8063893d20e8146102b55780638da5cb5b146102d957806395d89b41146102e1578063a0712d68146102e9578063a457c2d71461030657610121565b8063313ce567116100f4578063313ce5671461023357806332424aa31461023b578063395093511461025957806370a0823114610285578063715018a6146102ab57610121565b806306fdde0314610126578063095ea7b3146101a357806318160ddd146101e357806323b872dd146101fd575b600080fd5b61012e6103c2565b6040805160208082528351818301528351919283929083019185019080838360005b83811015610168578181015183820152602001610150565b50505050905090810190601f1680156101955780820380516001836020036101000a031916815260200191505b509250505060405180910390f35b6101cf600480360360408110156101b957600080fd5b506001600160a01b038135169060200135610458565b604080519115158252519081900360200190f35b6101eb610475565b60408051918252519081900360200190f35b6101cf6004803603606081101561021357600080fd5b506001600160a01b0381358116916020810135909116906040013561047b565b6101eb610508565b610243610511565b6040805160ff9092168252519081900360200190f35b6101cf6004803603604081101561026f57600080fd5b506001600160a01b03813516906020013561051a565b6101eb6004803603602081101561029b57600080fd5b50356001600160a01b031661056e565b6102b3610589565b005b6102bd61063d565b604080516001600160a01b039092168252519081900360200190f35b6102bd61064c565b61012e61065b565b6101cf600480360360208110156102ff57600080fd5b50356106bc565b6101cf6004803603604081101561031c57600080fd5b506001600160a01b038135169060200135610741565b6101cf6004803603604081101561034857600080fd5b506001600160a01b0381351690602001356107af565b61012e6107c3565b61012e610851565b6101eb6004803603604081101561038457600080fd5b506001600160a01b03813581169160200135166108ac565b6102b3600480360360208110156103b257600080fd5b50356001600160a01b03166108d7565b60068054604080516020601f600260001961010060018816150201909516949094049384018190048102820181019092528281526060939092909183018282801561044e5780601f106104235761010080835404028352916020019161044e565b820191906000526020600020905b81548152906001019060200180831161043157829003601f168201915b5050505050905090565b600061046c61046561094d565b8484610951565b50600192915050565b60035490565b6000610488848484610a3d565b6104fe8461049461094d565b6104f985604051806060016040528060278152602001610eda602791396001600160a01b038a166000908152600260205260408120906104d261094d565b6001600160a01b03168152602081019190915260400160002054919063ffffffff610b9b16565b610951565b5060019392505050565b60045460ff1690565b60045460ff1681565b600061046c61052761094d565b846104f9856002600061053861094d565b6001600160a01b03908116825260208083019390935260409182016000908120918c16815292529020549063ffffffff610c3216565b6001600160a01b031660009081526001602052604090205490565b61059161094d565b6000546001600160a01b039081169116146105f3576040805162461bcd60e51b815260206004820181905260248201527f4f776e61626c653a2063616c6c6572206973206e6f7420746865206f776e6572604482015290519081900360640190fd5b600080546040516001600160a01b03909116907f8be0079c531659141344cd1fd0a4f28419497f9722a3daafe3b4186f6b6457e0908390a3600080546001600160a01b0319169055565b600061064761064c565b905090565b6000546001600160a01b031690565b60058054604080516020601f600260001961010060018816150201909516949094049384018190048102820181019092528281526060939092909183018282801561044e5780601f106104235761010080835404028352916020019161044e565b60006106c661094d565b6000546001600160a01b03908116911614610728576040805162461bcd60e51b815260206004820181905260248201527f4f776e61626c653a2063616c6c6572206973206e6f7420746865206f776e6572604482015290519081900360640190fd5b61073961073361094d565b83610c93565b506001919050565b600061046c61074e61094d565b846104f985604051806060016040528060248152602001610e4b602491396002600061077861094d565b6001600160a01b03908116825260208083019390935260409182016000908120918d1681529252902054919063ffffffff610b9b16565b600061046c6107bc61094d565b8484610a3d565b6005805460408051602060026001851615610100026000190190941693909304601f810184900484028201840190925281815292918301828280156108495780601f1061081e57610100808354040283529160200191610849565b820191906000526020600020905b81548152906001019060200180831161082c57829003601f168201915b505050505081565b6006805460408051602060026001851615610100026000190190941693909304601f810184900484028201840190925281815292918301828280156108495780601f1061081e57610100808354040283529160200191610849565b6001600160a01b03918216600090815260026020908152604080832093909416825291909152205490565b6108df61094d565b6000546001600160a01b03908116911614610941576040805162461bcd60e51b815260206004820181905260248201527f4f776e61626c653a2063616c6c6572206973206e6f7420746865206f776e6572604482015290519081900360640190fd5b61094a81610d85565b50565b3390565b6001600160a01b0383166109965760405162461bcd60e51b8152600401808060200182810382526023815260200180610eb76023913960400191505060405180910390fd5b6001600160a01b0382166109db5760405162461bcd60e51b8152600401808060200182810382526021815260200180610f016021913960400191505060405180910390fd5b6001600160a01b03808416600081815260026020908152604080832094871680845294825291829020859055815185815291517f8c5be1e5ebec7d5bd14f71427d1e84f3dd0314c0f7b2291e5b200ac8c7c3b9259281900390910190a3505050565b6001600160a01b038316610a825760405162461bcd60e51b8152600401808060200182810382526024815260200180610f226024913960400191505060405180910390fd5b6001600160a01b038216610ac75760405162461bcd60e51b8152600401808060200182810382526022815260200180610e956022913960400191505060405180910390fd5b610b0a81604051806060016040528060258152602001610e26602591396001600160a01b038616600090815260016020526040902054919063ffffffff610b9b16565b6001600160a01b038085166000908152600160205260408082209390935590841681522054610b3f908263ffffffff610c3216565b6001600160a01b0380841660008181526001602090815260409182902094909455805185815290519193928716927fddf252ad1be2c89b69c2b068fc378daa952ba7f163c4a11628f55a4df523b3ef92918290030190a3505050565b60008184841115610c2a5760405162461bcd60e51b81526004018080602001828103825283818151815260200191508051906020019080838360005b83811015610bef578181015183820152602001610bd7565b50505050905090810190601f168015610c1c5780820380516001836020036101000a031916815260200191505b509250505060405180910390fd5b505050900390565b600082820183811015610c8c576040805162461bcd60e51b815260206004820152601b60248201527f536166654d6174683a206164646974696f6e206f766572666c6f770000000000604482015290519081900360640190fd5b9392505050565b6001600160a01b038216610cee576040805162461bcd60e51b815260206004820152601e60248201527f555344543a206d696e7420746f20746865207a65726f20616464726573730000604482015290519081900360640190fd5b600354610d01908263ffffffff610c3216565b6003556001600160a01b038216600090815260016020526040902054610d2d908263ffffffff610c3216565b6001600160a01b03831660008181526001602090815260408083209490945583518581529351929391927fddf252ad1be2c89b69c2b068fc378daa952ba7f163c4a11628f55a4df523b3ef9281900390910190a35050565b6001600160a01b038116610dca5760405162461bcd60e51b8152600401808060200182810382526026815260200180610e6f6026913960400191505060405180910390fd5b600080546040516001600160a01b03808516939216917f8be0079c531659141344cd1fd0a4f28419497f9722a3daafe3b4186f6b6457e091a3600080546001600160a01b0319166001600160a01b039290921691909117905556fe555344543a207472616e7366657220616d6f756e7420657863656564732062616c616e6365555344543a2064656372656173656420616c6c6f77616e63652062656c6f77207a65726f4f776e61626c653a206e6577206f776e657220697320746865207a65726f2061646472657373555344543a207472616e7366657220746f20746865207a65726f2061646472657373555344543a20617070726f76652066726f6d20746865207a65726f2061646472657373555344543a207472616e7366657220616d6f756e74206578636565647320616c6c6f77616e6365555344543a20617070726f766520746f20746865207a65726f2061646472657373555344543a207472616e736665722066726f6d20746865207a65726f2061646472657373a265627a7a723158201c3b3c9633bc2ede8cd5b63deca7202847053c043869cd57fafbcbcc7403a9fa64736f6c63430005100032",
					"opcodes": "PUSH1 0x80 PUSH1 0x40 MSTORE CALLVALUE DUP1 ISZERO PUSH3 0x11 JUMPI PUSH1 0x0 DUP1 REVERT JUMPDEST POP PUSH1 0x0 PUSH3 0x27 PUSH1 0x1 PUSH1 0x1 PUSH1 0xE0 SHL SUB PUSH3 0x140 AND JUMP JUMPDEST PUSH1 0x0 DUP1 SLOAD PUSH1 0x1 PUSH1 0x1 PUSH1 0xA0 SHL SUB NOT AND PUSH1 0x1 PUSH1 0x1 PUSH1 0xA0 SHL SUB DUP4 AND SWAP1 DUP2 OR DUP3 SSTORE PUSH1 0x40 MLOAD SWAP3 SWAP4 POP SWAP2 PUSH32 0x8BE0079C531659141344CD1FD0A4F28419497F9722A3DAAFE3B4186F6B6457E0 SWAP1 DUP3 SWAP1 LOG3 POP PUSH1 0x40 DUP1 MLOAD DUP1 DUP3 ADD SWAP1 SWAP2 MSTORE PUSH1 0xA DUP1 DUP3 MSTORE PUSH10 0x2AA9A22A102A37B5B2B7 PUSH1 0xB1 SHL PUSH1 0x20 SWAP1 SWAP3 ADD SWAP2 DUP3 MSTORE PUSH3 0xA4 SWAP2 PUSH1 0x6 SWAP2 PUSH3 0x145 JUMP JUMPDEST POP PUSH1 0x40 DUP1 MLOAD DUP1 DUP3 ADD SWAP1 SWAP2 MSTORE PUSH1 0x4 DUP1 DUP3 MSTORE PUSH4 0x1554D115 PUSH1 0xE2 SHL PUSH1 0x20 SWAP1 SWAP3 ADD SWAP2 DUP3 MSTORE PUSH3 0xD2 SWAP2 PUSH1 0x5 SWAP2 PUSH3 0x145 JUMP JUMPDEST POP PUSH1 0x4 DUP1 SLOAD PUSH1 0xFF NOT AND PUSH1 0x12 OR SWAP1 SSTORE PUSH11 0x52B7D2DCC80CD2E4000000 PUSH1 0x3 DUP2 SWAP1 SSTORE CALLER PUSH1 0x0 DUP2 DUP2 MSTORE PUSH1 0x1 PUSH1 0x20 SWAP1 DUP2 MSTORE PUSH1 0x40 DUP1 DUP4 KECCAK256 DUP6 SWAP1 SSTORE DUP1 MLOAD SWAP5 DUP6 MSTORE MLOAD SWAP3 SWAP4 SWAP2 SWAP3 PUSH32 0xDDF252AD1BE2C89B69C2B068FC378DAA952BA7F163C4A11628F55A4DF523B3EF SWAP3 DUP2 SWAP1 SUB SWAP1 SWAP2 ADD SWAP1 LOG3 PUSH3 0x1E7 JUMP JUMPDEST CALLER JUMPDEST SWAP1 JUMP JUMPDEST DUP3 DUP1 SLOAD PUSH1 0x1 DUP2 PUSH1 0x1 AND ISZERO PUSH2 0x100 MUL SUB AND PUSH1 0x2 SWAP1 DIV SWAP1 PUSH1 0x0 MSTORE PUSH1 0x20 PUSH1 0x0 KECCAK256 SWAP1 PUSH1 0x1F ADD PUSH1 0x20 SWAP1 DIV DUP2 ADD SWAP3 DUP3 PUSH1 0x1F LT PUSH3 0x188 JUMPI DUP1 MLOAD PUSH1 0xFF NOT AND DUP4 DUP1 ADD OR DUP6 SSTORE PUSH3 0x1B8 JUMP JUMPDEST DUP3 DUP1 ADD PUSH1 0x1 ADD DUP6 SSTORE DUP3 ISZERO PUSH3 0x1B8 JUMPI SWAP2 DUP3 ADD JUMPDEST DUP3 DUP2 GT ISZERO PUSH3 0x1B8 JUMPI DUP3 MLOAD DUP3 SSTORE SWAP2 PUSH1 0x20 ADD SWAP2 SWAP1 PUSH1 0x1 ADD SWAP1 PUSH3 0x19B JUMP JUMPDEST POP PUSH3 0x1C6 SWAP3 SWAP2 POP PUSH3 0x1CA JUMP JUMPDEST POP SWAP1 JUMP JUMPDEST PUSH3 0x142 SWAP2 SWAP1 JUMPDEST DUP1 DUP3 GT ISZERO PUSH3 0x1C6 JUMPI PUSH1 0x0 DUP2 SSTORE PUSH1 0x1 ADD PUSH3 0x1D1 JUMP JUMPDEST PUSH2 0xF7A DUP1 PUSH3 0x1F7 PUSH1 0x0 CODECOPY PUSH1 0x0 RETURN INVALID PUSH1 0x80 PUSH1 0x40 MSTORE CALLVALUE DUP1 ISZERO PUSH2 0x10 JUMPI PUSH1 0x0 DUP1 REVERT JUMPDEST POP PUSH1 0x4 CALLDATASIZE LT PUSH2 0x121 JUMPI PUSH1 0x0 CALLDATALOAD PUSH1 0xE0 SHR DUP1 PUSH4 0x893D20E8 GT PUSH2 0xAD JUMPI DUP1 PUSH4 0xA9059CBB GT PUSH2 0x71 JUMPI DUP1 PUSH4 0xA9059CBB EQ PUSH2 0x332 JUMPI DUP1 PUSH4 0xB09F1266 EQ PUSH2 0x35E JUMPI DUP1 PUSH4 0xD28D8852 EQ PUSH2 0x366 JUMPI DUP1 PUSH4 0xDD62ED3E EQ PUSH2 0x36E JUMPI DUP1 PUSH4 0xF2FDE38B EQ PUSH2 0x39C JUMPI PUSH2 0x121 JUMP JUMPDEST DUP1 PUSH4 0x893D20E8 EQ PUSH2 0x2B5 JUMPI DUP1 PUSH4 0x8DA5CB5B EQ PUSH2 0x2D9 JUMPI DUP1 PUSH4 0x95D89B41 EQ PUSH2 0x2E1 JUMPI DUP1 PUSH4 0xA0712D68 EQ PUSH2 0x2E9 JUMPI DUP1 PUSH4 0xA457C2D7 EQ PUSH2 0x306 JUMPI PUSH2 0x121 JUMP JUMPDEST DUP1 PUSH4 0x313CE567 GT PUSH2 0xF4 JUMPI DUP1 PUSH4 0x313CE567 EQ PUSH2 0x233 JUMPI DUP1 PUSH4 0x32424AA3 EQ PUSH2 0x23B JUMPI DUP1 PUSH4 0x39509351 EQ PUSH2 0x259 JUMPI DUP1 PUSH4 0x70A08231 EQ PUSH2 0x285 JUMPI DUP1 PUSH4 0x715018A6 EQ PUSH2 0x2AB JUMPI PUSH2 0x121 JUMP JUMPDEST DUP1 PUSH4 0x6FDDE03 EQ PUSH2 0x126 JUMPI DUP1 PUSH4 0x95EA7B3 EQ PUSH2 0x1A3 JUMPI DUP1 PUSH4 0x18160DDD EQ PUSH2 0x1E3 JUMPI DUP1 PUSH4 0x23B872DD EQ PUSH2 0x1FD JUMPI JUMPDEST PUSH1 0x0 DUP1 REVERT JUMPDEST PUSH2 0x12E PUSH2 0x3C2 JUMP JUMPDEST PUSH1 0x40 DUP1 MLOAD PUSH1 0x20 DUP1 DUP3 MSTORE DUP4 MLOAD DUP2 DUP4 ADD MSTORE DUP4 MLOAD SWAP2 SWAP3 DUP4 SWAP3 SWAP1 DUP4 ADD SWAP2 DUP6 ADD SWAP1 DUP1 DUP4 DUP4 PUSH1 0x0 JUMPDEST DUP4 DUP2 LT ISZERO PUSH2 0x168 JUMPI DUP2 DUP2 ADD MLOAD DUP4 DUP3 ADD MSTORE PUSH1 0x20 ADD PUSH2 0x150 JUMP JUMPDEST POP POP POP POP SWAP1 POP SWAP1 DUP2 ADD SWAP1 PUSH1 0x1F AND DUP1 ISZERO PUSH2 0x195 JUMPI DUP1 DUP3 SUB DUP1 MLOAD PUSH1 0x1 DUP4 PUSH1 0x20 SUB PUSH2 0x100 EXP SUB NOT AND DUP2 MSTORE PUSH1 0x20 ADD SWAP2 POP JUMPDEST POP SWAP3 POP POP POP PUSH1 0x40 MLOAD DUP1 SWAP2 SUB SWAP1 RETURN JUMPDEST PUSH2 0x1CF PUSH1 0x4 DUP1 CALLDATASIZE SUB PUSH1 0x40 DUP2 LT ISZERO PUSH2 0x1B9 JUMPI PUSH1 0x0 DUP1 REVERT JUMPDEST POP PUSH1 0x1 PUSH1 0x1 PUSH1 0xA0 SHL SUB DUP2 CALLDATALOAD AND SWAP1 PUSH1 0x20 ADD CALLDATALOAD PUSH2 0x458 JUMP JUMPDEST PUSH1 0x40 DUP1 MLOAD SWAP2 ISZERO ISZERO DUP3 MSTORE MLOAD SWAP1 DUP2 SWAP1 SUB PUSH1 0x20 ADD SWAP1 RETURN JUMPDEST PUSH2 0x1EB PUSH2 0x475 JUMP JUMPDEST PUSH1 0x40 DUP1 MLOAD SWAP2 DUP3 MSTORE MLOAD SWAP1 DUP2 SWAP1 SUB PUSH1 0x20 ADD SWAP1 RETURN JUMPDEST PUSH2 0x1CF PUSH1 0x4 DUP1 CALLDATASIZE SUB PUSH1 0x60 DUP2 LT ISZERO PUSH2 0x213 JUMPI PUSH1 0x0 DUP1 REVERT JUMPDEST POP PUSH1 0x1 PUSH1 0x1 PUSH1 0xA0 SHL SUB DUP2 CALLDATALOAD DUP2 AND SWAP2 PUSH1 0x20 DUP2 ADD CALLDATALOAD SWAP1 SWAP2 AND SWAP1 PUSH1 0x40 ADD CALLDATALOAD PUSH2 0x47B JUMP JUMPDEST PUSH2 0x1EB PUSH2 0x508 JUMP JUMPDEST PUSH2 0x243 PUSH2 0x511 JUMP JUMPDEST PUSH1 0x40 DUP1 MLOAD PUSH1 0xFF SWAP1 SWAP3 AND DUP3 MSTORE MLOAD SWAP1 DUP2 SWAP1 SUB PUSH1 0x20 ADD SWAP1 RETURN JUMPDEST PUSH2 0x1CF PUSH1 0x4 DUP1 CALLDATASIZE SUB PUSH1 0x40 DUP2 LT ISZERO PUSH2 0x26F JUMPI PUSH1 0x0 DUP1 REVERT JUMPDEST POP PUSH1 0x1 PUSH1 0x1 PUSH1 0xA0 SHL SUB DUP2 CALLDATALOAD AND SWAP1 PUSH1 0x20 ADD CALLDATALOAD PUSH2 0x51A JUMP JUMPDEST PUSH2 0x1EB PUSH1 0x4 DUP1 CALLDATASIZE SUB PUSH1 0x20 DUP2 LT ISZERO PUSH2 0x29B JUMPI PUSH1 0x0 DUP1 REVERT JUMPDEST POP CALLDATALOAD PUSH1 0x1 PUSH1 0x1 PUSH1 0xA0 SHL SUB AND PUSH2 0x56E JUMP JUMPDEST PUSH2 0x2B3 PUSH2 0x589 JUMP JUMPDEST STOP JUMPDEST PUSH2 0x2BD PUSH2 0x63D JUMP JUMPDEST PUSH1 0x40 DUP1 MLOAD PUSH1 0x1 PUSH1 0x1 PUSH1 0xA0 SHL SUB SWAP1 SWAP3 AND DUP3 MSTORE MLOAD SWAP1 DUP2 SWAP1 SUB PUSH1 0x20 ADD SWAP1 RETURN JUMPDEST PUSH2 0x2BD PUSH2 0x64C JUMP JUMPDEST PUSH2 0x12E PUSH2 0x65B JUMP JUMPDEST PUSH2 0x1CF PUSH1 0x4 DUP1 CALLDATASIZE SUB PUSH1 0x20 DUP2 LT ISZERO PUSH2 0x2FF JUMPI PUSH1 0x0 DUP1 REVERT JUMPDEST POP CALLDATALOAD PUSH2 0x6BC JUMP JUMPDEST PUSH2 0x1CF PUSH1 0x4 DUP1 CALLDATASIZE SUB PUSH1 0x40 DUP2 LT ISZERO PUSH2 0x31C JUMPI PUSH1 0x0 DUP1 REVERT JUMPDEST POP PUSH1 0x1 PUSH1 0x1 PUSH1 0xA0 SHL SUB DUP2 CALLDATALOAD AND SWAP1 PUSH1 0x20 ADD CALLDATALOAD PUSH2 0x741 JUMP JUMPDEST PUSH2 0x1CF PUSH1 0x4 DUP1 CALLDATASIZE SUB PUSH1 0x40 DUP2 LT ISZERO PUSH2 0x348 JUMPI PUSH1 0x0 DUP1 REVERT JUMPDEST POP PUSH1 0x1 PUSH1 0x1 PUSH1 0xA0 SHL SUB DUP2 CALLDATALOAD AND SWAP1 PUSH1 0x20 ADD CALLDATALOAD PUSH2 0x7AF JUMP JUMPDEST PUSH2 0x12E PUSH2 0x7C3 JUMP JUMPDEST PUSH2 0x12E PUSH2 0x851 JUMP JUMPDEST PUSH2 0x1EB PUSH1 0x4 DUP1 CALLDATASIZE SUB PUSH1 0x40 DUP2 LT ISZERO PUSH2 0x384 JUMPI PUSH1 0x0 DUP1 REVERT JUMPDEST POP PUSH1 0x1 PUSH1 0x1 PUSH1 0xA0 SHL SUB DUP2 CALLDATALOAD DUP2 AND SWAP2 PUSH1 0x20 ADD CALLDATALOAD AND PUSH2 0x8AC JUMP JUMPDEST PUSH2 0x2B3 PUSH1 0x4 DUP1 CALLDATASIZE SUB PUSH1 0x20 DUP2 LT ISZERO PUSH2 0x3B2 JUMPI PUSH1 0x0 DUP1 REVERT JUMPDEST POP CALLDATALOAD PUSH1 0x1 PUSH1 0x1 PUSH1 0xA0 SHL SUB AND PUSH2 0x8D7 JUMP JUMPDEST PUSH1 0x6 DUP1 SLOAD PUSH1 0x40 DUP1 MLOAD PUSH1 0x20 PUSH1 0x1F PUSH1 0x2 PUSH1 0x0 NOT PUSH2 0x100 PUSH1 0x1 DUP9 AND ISZERO MUL ADD SWAP1 SWAP6 AND SWAP5 SWAP1 SWAP5 DIV SWAP4 DUP5 ADD DUP2 SWAP1 DIV DUP2 MUL DUP3 ADD DUP2 ADD SWAP1 SWAP3 MSTORE DUP3 DUP2 MSTORE PUSH1 0x60 SWAP4 SWAP1 SWAP3 SWAP1 SWAP2 DUP4 ADD DUP3 DUP3 DUP1 ISZERO PUSH2 0x44E JUMPI DUP1 PUSH1 0x1F LT PUSH2 0x423 JUMPI PUSH2 0x100 DUP1 DUP4 SLOAD DIV MUL DUP4 MSTORE SWAP2 PUSH1 0x20 ADD SWAP2 PUSH2 0x44E JUMP JUMPDEST DUP3 ADD SWAP2 SWAP1 PUSH1 0x0 MSTORE PUSH1 0x20 PUSH1 0x0 KECCAK256 SWAP1 JUMPDEST DUP2 SLOAD DUP2 MSTORE SWAP1 PUSH1 0x1 ADD SWAP1 PUSH1 0x20 ADD DUP1 DUP4 GT PUSH2 0x431 JUMPI DUP3 SWAP1 SUB PUSH1 0x1F AND DUP3 ADD SWAP2 JUMPDEST POP POP POP POP POP SWAP1 POP SWAP1 JUMP JUMPDEST PUSH1 0x0 PUSH2 0x46C PUSH2 0x465 PUSH2 0x94D JUMP JUMPDEST DUP5 DUP5 PUSH2 0x951 JUMP JUMPDEST POP PUSH1 0x1 SWAP3 SWAP2 POP POP JUMP JUMPDEST PUSH1 0x3 SLOAD SWAP1 JUMP JUMPDEST PUSH1 0x0 PUSH2 0x488 DUP5 DUP5 DUP5 PUSH2 0xA3D JUMP JUMPDEST PUSH2 0x4FE DUP5 PUSH2 0x494 PUSH2 0x94D JUMP JUMPDEST PUSH2 0x4F9 DUP6 PUSH1 0x40 MLOAD DUP1 PUSH1 0x60 ADD PUSH1 0x40 MSTORE DUP1 PUSH1 0x27 DUP2 MSTORE PUSH1 0x20 ADD PUSH2 0xEDA PUSH1 0x27 SWAP2 CODECOPY PUSH1 0x1 PUSH1 0x1 PUSH1 0xA0 SHL SUB DUP11 AND PUSH1 0x0 SWAP1 DUP2 MSTORE PUSH1 0x2 PUSH1 0x20 MSTORE PUSH1 0x40 DUP2 KECCAK256 SWAP1 PUSH2 0x4D2 PUSH2 0x94D JUMP JUMPDEST PUSH1 0x1 PUSH1 0x1 PUSH1 0xA0 SHL SUB AND DUP2 MSTORE PUSH1 0x20 DUP2 ADD SWAP2 SWAP1 SWAP2 MSTORE PUSH1 0x40 ADD PUSH1 0x0 KECCAK256 SLOAD SWAP2 SWAP1 PUSH4 0xFFFFFFFF PUSH2 0xB9B AND JUMP JUMPDEST PUSH2 0x951 JUMP JUMPDEST POP PUSH1 0x1 SWAP4 SWAP3 POP POP POP JUMP JUMPDEST PUSH1 0x4 SLOAD PUSH1 0xFF AND SWAP1 JUMP JUMPDEST PUSH1 0x4 SLOAD PUSH1 0xFF AND DUP2 JUMP JUMPDEST PUSH1 0x0 PUSH2 0x46C PUSH2 0x527 PUSH2 0x94D JUMP JUMPDEST DUP5 PUSH2 0x4F9 DUP6 PUSH1 0x2 PUSH1 0x0 PUSH2 0x538 PUSH2 0x94D JUMP JUMPDEST PUSH1 0x1 PUSH1 0x1 PUSH1 0xA0 SHL SUB SWAP1 DUP2 AND DUP3 MSTORE PUSH1 0x20 DUP1 DUP4 ADD SWAP4 SWAP1 SWAP4 MSTORE PUSH1 0x40 SWAP2 DUP3 ADD PUSH1 0x0 SWAP1 DUP2 KECCAK256 SWAP2 DUP13 AND DUP2 MSTORE SWAP3 MSTORE SWAP1 KECCAK256 SLOAD SWAP1 PUSH4 0xFFFFFFFF PUSH2 0xC32 AND JUMP JUMPDEST PUSH1 0x1 PUSH1 0x1 PUSH1 0xA0 SHL SUB AND PUSH1 0x0 SWAP1 DUP2 MSTORE PUSH1 0x1 PUSH1 0x20 MSTORE PUSH1 0x40 SWAP1 KECCAK256 SLOAD SWAP1 JUMP JUMPDEST PUSH2 0x591 PUSH2 0x94D JUMP JUMPDEST PUSH1 0x0 SLOAD PUSH1 0x1 PUSH1 0x1 PUSH1 0xA0 SHL SUB SWAP1 DUP2 AND SWAP2 AND EQ PUSH2 0x5F3 JUMPI PUSH1 0x40 DUP1 MLOAD PUSH3 0x461BCD PUSH1 0xE5 SHL DUP2 MSTORE PUSH1 0x20 PUSH1 0x4 DUP3 ADD DUP2 SWAP1 MSTORE PUSH1 0x24 DUP3 ADD MSTORE PUSH32 0x4F776E61626C653A2063616C6C6572206973206E6F7420746865206F776E6572 PUSH1 0x44 DUP3 ADD MSTORE SWAP1 MLOAD SWAP1 DUP2 SWAP1 SUB PUSH1 0x64 ADD SWAP1 REVERT JUMPDEST PUSH1 0x0 DUP1 SLOAD PUSH1 0x40 MLOAD PUSH1 0x1 PUSH1 0x1 PUSH1 0xA0 SHL SUB SWAP1 SWAP2 AND SWAP1 PUSH32 0x8BE0079C531659141344CD1FD0A4F28419497F9722A3DAAFE3B4186F6B6457E0 SWAP1 DUP4 SWAP1 LOG3 PUSH1 0x0 DUP1 SLOAD PUSH1 0x1 PUSH1 0x1 PUSH1 0xA0 SHL SUB NOT AND SWAP1 SSTORE JUMP JUMPDEST PUSH1 0x0 PUSH2 0x647 PUSH2 0x64C JUMP JUMPDEST SWAP1 POP SWAP1 JUMP JUMPDEST PUSH1 0x0 SLOAD PUSH1 0x1 PUSH1 0x1 PUSH1 0xA0 SHL SUB AND SWAP1 JUMP JUMPDEST PUSH1 0x5 DUP1 SLOAD PUSH1 0x40 DUP1 MLOAD PUSH1 0x20 PUSH1 0x1F PUSH1 0x2 PUSH1 0x0 NOT PUSH2 0x100 PUSH1 0x1 DUP9 AND ISZERO MUL ADD SWAP1 SWAP6 AND SWAP5 SWAP1 SWAP5 DIV SWAP4 DUP5 ADD DUP2 SWAP1 DIV DUP2 MUL DUP3 ADD DUP2 ADD SWAP1 SWAP3 MSTORE DUP3 DUP2 MSTORE PUSH1 0x60 SWAP4 SWAP1 SWAP3 SWAP1 SWAP2 DUP4 ADD DUP3 DUP3 DUP1 ISZERO PUSH2 0x44E JUMPI DUP1 PUSH1 0x1F LT PUSH2 0x423 JUMPI PUSH2 0x100 DUP1 DUP4 SLOAD DIV MUL DUP4 MSTORE SWAP2 PUSH1 0x20 ADD SWAP2 PUSH2 0x44E JUMP JUMPDEST PUSH1 0x0 PUSH2 0x6C6 PUSH2 0x94D JUMP JUMPDEST PUSH1 0x0 SLOAD PUSH1 0x1 PUSH1 0x1 PUSH1 0xA0 SHL SUB SWAP1 DUP2 AND SWAP2 AND EQ PUSH2 0x728 JUMPI PUSH1 0x40 DUP1 MLOAD PUSH3 0x461BCD PUSH1 0xE5 SHL DUP2 MSTORE PUSH1 0x20 PUSH1 0x4 DUP3 ADD DUP2 SWAP1 MSTORE PUSH1 0x24 DUP3 ADD MSTORE PUSH32 0x4F776E61626C653A2063616C6C6572206973206E6F7420746865206F776E6572 PUSH1 0x44 DUP3 ADD MSTORE SWAP1 MLOAD SWAP1 DUP2 SWAP1 SUB PUSH1 0x64 ADD SWAP1 REVERT JUMPDEST PUSH2 0x739 PUSH2 0x733 PUSH2 0x94D JUMP JUMPDEST DUP4 PUSH2 0xC93 JUMP JUMPDEST POP PUSH1 0x1 SWAP2 SWAP1 POP JUMP JUMPDEST PUSH1 0x0 PUSH2 0x46C PUSH2 0x74E PUSH2 0x94D JUMP JUMPDEST DUP5 PUSH2 0x4F9 DUP6 PUSH1 0x40 MLOAD DUP1 PUSH1 0x60 ADD PUSH1 0x40 MSTORE DUP1 PUSH1 0x24 DUP2 MSTORE PUSH1 0x20 ADD PUSH2 0xE4B PUSH1 0x24 SWAP2 CODECOPY PUSH1 0x2 PUSH1 0x0 PUSH2 0x778 PUSH2 0x94D JUMP JUMPDEST PUSH1 0x1 PUSH1 0x1 PUSH1 0xA0 SHL SUB SWAP1 DUP2 AND DUP3 MSTORE PUSH1 0x20 DUP1 DUP4 ADD SWAP4 SWAP1 SWAP4 MSTORE PUSH1 0x40 SWAP2 DUP3 ADD PUSH1 0x0 SWAP1 DUP2 KECCAK256 SWAP2 DUP14 AND DUP2 MSTORE SWAP3 MSTORE SWAP1 KECCAK256 SLOAD SWAP2 SWAP1 PUSH4 0xFFFFFFFF PUSH2 0xB9B AND JUMP JUMPDEST PUSH1 0x0 PUSH2 0x46C PUSH2 0x7BC PUSH2 0x94D JUMP JUMPDEST DUP5 DUP5 PUSH2 0xA3D JUMP JUMPDEST PUSH1 0x5 DUP1 SLOAD PUSH1 0x40 DUP1 MLOAD PUSH1 0x20 PUSH1 0x2 PUSH1 0x1 DUP6 AND ISZERO PUSH2 0x100 MUL PUSH1 0x0 NOT ADD SWAP1 SWAP5 AND SWAP4 SWAP1 SWAP4 DIV PUSH1 0x1F DUP2 ADD DUP5 SWAP1 DIV DUP5 MUL DUP3 ADD DUP5 ADD SWAP1 SWAP3 MSTORE DUP2 DUP2 MSTORE SWAP3 SWAP2 DUP4 ADD DUP3 DUP3 DUP1 ISZERO PUSH2 0x849 JUMPI DUP1 PUSH1 0x1F LT PUSH2 0x81E JUMPI PUSH2 0x100 DUP1 DUP4 SLOAD DIV MUL DUP4 MSTORE SWAP2 PUSH1 0x20 ADD SWAP2 PUSH2 0x849 JUMP JUMPDEST DUP3 ADD SWAP2 SWAP1 PUSH1 0x0 MSTORE PUSH1 0x20 PUSH1 0x0 KECCAK256 SWAP1 JUMPDEST DUP2 SLOAD DUP2 MSTORE SWAP1 PUSH1 0x1 ADD SWAP1 PUSH1 0x20 ADD DUP1 DUP4 GT PUSH2 0x82C JUMPI DUP3 SWAP1 SUB PUSH1 0x1F AND DUP3 ADD SWAP2 JUMPDEST POP POP POP POP POP DUP2 JUMP JUMPDEST PUSH1 0x6 DUP1 SLOAD PUSH1 0x40 DUP1 MLOAD PUSH1 0x20 PUSH1 0x2 PUSH1 0x1 DUP6 AND ISZERO PUSH2 0x100 MUL PUSH1 0x0 NOT ADD SWAP1 SWAP5 AND SWAP4 SWAP1 SWAP4 DIV PUSH1 0x1F DUP2 ADD DUP5 SWAP1 DIV DUP5 MUL DUP3 ADD DUP5 ADD SWAP1 SWAP3 MSTORE DUP2 DUP2 MSTORE SWAP3 SWAP2 DUP4 ADD DUP3 DUP3 DUP1 ISZERO PUSH2 0x849 JUMPI DUP1 PUSH1 0x1F LT PUSH2 0x81E JUMPI PUSH2 0x100 DUP1 DUP4 SLOAD DIV MUL DUP4 MSTORE SWAP2 PUSH1 0x20 ADD SWAP2 PUSH2 0x849 JUMP JUMPDEST PUSH1 0x1 PUSH1 0x1 PUSH1 0xA0 SHL SUB SWAP2 DUP3 AND PUSH1 0x0 SWAP1 DUP2 MSTORE PUSH1 0x2 PUSH1 0x20 SWAP1 DUP2 MSTORE PUSH1 0x40 DUP1 DUP4 KECCAK256 SWAP4 SWAP1 SWAP5 AND DUP3 MSTORE SWAP2 SWAP1 SWAP2 MSTORE KECCAK256 SLOAD SWAP1 JUMP JUMPDEST PUSH2 0x8DF PUSH2 0x94D JUMP JUMPDEST PUSH1 0x0 SLOAD PUSH1 0x1 PUSH1 0x1 PUSH1 0xA0 SHL SUB SWAP1 DUP2 AND SWAP2 AND EQ PUSH2 0x941 JUMPI PUSH1 0x40 DUP1 MLOAD PUSH3 0x461BCD PUSH1 0xE5 SHL DUP2 MSTORE PUSH1 0x20 PUSH1 0x4 DUP3 ADD DUP2 SWAP1 MSTORE PUSH1 0x24 DUP3 ADD MSTORE PUSH32 0x4F776E61626C653A2063616C6C6572206973206E6F7420746865206F776E6572 PUSH1 0x44 DUP3 ADD MSTORE SWAP1 MLOAD SWAP1 DUP2 SWAP1 SUB PUSH1 0x64 ADD SWAP1 REVERT JUMPDEST PUSH2 0x94A DUP2 PUSH2 0xD85 JUMP JUMPDEST POP JUMP JUMPDEST CALLER SWAP1 JUMP JUMPDEST PUSH1 0x1 PUSH1 0x1 PUSH1 0xA0 SHL SUB DUP4 AND PUSH2 0x996 JUMPI PUSH1 0x40 MLOAD PUSH3 0x461BCD PUSH1 0xE5 SHL DUP2 MSTORE PUSH1 0x4 ADD DUP1 DUP1 PUSH1 0x20 ADD DUP3 DUP2 SUB DUP3 MSTORE PUSH1 0x23 DUP2 MSTORE PUSH1 0x20 ADD DUP1 PUSH2 0xEB7 PUSH1 0x23 SWAP2 CODECOPY PUSH1 0x40 ADD SWAP2 POP POP PUSH1 0x40 MLOAD DUP1 SWAP2 SUB SWAP1 REVERT JUMPDEST PUSH1 0x1 PUSH1 0x1 PUSH1 0xA0 SHL SUB DUP3 AND PUSH2 0x9DB JUMPI PUSH1 0x40 MLOAD PUSH3 0x461BCD PUSH1 0xE5 SHL DUP2 MSTORE PUSH1 0x4 ADD DUP1 DUP1 PUSH1 0x20 ADD DUP3 DUP2 SUB DUP3 MSTORE PUSH1 0x21 DUP2 MSTORE PUSH1 0x20 ADD DUP1 PUSH2 0xF01 PUSH1 0x21 SWAP2 CODECOPY PUSH1 0x40 ADD SWAP2 POP POP PUSH1 0x40 MLOAD DUP1 SWAP2 SUB SWAP1 REVERT JUMPDEST PUSH1 0x1 PUSH1 0x1 PUSH1 0xA0 SHL SUB DUP1 DUP5 AND PUSH1 0x0 DUP2 DUP2 MSTORE PUSH1 0x2 PUSH1 0x20 SWAP1 DUP2 MSTORE PUSH1 0x40 DUP1 DUP4 KECCAK256 SWAP5 DUP8 AND DUP1 DUP5 MSTORE SWAP5 DUP3 MSTORE SWAP2 DUP3 SWAP1 KECCAK256 DUP6 SWAP1 SSTORE DUP2 MLOAD DUP6 DUP2 MSTORE SWAP2 MLOAD PUSH32 0x8C5BE1E5EBEC7D5BD14F71427D1E84F3DD0314C0F7B2291E5B200AC8C7C3B925 SWAP3 DUP2 SWAP1 SUB SWAP1 SWAP2 ADD SWAP1 LOG3 POP POP POP JUMP JUMPDEST PUSH1 0x1 PUSH1 0x1 PUSH1 0xA0 SHL SUB DUP4 AND PUSH2 0xA82 JUMPI PUSH1 0x40 MLOAD PUSH3 0x461BCD PUSH1 0xE5 SHL DUP2 MSTORE PUSH1 0x4 ADD DUP1 DUP1 PUSH1 0x20 ADD DUP3 DUP2 SUB DUP3 MSTORE PUSH1 0x24 DUP2 MSTORE PUSH1 0x20 ADD DUP1 PUSH2 0xF22 PUSH1 0x24 SWAP2 CODECOPY PUSH1 0x40 ADD SWAP2 POP POP PUSH1 0x40 MLOAD DUP1 SWAP2 SUB SWAP1 REVERT JUMPDEST PUSH1 0x1 PUSH1 0x1 PUSH1 0xA0 SHL SUB DUP3 AND PUSH2 0xAC7 JUMPI PUSH1 0x40 MLOAD PUSH3 0x461BCD PUSH1 0xE5 SHL DUP2 MSTORE PUSH1 0x4 ADD DUP1 DUP1 PUSH1 0x20 ADD DUP3 DUP2 SUB DUP3 MSTORE PUSH1 0x22 DUP2 MSTORE PUSH1 0x20 ADD DUP1 PUSH2 0xE95 PUSH1 0x22 SWAP2 CODECOPY PUSH1 0x40 ADD SWAP2 POP POP PUSH1 0x40 MLOAD DUP1 SWAP2 SUB SWAP1 REVERT JUMPDEST PUSH2 0xB0A DUP2 PUSH1 0x40 MLOAD DUP1 PUSH1 0x60 ADD PUSH1 0x40 MSTORE DUP1 PUSH1 0x25 DUP2 MSTORE PUSH1 0x20 ADD PUSH2 0xE26 PUSH1 0x25 SWAP2 CODECOPY PUSH1 0x1 PUSH1 0x1 PUSH1 0xA0 SHL SUB DUP7 AND PUSH1 0x0 SWAP1 DUP2 MSTORE PUSH1 0x1 PUSH1 0x20 MSTORE PUSH1 0x40 SWAP1 KECCAK256 SLOAD SWAP2 SWAP1 PUSH4 0xFFFFFFFF PUSH2 0xB9B AND JUMP JUMPDEST PUSH1 0x1 PUSH1 0x1 PUSH1 0xA0 SHL SUB DUP1 DUP6 AND PUSH1 0x0 SWAP1 DUP2 MSTORE PUSH1 0x1 PUSH1 0x20 MSTORE PUSH1 0x40 DUP1 DUP3 KECCAK256 SWAP4 SWAP1 SWAP4 SSTORE SWAP1 DUP5 AND DUP2 MSTORE KECCAK256 SLOAD PUSH2 0xB3F SWAP1 DUP3 PUSH4 0xFFFFFFFF PUSH2 0xC32 AND JUMP JUMPDEST PUSH1 0x1 PUSH1 0x1 PUSH1 0xA0 SHL SUB DUP1 DUP5 AND PUSH1 0x0 DUP2 DUP2 MSTORE PUSH1 0x1 PUSH1 0x20 SWAP1 DUP2 MSTORE PUSH1 0x40 SWAP2 DUP3 SWAP1 KECCAK256 SWAP5 SWAP1 SWAP5 SSTORE DUP1 MLOAD DUP6 DUP2 MSTORE SWAP1 MLOAD SWAP2 SWAP4 SWAP3 DUP8 AND SWAP3 PUSH32 0xDDF252AD1BE2C89B69C2B068FC378DAA952BA7F163C4A11628F55A4DF523B3EF SWAP3 SWAP2 DUP3 SWAP1 SUB ADD SWAP1 LOG3 POP POP POP JUMP JUMPDEST PUSH1 0x0 DUP2 DUP5 DUP5 GT ISZERO PUSH2 0xC2A JUMPI PUSH1 0x40 MLOAD PUSH3 0x461BCD PUSH1 0xE5 SHL DUP2 MSTORE PUSH1 0x4 ADD DUP1 DUP1 PUSH1 0x20 ADD DUP3 DUP2 SUB DUP3 MSTORE DUP4 DUP2 DUP2 MLOAD DUP2 MSTORE PUSH1 0x20 ADD SWAP2 POP DUP1 MLOAD SWAP1 PUSH1 0x20 ADD SWAP1 DUP1 DUP4 DUP4 PUSH1 0x0 JUMPDEST DUP4 DUP2 LT ISZERO PUSH2 0xBEF JUMPI DUP2 DUP2 ADD MLOAD DUP4 DUP3 ADD MSTORE PUSH1 0x20 ADD PUSH2 0xBD7 JUMP JUMPDEST POP POP POP POP SWAP1 POP SWAP1 DUP2 ADD SWAP1 PUSH1 0x1F AND DUP1 ISZERO PUSH2 0xC1C JUMPI DUP1 DUP3 SUB DUP1 MLOAD PUSH1 0x1 DUP4 PUSH1 0x20 SUB PUSH2 0x100 EXP SUB NOT AND DUP2 MSTORE PUSH1 0x20 ADD SWAP2 POP JUMPDEST POP SWAP3 POP POP POP PUSH1 0x40 MLOAD DUP1 SWAP2 SUB SWAP1 REVERT JUMPDEST POP POP POP SWAP1 SUB SWAP1 JUMP JUMPDEST PUSH1 0x0 DUP3 DUP3 ADD DUP4 DUP2 LT ISZERO PUSH2 0xC8C JUMPI PUSH1 0x40 DUP1 MLOAD PUSH3 0x461BCD PUSH1 0xE5 SHL DUP2 MSTORE PUSH1 0x20 PUSH1 0x4 DUP3 ADD MSTORE PUSH1 0x1B PUSH1 0x24 DUP3 ADD MSTORE PUSH32 0x536166654D6174683A206164646974696F6E206F766572666C6F770000000000 PUSH1 0x44 DUP3 ADD MSTORE SWAP1 MLOAD SWAP1 DUP2 SWAP1 SUB PUSH1 0x64 ADD SWAP1 REVERT JUMPDEST SWAP4 SWAP3 POP POP POP JUMP JUMPDEST PUSH1 0x1 PUSH1 0x1 PUSH1 0xA0 SHL SUB DUP3 AND PUSH2 0xCEE JUMPI PUSH1 0x40 DUP1 MLOAD PUSH3 0x461BCD PUSH1 0xE5 SHL DUP2 MSTORE PUSH1 0x20 PUSH1 0x4 DUP3 ADD MSTORE PUSH1 0x1E PUSH1 0x24 DUP3 ADD MSTORE PUSH32 0x555344543A206D696E7420746F20746865207A65726F20616464726573730000 PUSH1 0x44 DUP3 ADD MSTORE SWAP1 MLOAD SWAP1 DUP2 SWAP1 SUB PUSH1 0x64 ADD SWAP1 REVERT JUMPDEST PUSH1 0x3 SLOAD PUSH2 0xD01 SWAP1 DUP3 PUSH4 0xFFFFFFFF PUSH2 0xC32 AND JUMP JUMPDEST PUSH1 0x3 SSTORE PUSH1 0x1 PUSH1 0x1 PUSH1 0xA0 SHL SUB DUP3 AND PUSH1 0x0 SWAP1 DUP2 MSTORE PUSH1 0x1 PUSH1 0x20 MSTORE PUSH1 0x40 SWAP1 KECCAK256 SLOAD PUSH2 0xD2D SWAP1 DUP3 PUSH4 0xFFFFFFFF PUSH2 0xC32 AND JUMP JUMPDEST PUSH1 0x1 PUSH1 0x1 PUSH1 0xA0 SHL SUB DUP4 AND PUSH1 0x0 DUP2 DUP2 MSTORE PUSH1 0x1 PUSH1 0x20 SWAP1 DUP2 MSTORE PUSH1 0x40 DUP1 DUP4 KECCAK256 SWAP5 SWAP1 SWAP5 SSTORE DUP4 MLOAD DUP6 DUP2 MSTORE SWAP4 MLOAD SWAP3 SWAP4 SWAP2 SWAP3 PUSH32 0xDDF252AD1BE2C89B69C2B068FC378DAA952BA7F163C4A11628F55A4DF523B3EF SWAP3 DUP2 SWAP1 SUB SWAP1 SWAP2 ADD SWAP1 LOG3 POP POP JUMP JUMPDEST PUSH1 0x1 PUSH1 0x1 PUSH1 0xA0 SHL SUB DUP2 AND PUSH2 0xDCA JUMPI PUSH1 0x40 MLOAD PUSH3 0x461BCD PUSH1 0xE5 SHL DUP2 MSTORE PUSH1 0x4 ADD DUP1 DUP1 PUSH1 0x20 ADD DUP3 DUP2 SUB DUP3 MSTORE PUSH1 0x26 DUP2 MSTORE PUSH1 0x20 ADD DUP1 PUSH2 0xE6F PUSH1 0x26 SWAP2 CODECOPY PUSH1 0x40 ADD SWAP2 POP POP PUSH1 0x40 MLOAD DUP1 SWAP2 SUB SWAP1 REVERT JUMPDEST PUSH1 0x0 DUP1 SLOAD PUSH1 0x40 MLOAD PUSH1 0x1 PUSH1 0x1 PUSH1 0xA0 SHL SUB DUP1 DUP6 AND SWAP4 SWAP3 AND SWAP2 PUSH32 0x8BE0079C531659141344CD1FD0A4F28419497F9722A3DAAFE3B4186F6B6457E0 SWAP2 LOG3 PUSH1 0x0 DUP1 SLOAD PUSH1 0x1 PUSH1 0x1 PUSH1 0xA0 SHL SUB NOT AND PUSH1 0x1 PUSH1 0x1 PUSH1 0xA0 SHL SUB SWAP3 SWAP1 SWAP3 AND SWAP2 SWAP1 SWAP2 OR SWAP1 SSTORE JUMP INVALID SSTORE MSTORE8 DIFFICULTY SLOAD GASPRICE KECCAK256 PUSH21 0x72616E7366657220616D6F756E7420657863656564 PUSH20 0x2062616C616E6365555344543A20646563726561 PUSH20 0x656420616C6C6F77616E63652062656C6F77207A PUSH6 0x726F4F776E61 PUSH3 0x6C653A KECCAK256 PUSH15 0x6577206F776E657220697320746865 KECCAK256 PUSH27 0x65726F2061646472657373555344543A207472616E736665722074 PUSH16 0x20746865207A65726F20616464726573 PUSH20 0x555344543A20617070726F76652066726F6D2074 PUSH9 0x65207A65726F206164 PUSH5 0x7265737355 MSTORE8 DIFFICULTY SLOAD GASPRICE KECCAK256 PUSH21 0x72616E7366657220616D6F756E7420657863656564 PUSH20 0x20616C6C6F77616E6365555344543A2061707072 PUSH16 0x766520746F20746865207A65726F2061 PUSH5 0x6472657373 SSTORE MSTORE8 DIFFICULTY SLOAD GASPRICE KECCAK256 PUSH21 0x72616E736665722066726F6D20746865207A65726F KECCAK256 PUSH2 0x6464 PUSH19 0x657373A265627A7A723158201C3B3C9633BC2E 0xDE DUP13 0xD5 0xB6 RETURNDATASIZE 0xEC 0xA7 KECCAK256 0x28 SELFBALANCE SDIV EXTCODECOPY DIV CODESIZE PUSH10 0xCD57FAFBCBCC7403A9FA PUSH5 0x736F6C6343 STOP SDIV LT STOP ORIGIN "
				},
				"gasEstimates": {
					"creation": {
						"codeDepositCost": "792400",
						"executionCost": "infinite",
						"totalCost": "infinite"
					},
					"external": {
						"_decimals()": "1058",
						"_name()": "infinite",
						"_symbol()": "infinite",
						"allowance(address,address)": "1338",
						"approve(address,uint256)": "infinite",
						"balanceOf(address)": "1231",
						"decimals()": "1027",
						"decreaseAllowance(address,uint256)": "infinite",
						"getOwner()": "1095",
						"increaseAllowance(address,uint256)": "infinite",
						"mint(uint256)": "infinite",
						"name()": "infinite",
						"owner()": "1082",
						"renounceOwnership()": "24315",
						"symbol()": "infinite",
						"totalSupply()": "1066",
						"transfer(address,uint256)": "infinite",
						"transferFrom(address,address,uint256)": "infinite",
						"transferOwnership(address)": "infinite"
					},
					"internal": {
						"_approve(address,address,uint256)": "infinite",
						"_burn(address,uint256)": "infinite",
						"_burnFrom(address,uint256)": "infinite",
						"_mint(address,uint256)": "infinite",
						"_transfer(address,address,uint256)": "infinite"
					}
				},
				"methodIdentifiers": {
					"_decimals()": "32424aa3",
					"_name()": "d28d8852",
					"_symbol()": "b09f1266",
					"allowance(address,address)": "dd62ed3e",
					"approve(address,uint256)": "095ea7b3",
					"balanceOf(address)": "70a08231",
					"decimals()": "313ce567",
					"decreaseAllowance(address,uint256)": "a457c2d7",
					"getOwner()": "893d20e8",
					"increaseAllowance(address,uint256)": "39509351",
					"mint(uint256)": "a0712d68",
					"name()": "06fdde03",
					"owner()": "8da5cb5b",
					"renounceOwnership()": "715018a6",
					"symbol()": "95d89b41",
					"totalSupply()": "18160ddd",
					"transfer(address,uint256)": "a9059cbb",
					"transferFrom(address,address,uint256)": "23b872dd",
					"transferOwnership(address)": "f2fde38b"
				}
			},
			"storageLayout": {
				"storage": [
					{
						"astId": 302,
						"contract": "contracts/usdt.sol:Usdt",
						"label": "_owner",
						"offset": 0,
						"slot": "0",
						"type": "t_address"
					},
					{
						"astId": 417,
						"contract": "contracts/usdt.sol:Usdt",
						"label": "_balances",
						"offset": 0,
						"slot": "1",
						"type": "t_mapping(t_address,t_uint256)"
					},
					{
						"astId": 423,
						"contract": "contracts/usdt.sol:Usdt",
						"label": "_allowances",
						"offset": 0,
						"slot": "2",
						"type": "t_mapping(t_address,t_mapping(t_address,t_uint256))"
					},
					{
						"astId": 425,
						"contract": "contracts/usdt.sol:Usdt",
						"label": "_totalSupply",
						"offset": 0,
						"slot": "3",
						"type": "t_uint256"
					},
					{
						"astId": 427,
						"contract": "contracts/usdt.sol:Usdt",
						"label": "_decimals",
						"offset": 0,
						"slot": "4",
						"type": "t_uint8"
					},
					{
						"astId": 429,
						"contract": "contracts/usdt.sol:Usdt",
						"label": "_symbol",
						"offset": 0,
						"slot": "5",
						"type": "t_string_storage"
					},
					{
						"astId": 431,
						"contract": "contracts/usdt.sol:Usdt",
						"label": "_name",
						"offset": 0,
						"slot": "6",
						"type": "t_string_storage"
					}
				],
				"types": {
					"t_address": {
						"encoding": "inplace",
						"label": "address",
						"numberOfBytes": "20"
					},
					"t_mapping(t_address,t_mapping(t_address,t_uint256))": {
						"encoding": "mapping",
						"key": "t_address",
						"label": "mapping(address => mapping(address => uint256))",
						"numberOfBytes": "32",
						"value": "t_mapping(t_address,t_uint256)"
					},
					"t_mapping(t_address,t_uint256)": {
						"encoding": "mapping",
						"key": "t_address",
						"label": "mapping(address => uint256)",
						"numberOfBytes": "32",
						"value": "t_uint256"
					},
					"t_string_storage": {
						"encoding": "bytes",
						"label": "string",
						"numberOfBytes": "32"
					},
					"t_uint256": {
						"encoding": "inplace",
						"label": "uint256",
						"numberOfBytes": "32"
					},
					"t_uint8": {
						"encoding": "inplace",
						"label": "uint8",
						"numberOfBytes": "1"
					}
				}
			},
			"userdoc": {
				"methods": {}
			}
		}
	}
}