{
	"contracts/WGMapprover.sol": {
		"Approver": {
			"abi": [
				{
					"inputs": [
						{
							"internalType": "contract IERC20",
							"name": "token",
							"type": "address"
						},
						{
							"internalType": "address",
							"name": "recipient",
							"type": "address"
						},
						{
							"internalType": "uint256",
							"name": "amount",
							"type": "uint256"
						}
					],
					"name": "approveOtherContract",
					"outputs": [],
					"stateMutability": "nonpayable",
					"type": "function"
				},
				{
					"inputs": [],
					"name": "x",
					"outputs": [
						{
							"internalType": "bytes",
							"name": "",
							"type": "bytes"
						}
					],
					"stateMutability": "view",
					"type": "function"
				}
			],
			"devdoc": {
				"kind": "dev",
				"methods": {},
				"version": 1
			},
			"evm": {
				"assembly": "    /* \"contracts/WGMapprover.sol\":115:684  contract Approver {... */\n  mstore(0x40, 0x80)\n  callvalue\n  dup1\n  iszero\n  tag_1\n  jumpi\n  0x00\n  dup1\n  revert\ntag_1:\n  pop\n  dataSize(sub_0)\n  dup1\n  dataOffset(sub_0)\n  0x00\n  codecopy\n  0x00\n  return\nstop\n\nsub_0: assembly {\n        /* \"contracts/WGMapprover.sol\":115:684  contract Approver {... */\n      mstore(0x40, 0x80)\n      callvalue\n      dup1\n      iszero\n      tag_1\n      jumpi\n      0x00\n      dup1\n      revert\n    tag_1:\n      pop\n      jumpi(tag_2, lt(calldatasize, 0x04))\n      shr(0xe0, calldataload(0x00))\n      dup1\n      0x0c55699c\n      eq\n      tag_3\n      jumpi\n      dup1\n      0xdfa95e5b\n      eq\n      tag_4\n      jumpi\n    tag_2:\n      0x00\n      dup1\n      revert\n        /* \"contracts/WGMapprover.sol\":139:153  bytes public x */\n    tag_3:\n      tag_5\n      tag_6\n      jump\t// in\n    tag_5:\n      mload(0x40)\n      tag_7\n      swap2\n      swap1\n      tag_8\n      jump\t// in\n    tag_7:\n      mload(0x40)\n      dup1\n      swap2\n      sub\n      swap1\n      return\n        /* \"contracts/WGMapprover.sol\":545:677  function approveOtherContract(IERC20 token, address recipient , uint amount) public {... */\n    tag_4:\n      tag_9\n      tag_10\n      calldatasize\n      0x04\n      tag_11\n      jump\t// in\n    tag_10:\n      tag_12\n      jump\t// in\n    tag_9:\n      stop\n        /* \"contracts/WGMapprover.sol\":139:153  bytes public x */\n    tag_6:\n      0x00\n      dup1\n      sload\n      tag_13\n      swap1\n      tag_14\n      jump\t// in\n    tag_13:\n      dup1\n      0x1f\n      add\n      0x20\n      dup1\n      swap2\n      div\n      mul\n      0x20\n      add\n      mload(0x40)\n      swap1\n      dup2\n      add\n      0x40\n      mstore\n      dup1\n      swap3\n      swap2\n      swap1\n      dup2\n      dup2\n      mstore\n      0x20\n      add\n      dup3\n      dup1\n      sload\n      tag_15\n      swap1\n      tag_14\n      jump\t// in\n    tag_15:\n      dup1\n      iszero\n      tag_16\n      jumpi\n      dup1\n      0x1f\n      lt\n      tag_17\n      jumpi\n      0x0100\n      dup1\n      dup4\n      sload\n      div\n      mul\n      dup4\n      mstore\n      swap2\n      0x20\n      add\n      swap2\n      jump(tag_16)\n    tag_17:\n      dup3\n      add\n      swap2\n      swap1\n      0x00\n      mstore\n      keccak256(0x00, 0x20)\n      swap1\n    tag_18:\n      dup2\n      sload\n      dup2\n      mstore\n      swap1\n      0x01\n      add\n      swap1\n      0x20\n      add\n      dup1\n      dup4\n      gt\n      tag_18\n      jumpi\n      dup3\n      swap1\n      sub\n      0x1f\n      and\n      dup3\n      add\n      swap2\n    tag_16:\n      pop\n      pop\n      pop\n      pop\n      pop\n      dup2\n      jump\t// out\n        /* \"contracts/WGMapprover.sol\":545:677  function approveOtherContract(IERC20 token, address recipient , uint amount) public {... */\n    tag_12:\n        /* \"contracts/WGMapprover.sol\":639:670  token.approve(recipient, 1e18 ) */\n      mload(0x40)\n      shl(0xe0, 0x095ea7b3)\n      dup2\n      mstore\n      sub(shl(0xa0, 0x01), 0x01)\n        /* \"#utility.yul\":1802:1834   */\n      dup4\n      dup2\n      and\n        /* \"contracts/WGMapprover.sol\":639:670  token.approve(recipient, 1e18 ) */\n      0x04\n      dup4\n      add\n        /* \"#utility.yul\":1784:1835   */\n      mstore\n        /* \"contracts/WGMapprover.sol\":664:668  1e18 */\n      0x0de0b6b3a7640000\n        /* \"#utility.yul\":1851:1869   */\n      0x24\n      dup4\n      add\n        /* \"#utility.yul\":1844:1878   */\n      mstore\n        /* \"contracts/WGMapprover.sol\":639:652  token.approve */\n      dup5\n      and\n      swap1\n      0x095ea7b3\n      swap1\n        /* \"#utility.yul\":1757:1775   */\n      0x44\n      add\n        /* \"contracts/WGMapprover.sol\":639:670  token.approve(recipient, 1e18 ) */\n      0x20\n      mload(0x40)\n      dup1\n      dup4\n      sub\n      dup2\n      0x00\n      dup8\n      gas\n      call\n      iszero\n      dup1\n      iszero\n      tag_23\n      jumpi\n      returndatasize\n      0x00\n      dup1\n      returndatacopy\n      revert(0x00, returndatasize)\n    tag_23:\n      pop\n      pop\n      pop\n      pop\n      mload(0x40)\n      returndatasize\n      not(0x1f)\n      0x1f\n      dup3\n      add\n      and\n      dup3\n      add\n      dup1\n      0x40\n      mstore\n      pop\n      dup2\n      add\n      swap1\n      tag_24\n      swap2\n      swap1\n      tag_25\n      jump\t// in\n    tag_24:\n      pop\n        /* \"contracts/WGMapprover.sol\":545:677  function approveOtherContract(IERC20 token, address recipient , uint amount) public {... */\n      pop\n      pop\n      pop\n      jump\t// out\n        /* \"#utility.yul\":14:560   */\n    tag_8:\n        /* \"#utility.yul\":124:128   */\n      0x00\n        /* \"#utility.yul\":153:155   */\n      0x20\n        /* \"#utility.yul\":182:184   */\n      dup1\n        /* \"#utility.yul\":171:180   */\n      dup4\n        /* \"#utility.yul\":164:185   */\n      mstore\n        /* \"#utility.yul\":214:220   */\n      dup4\n        /* \"#utility.yul\":208:221   */\n      mload\n        /* \"#utility.yul\":257:263   */\n      dup1\n        /* \"#utility.yul\":252:254   */\n      dup3\n        /* \"#utility.yul\":241:250   */\n      dup6\n        /* \"#utility.yul\":237:255   */\n      add\n        /* \"#utility.yul\":230:264   */\n      mstore\n        /* \"#utility.yul\":282:283   */\n      0x00\n        /* \"#utility.yul\":292:432   */\n    tag_29:\n        /* \"#utility.yul\":306:312   */\n      dup2\n        /* \"#utility.yul\":303:304   */\n      dup2\n        /* \"#utility.yul\":300:313   */\n      lt\n        /* \"#utility.yul\":292:432   */\n      iszero\n      tag_31\n      jumpi\n        /* \"#utility.yul\":401:415   */\n      dup6\n      dup2\n      add\n        /* \"#utility.yul\":397:420   */\n      dup4\n      add\n        /* \"#utility.yul\":391:421   */\n      mload\n        /* \"#utility.yul\":367:384   */\n      dup6\n      dup3\n      add\n        /* \"#utility.yul\":386:388   */\n      0x40\n        /* \"#utility.yul\":363:389   */\n      add\n        /* \"#utility.yul\":356:422   */\n      mstore\n        /* \"#utility.yul\":321:331   */\n      dup3\n      add\n        /* \"#utility.yul\":292:432   */\n      jump(tag_29)\n    tag_31:\n        /* \"#utility.yul\":296:299   */\n      pop\n        /* \"#utility.yul\":481:482   */\n      0x00\n        /* \"#utility.yul\":476:478   */\n      0x40\n        /* \"#utility.yul\":467:473   */\n      dup3\n        /* \"#utility.yul\":456:465   */\n      dup7\n        /* \"#utility.yul\":452:474   */\n      add\n        /* \"#utility.yul\":448:479   */\n      add\n        /* \"#utility.yul\":441:483   */\n      mstore\n        /* \"#utility.yul\":551:553   */\n      0x40\n        /* \"#utility.yul\":544:546   */\n      0x1f\n        /* \"#utility.yul\":540:547   */\n      not\n        /* \"#utility.yul\":535:537   */\n      0x1f\n        /* \"#utility.yul\":527:533   */\n      dup4\n        /* \"#utility.yul\":523:538   */\n      add\n        /* \"#utility.yul\":519:548   */\n      and\n        /* \"#utility.yul\":508:517   */\n      dup6\n        /* \"#utility.yul\":504:549   */\n      add\n        /* \"#utility.yul\":500:554   */\n      add\n        /* \"#utility.yul\":492:554   */\n      swap3\n      pop\n      pop\n      pop\n        /* \"#utility.yul\":14:560   */\n      swap3\n      swap2\n      pop\n      pop\n      jump\t// out\n        /* \"#utility.yul\":565:704   */\n    tag_26:\n      sub(shl(0xa0, 0x01), 0x01)\n        /* \"#utility.yul\":648:679   */\n      dup2\n      and\n        /* \"#utility.yul\":638:680   */\n      dup2\n      eq\n        /* \"#utility.yul\":628:698   */\n      tag_33\n      jumpi\n        /* \"#utility.yul\":694:695   */\n      0x00\n        /* \"#utility.yul\":691:692   */\n      dup1\n        /* \"#utility.yul\":684:696   */\n      revert\n        /* \"#utility.yul\":628:698   */\n    tag_33:\n        /* \"#utility.yul\":565:704   */\n      pop\n      jump\t// out\n        /* \"#utility.yul\":709:1194   */\n    tag_11:\n        /* \"#utility.yul\":799:805   */\n      0x00\n        /* \"#utility.yul\":807:813   */\n      dup1\n        /* \"#utility.yul\":815:821   */\n      0x00\n        /* \"#utility.yul\":868:870   */\n      0x60\n        /* \"#utility.yul\":856:865   */\n      dup5\n        /* \"#utility.yul\":847:854   */\n      dup7\n        /* \"#utility.yul\":843:866   */\n      sub\n        /* \"#utility.yul\":839:871   */\n      slt\n        /* \"#utility.yul\":836:888   */\n      iszero\n      tag_35\n      jumpi\n        /* \"#utility.yul\":884:885   */\n      0x00\n        /* \"#utility.yul\":881:882   */\n      dup1\n        /* \"#utility.yul\":874:886   */\n      revert\n        /* \"#utility.yul\":836:888   */\n    tag_35:\n        /* \"#utility.yul\":923:932   */\n      dup4\n        /* \"#utility.yul\":910:933   */\n      calldataload\n        /* \"#utility.yul\":942:981   */\n      tag_36\n        /* \"#utility.yul\":975:980   */\n      dup2\n        /* \"#utility.yul\":942:981   */\n      tag_26\n      jump\t// in\n    tag_36:\n        /* \"#utility.yul\":1000:1005   */\n      swap3\n      pop\n        /* \"#utility.yul\":1057:1059   */\n      0x20\n        /* \"#utility.yul\":1042:1060   */\n      dup5\n      add\n        /* \"#utility.yul\":1029:1061   */\n      calldataload\n        /* \"#utility.yul\":1070:1111   */\n      tag_37\n        /* \"#utility.yul\":1029:1061   */\n      dup2\n        /* \"#utility.yul\":1070:1111   */\n      tag_26\n      jump\t// in\n    tag_37:\n        /* \"#utility.yul\":709:1194   */\n      swap3\n      swap6\n        /* \"#utility.yul\":1130:1137   */\n      swap3\n      swap5\n      pop\n      pop\n      pop\n        /* \"#utility.yul\":1184:1186   */\n      0x40\n        /* \"#utility.yul\":1169:1187   */\n      swap2\n      swap1\n      swap2\n      add\n        /* \"#utility.yul\":1156:1188   */\n      calldataload\n      swap1\n        /* \"#utility.yul\":709:1194   */\n      jump\t// out\n        /* \"#utility.yul\":1199:1579   */\n    tag_14:\n        /* \"#utility.yul\":1278:1279   */\n      0x01\n        /* \"#utility.yul\":1274:1286   */\n      dup2\n      dup2\n      shr\n      swap1\n        /* \"#utility.yul\":1321:1333   */\n      dup3\n      and\n      dup1\n        /* \"#utility.yul\":1342:1403   */\n      tag_39\n      jumpi\n        /* \"#utility.yul\":1396:1400   */\n      0x7f\n        /* \"#utility.yul\":1388:1394   */\n      dup3\n        /* \"#utility.yul\":1384:1401   */\n      and\n        /* \"#utility.yul\":1374:1401   */\n      swap2\n      pop\n        /* \"#utility.yul\":1342:1403   */\n    tag_39:\n        /* \"#utility.yul\":1449:1451   */\n      0x20\n        /* \"#utility.yul\":1441:1447   */\n      dup3\n        /* \"#utility.yul\":1438:1452   */\n      lt\n        /* \"#utility.yul\":1418:1436   */\n      dup2\n        /* \"#utility.yul\":1415:1453   */\n      sub\n        /* \"#utility.yul\":1412:1573   */\n      tag_40\n      jumpi\n        /* \"#utility.yul\":1495:1505   */\n      0x4e487b71\n        /* \"#utility.yul\":1490:1493   */\n      0xe0\n        /* \"#utility.yul\":1486:1506   */\n      shl\n        /* \"#utility.yul\":1483:1484   */\n      0x00\n        /* \"#utility.yul\":1476:1507   */\n      mstore\n        /* \"#utility.yul\":1530:1534   */\n      0x22\n        /* \"#utility.yul\":1527:1528   */\n      0x04\n        /* \"#utility.yul\":1520:1535   */\n      mstore\n        /* \"#utility.yul\":1558:1562   */\n      0x24\n        /* \"#utility.yul\":1555:1556   */\n      0x00\n        /* \"#utility.yul\":1548:1563   */\n      revert\n        /* \"#utility.yul\":1412:1573   */\n    tag_40:\n      pop\n        /* \"#utility.yul\":1199:1579   */\n      swap2\n      swap1\n      pop\n      jump\t// out\n        /* \"#utility.yul\":1889:2166   */\n    tag_25:\n        /* \"#utility.yul\":1956:1962   */\n      0x00\n        /* \"#utility.yul\":2009:2011   */\n      0x20\n        /* \"#utility.yul\":1997:2006   */\n      dup3\n        /* \"#utility.yul\":1988:1995   */\n      dup5\n        /* \"#utility.yul\":1984:2007   */\n      sub\n        /* \"#utility.yul\":1980:2012   */\n      slt\n        /* \"#utility.yul\":1977:2029   */\n      iszero\n      tag_43\n      jumpi\n        /* \"#utility.yul\":2025:2026   */\n      0x00\n        /* \"#utility.yul\":2022:2023   */\n      dup1\n        /* \"#utility.yul\":2015:2027   */\n      revert\n        /* \"#utility.yul\":1977:2029   */\n    tag_43:\n        /* \"#utility.yul\":2057:2066   */\n      dup2\n        /* \"#utility.yul\":2051:2067   */\n      mload\n        /* \"#utility.yul\":2110:2115   */\n      dup1\n        /* \"#utility.yul\":2103:2116   */\n      iszero\n        /* \"#utility.yul\":2096:2117   */\n      iszero\n        /* \"#utility.yul\":2089:2094   */\n      dup2\n        /* \"#utility.yul\":2086:2118   */\n      eq\n        /* \"#utility.yul\":2076:2136   */\n      tag_44\n      jumpi\n        /* \"#utility.yul\":2132:2133   */\n      0x00\n        /* \"#utility.yul\":2129:2130   */\n      dup1\n        /* \"#utility.yul\":2122:2134   */\n      revert\n        /* \"#utility.yul\":2076:2136   */\n    tag_44:\n        /* \"#utility.yul\":2155:2160   */\n      swap4\n        /* \"#utility.yul\":1889:2166   */\n      swap3\n      pop\n      pop\n      pop\n      jump\t// out\n\n    auxdata: 0xa2646970667358221220d981c69f4c8faf3243e4e96b716ea7916c00858b09c62d633673ab1d2d5b0fcf64736f6c63430008140033\n}\n",
				"bytecode": {
					"linkReferences": {},
					"object": "608060405234801561000f575f80fd5b506102a78061001d5f395ff3fe608060405234801561000f575f80fd5b5060043610610034575f3560e01c80630c55699c14610038578063dfa95e5b14610056575b5f80fd5b61004061006b565b60405161004d9190610173565b60405180910390f35b6100696100643660046101d5565b6100f6565b005b5f805461007790610213565b80601f01602080910402602001604051908101604052809291908181526020018280546100a390610213565b80156100ee5780601f106100c5576101008083540402835291602001916100ee565b820191905f5260205f20905b8154815290600101906020018083116100d157829003601f168201915b505050505081565b60405163095ea7b360e01b81526001600160a01b038381166004830152670de0b6b3a7640000602483015284169063095ea7b3906044016020604051808303815f875af1158015610149573d5f803e3d5ffd5b505050506040513d601f19601f8201168201806040525081019061016d919061024b565b50505050565b5f6020808352835180828501525f5b8181101561019e57858101830151858201604001528201610182565b505f604082860101526040601f19601f8301168501019250505092915050565b6001600160a01b03811681146101d2575f80fd5b50565b5f805f606084860312156101e7575f80fd5b83356101f2816101be565b92506020840135610202816101be565b929592945050506040919091013590565b600181811c9082168061022757607f821691505b60208210810361024557634e487b7160e01b5f52602260045260245ffd5b50919050565b5f6020828403121561025b575f80fd5b8151801515811461026a575f80fd5b939250505056fea2646970667358221220d981c69f4c8faf3243e4e96b716ea7916c00858b09c62d633673ab1d2d5b0fcf64736f6c63430008140033",
					"opcodes": "PUSH1 0x80 PUSH1 0x40 MSTORE CALLVALUE DUP1 ISZERO PUSH2 0xF JUMPI PUSH0 DUP1 REVERT JUMPDEST POP PUSH2 0x2A7 DUP1 PUSH2 0x1D PUSH0 CODECOPY PUSH0 RETURN INVALID PUSH1 0x80 PUSH1 0x40 MSTORE CALLVALUE DUP1 ISZERO PUSH2 0xF JUMPI PUSH0 DUP1 REVERT JUMPDEST POP PUSH1 0x4 CALLDATASIZE LT PUSH2 0x34 JUMPI PUSH0 CALLDATALOAD PUSH1 0xE0 SHR DUP1 PUSH4 0xC55699C EQ PUSH2 0x38 JUMPI DUP1 PUSH4 0xDFA95E5B EQ PUSH2 0x56 JUMPI JUMPDEST PUSH0 DUP1 REVERT JUMPDEST PUSH2 0x40 PUSH2 0x6B JUMP JUMPDEST PUSH1 0x40 MLOAD PUSH2 0x4D SWAP2 SWAP1 PUSH2 0x173 JUMP JUMPDEST PUSH1 0x40 MLOAD DUP1 SWAP2 SUB SWAP1 RETURN JUMPDEST PUSH2 0x69 PUSH2 0x64 CALLDATASIZE PUSH1 0x4 PUSH2 0x1D5 JUMP JUMPDEST PUSH2 0xF6 JUMP JUMPDEST STOP JUMPDEST PUSH0 DUP1 SLOAD PUSH2 0x77 SWAP1 PUSH2 0x213 JUMP JUMPDEST DUP1 PUSH1 0x1F ADD PUSH1 0x20 DUP1 SWAP2 DIV MUL PUSH1 0x20 ADD PUSH1 0x40 MLOAD SWAP1 DUP2 ADD PUSH1 0x40 MSTORE DUP1 SWAP3 SWAP2 SWAP1 DUP2 DUP2 MSTORE PUSH1 0x20 ADD DUP3 DUP1 SLOAD PUSH2 0xA3 SWAP1 PUSH2 0x213 JUMP JUMPDEST DUP1 ISZERO PUSH2 0xEE JUMPI DUP1 PUSH1 0x1F LT PUSH2 0xC5 JUMPI PUSH2 0x100 DUP1 DUP4 SLOAD DIV MUL DUP4 MSTORE SWAP2 PUSH1 0x20 ADD SWAP2 PUSH2 0xEE JUMP JUMPDEST DUP3 ADD SWAP2 SWAP1 PUSH0 MSTORE PUSH1 0x20 PUSH0 KECCAK256 SWAP1 JUMPDEST DUP2 SLOAD DUP2 MSTORE SWAP1 PUSH1 0x1 ADD SWAP1 PUSH1 0x20 ADD DUP1 DUP4 GT PUSH2 0xD1 JUMPI DUP3 SWAP1 SUB PUSH1 0x1F AND DUP3 ADD SWAP2 JUMPDEST POP POP POP POP POP DUP2 JUMP JUMPDEST PUSH1 0x40 MLOAD PUSH4 0x95EA7B3 PUSH1 0xE0 SHL DUP2 MSTORE PUSH1 0x1 PUSH1 0x1 PUSH1 0xA0 SHL SUB DUP4 DUP2 AND PUSH1 0x4 DUP4 ADD MSTORE PUSH8 0xDE0B6B3A7640000 PUSH1 0x24 DUP4 ADD MSTORE DUP5 AND SWAP1 PUSH4 0x95EA7B3 SWAP1 PUSH1 0x44 ADD PUSH1 0x20 PUSH1 0x40 MLOAD DUP1 DUP4 SUB DUP2 PUSH0 DUP8 GAS CALL ISZERO DUP1 ISZERO PUSH2 0x149 JUMPI RETURNDATASIZE PUSH0 DUP1 RETURNDATACOPY RETURNDATASIZE PUSH0 REVERT JUMPDEST POP POP POP POP PUSH1 0x40 MLOAD RETURNDATASIZE PUSH1 0x1F NOT PUSH1 0x1F DUP3 ADD AND DUP3 ADD DUP1 PUSH1 0x40 MSTORE POP DUP2 ADD SWAP1 PUSH2 0x16D SWAP2 SWAP1 PUSH2 0x24B JUMP JUMPDEST POP POP POP POP JUMP JUMPDEST PUSH0 PUSH1 0x20 DUP1 DUP4 MSTORE DUP4 MLOAD DUP1 DUP3 DUP6 ADD MSTORE PUSH0 JUMPDEST DUP2 DUP2 LT ISZERO PUSH2 0x19E JUMPI DUP6 DUP2 ADD DUP4 ADD MLOAD DUP6 DUP3 ADD PUSH1 0x40 ADD MSTORE DUP3 ADD PUSH2 0x182 JUMP JUMPDEST POP PUSH0 PUSH1 0x40 DUP3 DUP7 ADD ADD MSTORE PUSH1 0x40 PUSH1 0x1F NOT PUSH1 0x1F DUP4 ADD AND DUP6 ADD ADD SWAP3 POP POP POP SWAP3 SWAP2 POP POP JUMP JUMPDEST PUSH1 0x1 PUSH1 0x1 PUSH1 0xA0 SHL SUB DUP2 AND DUP2 EQ PUSH2 0x1D2 JUMPI PUSH0 DUP1 REVERT JUMPDEST POP JUMP JUMPDEST PUSH0 DUP1 PUSH0 PUSH1 0x60 DUP5 DUP7 SUB SLT ISZERO PUSH2 0x1E7 JUMPI PUSH0 DUP1 REVERT JUMPDEST DUP4 CALLDATALOAD PUSH2 0x1F2 DUP2 PUSH2 0x1BE JUMP JUMPDEST SWAP3 POP PUSH1 0x20 DUP5 ADD CALLDATALOAD PUSH2 0x202 DUP2 PUSH2 0x1BE JUMP JUMPDEST SWAP3 SWAP6 SWAP3 SWAP5 POP POP POP PUSH1 0x40 SWAP2 SWAP1 SWAP2 ADD CALLDATALOAD SWAP1 JUMP JUMPDEST PUSH1 0x1 DUP2 DUP2 SHR SWAP1 DUP3 AND DUP1 PUSH2 0x227 JUMPI PUSH1 0x7F DUP3 AND SWAP2 POP JUMPDEST PUSH1 0x20 DUP3 LT DUP2 SUB PUSH2 0x245 JUMPI PUSH4 0x4E487B71 PUSH1 0xE0 SHL PUSH0 MSTORE PUSH1 0x22 PUSH1 0x4 MSTORE PUSH1 0x24 PUSH0 REVERT JUMPDEST POP SWAP2 SWAP1 POP JUMP JUMPDEST PUSH0 PUSH1 0x20 DUP3 DUP5 SUB SLT ISZERO PUSH2 0x25B JUMPI PUSH0 DUP1 REVERT JUMPDEST DUP2 MLOAD DUP1 ISZERO ISZERO DUP2 EQ PUSH2 0x26A JUMPI PUSH0 DUP1 REVERT JUMPDEST SWAP4 SWAP3 POP POP POP JUMP INVALID LOG2 PUSH5 0x6970667358 0x22 SLT KECCAK256 0xD9 DUP2 0xC6 SWAP16 0x4C DUP16 0xAF ORIGIN NUMBER 0xE4 0xE9 PUSH12 0x716EA7916C00858B09C62D63 CALLDATASIZE PUSH20 0xAB1D2D5B0FCF64736F6C63430008140033000000 "
				},
				"gasEstimates": {
					"creation": {
						"codeDepositCost": "135800",
						"executionCost": "181",
						"totalCost": "135981"
					},
					"external": {
						"approveOtherContract(address,address,uint256)": "infinite",
						"x()": "infinite"
					}
				},
				"methodIdentifiers": {
					"approveOtherContract(address,address,uint256)": "dfa95e5b",
					"x()": "0c55699c"
				}
			},
			"storageLayout": {
				"storage": [
					{
						"astId": 82,
						"contract": "contracts/WGMapprover.sol:Approver",
						"label": "x",
						"offset": 0,
						"slot": "0",
						"type": "t_bytes_storage"
					}
				],
				"types": {
					"t_bytes_storage": {
						"encoding": "bytes",
						"label": "bytes",
						"numberOfBytes": "32"
					}
				}
			},
			"userdoc": {
				"kind": "user",
				"methods": {},
				"version": 1
			}
		}
	}
}