{
	"contracts/INDRACOIN.sol": {
		"INDRA": {
			"abi": [
				{
					"inputs": [
						{
							"internalType": "string",
							"name": "name",
							"type": "string"
						},
						{
							"internalType": "string",
							"name": "symbol",
							"type": "string"
						},
						{
							"internalType": "uint256",
							"name": "totalSupply",
							"type": "uint256"
						}
					],
					"payable": false,
					"stateMutability": "nonpayable",
					"type": "constructor"
				},
				{
					"anonymous": false,
					"inputs": [
						{
							"indexed": true,
							"internalType": "address",
							"name": "owner",
							"type": "address"
						},
						{
							"indexed": true,
							"internalType": "address",
							"name": "spender",
							"type": "address"
						},
						{
							"indexed": false,
							"internalType": "uint256",
							"name": "value",
							"type": "uint256"
						}
					],
					"name": "Approval",
					"type": "event"
				},
				{
					"anonymous": false,
					"inputs": [
						{
							"indexed": true,
							"internalType": "address",
							"name": "previousOwner",
							"type": "address"
						},
						{
							"indexed": true,
							"internalType": "address",
							"name": "newOwner",
							"type": "address"
						}
					],
					"name": "OwnershipTransferred",
					"type": "event"
				},
				{
					"anonymous": false,
					"inputs": [
						{
							"indexed": true,
							"internalType": "address",
							"name": "from",
							"type": "address"
						},
						{
							"indexed": true,
							"internalType": "address",
							"name": "to",
							"type": "address"
						},
						{
							"indexed": false,
							"internalType": "uint256",
							"name": "value",
							"type": "uint256"
						}
					],
					"name": "Transfer",
					"type": "event"
				},
				{
					"payable": true,
					"stateMutability": "payable",
					"type": "fallback"
				},
				{
					"constant": true,
					"inputs": [],
					"name": "_decimals",
					"outputs": [
						{
							"internalType": "uint8",
							"name": "",
							"type": "uint8"
						}
					],
					"payable": false,
					"stateMutability": "view",
					"type": "function"
				},
				{
					"constant": true,
					"inputs": [],
					"name": "_name",
					"outputs": [
						{
							"internalType": "string",
							"name": "",
							"type": "string"
						}
					],
					"payable": false,
					"stateMutability": "view",
					"type": "function"
				},
				{
					"constant": true,
					"inputs": [],
					"name": "_symbol",
					"outputs": [
						{
							"internalType": "string",
							"name": "",
							"type": "string"
						}
					],
					"payable": false,
					"stateMutability": "view",
					"type": "function"
				},
				{
					"constant": true,
					"inputs": [
						{
							"internalType": "address",
							"name": "owner",
							"type": "address"
						},
						{
							"internalType": "address",
							"name": "spender",
							"type": "address"
						}
					],
					"name": "allowance",
					"outputs": [
						{
							"internalType": "uint256",
							"name": "",
							"type": "uint256"
						}
					],
					"payable": false,
					"stateMutability": "view",
					"type": "function"
				},
				{
					"constant": false,
					"inputs": [
						{
							"internalType": "address",
							"name": "spender",
							"type": "address"
						},
						{
							"internalType": "uint256",
							"name": "amount",
							"type": "uint256"
						}
					],
					"name": "approve",
					"outputs": [
						{
							"internalType": "bool",
							"name": "",
							"type": "bool"
						}
					],
					"payable": false,
					"stateMutability": "nonpayable",
					"type": "function"
				},
				{
					"constant": true,
					"inputs": [
						{
							"internalType": "address",
							"name": "account",
							"type": "address"
						}
					],
					"name": "balanceOf",
					"outputs": [
						{
							"internalType": "uint256",
							"name": "",
							"type": "uint256"
						}
					],
					"payable": false,
					"stateMutability": "view",
					"type": "function"
				},
				{
					"constant": true,
					"inputs": [],
					"name": "decimals",
					"outputs": [
						{
							"internalType": "uint256",
							"name": "",
							"type": "uint256"
						}
					],
					"payable": false,
					"stateMutability": "view",
					"type": "function"
				},
				{
					"constant": false,
					"inputs": [
						{
							"internalType": "address",
							"name": "spender",
							"type": "address"
						},
						{
							"internalType": "uint256",
							"name": "subtractedValue",
							"type": "uint256"
						}
					],
					"name": "decreaseAllowance",
					"outputs": [
						{
							"internalType": "bool",
							"name": "",
							"type": "bool"
						}
					],
					"payable": false,
					"stateMutability": "nonpayable",
					"type": "function"
				},
				{
					"constant": true,
					"inputs": [],
					"name": "getOwner",
					"outputs": [
						{
							"internalType": "address",
							"name": "",
							"type": "address"
						}
					],
					"payable": false,
					"stateMutability": "view",
					"type": "function"
				},
				{
					"constant": false,
					"inputs": [
						{
							"internalType": "address",
							"name": "spender",
							"type": "address"
						},
						{
							"internalType": "uint256",
							"name": "addedValue",
							"type": "uint256"
						}
					],
					"name": "increaseAllowance",
					"outputs": [
						{
							"internalType": "bool",
							"name": "",
							"type": "bool"
						}
					],
					"payable": false,
					"stateMutability": "nonpayable",
					"type": "function"
				},
				{
					"constant": false,
					"inputs": [
						{
							"internalType": "uint256",
							"name": "amount",
							"type": "uint256"
						}
					],
					"name": "mint",
					"outputs": [
						{
							"internalType": "bool",
							"name": "",
							"type": "bool"
						}
					],
					"payable": false,
					"stateMutability": "nonpayable",
					"type": "function"
				},
				{
					"constant": true,
					"inputs": [],
					"name": "name",
					"outputs": [
						{
							"internalType": "string",
							"name": "",
							"type": "string"
						}
					],
					"payable": false,
					"stateMutability": "view",
					"type": "function"
				},
				{
					"constant": true,
					"inputs": [],
					"name": "owner",
					"outputs": [
						{
							"internalType": "address",
							"name": "",
							"type": "address"
						}
					],
					"payable": false,
					"stateMutability": "view",
					"type": "function"
				},
				{
					"constant": false,
					"inputs": [],
					"name": "renounceOwnership",
					"outputs": [],
					"payable": false,
					"stateMutability": "nonpayable",
					"type": "function"
				},
				{
					"constant": true,
					"inputs": [],
					"name": "symbol",
					"outputs": [
						{
							"internalType": "string",
							"name": "",
							"type": "string"
						}
					],
					"payable": false,
					"stateMutability": "view",
					"type": "function"
				},
				{
					"constant": true,
					"inputs": [],
					"name": "totalSupply",
					"outputs": [
						{
							"internalType": "uint256",
							"name": "",
							"type": "uint256"
						}
					],
					"payable": false,
					"stateMutability": "view",
					"type": "function"
				},
				{
					"constant": false,
					"inputs": [
						{
							"internalType": "address",
							"name": "recipient",
							"type": "address"
						},
						{
							"internalType": "uint256",
							"name": "amount",
							"type": "uint256"
						}
					],
					"name": "transfer",
					"outputs": [
						{
							"internalType": "bool",
							"name": "",
							"type": "bool"
						}
					],
					"payable": false,
					"stateMutability": "nonpayable",
					"type": "function"
				},
				{
					"constant": false,
					"inputs": [
						{
							"internalType": "address",
							"name": "sender",
							"type": "address"
						},
						{
							"internalType": "address",
							"name": "recipient",
							"type": "address"
						},
						{
							"internalType": "uint256",
							"name": "amount",
							"type": "uint256"
						}
					],
					"name": "transferFrom",
					"outputs": [
						{
							"internalType": "bool",
							"name": "",
							"type": "bool"
						}
					],
					"payable": false,
					"stateMutability": "nonpayable",
					"type": "function"
				},
				{
					"constant": false,
					"inputs": [
						{
							"internalType": "address",
							"name": "newOwner",
							"type": "address"
						}
					],
					"name": "transferOwnership",
					"outputs": [],
					"payable": false,
					"stateMutability": "nonpayable",
					"type": "function"
				}
			],
			"devdoc": {
				"methods": {}
			},
			"evm": {
				"assembly": "    /* \"contracts/INDRACOIN.sol\":3485:7631  contract INDRA is Context, IINDRA, Ownable {... */\n  mstore(0x40, 0x80)\n    /* \"contracts/INDRACOIN.sol\":3795:4085  constructor(string memory name, string memory symbol ,uint256  totalSupply ) public {... */\n  callvalue\n    /* \"--CODEGEN--\":8:17   */\n  dup1\n    /* \"--CODEGEN--\":5:7   */\n  iszero\n  tag_1\n  jumpi\n    /* \"--CODEGEN--\":30:31   */\n  0x00\n    /* \"--CODEGEN--\":27:28   */\n  dup1\n    /* \"--CODEGEN--\":20:32   */\n  revert\n    /* \"--CODEGEN--\":5:7   */\ntag_1:\n    /* \"contracts/INDRACOIN.sol\":3795:4085  constructor(string memory name, string memory symbol ,uint256  totalSupply ) public {... */\n  pop\n  mload(0x40)\n  sub(codesize, bytecodeSize)\n  dup1\n  bytecodeSize\n  dup4\n  codecopy\n  dup2\n  dup2\n  add\n  0x40\n  mstore\n    /* \"--CODEGEN--\":13:15   */\n  0x60\n    /* \"--CODEGEN--\":8:11   */\n  dup2\n    /* \"--CODEGEN--\":5:16   */\n  lt\n    /* \"--CODEGEN--\":2:4   */\n  iszero\n  tag_2\n  jumpi\n    /* \"--CODEGEN--\":29:30   */\n  0x00\n    /* \"--CODEGEN--\":26:27   */\n  dup1\n    /* \"--CODEGEN--\":19:31   */\n  revert\n    /* \"--CODEGEN--\":2:4   */\ntag_2:\n    /* \"contracts/INDRACOIN.sol\":3795:4085  constructor(string memory name, string memory symbol ,uint256  totalSupply ) public {... */\n  dup2\n  add\n  swap1\n  dup1\n  dup1\n  mload\n  mload(0x40)\n  swap4\n  swap3\n  swap2\n  swap1\n  dup5\n    /* \"--CODEGEN--\":19:30   */\n  0x0100000000\n    /* \"--CODEGEN--\":14:17   */\n  dup3\n    /* \"--CODEGEN--\":11:31   */\n  gt\n    /* \"--CODEGEN--\":8:10   */\n  iszero\n  tag_3\n  jumpi\n    /* \"--CODEGEN--\":44:45   */\n  0x00\n    /* \"--CODEGEN--\":41:42   */\n  dup1\n    /* \"--CODEGEN--\":34:46   */\n  revert\n    /* \"--CODEGEN--\":8:10   */\ntag_3:\n    /* \"--CODEGEN--\":62:83   */\n  swap1\n  dup4\n  add\n  swap1\n    /* \"--CODEGEN--\":123:127   */\n  0x20\n    /* \"--CODEGEN--\":114:128   */\n  dup3\n  add\n    /* \"--CODEGEN--\":138:169   */\n  dup6\n  dup2\n  gt\n    /* \"--CODEGEN--\":135:137   */\n  iszero\n  tag_4\n  jumpi\n    /* \"--CODEGEN--\":182:183   */\n  0x00\n    /* \"--CODEGEN--\":179:180   */\n  dup1\n    /* \"--CODEGEN--\":172:184   */\n  revert\n    /* \"--CODEGEN--\":135:137   */\ntag_4:\n    /* \"--CODEGEN--\":213:223   */\n  dup3\n  mload\n    /* \"--CODEGEN--\":261:272   */\n  0x0100000000\n    /* \"--CODEGEN--\":244:273   */\n  dup2\n  gt\n    /* \"--CODEGEN--\":285:328   */\n  dup3\n  dup3\n  add\n    /* \"--CODEGEN--\":282:340   */\n  dup9\n  lt\n    /* \"--CODEGEN--\":233:348   */\n  or\n    /* \"--CODEGEN--\":230:232   */\n  iszero\n  tag_5\n  jumpi\n    /* \"--CODEGEN--\":361:362   */\n  0x00\n    /* \"--CODEGEN--\":358:359   */\n  dup1\n    /* \"--CODEGEN--\":351:363   */\n  revert\n    /* \"--CODEGEN--\":230:232   */\ntag_5:\n    /* \"--CODEGEN--\":372:397   */\n  dup3\n  mstore\n  pop\n    /* \"contracts/INDRACOIN.sol\":3795:4085  constructor(string memory name, string memory symbol ,uint256  totalSupply ) public {... */\n  dup2\n  mload\n    /* \"--CODEGEN--\":420:424   */\n  0x20\n    /* \"--CODEGEN--\":411:425   */\n  swap2\n  dup3\n  add\n  swap3\n    /* \"contracts/INDRACOIN.sol\":3795:4085  constructor(string memory name, string memory symbol ,uint256  totalSupply ) public {... */\n  swap1\n  swap2\n  add\n  swap1\n  dup1\n    /* \"--CODEGEN--\":411:425   */\n  dup4\n    /* \"contracts/INDRACOIN.sol\":3795:4085  constructor(string memory name, string memory symbol ,uint256  totalSupply ) public {... */\n  dup4\n    /* \"--CODEGEN--\":23:24   */\n  0x00\n    /* \"--CODEGEN--\":8:108   */\ntag_6:\n    /* \"--CODEGEN--\":33:36   */\n  dup4\n    /* \"--CODEGEN--\":30:31   */\n  dup2\n    /* \"--CODEGEN--\":27:37   */\n  lt\n    /* \"--CODEGEN--\":8:108   */\n  iszero\n  tag_8\n  jumpi\n    /* \"--CODEGEN--\":90:101   */\n  dup2\n  dup2\n  add\n    /* \"--CODEGEN--\":84:102   */\n  mload\n    /* \"--CODEGEN--\":71:82   */\n  dup4\n  dup3\n  add\n    /* \"--CODEGEN--\":64:103   */\n  mstore\n    /* \"--CODEGEN--\":52:54   */\n  0x20\n    /* \"--CODEGEN--\":45:55   */\n  add\n    /* \"--CODEGEN--\":8:108   */\n  jump(tag_6)\ntag_8:\n    /* \"--CODEGEN--\":12:26   */\n  pop\n    /* \"contracts/INDRACOIN.sol\":3795:4085  constructor(string memory name, string memory symbol ,uint256  totalSupply ) public {... */\n  pop\n  pop\n  pop\n  swap1\n  pop\n  swap1\n  dup2\n  add\n  swap1\n  0x1f\n  and\n  dup1\n  iszero\n  tag_9\n  jumpi\n  dup1\n  dup3\n  sub\n  dup1\n  mload\n  0x01\n  dup4\n  0x20\n  sub\n  0x0100\n  exp\n  sub\n  not\n  and\n  dup2\n  mstore\n  0x20\n  add\n  swap2\n  pop\ntag_9:\n  pop\n  0x40\n  mstore\n  0x20\n  add\n  dup1\n  mload\n  mload(0x40)\n  swap4\n  swap3\n  swap2\n  swap1\n  dup5\n    /* \"--CODEGEN--\":19:30   */\n  0x0100000000\n    /* \"--CODEGEN--\":14:17   */\n  dup3\n    /* \"--CODEGEN--\":11:31   */\n  gt\n    /* \"--CODEGEN--\":8:10   */\n  iszero\n  tag_10\n  jumpi\n    /* \"--CODEGEN--\":44:45   */\n  0x00\n    /* \"--CODEGEN--\":41:42   */\n  dup1\n    /* \"--CODEGEN--\":34:46   */\n  revert\n    /* \"--CODEGEN--\":8:10   */\ntag_10:\n    /* \"--CODEGEN--\":62:83   */\n  swap1\n  dup4\n  add\n  swap1\n    /* \"--CODEGEN--\":123:127   */\n  0x20\n    /* \"--CODEGEN--\":114:128   */\n  dup3\n  add\n    /* \"--CODEGEN--\":138:169   */\n  dup6\n  dup2\n  gt\n    /* \"--CODEGEN--\":135:137   */\n  iszero\n  tag_11\n  jumpi\n    /* \"--CODEGEN--\":182:183   */\n  0x00\n    /* \"--CODEGEN--\":179:180   */\n  dup1\n    /* \"--CODEGEN--\":172:184   */\n  revert\n    /* \"--CODEGEN--\":135:137   */\ntag_11:\n    /* \"--CODEGEN--\":213:223   */\n  dup3\n  mload\n    /* \"--CODEGEN--\":261:272   */\n  0x0100000000\n    /* \"--CODEGEN--\":244:273   */\n  dup2\n  gt\n    /* \"--CODEGEN--\":285:328   */\n  dup3\n  dup3\n  add\n    /* \"--CODEGEN--\":282:340   */\n  dup9\n  lt\n    /* \"--CODEGEN--\":233:348   */\n  or\n    /* \"--CODEGEN--\":230:232   */\n  iszero\n  tag_12\n  jumpi\n    /* \"--CODEGEN--\":361:362   */\n  0x00\n    /* \"--CODEGEN--\":358:359   */\n  dup1\n    /* \"--CODEGEN--\":351:363   */\n  revert\n    /* \"--CODEGEN--\":230:232   */\ntag_12:\n    /* \"--CODEGEN--\":372:397   */\n  dup3\n  mstore\n  pop\n    /* \"contracts/INDRACOIN.sol\":3795:4085  constructor(string memory name, string memory symbol ,uint256  totalSupply ) public {... */\n  dup2\n  mload\n    /* \"--CODEGEN--\":420:424   */\n  0x20\n    /* \"--CODEGEN--\":411:425   */\n  swap2\n  dup3\n  add\n  swap3\n    /* \"contracts/INDRACOIN.sol\":3795:4085  constructor(string memory name, string memory symbol ,uint256  totalSupply ) public {... */\n  swap1\n  swap2\n  add\n  swap1\n  dup1\n    /* \"--CODEGEN--\":411:425   */\n  dup4\n    /* \"contracts/INDRACOIN.sol\":3795:4085  constructor(string memory name, string memory symbol ,uint256  totalSupply ) public {... */\n  dup4\n    /* \"--CODEGEN--\":23:24   */\n  0x00\n    /* \"--CODEGEN--\":8:108   */\ntag_13:\n    /* \"--CODEGEN--\":33:36   */\n  dup4\n    /* \"--CODEGEN--\":30:31   */\n  dup2\n    /* \"--CODEGEN--\":27:37   */\n  lt\n    /* \"--CODEGEN--\":8:108   */\n  iszero\n  tag_15\n  jumpi\n    /* \"--CODEGEN--\":90:101   */\n  dup2\n  dup2\n  add\n    /* \"--CODEGEN--\":84:102   */\n  mload\n    /* \"--CODEGEN--\":71:82   */\n  dup4\n  dup3\n  add\n    /* \"--CODEGEN--\":64:103   */\n  mstore\n    /* \"--CODEGEN--\":52:54   */\n  0x20\n    /* \"--CODEGEN--\":45:55   */\n  add\n    /* \"--CODEGEN--\":8:108   */\n  jump(tag_13)\ntag_15:\n    /* \"--CODEGEN--\":12:26   */\n  pop\n    /* \"contracts/INDRACOIN.sol\":3795:4085  constructor(string memory name, string memory symbol ,uint256  totalSupply ) public {... */\n  pop\n  pop\n  pop\n  swap1\n  pop\n  swap1\n  dup2\n  add\n  swap1\n  0x1f\n  and\n  dup1\n  iszero\n  tag_16\n  jumpi\n  dup1\n  dup3\n  sub\n  dup1\n  mload\n  0x01\n  dup4\n  0x20\n  sub\n  0x0100\n  exp\n  sub\n  not\n  and\n  dup2\n  mstore\n  0x20\n  add\n  swap2\n  pop\ntag_16:\n  pop\n  0x40\n  mstore\n  0x20\n  add\n  mload\n  swap2\n  pop\n    /* \"contracts/INDRACOIN.sol\":2724:2741  address msgSender */\n  0x00\n  swap1\n  pop\n    /* \"contracts/INDRACOIN.sol\":2744:2756  _msgSender() */\n  tag_22\n  sub(shl(0xe0, 0x01), 0x01)\n    /* \"contracts/INDRACOIN.sol\":2744:2754  _msgSender */\n  tag_23\n    /* \"contracts/INDRACOIN.sol\":2744:2756  _msgSender() */\n  and\n  jump\t// in\ntag_22:\n    /* \"contracts/INDRACOIN.sol\":2762:2768  _owner */\n  0x00\n    /* \"contracts/INDRACOIN.sol\":2762:2780  _owner = msgSender */\n  dup1\n  sload\n  not(sub(shl(0xa0, 0x01), 0x01))\n  and\n  sub(shl(0xa0, 0x01), 0x01)\n  dup4\n  and\n  swap1\n  dup2\n  or\n  dup3\n  sstore\n    /* \"contracts/INDRACOIN.sol\":2791:2834  OwnershipTransferred(address(0), msgSender) */\n  mload(0x40)\n    /* \"contracts/INDRACOIN.sol\":2762:2780  _owner = msgSender */\n  swap3\n  swap4\n  pop\n  swap2\n    /* \"contracts/INDRACOIN.sol\":2791:2834  OwnershipTransferred(address(0), msgSender) */\n  0x8be0079c531659141344cd1fd0a4f28419497f9722a3daafe3b4186f6b6457e0\n  swap1\n    /* \"contracts/INDRACOIN.sol\":2762:2768  _owner */\n  dup3\n  swap1\n    /* \"contracts/INDRACOIN.sol\":2791:2834  OwnershipTransferred(address(0), msgSender) */\n  log3\n  pop\n    /* \"contracts/INDRACOIN.sol\":3885:3897  _name = name */\n  dup3\n  mload\n  tag_25\n  swap1\n    /* \"contracts/INDRACOIN.sol\":3885:3890  _name */\n  0x06\n  swap1\n    /* \"contracts/INDRACOIN.sol\":3885:3897  _name = name */\n  0x20\n  dup7\n  add\n  swap1\n  tag_26\n  jump\t// in\ntag_25:\n  pop\n    /* \"contracts/INDRACOIN.sol\":3903:3919  _symbol = symbol */\n  dup2\n  mload\n  tag_27\n  swap1\n    /* \"contracts/INDRACOIN.sol\":3903:3910  _symbol */\n  0x05\n  swap1\n    /* \"contracts/INDRACOIN.sol\":3903:3919  _symbol = symbol */\n  0x20\n  dup6\n  add\n  swap1\n  tag_26\n  jump\t// in\ntag_27:\n  pop\n    /* \"contracts/INDRACOIN.sol\":3925:3934  _decimals */\n  0x04\n    /* \"contracts/INDRACOIN.sol\":3925:3939  _decimals = 18 */\n  dup1\n  sload\n  not(0xff)\n  and\n    /* \"contracts/INDRACOIN.sol\":3937:3939  18 */\n  0x12\n    /* \"contracts/INDRACOIN.sol\":3925:3939  _decimals = 18 */\n  or\n  swap1\n  sstore\n    /* \"contracts/INDRACOIN.sol\":3945:3957  _totalSupply */\n  0x03\n    /* \"contracts/INDRACOIN.sol\":3945:3971  _totalSupply = totalSupply */\n  dup2\n  dup2\n  sstore\n    /* \"contracts/INDRACOIN.sol\":3987:3997  msg.sender */\n  caller\n    /* \"contracts/INDRACOIN.sol\":3925:3934  _decimals */\n  0x00\n    /* \"contracts/INDRACOIN.sol\":3977:3998  _balances[msg.sender] */\n  dup2\n  dup2\n  mstore\n    /* \"contracts/INDRACOIN.sol\":3925:3939  _decimals = 18 */\n  0x01\n    /* \"contracts/INDRACOIN.sol\":3977:3998  _balances[msg.sender] */\n  0x20\n  swap1\n  dup2\n  mstore\n  0x40\n  dup1\n  dup4\n  keccak256\n    /* \"contracts/INDRACOIN.sol\":4001:4022  address(this).balance */\n  selfbalance\n    /* \"contracts/INDRACOIN.sol\":3977:4022  _balances[msg.sender] = address(this).balance */\n  swap1\n  sstore\n    /* \"contracts/INDRACOIN.sol\":4067:4079  _totalSupply */\n  swap4\n  sload\n    /* \"contracts/INDRACOIN.sol\":4034:4080  Transfer(address(0), msg.sender, _totalSupply) */\n  dup5\n  mload\n  swap1\n  dup2\n  mstore\n  swap4\n  mload\n    /* \"contracts/INDRACOIN.sol\":3987:3997  msg.sender */\n  swap3\n  swap4\n    /* \"contracts/INDRACOIN.sol\":3925:3934  _decimals */\n  swap2\n  swap3\n    /* \"contracts/INDRACOIN.sol\":4034:4080  Transfer(address(0), msg.sender, _totalSupply) */\n  0xddf252ad1be2c89b69c2b068fc378daa952ba7f163c4a11628f55a4df523b3ef\n  swap3\n  dup2\n  swap1\n  sub\n  swap1\n  swap2\n  add\n  swap1\n  log3\n    /* \"contracts/INDRACOIN.sol\":3795:4085  constructor(string memory name, string memory symbol ,uint256  totalSupply ) public {... */\n  pop\n  pop\n  pop\n    /* \"contracts/INDRACOIN.sol\":3485:7631  contract INDRA is Context, IINDRA, Ownable {... */\n  jump(tag_28)\n    /* \"contracts/INDRACOIN.sol\":1037:1127  function _msgSender() internal view returns (address payable) {... */\ntag_23:\n    /* \"contracts/INDRACOIN.sol\":1112:1122  msg.sender */\n  caller\n    /* \"contracts/INDRACOIN.sol\":1037:1127  function _msgSender() internal view returns (address payable) {... */\ntag_29:\n  swap1\n  jump\t// out\n    /* \"contracts/INDRACOIN.sol\":3485:7631  contract INDRA is Context, IINDRA, Ownable {... */\ntag_26:\n  dup3\n  dup1\n  sload\n  0x01\n  dup2\n  0x01\n  and\n  iszero\n  0x0100\n  mul\n  sub\n  and\n  0x02\n  swap1\n  div\n  swap1\n  0x00\n  mstore\n  keccak256(0x00, 0x20)\n  swap1\n  0x1f\n  add\n  0x20\n  swap1\n  div\n  dup2\n  add\n  swap3\n  dup3\n  0x1f\n  lt\n  tag_31\n  jumpi\n  dup1\n  mload\n  not(0xff)\n  and\n  dup4\n  dup1\n  add\n  or\n  dup6\n  sstore\n  jump(tag_33)\ntag_31:\n  dup3\n  dup1\n  add\n  0x01\n  add\n  dup6\n  sstore\n  dup3\n  iszero\n  tag_33\n  jumpi\n  swap2\n  dup3\n  add\ntag_32:\n  dup3\n  dup2\n  gt\n  iszero\n  tag_33\n  jumpi\n  dup3\n  mload\n  dup3\n  sstore\n  swap2\n  0x20\n  add\n  swap2\n  swap1\n  0x01\n  add\n  swap1\n  jump(tag_32)\ntag_33:\n  pop\n  tag_34\n  swap3\n  swap2\n  pop\n  tag_35\n  jump\t// in\ntag_34:\n  pop\n  swap1\n  jump\t// out\ntag_35:\n  tag_29\n  swap2\n  swap1\ntag_37:\n  dup1\n  dup3\n  gt\n  iszero\n  tag_34\n  jumpi\n  0x00\n  dup2\n  sstore\n  0x01\n  add\n  jump(tag_37)\ntag_28:\n  dataSize(sub_0)\n  dup1\n  dataOffset(sub_0)\n  0x00\n  codecopy\n  0x00\n  return\nstop\n\nsub_0: assembly {\n        /* \"contracts/INDRACOIN.sol\":3485:7631  contract INDRA is Context, IINDRA, Ownable {... */\n      mstore(0x40, 0x80)\n      jumpi(tag_1, lt(calldatasize, 0x04))\n      shr(0xe0, calldataload(0x00))\n      dup1\n      0x893d20e8\n      gt\n      tag_21\n      jumpi\n      dup1\n      0xa9059cbb\n      gt\n      tag_22\n      jumpi\n      dup1\n      0xa9059cbb\n      eq\n      tag_16\n      jumpi\n      dup1\n      0xb09f1266\n      eq\n      tag_17\n      jumpi\n      dup1\n      0xd28d8852\n      eq\n      tag_18\n      jumpi\n      dup1\n      0xdd62ed3e\n      eq\n      tag_19\n      jumpi\n      dup1\n      0xf2fde38b\n      eq\n      tag_20\n      jumpi\n      jump(tag_1)\n    tag_22:\n      dup1\n      0x893d20e8\n      eq\n      tag_11\n      jumpi\n      dup1\n      0x8da5cb5b\n      eq\n      tag_12\n      jumpi\n      dup1\n      0x95d89b41\n      eq\n      tag_13\n      jumpi\n      dup1\n      0xa0712d68\n      eq\n      tag_14\n      jumpi\n      dup1\n      0xa457c2d7\n      eq\n      tag_15\n      jumpi\n      jump(tag_1)\n    tag_21:\n      dup1\n      0x313ce567\n      gt\n      tag_23\n      jumpi\n      dup1\n      0x313ce567\n      eq\n      tag_6\n      jumpi\n      dup1\n      0x32424aa3\n      eq\n      tag_7\n      jumpi\n      dup1\n      0x39509351\n      eq\n      tag_8\n      jumpi\n      dup1\n      0x70a08231\n      eq\n      tag_9\n      jumpi\n      dup1\n      0x715018a6\n      eq\n      tag_10\n      jumpi\n      jump(tag_1)\n    tag_23:\n      dup1\n      0x06fdde03\n      eq\n      tag_2\n      jumpi\n      dup1\n      0x095ea7b3\n      eq\n      tag_3\n      jumpi\n      dup1\n      0x18160ddd\n      eq\n      tag_4\n      jumpi\n      dup1\n      0x23b872dd\n      eq\n      tag_5\n      jumpi\n    tag_1:\n        /* \"contracts/INDRACOIN.sol\":4138:4148  msg.sender */\n      caller\n        /* \"contracts/INDRACOIN.sol\":4128:4149  _balances[msg.sender] */\n      0x00\n      swap1\n      dup2\n      mstore\n        /* \"contracts/INDRACOIN.sol\":4128:4137  _balances */\n      0x01\n        /* \"contracts/INDRACOIN.sol\":4128:4149  _balances[msg.sender] */\n      0x20\n      mstore\n      0x40\n      swap1\n      keccak256\n        /* \"contracts/INDRACOIN.sol\":4152:4173  address(this).balance */\n      selfbalance\n        /* \"contracts/INDRACOIN.sol\":4128:4173  _balances[msg.sender] = address(this).balance */\n      swap1\n      sstore\n        /* \"contracts/INDRACOIN.sol\":3485:7631  contract INDRA is Context, IINDRA, Ownable {... */\n      stop\n        /* \"contracts/INDRACOIN.sol\":4436:4513  function name() external view returns (string memory) {... */\n    tag_2:\n      callvalue\n        /* \"--CODEGEN--\":8:17   */\n      dup1\n        /* \"--CODEGEN--\":5:7   */\n      iszero\n      tag_26\n      jumpi\n        /* \"--CODEGEN--\":30:31   */\n      0x00\n        /* \"--CODEGEN--\":27:28   */\n      dup1\n        /* \"--CODEGEN--\":20:32   */\n      revert\n        /* \"--CODEGEN--\":5:7   */\n    tag_26:\n        /* \"contracts/INDRACOIN.sol\":4436:4513  function name() external view returns (string memory) {... */\n      pop\n      tag_27\n      tag_28\n      jump\t// in\n    tag_27:\n      0x40\n      dup1\n      mload\n      0x20\n      dup1\n      dup3\n      mstore\n      dup4\n      mload\n      dup2\n      dup4\n      add\n      mstore\n      dup4\n      mload\n      swap2\n      swap3\n      dup4\n      swap3\n      swap1\n      dup4\n      add\n      swap2\n      dup6\n      add\n      swap1\n      dup1\n      dup4\n      dup4\n      0x00\n        /* \"--CODEGEN--\":8:108   */\n    tag_29:\n        /* \"--CODEGEN--\":33:36   */\n      dup4\n        /* \"--CODEGEN--\":30:31   */\n      dup2\n        /* \"--CODEGEN--\":27:37   */\n      lt\n        /* \"--CODEGEN--\":8:108   */\n      iszero\n      tag_31\n      jumpi\n        /* \"--CODEGEN--\":90:101   */\n      dup2\n      dup2\n      add\n        /* \"--CODEGEN--\":84:102   */\n      mload\n        /* \"--CODEGEN--\":71:82   */\n      dup4\n      dup3\n      add\n        /* \"--CODEGEN--\":64:103   */\n      mstore\n        /* \"--CODEGEN--\":52:54   */\n      0x20\n        /* \"--CODEGEN--\":45:55   */\n      add\n        /* \"--CODEGEN--\":8:108   */\n      jump(tag_29)\n    tag_31:\n        /* \"--CODEGEN--\":12:26   */\n      pop\n        /* \"contracts/INDRACOIN.sol\":4436:4513  function name() external view returns (string memory) {... */\n      pop\n      pop\n      pop\n      swap1\n      pop\n      swap1\n      dup2\n      add\n      swap1\n      0x1f\n      and\n      dup1\n      iszero\n      tag_32\n      jumpi\n      dup1\n      dup3\n      sub\n      dup1\n      mload\n      0x01\n      dup4\n      0x20\n      sub\n      0x0100\n      exp\n      sub\n      not\n      and\n      dup2\n      mstore\n      0x20\n      add\n      swap2\n      pop\n    tag_32:\n      pop\n      swap3\n      pop\n      pop\n      pop\n      mload(0x40)\n      dup1\n      swap2\n      sub\n      swap1\n      return\n        /* \"contracts/INDRACOIN.sol\":5005:5146  function approve(address spender, uint256 amount) external returns (bool) {... */\n    tag_3:\n      callvalue\n        /* \"--CODEGEN--\":8:17   */\n      dup1\n        /* \"--CODEGEN--\":5:7   */\n      iszero\n      tag_33\n      jumpi\n        /* \"--CODEGEN--\":30:31   */\n      0x00\n        /* \"--CODEGEN--\":27:28   */\n      dup1\n        /* \"--CODEGEN--\":20:32   */\n      revert\n        /* \"--CODEGEN--\":5:7   */\n    tag_33:\n        /* \"contracts/INDRACOIN.sol\":5005:5146  function approve(address spender, uint256 amount) external returns (bool) {... */\n      pop\n      tag_34\n      0x04\n      dup1\n      calldatasize\n      sub\n        /* \"--CODEGEN--\":13:15   */\n      0x40\n        /* \"--CODEGEN--\":8:11   */\n      dup2\n        /* \"--CODEGEN--\":5:16   */\n      lt\n        /* \"--CODEGEN--\":2:4   */\n      iszero\n      tag_35\n      jumpi\n        /* \"--CODEGEN--\":29:30   */\n      0x00\n        /* \"--CODEGEN--\":26:27   */\n      dup1\n        /* \"--CODEGEN--\":19:31   */\n      revert\n        /* \"--CODEGEN--\":2:4   */\n    tag_35:\n      pop\n      sub(shl(0xa0, 0x01), 0x01)\n        /* \"contracts/INDRACOIN.sol\":5005:5146  function approve(address spender, uint256 amount) external returns (bool) {... */\n      dup2\n      calldataload\n      and\n      swap1\n      0x20\n      add\n      calldataload\n      tag_36\n      jump\t// in\n    tag_34:\n      0x40\n      dup1\n      mload\n      swap2\n      iszero\n      iszero\n      dup3\n      mstore\n      mload\n      swap1\n      dup2\n      swap1\n      sub\n      0x20\n      add\n      swap1\n      return\n        /* \"contracts/INDRACOIN.sol\":4520:4605  function totalSupply() external view returns (uint256) {... */\n    tag_4:\n      callvalue\n        /* \"--CODEGEN--\":8:17   */\n      dup1\n        /* \"--CODEGEN--\":5:7   */\n      iszero\n      tag_37\n      jumpi\n        /* \"--CODEGEN--\":30:31   */\n      0x00\n        /* \"--CODEGEN--\":27:28   */\n      dup1\n        /* \"--CODEGEN--\":20:32   */\n      revert\n        /* \"--CODEGEN--\":5:7   */\n    tag_37:\n        /* \"contracts/INDRACOIN.sol\":4520:4605  function totalSupply() external view returns (uint256) {... */\n      pop\n      tag_38\n      tag_39\n      jump\t// in\n    tag_38:\n      0x40\n      dup1\n      mload\n      swap2\n      dup3\n      mstore\n      mload\n      swap1\n      dup2\n      swap1\n      sub\n      0x20\n      add\n      swap1\n      return\n        /* \"contracts/INDRACOIN.sol\":5151:5439  function transferFrom(address sender, address recipient, uint256 amount) external returns (bool) {... */\n    tag_5:\n      callvalue\n        /* \"--CODEGEN--\":8:17   */\n      dup1\n        /* \"--CODEGEN--\":5:7   */\n      iszero\n      tag_40\n      jumpi\n        /* \"--CODEGEN--\":30:31   */\n      0x00\n        /* \"--CODEGEN--\":27:28   */\n      dup1\n        /* \"--CODEGEN--\":20:32   */\n      revert\n        /* \"--CODEGEN--\":5:7   */\n    tag_40:\n        /* \"contracts/INDRACOIN.sol\":5151:5439  function transferFrom(address sender, address recipient, uint256 amount) external returns (bool) {... */\n      pop\n      tag_34\n      0x04\n      dup1\n      calldatasize\n      sub\n        /* \"--CODEGEN--\":13:15   */\n      0x60\n        /* \"--CODEGEN--\":8:11   */\n      dup2\n        /* \"--CODEGEN--\":5:16   */\n      lt\n        /* \"--CODEGEN--\":2:4   */\n      iszero\n      tag_42\n      jumpi\n        /* \"--CODEGEN--\":29:30   */\n      0x00\n        /* \"--CODEGEN--\":26:27   */\n      dup1\n        /* \"--CODEGEN--\":19:31   */\n      revert\n        /* \"--CODEGEN--\":2:4   */\n    tag_42:\n      pop\n      sub(shl(0xa0, 0x01), 0x01)\n        /* \"contracts/INDRACOIN.sol\":5151:5439  function transferFrom(address sender, address recipient, uint256 amount) external returns (bool) {... */\n      dup2\n      calldataload\n      dup2\n      and\n      swap2\n      0x20\n      dup2\n      add\n      calldataload\n      swap1\n      swap2\n      and\n      swap1\n      0x40\n      add\n      calldataload\n      tag_43\n      jump\t// in\n        /* \"contracts/INDRACOIN.sol\":4267:4346  function decimals() external view returns (uint256) {... */\n    tag_6:\n      callvalue\n        /* \"--CODEGEN--\":8:17   */\n      dup1\n        /* \"--CODEGEN--\":5:7   */\n      iszero\n      tag_44\n      jumpi\n        /* \"--CODEGEN--\":30:31   */\n      0x00\n        /* \"--CODEGEN--\":27:28   */\n      dup1\n        /* \"--CODEGEN--\":20:32   */\n      revert\n        /* \"--CODEGEN--\":5:7   */\n    tag_44:\n        /* \"contracts/INDRACOIN.sol\":4267:4346  function decimals() external view returns (uint256) {... */\n      pop\n      tag_38\n      tag_46\n      jump\t// in\n        /* \"contracts/INDRACOIN.sol\":3720:3742  uint8 public _decimals */\n    tag_7:\n      callvalue\n        /* \"--CODEGEN--\":8:17   */\n      dup1\n        /* \"--CODEGEN--\":5:7   */\n      iszero\n      tag_47\n      jumpi\n        /* \"--CODEGEN--\":30:31   */\n      0x00\n        /* \"--CODEGEN--\":27:28   */\n      dup1\n        /* \"--CODEGEN--\":20:32   */\n      revert\n        /* \"--CODEGEN--\":5:7   */\n    tag_47:\n        /* \"contracts/INDRACOIN.sol\":3720:3742  uint8 public _decimals */\n      pop\n      tag_48\n      tag_49\n      jump\t// in\n    tag_48:\n      0x40\n      dup1\n      mload\n      0xff\n      swap1\n      swap3\n      and\n      dup3\n      mstore\n      mload\n      swap1\n      dup2\n      swap1\n      sub\n      0x20\n      add\n      swap1\n      return\n        /* \"contracts/INDRACOIN.sol\":5445:5642  function increaseAllowance(address spender, uint256 addedValue) public returns (bool) {... */\n    tag_8:\n      callvalue\n        /* \"--CODEGEN--\":8:17   */\n      dup1\n        /* \"--CODEGEN--\":5:7   */\n      iszero\n      tag_50\n      jumpi\n        /* \"--CODEGEN--\":30:31   */\n      0x00\n        /* \"--CODEGEN--\":27:28   */\n      dup1\n        /* \"--CODEGEN--\":20:32   */\n      revert\n        /* \"--CODEGEN--\":5:7   */\n    tag_50:\n        /* \"contracts/INDRACOIN.sol\":5445:5642  function increaseAllowance(address spender, uint256 addedValue) public returns (bool) {... */\n      pop\n      tag_34\n      0x04\n      dup1\n      calldatasize\n      sub\n        /* \"--CODEGEN--\":13:15   */\n      0x40\n        /* \"--CODEGEN--\":8:11   */\n      dup2\n        /* \"--CODEGEN--\":5:16   */\n      lt\n        /* \"--CODEGEN--\":2:4   */\n      iszero\n      tag_52\n      jumpi\n        /* \"--CODEGEN--\":29:30   */\n      0x00\n        /* \"--CODEGEN--\":26:27   */\n      dup1\n        /* \"--CODEGEN--\":19:31   */\n      revert\n        /* \"--CODEGEN--\":2:4   */\n    tag_52:\n      pop\n      sub(shl(0xa0, 0x01), 0x01)\n        /* \"contracts/INDRACOIN.sol\":5445:5642  function increaseAllowance(address spender, uint256 addedValue) public returns (bool) {... */\n      dup2\n      calldataload\n      and\n      swap1\n      0x20\n      add\n      calldataload\n      tag_53\n      jump\t// in\n        /* \"contracts/INDRACOIN.sol\":4610:4714  function balanceOf(address account) external view returns (uint256) {... */\n    tag_9:\n      callvalue\n        /* \"--CODEGEN--\":8:17   */\n      dup1\n        /* \"--CODEGEN--\":5:7   */\n      iszero\n      tag_54\n      jumpi\n        /* \"--CODEGEN--\":30:31   */\n      0x00\n        /* \"--CODEGEN--\":27:28   */\n      dup1\n        /* \"--CODEGEN--\":20:32   */\n      revert\n        /* \"--CODEGEN--\":5:7   */\n    tag_54:\n        /* \"contracts/INDRACOIN.sol\":4610:4714  function balanceOf(address account) external view returns (uint256) {... */\n      pop\n      tag_38\n      0x04\n      dup1\n      calldatasize\n      sub\n        /* \"--CODEGEN--\":13:15   */\n      0x20\n        /* \"--CODEGEN--\":8:11   */\n      dup2\n        /* \"--CODEGEN--\":5:16   */\n      lt\n        /* \"--CODEGEN--\":2:4   */\n      iszero\n      tag_56\n      jumpi\n        /* \"--CODEGEN--\":29:30   */\n      0x00\n        /* \"--CODEGEN--\":26:27   */\n      dup1\n        /* \"--CODEGEN--\":19:31   */\n      revert\n        /* \"--CODEGEN--\":2:4   */\n    tag_56:\n      pop\n        /* \"contracts/INDRACOIN.sol\":4610:4714  function balanceOf(address account) external view returns (uint256) {... */\n      calldataload\n      sub(shl(0xa0, 0x01), 0x01)\n      and\n      tag_57\n      jump\t// in\n        /* \"contracts/INDRACOIN.sol\":3031:3158  function renounceOwnership() public onlyOwner {... */\n    tag_10:\n      callvalue\n        /* \"--CODEGEN--\":8:17   */\n      dup1\n        /* \"--CODEGEN--\":5:7   */\n      iszero\n      tag_58\n      jumpi\n        /* \"--CODEGEN--\":30:31   */\n      0x00\n        /* \"--CODEGEN--\":27:28   */\n      dup1\n        /* \"--CODEGEN--\":20:32   */\n      revert\n        /* \"--CODEGEN--\":5:7   */\n    tag_58:\n        /* \"contracts/INDRACOIN.sol\":3031:3158  function renounceOwnership() public onlyOwner {... */\n      pop\n      tag_59\n      tag_60\n      jump\t// in\n    tag_59:\n      stop\n        /* \"contracts/INDRACOIN.sol\":4186:4263  function getOwner() external view returns (address) {... */\n    tag_11:\n      callvalue\n        /* \"--CODEGEN--\":8:17   */\n      dup1\n        /* \"--CODEGEN--\":5:7   */\n      iszero\n      tag_61\n      jumpi\n        /* \"--CODEGEN--\":30:31   */\n      0x00\n        /* \"--CODEGEN--\":27:28   */\n      dup1\n        /* \"--CODEGEN--\":20:32   */\n      revert\n        /* \"--CODEGEN--\":5:7   */\n    tag_61:\n        /* \"contracts/INDRACOIN.sol\":4186:4263  function getOwner() external view returns (address) {... */\n      pop\n      tag_62\n      tag_63\n      jump\t// in\n    tag_62:\n      0x40\n      dup1\n      mload\n      sub(shl(0xa0, 0x01), 0x01)\n      swap1\n      swap3\n      and\n      dup3\n      mstore\n      mload\n      swap1\n      dup2\n      swap1\n      sub\n      0x20\n      add\n      swap1\n      return\n        /* \"contracts/INDRACOIN.sol\":2843:2914  function owner() public view returns (address) {... */\n    tag_12:\n      callvalue\n        /* \"--CODEGEN--\":8:17   */\n      dup1\n        /* \"--CODEGEN--\":5:7   */\n      iszero\n      tag_64\n      jumpi\n        /* \"--CODEGEN--\":30:31   */\n      0x00\n        /* \"--CODEGEN--\":27:28   */\n      dup1\n        /* \"--CODEGEN--\":20:32   */\n      revert\n        /* \"--CODEGEN--\":5:7   */\n    tag_64:\n        /* \"contracts/INDRACOIN.sol\":2843:2914  function owner() public view returns (address) {... */\n      pop\n      tag_62\n      tag_66\n      jump\t// in\n        /* \"contracts/INDRACOIN.sol\":4350:4431  function symbol() external view returns (string memory) {... */\n    tag_13:\n      callvalue\n        /* \"--CODEGEN--\":8:17   */\n      dup1\n        /* \"--CODEGEN--\":5:7   */\n      iszero\n      tag_67\n      jumpi\n        /* \"--CODEGEN--\":30:31   */\n      0x00\n        /* \"--CODEGEN--\":27:28   */\n      dup1\n        /* \"--CODEGEN--\":20:32   */\n      revert\n        /* \"--CODEGEN--\":5:7   */\n    tag_67:\n        /* \"contracts/INDRACOIN.sol\":4350:4431  function symbol() external view returns (string memory) {... */\n      pop\n      tag_27\n      tag_69\n      jump\t// in\n        /* \"contracts/INDRACOIN.sol\":5903:6020  function mint(uint256 amount) public onlyOwner returns (bool) {... */\n    tag_14:\n      callvalue\n        /* \"--CODEGEN--\":8:17   */\n      dup1\n        /* \"--CODEGEN--\":5:7   */\n      iszero\n      tag_74\n      jumpi\n        /* \"--CODEGEN--\":30:31   */\n      0x00\n        /* \"--CODEGEN--\":27:28   */\n      dup1\n        /* \"--CODEGEN--\":20:32   */\n      revert\n        /* \"--CODEGEN--\":5:7   */\n    tag_74:\n        /* \"contracts/INDRACOIN.sol\":5903:6020  function mint(uint256 amount) public onlyOwner returns (bool) {... */\n      pop\n      tag_34\n      0x04\n      dup1\n      calldatasize\n      sub\n        /* \"--CODEGEN--\":13:15   */\n      0x20\n        /* \"--CODEGEN--\":8:11   */\n      dup2\n        /* \"--CODEGEN--\":5:16   */\n      lt\n        /* \"--CODEGEN--\":2:4   */\n      iszero\n      tag_76\n      jumpi\n        /* \"--CODEGEN--\":29:30   */\n      0x00\n        /* \"--CODEGEN--\":26:27   */\n      dup1\n        /* \"--CODEGEN--\":19:31   */\n      revert\n        /* \"--CODEGEN--\":2:4   */\n    tag_76:\n      pop\n        /* \"contracts/INDRACOIN.sol\":5903:6020  function mint(uint256 amount) public onlyOwner returns (bool) {... */\n      calldataload\n      tag_77\n      jump\t// in\n        /* \"contracts/INDRACOIN.sol\":5649:5897  function decreaseAllowance(address spender, uint256 subtractedValue) public returns (bool) {... */\n    tag_15:\n      callvalue\n        /* \"--CODEGEN--\":8:17   */\n      dup1\n        /* \"--CODEGEN--\":5:7   */\n      iszero\n      tag_78\n      jumpi\n        /* \"--CODEGEN--\":30:31   */\n      0x00\n        /* \"--CODEGEN--\":27:28   */\n      dup1\n        /* \"--CODEGEN--\":20:32   */\n      revert\n        /* \"--CODEGEN--\":5:7   */\n    tag_78:\n        /* \"contracts/INDRACOIN.sol\":5649:5897  function decreaseAllowance(address spender, uint256 subtractedValue) public returns (bool) {... */\n      pop\n      tag_34\n      0x04\n      dup1\n      calldatasize\n      sub\n        /* \"--CODEGEN--\":13:15   */\n      0x40\n        /* \"--CODEGEN--\":8:11   */\n      dup2\n        /* \"--CODEGEN--\":5:16   */\n      lt\n        /* \"--CODEGEN--\":2:4   */\n      iszero\n      tag_80\n      jumpi\n        /* \"--CODEGEN--\":29:30   */\n      0x00\n        /* \"--CODEGEN--\":26:27   */\n      dup1\n        /* \"--CODEGEN--\":19:31   */\n      revert\n        /* \"--CODEGEN--\":2:4   */\n    tag_80:\n      pop\n      sub(shl(0xa0, 0x01), 0x01)\n        /* \"contracts/INDRACOIN.sol\":5649:5897  function decreaseAllowance(address spender, uint256 subtractedValue) public returns (bool) {... */\n      dup2\n      calldataload\n      and\n      swap1\n      0x20\n      add\n      calldataload\n      tag_81\n      jump\t// in\n        /* \"contracts/INDRACOIN.sol\":4719:4866  function transfer(address recipient, uint256 amount) external returns (bool) {... */\n    tag_16:\n      callvalue\n        /* \"--CODEGEN--\":8:17   */\n      dup1\n        /* \"--CODEGEN--\":5:7   */\n      iszero\n      tag_82\n      jumpi\n        /* \"--CODEGEN--\":30:31   */\n      0x00\n        /* \"--CODEGEN--\":27:28   */\n      dup1\n        /* \"--CODEGEN--\":20:32   */\n      revert\n        /* \"--CODEGEN--\":5:7   */\n    tag_82:\n        /* \"contracts/INDRACOIN.sol\":4719:4866  function transfer(address recipient, uint256 amount) external returns (bool) {... */\n      pop\n      tag_34\n      0x04\n      dup1\n      calldatasize\n      sub\n        /* \"--CODEGEN--\":13:15   */\n      0x40\n        /* \"--CODEGEN--\":8:11   */\n      dup2\n        /* \"--CODEGEN--\":5:16   */\n      lt\n        /* \"--CODEGEN--\":2:4   */\n      iszero\n      tag_84\n      jumpi\n        /* \"--CODEGEN--\":29:30   */\n      0x00\n        /* \"--CODEGEN--\":26:27   */\n      dup1\n        /* \"--CODEGEN--\":19:31   */\n      revert\n        /* \"--CODEGEN--\":2:4   */\n    tag_84:\n      pop\n      sub(shl(0xa0, 0x01), 0x01)\n        /* \"contracts/INDRACOIN.sol\":4719:4866  function transfer(address recipient, uint256 amount) external returns (bool) {... */\n      dup2\n      calldataload\n      and\n      swap1\n      0x20\n      add\n      calldataload\n      tag_85\n      jump\t// in\n        /* \"contracts/INDRACOIN.sol\":3746:3767  string public _symbol */\n    tag_17:\n      callvalue\n        /* \"--CODEGEN--\":8:17   */\n      dup1\n        /* \"--CODEGEN--\":5:7   */\n      iszero\n      tag_86\n      jumpi\n        /* \"--CODEGEN--\":30:31   */\n      0x00\n        /* \"--CODEGEN--\":27:28   */\n      dup1\n        /* \"--CODEGEN--\":20:32   */\n      revert\n        /* \"--CODEGEN--\":5:7   */\n    tag_86:\n        /* \"contracts/INDRACOIN.sol\":3746:3767  string public _symbol */\n      pop\n      tag_27\n      tag_88\n      jump\t// in\n        /* \"contracts/INDRACOIN.sol\":3771:3790  string public _name */\n    tag_18:\n      callvalue\n        /* \"--CODEGEN--\":8:17   */\n      dup1\n        /* \"--CODEGEN--\":5:7   */\n      iszero\n      tag_93\n      jumpi\n        /* \"--CODEGEN--\":30:31   */\n      0x00\n        /* \"--CODEGEN--\":27:28   */\n      dup1\n        /* \"--CODEGEN--\":20:32   */\n      revert\n        /* \"--CODEGEN--\":5:7   */\n    tag_93:\n        /* \"contracts/INDRACOIN.sol\":3771:3790  string public _name */\n      pop\n      tag_27\n      tag_95\n      jump\t// in\n        /* \"contracts/INDRACOIN.sol\":4871:4999  function allowance(address owner, address spender) external view returns (uint256) {... */\n    tag_19:\n      callvalue\n        /* \"--CODEGEN--\":8:17   */\n      dup1\n        /* \"--CODEGEN--\":5:7   */\n      iszero\n      tag_100\n      jumpi\n        /* \"--CODEGEN--\":30:31   */\n      0x00\n        /* \"--CODEGEN--\":27:28   */\n      dup1\n        /* \"--CODEGEN--\":20:32   */\n      revert\n        /* \"--CODEGEN--\":5:7   */\n    tag_100:\n        /* \"contracts/INDRACOIN.sol\":4871:4999  function allowance(address owner, address spender) external view returns (uint256) {... */\n      pop\n      tag_38\n      0x04\n      dup1\n      calldatasize\n      sub\n        /* \"--CODEGEN--\":13:15   */\n      0x40\n        /* \"--CODEGEN--\":8:11   */\n      dup2\n        /* \"--CODEGEN--\":5:16   */\n      lt\n        /* \"--CODEGEN--\":2:4   */\n      iszero\n      tag_102\n      jumpi\n        /* \"--CODEGEN--\":29:30   */\n      0x00\n        /* \"--CODEGEN--\":26:27   */\n      dup1\n        /* \"--CODEGEN--\":19:31   */\n      revert\n        /* \"--CODEGEN--\":2:4   */\n    tag_102:\n      pop\n      sub(shl(0xa0, 0x01), 0x01)\n        /* \"contracts/INDRACOIN.sol\":4871:4999  function allowance(address owner, address spender) external view returns (uint256) {... */\n      dup2\n      calldataload\n      dup2\n      and\n      swap2\n      0x20\n      add\n      calldataload\n      and\n      tag_103\n      jump\t// in\n        /* \"contracts/INDRACOIN.sol\":3165:3266  function transferOwnership(address newOwner) public onlyOwner {... */\n    tag_20:\n      callvalue\n        /* \"--CODEGEN--\":8:17   */\n      dup1\n        /* \"--CODEGEN--\":5:7   */\n      iszero\n      tag_104\n      jumpi\n        /* \"--CODEGEN--\":30:31   */\n      0x00\n        /* \"--CODEGEN--\":27:28   */\n      dup1\n        /* \"--CODEGEN--\":20:32   */\n      revert\n        /* \"--CODEGEN--\":5:7   */\n    tag_104:\n        /* \"contracts/INDRACOIN.sol\":3165:3266  function transferOwnership(address newOwner) public onlyOwner {... */\n      pop\n      tag_59\n      0x04\n      dup1\n      calldatasize\n      sub\n        /* \"--CODEGEN--\":13:15   */\n      0x20\n        /* \"--CODEGEN--\":8:11   */\n      dup2\n        /* \"--CODEGEN--\":5:16   */\n      lt\n        /* \"--CODEGEN--\":2:4   */\n      iszero\n      tag_106\n      jumpi\n        /* \"--CODEGEN--\":29:30   */\n      0x00\n        /* \"--CODEGEN--\":26:27   */\n      dup1\n        /* \"--CODEGEN--\":19:31   */\n      revert\n        /* \"--CODEGEN--\":2:4   */\n    tag_106:\n      pop\n        /* \"contracts/INDRACOIN.sol\":3165:3266  function transferOwnership(address newOwner) public onlyOwner {... */\n      calldataload\n      sub(shl(0xa0, 0x01), 0x01)\n      and\n      tag_107\n      jump\t// in\n        /* \"contracts/INDRACOIN.sol\":4436:4513  function name() external view returns (string memory) {... */\n    tag_28:\n        /* \"contracts/INDRACOIN.sol\":4503:4508  _name */\n      0x06\n        /* \"contracts/INDRACOIN.sol\":4496:4508  return _name */\n      dup1\n      sload\n      0x40\n      dup1\n      mload\n      0x20\n      0x1f\n      0x02\n      not(0x00)\n      0x0100\n      0x01\n      dup9\n      and\n      iszero\n      mul\n      add\n      swap1\n      swap6\n      and\n      swap5\n      swap1\n      swap5\n      div\n      swap4\n      dup5\n      add\n      dup2\n      swap1\n      div\n      dup2\n      mul\n      dup3\n      add\n      dup2\n      add\n      swap1\n      swap3\n      mstore\n      dup3\n      dup2\n      mstore\n        /* \"contracts/INDRACOIN.sol\":4475:4488  string memory */\n      0x60\n      swap4\n        /* \"contracts/INDRACOIN.sol\":4496:4508  return _name */\n      swap1\n      swap3\n        /* \"contracts/INDRACOIN.sol\":4503:4508  _name */\n      swap1\n      swap2\n        /* \"contracts/INDRACOIN.sol\":4496:4508  return _name */\n      dup4\n      add\n        /* \"contracts/INDRACOIN.sol\":4503:4508  _name */\n      dup3\n        /* \"contracts/INDRACOIN.sol\":4496:4508  return _name */\n      dup3\n      dup1\n      iszero\n      tag_109\n      jumpi\n      dup1\n      0x1f\n      lt\n      tag_110\n      jumpi\n      0x0100\n      dup1\n      dup4\n      sload\n      div\n      mul\n      dup4\n      mstore\n      swap2\n      0x20\n      add\n      swap2\n      jump(tag_109)\n    tag_110:\n      dup3\n      add\n      swap2\n      swap1\n      0x00\n      mstore\n      keccak256(0x00, 0x20)\n      swap1\n    tag_111:\n      dup2\n      sload\n      dup2\n      mstore\n      swap1\n      0x01\n      add\n      swap1\n      0x20\n      add\n      dup1\n      dup4\n      gt\n      tag_111\n      jumpi\n      dup3\n      swap1\n      sub\n      0x1f\n      and\n      dup3\n      add\n      swap2\n    tag_109:\n      pop\n      pop\n      pop\n      pop\n      pop\n      swap1\n      pop\n        /* \"contracts/INDRACOIN.sol\":4436:4513  function name() external view returns (string memory) {... */\n      swap1\n      jump\t// out\n        /* \"contracts/INDRACOIN.sol\":5005:5146  function approve(address spender, uint256 amount) external returns (bool) {... */\n    tag_36:\n        /* \"contracts/INDRACOIN.sol\":5073:5077  bool */\n      0x00\n        /* \"contracts/INDRACOIN.sol\":5085:5124  _approve(_msgSender(), spender, amount) */\n      tag_113\n        /* \"contracts/INDRACOIN.sol\":5094:5106  _msgSender() */\n      tag_114\n        /* \"contracts/INDRACOIN.sol\":5094:5104  _msgSender */\n      tag_115\n        /* \"contracts/INDRACOIN.sol\":5094:5106  _msgSender() */\n      jump\t// in\n    tag_114:\n        /* \"contracts/INDRACOIN.sol\":5108:5115  spender */\n      dup5\n        /* \"contracts/INDRACOIN.sol\":5117:5123  amount */\n      dup5\n        /* \"contracts/INDRACOIN.sol\":5085:5093  _approve */\n      tag_116\n        /* \"contracts/INDRACOIN.sol\":5085:5124  _approve(_msgSender(), spender, amount) */\n      jump\t// in\n    tag_113:\n      pop\n        /* \"contracts/INDRACOIN.sol\":5137:5141  true */\n      0x01\n        /* \"contracts/INDRACOIN.sol\":5005:5146  function approve(address spender, uint256 amount) external returns (bool) {... */\n      swap3\n      swap2\n      pop\n      pop\n      jump\t// out\n        /* \"contracts/INDRACOIN.sol\":4520:4605  function totalSupply() external view returns (uint256) {... */\n    tag_39:\n        /* \"contracts/INDRACOIN.sol\":4588:4600  _totalSupply */\n      sload(0x03)\n        /* \"contracts/INDRACOIN.sol\":4520:4605  function totalSupply() external view returns (uint256) {... */\n      swap1\n      jump\t// out\n        /* \"contracts/INDRACOIN.sol\":5151:5439  function transferFrom(address sender, address recipient, uint256 amount) external returns (bool) {... */\n    tag_43:\n        /* \"contracts/INDRACOIN.sol\":5242:5246  bool */\n      0x00\n        /* \"contracts/INDRACOIN.sol\":5254:5290  _transfer(sender, recipient, amount) */\n      tag_119\n        /* \"contracts/INDRACOIN.sol\":5264:5270  sender */\n      dup5\n        /* \"contracts/INDRACOIN.sol\":5272:5281  recipient */\n      dup5\n        /* \"contracts/INDRACOIN.sol\":5283:5289  amount */\n      dup5\n        /* \"contracts/INDRACOIN.sol\":5254:5263  _transfer */\n      tag_120\n        /* \"contracts/INDRACOIN.sol\":5254:5290  _transfer(sender, recipient, amount) */\n      jump\t// in\n    tag_119:\n        /* \"contracts/INDRACOIN.sol\":5296:5417  _approve(sender, _msgSender(), _allowances[sender][_msgSender()].sub(amount, \"INDRA: transfer amount exceeds allowance\")) */\n      tag_121\n        /* \"contracts/INDRACOIN.sol\":5305:5311  sender */\n      dup5\n        /* \"contracts/INDRACOIN.sol\":5313:5325  _msgSender() */\n      tag_122\n        /* \"contracts/INDRACOIN.sol\":5313:5323  _msgSender */\n      tag_115\n        /* \"contracts/INDRACOIN.sol\":5313:5325  _msgSender() */\n      jump\t// in\n    tag_122:\n        /* \"contracts/INDRACOIN.sol\":5327:5416  _allowances[sender][_msgSender()].sub(amount, \"INDRA: transfer amount exceeds allowance\") */\n      tag_123\n        /* \"contracts/INDRACOIN.sol\":5365:5371  amount */\n      dup6\n        /* \"contracts/INDRACOIN.sol\":5327:5416  _allowances[sender][_msgSender()].sub(amount, \"INDRA: transfer amount exceeds allowance\") */\n      mload(0x40)\n      dup1\n      0x60\n      add\n      0x40\n      mstore\n      dup1\n      0x28\n      dup2\n      mstore\n      0x20\n      add\n      data_8e0e7ca5ca1c2590910e85c739f0bd59796087e31e7dc4665d54032c8b8a61df\n      0x28\n      swap2\n      codecopy\n      sub(shl(0xa0, 0x01), 0x01)\n        /* \"contracts/INDRACOIN.sol\":5327:5346  _allowances[sender] */\n      dup11\n      and\n      0x00\n      swap1\n      dup2\n      mstore\n        /* \"contracts/INDRACOIN.sol\":5327:5338  _allowances */\n      0x02\n        /* \"contracts/INDRACOIN.sol\":5327:5346  _allowances[sender] */\n      0x20\n      mstore\n      0x40\n      dup2\n      keccak256\n      swap1\n        /* \"contracts/INDRACOIN.sol\":5347:5359  _msgSender() */\n      tag_124\n        /* \"contracts/INDRACOIN.sol\":5347:5357  _msgSender */\n      tag_115\n        /* \"contracts/INDRACOIN.sol\":5347:5359  _msgSender() */\n      jump\t// in\n    tag_124:\n      sub(shl(0xa0, 0x01), 0x01)\n        /* \"contracts/INDRACOIN.sol\":5327:5360  _allowances[sender][_msgSender()] */\n      and\n      dup2\n      mstore\n      0x20\n      dup2\n      add\n      swap2\n      swap1\n      swap2\n      mstore\n      0x40\n      add\n      0x00\n      keccak256\n      sload\n      swap2\n        /* \"contracts/INDRACOIN.sol\":5327:5416  _allowances[sender][_msgSender()].sub(amount, \"INDRA: transfer amount exceeds allowance\") */\n      swap1\n      0xffffffff\n        /* \"contracts/INDRACOIN.sol\":5327:5364  _allowances[sender][_msgSender()].sub */\n      tag_125\n        /* \"contracts/INDRACOIN.sol\":5327:5416  _allowances[sender][_msgSender()].sub(amount, \"INDRA: transfer amount exceeds allowance\") */\n      and\n      jump\t// in\n    tag_123:\n        /* \"contracts/INDRACOIN.sol\":5296:5304  _approve */\n      tag_116\n        /* \"contracts/INDRACOIN.sol\":5296:5417  _approve(sender, _msgSender(), _allowances[sender][_msgSender()].sub(amount, \"INDRA: transfer amount exceeds allowance\")) */\n      jump\t// in\n    tag_121:\n      pop\n        /* \"contracts/INDRACOIN.sol\":5430:5434  true */\n      0x01\n        /* \"contracts/INDRACOIN.sol\":5151:5439  function transferFrom(address sender, address recipient, uint256 amount) external returns (bool) {... */\n      swap4\n      swap3\n      pop\n      pop\n      pop\n      jump\t// out\n        /* \"contracts/INDRACOIN.sol\":4267:4346  function decimals() external view returns (uint256) {... */\n    tag_46:\n        /* \"contracts/INDRACOIN.sol\":4332:4341  _decimals */\n      and(0xff, sload(0x04))\n        /* \"contracts/INDRACOIN.sol\":4267:4346  function decimals() external view returns (uint256) {... */\n      swap1\n      jump\t// out\n        /* \"contracts/INDRACOIN.sol\":3720:3742  uint8 public _decimals */\n    tag_49:\n      and(0xff, sload(0x04))\n      dup2\n      jump\t// out\n        /* \"contracts/INDRACOIN.sol\":5445:5642  function increaseAllowance(address spender, uint256 addedValue) public returns (bool) {... */\n    tag_53:\n        /* \"contracts/INDRACOIN.sol\":5525:5529  bool */\n      0x00\n        /* \"contracts/INDRACOIN.sol\":5537:5620  _approve(_msgSender(), spender, _allowances[_msgSender()][spender].add(addedValue)) */\n      tag_113\n        /* \"contracts/INDRACOIN.sol\":5546:5558  _msgSender() */\n      tag_129\n        /* \"contracts/INDRACOIN.sol\":5546:5556  _msgSender */\n      tag_115\n        /* \"contracts/INDRACOIN.sol\":5546:5558  _msgSender() */\n      jump\t// in\n    tag_129:\n        /* \"contracts/INDRACOIN.sol\":5560:5567  spender */\n      dup5\n        /* \"contracts/INDRACOIN.sol\":5569:5619  _allowances[_msgSender()][spender].add(addedValue) */\n      tag_123\n        /* \"contracts/INDRACOIN.sol\":5608:5618  addedValue */\n      dup6\n        /* \"contracts/INDRACOIN.sol\":5569:5580  _allowances */\n      0x02\n        /* \"contracts/INDRACOIN.sol\":5569:5594  _allowances[_msgSender()] */\n      0x00\n        /* \"contracts/INDRACOIN.sol\":5581:5593  _msgSender() */\n      tag_131\n        /* \"contracts/INDRACOIN.sol\":5581:5591  _msgSender */\n      tag_115\n        /* \"contracts/INDRACOIN.sol\":5581:5593  _msgSender() */\n      jump\t// in\n    tag_131:\n      sub(shl(0xa0, 0x01), 0x01)\n        /* \"contracts/INDRACOIN.sol\":5569:5594  _allowances[_msgSender()] */\n      swap1\n      dup2\n      and\n      dup3\n      mstore\n      0x20\n      dup1\n      dup4\n      add\n      swap4\n      swap1\n      swap4\n      mstore\n      0x40\n      swap2\n      dup3\n      add\n      0x00\n      swap1\n      dup2\n      keccak256\n        /* \"contracts/INDRACOIN.sol\":5569:5603  _allowances[_msgSender()][spender] */\n      swap2\n      dup13\n      and\n      dup2\n      mstore\n      swap3\n      mstore\n      swap1\n      keccak256\n      sload\n      swap1\n        /* \"contracts/INDRACOIN.sol\":5569:5619  _allowances[_msgSender()][spender].add(addedValue) */\n      0xffffffff\n        /* \"contracts/INDRACOIN.sol\":5569:5607  _allowances[_msgSender()][spender].add */\n      tag_132\n        /* \"contracts/INDRACOIN.sol\":5569:5619  _allowances[_msgSender()][spender].add(addedValue) */\n      and\n      jump\t// in\n        /* \"contracts/INDRACOIN.sol\":4610:4714  function balanceOf(address account) external view returns (uint256) {... */\n    tag_57:\n      sub(shl(0xa0, 0x01), 0x01)\n        /* \"contracts/INDRACOIN.sol\":4691:4709  _balances[account] */\n      and\n        /* \"contracts/INDRACOIN.sol\":4669:4676  uint256 */\n      0x00\n        /* \"contracts/INDRACOIN.sol\":4691:4709  _balances[account] */\n      swap1\n      dup2\n      mstore\n        /* \"contracts/INDRACOIN.sol\":4691:4700  _balances */\n      0x01\n        /* \"contracts/INDRACOIN.sol\":4691:4709  _balances[account] */\n      0x20\n      mstore\n      0x40\n      swap1\n      keccak256\n      sload\n      swap1\n        /* \"contracts/INDRACOIN.sol\":4610:4714  function balanceOf(address account) external view returns (uint256) {... */\n      jump\t// out\n        /* \"contracts/INDRACOIN.sol\":3031:3158  function renounceOwnership() public onlyOwner {... */\n    tag_60:\n        /* \"contracts/INDRACOIN.sol\":2966:2978  _msgSender() */\n      tag_135\n        /* \"contracts/INDRACOIN.sol\":2966:2976  _msgSender */\n      tag_115\n        /* \"contracts/INDRACOIN.sol\":2966:2978  _msgSender() */\n      jump\t// in\n    tag_135:\n        /* \"contracts/INDRACOIN.sol\":2956:2962  _owner */\n      sload(0x00)\n      sub(shl(0xa0, 0x01), 0x01)\n      swap1\n      dup2\n      and\n        /* \"contracts/INDRACOIN.sol\":2956:2978  _owner == _msgSender() */\n      swap2\n      and\n      eq\n        /* \"contracts/INDRACOIN.sol\":2948:3015  require(_owner == _msgSender(), \"Ownable: caller is not the owner\") */\n      tag_136\n      jumpi\n      0x40\n      dup1\n      mload\n      shl(0xe5, 0x461bcd)\n      dup2\n      mstore\n      0x20\n      0x04\n      dup3\n      add\n      dup2\n      swap1\n      mstore\n      0x24\n      dup3\n      add\n      mstore\n      0x4f776e61626c653a2063616c6c6572206973206e6f7420746865206f776e6572\n      0x44\n      dup3\n      add\n      mstore\n      swap1\n      mload\n      swap1\n      dup2\n      swap1\n      sub\n      0x64\n      add\n      swap1\n      revert\n    tag_136:\n        /* \"contracts/INDRACOIN.sol\":3125:3126  0 */\n      0x00\n        /* \"contracts/INDRACOIN.sol\":3109:3115  _owner */\n      dup1\n      sload\n        /* \"contracts/INDRACOIN.sol\":3088:3128  OwnershipTransferred(_owner, address(0)) */\n      mload(0x40)\n      sub(shl(0xa0, 0x01), 0x01)\n        /* \"contracts/INDRACOIN.sol\":3109:3115  _owner */\n      swap1\n      swap2\n      and\n      swap1\n        /* \"contracts/INDRACOIN.sol\":3088:3128  OwnershipTransferred(_owner, address(0)) */\n      0x8be0079c531659141344cd1fd0a4f28419497f9722a3daafe3b4186f6b6457e0\n      swap1\n        /* \"contracts/INDRACOIN.sol\":3125:3126  0 */\n      dup4\n      swap1\n        /* \"contracts/INDRACOIN.sol\":3088:3128  OwnershipTransferred(_owner, address(0)) */\n      log3\n        /* \"contracts/INDRACOIN.sol\":3151:3152  0 */\n      0x00\n        /* \"contracts/INDRACOIN.sol\":3134:3153  _owner = address(0) */\n      dup1\n      sload\n      not(sub(shl(0xa0, 0x01), 0x01))\n      and\n      swap1\n      sstore\n        /* \"contracts/INDRACOIN.sol\":3031:3158  function renounceOwnership() public onlyOwner {... */\n      jump\t// out\n        /* \"contracts/INDRACOIN.sol\":4186:4263  function getOwner() external view returns (address) {... */\n    tag_63:\n        /* \"contracts/INDRACOIN.sol\":4229:4236  address */\n      0x00\n        /* \"contracts/INDRACOIN.sol\":4251:4258  owner() */\n      tag_139\n        /* \"contracts/INDRACOIN.sol\":4251:4256  owner */\n      tag_66\n        /* \"contracts/INDRACOIN.sol\":4251:4258  owner() */\n      jump\t// in\n    tag_139:\n        /* \"contracts/INDRACOIN.sol\":4244:4258  return owner() */\n      swap1\n      pop\n        /* \"contracts/INDRACOIN.sol\":4186:4263  function getOwner() external view returns (address) {... */\n      swap1\n      jump\t// out\n        /* \"contracts/INDRACOIN.sol\":2843:2914  function owner() public view returns (address) {... */\n    tag_66:\n        /* \"contracts/INDRACOIN.sol\":2881:2888  address */\n      0x00\n        /* \"contracts/INDRACOIN.sol\":2903:2909  _owner */\n      sload\n      sub(shl(0xa0, 0x01), 0x01)\n      and\n        /* \"contracts/INDRACOIN.sol\":2843:2914  function owner() public view returns (address) {... */\n      swap1\n      jump\t// out\n        /* \"contracts/INDRACOIN.sol\":4350:4431  function symbol() external view returns (string memory) {... */\n    tag_69:\n        /* \"contracts/INDRACOIN.sol\":4419:4426  _symbol */\n      0x05\n        /* \"contracts/INDRACOIN.sol\":4412:4426  return _symbol */\n      dup1\n      sload\n      0x40\n      dup1\n      mload\n      0x20\n      0x1f\n      0x02\n      not(0x00)\n      0x0100\n      0x01\n      dup9\n      and\n      iszero\n      mul\n      add\n      swap1\n      swap6\n      and\n      swap5\n      swap1\n      swap5\n      div\n      swap4\n      dup5\n      add\n      dup2\n      swap1\n      div\n      dup2\n      mul\n      dup3\n      add\n      dup2\n      add\n      swap1\n      swap3\n      mstore\n      dup3\n      dup2\n      mstore\n        /* \"contracts/INDRACOIN.sol\":4391:4404  string memory */\n      0x60\n      swap4\n        /* \"contracts/INDRACOIN.sol\":4412:4426  return _symbol */\n      swap1\n      swap3\n        /* \"contracts/INDRACOIN.sol\":4419:4426  _symbol */\n      swap1\n      swap2\n        /* \"contracts/INDRACOIN.sol\":4412:4426  return _symbol */\n      dup4\n      add\n        /* \"contracts/INDRACOIN.sol\":4419:4426  _symbol */\n      dup3\n        /* \"contracts/INDRACOIN.sol\":4412:4426  return _symbol */\n      dup3\n      dup1\n      iszero\n      tag_109\n      jumpi\n      dup1\n      0x1f\n      lt\n      tag_110\n      jumpi\n      0x0100\n      dup1\n      dup4\n      sload\n      div\n      mul\n      dup4\n      mstore\n      swap2\n      0x20\n      add\n      swap2\n      jump(tag_109)\n        /* \"contracts/INDRACOIN.sol\":5903:6020  function mint(uint256 amount) public onlyOwner returns (bool) {... */\n    tag_77:\n        /* \"contracts/INDRACOIN.sol\":5959:5963  bool */\n      0x00\n        /* \"contracts/INDRACOIN.sol\":2966:2978  _msgSender() */\n      tag_146\n        /* \"contracts/INDRACOIN.sol\":2966:2976  _msgSender */\n      tag_115\n        /* \"contracts/INDRACOIN.sol\":2966:2978  _msgSender() */\n      jump\t// in\n    tag_146:\n        /* \"contracts/INDRACOIN.sol\":2956:2962  _owner */\n      sload(0x00)\n      sub(shl(0xa0, 0x01), 0x01)\n      swap1\n      dup2\n      and\n        /* \"contracts/INDRACOIN.sol\":2956:2978  _owner == _msgSender() */\n      swap2\n      and\n      eq\n        /* \"contracts/INDRACOIN.sol\":2948:3015  require(_owner == _msgSender(), \"Ownable: caller is not the owner\") */\n      tag_147\n      jumpi\n      0x40\n      dup1\n      mload\n      shl(0xe5, 0x461bcd)\n      dup2\n      mstore\n      0x20\n      0x04\n      dup3\n      add\n      dup2\n      swap1\n      mstore\n      0x24\n      dup3\n      add\n      mstore\n      0x4f776e61626c653a2063616c6c6572206973206e6f7420746865206f776e6572\n      0x44\n      dup3\n      add\n      mstore\n      swap1\n      mload\n      swap1\n      dup2\n      swap1\n      sub\n      0x64\n      add\n      swap1\n      revert\n    tag_147:\n        /* \"contracts/INDRACOIN.sol\":5971:5998  _mint(_msgSender(), amount) */\n      tag_149\n        /* \"contracts/INDRACOIN.sol\":5977:5989  _msgSender() */\n      tag_150\n        /* \"contracts/INDRACOIN.sol\":5977:5987  _msgSender */\n      tag_115\n        /* \"contracts/INDRACOIN.sol\":5977:5989  _msgSender() */\n      jump\t// in\n    tag_150:\n        /* \"contracts/INDRACOIN.sol\":5991:5997  amount */\n      dup4\n        /* \"contracts/INDRACOIN.sol\":5971:5976  _mint */\n      tag_151\n        /* \"contracts/INDRACOIN.sol\":5971:5998  _mint(_msgSender(), amount) */\n      jump\t// in\n    tag_149:\n      pop\n        /* \"contracts/INDRACOIN.sol\":6011:6015  true */\n      0x01\n        /* \"contracts/INDRACOIN.sol\":5903:6020  function mint(uint256 amount) public onlyOwner returns (bool) {... */\n      swap2\n      swap1\n      pop\n      jump\t// out\n        /* \"contracts/INDRACOIN.sol\":5649:5897  function decreaseAllowance(address spender, uint256 subtractedValue) public returns (bool) {... */\n    tag_81:\n        /* \"contracts/INDRACOIN.sol\":5734:5738  bool */\n      0x00\n        /* \"contracts/INDRACOIN.sol\":5746:5875  _approve(_msgSender(), spender, _allowances[_msgSender()][spender].sub(subtractedValue, \"INDRA: decreased allowance below zero\")) */\n      tag_113\n        /* \"contracts/INDRACOIN.sol\":5755:5767  _msgSender() */\n      tag_154\n        /* \"contracts/INDRACOIN.sol\":5755:5765  _msgSender */\n      tag_115\n        /* \"contracts/INDRACOIN.sol\":5755:5767  _msgSender() */\n      jump\t// in\n    tag_154:\n        /* \"contracts/INDRACOIN.sol\":5769:5776  spender */\n      dup5\n        /* \"contracts/INDRACOIN.sol\":5778:5874  _allowances[_msgSender()][spender].sub(subtractedValue, \"INDRA: decreased allowance below zero\") */\n      tag_123\n        /* \"contracts/INDRACOIN.sol\":5817:5832  subtractedValue */\n      dup6\n        /* \"contracts/INDRACOIN.sol\":5778:5874  _allowances[_msgSender()][spender].sub(subtractedValue, \"INDRA: decreased allowance below zero\") */\n      mload(0x40)\n      dup1\n      0x60\n      add\n      0x40\n      mstore\n      dup1\n      0x25\n      dup2\n      mstore\n      0x20\n      add\n      data_45415ede0acc6bd3066af00c2697f110d2b840a11e6d6982fbdee162cf63f851\n      0x25\n      swap2\n      codecopy\n        /* \"contracts/INDRACOIN.sol\":5778:5789  _allowances */\n      0x02\n        /* \"contracts/INDRACOIN.sol\":5778:5803  _allowances[_msgSender()] */\n      0x00\n        /* \"contracts/INDRACOIN.sol\":5790:5802  _msgSender() */\n      tag_156\n        /* \"contracts/INDRACOIN.sol\":5790:5800  _msgSender */\n      tag_115\n        /* \"contracts/INDRACOIN.sol\":5790:5802  _msgSender() */\n      jump\t// in\n    tag_156:\n      sub(shl(0xa0, 0x01), 0x01)\n        /* \"contracts/INDRACOIN.sol\":5778:5803  _allowances[_msgSender()] */\n      swap1\n      dup2\n      and\n      dup3\n      mstore\n      0x20\n      dup1\n      dup4\n      add\n      swap4\n      swap1\n      swap4\n      mstore\n      0x40\n      swap2\n      dup3\n      add\n      0x00\n      swap1\n      dup2\n      keccak256\n        /* \"contracts/INDRACOIN.sol\":5778:5812  _allowances[_msgSender()][spender] */\n      swap2\n      dup14\n      and\n      dup2\n      mstore\n      swap3\n      mstore\n      swap1\n      keccak256\n      sload\n      swap2\n        /* \"contracts/INDRACOIN.sol\":5778:5874  _allowances[_msgSender()][spender].sub(subtractedValue, \"INDRA: decreased allowance below zero\") */\n      swap1\n      0xffffffff\n        /* \"contracts/INDRACOIN.sol\":5778:5816  _allowances[_msgSender()][spender].sub */\n      tag_125\n        /* \"contracts/INDRACOIN.sol\":5778:5874  _allowances[_msgSender()][spender].sub(subtractedValue, \"INDRA: decreased allowance below zero\") */\n      and\n      jump\t// in\n        /* \"contracts/INDRACOIN.sol\":4719:4866  function transfer(address recipient, uint256 amount) external returns (bool) {... */\n    tag_85:\n        /* \"contracts/INDRACOIN.sol\":4790:4794  bool */\n      0x00\n        /* \"contracts/INDRACOIN.sol\":4802:4844  _transfer(_msgSender(), recipient, amount) */\n      tag_113\n        /* \"contracts/INDRACOIN.sol\":4812:4824  _msgSender() */\n      tag_159\n        /* \"contracts/INDRACOIN.sol\":4812:4822  _msgSender */\n      tag_115\n        /* \"contracts/INDRACOIN.sol\":4812:4824  _msgSender() */\n      jump\t// in\n    tag_159:\n        /* \"contracts/INDRACOIN.sol\":4826:4835  recipient */\n      dup5\n        /* \"contracts/INDRACOIN.sol\":4837:4843  amount */\n      dup5\n        /* \"contracts/INDRACOIN.sol\":4802:4811  _transfer */\n      tag_120\n        /* \"contracts/INDRACOIN.sol\":4802:4844  _transfer(_msgSender(), recipient, amount) */\n      jump\t// in\n        /* \"contracts/INDRACOIN.sol\":3746:3767  string public _symbol */\n    tag_88:\n      0x05\n      dup1\n      sload\n      0x40\n      dup1\n      mload\n      0x20\n      0x02\n      0x01\n      dup6\n      and\n      iszero\n      0x0100\n      mul\n      not(0x00)\n      add\n      swap1\n      swap5\n      and\n      swap4\n      swap1\n      swap4\n      div\n      0x1f\n      dup2\n      add\n      dup5\n      swap1\n      div\n      dup5\n      mul\n      dup3\n      add\n      dup5\n      add\n      swap1\n      swap3\n      mstore\n      dup2\n      dup2\n      mstore\n      swap3\n      swap2\n      dup4\n      add\n      dup3\n      dup3\n      dup1\n      iszero\n      tag_160\n      jumpi\n      dup1\n      0x1f\n      lt\n      tag_161\n      jumpi\n      0x0100\n      dup1\n      dup4\n      sload\n      div\n      mul\n      dup4\n      mstore\n      swap2\n      0x20\n      add\n      swap2\n      jump(tag_160)\n    tag_161:\n      dup3\n      add\n      swap2\n      swap1\n      0x00\n      mstore\n      keccak256(0x00, 0x20)\n      swap1\n    tag_162:\n      dup2\n      sload\n      dup2\n      mstore\n      swap1\n      0x01\n      add\n      swap1\n      0x20\n      add\n      dup1\n      dup4\n      gt\n      tag_162\n      jumpi\n      dup3\n      swap1\n      sub\n      0x1f\n      and\n      dup3\n      add\n      swap2\n    tag_160:\n      pop\n      pop\n      pop\n      pop\n      pop\n      dup2\n      jump\t// out\n        /* \"contracts/INDRACOIN.sol\":3771:3790  string public _name */\n    tag_95:\n      0x06\n      dup1\n      sload\n      0x40\n      dup1\n      mload\n      0x20\n      0x02\n      0x01\n      dup6\n      and\n      iszero\n      0x0100\n      mul\n      not(0x00)\n      add\n      swap1\n      swap5\n      and\n      swap4\n      swap1\n      swap4\n      div\n      0x1f\n      dup2\n      add\n      dup5\n      swap1\n      div\n      dup5\n      mul\n      dup3\n      add\n      dup5\n      add\n      swap1\n      swap3\n      mstore\n      dup2\n      dup2\n      mstore\n      swap3\n      swap2\n      dup4\n      add\n      dup3\n      dup3\n      dup1\n      iszero\n      tag_160\n      jumpi\n      dup1\n      0x1f\n      lt\n      tag_161\n      jumpi\n      0x0100\n      dup1\n      dup4\n      sload\n      div\n      mul\n      dup4\n      mstore\n      swap2\n      0x20\n      add\n      swap2\n      jump(tag_160)\n        /* \"contracts/INDRACOIN.sol\":4871:4999  function allowance(address owner, address spender) external view returns (uint256) {... */\n    tag_103:\n      sub(shl(0xa0, 0x01), 0x01)\n        /* \"contracts/INDRACOIN.sol\":4967:4985  _allowances[owner] */\n      swap2\n      dup3\n      and\n        /* \"contracts/INDRACOIN.sol\":4945:4952  uint256 */\n      0x00\n        /* \"contracts/INDRACOIN.sol\":4967:4985  _allowances[owner] */\n      swap1\n      dup2\n      mstore\n        /* \"contracts/INDRACOIN.sol\":4967:4978  _allowances */\n      0x02\n        /* \"contracts/INDRACOIN.sol\":4967:4985  _allowances[owner] */\n      0x20\n      swap1\n      dup2\n      mstore\n      0x40\n      dup1\n      dup4\n      keccak256\n        /* \"contracts/INDRACOIN.sol\":4967:4994  _allowances[owner][spender] */\n      swap4\n      swap1\n      swap5\n      and\n      dup3\n      mstore\n      swap2\n      swap1\n      swap2\n      mstore\n      keccak256\n      sload\n      swap1\n        /* \"contracts/INDRACOIN.sol\":4871:4999  function allowance(address owner, address spender) external view returns (uint256) {... */\n      jump\t// out\n        /* \"contracts/INDRACOIN.sol\":3165:3266  function transferOwnership(address newOwner) public onlyOwner {... */\n    tag_107:\n        /* \"contracts/INDRACOIN.sol\":2966:2978  _msgSender() */\n      tag_168\n        /* \"contracts/INDRACOIN.sol\":2966:2976  _msgSender */\n      tag_115\n        /* \"contracts/INDRACOIN.sol\":2966:2978  _msgSender() */\n      jump\t// in\n    tag_168:\n        /* \"contracts/INDRACOIN.sol\":2956:2962  _owner */\n      sload(0x00)\n      sub(shl(0xa0, 0x01), 0x01)\n      swap1\n      dup2\n      and\n        /* \"contracts/INDRACOIN.sol\":2956:2978  _owner == _msgSender() */\n      swap2\n      and\n      eq\n        /* \"contracts/INDRACOIN.sol\":2948:3015  require(_owner == _msgSender(), \"Ownable: caller is not the owner\") */\n      tag_169\n      jumpi\n      0x40\n      dup1\n      mload\n      shl(0xe5, 0x461bcd)\n      dup2\n      mstore\n      0x20\n      0x04\n      dup3\n      add\n      dup2\n      swap1\n      mstore\n      0x24\n      dup3\n      add\n      mstore\n      0x4f776e61626c653a2063616c6c6572206973206e6f7420746865206f776e6572\n      0x44\n      dup3\n      add\n      mstore\n      swap1\n      mload\n      swap1\n      dup2\n      swap1\n      sub\n      0x64\n      add\n      swap1\n      revert\n    tag_169:\n        /* \"contracts/INDRACOIN.sol\":3233:3261  _transferOwnership(newOwner) */\n      tag_171\n        /* \"contracts/INDRACOIN.sol\":3252:3260  newOwner */\n      dup2\n        /* \"contracts/INDRACOIN.sol\":3233:3251  _transferOwnership */\n      tag_172\n        /* \"contracts/INDRACOIN.sol\":3233:3261  _transferOwnership(newOwner) */\n      jump\t// in\n    tag_171:\n        /* \"contracts/INDRACOIN.sol\":3165:3266  function transferOwnership(address newOwner) public onlyOwner {... */\n      pop\n      jump\t// out\n        /* \"contracts/INDRACOIN.sol\":1037:1127  function _msgSender() internal view returns (address payable) {... */\n    tag_115:\n        /* \"contracts/INDRACOIN.sol\":1112:1122  msg.sender */\n      caller\n        /* \"contracts/INDRACOIN.sol\":1037:1127  function _msgSender() internal view returns (address payable) {... */\n      swap1\n      jump\t// out\n        /* \"contracts/INDRACOIN.sol\":7091:7405  function _approve(address owner, address spender, uint256 amount) internal {... */\n    tag_116:\n      sub(shl(0xa0, 0x01), 0x01)\n        /* \"contracts/INDRACOIN.sol\":7180:7199  owner != address(0) */\n      dup4\n      and\n        /* \"contracts/INDRACOIN.sol\":7172:7240  require(owner != address(0), \"INDRA: approve from the zero address\") */\n      tag_175\n      jumpi\n      mload(0x40)\n      shl(0xe5, 0x461bcd)\n      dup2\n      mstore\n      0x04\n      add\n      dup1\n      dup1\n      0x20\n      add\n      dup3\n      dup2\n      sub\n      dup3\n      mstore\n      0x24\n      dup2\n      mstore\n      0x20\n      add\n      dup1\n      data_47949132d0418a546a65e4198ed7750521b37dad62de03c2d59c129fe516d815\n      0x24\n      swap2\n      codecopy\n      0x40\n      add\n      swap2\n      pop\n      pop\n      mload(0x40)\n      dup1\n      swap2\n      sub\n      swap1\n      revert\n    tag_175:\n      sub(shl(0xa0, 0x01), 0x01)\n        /* \"contracts/INDRACOIN.sol\":7254:7275  spender != address(0) */\n      dup3\n      and\n        /* \"contracts/INDRACOIN.sol\":7246:7314  require(spender != address(0), \"INDRA: approve to the zero address\") */\n      tag_176\n      jumpi\n      mload(0x40)\n      shl(0xe5, 0x461bcd)\n      dup2\n      mstore\n      0x04\n      add\n      dup1\n      dup1\n      0x20\n      add\n      dup3\n      dup2\n      sub\n      dup3\n      mstore\n      0x22\n      dup2\n      mstore\n      0x20\n      add\n      dup1\n      data_b9bec085af116e013ba0cb4636ece7f9f4c8510858860b65c909f4ff37f0dbc9\n      0x22\n      swap2\n      codecopy\n      0x40\n      add\n      swap2\n      pop\n      pop\n      mload(0x40)\n      dup1\n      swap2\n      sub\n      swap1\n      revert\n    tag_176:\n      sub(shl(0xa0, 0x01), 0x01)\n        /* \"contracts/INDRACOIN.sol\":7321:7339  _allowances[owner] */\n      dup1\n      dup5\n      and\n      0x00\n      dup2\n      dup2\n      mstore\n        /* \"contracts/INDRACOIN.sol\":7321:7332  _allowances */\n      0x02\n        /* \"contracts/INDRACOIN.sol\":7321:7339  _allowances[owner] */\n      0x20\n      swap1\n      dup2\n      mstore\n      0x40\n      dup1\n      dup4\n      keccak256\n        /* \"contracts/INDRACOIN.sol\":7321:7348  _allowances[owner][spender] */\n      swap5\n      dup8\n      and\n      dup1\n      dup5\n      mstore\n      swap5\n      dup3\n      mstore\n      swap2\n      dup3\n      swap1\n      keccak256\n        /* \"contracts/INDRACOIN.sol\":7321:7357  _allowances[owner][spender] = amount */\n      dup6\n      swap1\n      sstore\n        /* \"contracts/INDRACOIN.sol\":7368:7400  Approval(owner, spender, amount) */\n      dup2\n      mload\n      dup6\n      dup2\n      mstore\n      swap2\n      mload\n      0x8c5be1e5ebec7d5bd14f71427d1e84f3dd0314c0f7b2291e5b200ac8c7c3b925\n      swap3\n      dup2\n      swap1\n      sub\n      swap1\n      swap2\n      add\n      swap1\n      log3\n        /* \"contracts/INDRACOIN.sol\":7091:7405  function _approve(address owner, address spender, uint256 amount) internal {... */\n      pop\n      pop\n      pop\n      jump\t// out\n        /* \"contracts/INDRACOIN.sol\":6025:6467  function _transfer(address sender, address recipient, uint256 amount) internal {... */\n    tag_120:\n      sub(shl(0xa0, 0x01), 0x01)\n        /* \"contracts/INDRACOIN.sol\":6118:6138  sender != address(0) */\n      dup4\n      and\n        /* \"contracts/INDRACOIN.sol\":6110:6180  require(sender != address(0), \"INDRA: transfer from the zero address\") */\n      tag_178\n      jumpi\n      mload(0x40)\n      shl(0xe5, 0x461bcd)\n      dup2\n      mstore\n      0x04\n      add\n      dup1\n      dup1\n      0x20\n      add\n      dup3\n      dup2\n      sub\n      dup3\n      mstore\n      0x25\n      dup2\n      mstore\n      0x20\n      add\n      dup1\n      data_43f189f9d541f43c4b16605e8b10a0c6a0bed6754e87651b1b429cf06ade5fad\n      0x25\n      swap2\n      codecopy\n      0x40\n      add\n      swap2\n      pop\n      pop\n      mload(0x40)\n      dup1\n      swap2\n      sub\n      swap1\n      revert\n    tag_178:\n      sub(shl(0xa0, 0x01), 0x01)\n        /* \"contracts/INDRACOIN.sol\":6194:6217  recipient != address(0) */\n      dup3\n      and\n        /* \"contracts/INDRACOIN.sol\":6186:6257  require(recipient != address(0), \"INDRA: transfer to the zero address\") */\n      tag_179\n      jumpi\n      mload(0x40)\n      shl(0xe5, 0x461bcd)\n      dup2\n      mstore\n      0x04\n      add\n      dup1\n      dup1\n      0x20\n      add\n      dup3\n      dup2\n      sub\n      dup3\n      mstore\n      0x23\n      dup2\n      mstore\n      0x20\n      add\n      dup1\n      data_a5c59fe32750386f83567659e2cfaaef18aabfb3d8280ada7958f80697567f0f\n      0x23\n      swap2\n      codecopy\n      0x40\n      add\n      swap2\n      pop\n      pop\n      mload(0x40)\n      dup1\n      swap2\n      sub\n      swap1\n      revert\n    tag_179:\n        /* \"contracts/INDRACOIN.sol\":6284:6355  _balances[sender].sub(amount, \"INDRA: transfer amount exceeds balance\") */\n      tag_180\n        /* \"contracts/INDRACOIN.sol\":6306:6312  amount */\n      dup2\n        /* \"contracts/INDRACOIN.sol\":6284:6355  _balances[sender].sub(amount, \"INDRA: transfer amount exceeds balance\") */\n      mload(0x40)\n      dup1\n      0x60\n      add\n      0x40\n      mstore\n      dup1\n      0x26\n      dup2\n      mstore\n      0x20\n      add\n      data_63cc03a3ef4e80d9618a5eb98be8749a7d78a0ec13f39748ef2bdd594171f4e5\n      0x26\n      swap2\n      codecopy\n      sub(shl(0xa0, 0x01), 0x01)\n        /* \"contracts/INDRACOIN.sol\":6284:6301  _balances[sender] */\n      dup7\n      and\n      0x00\n      swap1\n      dup2\n      mstore\n        /* \"contracts/INDRACOIN.sol\":6284:6293  _balances */\n      0x01\n        /* \"contracts/INDRACOIN.sol\":6284:6301  _balances[sender] */\n      0x20\n      mstore\n      0x40\n      swap1\n      keccak256\n      sload\n      swap2\n        /* \"contracts/INDRACOIN.sol\":6284:6355  _balances[sender].sub(amount, \"INDRA: transfer amount exceeds balance\") */\n      swap1\n      0xffffffff\n        /* \"contracts/INDRACOIN.sol\":6284:6305  _balances[sender].sub */\n      tag_125\n        /* \"contracts/INDRACOIN.sol\":6284:6355  _balances[sender].sub(amount, \"INDRA: transfer amount exceeds balance\") */\n      and\n      jump\t// in\n    tag_180:\n      sub(shl(0xa0, 0x01), 0x01)\n        /* \"contracts/INDRACOIN.sol\":6264:6281  _balances[sender] */\n      dup1\n      dup6\n      and\n      0x00\n      swap1\n      dup2\n      mstore\n        /* \"contracts/INDRACOIN.sol\":6264:6273  _balances */\n      0x01\n        /* \"contracts/INDRACOIN.sol\":6264:6281  _balances[sender] */\n      0x20\n      mstore\n      0x40\n      dup1\n      dup3\n      keccak256\n        /* \"contracts/INDRACOIN.sol\":6264:6355  _balances[sender] = _balances[sender].sub(amount, \"INDRA: transfer amount exceeds balance\") */\n      swap4\n      swap1\n      swap4\n      sstore\n        /* \"contracts/INDRACOIN.sol\":6384:6404  _balances[recipient] */\n      swap1\n      dup5\n      and\n      dup2\n      mstore\n      keccak256\n      sload\n        /* \"contracts/INDRACOIN.sol\":6384:6416  _balances[recipient].add(amount) */\n      tag_181\n      swap1\n        /* \"contracts/INDRACOIN.sol\":6409:6415  amount */\n      dup3\n        /* \"contracts/INDRACOIN.sol\":6384:6416  _balances[recipient].add(amount) */\n      0xffffffff\n        /* \"contracts/INDRACOIN.sol\":6384:6408  _balances[recipient].add */\n      tag_132\n        /* \"contracts/INDRACOIN.sol\":6384:6416  _balances[recipient].add(amount) */\n      and\n      jump\t// in\n    tag_181:\n      sub(shl(0xa0, 0x01), 0x01)\n        /* \"contracts/INDRACOIN.sol\":6361:6381  _balances[recipient] */\n      dup1\n      dup5\n      and\n      0x00\n      dup2\n      dup2\n      mstore\n        /* \"contracts/INDRACOIN.sol\":6361:6370  _balances */\n      0x01\n        /* \"contracts/INDRACOIN.sol\":6361:6381  _balances[recipient] */\n      0x20\n      swap1\n      dup2\n      mstore\n      0x40\n      swap2\n      dup3\n      swap1\n      keccak256\n        /* \"contracts/INDRACOIN.sol\":6361:6416  _balances[recipient] = _balances[recipient].add(amount) */\n      swap5\n      swap1\n      swap5\n      sstore\n        /* \"contracts/INDRACOIN.sol\":6427:6462  Transfer(sender, recipient, amount) */\n      dup1\n      mload\n      dup6\n      dup2\n      mstore\n      swap1\n      mload\n        /* \"contracts/INDRACOIN.sol\":6361:6381  _balances[recipient] */\n      swap2\n      swap4\n        /* \"contracts/INDRACOIN.sol\":6427:6462  Transfer(sender, recipient, amount) */\n      swap3\n      dup8\n      and\n      swap3\n      0xddf252ad1be2c89b69c2b068fc378daa952ba7f163c4a11628f55a4df523b3ef\n      swap3\n      swap2\n      dup3\n      swap1\n      sub\n      add\n      swap1\n      log3\n        /* \"contracts/INDRACOIN.sol\":6025:6467  function _transfer(address sender, address recipient, uint256 amount) internal {... */\n      pop\n      pop\n      pop\n      jump\t// out\n        /* \"contracts/INDRACOIN.sol\":1555:1728  function sub(uint256 a, uint256 b, string memory errorMessage) internal pure returns (uint256) {... */\n    tag_125:\n        /* \"contracts/INDRACOIN.sol\":1641:1648  uint256 */\n      0x00\n        /* \"contracts/INDRACOIN.sol\":1672:1684  errorMessage */\n      dup2\n        /* \"contracts/INDRACOIN.sol\":1664:1670  b <= a */\n      dup5\n      dup5\n      gt\n      iszero\n        /* \"contracts/INDRACOIN.sol\":1656:1685  require(b <= a, errorMessage) */\n      tag_183\n      jumpi\n      mload(0x40)\n      shl(0xe5, 0x461bcd)\n      dup2\n      mstore\n      0x04\n      add\n      dup1\n      dup1\n      0x20\n      add\n      dup3\n      dup2\n      sub\n      dup3\n      mstore\n      dup4\n      dup2\n      dup2\n      mload\n      dup2\n      mstore\n      0x20\n      add\n      swap2\n      pop\n      dup1\n      mload\n      swap1\n      0x20\n      add\n      swap1\n      dup1\n      dup4\n      dup4\n        /* \"--CODEGEN--\":23:24   */\n      0x00\n        /* \"--CODEGEN--\":8:108   */\n    tag_184:\n        /* \"--CODEGEN--\":33:36   */\n      dup4\n        /* \"--CODEGEN--\":30:31   */\n      dup2\n        /* \"--CODEGEN--\":27:37   */\n      lt\n        /* \"--CODEGEN--\":8:108   */\n      iszero\n      tag_186\n      jumpi\n        /* \"--CODEGEN--\":90:101   */\n      dup2\n      dup2\n      add\n        /* \"--CODEGEN--\":84:102   */\n      mload\n        /* \"--CODEGEN--\":71:82   */\n      dup4\n      dup3\n      add\n        /* \"--CODEGEN--\":64:103   */\n      mstore\n        /* \"--CODEGEN--\":52:54   */\n      0x20\n        /* \"--CODEGEN--\":45:55   */\n      add\n        /* \"--CODEGEN--\":8:108   */\n      jump(tag_184)\n    tag_186:\n        /* \"--CODEGEN--\":12:26   */\n      pop\n        /* \"contracts/INDRACOIN.sol\":1656:1685  require(b <= a, errorMessage) */\n      pop\n      pop\n      pop\n      swap1\n      pop\n      swap1\n      dup2\n      add\n      swap1\n      0x1f\n      and\n      dup1\n      iszero\n      tag_187\n      jumpi\n      dup1\n      dup3\n      sub\n      dup1\n      mload\n      0x01\n      dup4\n      0x20\n      sub\n      0x0100\n      exp\n      sub\n      not\n      and\n      dup2\n      mstore\n      0x20\n      add\n      swap2\n      pop\n    tag_187:\n      pop\n      swap3\n      pop\n      pop\n      pop\n      mload(0x40)\n      dup1\n      swap2\n      sub\n      swap1\n      revert\n    tag_183:\n      pop\n      pop\n      pop\n        /* \"contracts/INDRACOIN.sol\":1703:1708  a - b */\n      swap1\n      sub\n      swap1\n        /* \"contracts/INDRACOIN.sol\":1555:1728  function sub(uint256 a, uint256 b, string memory errorMessage) internal pure returns (uint256) {... */\n      jump\t// out\n        /* \"contracts/INDRACOIN.sol\":1252:1414  function add(uint256 a, uint256 b) internal pure returns (uint256) {... */\n    tag_132:\n        /* \"contracts/INDRACOIN.sol\":1310:1317  uint256 */\n      0x00\n        /* \"contracts/INDRACOIN.sol\":1337:1342  a + b */\n      dup3\n      dup3\n      add\n        /* \"contracts/INDRACOIN.sol\":1356:1362  c >= a */\n      dup4\n      dup2\n      lt\n      iszero\n        /* \"contracts/INDRACOIN.sol\":1348:1394  require(c >= a, \"SafeMath: addition overflow\") */\n      tag_189\n      jumpi\n      0x40\n      dup1\n      mload\n      shl(0xe5, 0x461bcd)\n      dup2\n      mstore\n      0x20\n      0x04\n      dup3\n      add\n      mstore\n      0x1b\n      0x24\n      dup3\n      add\n      mstore\n      0x536166654d6174683a206164646974696f6e206f766572666c6f770000000000\n      0x44\n      dup3\n      add\n      mstore\n      swap1\n      mload\n      swap1\n      dup2\n      swap1\n      sub\n      0x64\n      add\n      swap1\n      revert\n    tag_189:\n        /* \"contracts/INDRACOIN.sol\":1408:1409  c */\n      swap4\n        /* \"contracts/INDRACOIN.sol\":1252:1414  function add(uint256 a, uint256 b) internal pure returns (uint256) {... */\n      swap3\n      pop\n      pop\n      pop\n      jump\t// out\n        /* \"contracts/INDRACOIN.sol\":6472:6756  function _mint(address account, uint256 amount) internal {... */\n    tag_151:\n      sub(shl(0xa0, 0x01), 0x01)\n        /* \"contracts/INDRACOIN.sol\":6543:6564  account != address(0) */\n      dup3\n      and\n        /* \"contracts/INDRACOIN.sol\":6535:6600  require(account != address(0), \"INDRA: mint to the zero address\") */\n      tag_191\n      jumpi\n      0x40\n      dup1\n      mload\n      shl(0xe5, 0x461bcd)\n      dup2\n      mstore\n      0x20\n      0x04\n      dup3\n      add\n      mstore\n      0x1f\n      0x24\n      dup3\n      add\n      mstore\n      0x494e4452413a206d696e7420746f20746865207a65726f206164647265737300\n      0x44\n      dup3\n      add\n      mstore\n      swap1\n      mload\n      swap1\n      dup2\n      swap1\n      sub\n      0x64\n      add\n      swap1\n      revert\n    tag_191:\n        /* \"contracts/INDRACOIN.sol\":6622:6634  _totalSupply */\n      sload(0x03)\n        /* \"contracts/INDRACOIN.sol\":6622:6646  _totalSupply.add(amount) */\n      tag_192\n      swap1\n        /* \"contracts/INDRACOIN.sol\":6639:6645  amount */\n      dup3\n        /* \"contracts/INDRACOIN.sol\":6622:6646  _totalSupply.add(amount) */\n      0xffffffff\n        /* \"contracts/INDRACOIN.sol\":6622:6638  _totalSupply.add */\n      tag_132\n        /* \"contracts/INDRACOIN.sol\":6622:6646  _totalSupply.add(amount) */\n      and\n      jump\t// in\n    tag_192:\n        /* \"contracts/INDRACOIN.sol\":6607:6619  _totalSupply */\n      0x03\n        /* \"contracts/INDRACOIN.sol\":6607:6646  _totalSupply = _totalSupply.add(amount) */\n      sstore\n      sub(shl(0xa0, 0x01), 0x01)\n        /* \"contracts/INDRACOIN.sol\":6673:6691  _balances[account] */\n      dup3\n      and\n      0x00\n      swap1\n      dup2\n      mstore\n        /* \"contracts/INDRACOIN.sol\":6673:6682  _balances */\n      0x01\n        /* \"contracts/INDRACOIN.sol\":6673:6691  _balances[account] */\n      0x20\n      mstore\n      0x40\n      swap1\n      keccak256\n      sload\n        /* \"contracts/INDRACOIN.sol\":6673:6703  _balances[account].add(amount) */\n      tag_193\n      swap1\n        /* \"contracts/INDRACOIN.sol\":6696:6702  amount */\n      dup3\n        /* \"contracts/INDRACOIN.sol\":6673:6703  _balances[account].add(amount) */\n      0xffffffff\n        /* \"contracts/INDRACOIN.sol\":6673:6695  _balances[account].add */\n      tag_132\n        /* \"contracts/INDRACOIN.sol\":6673:6703  _balances[account].add(amount) */\n      and\n      jump\t// in\n    tag_193:\n      sub(shl(0xa0, 0x01), 0x01)\n        /* \"contracts/INDRACOIN.sol\":6652:6670  _balances[account] */\n      dup4\n      and\n      0x00\n      dup2\n      dup2\n      mstore\n        /* \"contracts/INDRACOIN.sol\":6652:6661  _balances */\n      0x01\n        /* \"contracts/INDRACOIN.sol\":6652:6670  _balances[account] */\n      0x20\n      swap1\n      dup2\n      mstore\n      0x40\n      dup1\n      dup4\n      keccak256\n        /* \"contracts/INDRACOIN.sol\":6652:6703  _balances[account] = _balances[account].add(amount) */\n      swap5\n      swap1\n      swap5\n      sstore\n        /* \"contracts/INDRACOIN.sol\":6714:6751  Transfer(address(0), account, amount) */\n      dup4\n      mload\n      dup6\n      dup2\n      mstore\n      swap4\n      mload\n        /* \"contracts/INDRACOIN.sol\":6652:6670  _balances[account] */\n      swap3\n      swap4\n      swap2\n      swap3\n        /* \"contracts/INDRACOIN.sol\":6714:6751  Transfer(address(0), account, amount) */\n      0xddf252ad1be2c89b69c2b068fc378daa952ba7f163c4a11628f55a4df523b3ef\n      swap3\n      dup2\n      swap1\n      sub\n      swap1\n      swap2\n      add\n      swap1\n      log3\n        /* \"contracts/INDRACOIN.sol\":6472:6756  function _mint(address account, uint256 amount) internal {... */\n      pop\n      pop\n      jump\t// out\n        /* \"contracts/INDRACOIN.sol\":3270:3481  function _transferOwnership(address newOwner) internal {... */\n    tag_172:\n      sub(shl(0xa0, 0x01), 0x01)\n        /* \"contracts/INDRACOIN.sol\":3339:3361  newOwner != address(0) */\n      dup2\n      and\n        /* \"contracts/INDRACOIN.sol\":3331:3404  require(newOwner != address(0), \"Ownable: new owner is the zero address\") */\n      tag_195\n      jumpi\n      mload(0x40)\n      shl(0xe5, 0x461bcd)\n      dup2\n      mstore\n      0x04\n      add\n      dup1\n      dup1\n      0x20\n      add\n      dup3\n      dup2\n      sub\n      dup3\n      mstore\n      0x26\n      dup2\n      mstore\n      0x20\n      add\n      dup1\n      data_245f15ff17f551913a7a18385165551503906a406f905ac1c2437281a7cd0cfe\n      0x26\n      swap2\n      codecopy\n      0x40\n      add\n      swap2\n      pop\n      pop\n      mload(0x40)\n      dup1\n      swap2\n      sub\n      swap1\n      revert\n    tag_195:\n        /* \"contracts/INDRACOIN.sol\":3436:3442  _owner */\n      0x00\n      dup1\n      sload\n        /* \"contracts/INDRACOIN.sol\":3415:3453  OwnershipTransferred(_owner, newOwner) */\n      mload(0x40)\n      sub(shl(0xa0, 0x01), 0x01)\n      dup1\n      dup6\n      and\n      swap4\n        /* \"contracts/INDRACOIN.sol\":3436:3442  _owner */\n      swap3\n      and\n      swap2\n        /* \"contracts/INDRACOIN.sol\":3415:3453  OwnershipTransferred(_owner, newOwner) */\n      0x8be0079c531659141344cd1fd0a4f28419497f9722a3daafe3b4186f6b6457e0\n      swap2\n      log3\n        /* \"contracts/INDRACOIN.sol\":3459:3465  _owner */\n      0x00\n        /* \"contracts/INDRACOIN.sol\":3459:3476  _owner = newOwner */\n      dup1\n      sload\n      not(sub(shl(0xa0, 0x01), 0x01))\n      and\n      sub(shl(0xa0, 0x01), 0x01)\n      swap3\n      swap1\n      swap3\n      and\n      swap2\n      swap1\n      swap2\n      or\n      swap1\n      sstore\n        /* \"contracts/INDRACOIN.sol\":3270:3481  function _transferOwnership(address newOwner) internal {... */\n      jump\t// out\n    stop\n    data_245f15ff17f551913a7a18385165551503906a406f905ac1c2437281a7cd0cfe 4f776e61626c653a206e6577206f776e657220697320746865207a65726f2061646472657373\n    data_43f189f9d541f43c4b16605e8b10a0c6a0bed6754e87651b1b429cf06ade5fad 494e4452413a207472616e736665722066726f6d20746865207a65726f2061646472657373\n    data_45415ede0acc6bd3066af00c2697f110d2b840a11e6d6982fbdee162cf63f851 494e4452413a2064656372656173656420616c6c6f77616e63652062656c6f77207a65726f\n    data_47949132d0418a546a65e4198ed7750521b37dad62de03c2d59c129fe516d815 494e4452413a20617070726f76652066726f6d20746865207a65726f2061646472657373\n    data_63cc03a3ef4e80d9618a5eb98be8749a7d78a0ec13f39748ef2bdd594171f4e5 494e4452413a207472616e7366657220616d6f756e7420657863656564732062616c616e6365\n    data_8e0e7ca5ca1c2590910e85c739f0bd59796087e31e7dc4665d54032c8b8a61df 494e4452413a207472616e7366657220616d6f756e74206578636565647320616c6c6f77616e6365\n    data_a5c59fe32750386f83567659e2cfaaef18aabfb3d8280ada7958f80697567f0f 494e4452413a207472616e7366657220746f20746865207a65726f2061646472657373\n    data_b9bec085af116e013ba0cb4636ece7f9f4c8510858860b65c909f4ff37f0dbc9 494e4452413a20617070726f766520746f20746865207a65726f2061646472657373\n\n    auxdata: 0xa265627a7a7231582004b1bcaa31652c6047149b56e2f50163b15469bc0590b2386c3200bc0e2f94df64736f6c63430005100032\n}\n",
				"bytecode": {
					"linkReferences": {},
					"object": "60806040523480156200001157600080fd5b50604051620013c7380380620013c7833981810160405260608110156200003757600080fd5b81019080805160405193929190846401000000008211156200005857600080fd5b9083019060208201858111156200006e57600080fd5b82516401000000008111828201881017156200008957600080fd5b82525081516020918201929091019080838360005b83811015620000b85781810151838201526020016200009e565b50505050905090810190601f168015620000e65780820380516001836020036101000a031916815260200191505b50604052602001805160405193929190846401000000008211156200010a57600080fd5b9083019060208201858111156200012057600080fd5b82516401000000008111828201881017156200013b57600080fd5b82525081516020918201929091019080838360005b838110156200016a57818101518382015260200162000150565b50505050905090810190601f168015620001985780820380516001836020036101000a031916815260200191505b5060405260200151915060009050620001b96001600160e01b036200029616565b600080546001600160a01b0319166001600160a01b0383169081178255604051929350917f8be0079c531659141344cd1fd0a4f28419497f9722a3daafe3b4186f6b6457e0908290a3508251620002189060069060208601906200029b565b5081516200022e9060059060208501906200029b565b506004805460ff191660121790556003818155336000818152600160209081526040808320479055935484519081529351929391927fddf252ad1be2c89b69c2b068fc378daa952ba7f163c4a11628f55a4df523b3ef9281900390910190a35050506200033d565b335b90565b828054600181600116156101000203166002900490600052602060002090601f016020900481019282601f10620002de57805160ff19168380011785556200030e565b828001600101855582156200030e579182015b828111156200030e578251825591602001919060010190620002f1565b506200031c92915062000320565b5090565b6200029891905b808211156200031c576000815560010162000327565b61107a806200034d6000396000f3fe6080604052600436106101145760003560e01c8063893d20e8116100a0578063a9059cbb11610064578063a9059cbb146103ea578063b09f126614610423578063d28d885214610438578063dd62ed3e1461044d578063f2fde38b1461048857610114565b8063893d20e81461032c5780638da5cb5b1461035d57806395d89b4114610372578063a0712d6814610387578063a457c2d7146103b157610114565b8063313ce567116100e7578063313ce5671461026957806332424aa31461027e57806339509351146102a957806370a08231146102e2578063715018a61461031557610114565b806306fdde0314610128578063095ea7b3146101b257806318160ddd146101ff57806323b872dd14610226575b336000908152600160205260409020479055005b34801561013457600080fd5b5061013d6104bb565b6040805160208082528351818301528351919283929083019185019080838360005b8381101561017757818101518382015260200161015f565b50505050905090810190601f1680156101a45780820380516001836020036101000a031916815260200191505b509250505060405180910390f35b3480156101be57600080fd5b506101eb600480360360408110156101d557600080fd5b506001600160a01b038135169060200135610551565b604080519115158252519081900360200190f35b34801561020b57600080fd5b5061021461056e565b60408051918252519081900360200190f35b34801561023257600080fd5b506101eb6004803603606081101561024957600080fd5b506001600160a01b03813581169160208101359091169060400135610574565b34801561027557600080fd5b50610214610601565b34801561028a57600080fd5b5061029361060a565b6040805160ff9092168252519081900360200190f35b3480156102b557600080fd5b506101eb600480360360408110156102cc57600080fd5b506001600160a01b038135169060200135610613565b3480156102ee57600080fd5b506102146004803603602081101561030557600080fd5b50356001600160a01b0316610667565b34801561032157600080fd5b5061032a610682565b005b34801561033857600080fd5b50610341610736565b604080516001600160a01b039092168252519081900360200190f35b34801561036957600080fd5b50610341610745565b34801561037e57600080fd5b5061013d610754565b34801561039357600080fd5b506101eb600480360360208110156103aa57600080fd5b50356107b5565b3480156103bd57600080fd5b506101eb600480360360408110156103d457600080fd5b506001600160a01b03813516906020013561083a565b3480156103f657600080fd5b506101eb6004803603604081101561040d57600080fd5b506001600160a01b0381351690602001356108a8565b34801561042f57600080fd5b5061013d6108bc565b34801561044457600080fd5b5061013d61094a565b34801561045957600080fd5b506102146004803603604081101561047057600080fd5b506001600160a01b03813581169160200135166109a5565b34801561049457600080fd5b5061032a600480360360208110156104ab57600080fd5b50356001600160a01b03166109d0565b60068054604080516020601f60026000196101006001881615020190951694909404938401819004810282018101909252828152606093909290918301828280156105475780601f1061051c57610100808354040283529160200191610547565b820191906000526020600020905b81548152906001019060200180831161052a57829003601f168201915b5050505050905090565b600061056561055e610a46565b8484610a4a565b50600192915050565b60035490565b6000610581848484610b36565b6105f78461058d610a46565b6105f285604051806060016040528060288152602001610fd9602891396001600160a01b038a166000908152600260205260408120906105cb610a46565b6001600160a01b03168152602081019190915260400160002054919063ffffffff610c9416565b610a4a565b5060019392505050565b60045460ff1690565b60045460ff1681565b6000610565610620610a46565b846105f28560026000610631610a46565b6001600160a01b03908116825260208083019390935260409182016000908120918c16815292529020549063ffffffff610d2b16565b6001600160a01b031660009081526001602052604090205490565b61068a610a46565b6000546001600160a01b039081169116146106ec576040805162461bcd60e51b815260206004820181905260248201527f4f776e61626c653a2063616c6c6572206973206e6f7420746865206f776e6572604482015290519081900360640190fd5b600080546040516001600160a01b03909116907f8be0079c531659141344cd1fd0a4f28419497f9722a3daafe3b4186f6b6457e0908390a3600080546001600160a01b0319169055565b6000610740610745565b905090565b6000546001600160a01b031690565b60058054604080516020601f60026000196101006001881615020190951694909404938401819004810282018101909252828152606093909290918301828280156105475780601f1061051c57610100808354040283529160200191610547565b60006107bf610a46565b6000546001600160a01b03908116911614610821576040805162461bcd60e51b815260206004820181905260248201527f4f776e61626c653a2063616c6c6572206973206e6f7420746865206f776e6572604482015290519081900360640190fd5b61083261082c610a46565b83610d8c565b506001919050565b6000610565610847610a46565b846105f285604051806060016040528060258152602001610f6a6025913960026000610871610a46565b6001600160a01b03908116825260208083019390935260409182016000908120918d1681529252902054919063ffffffff610c9416565b60006105656108b5610a46565b8484610b36565b6005805460408051602060026001851615610100026000190190941693909304601f810184900484028201840190925281815292918301828280156109425780601f1061091757610100808354040283529160200191610942565b820191906000526020600020905b81548152906001019060200180831161092557829003601f168201915b505050505081565b6006805460408051602060026001851615610100026000190190941693909304601f810184900484028201840190925281815292918301828280156109425780601f1061091757610100808354040283529160200191610942565b6001600160a01b03918216600090815260026020908152604080832093909416825291909152205490565b6109d8610a46565b6000546001600160a01b03908116911614610a3a576040805162461bcd60e51b815260206004820181905260248201527f4f776e61626c653a2063616c6c6572206973206e6f7420746865206f776e6572604482015290519081900360640190fd5b610a4381610e7e565b50565b3390565b6001600160a01b038316610a8f5760405162461bcd60e51b8152600401808060200182810382526024815260200180610f8f6024913960400191505060405180910390fd5b6001600160a01b038216610ad45760405162461bcd60e51b81526004018080602001828103825260228152602001806110246022913960400191505060405180910390fd5b6001600160a01b03808416600081815260026020908152604080832094871680845294825291829020859055815185815291517f8c5be1e5ebec7d5bd14f71427d1e84f3dd0314c0f7b2291e5b200ac8c7c3b9259281900390910190a3505050565b6001600160a01b038316610b7b5760405162461bcd60e51b8152600401808060200182810382526025815260200180610f456025913960400191505060405180910390fd5b6001600160a01b038216610bc05760405162461bcd60e51b81526004018080602001828103825260238152602001806110016023913960400191505060405180910390fd5b610c0381604051806060016040528060268152602001610fb3602691396001600160a01b038616600090815260016020526040902054919063ffffffff610c9416565b6001600160a01b038085166000908152600160205260408082209390935590841681522054610c38908263ffffffff610d2b16565b6001600160a01b0380841660008181526001602090815260409182902094909455805185815290519193928716927fddf252ad1be2c89b69c2b068fc378daa952ba7f163c4a11628f55a4df523b3ef92918290030190a3505050565b60008184841115610d235760405162461bcd60e51b81526004018080602001828103825283818151815260200191508051906020019080838360005b83811015610ce8578181015183820152602001610cd0565b50505050905090810190601f168015610d155780820380516001836020036101000a031916815260200191505b509250505060405180910390fd5b505050900390565b600082820183811015610d85576040805162461bcd60e51b815260206004820152601b60248201527f536166654d6174683a206164646974696f6e206f766572666c6f770000000000604482015290519081900360640190fd5b9392505050565b6001600160a01b038216610de7576040805162461bcd60e51b815260206004820152601f60248201527f494e4452413a206d696e7420746f20746865207a65726f206164647265737300604482015290519081900360640190fd5b600354610dfa908263ffffffff610d2b16565b6003556001600160a01b038216600090815260016020526040902054610e26908263ffffffff610d2b16565b6001600160a01b03831660008181526001602090815260408083209490945583518581529351929391927fddf252ad1be2c89b69c2b068fc378daa952ba7f163c4a11628f55a4df523b3ef9281900390910190a35050565b6001600160a01b038116610ec35760405162461bcd60e51b8152600401808060200182810382526026815260200180610f1f6026913960400191505060405180910390fd5b600080546040516001600160a01b03808516939216917f8be0079c531659141344cd1fd0a4f28419497f9722a3daafe3b4186f6b6457e091a3600080546001600160a01b0319166001600160a01b039290921691909117905556fe4f776e61626c653a206e6577206f776e657220697320746865207a65726f2061646472657373494e4452413a207472616e736665722066726f6d20746865207a65726f2061646472657373494e4452413a2064656372656173656420616c6c6f77616e63652062656c6f77207a65726f494e4452413a20617070726f76652066726f6d20746865207a65726f2061646472657373494e4452413a207472616e7366657220616d6f756e7420657863656564732062616c616e6365494e4452413a207472616e7366657220616d6f756e74206578636565647320616c6c6f77616e6365494e4452413a207472616e7366657220746f20746865207a65726f2061646472657373494e4452413a20617070726f766520746f20746865207a65726f2061646472657373a265627a7a7231582004b1bcaa31652c6047149b56e2f50163b15469bc0590b2386c3200bc0e2f94df64736f6c63430005100032",
					"opcodes": "PUSH1 0x80 PUSH1 0x40 MSTORE CALLVALUE DUP1 ISZERO PUSH3 0x11 JUMPI PUSH1 0x0 DUP1 REVERT JUMPDEST POP PUSH1 0x40 MLOAD PUSH3 0x13C7 CODESIZE SUB DUP1 PUSH3 0x13C7 DUP4 CODECOPY DUP2 DUP2 ADD PUSH1 0x40 MSTORE PUSH1 0x60 DUP2 LT ISZERO PUSH3 0x37 JUMPI PUSH1 0x0 DUP1 REVERT JUMPDEST DUP2 ADD SWAP1 DUP1 DUP1 MLOAD PUSH1 0x40 MLOAD SWAP4 SWAP3 SWAP2 SWAP1 DUP5 PUSH5 0x100000000 DUP3 GT ISZERO PUSH3 0x58 JUMPI PUSH1 0x0 DUP1 REVERT JUMPDEST SWAP1 DUP4 ADD SWAP1 PUSH1 0x20 DUP3 ADD DUP6 DUP2 GT ISZERO PUSH3 0x6E JUMPI PUSH1 0x0 DUP1 REVERT JUMPDEST DUP3 MLOAD PUSH5 0x100000000 DUP2 GT DUP3 DUP3 ADD DUP9 LT OR ISZERO PUSH3 0x89 JUMPI PUSH1 0x0 DUP1 REVERT JUMPDEST DUP3 MSTORE POP DUP2 MLOAD PUSH1 0x20 SWAP2 DUP3 ADD SWAP3 SWAP1 SWAP2 ADD SWAP1 DUP1 DUP4 DUP4 PUSH1 0x0 JUMPDEST DUP4 DUP2 LT ISZERO PUSH3 0xB8 JUMPI DUP2 DUP2 ADD MLOAD DUP4 DUP3 ADD MSTORE PUSH1 0x20 ADD PUSH3 0x9E JUMP JUMPDEST POP POP POP POP SWAP1 POP SWAP1 DUP2 ADD SWAP1 PUSH1 0x1F AND DUP1 ISZERO PUSH3 0xE6 JUMPI DUP1 DUP3 SUB DUP1 MLOAD PUSH1 0x1 DUP4 PUSH1 0x20 SUB PUSH2 0x100 EXP SUB NOT AND DUP2 MSTORE PUSH1 0x20 ADD SWAP2 POP JUMPDEST POP PUSH1 0x40 MSTORE PUSH1 0x20 ADD DUP1 MLOAD PUSH1 0x40 MLOAD SWAP4 SWAP3 SWAP2 SWAP1 DUP5 PUSH5 0x100000000 DUP3 GT ISZERO PUSH3 0x10A JUMPI PUSH1 0x0 DUP1 REVERT JUMPDEST SWAP1 DUP4 ADD SWAP1 PUSH1 0x20 DUP3 ADD DUP6 DUP2 GT ISZERO PUSH3 0x120 JUMPI PUSH1 0x0 DUP1 REVERT JUMPDEST DUP3 MLOAD PUSH5 0x100000000 DUP2 GT DUP3 DUP3 ADD DUP9 LT OR ISZERO PUSH3 0x13B JUMPI PUSH1 0x0 DUP1 REVERT JUMPDEST DUP3 MSTORE POP DUP2 MLOAD PUSH1 0x20 SWAP2 DUP3 ADD SWAP3 SWAP1 SWAP2 ADD SWAP1 DUP1 DUP4 DUP4 PUSH1 0x0 JUMPDEST DUP4 DUP2 LT ISZERO PUSH3 0x16A JUMPI DUP2 DUP2 ADD MLOAD DUP4 DUP3 ADD MSTORE PUSH1 0x20 ADD PUSH3 0x150 JUMP JUMPDEST POP POP POP POP SWAP1 POP SWAP1 DUP2 ADD SWAP1 PUSH1 0x1F AND DUP1 ISZERO PUSH3 0x198 JUMPI DUP1 DUP3 SUB DUP1 MLOAD PUSH1 0x1 DUP4 PUSH1 0x20 SUB PUSH2 0x100 EXP SUB NOT AND DUP2 MSTORE PUSH1 0x20 ADD SWAP2 POP JUMPDEST POP PUSH1 0x40 MSTORE PUSH1 0x20 ADD MLOAD SWAP2 POP PUSH1 0x0 SWAP1 POP PUSH3 0x1B9 PUSH1 0x1 PUSH1 0x1 PUSH1 0xE0 SHL SUB PUSH3 0x296 AND JUMP JUMPDEST PUSH1 0x0 DUP1 SLOAD PUSH1 0x1 PUSH1 0x1 PUSH1 0xA0 SHL SUB NOT AND PUSH1 0x1 PUSH1 0x1 PUSH1 0xA0 SHL SUB DUP4 AND SWAP1 DUP2 OR DUP3 SSTORE PUSH1 0x40 MLOAD SWAP3 SWAP4 POP SWAP2 PUSH32 0x8BE0079C531659141344CD1FD0A4F28419497F9722A3DAAFE3B4186F6B6457E0 SWAP1 DUP3 SWAP1 LOG3 POP DUP3 MLOAD PUSH3 0x218 SWAP1 PUSH1 0x6 SWAP1 PUSH1 0x20 DUP7 ADD SWAP1 PUSH3 0x29B JUMP JUMPDEST POP DUP2 MLOAD PUSH3 0x22E SWAP1 PUSH1 0x5 SWAP1 PUSH1 0x20 DUP6 ADD SWAP1 PUSH3 0x29B JUMP JUMPDEST POP PUSH1 0x4 DUP1 SLOAD PUSH1 0xFF NOT AND PUSH1 0x12 OR SWAP1 SSTORE PUSH1 0x3 DUP2 DUP2 SSTORE CALLER PUSH1 0x0 DUP2 DUP2 MSTORE PUSH1 0x1 PUSH1 0x20 SWAP1 DUP2 MSTORE PUSH1 0x40 DUP1 DUP4 KECCAK256 SELFBALANCE SWAP1 SSTORE SWAP4 SLOAD DUP5 MLOAD SWAP1 DUP2 MSTORE SWAP4 MLOAD SWAP3 SWAP4 SWAP2 SWAP3 PUSH32 0xDDF252AD1BE2C89B69C2B068FC378DAA952BA7F163C4A11628F55A4DF523B3EF SWAP3 DUP2 SWAP1 SUB SWAP1 SWAP2 ADD SWAP1 LOG3 POP POP POP PUSH3 0x33D JUMP JUMPDEST CALLER JUMPDEST SWAP1 JUMP JUMPDEST DUP3 DUP1 SLOAD PUSH1 0x1 DUP2 PUSH1 0x1 AND ISZERO PUSH2 0x100 MUL SUB AND PUSH1 0x2 SWAP1 DIV SWAP1 PUSH1 0x0 MSTORE PUSH1 0x20 PUSH1 0x0 KECCAK256 SWAP1 PUSH1 0x1F ADD PUSH1 0x20 SWAP1 DIV DUP2 ADD SWAP3 DUP3 PUSH1 0x1F LT PUSH3 0x2DE JUMPI DUP1 MLOAD PUSH1 0xFF NOT AND DUP4 DUP1 ADD OR DUP6 SSTORE PUSH3 0x30E JUMP JUMPDEST DUP3 DUP1 ADD PUSH1 0x1 ADD DUP6 SSTORE DUP3 ISZERO PUSH3 0x30E JUMPI SWAP2 DUP3 ADD JUMPDEST DUP3 DUP2 GT ISZERO PUSH3 0x30E JUMPI DUP3 MLOAD DUP3 SSTORE SWAP2 PUSH1 0x20 ADD SWAP2 SWAP1 PUSH1 0x1 ADD SWAP1 PUSH3 0x2F1 JUMP JUMPDEST POP PUSH3 0x31C SWAP3 SWAP2 POP PUSH3 0x320 JUMP JUMPDEST POP SWAP1 JUMP JUMPDEST PUSH3 0x298 SWAP2 SWAP1 JUMPDEST DUP1 DUP3 GT ISZERO PUSH3 0x31C JUMPI PUSH1 0x0 DUP2 SSTORE PUSH1 0x1 ADD PUSH3 0x327 JUMP JUMPDEST PUSH2 0x107A DUP1 PUSH3 0x34D PUSH1 0x0 CODECOPY PUSH1 0x0 RETURN INVALID PUSH1 0x80 PUSH1 0x40 MSTORE PUSH1 0x4 CALLDATASIZE LT PUSH2 0x114 JUMPI PUSH1 0x0 CALLDATALOAD PUSH1 0xE0 SHR DUP1 PUSH4 0x893D20E8 GT PUSH2 0xA0 JUMPI DUP1 PUSH4 0xA9059CBB GT PUSH2 0x64 JUMPI DUP1 PUSH4 0xA9059CBB EQ PUSH2 0x3EA JUMPI DUP1 PUSH4 0xB09F1266 EQ PUSH2 0x423 JUMPI DUP1 PUSH4 0xD28D8852 EQ PUSH2 0x438 JUMPI DUP1 PUSH4 0xDD62ED3E EQ PUSH2 0x44D JUMPI DUP1 PUSH4 0xF2FDE38B EQ PUSH2 0x488 JUMPI PUSH2 0x114 JUMP JUMPDEST DUP1 PUSH4 0x893D20E8 EQ PUSH2 0x32C JUMPI DUP1 PUSH4 0x8DA5CB5B EQ PUSH2 0x35D JUMPI DUP1 PUSH4 0x95D89B41 EQ PUSH2 0x372 JUMPI DUP1 PUSH4 0xA0712D68 EQ PUSH2 0x387 JUMPI DUP1 PUSH4 0xA457C2D7 EQ PUSH2 0x3B1 JUMPI PUSH2 0x114 JUMP JUMPDEST DUP1 PUSH4 0x313CE567 GT PUSH2 0xE7 JUMPI DUP1 PUSH4 0x313CE567 EQ PUSH2 0x269 JUMPI DUP1 PUSH4 0x32424AA3 EQ PUSH2 0x27E JUMPI DUP1 PUSH4 0x39509351 EQ PUSH2 0x2A9 JUMPI DUP1 PUSH4 0x70A08231 EQ PUSH2 0x2E2 JUMPI DUP1 PUSH4 0x715018A6 EQ PUSH2 0x315 JUMPI PUSH2 0x114 JUMP JUMPDEST DUP1 PUSH4 0x6FDDE03 EQ PUSH2 0x128 JUMPI DUP1 PUSH4 0x95EA7B3 EQ PUSH2 0x1B2 JUMPI DUP1 PUSH4 0x18160DDD EQ PUSH2 0x1FF JUMPI DUP1 PUSH4 0x23B872DD EQ PUSH2 0x226 JUMPI JUMPDEST CALLER PUSH1 0x0 SWAP1 DUP2 MSTORE PUSH1 0x1 PUSH1 0x20 MSTORE PUSH1 0x40 SWAP1 KECCAK256 SELFBALANCE SWAP1 SSTORE STOP JUMPDEST CALLVALUE DUP1 ISZERO PUSH2 0x134 JUMPI PUSH1 0x0 DUP1 REVERT JUMPDEST POP PUSH2 0x13D PUSH2 0x4BB JUMP JUMPDEST PUSH1 0x40 DUP1 MLOAD PUSH1 0x20 DUP1 DUP3 MSTORE DUP4 MLOAD DUP2 DUP4 ADD MSTORE DUP4 MLOAD SWAP2 SWAP3 DUP4 SWAP3 SWAP1 DUP4 ADD SWAP2 DUP6 ADD SWAP1 DUP1 DUP4 DUP4 PUSH1 0x0 JUMPDEST DUP4 DUP2 LT ISZERO PUSH2 0x177 JUMPI DUP2 DUP2 ADD MLOAD DUP4 DUP3 ADD MSTORE PUSH1 0x20 ADD PUSH2 0x15F JUMP JUMPDEST POP POP POP POP SWAP1 POP SWAP1 DUP2 ADD SWAP1 PUSH1 0x1F AND DUP1 ISZERO PUSH2 0x1A4 JUMPI DUP1 DUP3 SUB DUP1 MLOAD PUSH1 0x1 DUP4 PUSH1 0x20 SUB PUSH2 0x100 EXP SUB NOT AND DUP2 MSTORE PUSH1 0x20 ADD SWAP2 POP JUMPDEST POP SWAP3 POP POP POP PUSH1 0x40 MLOAD DUP1 SWAP2 SUB SWAP1 RETURN JUMPDEST CALLVALUE DUP1 ISZERO PUSH2 0x1BE JUMPI PUSH1 0x0 DUP1 REVERT JUMPDEST POP PUSH2 0x1EB PUSH1 0x4 DUP1 CALLDATASIZE SUB PUSH1 0x40 DUP2 LT ISZERO PUSH2 0x1D5 JUMPI PUSH1 0x0 DUP1 REVERT JUMPDEST POP PUSH1 0x1 PUSH1 0x1 PUSH1 0xA0 SHL SUB DUP2 CALLDATALOAD AND SWAP1 PUSH1 0x20 ADD CALLDATALOAD PUSH2 0x551 JUMP JUMPDEST PUSH1 0x40 DUP1 MLOAD SWAP2 ISZERO ISZERO DUP3 MSTORE MLOAD SWAP1 DUP2 SWAP1 SUB PUSH1 0x20 ADD SWAP1 RETURN JUMPDEST CALLVALUE DUP1 ISZERO PUSH2 0x20B JUMPI PUSH1 0x0 DUP1 REVERT JUMPDEST POP PUSH2 0x214 PUSH2 0x56E JUMP JUMPDEST PUSH1 0x40 DUP1 MLOAD SWAP2 DUP3 MSTORE MLOAD SWAP1 DUP2 SWAP1 SUB PUSH1 0x20 ADD SWAP1 RETURN JUMPDEST CALLVALUE DUP1 ISZERO PUSH2 0x232 JUMPI PUSH1 0x0 DUP1 REVERT JUMPDEST POP PUSH2 0x1EB PUSH1 0x4 DUP1 CALLDATASIZE SUB PUSH1 0x60 DUP2 LT ISZERO PUSH2 0x249 JUMPI PUSH1 0x0 DUP1 REVERT JUMPDEST POP PUSH1 0x1 PUSH1 0x1 PUSH1 0xA0 SHL SUB DUP2 CALLDATALOAD DUP2 AND SWAP2 PUSH1 0x20 DUP2 ADD CALLDATALOAD SWAP1 SWAP2 AND SWAP1 PUSH1 0x40 ADD CALLDATALOAD PUSH2 0x574 JUMP JUMPDEST CALLVALUE DUP1 ISZERO PUSH2 0x275 JUMPI PUSH1 0x0 DUP1 REVERT JUMPDEST POP PUSH2 0x214 PUSH2 0x601 JUMP JUMPDEST CALLVALUE DUP1 ISZERO PUSH2 0x28A JUMPI PUSH1 0x0 DUP1 REVERT JUMPDEST POP PUSH2 0x293 PUSH2 0x60A JUMP JUMPDEST PUSH1 0x40 DUP1 MLOAD PUSH1 0xFF SWAP1 SWAP3 AND DUP3 MSTORE MLOAD SWAP1 DUP2 SWAP1 SUB PUSH1 0x20 ADD SWAP1 RETURN JUMPDEST CALLVALUE DUP1 ISZERO PUSH2 0x2B5 JUMPI PUSH1 0x0 DUP1 REVERT JUMPDEST POP PUSH2 0x1EB PUSH1 0x4 DUP1 CALLDATASIZE SUB PUSH1 0x40 DUP2 LT ISZERO PUSH2 0x2CC JUMPI PUSH1 0x0 DUP1 REVERT JUMPDEST POP PUSH1 0x1 PUSH1 0x1 PUSH1 0xA0 SHL SUB DUP2 CALLDATALOAD AND SWAP1 PUSH1 0x20 ADD CALLDATALOAD PUSH2 0x613 JUMP JUMPDEST CALLVALUE DUP1 ISZERO PUSH2 0x2EE JUMPI PUSH1 0x0 DUP1 REVERT JUMPDEST POP PUSH2 0x214 PUSH1 0x4 DUP1 CALLDATASIZE SUB PUSH1 0x20 DUP2 LT ISZERO PUSH2 0x305 JUMPI PUSH1 0x0 DUP1 REVERT JUMPDEST POP CALLDATALOAD PUSH1 0x1 PUSH1 0x1 PUSH1 0xA0 SHL SUB AND PUSH2 0x667 JUMP JUMPDEST CALLVALUE DUP1 ISZERO PUSH2 0x321 JUMPI PUSH1 0x0 DUP1 REVERT JUMPDEST POP PUSH2 0x32A PUSH2 0x682 JUMP JUMPDEST STOP JUMPDEST CALLVALUE DUP1 ISZERO PUSH2 0x338 JUMPI PUSH1 0x0 DUP1 REVERT JUMPDEST POP PUSH2 0x341 PUSH2 0x736 JUMP JUMPDEST PUSH1 0x40 DUP1 MLOAD PUSH1 0x1 PUSH1 0x1 PUSH1 0xA0 SHL SUB SWAP1 SWAP3 AND DUP3 MSTORE MLOAD SWAP1 DUP2 SWAP1 SUB PUSH1 0x20 ADD SWAP1 RETURN JUMPDEST CALLVALUE DUP1 ISZERO PUSH2 0x369 JUMPI PUSH1 0x0 DUP1 REVERT JUMPDEST POP PUSH2 0x341 PUSH2 0x745 JUMP JUMPDEST CALLVALUE DUP1 ISZERO PUSH2 0x37E JUMPI PUSH1 0x0 DUP1 REVERT JUMPDEST POP PUSH2 0x13D PUSH2 0x754 JUMP JUMPDEST CALLVALUE DUP1 ISZERO PUSH2 0x393 JUMPI PUSH1 0x0 DUP1 REVERT JUMPDEST POP PUSH2 0x1EB PUSH1 0x4 DUP1 CALLDATASIZE SUB PUSH1 0x20 DUP2 LT ISZERO PUSH2 0x3AA JUMPI PUSH1 0x0 DUP1 REVERT JUMPDEST POP CALLDATALOAD PUSH2 0x7B5 JUMP JUMPDEST CALLVALUE DUP1 ISZERO PUSH2 0x3BD JUMPI PUSH1 0x0 DUP1 REVERT JUMPDEST POP PUSH2 0x1EB PUSH1 0x4 DUP1 CALLDATASIZE SUB PUSH1 0x40 DUP2 LT ISZERO PUSH2 0x3D4 JUMPI PUSH1 0x0 DUP1 REVERT JUMPDEST POP PUSH1 0x1 PUSH1 0x1 PUSH1 0xA0 SHL SUB DUP2 CALLDATALOAD AND SWAP1 PUSH1 0x20 ADD CALLDATALOAD PUSH2 0x83A JUMP JUMPDEST CALLVALUE DUP1 ISZERO PUSH2 0x3F6 JUMPI PUSH1 0x0 DUP1 REVERT JUMPDEST POP PUSH2 0x1EB PUSH1 0x4 DUP1 CALLDATASIZE SUB PUSH1 0x40 DUP2 LT ISZERO PUSH2 0x40D JUMPI PUSH1 0x0 DUP1 REVERT JUMPDEST POP PUSH1 0x1 PUSH1 0x1 PUSH1 0xA0 SHL SUB DUP2 CALLDATALOAD AND SWAP1 PUSH1 0x20 ADD CALLDATALOAD PUSH2 0x8A8 JUMP JUMPDEST CALLVALUE DUP1 ISZERO PUSH2 0x42F JUMPI PUSH1 0x0 DUP1 REVERT JUMPDEST POP PUSH2 0x13D PUSH2 0x8BC JUMP JUMPDEST CALLVALUE DUP1 ISZERO PUSH2 0x444 JUMPI PUSH1 0x0 DUP1 REVERT JUMPDEST POP PUSH2 0x13D PUSH2 0x94A JUMP JUMPDEST CALLVALUE DUP1 ISZERO PUSH2 0x459 JUMPI PUSH1 0x0 DUP1 REVERT JUMPDEST POP PUSH2 0x214 PUSH1 0x4 DUP1 CALLDATASIZE SUB PUSH1 0x40 DUP2 LT ISZERO PUSH2 0x470 JUMPI PUSH1 0x0 DUP1 REVERT JUMPDEST POP PUSH1 0x1 PUSH1 0x1 PUSH1 0xA0 SHL SUB DUP2 CALLDATALOAD DUP2 AND SWAP2 PUSH1 0x20 ADD CALLDATALOAD AND PUSH2 0x9A5 JUMP JUMPDEST CALLVALUE DUP1 ISZERO PUSH2 0x494 JUMPI PUSH1 0x0 DUP1 REVERT JUMPDEST POP PUSH2 0x32A PUSH1 0x4 DUP1 CALLDATASIZE SUB PUSH1 0x20 DUP2 LT ISZERO PUSH2 0x4AB JUMPI PUSH1 0x0 DUP1 REVERT JUMPDEST POP CALLDATALOAD PUSH1 0x1 PUSH1 0x1 PUSH1 0xA0 SHL SUB AND PUSH2 0x9D0 JUMP JUMPDEST PUSH1 0x6 DUP1 SLOAD PUSH1 0x40 DUP1 MLOAD PUSH1 0x20 PUSH1 0x1F PUSH1 0x2 PUSH1 0x0 NOT PUSH2 0x100 PUSH1 0x1 DUP9 AND ISZERO MUL ADD SWAP1 SWAP6 AND SWAP5 SWAP1 SWAP5 DIV SWAP4 DUP5 ADD DUP2 SWAP1 DIV DUP2 MUL DUP3 ADD DUP2 ADD SWAP1 SWAP3 MSTORE DUP3 DUP2 MSTORE PUSH1 0x60 SWAP4 SWAP1 SWAP3 SWAP1 SWAP2 DUP4 ADD DUP3 DUP3 DUP1 ISZERO PUSH2 0x547 JUMPI DUP1 PUSH1 0x1F LT PUSH2 0x51C JUMPI PUSH2 0x100 DUP1 DUP4 SLOAD DIV MUL DUP4 MSTORE SWAP2 PUSH1 0x20 ADD SWAP2 PUSH2 0x547 JUMP JUMPDEST DUP3 ADD SWAP2 SWAP1 PUSH1 0x0 MSTORE PUSH1 0x20 PUSH1 0x0 KECCAK256 SWAP1 JUMPDEST DUP2 SLOAD DUP2 MSTORE SWAP1 PUSH1 0x1 ADD SWAP1 PUSH1 0x20 ADD DUP1 DUP4 GT PUSH2 0x52A JUMPI DUP3 SWAP1 SUB PUSH1 0x1F AND DUP3 ADD SWAP2 JUMPDEST POP POP POP POP POP SWAP1 POP SWAP1 JUMP JUMPDEST PUSH1 0x0 PUSH2 0x565 PUSH2 0x55E PUSH2 0xA46 JUMP JUMPDEST DUP5 DUP5 PUSH2 0xA4A JUMP JUMPDEST POP PUSH1 0x1 SWAP3 SWAP2 POP POP JUMP JUMPDEST PUSH1 0x3 SLOAD SWAP1 JUMP JUMPDEST PUSH1 0x0 PUSH2 0x581 DUP5 DUP5 DUP5 PUSH2 0xB36 JUMP JUMPDEST PUSH2 0x5F7 DUP5 PUSH2 0x58D PUSH2 0xA46 JUMP JUMPDEST PUSH2 0x5F2 DUP6 PUSH1 0x40 MLOAD DUP1 PUSH1 0x60 ADD PUSH1 0x40 MSTORE DUP1 PUSH1 0x28 DUP2 MSTORE PUSH1 0x20 ADD PUSH2 0xFD9 PUSH1 0x28 SWAP2 CODECOPY PUSH1 0x1 PUSH1 0x1 PUSH1 0xA0 SHL SUB DUP11 AND PUSH1 0x0 SWAP1 DUP2 MSTORE PUSH1 0x2 PUSH1 0x20 MSTORE PUSH1 0x40 DUP2 KECCAK256 SWAP1 PUSH2 0x5CB PUSH2 0xA46 JUMP JUMPDEST PUSH1 0x1 PUSH1 0x1 PUSH1 0xA0 SHL SUB AND DUP2 MSTORE PUSH1 0x20 DUP2 ADD SWAP2 SWAP1 SWAP2 MSTORE PUSH1 0x40 ADD PUSH1 0x0 KECCAK256 SLOAD SWAP2 SWAP1 PUSH4 0xFFFFFFFF PUSH2 0xC94 AND JUMP JUMPDEST PUSH2 0xA4A JUMP JUMPDEST POP PUSH1 0x1 SWAP4 SWAP3 POP POP POP JUMP JUMPDEST PUSH1 0x4 SLOAD PUSH1 0xFF AND SWAP1 JUMP JUMPDEST PUSH1 0x4 SLOAD PUSH1 0xFF AND DUP2 JUMP JUMPDEST PUSH1 0x0 PUSH2 0x565 PUSH2 0x620 PUSH2 0xA46 JUMP JUMPDEST DUP5 PUSH2 0x5F2 DUP6 PUSH1 0x2 PUSH1 0x0 PUSH2 0x631 PUSH2 0xA46 JUMP JUMPDEST PUSH1 0x1 PUSH1 0x1 PUSH1 0xA0 SHL SUB SWAP1 DUP2 AND DUP3 MSTORE PUSH1 0x20 DUP1 DUP4 ADD SWAP4 SWAP1 SWAP4 MSTORE PUSH1 0x40 SWAP2 DUP3 ADD PUSH1 0x0 SWAP1 DUP2 KECCAK256 SWAP2 DUP13 AND DUP2 MSTORE SWAP3 MSTORE SWAP1 KECCAK256 SLOAD SWAP1 PUSH4 0xFFFFFFFF PUSH2 0xD2B AND JUMP JUMPDEST PUSH1 0x1 PUSH1 0x1 PUSH1 0xA0 SHL SUB AND PUSH1 0x0 SWAP1 DUP2 MSTORE PUSH1 0x1 PUSH1 0x20 MSTORE PUSH1 0x40 SWAP1 KECCAK256 SLOAD SWAP1 JUMP JUMPDEST PUSH2 0x68A PUSH2 0xA46 JUMP JUMPDEST PUSH1 0x0 SLOAD PUSH1 0x1 PUSH1 0x1 PUSH1 0xA0 SHL SUB SWAP1 DUP2 AND SWAP2 AND EQ PUSH2 0x6EC JUMPI PUSH1 0x40 DUP1 MLOAD PUSH3 0x461BCD PUSH1 0xE5 SHL DUP2 MSTORE PUSH1 0x20 PUSH1 0x4 DUP3 ADD DUP2 SWAP1 MSTORE PUSH1 0x24 DUP3 ADD MSTORE PUSH32 0x4F776E61626C653A2063616C6C6572206973206E6F7420746865206F776E6572 PUSH1 0x44 DUP3 ADD MSTORE SWAP1 MLOAD SWAP1 DUP2 SWAP1 SUB PUSH1 0x64 ADD SWAP1 REVERT JUMPDEST PUSH1 0x0 DUP1 SLOAD PUSH1 0x40 MLOAD PUSH1 0x1 PUSH1 0x1 PUSH1 0xA0 SHL SUB SWAP1 SWAP2 AND SWAP1 PUSH32 0x8BE0079C531659141344CD1FD0A4F28419497F9722A3DAAFE3B4186F6B6457E0 SWAP1 DUP4 SWAP1 LOG3 PUSH1 0x0 DUP1 SLOAD PUSH1 0x1 PUSH1 0x1 PUSH1 0xA0 SHL SUB NOT AND SWAP1 SSTORE JUMP JUMPDEST PUSH1 0x0 PUSH2 0x740 PUSH2 0x745 JUMP JUMPDEST SWAP1 POP SWAP1 JUMP JUMPDEST PUSH1 0x0 SLOAD PUSH1 0x1 PUSH1 0x1 PUSH1 0xA0 SHL SUB AND SWAP1 JUMP JUMPDEST PUSH1 0x5 DUP1 SLOAD PUSH1 0x40 DUP1 MLOAD PUSH1 0x20 PUSH1 0x1F PUSH1 0x2 PUSH1 0x0 NOT PUSH2 0x100 PUSH1 0x1 DUP9 AND ISZERO MUL ADD SWAP1 SWAP6 AND SWAP5 SWAP1 SWAP5 DIV SWAP4 DUP5 ADD DUP2 SWAP1 DIV DUP2 MUL DUP3 ADD DUP2 ADD SWAP1 SWAP3 MSTORE DUP3 DUP2 MSTORE PUSH1 0x60 SWAP4 SWAP1 SWAP3 SWAP1 SWAP2 DUP4 ADD DUP3 DUP3 DUP1 ISZERO PUSH2 0x547 JUMPI DUP1 PUSH1 0x1F LT PUSH2 0x51C JUMPI PUSH2 0x100 DUP1 DUP4 SLOAD DIV MUL DUP4 MSTORE SWAP2 PUSH1 0x20 ADD SWAP2 PUSH2 0x547 JUMP JUMPDEST PUSH1 0x0 PUSH2 0x7BF PUSH2 0xA46 JUMP JUMPDEST PUSH1 0x0 SLOAD PUSH1 0x1 PUSH1 0x1 PUSH1 0xA0 SHL SUB SWAP1 DUP2 AND SWAP2 AND EQ PUSH2 0x821 JUMPI PUSH1 0x40 DUP1 MLOAD PUSH3 0x461BCD PUSH1 0xE5 SHL DUP2 MSTORE PUSH1 0x20 PUSH1 0x4 DUP3 ADD DUP2 SWAP1 MSTORE PUSH1 0x24 DUP3 ADD MSTORE PUSH32 0x4F776E61626C653A2063616C6C6572206973206E6F7420746865206F776E6572 PUSH1 0x44 DUP3 ADD MSTORE SWAP1 MLOAD SWAP1 DUP2 SWAP1 SUB PUSH1 0x64 ADD SWAP1 REVERT JUMPDEST PUSH2 0x832 PUSH2 0x82C PUSH2 0xA46 JUMP JUMPDEST DUP4 PUSH2 0xD8C JUMP JUMPDEST POP PUSH1 0x1 SWAP2 SWAP1 POP JUMP JUMPDEST PUSH1 0x0 PUSH2 0x565 PUSH2 0x847 PUSH2 0xA46 JUMP JUMPDEST DUP5 PUSH2 0x5F2 DUP6 PUSH1 0x40 MLOAD DUP1 PUSH1 0x60 ADD PUSH1 0x40 MSTORE DUP1 PUSH1 0x25 DUP2 MSTORE PUSH1 0x20 ADD PUSH2 0xF6A PUSH1 0x25 SWAP2 CODECOPY PUSH1 0x2 PUSH1 0x0 PUSH2 0x871 PUSH2 0xA46 JUMP JUMPDEST PUSH1 0x1 PUSH1 0x1 PUSH1 0xA0 SHL SUB SWAP1 DUP2 AND DUP3 MSTORE PUSH1 0x20 DUP1 DUP4 ADD SWAP4 SWAP1 SWAP4 MSTORE PUSH1 0x40 SWAP2 DUP3 ADD PUSH1 0x0 SWAP1 DUP2 KECCAK256 SWAP2 DUP14 AND DUP2 MSTORE SWAP3 MSTORE SWAP1 KECCAK256 SLOAD SWAP2 SWAP1 PUSH4 0xFFFFFFFF PUSH2 0xC94 AND JUMP JUMPDEST PUSH1 0x0 PUSH2 0x565 PUSH2 0x8B5 PUSH2 0xA46 JUMP JUMPDEST DUP5 DUP5 PUSH2 0xB36 JUMP JUMPDEST PUSH1 0x5 DUP1 SLOAD PUSH1 0x40 DUP1 MLOAD PUSH1 0x20 PUSH1 0x2 PUSH1 0x1 DUP6 AND ISZERO PUSH2 0x100 MUL PUSH1 0x0 NOT ADD SWAP1 SWAP5 AND SWAP4 SWAP1 SWAP4 DIV PUSH1 0x1F DUP2 ADD DUP5 SWAP1 DIV DUP5 MUL DUP3 ADD DUP5 ADD SWAP1 SWAP3 MSTORE DUP2 DUP2 MSTORE SWAP3 SWAP2 DUP4 ADD DUP3 DUP3 DUP1 ISZERO PUSH2 0x942 JUMPI DUP1 PUSH1 0x1F LT PUSH2 0x917 JUMPI PUSH2 0x100 DUP1 DUP4 SLOAD DIV MUL DUP4 MSTORE SWAP2 PUSH1 0x20 ADD SWAP2 PUSH2 0x942 JUMP JUMPDEST DUP3 ADD SWAP2 SWAP1 PUSH1 0x0 MSTORE PUSH1 0x20 PUSH1 0x0 KECCAK256 SWAP1 JUMPDEST DUP2 SLOAD DUP2 MSTORE SWAP1 PUSH1 0x1 ADD SWAP1 PUSH1 0x20 ADD DUP1 DUP4 GT PUSH2 0x925 JUMPI DUP3 SWAP1 SUB PUSH1 0x1F AND DUP3 ADD SWAP2 JUMPDEST POP POP POP POP POP DUP2 JUMP JUMPDEST PUSH1 0x6 DUP1 SLOAD PUSH1 0x40 DUP1 MLOAD PUSH1 0x20 PUSH1 0x2 PUSH1 0x1 DUP6 AND ISZERO PUSH2 0x100 MUL PUSH1 0x0 NOT ADD SWAP1 SWAP5 AND SWAP4 SWAP1 SWAP4 DIV PUSH1 0x1F DUP2 ADD DUP5 SWAP1 DIV DUP5 MUL DUP3 ADD DUP5 ADD SWAP1 SWAP3 MSTORE DUP2 DUP2 MSTORE SWAP3 SWAP2 DUP4 ADD DUP3 DUP3 DUP1 ISZERO PUSH2 0x942 JUMPI DUP1 PUSH1 0x1F LT PUSH2 0x917 JUMPI PUSH2 0x100 DUP1 DUP4 SLOAD DIV MUL DUP4 MSTORE SWAP2 PUSH1 0x20 ADD SWAP2 PUSH2 0x942 JUMP JUMPDEST PUSH1 0x1 PUSH1 0x1 PUSH1 0xA0 SHL SUB SWAP2 DUP3 AND PUSH1 0x0 SWAP1 DUP2 MSTORE PUSH1 0x2 PUSH1 0x20 SWAP1 DUP2 MSTORE PUSH1 0x40 DUP1 DUP4 KECCAK256 SWAP4 SWAP1 SWAP5 AND DUP3 MSTORE SWAP2 SWAP1 SWAP2 MSTORE KECCAK256 SLOAD SWAP1 JUMP JUMPDEST PUSH2 0x9D8 PUSH2 0xA46 JUMP JUMPDEST PUSH1 0x0 SLOAD PUSH1 0x1 PUSH1 0x1 PUSH1 0xA0 SHL SUB SWAP1 DUP2 AND SWAP2 AND EQ PUSH2 0xA3A JUMPI PUSH1 0x40 DUP1 MLOAD PUSH3 0x461BCD PUSH1 0xE5 SHL DUP2 MSTORE PUSH1 0x20 PUSH1 0x4 DUP3 ADD DUP2 SWAP1 MSTORE PUSH1 0x24 DUP3 ADD MSTORE PUSH32 0x4F776E61626C653A2063616C6C6572206973206E6F7420746865206F776E6572 PUSH1 0x44 DUP3 ADD MSTORE SWAP1 MLOAD SWAP1 DUP2 SWAP1 SUB PUSH1 0x64 ADD SWAP1 REVERT JUMPDEST PUSH2 0xA43 DUP2 PUSH2 0xE7E JUMP JUMPDEST POP JUMP JUMPDEST CALLER SWAP1 JUMP JUMPDEST PUSH1 0x1 PUSH1 0x1 PUSH1 0xA0 SHL SUB DUP4 AND PUSH2 0xA8F JUMPI PUSH1 0x40 MLOAD PUSH3 0x461BCD PUSH1 0xE5 SHL DUP2 MSTORE PUSH1 0x4 ADD DUP1 DUP1 PUSH1 0x20 ADD DUP3 DUP2 SUB DUP3 MSTORE PUSH1 0x24 DUP2 MSTORE PUSH1 0x20 ADD DUP1 PUSH2 0xF8F PUSH1 0x24 SWAP2 CODECOPY PUSH1 0x40 ADD SWAP2 POP POP PUSH1 0x40 MLOAD DUP1 SWAP2 SUB SWAP1 REVERT JUMPDEST PUSH1 0x1 PUSH1 0x1 PUSH1 0xA0 SHL SUB DUP3 AND PUSH2 0xAD4 JUMPI PUSH1 0x40 MLOAD PUSH3 0x461BCD PUSH1 0xE5 SHL DUP2 MSTORE PUSH1 0x4 ADD DUP1 DUP1 PUSH1 0x20 ADD DUP3 DUP2 SUB DUP3 MSTORE PUSH1 0x22 DUP2 MSTORE PUSH1 0x20 ADD DUP1 PUSH2 0x1024 PUSH1 0x22 SWAP2 CODECOPY PUSH1 0x40 ADD SWAP2 POP POP PUSH1 0x40 MLOAD DUP1 SWAP2 SUB SWAP1 REVERT JUMPDEST PUSH1 0x1 PUSH1 0x1 PUSH1 0xA0 SHL SUB DUP1 DUP5 AND PUSH1 0x0 DUP2 DUP2 MSTORE PUSH1 0x2 PUSH1 0x20 SWAP1 DUP2 MSTORE PUSH1 0x40 DUP1 DUP4 KECCAK256 SWAP5 DUP8 AND DUP1 DUP5 MSTORE SWAP5 DUP3 MSTORE SWAP2 DUP3 SWAP1 KECCAK256 DUP6 SWAP1 SSTORE DUP2 MLOAD DUP6 DUP2 MSTORE SWAP2 MLOAD PUSH32 0x8C5BE1E5EBEC7D5BD14F71427D1E84F3DD0314C0F7B2291E5B200AC8C7C3B925 SWAP3 DUP2 SWAP1 SUB SWAP1 SWAP2 ADD SWAP1 LOG3 POP POP POP JUMP JUMPDEST PUSH1 0x1 PUSH1 0x1 PUSH1 0xA0 SHL SUB DUP4 AND PUSH2 0xB7B JUMPI PUSH1 0x40 MLOAD PUSH3 0x461BCD PUSH1 0xE5 SHL DUP2 MSTORE PUSH1 0x4 ADD DUP1 DUP1 PUSH1 0x20 ADD DUP3 DUP2 SUB DUP3 MSTORE PUSH1 0x25 DUP2 MSTORE PUSH1 0x20 ADD DUP1 PUSH2 0xF45 PUSH1 0x25 SWAP2 CODECOPY PUSH1 0x40 ADD SWAP2 POP POP PUSH1 0x40 MLOAD DUP1 SWAP2 SUB SWAP1 REVERT JUMPDEST PUSH1 0x1 PUSH1 0x1 PUSH1 0xA0 SHL SUB DUP3 AND PUSH2 0xBC0 JUMPI PUSH1 0x40 MLOAD PUSH3 0x461BCD PUSH1 0xE5 SHL DUP2 MSTORE PUSH1 0x4 ADD DUP1 DUP1 PUSH1 0x20 ADD DUP3 DUP2 SUB DUP3 MSTORE PUSH1 0x23 DUP2 MSTORE PUSH1 0x20 ADD DUP1 PUSH2 0x1001 PUSH1 0x23 SWAP2 CODECOPY PUSH1 0x40 ADD SWAP2 POP POP PUSH1 0x40 MLOAD DUP1 SWAP2 SUB SWAP1 REVERT JUMPDEST PUSH2 0xC03 DUP2 PUSH1 0x40 MLOAD DUP1 PUSH1 0x60 ADD PUSH1 0x40 MSTORE DUP1 PUSH1 0x26 DUP2 MSTORE PUSH1 0x20 ADD PUSH2 0xFB3 PUSH1 0x26 SWAP2 CODECOPY PUSH1 0x1 PUSH1 0x1 PUSH1 0xA0 SHL SUB DUP7 AND PUSH1 0x0 SWAP1 DUP2 MSTORE PUSH1 0x1 PUSH1 0x20 MSTORE PUSH1 0x40 SWAP1 KECCAK256 SLOAD SWAP2 SWAP1 PUSH4 0xFFFFFFFF PUSH2 0xC94 AND JUMP JUMPDEST PUSH1 0x1 PUSH1 0x1 PUSH1 0xA0 SHL SUB DUP1 DUP6 AND PUSH1 0x0 SWAP1 DUP2 MSTORE PUSH1 0x1 PUSH1 0x20 MSTORE PUSH1 0x40 DUP1 DUP3 KECCAK256 SWAP4 SWAP1 SWAP4 SSTORE SWAP1 DUP5 AND DUP2 MSTORE KECCAK256 SLOAD PUSH2 0xC38 SWAP1 DUP3 PUSH4 0xFFFFFFFF PUSH2 0xD2B AND JUMP JUMPDEST PUSH1 0x1 PUSH1 0x1 PUSH1 0xA0 SHL SUB DUP1 DUP5 AND PUSH1 0x0 DUP2 DUP2 MSTORE PUSH1 0x1 PUSH1 0x20 SWAP1 DUP2 MSTORE PUSH1 0x40 SWAP2 DUP3 SWAP1 KECCAK256 SWAP5 SWAP1 SWAP5 SSTORE DUP1 MLOAD DUP6 DUP2 MSTORE SWAP1 MLOAD SWAP2 SWAP4 SWAP3 DUP8 AND SWAP3 PUSH32 0xDDF252AD1BE2C89B69C2B068FC378DAA952BA7F163C4A11628F55A4DF523B3EF SWAP3 SWAP2 DUP3 SWAP1 SUB ADD SWAP1 LOG3 POP POP POP JUMP JUMPDEST PUSH1 0x0 DUP2 DUP5 DUP5 GT ISZERO PUSH2 0xD23 JUMPI PUSH1 0x40 MLOAD PUSH3 0x461BCD PUSH1 0xE5 SHL DUP2 MSTORE PUSH1 0x4 ADD DUP1 DUP1 PUSH1 0x20 ADD DUP3 DUP2 SUB DUP3 MSTORE DUP4 DUP2 DUP2 MLOAD DUP2 MSTORE PUSH1 0x20 ADD SWAP2 POP DUP1 MLOAD SWAP1 PUSH1 0x20 ADD SWAP1 DUP1 DUP4 DUP4 PUSH1 0x0 JUMPDEST DUP4 DUP2 LT ISZERO PUSH2 0xCE8 JUMPI DUP2 DUP2 ADD MLOAD DUP4 DUP3 ADD MSTORE PUSH1 0x20 ADD PUSH2 0xCD0 JUMP JUMPDEST POP POP POP POP SWAP1 POP SWAP1 DUP2 ADD SWAP1 PUSH1 0x1F AND DUP1 ISZERO PUSH2 0xD15 JUMPI DUP1 DUP3 SUB DUP1 MLOAD PUSH1 0x1 DUP4 PUSH1 0x20 SUB PUSH2 0x100 EXP SUB NOT AND DUP2 MSTORE PUSH1 0x20 ADD SWAP2 POP JUMPDEST POP SWAP3 POP POP POP PUSH1 0x40 MLOAD DUP1 SWAP2 SUB SWAP1 REVERT JUMPDEST POP POP POP SWAP1 SUB SWAP1 JUMP JUMPDEST PUSH1 0x0 DUP3 DUP3 ADD DUP4 DUP2 LT ISZERO PUSH2 0xD85 JUMPI PUSH1 0x40 DUP1 MLOAD PUSH3 0x461BCD PUSH1 0xE5 SHL DUP2 MSTORE PUSH1 0x20 PUSH1 0x4 DUP3 ADD MSTORE PUSH1 0x1B PUSH1 0x24 DUP3 ADD MSTORE PUSH32 0x536166654D6174683A206164646974696F6E206F766572666C6F770000000000 PUSH1 0x44 DUP3 ADD MSTORE SWAP1 MLOAD SWAP1 DUP2 SWAP1 SUB PUSH1 0x64 ADD SWAP1 REVERT JUMPDEST SWAP4 SWAP3 POP POP POP JUMP JUMPDEST PUSH1 0x1 PUSH1 0x1 PUSH1 0xA0 SHL SUB DUP3 AND PUSH2 0xDE7 JUMPI PUSH1 0x40 DUP1 MLOAD PUSH3 0x461BCD PUSH1 0xE5 SHL DUP2 MSTORE PUSH1 0x20 PUSH1 0x4 DUP3 ADD MSTORE PUSH1 0x1F PUSH1 0x24 DUP3 ADD MSTORE PUSH32 0x494E4452413A206D696E7420746F20746865207A65726F206164647265737300 PUSH1 0x44 DUP3 ADD MSTORE SWAP1 MLOAD SWAP1 DUP2 SWAP1 SUB PUSH1 0x64 ADD SWAP1 REVERT JUMPDEST PUSH1 0x3 SLOAD PUSH2 0xDFA SWAP1 DUP3 PUSH4 0xFFFFFFFF PUSH2 0xD2B AND JUMP JUMPDEST PUSH1 0x3 SSTORE PUSH1 0x1 PUSH1 0x1 PUSH1 0xA0 SHL SUB DUP3 AND PUSH1 0x0 SWAP1 DUP2 MSTORE PUSH1 0x1 PUSH1 0x20 MSTORE PUSH1 0x40 SWAP1 KECCAK256 SLOAD PUSH2 0xE26 SWAP1 DUP3 PUSH4 0xFFFFFFFF PUSH2 0xD2B AND JUMP JUMPDEST PUSH1 0x1 PUSH1 0x1 PUSH1 0xA0 SHL SUB DUP4 AND PUSH1 0x0 DUP2 DUP2 MSTORE PUSH1 0x1 PUSH1 0x20 SWAP1 DUP2 MSTORE PUSH1 0x40 DUP1 DUP4 KECCAK256 SWAP5 SWAP1 SWAP5 SSTORE DUP4 MLOAD DUP6 DUP2 MSTORE SWAP4 MLOAD SWAP3 SWAP4 SWAP2 SWAP3 PUSH32 0xDDF252AD1BE2C89B69C2B068FC378DAA952BA7F163C4A11628F55A4DF523B3EF SWAP3 DUP2 SWAP1 SUB SWAP1 SWAP2 ADD SWAP1 LOG3 POP POP JUMP JUMPDEST PUSH1 0x1 PUSH1 0x1 PUSH1 0xA0 SHL SUB DUP2 AND PUSH2 0xEC3 JUMPI PUSH1 0x40 MLOAD PUSH3 0x461BCD PUSH1 0xE5 SHL DUP2 MSTORE PUSH1 0x4 ADD DUP1 DUP1 PUSH1 0x20 ADD DUP3 DUP2 SUB DUP3 MSTORE PUSH1 0x26 DUP2 MSTORE PUSH1 0x20 ADD DUP1 PUSH2 0xF1F PUSH1 0x26 SWAP2 CODECOPY PUSH1 0x40 ADD SWAP2 POP POP PUSH1 0x40 MLOAD DUP1 SWAP2 SUB SWAP1 REVERT JUMPDEST PUSH1 0x0 DUP1 SLOAD PUSH1 0x40 MLOAD PUSH1 0x1 PUSH1 0x1 PUSH1 0xA0 SHL SUB DUP1 DUP6 AND SWAP4 SWAP3 AND SWAP2 PUSH32 0x8BE0079C531659141344CD1FD0A4F28419497F9722A3DAAFE3B4186F6B6457E0 SWAP2 LOG3 PUSH1 0x0 DUP1 SLOAD PUSH1 0x1 PUSH1 0x1 PUSH1 0xA0 SHL SUB NOT AND PUSH1 0x1 PUSH1 0x1 PUSH1 0xA0 SHL SUB SWAP3 SWAP1 SWAP3 AND SWAP2 SWAP1 SWAP2 OR SWAP1 SSTORE JUMP INVALID 0x4F PUSH24 0x6E61626C653A206E6577206F776E65722069732074686520 PUSH27 0x65726F2061646472657373494E4452413A207472616E7366657220 PUSH7 0x726F6D20746865 KECCAK256 PUSH27 0x65726F2061646472657373494E4452413A20646563726561736564 KECCAK256 PUSH2 0x6C6C PUSH16 0x77616E63652062656C6F77207A65726F 0x49 0x4E DIFFICULTY MSTORE COINBASE GASPRICE KECCAK256 PUSH2 0x7070 PUSH19 0x6F76652066726F6D20746865207A65726F2061 PUSH5 0x6472657373 0x49 0x4E DIFFICULTY MSTORE COINBASE GASPRICE KECCAK256 PUSH21 0x72616E7366657220616D6F756E7420657863656564 PUSH20 0x2062616C616E6365494E4452413A207472616E73 PUSH7 0x657220616D6F75 PUSH15 0x74206578636565647320616C6C6F77 PUSH2 0x6E63 PUSH6 0x494E4452413A KECCAK256 PUSH21 0x72616E7366657220746F20746865207A65726F2061 PUSH5 0x6472657373 0x49 0x4E DIFFICULTY MSTORE COINBASE GASPRICE KECCAK256 PUSH2 0x7070 PUSH19 0x6F766520746F20746865207A65726F20616464 PUSH19 0x657373A265627A7A7231582004B1BCAA31652C PUSH1 0x47 EQ SWAP12 JUMP 0xE2 CREATE2 ADD PUSH4 0xB15469BC SDIV SWAP1 0xB2 CODESIZE PUSH13 0x3200BC0E2F94DF64736F6C6343 STOP SDIV LT STOP ORIGIN "
				},
				"gasEstimates": {
					"creation": {
						"codeDepositCost": "843600",
						"executionCost": "infinite",
						"totalCost": "infinite"
					},
					"external": {
						"": "20265",
						"_decimals()": "1058",
						"_name()": "infinite",
						"_symbol()": "infinite",
						"allowance(address,address)": "1338",
						"approve(address,uint256)": "infinite",
						"balanceOf(address)": "1231",
						"decimals()": "1027",
						"decreaseAllowance(address,uint256)": "infinite",
						"getOwner()": "1095",
						"increaseAllowance(address,uint256)": "infinite",
						"mint(uint256)": "infinite",
						"name()": "infinite",
						"owner()": "1082",
						"renounceOwnership()": "24315",
						"symbol()": "infinite",
						"totalSupply()": "1066",
						"transfer(address,uint256)": "infinite",
						"transferFrom(address,address,uint256)": "infinite",
						"transferOwnership(address)": "infinite"
					},
					"internal": {
						"_approve(address,address,uint256)": "infinite",
						"_burn(address,uint256)": "infinite",
						"_burnFrom(address,uint256)": "infinite",
						"_mint(address,uint256)": "infinite",
						"_transfer(address,address,uint256)": "infinite"
					}
				},
				"methodIdentifiers": {
					"_decimals()": "32424aa3",
					"_name()": "d28d8852",
					"_symbol()": "b09f1266",
					"allowance(address,address)": "dd62ed3e",
					"approve(address,uint256)": "095ea7b3",
					"balanceOf(address)": "70a08231",
					"decimals()": "313ce567",
					"decreaseAllowance(address,uint256)": "a457c2d7",
					"getOwner()": "893d20e8",
					"increaseAllowance(address,uint256)": "39509351",
					"mint(uint256)": "a0712d68",
					"name()": "06fdde03",
					"owner()": "8da5cb5b",
					"renounceOwnership()": "715018a6",
					"symbol()": "95d89b41",
					"totalSupply()": "18160ddd",
					"transfer(address,uint256)": "a9059cbb",
					"transferFrom(address,address,uint256)": "23b872dd",
					"transferOwnership(address)": "f2fde38b"
				}
			},
			"storageLayout": {
				"storage": [
					{
						"astId": 302,
						"contract": "contracts/INDRACOIN.sol:INDRA",
						"label": "_owner",
						"offset": 0,
						"slot": "0",
						"type": "t_address"
					},
					{
						"astId": 417,
						"contract": "contracts/INDRACOIN.sol:INDRA",
						"label": "_balances",
						"offset": 0,
						"slot": "1",
						"type": "t_mapping(t_address,t_uint256)"
					},
					{
						"astId": 423,
						"contract": "contracts/INDRACOIN.sol:INDRA",
						"label": "_allowances",
						"offset": 0,
						"slot": "2",
						"type": "t_mapping(t_address,t_mapping(t_address,t_uint256))"
					},
					{
						"astId": 425,
						"contract": "contracts/INDRACOIN.sol:INDRA",
						"label": "_totalSupply",
						"offset": 0,
						"slot": "3",
						"type": "t_uint256"
					},
					{
						"astId": 427,
						"contract": "contracts/INDRACOIN.sol:INDRA",
						"label": "_decimals",
						"offset": 0,
						"slot": "4",
						"type": "t_uint8"
					},
					{
						"astId": 429,
						"contract": "contracts/INDRACOIN.sol:INDRA",
						"label": "_symbol",
						"offset": 0,
						"slot": "5",
						"type": "t_string_storage"
					},
					{
						"astId": 431,
						"contract": "contracts/INDRACOIN.sol:INDRA",
						"label": "_name",
						"offset": 0,
						"slot": "6",
						"type": "t_string_storage"
					}
				],
				"types": {
					"t_address": {
						"encoding": "inplace",
						"label": "address",
						"numberOfBytes": "20"
					},
					"t_mapping(t_address,t_mapping(t_address,t_uint256))": {
						"encoding": "mapping",
						"key": "t_address",
						"label": "mapping(address => mapping(address => uint256))",
						"numberOfBytes": "32",
						"value": "t_mapping(t_address,t_uint256)"
					},
					"t_mapping(t_address,t_uint256)": {
						"encoding": "mapping",
						"key": "t_address",
						"label": "mapping(address => uint256)",
						"numberOfBytes": "32",
						"value": "t_uint256"
					},
					"t_string_storage": {
						"encoding": "bytes",
						"label": "string",
						"numberOfBytes": "32"
					},
					"t_uint256": {
						"encoding": "inplace",
						"label": "uint256",
						"numberOfBytes": "32"
					},
					"t_uint8": {
						"encoding": "inplace",
						"label": "uint8",
						"numberOfBytes": "1"
					}
				}
			},
			"userdoc": {
				"methods": {}
			}
		}
	}
}